{
	"compilerInput": "{\"language\":\"Solidity\",\"sources\":{\"contracts/ib_project.sol\":{\"content\":\"// SPDX-License-Identifier: MIT\\r\\n \\r\\npragma solidity 0.8.19;\\r\\n\\r\\ninterface IAuthContract {\\r\\n    function getRoles() external view returns (string[] memory);\\r\\n    function getUserRole(address adr) external view returns (string memory);\\r\\n    function setUserRole(address adr, string memory role) external;\\r\\n}\\r\\n\\r\\ncontract AuthContract is IAuthContract{\\r\\n\\r\\n    mapping (address => string) users;\\r\\n    address owner;\\r\\n    string[] roles;\\r\\n\\r\\n    constructor(string[] memory _roles){\\r\\n        owner = msg.sender;\\r\\n        users[owner] = \\\"admin\\\";\\r\\n        roles = _roles;\\r\\n    }\\r\\n\\r\\n    modifier OnlyOwner{\\r\\n        require(msg.sender == owner, \\\"Only owner can do this\\\");\\r\\n        _;\\r\\n    }\\r\\n\\r\\n    function isRoleExist(string memory role) private view returns (bool){\\r\\n        for (uint i = 0; i < roles.length; i++){\\r\\n           if (keccak256(abi.encodePacked(roles[i])) == keccak256(abi.encodePacked(role))){\\r\\n                return true;\\r\\n           }\\r\\n        }\\r\\n        return false;\\r\\n    }\\r\\n\\r\\n    function getRoles() public view returns (string[] memory){\\r\\n        return roles;\\r\\n    }\\r\\n\\r\\n    function getUserRole(address adr) public view returns (string memory){\\r\\n        return users[adr];\\r\\n    }\\r\\n\\r\\n    function setUserRole(address adr, string memory role) OnlyOwner public {\\r\\n        if (isRoleExist(role)){\\r\\n            users[adr] = role;\\r\\n        }\\r\\n    }\\r\\n}\\r\\n\\r\\n\\r\\ncontract StorageContract{\\r\\n\\r\\n    struct File{\\r\\n        string title;\\r\\n        string[] access_roles;\\r\\n    }\\r\\n\\r\\n    struct Directory{\\r\\n        string title;\\r\\n        File[] files;\\r\\n    }\\r\\n\\r\\n    mapping (string => Directory) Directories;\\r\\n    mapping (string => string) FileHash;\\r\\n    address owner;\\r\\n    string[] directory_names;\\r\\n    IAuthContract authContract;\\r\\n\\r\\n\\r\\n    modifier OnlyRegisteredUsers{\\r\\n        require(keccak256(abi.encodePacked(authContract.getUserRole(msg.sender))) != keccak256(abi.encodePacked(\\\"\\\")) , \\\"User must have 1 or more roles\\\");\\r\\n        _;\\r\\n    }\\r\\n\\r\\n    constructor(address authContractAddress){\\r\\n        authContract = IAuthContract(authContractAddress);\\r\\n    }\\r\\n\\r\\n    function checkUserRole(string memory role, string[] memory roles) private pure returns (bool) {\\r\\n        for (uint i = 0; i < roles.length; i++){\\r\\n           if (keccak256(abi.encodePacked(roles[i])) == keccak256(abi.encodePacked(role))){\\r\\n                return true;\\r\\n           }\\r\\n        }\\r\\n        return false;\\r\\n    }\\r\\n\\r\\n    function isDirectoryExist(string memory directory) OnlyRegisteredUsers private view returns (bool){\\r\\n        for (uint i = 0; i < directory_names.length; i++){\\r\\n           if (keccak256(abi.encodePacked(directory_names[i])) == keccak256(abi.encodePacked(directory))){\\r\\n                return true;\\r\\n           }\\r\\n        }\\r\\n        return false;\\r\\n    }\\r\\n\\r\\n    function isFileExist(string memory title, string memory directory) private view returns (bool){\\r\\n        for (uint i = 0; i < Directories[directory].files.length; i++){\\r\\n            if (keccak256(abi.encodePacked(Directories[directory].files[i].title)) == keccak256(abi.encodePacked(title))){\\r\\n                return true;\\r\\n            }\\r\\n        }\\r\\n        return false;\\r\\n    }\\r\\n\\r\\n    function createDirectory(string memory title) OnlyRegisteredUsers public{\\r\\n        require(!isDirectoryExist(title), \\\"Directory already exist\\\");\\r\\n        directory_names.push(title);\\r\\n        Directories[title].title = title;\\r\\n    }\\r\\n\\r\\n    function deleteDirectory(string memory title) OnlyRegisteredUsers public{\\r\\n        for (uint i = 0; i < directory_names.length; i++){\\r\\n            if (keccak256(abi.encodePacked(directory_names[i])) == keccak256(abi.encodePacked(title))){\\r\\n                directory_names[i] = directory_names[directory_names.length - 1];\\r\\n                directory_names.pop();\\r\\n            }\\r\\n        }\\r\\n    }\\r\\n\\r\\n    function getDirectory(string memory title) OnlyRegisteredUsers public view returns (Directory memory){\\r\\n        return Directories[title];\\r\\n    }\\r\\n\\r\\n    function getDirectories() OnlyRegisteredUsers public view returns (string[] memory){\\r\\n        return directory_names;\\r\\n    }\\r\\n\\r\\n    function createFile(string memory title, string memory hash, string memory directory, string[] memory roles) OnlyRegisteredUsers public {\\r\\n        require(isDirectoryExist(directory), \\\"Directory doesnt exist\\\");\\r\\n        require(!isFileExist(title, directory), \\\"File already exist\\\");\\r\\n        File memory file = File(title, roles);\\r\\n        FileHash[title] = hash;\\r\\n        Directories[directory].files.push(file);\\r\\n    }\\r\\n\\r\\n    function deleteFile(string memory title, string memory directory) OnlyRegisteredUsers public {\\r\\n        for (uint i = 0; i < Directories[directory].files.length; i++){\\r\\n            if (keccak256(abi.encodePacked(Directories[directory].files[i].title)) == keccak256(abi.encodePacked(title))){\\r\\n                require(checkUserRole(authContract.getUserRole(msg.sender), Directories[directory].files[i].access_roles), \\\"Not enough permissions\\\");\\r\\n                Directories[directory].files[i] = Directories[directory].files[Directories[directory].files.length - 1];\\r\\n                Directories[directory].files.pop();\\r\\n            }\\r\\n        }\\r\\n    }\\r\\n\\r\\n    function getFileHash(string memory title, string memory directory) OnlyRegisteredUsers public view returns (string memory){\\r\\n        for (uint i = 0; i < Directories[directory].files.length; i++){\\r\\n            if (keccak256(abi.encodePacked(Directories[directory].files[i].title)) == keccak256(abi.encodePacked(title))){\\r\\n                require(checkUserRole(authContract.getUserRole(msg.sender), Directories[directory].files[i].access_roles), \\\"Not enough permissions\\\");\\r\\n                return FileHash[Directories[directory].files[i].title];\\r\\n            }\\r\\n        }\\r\\n        return \\\"\\\";\\r\\n    }\\r\\n}\"}},\"settings\":{\"optimizer\":{\"enabled\":false,\"runs\":200},\"outputSelection\":{\"*\":{\"\":[\"ast\"],\"*\":[\"abi\",\"metadata\",\"devdoc\",\"userdoc\",\"storageLayout\",\"evm.legacyAssembly\",\"evm.bytecode\",\"evm.deployedBytecode\",\"evm.methodIdentifiers\",\"evm.gasEstimates\",\"evm.assembly\"]}},\"remappings\":[]}}",
	"name": "AuthContract",
	"bytecode": {
		"linkReferences": {},
		"object": "60806040523480156200001157600080fd5b506040516200156e3803806200156e8339818101604052810190620000379190620004b9565b33600160006101000a81548173ffffffffffffffffffffffffffffffffffffffff021916908373ffffffffffffffffffffffffffffffffffffffff1602179055506040518060400160405280600581526020017f61646d696e000000000000000000000000000000000000000000000000000000815250600080600160009054906101000a900473ffffffffffffffffffffffffffffffffffffffff1673ffffffffffffffffffffffffffffffffffffffff1673ffffffffffffffffffffffffffffffffffffffff16815260200190815260200160002090816200011c919062000755565b508060029080519060200190620001359291906200013d565b50506200083c565b8280548282559060005260206000209081019282156200018a579160200282015b828111156200018957825182908162000178919062000755565b50916020019190600101906200015e565b5b5090506200019991906200019d565b5090565b5b80821115620001c15760008181620001b79190620001c5565b506001016200019e565b5090565b508054620001d39062000544565b6000825580601f10620001e7575062000208565b601f0160209004906000526020600020908101906200020791906200020b565b5b50565b5b80821115620002265760008160009055506001016200020c565b5090565b6000604051905090565b600080fd5b600080fd5b600080fd5b6000601f19601f8301169050919050565b7f4e487b7100000000000000000000000000000000000000000000000000000000600052604160045260246000fd5b6200028e8262000243565b810181811067ffffffffffffffff82111715620002b057620002af62000254565b5b80604052505050565b6000620002c56200022a565b9050620002d3828262000283565b919050565b600067ffffffffffffffff821115620002f657620002f562000254565b5b602082029050602081019050919050565b600080fd5b600080fd5b600067ffffffffffffffff8211156200032f576200032e62000254565b5b6200033a8262000243565b9050602081019050919050565b60005b83811015620003675780820151818401526020810190506200034a565b60008484015250505050565b60006200038a620003848462000311565b620002b9565b905082815260208101848484011115620003a957620003a86200030c565b5b620003b684828562000347565b509392505050565b600082601f830112620003d657620003d56200023e565b5b8151620003e884826020860162000373565b91505092915050565b6000620004086200040284620002d8565b620002b9565b905080838252602082019050602084028301858111156200042e576200042d62000307565b5b835b818110156200047c57805167ffffffffffffffff8111156200045757620004566200023e565b5b808601620004668982620003be565b8552602085019450505060208101905062000430565b5050509392505050565b600082601f8301126200049e576200049d6200023e565b5b8151620004b0848260208601620003f1565b91505092915050565b600060208284031215620004d257620004d162000234565b5b600082015167ffffffffffffffff811115620004f357620004f262000239565b5b620005018482850162000486565b91505092915050565b600081519050919050565b7f4e487b7100000000000000000000000000000000000000000000000000000000600052602260045260246000fd5b600060028204905060018216806200055d57607f821691505b60208210810362000573576200057262000515565b5b50919050565b60008190508160005260206000209050919050565b60006020601f8301049050919050565b600082821b905092915050565b600060088302620005dd7fffffffffffffffffffffffffffffffffffffffffffffffffffffffffffffffff826200059e565b620005e986836200059e565b95508019841693508086168417925050509392505050565b6000819050919050565b6000819050919050565b600062000636620006306200062a8462000601565b6200060b565b62000601565b9050919050565b6000819050919050565b620006528362000615565b6200066a62000661826200063d565b848454620005ab565b825550505050565b600090565b6200068162000672565b6200068e81848462000647565b505050565b5b81811015620006b657620006aa60008262000677565b60018101905062000694565b5050565b601f8211156200070557620006cf8162000579565b620006da846200058e565b81016020851015620006ea578190505b62000702620006f9856200058e565b83018262000693565b50505b505050565b600082821c905092915050565b60006200072a600019846008026200070a565b1980831691505092915050565b600062000745838362000717565b9150826002028217905092915050565b62000760826200050a565b67ffffffffffffffff8111156200077c576200077b62000254565b5b62000788825462000544565b62000795828285620006ba565b600060209050601f831160018114620007cd5760008415620007b8578287015190505b620007c4858262000737565b86555062000834565b601f198416620007dd8662000579565b60005b828110156200080757848901518255600182019150602085019450602081019050620007e0565b8683101562000827578489015162000823601f89168262000717565b8355505b6001600288020188555050505b505050505050565b610d22806200084c6000396000f3fe608060405234801561001057600080fd5b50600436106100415760003560e01c806327820851146100465780637106139814610076578063724de97914610094575b600080fd5b610060600480360381019061005b9190610467565b6100b0565b60405161006d9190610524565b60405180910390f35b61007e610180565b60405161008b9190610652565b60405180910390f35b6100ae60048036038101906100a991906107a9565b610259565b005b60606000808373ffffffffffffffffffffffffffffffffffffffff1673ffffffffffffffffffffffffffffffffffffffff16815260200190815260200160002080546100fb90610834565b80601f016020809104026020016040519081016040528092919081815260200182805461012790610834565b80156101745780601f1061014957610100808354040283529160200191610174565b820191906000526020600020905b81548152906001019060200180831161015757829003601f168201915b50505050509050919050565b60606002805480602002602001604051908101604052809291908181526020016000905b828210156102505783829060005260206000200180546101c390610834565b80601f01602080910402602001604051908101604052809291908181526020018280546101ef90610834565b801561023c5780601f106102115761010080835404028352916020019161023c565b820191906000526020600020905b81548152906001019060200180831161021f57829003601f168201915b5050505050815260200190600101906101a4565b50505050905090565b600160009054906101000a900473ffffffffffffffffffffffffffffffffffffffff1673ffffffffffffffffffffffffffffffffffffffff163373ffffffffffffffffffffffffffffffffffffffff16146102e9576040517f08c379a00000000000000000000000000000000000000000000000000000000081526004016102e0906108b1565b60405180910390fd5b6102f281610348565b1561034457806000808473ffffffffffffffffffffffffffffffffffffffff1673ffffffffffffffffffffffffffffffffffffffff16815260200190815260200160002090816103429190610a87565b505b5050565b600080600090505b6002805490508110156103ea578260405160200161036e9190610b95565b604051602081830303815290604052805190602001206002828154811061039857610397610bac565b5b906000526020600020016040516020016103b29190610c5e565b60405160208183030381529060405280519060200120036103d75760019150506103f0565b80806103e290610ca4565b915050610350565b50600090505b919050565b6000604051905090565b600080fd5b600080fd5b600073ffffffffffffffffffffffffffffffffffffffff82169050919050565b600061043482610409565b9050919050565b61044481610429565b811461044f57600080fd5b50565b6000813590506104618161043b565b92915050565b60006020828403121561047d5761047c6103ff565b5b600061048b84828501610452565b91505092915050565b600081519050919050565b600082825260208201905092915050565b60005b838110156104ce5780820151818401526020810190506104b3565b60008484015250505050565b6000601f19601f8301169050919050565b60006104f682610494565b610500818561049f565b93506105108185602086016104b0565b610519816104da565b840191505092915050565b6000602082019050818103600083015261053e81846104eb565b905092915050565b600081519050919050565b600082825260208201905092915050565b6000819050602082019050919050565b600082825260208201905092915050565b600061058e82610494565b6105988185610572565b93506105a88185602086016104b0565b6105b1816104da565b840191505092915050565b60006105c88383610583565b905092915050565b6000602082019050919050565b60006105e882610546565b6105f28185610551565b93508360208202850161060485610562565b8060005b85811015610640578484038952815161062185826105bc565b945061062c836105d0565b925060208a01995050600181019050610608565b50829750879550505050505092915050565b6000602082019050818103600083015261066c81846105dd565b905092915050565b600080fd5b600080fd5b7f4e487b7100000000000000000000000000000000000000000000000000000000600052604160045260246000fd5b6106b6826104da565b810181811067ffffffffffffffff821117156106d5576106d461067e565b5b80604052505050565b60006106e86103f5565b90506106f482826106ad565b919050565b600067ffffffffffffffff8211156107145761071361067e565b5b61071d826104da565b9050602081019050919050565b82818337600083830152505050565b600061074c610747846106f9565b6106de565b90508281526020810184848401111561076857610767610679565b5b61077384828561072a565b509392505050565b600082601f8301126107905761078f610674565b5b81356107a0848260208601610739565b91505092915050565b600080604083850312156107c0576107bf6103ff565b5b60006107ce85828601610452565b925050602083013567ffffffffffffffff8111156107ef576107ee610404565b5b6107fb8582860161077b565b9150509250929050565b7f4e487b7100000000000000000000000000000000000000000000000000000000600052602260045260246000fd5b6000600282049050600182168061084c57607f821691505b60208210810361085f5761085e610805565b5b50919050565b7f4f6e6c79206f776e65722063616e20646f207468697300000000000000000000600082015250565b600061089b60168361049f565b91506108a682610865565b602082019050919050565b600060208201905081810360008301526108ca8161088e565b9050919050565b60008190508160005260206000209050919050565b60006020601f8301049050919050565b600082821b905092915050565b6000600883026109337fffffffffffffffffffffffffffffffffffffffffffffffffffffffffffffffff826108f6565b61093d86836108f6565b95508019841693508086168417925050509392505050565b6000819050919050565b6000819050919050565b600061098461097f61097a84610955565b61095f565b610955565b9050919050565b6000819050919050565b61099e83610969565b6109b26109aa8261098b565b848454610903565b825550505050565b600090565b6109c76109ba565b6109d2818484610995565b505050565b5b818110156109f6576109eb6000826109bf565b6001810190506109d8565b5050565b601f821115610a3b57610a0c816108d1565b610a15846108e6565b81016020851015610a24578190505b610a38610a30856108e6565b8301826109d7565b50505b505050565b600082821c905092915050565b6000610a5e60001984600802610a40565b1980831691505092915050565b6000610a778383610a4d565b9150826002028217905092915050565b610a9082610494565b67ffffffffffffffff811115610aa957610aa861067e565b5b610ab38254610834565b610abe8282856109fa565b600060209050601f831160018114610af15760008415610adf578287015190505b610ae98582610a6b565b865550610b51565b601f198416610aff866108d1565b60005b82811015610b2757848901518255600182019150602085019450602081019050610b02565b86831015610b445784890151610b40601f891682610a4d565b8355505b6001600288020188555050505b505050505050565b600081905092915050565b6000610b6f82610494565b610b798185610b59565b9350610b898185602086016104b0565b80840191505092915050565b6000610ba18284610b64565b915081905092915050565b7f4e487b7100000000000000000000000000000000000000000000000000000000600052603260045260246000fd5b60008154610be881610834565b610bf28186610b59565b94506001821660008114610c0d5760018114610c2257610c55565b60ff1983168652811515820286019350610c55565b610c2b856108d1565b60005b83811015610c4d57815481890152600182019150602081019050610c2e565b838801955050505b50505092915050565b6000610c6a8284610bdb565b915081905092915050565b7f4e487b7100000000000000000000000000000000000000000000000000000000600052601160045260246000fd5b6000610caf82610955565b91507fffffffffffffffffffffffffffffffffffffffffffffffffffffffffffffffff8203610ce157610ce0610c75565b5b60018201905091905056fea2646970667358221220468bff46baf9dab5cae7761c97800510878d5cb5479aea88c09e325bf7ecb7a264736f6c63430008130033",
		"opcodes": "PUSH1 0x80 PUSH1 0x40 MSTORE CALLVALUE DUP1 ISZERO PUSH3 0x11 JUMPI PUSH1 0x0 DUP1 REVERT JUMPDEST POP PUSH1 0x40 MLOAD PUSH3 0x156E CODESIZE SUB DUP1 PUSH3 0x156E DUP4 CODECOPY DUP2 DUP2 ADD PUSH1 0x40 MSTORE DUP2 ADD SWAP1 PUSH3 0x37 SWAP2 SWAP1 PUSH3 0x4B9 JUMP JUMPDEST CALLER PUSH1 0x1 PUSH1 0x0 PUSH2 0x100 EXP DUP2 SLOAD DUP2 PUSH20 0xFFFFFFFFFFFFFFFFFFFFFFFFFFFFFFFFFFFFFFFF MUL NOT AND SWAP1 DUP4 PUSH20 0xFFFFFFFFFFFFFFFFFFFFFFFFFFFFFFFFFFFFFFFF AND MUL OR SWAP1 SSTORE POP PUSH1 0x40 MLOAD DUP1 PUSH1 0x40 ADD PUSH1 0x40 MSTORE DUP1 PUSH1 0x5 DUP2 MSTORE PUSH1 0x20 ADD PUSH32 0x61646D696E000000000000000000000000000000000000000000000000000000 DUP2 MSTORE POP PUSH1 0x0 DUP1 PUSH1 0x1 PUSH1 0x0 SWAP1 SLOAD SWAP1 PUSH2 0x100 EXP SWAP1 DIV PUSH20 0xFFFFFFFFFFFFFFFFFFFFFFFFFFFFFFFFFFFFFFFF AND PUSH20 0xFFFFFFFFFFFFFFFFFFFFFFFFFFFFFFFFFFFFFFFF AND PUSH20 0xFFFFFFFFFFFFFFFFFFFFFFFFFFFFFFFFFFFFFFFF AND DUP2 MSTORE PUSH1 0x20 ADD SWAP1 DUP2 MSTORE PUSH1 0x20 ADD PUSH1 0x0 KECCAK256 SWAP1 DUP2 PUSH3 0x11C SWAP2 SWAP1 PUSH3 0x755 JUMP JUMPDEST POP DUP1 PUSH1 0x2 SWAP1 DUP1 MLOAD SWAP1 PUSH1 0x20 ADD SWAP1 PUSH3 0x135 SWAP3 SWAP2 SWAP1 PUSH3 0x13D JUMP JUMPDEST POP POP PUSH3 0x83C JUMP JUMPDEST DUP3 DUP1 SLOAD DUP3 DUP3 SSTORE SWAP1 PUSH1 0x0 MSTORE PUSH1 0x20 PUSH1 0x0 KECCAK256 SWAP1 DUP2 ADD SWAP3 DUP3 ISZERO PUSH3 0x18A JUMPI SWAP2 PUSH1 0x20 MUL DUP3 ADD JUMPDEST DUP3 DUP2 GT ISZERO PUSH3 0x189 JUMPI DUP3 MLOAD DUP3 SWAP1 DUP2 PUSH3 0x178 SWAP2 SWAP1 PUSH3 0x755 JUMP JUMPDEST POP SWAP2 PUSH1 0x20 ADD SWAP2 SWAP1 PUSH1 0x1 ADD SWAP1 PUSH3 0x15E JUMP JUMPDEST JUMPDEST POP SWAP1 POP PUSH3 0x199 SWAP2 SWAP1 PUSH3 0x19D JUMP JUMPDEST POP SWAP1 JUMP JUMPDEST JUMPDEST DUP1 DUP3 GT ISZERO PUSH3 0x1C1 JUMPI PUSH1 0x0 DUP2 DUP2 PUSH3 0x1B7 SWAP2 SWAP1 PUSH3 0x1C5 JUMP JUMPDEST POP PUSH1 0x1 ADD PUSH3 0x19E JUMP JUMPDEST POP SWAP1 JUMP JUMPDEST POP DUP1 SLOAD PUSH3 0x1D3 SWAP1 PUSH3 0x544 JUMP JUMPDEST PUSH1 0x0 DUP3 SSTORE DUP1 PUSH1 0x1F LT PUSH3 0x1E7 JUMPI POP PUSH3 0x208 JUMP JUMPDEST PUSH1 0x1F ADD PUSH1 0x20 SWAP1 DIV SWAP1 PUSH1 0x0 MSTORE PUSH1 0x20 PUSH1 0x0 KECCAK256 SWAP1 DUP2 ADD SWAP1 PUSH3 0x207 SWAP2 SWAP1 PUSH3 0x20B JUMP JUMPDEST JUMPDEST POP JUMP JUMPDEST JUMPDEST DUP1 DUP3 GT ISZERO PUSH3 0x226 JUMPI PUSH1 0x0 DUP2 PUSH1 0x0 SWAP1 SSTORE POP PUSH1 0x1 ADD PUSH3 0x20C JUMP JUMPDEST POP SWAP1 JUMP JUMPDEST PUSH1 0x0 PUSH1 0x40 MLOAD SWAP1 POP SWAP1 JUMP JUMPDEST PUSH1 0x0 DUP1 REVERT JUMPDEST PUSH1 0x0 DUP1 REVERT JUMPDEST PUSH1 0x0 DUP1 REVERT JUMPDEST PUSH1 0x0 PUSH1 0x1F NOT PUSH1 0x1F DUP4 ADD AND SWAP1 POP SWAP2 SWAP1 POP JUMP JUMPDEST PUSH32 0x4E487B7100000000000000000000000000000000000000000000000000000000 PUSH1 0x0 MSTORE PUSH1 0x41 PUSH1 0x4 MSTORE PUSH1 0x24 PUSH1 0x0 REVERT JUMPDEST PUSH3 0x28E DUP3 PUSH3 0x243 JUMP JUMPDEST DUP2 ADD DUP2 DUP2 LT PUSH8 0xFFFFFFFFFFFFFFFF DUP3 GT OR ISZERO PUSH3 0x2B0 JUMPI PUSH3 0x2AF PUSH3 0x254 JUMP JUMPDEST JUMPDEST DUP1 PUSH1 0x40 MSTORE POP POP POP JUMP JUMPDEST PUSH1 0x0 PUSH3 0x2C5 PUSH3 0x22A JUMP JUMPDEST SWAP1 POP PUSH3 0x2D3 DUP3 DUP3 PUSH3 0x283 JUMP JUMPDEST SWAP2 SWAP1 POP JUMP JUMPDEST PUSH1 0x0 PUSH8 0xFFFFFFFFFFFFFFFF DUP3 GT ISZERO PUSH3 0x2F6 JUMPI PUSH3 0x2F5 PUSH3 0x254 JUMP JUMPDEST JUMPDEST PUSH1 0x20 DUP3 MUL SWAP1 POP PUSH1 0x20 DUP2 ADD SWAP1 POP SWAP2 SWAP1 POP JUMP JUMPDEST PUSH1 0x0 DUP1 REVERT JUMPDEST PUSH1 0x0 DUP1 REVERT JUMPDEST PUSH1 0x0 PUSH8 0xFFFFFFFFFFFFFFFF DUP3 GT ISZERO PUSH3 0x32F JUMPI PUSH3 0x32E PUSH3 0x254 JUMP JUMPDEST JUMPDEST PUSH3 0x33A DUP3 PUSH3 0x243 JUMP JUMPDEST SWAP1 POP PUSH1 0x20 DUP2 ADD SWAP1 POP SWAP2 SWAP1 POP JUMP JUMPDEST PUSH1 0x0 JUMPDEST DUP4 DUP2 LT ISZERO PUSH3 0x367 JUMPI DUP1 DUP3 ADD MLOAD DUP2 DUP5 ADD MSTORE PUSH1 0x20 DUP2 ADD SWAP1 POP PUSH3 0x34A JUMP JUMPDEST PUSH1 0x0 DUP5 DUP5 ADD MSTORE POP POP POP POP JUMP JUMPDEST PUSH1 0x0 PUSH3 0x38A PUSH3 0x384 DUP5 PUSH3 0x311 JUMP JUMPDEST PUSH3 0x2B9 JUMP JUMPDEST SWAP1 POP DUP3 DUP2 MSTORE PUSH1 0x20 DUP2 ADD DUP5 DUP5 DUP5 ADD GT ISZERO PUSH3 0x3A9 JUMPI PUSH3 0x3A8 PUSH3 0x30C JUMP JUMPDEST JUMPDEST PUSH3 0x3B6 DUP5 DUP3 DUP6 PUSH3 0x347 JUMP JUMPDEST POP SWAP4 SWAP3 POP POP POP JUMP JUMPDEST PUSH1 0x0 DUP3 PUSH1 0x1F DUP4 ADD SLT PUSH3 0x3D6 JUMPI PUSH3 0x3D5 PUSH3 0x23E JUMP JUMPDEST JUMPDEST DUP2 MLOAD PUSH3 0x3E8 DUP5 DUP3 PUSH1 0x20 DUP7 ADD PUSH3 0x373 JUMP JUMPDEST SWAP2 POP POP SWAP3 SWAP2 POP POP JUMP JUMPDEST PUSH1 0x0 PUSH3 0x408 PUSH3 0x402 DUP5 PUSH3 0x2D8 JUMP JUMPDEST PUSH3 0x2B9 JUMP JUMPDEST SWAP1 POP DUP1 DUP4 DUP3 MSTORE PUSH1 0x20 DUP3 ADD SWAP1 POP PUSH1 0x20 DUP5 MUL DUP4 ADD DUP6 DUP2 GT ISZERO PUSH3 0x42E JUMPI PUSH3 0x42D PUSH3 0x307 JUMP JUMPDEST JUMPDEST DUP4 JUMPDEST DUP2 DUP2 LT ISZERO PUSH3 0x47C JUMPI DUP1 MLOAD PUSH8 0xFFFFFFFFFFFFFFFF DUP2 GT ISZERO PUSH3 0x457 JUMPI PUSH3 0x456 PUSH3 0x23E JUMP JUMPDEST JUMPDEST DUP1 DUP7 ADD PUSH3 0x466 DUP10 DUP3 PUSH3 0x3BE JUMP JUMPDEST DUP6 MSTORE PUSH1 0x20 DUP6 ADD SWAP5 POP POP POP PUSH1 0x20 DUP2 ADD SWAP1 POP PUSH3 0x430 JUMP JUMPDEST POP POP POP SWAP4 SWAP3 POP POP POP JUMP JUMPDEST PUSH1 0x0 DUP3 PUSH1 0x1F DUP4 ADD SLT PUSH3 0x49E JUMPI PUSH3 0x49D PUSH3 0x23E JUMP JUMPDEST JUMPDEST DUP2 MLOAD PUSH3 0x4B0 DUP5 DUP3 PUSH1 0x20 DUP7 ADD PUSH3 0x3F1 JUMP JUMPDEST SWAP2 POP POP SWAP3 SWAP2 POP POP JUMP JUMPDEST PUSH1 0x0 PUSH1 0x20 DUP3 DUP5 SUB SLT ISZERO PUSH3 0x4D2 JUMPI PUSH3 0x4D1 PUSH3 0x234 JUMP JUMPDEST JUMPDEST PUSH1 0x0 DUP3 ADD MLOAD PUSH8 0xFFFFFFFFFFFFFFFF DUP2 GT ISZERO PUSH3 0x4F3 JUMPI PUSH3 0x4F2 PUSH3 0x239 JUMP JUMPDEST JUMPDEST PUSH3 0x501 DUP5 DUP3 DUP6 ADD PUSH3 0x486 JUMP JUMPDEST SWAP2 POP POP SWAP3 SWAP2 POP POP JUMP JUMPDEST PUSH1 0x0 DUP2 MLOAD SWAP1 POP SWAP2 SWAP1 POP JUMP JUMPDEST PUSH32 0x4E487B7100000000000000000000000000000000000000000000000000000000 PUSH1 0x0 MSTORE PUSH1 0x22 PUSH1 0x4 MSTORE PUSH1 0x24 PUSH1 0x0 REVERT JUMPDEST PUSH1 0x0 PUSH1 0x2 DUP3 DIV SWAP1 POP PUSH1 0x1 DUP3 AND DUP1 PUSH3 0x55D JUMPI PUSH1 0x7F DUP3 AND SWAP2 POP JUMPDEST PUSH1 0x20 DUP3 LT DUP2 SUB PUSH3 0x573 JUMPI PUSH3 0x572 PUSH3 0x515 JUMP JUMPDEST JUMPDEST POP SWAP2 SWAP1 POP JUMP JUMPDEST PUSH1 0x0 DUP2 SWAP1 POP DUP2 PUSH1 0x0 MSTORE PUSH1 0x20 PUSH1 0x0 KECCAK256 SWAP1 POP SWAP2 SWAP1 POP JUMP JUMPDEST PUSH1 0x0 PUSH1 0x20 PUSH1 0x1F DUP4 ADD DIV SWAP1 POP SWAP2 SWAP1 POP JUMP JUMPDEST PUSH1 0x0 DUP3 DUP3 SHL SWAP1 POP SWAP3 SWAP2 POP POP JUMP JUMPDEST PUSH1 0x0 PUSH1 0x8 DUP4 MUL PUSH3 0x5DD PUSH32 0xFFFFFFFFFFFFFFFFFFFFFFFFFFFFFFFFFFFFFFFFFFFFFFFFFFFFFFFFFFFFFFFF DUP3 PUSH3 0x59E JUMP JUMPDEST PUSH3 0x5E9 DUP7 DUP4 PUSH3 0x59E JUMP JUMPDEST SWAP6 POP DUP1 NOT DUP5 AND SWAP4 POP DUP1 DUP7 AND DUP5 OR SWAP3 POP POP POP SWAP4 SWAP3 POP POP POP JUMP JUMPDEST PUSH1 0x0 DUP2 SWAP1 POP SWAP2 SWAP1 POP JUMP JUMPDEST PUSH1 0x0 DUP2 SWAP1 POP SWAP2 SWAP1 POP JUMP JUMPDEST PUSH1 0x0 PUSH3 0x636 PUSH3 0x630 PUSH3 0x62A DUP5 PUSH3 0x601 JUMP JUMPDEST PUSH3 0x60B JUMP JUMPDEST PUSH3 0x601 JUMP JUMPDEST SWAP1 POP SWAP2 SWAP1 POP JUMP JUMPDEST PUSH1 0x0 DUP2 SWAP1 POP SWAP2 SWAP1 POP JUMP JUMPDEST PUSH3 0x652 DUP4 PUSH3 0x615 JUMP JUMPDEST PUSH3 0x66A PUSH3 0x661 DUP3 PUSH3 0x63D JUMP JUMPDEST DUP5 DUP5 SLOAD PUSH3 0x5AB JUMP JUMPDEST DUP3 SSTORE POP POP POP POP JUMP JUMPDEST PUSH1 0x0 SWAP1 JUMP JUMPDEST PUSH3 0x681 PUSH3 0x672 JUMP JUMPDEST PUSH3 0x68E DUP2 DUP5 DUP5 PUSH3 0x647 JUMP JUMPDEST POP POP POP JUMP JUMPDEST JUMPDEST DUP2 DUP2 LT ISZERO PUSH3 0x6B6 JUMPI PUSH3 0x6AA PUSH1 0x0 DUP3 PUSH3 0x677 JUMP JUMPDEST PUSH1 0x1 DUP2 ADD SWAP1 POP PUSH3 0x694 JUMP JUMPDEST POP POP JUMP JUMPDEST PUSH1 0x1F DUP3 GT ISZERO PUSH3 0x705 JUMPI PUSH3 0x6CF DUP2 PUSH3 0x579 JUMP JUMPDEST PUSH3 0x6DA DUP5 PUSH3 0x58E JUMP JUMPDEST DUP2 ADD PUSH1 0x20 DUP6 LT ISZERO PUSH3 0x6EA JUMPI DUP2 SWAP1 POP JUMPDEST PUSH3 0x702 PUSH3 0x6F9 DUP6 PUSH3 0x58E JUMP JUMPDEST DUP4 ADD DUP3 PUSH3 0x693 JUMP JUMPDEST POP POP JUMPDEST POP POP POP JUMP JUMPDEST PUSH1 0x0 DUP3 DUP3 SHR SWAP1 POP SWAP3 SWAP2 POP POP JUMP JUMPDEST PUSH1 0x0 PUSH3 0x72A PUSH1 0x0 NOT DUP5 PUSH1 0x8 MUL PUSH3 0x70A JUMP JUMPDEST NOT DUP1 DUP4 AND SWAP2 POP POP SWAP3 SWAP2 POP POP JUMP JUMPDEST PUSH1 0x0 PUSH3 0x745 DUP4 DUP4 PUSH3 0x717 JUMP JUMPDEST SWAP2 POP DUP3 PUSH1 0x2 MUL DUP3 OR SWAP1 POP SWAP3 SWAP2 POP POP JUMP JUMPDEST PUSH3 0x760 DUP3 PUSH3 0x50A JUMP JUMPDEST PUSH8 0xFFFFFFFFFFFFFFFF DUP2 GT ISZERO PUSH3 0x77C JUMPI PUSH3 0x77B PUSH3 0x254 JUMP JUMPDEST JUMPDEST PUSH3 0x788 DUP3 SLOAD PUSH3 0x544 JUMP JUMPDEST PUSH3 0x795 DUP3 DUP3 DUP6 PUSH3 0x6BA JUMP JUMPDEST PUSH1 0x0 PUSH1 0x20 SWAP1 POP PUSH1 0x1F DUP4 GT PUSH1 0x1 DUP2 EQ PUSH3 0x7CD JUMPI PUSH1 0x0 DUP5 ISZERO PUSH3 0x7B8 JUMPI DUP3 DUP8 ADD MLOAD SWAP1 POP JUMPDEST PUSH3 0x7C4 DUP6 DUP3 PUSH3 0x737 JUMP JUMPDEST DUP7 SSTORE POP PUSH3 0x834 JUMP JUMPDEST PUSH1 0x1F NOT DUP5 AND PUSH3 0x7DD DUP7 PUSH3 0x579 JUMP JUMPDEST PUSH1 0x0 JUMPDEST DUP3 DUP2 LT ISZERO PUSH3 0x807 JUMPI DUP5 DUP10 ADD MLOAD DUP3 SSTORE PUSH1 0x1 DUP3 ADD SWAP2 POP PUSH1 0x20 DUP6 ADD SWAP5 POP PUSH1 0x20 DUP2 ADD SWAP1 POP PUSH3 0x7E0 JUMP JUMPDEST DUP7 DUP4 LT ISZERO PUSH3 0x827 JUMPI DUP5 DUP10 ADD MLOAD PUSH3 0x823 PUSH1 0x1F DUP10 AND DUP3 PUSH3 0x717 JUMP JUMPDEST DUP4 SSTORE POP JUMPDEST PUSH1 0x1 PUSH1 0x2 DUP9 MUL ADD DUP9 SSTORE POP POP POP JUMPDEST POP POP POP POP POP POP JUMP JUMPDEST PUSH2 0xD22 DUP1 PUSH3 0x84C PUSH1 0x0 CODECOPY PUSH1 0x0 RETURN INVALID PUSH1 0x80 PUSH1 0x40 MSTORE CALLVALUE DUP1 ISZERO PUSH2 0x10 JUMPI PUSH1 0x0 DUP1 REVERT JUMPDEST POP PUSH1 0x4 CALLDATASIZE LT PUSH2 0x41 JUMPI PUSH1 0x0 CALLDATALOAD PUSH1 0xE0 SHR DUP1 PUSH4 0x27820851 EQ PUSH2 0x46 JUMPI DUP1 PUSH4 0x71061398 EQ PUSH2 0x76 JUMPI DUP1 PUSH4 0x724DE979 EQ PUSH2 0x94 JUMPI JUMPDEST PUSH1 0x0 DUP1 REVERT JUMPDEST PUSH2 0x60 PUSH1 0x4 DUP1 CALLDATASIZE SUB DUP2 ADD SWAP1 PUSH2 0x5B SWAP2 SWAP1 PUSH2 0x467 JUMP JUMPDEST PUSH2 0xB0 JUMP JUMPDEST PUSH1 0x40 MLOAD PUSH2 0x6D SWAP2 SWAP1 PUSH2 0x524 JUMP JUMPDEST PUSH1 0x40 MLOAD DUP1 SWAP2 SUB SWAP1 RETURN JUMPDEST PUSH2 0x7E PUSH2 0x180 JUMP JUMPDEST PUSH1 0x40 MLOAD PUSH2 0x8B SWAP2 SWAP1 PUSH2 0x652 JUMP JUMPDEST PUSH1 0x40 MLOAD DUP1 SWAP2 SUB SWAP1 RETURN JUMPDEST PUSH2 0xAE PUSH1 0x4 DUP1 CALLDATASIZE SUB DUP2 ADD SWAP1 PUSH2 0xA9 SWAP2 SWAP1 PUSH2 0x7A9 JUMP JUMPDEST PUSH2 0x259 JUMP JUMPDEST STOP JUMPDEST PUSH1 0x60 PUSH1 0x0 DUP1 DUP4 PUSH20 0xFFFFFFFFFFFFFFFFFFFFFFFFFFFFFFFFFFFFFFFF AND PUSH20 0xFFFFFFFFFFFFFFFFFFFFFFFFFFFFFFFFFFFFFFFF AND DUP2 MSTORE PUSH1 0x20 ADD SWAP1 DUP2 MSTORE PUSH1 0x20 ADD PUSH1 0x0 KECCAK256 DUP1 SLOAD PUSH2 0xFB SWAP1 PUSH2 0x834 JUMP JUMPDEST DUP1 PUSH1 0x1F ADD PUSH1 0x20 DUP1 SWAP2 DIV MUL PUSH1 0x20 ADD PUSH1 0x40 MLOAD SWAP1 DUP2 ADD PUSH1 0x40 MSTORE DUP1 SWAP3 SWAP2 SWAP1 DUP2 DUP2 MSTORE PUSH1 0x20 ADD DUP3 DUP1 SLOAD PUSH2 0x127 SWAP1 PUSH2 0x834 JUMP JUMPDEST DUP1 ISZERO PUSH2 0x174 JUMPI DUP1 PUSH1 0x1F LT PUSH2 0x149 JUMPI PUSH2 0x100 DUP1 DUP4 SLOAD DIV MUL DUP4 MSTORE SWAP2 PUSH1 0x20 ADD SWAP2 PUSH2 0x174 JUMP JUMPDEST DUP3 ADD SWAP2 SWAP1 PUSH1 0x0 MSTORE PUSH1 0x20 PUSH1 0x0 KECCAK256 SWAP1 JUMPDEST DUP2 SLOAD DUP2 MSTORE SWAP1 PUSH1 0x1 ADD SWAP1 PUSH1 0x20 ADD DUP1 DUP4 GT PUSH2 0x157 JUMPI DUP3 SWAP1 SUB PUSH1 0x1F AND DUP3 ADD SWAP2 JUMPDEST POP POP POP POP POP SWAP1 POP SWAP2 SWAP1 POP JUMP JUMPDEST PUSH1 0x60 PUSH1 0x2 DUP1 SLOAD DUP1 PUSH1 0x20 MUL PUSH1 0x20 ADD PUSH1 0x40 MLOAD SWAP1 DUP2 ADD PUSH1 0x40 MSTORE DUP1 SWAP3 SWAP2 SWAP1 DUP2 DUP2 MSTORE PUSH1 0x20 ADD PUSH1 0x0 SWAP1 JUMPDEST DUP3 DUP3 LT ISZERO PUSH2 0x250 JUMPI DUP4 DUP3 SWAP1 PUSH1 0x0 MSTORE PUSH1 0x20 PUSH1 0x0 KECCAK256 ADD DUP1 SLOAD PUSH2 0x1C3 SWAP1 PUSH2 0x834 JUMP JUMPDEST DUP1 PUSH1 0x1F ADD PUSH1 0x20 DUP1 SWAP2 DIV MUL PUSH1 0x20 ADD PUSH1 0x40 MLOAD SWAP1 DUP2 ADD PUSH1 0x40 MSTORE DUP1 SWAP3 SWAP2 SWAP1 DUP2 DUP2 MSTORE PUSH1 0x20 ADD DUP3 DUP1 SLOAD PUSH2 0x1EF SWAP1 PUSH2 0x834 JUMP JUMPDEST DUP1 ISZERO PUSH2 0x23C JUMPI DUP1 PUSH1 0x1F LT PUSH2 0x211 JUMPI PUSH2 0x100 DUP1 DUP4 SLOAD DIV MUL DUP4 MSTORE SWAP2 PUSH1 0x20 ADD SWAP2 PUSH2 0x23C JUMP JUMPDEST DUP3 ADD SWAP2 SWAP1 PUSH1 0x0 MSTORE PUSH1 0x20 PUSH1 0x0 KECCAK256 SWAP1 JUMPDEST DUP2 SLOAD DUP2 MSTORE SWAP1 PUSH1 0x1 ADD SWAP1 PUSH1 0x20 ADD DUP1 DUP4 GT PUSH2 0x21F JUMPI DUP3 SWAP1 SUB PUSH1 0x1F AND DUP3 ADD SWAP2 JUMPDEST POP POP POP POP POP DUP2 MSTORE PUSH1 0x20 ADD SWAP1 PUSH1 0x1 ADD SWAP1 PUSH2 0x1A4 JUMP JUMPDEST POP POP POP POP SWAP1 POP SWAP1 JUMP JUMPDEST PUSH1 0x1 PUSH1 0x0 SWAP1 SLOAD SWAP1 PUSH2 0x100 EXP SWAP1 DIV PUSH20 0xFFFFFFFFFFFFFFFFFFFFFFFFFFFFFFFFFFFFFFFF AND PUSH20 0xFFFFFFFFFFFFFFFFFFFFFFFFFFFFFFFFFFFFFFFF AND CALLER PUSH20 0xFFFFFFFFFFFFFFFFFFFFFFFFFFFFFFFFFFFFFFFF AND EQ PUSH2 0x2E9 JUMPI PUSH1 0x40 MLOAD PUSH32 0x8C379A000000000000000000000000000000000000000000000000000000000 DUP2 MSTORE PUSH1 0x4 ADD PUSH2 0x2E0 SWAP1 PUSH2 0x8B1 JUMP JUMPDEST PUSH1 0x40 MLOAD DUP1 SWAP2 SUB SWAP1 REVERT JUMPDEST PUSH2 0x2F2 DUP2 PUSH2 0x348 JUMP JUMPDEST ISZERO PUSH2 0x344 JUMPI DUP1 PUSH1 0x0 DUP1 DUP5 PUSH20 0xFFFFFFFFFFFFFFFFFFFFFFFFFFFFFFFFFFFFFFFF AND PUSH20 0xFFFFFFFFFFFFFFFFFFFFFFFFFFFFFFFFFFFFFFFF AND DUP2 MSTORE PUSH1 0x20 ADD SWAP1 DUP2 MSTORE PUSH1 0x20 ADD PUSH1 0x0 KECCAK256 SWAP1 DUP2 PUSH2 0x342 SWAP2 SWAP1 PUSH2 0xA87 JUMP JUMPDEST POP JUMPDEST POP POP JUMP JUMPDEST PUSH1 0x0 DUP1 PUSH1 0x0 SWAP1 POP JUMPDEST PUSH1 0x2 DUP1 SLOAD SWAP1 POP DUP2 LT ISZERO PUSH2 0x3EA JUMPI DUP3 PUSH1 0x40 MLOAD PUSH1 0x20 ADD PUSH2 0x36E SWAP2 SWAP1 PUSH2 0xB95 JUMP JUMPDEST PUSH1 0x40 MLOAD PUSH1 0x20 DUP2 DUP4 SUB SUB DUP2 MSTORE SWAP1 PUSH1 0x40 MSTORE DUP1 MLOAD SWAP1 PUSH1 0x20 ADD KECCAK256 PUSH1 0x2 DUP3 DUP2 SLOAD DUP2 LT PUSH2 0x398 JUMPI PUSH2 0x397 PUSH2 0xBAC JUMP JUMPDEST JUMPDEST SWAP1 PUSH1 0x0 MSTORE PUSH1 0x20 PUSH1 0x0 KECCAK256 ADD PUSH1 0x40 MLOAD PUSH1 0x20 ADD PUSH2 0x3B2 SWAP2 SWAP1 PUSH2 0xC5E JUMP JUMPDEST PUSH1 0x40 MLOAD PUSH1 0x20 DUP2 DUP4 SUB SUB DUP2 MSTORE SWAP1 PUSH1 0x40 MSTORE DUP1 MLOAD SWAP1 PUSH1 0x20 ADD KECCAK256 SUB PUSH2 0x3D7 JUMPI PUSH1 0x1 SWAP2 POP POP PUSH2 0x3F0 JUMP JUMPDEST DUP1 DUP1 PUSH2 0x3E2 SWAP1 PUSH2 0xCA4 JUMP JUMPDEST SWAP2 POP POP PUSH2 0x350 JUMP JUMPDEST POP PUSH1 0x0 SWAP1 POP JUMPDEST SWAP2 SWAP1 POP JUMP JUMPDEST PUSH1 0x0 PUSH1 0x40 MLOAD SWAP1 POP SWAP1 JUMP JUMPDEST PUSH1 0x0 DUP1 REVERT JUMPDEST PUSH1 0x0 DUP1 REVERT JUMPDEST PUSH1 0x0 PUSH20 0xFFFFFFFFFFFFFFFFFFFFFFFFFFFFFFFFFFFFFFFF DUP3 AND SWAP1 POP SWAP2 SWAP1 POP JUMP JUMPDEST PUSH1 0x0 PUSH2 0x434 DUP3 PUSH2 0x409 JUMP JUMPDEST SWAP1 POP SWAP2 SWAP1 POP JUMP JUMPDEST PUSH2 0x444 DUP2 PUSH2 0x429 JUMP JUMPDEST DUP2 EQ PUSH2 0x44F JUMPI PUSH1 0x0 DUP1 REVERT JUMPDEST POP JUMP JUMPDEST PUSH1 0x0 DUP2 CALLDATALOAD SWAP1 POP PUSH2 0x461 DUP2 PUSH2 0x43B JUMP JUMPDEST SWAP3 SWAP2 POP POP JUMP JUMPDEST PUSH1 0x0 PUSH1 0x20 DUP3 DUP5 SUB SLT ISZERO PUSH2 0x47D JUMPI PUSH2 0x47C PUSH2 0x3FF JUMP JUMPDEST JUMPDEST PUSH1 0x0 PUSH2 0x48B DUP5 DUP3 DUP6 ADD PUSH2 0x452 JUMP JUMPDEST SWAP2 POP POP SWAP3 SWAP2 POP POP JUMP JUMPDEST PUSH1 0x0 DUP2 MLOAD SWAP1 POP SWAP2 SWAP1 POP JUMP JUMPDEST PUSH1 0x0 DUP3 DUP3 MSTORE PUSH1 0x20 DUP3 ADD SWAP1 POP SWAP3 SWAP2 POP POP JUMP JUMPDEST PUSH1 0x0 JUMPDEST DUP4 DUP2 LT ISZERO PUSH2 0x4CE JUMPI DUP1 DUP3 ADD MLOAD DUP2 DUP5 ADD MSTORE PUSH1 0x20 DUP2 ADD SWAP1 POP PUSH2 0x4B3 JUMP JUMPDEST PUSH1 0x0 DUP5 DUP5 ADD MSTORE POP POP POP POP JUMP JUMPDEST PUSH1 0x0 PUSH1 0x1F NOT PUSH1 0x1F DUP4 ADD AND SWAP1 POP SWAP2 SWAP1 POP JUMP JUMPDEST PUSH1 0x0 PUSH2 0x4F6 DUP3 PUSH2 0x494 JUMP JUMPDEST PUSH2 0x500 DUP2 DUP6 PUSH2 0x49F JUMP JUMPDEST SWAP4 POP PUSH2 0x510 DUP2 DUP6 PUSH1 0x20 DUP7 ADD PUSH2 0x4B0 JUMP JUMPDEST PUSH2 0x519 DUP2 PUSH2 0x4DA JUMP JUMPDEST DUP5 ADD SWAP2 POP POP SWAP3 SWAP2 POP POP JUMP JUMPDEST PUSH1 0x0 PUSH1 0x20 DUP3 ADD SWAP1 POP DUP2 DUP2 SUB PUSH1 0x0 DUP4 ADD MSTORE PUSH2 0x53E DUP2 DUP5 PUSH2 0x4EB JUMP JUMPDEST SWAP1 POP SWAP3 SWAP2 POP POP JUMP JUMPDEST PUSH1 0x0 DUP2 MLOAD SWAP1 POP SWAP2 SWAP1 POP JUMP JUMPDEST PUSH1 0x0 DUP3 DUP3 MSTORE PUSH1 0x20 DUP3 ADD SWAP1 POP SWAP3 SWAP2 POP POP JUMP JUMPDEST PUSH1 0x0 DUP2 SWAP1 POP PUSH1 0x20 DUP3 ADD SWAP1 POP SWAP2 SWAP1 POP JUMP JUMPDEST PUSH1 0x0 DUP3 DUP3 MSTORE PUSH1 0x20 DUP3 ADD SWAP1 POP SWAP3 SWAP2 POP POP JUMP JUMPDEST PUSH1 0x0 PUSH2 0x58E DUP3 PUSH2 0x494 JUMP JUMPDEST PUSH2 0x598 DUP2 DUP6 PUSH2 0x572 JUMP JUMPDEST SWAP4 POP PUSH2 0x5A8 DUP2 DUP6 PUSH1 0x20 DUP7 ADD PUSH2 0x4B0 JUMP JUMPDEST PUSH2 0x5B1 DUP2 PUSH2 0x4DA JUMP JUMPDEST DUP5 ADD SWAP2 POP POP SWAP3 SWAP2 POP POP JUMP JUMPDEST PUSH1 0x0 PUSH2 0x5C8 DUP4 DUP4 PUSH2 0x583 JUMP JUMPDEST SWAP1 POP SWAP3 SWAP2 POP POP JUMP JUMPDEST PUSH1 0x0 PUSH1 0x20 DUP3 ADD SWAP1 POP SWAP2 SWAP1 POP JUMP JUMPDEST PUSH1 0x0 PUSH2 0x5E8 DUP3 PUSH2 0x546 JUMP JUMPDEST PUSH2 0x5F2 DUP2 DUP6 PUSH2 0x551 JUMP JUMPDEST SWAP4 POP DUP4 PUSH1 0x20 DUP3 MUL DUP6 ADD PUSH2 0x604 DUP6 PUSH2 0x562 JUMP JUMPDEST DUP1 PUSH1 0x0 JUMPDEST DUP6 DUP2 LT ISZERO PUSH2 0x640 JUMPI DUP5 DUP5 SUB DUP10 MSTORE DUP2 MLOAD PUSH2 0x621 DUP6 DUP3 PUSH2 0x5BC JUMP JUMPDEST SWAP5 POP PUSH2 0x62C DUP4 PUSH2 0x5D0 JUMP JUMPDEST SWAP3 POP PUSH1 0x20 DUP11 ADD SWAP10 POP POP PUSH1 0x1 DUP2 ADD SWAP1 POP PUSH2 0x608 JUMP JUMPDEST POP DUP3 SWAP8 POP DUP8 SWAP6 POP POP POP POP POP POP SWAP3 SWAP2 POP POP JUMP JUMPDEST PUSH1 0x0 PUSH1 0x20 DUP3 ADD SWAP1 POP DUP2 DUP2 SUB PUSH1 0x0 DUP4 ADD MSTORE PUSH2 0x66C DUP2 DUP5 PUSH2 0x5DD JUMP JUMPDEST SWAP1 POP SWAP3 SWAP2 POP POP JUMP JUMPDEST PUSH1 0x0 DUP1 REVERT JUMPDEST PUSH1 0x0 DUP1 REVERT JUMPDEST PUSH32 0x4E487B7100000000000000000000000000000000000000000000000000000000 PUSH1 0x0 MSTORE PUSH1 0x41 PUSH1 0x4 MSTORE PUSH1 0x24 PUSH1 0x0 REVERT JUMPDEST PUSH2 0x6B6 DUP3 PUSH2 0x4DA JUMP JUMPDEST DUP2 ADD DUP2 DUP2 LT PUSH8 0xFFFFFFFFFFFFFFFF DUP3 GT OR ISZERO PUSH2 0x6D5 JUMPI PUSH2 0x6D4 PUSH2 0x67E JUMP JUMPDEST JUMPDEST DUP1 PUSH1 0x40 MSTORE POP POP POP JUMP JUMPDEST PUSH1 0x0 PUSH2 0x6E8 PUSH2 0x3F5 JUMP JUMPDEST SWAP1 POP PUSH2 0x6F4 DUP3 DUP3 PUSH2 0x6AD JUMP JUMPDEST SWAP2 SWAP1 POP JUMP JUMPDEST PUSH1 0x0 PUSH8 0xFFFFFFFFFFFFFFFF DUP3 GT ISZERO PUSH2 0x714 JUMPI PUSH2 0x713 PUSH2 0x67E JUMP JUMPDEST JUMPDEST PUSH2 0x71D DUP3 PUSH2 0x4DA JUMP JUMPDEST SWAP1 POP PUSH1 0x20 DUP2 ADD SWAP1 POP SWAP2 SWAP1 POP JUMP JUMPDEST DUP3 DUP2 DUP4 CALLDATACOPY PUSH1 0x0 DUP4 DUP4 ADD MSTORE POP POP POP JUMP JUMPDEST PUSH1 0x0 PUSH2 0x74C PUSH2 0x747 DUP5 PUSH2 0x6F9 JUMP JUMPDEST PUSH2 0x6DE JUMP JUMPDEST SWAP1 POP DUP3 DUP2 MSTORE PUSH1 0x20 DUP2 ADD DUP5 DUP5 DUP5 ADD GT ISZERO PUSH2 0x768 JUMPI PUSH2 0x767 PUSH2 0x679 JUMP JUMPDEST JUMPDEST PUSH2 0x773 DUP5 DUP3 DUP6 PUSH2 0x72A JUMP JUMPDEST POP SWAP4 SWAP3 POP POP POP JUMP JUMPDEST PUSH1 0x0 DUP3 PUSH1 0x1F DUP4 ADD SLT PUSH2 0x790 JUMPI PUSH2 0x78F PUSH2 0x674 JUMP JUMPDEST JUMPDEST DUP2 CALLDATALOAD PUSH2 0x7A0 DUP5 DUP3 PUSH1 0x20 DUP7 ADD PUSH2 0x739 JUMP JUMPDEST SWAP2 POP POP SWAP3 SWAP2 POP POP JUMP JUMPDEST PUSH1 0x0 DUP1 PUSH1 0x40 DUP4 DUP6 SUB SLT ISZERO PUSH2 0x7C0 JUMPI PUSH2 0x7BF PUSH2 0x3FF JUMP JUMPDEST JUMPDEST PUSH1 0x0 PUSH2 0x7CE DUP6 DUP3 DUP7 ADD PUSH2 0x452 JUMP JUMPDEST SWAP3 POP POP PUSH1 0x20 DUP4 ADD CALLDATALOAD PUSH8 0xFFFFFFFFFFFFFFFF DUP2 GT ISZERO PUSH2 0x7EF JUMPI PUSH2 0x7EE PUSH2 0x404 JUMP JUMPDEST JUMPDEST PUSH2 0x7FB DUP6 DUP3 DUP7 ADD PUSH2 0x77B JUMP JUMPDEST SWAP2 POP POP SWAP3 POP SWAP3 SWAP1 POP JUMP JUMPDEST PUSH32 0x4E487B7100000000000000000000000000000000000000000000000000000000 PUSH1 0x0 MSTORE PUSH1 0x22 PUSH1 0x4 MSTORE PUSH1 0x24 PUSH1 0x0 REVERT JUMPDEST PUSH1 0x0 PUSH1 0x2 DUP3 DIV SWAP1 POP PUSH1 0x1 DUP3 AND DUP1 PUSH2 0x84C JUMPI PUSH1 0x7F DUP3 AND SWAP2 POP JUMPDEST PUSH1 0x20 DUP3 LT DUP2 SUB PUSH2 0x85F JUMPI PUSH2 0x85E PUSH2 0x805 JUMP JUMPDEST JUMPDEST POP SWAP2 SWAP1 POP JUMP JUMPDEST PUSH32 0x4F6E6C79206F776E65722063616E20646F207468697300000000000000000000 PUSH1 0x0 DUP3 ADD MSTORE POP JUMP JUMPDEST PUSH1 0x0 PUSH2 0x89B PUSH1 0x16 DUP4 PUSH2 0x49F JUMP JUMPDEST SWAP2 POP PUSH2 0x8A6 DUP3 PUSH2 0x865 JUMP JUMPDEST PUSH1 0x20 DUP3 ADD SWAP1 POP SWAP2 SWAP1 POP JUMP JUMPDEST PUSH1 0x0 PUSH1 0x20 DUP3 ADD SWAP1 POP DUP2 DUP2 SUB PUSH1 0x0 DUP4 ADD MSTORE PUSH2 0x8CA DUP2 PUSH2 0x88E JUMP JUMPDEST SWAP1 POP SWAP2 SWAP1 POP JUMP JUMPDEST PUSH1 0x0 DUP2 SWAP1 POP DUP2 PUSH1 0x0 MSTORE PUSH1 0x20 PUSH1 0x0 KECCAK256 SWAP1 POP SWAP2 SWAP1 POP JUMP JUMPDEST PUSH1 0x0 PUSH1 0x20 PUSH1 0x1F DUP4 ADD DIV SWAP1 POP SWAP2 SWAP1 POP JUMP JUMPDEST PUSH1 0x0 DUP3 DUP3 SHL SWAP1 POP SWAP3 SWAP2 POP POP JUMP JUMPDEST PUSH1 0x0 PUSH1 0x8 DUP4 MUL PUSH2 0x933 PUSH32 0xFFFFFFFFFFFFFFFFFFFFFFFFFFFFFFFFFFFFFFFFFFFFFFFFFFFFFFFFFFFFFFFF DUP3 PUSH2 0x8F6 JUMP JUMPDEST PUSH2 0x93D DUP7 DUP4 PUSH2 0x8F6 JUMP JUMPDEST SWAP6 POP DUP1 NOT DUP5 AND SWAP4 POP DUP1 DUP7 AND DUP5 OR SWAP3 POP POP POP SWAP4 SWAP3 POP POP POP JUMP JUMPDEST PUSH1 0x0 DUP2 SWAP1 POP SWAP2 SWAP1 POP JUMP JUMPDEST PUSH1 0x0 DUP2 SWAP1 POP SWAP2 SWAP1 POP JUMP JUMPDEST PUSH1 0x0 PUSH2 0x984 PUSH2 0x97F PUSH2 0x97A DUP5 PUSH2 0x955 JUMP JUMPDEST PUSH2 0x95F JUMP JUMPDEST PUSH2 0x955 JUMP JUMPDEST SWAP1 POP SWAP2 SWAP1 POP JUMP JUMPDEST PUSH1 0x0 DUP2 SWAP1 POP SWAP2 SWAP1 POP JUMP JUMPDEST PUSH2 0x99E DUP4 PUSH2 0x969 JUMP JUMPDEST PUSH2 0x9B2 PUSH2 0x9AA DUP3 PUSH2 0x98B JUMP JUMPDEST DUP5 DUP5 SLOAD PUSH2 0x903 JUMP JUMPDEST DUP3 SSTORE POP POP POP POP JUMP JUMPDEST PUSH1 0x0 SWAP1 JUMP JUMPDEST PUSH2 0x9C7 PUSH2 0x9BA JUMP JUMPDEST PUSH2 0x9D2 DUP2 DUP5 DUP5 PUSH2 0x995 JUMP JUMPDEST POP POP POP JUMP JUMPDEST JUMPDEST DUP2 DUP2 LT ISZERO PUSH2 0x9F6 JUMPI PUSH2 0x9EB PUSH1 0x0 DUP3 PUSH2 0x9BF JUMP JUMPDEST PUSH1 0x1 DUP2 ADD SWAP1 POP PUSH2 0x9D8 JUMP JUMPDEST POP POP JUMP JUMPDEST PUSH1 0x1F DUP3 GT ISZERO PUSH2 0xA3B JUMPI PUSH2 0xA0C DUP2 PUSH2 0x8D1 JUMP JUMPDEST PUSH2 0xA15 DUP5 PUSH2 0x8E6 JUMP JUMPDEST DUP2 ADD PUSH1 0x20 DUP6 LT ISZERO PUSH2 0xA24 JUMPI DUP2 SWAP1 POP JUMPDEST PUSH2 0xA38 PUSH2 0xA30 DUP6 PUSH2 0x8E6 JUMP JUMPDEST DUP4 ADD DUP3 PUSH2 0x9D7 JUMP JUMPDEST POP POP JUMPDEST POP POP POP JUMP JUMPDEST PUSH1 0x0 DUP3 DUP3 SHR SWAP1 POP SWAP3 SWAP2 POP POP JUMP JUMPDEST PUSH1 0x0 PUSH2 0xA5E PUSH1 0x0 NOT DUP5 PUSH1 0x8 MUL PUSH2 0xA40 JUMP JUMPDEST NOT DUP1 DUP4 AND SWAP2 POP POP SWAP3 SWAP2 POP POP JUMP JUMPDEST PUSH1 0x0 PUSH2 0xA77 DUP4 DUP4 PUSH2 0xA4D JUMP JUMPDEST SWAP2 POP DUP3 PUSH1 0x2 MUL DUP3 OR SWAP1 POP SWAP3 SWAP2 POP POP JUMP JUMPDEST PUSH2 0xA90 DUP3 PUSH2 0x494 JUMP JUMPDEST PUSH8 0xFFFFFFFFFFFFFFFF DUP2 GT ISZERO PUSH2 0xAA9 JUMPI PUSH2 0xAA8 PUSH2 0x67E JUMP JUMPDEST JUMPDEST PUSH2 0xAB3 DUP3 SLOAD PUSH2 0x834 JUMP JUMPDEST PUSH2 0xABE DUP3 DUP3 DUP6 PUSH2 0x9FA JUMP JUMPDEST PUSH1 0x0 PUSH1 0x20 SWAP1 POP PUSH1 0x1F DUP4 GT PUSH1 0x1 DUP2 EQ PUSH2 0xAF1 JUMPI PUSH1 0x0 DUP5 ISZERO PUSH2 0xADF JUMPI DUP3 DUP8 ADD MLOAD SWAP1 POP JUMPDEST PUSH2 0xAE9 DUP6 DUP3 PUSH2 0xA6B JUMP JUMPDEST DUP7 SSTORE POP PUSH2 0xB51 JUMP JUMPDEST PUSH1 0x1F NOT DUP5 AND PUSH2 0xAFF DUP7 PUSH2 0x8D1 JUMP JUMPDEST PUSH1 0x0 JUMPDEST DUP3 DUP2 LT ISZERO PUSH2 0xB27 JUMPI DUP5 DUP10 ADD MLOAD DUP3 SSTORE PUSH1 0x1 DUP3 ADD SWAP2 POP PUSH1 0x20 DUP6 ADD SWAP5 POP PUSH1 0x20 DUP2 ADD SWAP1 POP PUSH2 0xB02 JUMP JUMPDEST DUP7 DUP4 LT ISZERO PUSH2 0xB44 JUMPI DUP5 DUP10 ADD MLOAD PUSH2 0xB40 PUSH1 0x1F DUP10 AND DUP3 PUSH2 0xA4D JUMP JUMPDEST DUP4 SSTORE POP JUMPDEST PUSH1 0x1 PUSH1 0x2 DUP9 MUL ADD DUP9 SSTORE POP POP POP JUMPDEST POP POP POP POP POP POP JUMP JUMPDEST PUSH1 0x0 DUP2 SWAP1 POP SWAP3 SWAP2 POP POP JUMP JUMPDEST PUSH1 0x0 PUSH2 0xB6F DUP3 PUSH2 0x494 JUMP JUMPDEST PUSH2 0xB79 DUP2 DUP6 PUSH2 0xB59 JUMP JUMPDEST SWAP4 POP PUSH2 0xB89 DUP2 DUP6 PUSH1 0x20 DUP7 ADD PUSH2 0x4B0 JUMP JUMPDEST DUP1 DUP5 ADD SWAP2 POP POP SWAP3 SWAP2 POP POP JUMP JUMPDEST PUSH1 0x0 PUSH2 0xBA1 DUP3 DUP5 PUSH2 0xB64 JUMP JUMPDEST SWAP2 POP DUP2 SWAP1 POP SWAP3 SWAP2 POP POP JUMP JUMPDEST PUSH32 0x4E487B7100000000000000000000000000000000000000000000000000000000 PUSH1 0x0 MSTORE PUSH1 0x32 PUSH1 0x4 MSTORE PUSH1 0x24 PUSH1 0x0 REVERT JUMPDEST PUSH1 0x0 DUP2 SLOAD PUSH2 0xBE8 DUP2 PUSH2 0x834 JUMP JUMPDEST PUSH2 0xBF2 DUP2 DUP7 PUSH2 0xB59 JUMP JUMPDEST SWAP5 POP PUSH1 0x1 DUP3 AND PUSH1 0x0 DUP2 EQ PUSH2 0xC0D JUMPI PUSH1 0x1 DUP2 EQ PUSH2 0xC22 JUMPI PUSH2 0xC55 JUMP JUMPDEST PUSH1 0xFF NOT DUP4 AND DUP7 MSTORE DUP2 ISZERO ISZERO DUP3 MUL DUP7 ADD SWAP4 POP PUSH2 0xC55 JUMP JUMPDEST PUSH2 0xC2B DUP6 PUSH2 0x8D1 JUMP JUMPDEST PUSH1 0x0 JUMPDEST DUP4 DUP2 LT ISZERO PUSH2 0xC4D JUMPI DUP2 SLOAD DUP2 DUP10 ADD MSTORE PUSH1 0x1 DUP3 ADD SWAP2 POP PUSH1 0x20 DUP2 ADD SWAP1 POP PUSH2 0xC2E JUMP JUMPDEST DUP4 DUP9 ADD SWAP6 POP POP POP JUMPDEST POP POP POP SWAP3 SWAP2 POP POP JUMP JUMPDEST PUSH1 0x0 PUSH2 0xC6A DUP3 DUP5 PUSH2 0xBDB JUMP JUMPDEST SWAP2 POP DUP2 SWAP1 POP SWAP3 SWAP2 POP POP JUMP JUMPDEST PUSH32 0x4E487B7100000000000000000000000000000000000000000000000000000000 PUSH1 0x0 MSTORE PUSH1 0x11 PUSH1 0x4 MSTORE PUSH1 0x24 PUSH1 0x0 REVERT JUMPDEST PUSH1 0x0 PUSH2 0xCAF DUP3 PUSH2 0x955 JUMP JUMPDEST SWAP2 POP PUSH32 0xFFFFFFFFFFFFFFFFFFFFFFFFFFFFFFFFFFFFFFFFFFFFFFFFFFFFFFFFFFFFFFFF DUP3 SUB PUSH2 0xCE1 JUMPI PUSH2 0xCE0 PUSH2 0xC75 JUMP JUMPDEST JUMPDEST PUSH1 0x1 DUP3 ADD SWAP1 POP SWAP2 SWAP1 POP JUMP INVALID LOG2 PUSH5 0x6970667358 0x22 SLT KECCAK256 CHAINID DUP12 SELFDESTRUCT CHAINID 0xBA 0xF9 0xDA 0xB5 0xCA 0xE7 PUSH23 0x1C97800510878D5CB5479AEA88C09E325BF7ECB7A26473 PUSH16 0x6C634300081300330000000000000000 "
	},
	"abi": [
		{
			"inputs": [
				{
					"internalType": "string[]",
					"name": "_roles",
					"type": "string[]"
				}
			],
			"stateMutability": "nonpayable",
			"type": "constructor"
		},
		{
			"inputs": [],
			"name": "getRoles",
			"outputs": [
				{
					"internalType": "string[]",
					"name": "",
					"type": "string[]"
				}
			],
			"stateMutability": "view",
			"type": "function"
		},
		{
			"inputs": [
				{
					"internalType": "address",
					"name": "adr",
					"type": "address"
				}
			],
			"name": "getUserRole",
			"outputs": [
				{
					"internalType": "string",
					"name": "",
					"type": "string"
				}
			],
			"stateMutability": "view",
			"type": "function"
		},
		{
			"inputs": [
				{
					"internalType": "address",
					"name": "adr",
					"type": "address"
				},
				{
					"internalType": "string",
					"name": "role",
					"type": "string"
				}
			],
			"name": "setUserRole",
			"outputs": [],
			"stateMutability": "nonpayable",
			"type": "function"
		}
	],
	"storageLayout": {
		"storage": [
			{
				"astId": 28,
				"contract": "contracts/ib_project.sol:AuthContract",
				"label": "users",
				"offset": 0,
				"slot": "0",
				"type": "t_mapping(t_address,t_string_storage)"
			},
			{
				"astId": 30,
				"contract": "contracts/ib_project.sol:AuthContract",
				"label": "owner",
				"offset": 0,
				"slot": "1",
				"type": "t_address"
			},
			{
				"astId": 33,
				"contract": "contracts/ib_project.sol:AuthContract",
				"label": "roles",
				"offset": 0,
				"slot": "2",
				"type": "t_array(t_string_storage)dyn_storage"
			}
		],
		"types": {
			"t_address": {
				"encoding": "inplace",
				"label": "address",
				"numberOfBytes": "20"
			},
			"t_array(t_string_storage)dyn_storage": {
				"base": "t_string_storage",
				"encoding": "dynamic_array",
				"label": "string[]",
				"numberOfBytes": "32"
			},
			"t_mapping(t_address,t_string_storage)": {
				"encoding": "mapping",
				"key": "t_address",
				"label": "mapping(address => string)",
				"numberOfBytes": "32",
				"value": "t_string_storage"
			},
			"t_string_storage": {
				"encoding": "bytes",
				"label": "string",
				"numberOfBytes": "32"
			}
		}
	},
	"web3Deploy": "var _roles = /* var of type string[] here */ ;\nvar authcontractContract = new web3.eth.Contract([{\"inputs\":[{\"internalType\":\"string[]\",\"name\":\"_roles\",\"type\":\"string[]\"}],\"stateMutability\":\"nonpayable\",\"type\":\"constructor\"},{\"inputs\":[],\"name\":\"getRoles\",\"outputs\":[{\"internalType\":\"string[]\",\"name\":\"\",\"type\":\"string[]\"}],\"stateMutability\":\"view\",\"type\":\"function\"},{\"inputs\":[{\"internalType\":\"address\",\"name\":\"adr\",\"type\":\"address\"}],\"name\":\"getUserRole\",\"outputs\":[{\"internalType\":\"string\",\"name\":\"\",\"type\":\"string\"}],\"stateMutability\":\"view\",\"type\":\"function\"},{\"inputs\":[{\"internalType\":\"address\",\"name\":\"adr\",\"type\":\"address\"},{\"internalType\":\"string\",\"name\":\"role\",\"type\":\"string\"}],\"name\":\"setUserRole\",\"outputs\":[],\"stateMutability\":\"nonpayable\",\"type\":\"function\"}]);\nvar authcontract = authcontractContract.deploy({\n     data: '0x60806040523480156200001157600080fd5b506040516200156e3803806200156e8339818101604052810190620000379190620004b9565b33600160006101000a81548173ffffffffffffffffffffffffffffffffffffffff021916908373ffffffffffffffffffffffffffffffffffffffff1602179055506040518060400160405280600581526020017f61646d696e000000000000000000000000000000000000000000000000000000815250600080600160009054906101000a900473ffffffffffffffffffffffffffffffffffffffff1673ffffffffffffffffffffffffffffffffffffffff1673ffffffffffffffffffffffffffffffffffffffff16815260200190815260200160002090816200011c919062000755565b508060029080519060200190620001359291906200013d565b50506200083c565b8280548282559060005260206000209081019282156200018a579160200282015b828111156200018957825182908162000178919062000755565b50916020019190600101906200015e565b5b5090506200019991906200019d565b5090565b5b80821115620001c15760008181620001b79190620001c5565b506001016200019e565b5090565b508054620001d39062000544565b6000825580601f10620001e7575062000208565b601f0160209004906000526020600020908101906200020791906200020b565b5b50565b5b80821115620002265760008160009055506001016200020c565b5090565b6000604051905090565b600080fd5b600080fd5b600080fd5b6000601f19601f8301169050919050565b7f4e487b7100000000000000000000000000000000000000000000000000000000600052604160045260246000fd5b6200028e8262000243565b810181811067ffffffffffffffff82111715620002b057620002af62000254565b5b80604052505050565b6000620002c56200022a565b9050620002d3828262000283565b919050565b600067ffffffffffffffff821115620002f657620002f562000254565b5b602082029050602081019050919050565b600080fd5b600080fd5b600067ffffffffffffffff8211156200032f576200032e62000254565b5b6200033a8262000243565b9050602081019050919050565b60005b83811015620003675780820151818401526020810190506200034a565b60008484015250505050565b60006200038a620003848462000311565b620002b9565b905082815260208101848484011115620003a957620003a86200030c565b5b620003b684828562000347565b509392505050565b600082601f830112620003d657620003d56200023e565b5b8151620003e884826020860162000373565b91505092915050565b6000620004086200040284620002d8565b620002b9565b905080838252602082019050602084028301858111156200042e576200042d62000307565b5b835b818110156200047c57805167ffffffffffffffff8111156200045757620004566200023e565b5b808601620004668982620003be565b8552602085019450505060208101905062000430565b5050509392505050565b600082601f8301126200049e576200049d6200023e565b5b8151620004b0848260208601620003f1565b91505092915050565b600060208284031215620004d257620004d162000234565b5b600082015167ffffffffffffffff811115620004f357620004f262000239565b5b620005018482850162000486565b91505092915050565b600081519050919050565b7f4e487b7100000000000000000000000000000000000000000000000000000000600052602260045260246000fd5b600060028204905060018216806200055d57607f821691505b60208210810362000573576200057262000515565b5b50919050565b60008190508160005260206000209050919050565b60006020601f8301049050919050565b600082821b905092915050565b600060088302620005dd7fffffffffffffffffffffffffffffffffffffffffffffffffffffffffffffffff826200059e565b620005e986836200059e565b95508019841693508086168417925050509392505050565b6000819050919050565b6000819050919050565b600062000636620006306200062a8462000601565b6200060b565b62000601565b9050919050565b6000819050919050565b620006528362000615565b6200066a62000661826200063d565b848454620005ab565b825550505050565b600090565b6200068162000672565b6200068e81848462000647565b505050565b5b81811015620006b657620006aa60008262000677565b60018101905062000694565b5050565b601f8211156200070557620006cf8162000579565b620006da846200058e565b81016020851015620006ea578190505b62000702620006f9856200058e565b83018262000693565b50505b505050565b600082821c905092915050565b60006200072a600019846008026200070a565b1980831691505092915050565b600062000745838362000717565b9150826002028217905092915050565b62000760826200050a565b67ffffffffffffffff8111156200077c576200077b62000254565b5b62000788825462000544565b62000795828285620006ba565b600060209050601f831160018114620007cd5760008415620007b8578287015190505b620007c4858262000737565b86555062000834565b601f198416620007dd8662000579565b60005b828110156200080757848901518255600182019150602085019450602081019050620007e0565b8683101562000827578489015162000823601f89168262000717565b8355505b6001600288020188555050505b505050505050565b610d22806200084c6000396000f3fe608060405234801561001057600080fd5b50600436106100415760003560e01c806327820851146100465780637106139814610076578063724de97914610094575b600080fd5b610060600480360381019061005b9190610467565b6100b0565b60405161006d9190610524565b60405180910390f35b61007e610180565b60405161008b9190610652565b60405180910390f35b6100ae60048036038101906100a991906107a9565b610259565b005b60606000808373ffffffffffffffffffffffffffffffffffffffff1673ffffffffffffffffffffffffffffffffffffffff16815260200190815260200160002080546100fb90610834565b80601f016020809104026020016040519081016040528092919081815260200182805461012790610834565b80156101745780601f1061014957610100808354040283529160200191610174565b820191906000526020600020905b81548152906001019060200180831161015757829003601f168201915b50505050509050919050565b60606002805480602002602001604051908101604052809291908181526020016000905b828210156102505783829060005260206000200180546101c390610834565b80601f01602080910402602001604051908101604052809291908181526020018280546101ef90610834565b801561023c5780601f106102115761010080835404028352916020019161023c565b820191906000526020600020905b81548152906001019060200180831161021f57829003601f168201915b5050505050815260200190600101906101a4565b50505050905090565b600160009054906101000a900473ffffffffffffffffffffffffffffffffffffffff1673ffffffffffffffffffffffffffffffffffffffff163373ffffffffffffffffffffffffffffffffffffffff16146102e9576040517f08c379a00000000000000000000000000000000000000000000000000000000081526004016102e0906108b1565b60405180910390fd5b6102f281610348565b1561034457806000808473ffffffffffffffffffffffffffffffffffffffff1673ffffffffffffffffffffffffffffffffffffffff16815260200190815260200160002090816103429190610a87565b505b5050565b600080600090505b6002805490508110156103ea578260405160200161036e9190610b95565b604051602081830303815290604052805190602001206002828154811061039857610397610bac565b5b906000526020600020016040516020016103b29190610c5e565b60405160208183030381529060405280519060200120036103d75760019150506103f0565b80806103e290610ca4565b915050610350565b50600090505b919050565b6000604051905090565b600080fd5b600080fd5b600073ffffffffffffffffffffffffffffffffffffffff82169050919050565b600061043482610409565b9050919050565b61044481610429565b811461044f57600080fd5b50565b6000813590506104618161043b565b92915050565b60006020828403121561047d5761047c6103ff565b5b600061048b84828501610452565b91505092915050565b600081519050919050565b600082825260208201905092915050565b60005b838110156104ce5780820151818401526020810190506104b3565b60008484015250505050565b6000601f19601f8301169050919050565b60006104f682610494565b610500818561049f565b93506105108185602086016104b0565b610519816104da565b840191505092915050565b6000602082019050818103600083015261053e81846104eb565b905092915050565b600081519050919050565b600082825260208201905092915050565b6000819050602082019050919050565b600082825260208201905092915050565b600061058e82610494565b6105988185610572565b93506105a88185602086016104b0565b6105b1816104da565b840191505092915050565b60006105c88383610583565b905092915050565b6000602082019050919050565b60006105e882610546565b6105f28185610551565b93508360208202850161060485610562565b8060005b85811015610640578484038952815161062185826105bc565b945061062c836105d0565b925060208a01995050600181019050610608565b50829750879550505050505092915050565b6000602082019050818103600083015261066c81846105dd565b905092915050565b600080fd5b600080fd5b7f4e487b7100000000000000000000000000000000000000000000000000000000600052604160045260246000fd5b6106b6826104da565b810181811067ffffffffffffffff821117156106d5576106d461067e565b5b80604052505050565b60006106e86103f5565b90506106f482826106ad565b919050565b600067ffffffffffffffff8211156107145761071361067e565b5b61071d826104da565b9050602081019050919050565b82818337600083830152505050565b600061074c610747846106f9565b6106de565b90508281526020810184848401111561076857610767610679565b5b61077384828561072a565b509392505050565b600082601f8301126107905761078f610674565b5b81356107a0848260208601610739565b91505092915050565b600080604083850312156107c0576107bf6103ff565b5b60006107ce85828601610452565b925050602083013567ffffffffffffffff8111156107ef576107ee610404565b5b6107fb8582860161077b565b9150509250929050565b7f4e487b7100000000000000000000000000000000000000000000000000000000600052602260045260246000fd5b6000600282049050600182168061084c57607f821691505b60208210810361085f5761085e610805565b5b50919050565b7f4f6e6c79206f776e65722063616e20646f207468697300000000000000000000600082015250565b600061089b60168361049f565b91506108a682610865565b602082019050919050565b600060208201905081810360008301526108ca8161088e565b9050919050565b60008190508160005260206000209050919050565b60006020601f8301049050919050565b600082821b905092915050565b6000600883026109337fffffffffffffffffffffffffffffffffffffffffffffffffffffffffffffffff826108f6565b61093d86836108f6565b95508019841693508086168417925050509392505050565b6000819050919050565b6000819050919050565b600061098461097f61097a84610955565b61095f565b610955565b9050919050565b6000819050919050565b61099e83610969565b6109b26109aa8261098b565b848454610903565b825550505050565b600090565b6109c76109ba565b6109d2818484610995565b505050565b5b818110156109f6576109eb6000826109bf565b6001810190506109d8565b5050565b601f821115610a3b57610a0c816108d1565b610a15846108e6565b81016020851015610a24578190505b610a38610a30856108e6565b8301826109d7565b50505b505050565b600082821c905092915050565b6000610a5e60001984600802610a40565b1980831691505092915050565b6000610a778383610a4d565b9150826002028217905092915050565b610a9082610494565b67ffffffffffffffff811115610aa957610aa861067e565b5b610ab38254610834565b610abe8282856109fa565b600060209050601f831160018114610af15760008415610adf578287015190505b610ae98582610a6b565b865550610b51565b601f198416610aff866108d1565b60005b82811015610b2757848901518255600182019150602085019450602081019050610b02565b86831015610b445784890151610b40601f891682610a4d565b8355505b6001600288020188555050505b505050505050565b600081905092915050565b6000610b6f82610494565b610b798185610b59565b9350610b898185602086016104b0565b80840191505092915050565b6000610ba18284610b64565b915081905092915050565b7f4e487b7100000000000000000000000000000000000000000000000000000000600052603260045260246000fd5b60008154610be881610834565b610bf28186610b59565b94506001821660008114610c0d5760018114610c2257610c55565b60ff1983168652811515820286019350610c55565b610c2b856108d1565b60005b83811015610c4d57815481890152600182019150602081019050610c2e565b838801955050505b50505092915050565b6000610c6a8284610bdb565b915081905092915050565b7f4e487b7100000000000000000000000000000000000000000000000000000000600052601160045260246000fd5b6000610caf82610955565b91507fffffffffffffffffffffffffffffffffffffffffffffffffffffffffffffffff8203610ce157610ce0610c75565b5b60018201905091905056fea2646970667358221220468bff46baf9dab5cae7761c97800510878d5cb5479aea88c09e325bf7ecb7a264736f6c63430008130033', \n     arguments: [\n          _roles,\n     ]\n}).send({\n     from: web3.eth.accounts[0], \n     gas: '4700000'\n   }, function (e, contract){\n    console.log(e, contract);\n    if (typeof contract.address !== 'undefined') {\n         console.log('Contract mined! address: ' + contract.address + ' transactionHash: ' + contract.transactionHash);\n    }\n })",
	"functionHashes": {
		"27820851": "getUserRole(address)",
		"71061398": "getRoles()",
		"724de979": "setUserRole(address,string)"
	},
	"gasEstimates": {
		"Creation": {
			"codeDepositCost": "672400",
			"executionCost": "infinite",
			"totalCost": "infinite"
		},
		"External": {
			"getRoles()": "infinite",
			"getUserRole(address)": "infinite",
			"setUserRole(address,string)": "infinite"
		},
		"Internal": {
			"isRoleExist(string memory)": "infinite"
		}
	},
	"devdoc": {
		"kind": "dev",
		"methods": {},
		"version": 1
	},
	"userdoc": {
		"kind": "user",
		"methods": {},
		"version": 1
	},
	"Runtime Bytecode": {
		"immutableReferences": {},
		"linkReferences": {},
		"object": "608060405234801561001057600080fd5b50600436106100415760003560e01c806327820851146100465780637106139814610076578063724de97914610094575b600080fd5b610060600480360381019061005b9190610467565b6100b0565b60405161006d9190610524565b60405180910390f35b61007e610180565b60405161008b9190610652565b60405180910390f35b6100ae60048036038101906100a991906107a9565b610259565b005b60606000808373ffffffffffffffffffffffffffffffffffffffff1673ffffffffffffffffffffffffffffffffffffffff16815260200190815260200160002080546100fb90610834565b80601f016020809104026020016040519081016040528092919081815260200182805461012790610834565b80156101745780601f1061014957610100808354040283529160200191610174565b820191906000526020600020905b81548152906001019060200180831161015757829003601f168201915b50505050509050919050565b60606002805480602002602001604051908101604052809291908181526020016000905b828210156102505783829060005260206000200180546101c390610834565b80601f01602080910402602001604051908101604052809291908181526020018280546101ef90610834565b801561023c5780601f106102115761010080835404028352916020019161023c565b820191906000526020600020905b81548152906001019060200180831161021f57829003601f168201915b5050505050815260200190600101906101a4565b50505050905090565b600160009054906101000a900473ffffffffffffffffffffffffffffffffffffffff1673ffffffffffffffffffffffffffffffffffffffff163373ffffffffffffffffffffffffffffffffffffffff16146102e9576040517f08c379a00000000000000000000000000000000000000000000000000000000081526004016102e0906108b1565b60405180910390fd5b6102f281610348565b1561034457806000808473ffffffffffffffffffffffffffffffffffffffff1673ffffffffffffffffffffffffffffffffffffffff16815260200190815260200160002090816103429190610a87565b505b5050565b600080600090505b6002805490508110156103ea578260405160200161036e9190610b95565b604051602081830303815290604052805190602001206002828154811061039857610397610bac565b5b906000526020600020016040516020016103b29190610c5e565b60405160208183030381529060405280519060200120036103d75760019150506103f0565b80806103e290610ca4565b915050610350565b50600090505b919050565b6000604051905090565b600080fd5b600080fd5b600073ffffffffffffffffffffffffffffffffffffffff82169050919050565b600061043482610409565b9050919050565b61044481610429565b811461044f57600080fd5b50565b6000813590506104618161043b565b92915050565b60006020828403121561047d5761047c6103ff565b5b600061048b84828501610452565b91505092915050565b600081519050919050565b600082825260208201905092915050565b60005b838110156104ce5780820151818401526020810190506104b3565b60008484015250505050565b6000601f19601f8301169050919050565b60006104f682610494565b610500818561049f565b93506105108185602086016104b0565b610519816104da565b840191505092915050565b6000602082019050818103600083015261053e81846104eb565b905092915050565b600081519050919050565b600082825260208201905092915050565b6000819050602082019050919050565b600082825260208201905092915050565b600061058e82610494565b6105988185610572565b93506105a88185602086016104b0565b6105b1816104da565b840191505092915050565b60006105c88383610583565b905092915050565b6000602082019050919050565b60006105e882610546565b6105f28185610551565b93508360208202850161060485610562565b8060005b85811015610640578484038952815161062185826105bc565b945061062c836105d0565b925060208a01995050600181019050610608565b50829750879550505050505092915050565b6000602082019050818103600083015261066c81846105dd565b905092915050565b600080fd5b600080fd5b7f4e487b7100000000000000000000000000000000000000000000000000000000600052604160045260246000fd5b6106b6826104da565b810181811067ffffffffffffffff821117156106d5576106d461067e565b5b80604052505050565b60006106e86103f5565b90506106f482826106ad565b919050565b600067ffffffffffffffff8211156107145761071361067e565b5b61071d826104da565b9050602081019050919050565b82818337600083830152505050565b600061074c610747846106f9565b6106de565b90508281526020810184848401111561076857610767610679565b5b61077384828561072a565b509392505050565b600082601f8301126107905761078f610674565b5b81356107a0848260208601610739565b91505092915050565b600080604083850312156107c0576107bf6103ff565b5b60006107ce85828601610452565b925050602083013567ffffffffffffffff8111156107ef576107ee610404565b5b6107fb8582860161077b565b9150509250929050565b7f4e487b7100000000000000000000000000000000000000000000000000000000600052602260045260246000fd5b6000600282049050600182168061084c57607f821691505b60208210810361085f5761085e610805565b5b50919050565b7f4f6e6c79206f776e65722063616e20646f207468697300000000000000000000600082015250565b600061089b60168361049f565b91506108a682610865565b602082019050919050565b600060208201905081810360008301526108ca8161088e565b9050919050565b60008190508160005260206000209050919050565b60006020601f8301049050919050565b600082821b905092915050565b6000600883026109337fffffffffffffffffffffffffffffffffffffffffffffffffffffffffffffffff826108f6565b61093d86836108f6565b95508019841693508086168417925050509392505050565b6000819050919050565b6000819050919050565b600061098461097f61097a84610955565b61095f565b610955565b9050919050565b6000819050919050565b61099e83610969565b6109b26109aa8261098b565b848454610903565b825550505050565b600090565b6109c76109ba565b6109d2818484610995565b505050565b5b818110156109f6576109eb6000826109bf565b6001810190506109d8565b5050565b601f821115610a3b57610a0c816108d1565b610a15846108e6565b81016020851015610a24578190505b610a38610a30856108e6565b8301826109d7565b50505b505050565b600082821c905092915050565b6000610a5e60001984600802610a40565b1980831691505092915050565b6000610a778383610a4d565b9150826002028217905092915050565b610a9082610494565b67ffffffffffffffff811115610aa957610aa861067e565b5b610ab38254610834565b610abe8282856109fa565b600060209050601f831160018114610af15760008415610adf578287015190505b610ae98582610a6b565b865550610b51565b601f198416610aff866108d1565b60005b82811015610b2757848901518255600182019150602085019450602081019050610b02565b86831015610b445784890151610b40601f891682610a4d565b8355505b6001600288020188555050505b505050505050565b600081905092915050565b6000610b6f82610494565b610b798185610b59565b9350610b898185602086016104b0565b80840191505092915050565b6000610ba18284610b64565b915081905092915050565b7f4e487b7100000000000000000000000000000000000000000000000000000000600052603260045260246000fd5b60008154610be881610834565b610bf28186610b59565b94506001821660008114610c0d5760018114610c2257610c55565b60ff1983168652811515820286019350610c55565b610c2b856108d1565b60005b83811015610c4d57815481890152600182019150602081019050610c2e565b838801955050505b50505092915050565b6000610c6a8284610bdb565b915081905092915050565b7f4e487b7100000000000000000000000000000000000000000000000000000000600052601160045260246000fd5b6000610caf82610955565b91507fffffffffffffffffffffffffffffffffffffffffffffffffffffffffffffffff8203610ce157610ce0610c75565b5b60018201905091905056fea2646970667358221220468bff46baf9dab5cae7761c97800510878d5cb5479aea88c09e325bf7ecb7a264736f6c63430008130033",
		"opcodes": "PUSH1 0x80 PUSH1 0x40 MSTORE CALLVALUE DUP1 ISZERO PUSH2 0x10 JUMPI PUSH1 0x0 DUP1 REVERT JUMPDEST POP PUSH1 0x4 CALLDATASIZE LT PUSH2 0x41 JUMPI PUSH1 0x0 CALLDATALOAD PUSH1 0xE0 SHR DUP1 PUSH4 0x27820851 EQ PUSH2 0x46 JUMPI DUP1 PUSH4 0x71061398 EQ PUSH2 0x76 JUMPI DUP1 PUSH4 0x724DE979 EQ PUSH2 0x94 JUMPI JUMPDEST PUSH1 0x0 DUP1 REVERT JUMPDEST PUSH2 0x60 PUSH1 0x4 DUP1 CALLDATASIZE SUB DUP2 ADD SWAP1 PUSH2 0x5B SWAP2 SWAP1 PUSH2 0x467 JUMP JUMPDEST PUSH2 0xB0 JUMP JUMPDEST PUSH1 0x40 MLOAD PUSH2 0x6D SWAP2 SWAP1 PUSH2 0x524 JUMP JUMPDEST PUSH1 0x40 MLOAD DUP1 SWAP2 SUB SWAP1 RETURN JUMPDEST PUSH2 0x7E PUSH2 0x180 JUMP JUMPDEST PUSH1 0x40 MLOAD PUSH2 0x8B SWAP2 SWAP1 PUSH2 0x652 JUMP JUMPDEST PUSH1 0x40 MLOAD DUP1 SWAP2 SUB SWAP1 RETURN JUMPDEST PUSH2 0xAE PUSH1 0x4 DUP1 CALLDATASIZE SUB DUP2 ADD SWAP1 PUSH2 0xA9 SWAP2 SWAP1 PUSH2 0x7A9 JUMP JUMPDEST PUSH2 0x259 JUMP JUMPDEST STOP JUMPDEST PUSH1 0x60 PUSH1 0x0 DUP1 DUP4 PUSH20 0xFFFFFFFFFFFFFFFFFFFFFFFFFFFFFFFFFFFFFFFF AND PUSH20 0xFFFFFFFFFFFFFFFFFFFFFFFFFFFFFFFFFFFFFFFF AND DUP2 MSTORE PUSH1 0x20 ADD SWAP1 DUP2 MSTORE PUSH1 0x20 ADD PUSH1 0x0 KECCAK256 DUP1 SLOAD PUSH2 0xFB SWAP1 PUSH2 0x834 JUMP JUMPDEST DUP1 PUSH1 0x1F ADD PUSH1 0x20 DUP1 SWAP2 DIV MUL PUSH1 0x20 ADD PUSH1 0x40 MLOAD SWAP1 DUP2 ADD PUSH1 0x40 MSTORE DUP1 SWAP3 SWAP2 SWAP1 DUP2 DUP2 MSTORE PUSH1 0x20 ADD DUP3 DUP1 SLOAD PUSH2 0x127 SWAP1 PUSH2 0x834 JUMP JUMPDEST DUP1 ISZERO PUSH2 0x174 JUMPI DUP1 PUSH1 0x1F LT PUSH2 0x149 JUMPI PUSH2 0x100 DUP1 DUP4 SLOAD DIV MUL DUP4 MSTORE SWAP2 PUSH1 0x20 ADD SWAP2 PUSH2 0x174 JUMP JUMPDEST DUP3 ADD SWAP2 SWAP1 PUSH1 0x0 MSTORE PUSH1 0x20 PUSH1 0x0 KECCAK256 SWAP1 JUMPDEST DUP2 SLOAD DUP2 MSTORE SWAP1 PUSH1 0x1 ADD SWAP1 PUSH1 0x20 ADD DUP1 DUP4 GT PUSH2 0x157 JUMPI DUP3 SWAP1 SUB PUSH1 0x1F AND DUP3 ADD SWAP2 JUMPDEST POP POP POP POP POP SWAP1 POP SWAP2 SWAP1 POP JUMP JUMPDEST PUSH1 0x60 PUSH1 0x2 DUP1 SLOAD DUP1 PUSH1 0x20 MUL PUSH1 0x20 ADD PUSH1 0x40 MLOAD SWAP1 DUP2 ADD PUSH1 0x40 MSTORE DUP1 SWAP3 SWAP2 SWAP1 DUP2 DUP2 MSTORE PUSH1 0x20 ADD PUSH1 0x0 SWAP1 JUMPDEST DUP3 DUP3 LT ISZERO PUSH2 0x250 JUMPI DUP4 DUP3 SWAP1 PUSH1 0x0 MSTORE PUSH1 0x20 PUSH1 0x0 KECCAK256 ADD DUP1 SLOAD PUSH2 0x1C3 SWAP1 PUSH2 0x834 JUMP JUMPDEST DUP1 PUSH1 0x1F ADD PUSH1 0x20 DUP1 SWAP2 DIV MUL PUSH1 0x20 ADD PUSH1 0x40 MLOAD SWAP1 DUP2 ADD PUSH1 0x40 MSTORE DUP1 SWAP3 SWAP2 SWAP1 DUP2 DUP2 MSTORE PUSH1 0x20 ADD DUP3 DUP1 SLOAD PUSH2 0x1EF SWAP1 PUSH2 0x834 JUMP JUMPDEST DUP1 ISZERO PUSH2 0x23C JUMPI DUP1 PUSH1 0x1F LT PUSH2 0x211 JUMPI PUSH2 0x100 DUP1 DUP4 SLOAD DIV MUL DUP4 MSTORE SWAP2 PUSH1 0x20 ADD SWAP2 PUSH2 0x23C JUMP JUMPDEST DUP3 ADD SWAP2 SWAP1 PUSH1 0x0 MSTORE PUSH1 0x20 PUSH1 0x0 KECCAK256 SWAP1 JUMPDEST DUP2 SLOAD DUP2 MSTORE SWAP1 PUSH1 0x1 ADD SWAP1 PUSH1 0x20 ADD DUP1 DUP4 GT PUSH2 0x21F JUMPI DUP3 SWAP1 SUB PUSH1 0x1F AND DUP3 ADD SWAP2 JUMPDEST POP POP POP POP POP DUP2 MSTORE PUSH1 0x20 ADD SWAP1 PUSH1 0x1 ADD SWAP1 PUSH2 0x1A4 JUMP JUMPDEST POP POP POP POP SWAP1 POP SWAP1 JUMP JUMPDEST PUSH1 0x1 PUSH1 0x0 SWAP1 SLOAD SWAP1 PUSH2 0x100 EXP SWAP1 DIV PUSH20 0xFFFFFFFFFFFFFFFFFFFFFFFFFFFFFFFFFFFFFFFF AND PUSH20 0xFFFFFFFFFFFFFFFFFFFFFFFFFFFFFFFFFFFFFFFF AND CALLER PUSH20 0xFFFFFFFFFFFFFFFFFFFFFFFFFFFFFFFFFFFFFFFF AND EQ PUSH2 0x2E9 JUMPI PUSH1 0x40 MLOAD PUSH32 0x8C379A000000000000000000000000000000000000000000000000000000000 DUP2 MSTORE PUSH1 0x4 ADD PUSH2 0x2E0 SWAP1 PUSH2 0x8B1 JUMP JUMPDEST PUSH1 0x40 MLOAD DUP1 SWAP2 SUB SWAP1 REVERT JUMPDEST PUSH2 0x2F2 DUP2 PUSH2 0x348 JUMP JUMPDEST ISZERO PUSH2 0x344 JUMPI DUP1 PUSH1 0x0 DUP1 DUP5 PUSH20 0xFFFFFFFFFFFFFFFFFFFFFFFFFFFFFFFFFFFFFFFF AND PUSH20 0xFFFFFFFFFFFFFFFFFFFFFFFFFFFFFFFFFFFFFFFF AND DUP2 MSTORE PUSH1 0x20 ADD SWAP1 DUP2 MSTORE PUSH1 0x20 ADD PUSH1 0x0 KECCAK256 SWAP1 DUP2 PUSH2 0x342 SWAP2 SWAP1 PUSH2 0xA87 JUMP JUMPDEST POP JUMPDEST POP POP JUMP JUMPDEST PUSH1 0x0 DUP1 PUSH1 0x0 SWAP1 POP JUMPDEST PUSH1 0x2 DUP1 SLOAD SWAP1 POP DUP2 LT ISZERO PUSH2 0x3EA JUMPI DUP3 PUSH1 0x40 MLOAD PUSH1 0x20 ADD PUSH2 0x36E SWAP2 SWAP1 PUSH2 0xB95 JUMP JUMPDEST PUSH1 0x40 MLOAD PUSH1 0x20 DUP2 DUP4 SUB SUB DUP2 MSTORE SWAP1 PUSH1 0x40 MSTORE DUP1 MLOAD SWAP1 PUSH1 0x20 ADD KECCAK256 PUSH1 0x2 DUP3 DUP2 SLOAD DUP2 LT PUSH2 0x398 JUMPI PUSH2 0x397 PUSH2 0xBAC JUMP JUMPDEST JUMPDEST SWAP1 PUSH1 0x0 MSTORE PUSH1 0x20 PUSH1 0x0 KECCAK256 ADD PUSH1 0x40 MLOAD PUSH1 0x20 ADD PUSH2 0x3B2 SWAP2 SWAP1 PUSH2 0xC5E JUMP JUMPDEST PUSH1 0x40 MLOAD PUSH1 0x20 DUP2 DUP4 SUB SUB DUP2 MSTORE SWAP1 PUSH1 0x40 MSTORE DUP1 MLOAD SWAP1 PUSH1 0x20 ADD KECCAK256 SUB PUSH2 0x3D7 JUMPI PUSH1 0x1 SWAP2 POP POP PUSH2 0x3F0 JUMP JUMPDEST DUP1 DUP1 PUSH2 0x3E2 SWAP1 PUSH2 0xCA4 JUMP JUMPDEST SWAP2 POP POP PUSH2 0x350 JUMP JUMPDEST POP PUSH1 0x0 SWAP1 POP JUMPDEST SWAP2 SWAP1 POP JUMP JUMPDEST PUSH1 0x0 PUSH1 0x40 MLOAD SWAP1 POP SWAP1 JUMP JUMPDEST PUSH1 0x0 DUP1 REVERT JUMPDEST PUSH1 0x0 DUP1 REVERT JUMPDEST PUSH1 0x0 PUSH20 0xFFFFFFFFFFFFFFFFFFFFFFFFFFFFFFFFFFFFFFFF DUP3 AND SWAP1 POP SWAP2 SWAP1 POP JUMP JUMPDEST PUSH1 0x0 PUSH2 0x434 DUP3 PUSH2 0x409 JUMP JUMPDEST SWAP1 POP SWAP2 SWAP1 POP JUMP JUMPDEST PUSH2 0x444 DUP2 PUSH2 0x429 JUMP JUMPDEST DUP2 EQ PUSH2 0x44F JUMPI PUSH1 0x0 DUP1 REVERT JUMPDEST POP JUMP JUMPDEST PUSH1 0x0 DUP2 CALLDATALOAD SWAP1 POP PUSH2 0x461 DUP2 PUSH2 0x43B JUMP JUMPDEST SWAP3 SWAP2 POP POP JUMP JUMPDEST PUSH1 0x0 PUSH1 0x20 DUP3 DUP5 SUB SLT ISZERO PUSH2 0x47D JUMPI PUSH2 0x47C PUSH2 0x3FF JUMP JUMPDEST JUMPDEST PUSH1 0x0 PUSH2 0x48B DUP5 DUP3 DUP6 ADD PUSH2 0x452 JUMP JUMPDEST SWAP2 POP POP SWAP3 SWAP2 POP POP JUMP JUMPDEST PUSH1 0x0 DUP2 MLOAD SWAP1 POP SWAP2 SWAP1 POP JUMP JUMPDEST PUSH1 0x0 DUP3 DUP3 MSTORE PUSH1 0x20 DUP3 ADD SWAP1 POP SWAP3 SWAP2 POP POP JUMP JUMPDEST PUSH1 0x0 JUMPDEST DUP4 DUP2 LT ISZERO PUSH2 0x4CE JUMPI DUP1 DUP3 ADD MLOAD DUP2 DUP5 ADD MSTORE PUSH1 0x20 DUP2 ADD SWAP1 POP PUSH2 0x4B3 JUMP JUMPDEST PUSH1 0x0 DUP5 DUP5 ADD MSTORE POP POP POP POP JUMP JUMPDEST PUSH1 0x0 PUSH1 0x1F NOT PUSH1 0x1F DUP4 ADD AND SWAP1 POP SWAP2 SWAP1 POP JUMP JUMPDEST PUSH1 0x0 PUSH2 0x4F6 DUP3 PUSH2 0x494 JUMP JUMPDEST PUSH2 0x500 DUP2 DUP6 PUSH2 0x49F JUMP JUMPDEST SWAP4 POP PUSH2 0x510 DUP2 DUP6 PUSH1 0x20 DUP7 ADD PUSH2 0x4B0 JUMP JUMPDEST PUSH2 0x519 DUP2 PUSH2 0x4DA JUMP JUMPDEST DUP5 ADD SWAP2 POP POP SWAP3 SWAP2 POP POP JUMP JUMPDEST PUSH1 0x0 PUSH1 0x20 DUP3 ADD SWAP1 POP DUP2 DUP2 SUB PUSH1 0x0 DUP4 ADD MSTORE PUSH2 0x53E DUP2 DUP5 PUSH2 0x4EB JUMP JUMPDEST SWAP1 POP SWAP3 SWAP2 POP POP JUMP JUMPDEST PUSH1 0x0 DUP2 MLOAD SWAP1 POP SWAP2 SWAP1 POP JUMP JUMPDEST PUSH1 0x0 DUP3 DUP3 MSTORE PUSH1 0x20 DUP3 ADD SWAP1 POP SWAP3 SWAP2 POP POP JUMP JUMPDEST PUSH1 0x0 DUP2 SWAP1 POP PUSH1 0x20 DUP3 ADD SWAP1 POP SWAP2 SWAP1 POP JUMP JUMPDEST PUSH1 0x0 DUP3 DUP3 MSTORE PUSH1 0x20 DUP3 ADD SWAP1 POP SWAP3 SWAP2 POP POP JUMP JUMPDEST PUSH1 0x0 PUSH2 0x58E DUP3 PUSH2 0x494 JUMP JUMPDEST PUSH2 0x598 DUP2 DUP6 PUSH2 0x572 JUMP JUMPDEST SWAP4 POP PUSH2 0x5A8 DUP2 DUP6 PUSH1 0x20 DUP7 ADD PUSH2 0x4B0 JUMP JUMPDEST PUSH2 0x5B1 DUP2 PUSH2 0x4DA JUMP JUMPDEST DUP5 ADD SWAP2 POP POP SWAP3 SWAP2 POP POP JUMP JUMPDEST PUSH1 0x0 PUSH2 0x5C8 DUP4 DUP4 PUSH2 0x583 JUMP JUMPDEST SWAP1 POP SWAP3 SWAP2 POP POP JUMP JUMPDEST PUSH1 0x0 PUSH1 0x20 DUP3 ADD SWAP1 POP SWAP2 SWAP1 POP JUMP JUMPDEST PUSH1 0x0 PUSH2 0x5E8 DUP3 PUSH2 0x546 JUMP JUMPDEST PUSH2 0x5F2 DUP2 DUP6 PUSH2 0x551 JUMP JUMPDEST SWAP4 POP DUP4 PUSH1 0x20 DUP3 MUL DUP6 ADD PUSH2 0x604 DUP6 PUSH2 0x562 JUMP JUMPDEST DUP1 PUSH1 0x0 JUMPDEST DUP6 DUP2 LT ISZERO PUSH2 0x640 JUMPI DUP5 DUP5 SUB DUP10 MSTORE DUP2 MLOAD PUSH2 0x621 DUP6 DUP3 PUSH2 0x5BC JUMP JUMPDEST SWAP5 POP PUSH2 0x62C DUP4 PUSH2 0x5D0 JUMP JUMPDEST SWAP3 POP PUSH1 0x20 DUP11 ADD SWAP10 POP POP PUSH1 0x1 DUP2 ADD SWAP1 POP PUSH2 0x608 JUMP JUMPDEST POP DUP3 SWAP8 POP DUP8 SWAP6 POP POP POP POP POP POP SWAP3 SWAP2 POP POP JUMP JUMPDEST PUSH1 0x0 PUSH1 0x20 DUP3 ADD SWAP1 POP DUP2 DUP2 SUB PUSH1 0x0 DUP4 ADD MSTORE PUSH2 0x66C DUP2 DUP5 PUSH2 0x5DD JUMP JUMPDEST SWAP1 POP SWAP3 SWAP2 POP POP JUMP JUMPDEST PUSH1 0x0 DUP1 REVERT JUMPDEST PUSH1 0x0 DUP1 REVERT JUMPDEST PUSH32 0x4E487B7100000000000000000000000000000000000000000000000000000000 PUSH1 0x0 MSTORE PUSH1 0x41 PUSH1 0x4 MSTORE PUSH1 0x24 PUSH1 0x0 REVERT JUMPDEST PUSH2 0x6B6 DUP3 PUSH2 0x4DA JUMP JUMPDEST DUP2 ADD DUP2 DUP2 LT PUSH8 0xFFFFFFFFFFFFFFFF DUP3 GT OR ISZERO PUSH2 0x6D5 JUMPI PUSH2 0x6D4 PUSH2 0x67E JUMP JUMPDEST JUMPDEST DUP1 PUSH1 0x40 MSTORE POP POP POP JUMP JUMPDEST PUSH1 0x0 PUSH2 0x6E8 PUSH2 0x3F5 JUMP JUMPDEST SWAP1 POP PUSH2 0x6F4 DUP3 DUP3 PUSH2 0x6AD JUMP JUMPDEST SWAP2 SWAP1 POP JUMP JUMPDEST PUSH1 0x0 PUSH8 0xFFFFFFFFFFFFFFFF DUP3 GT ISZERO PUSH2 0x714 JUMPI PUSH2 0x713 PUSH2 0x67E JUMP JUMPDEST JUMPDEST PUSH2 0x71D DUP3 PUSH2 0x4DA JUMP JUMPDEST SWAP1 POP PUSH1 0x20 DUP2 ADD SWAP1 POP SWAP2 SWAP1 POP JUMP JUMPDEST DUP3 DUP2 DUP4 CALLDATACOPY PUSH1 0x0 DUP4 DUP4 ADD MSTORE POP POP POP JUMP JUMPDEST PUSH1 0x0 PUSH2 0x74C PUSH2 0x747 DUP5 PUSH2 0x6F9 JUMP JUMPDEST PUSH2 0x6DE JUMP JUMPDEST SWAP1 POP DUP3 DUP2 MSTORE PUSH1 0x20 DUP2 ADD DUP5 DUP5 DUP5 ADD GT ISZERO PUSH2 0x768 JUMPI PUSH2 0x767 PUSH2 0x679 JUMP JUMPDEST JUMPDEST PUSH2 0x773 DUP5 DUP3 DUP6 PUSH2 0x72A JUMP JUMPDEST POP SWAP4 SWAP3 POP POP POP JUMP JUMPDEST PUSH1 0x0 DUP3 PUSH1 0x1F DUP4 ADD SLT PUSH2 0x790 JUMPI PUSH2 0x78F PUSH2 0x674 JUMP JUMPDEST JUMPDEST DUP2 CALLDATALOAD PUSH2 0x7A0 DUP5 DUP3 PUSH1 0x20 DUP7 ADD PUSH2 0x739 JUMP JUMPDEST SWAP2 POP POP SWAP3 SWAP2 POP POP JUMP JUMPDEST PUSH1 0x0 DUP1 PUSH1 0x40 DUP4 DUP6 SUB SLT ISZERO PUSH2 0x7C0 JUMPI PUSH2 0x7BF PUSH2 0x3FF JUMP JUMPDEST JUMPDEST PUSH1 0x0 PUSH2 0x7CE DUP6 DUP3 DUP7 ADD PUSH2 0x452 JUMP JUMPDEST SWAP3 POP POP PUSH1 0x20 DUP4 ADD CALLDATALOAD PUSH8 0xFFFFFFFFFFFFFFFF DUP2 GT ISZERO PUSH2 0x7EF JUMPI PUSH2 0x7EE PUSH2 0x404 JUMP JUMPDEST JUMPDEST PUSH2 0x7FB DUP6 DUP3 DUP7 ADD PUSH2 0x77B JUMP JUMPDEST SWAP2 POP POP SWAP3 POP SWAP3 SWAP1 POP JUMP JUMPDEST PUSH32 0x4E487B7100000000000000000000000000000000000000000000000000000000 PUSH1 0x0 MSTORE PUSH1 0x22 PUSH1 0x4 MSTORE PUSH1 0x24 PUSH1 0x0 REVERT JUMPDEST PUSH1 0x0 PUSH1 0x2 DUP3 DIV SWAP1 POP PUSH1 0x1 DUP3 AND DUP1 PUSH2 0x84C JUMPI PUSH1 0x7F DUP3 AND SWAP2 POP JUMPDEST PUSH1 0x20 DUP3 LT DUP2 SUB PUSH2 0x85F JUMPI PUSH2 0x85E PUSH2 0x805 JUMP JUMPDEST JUMPDEST POP SWAP2 SWAP1 POP JUMP JUMPDEST PUSH32 0x4F6E6C79206F776E65722063616E20646F207468697300000000000000000000 PUSH1 0x0 DUP3 ADD MSTORE POP JUMP JUMPDEST PUSH1 0x0 PUSH2 0x89B PUSH1 0x16 DUP4 PUSH2 0x49F JUMP JUMPDEST SWAP2 POP PUSH2 0x8A6 DUP3 PUSH2 0x865 JUMP JUMPDEST PUSH1 0x20 DUP3 ADD SWAP1 POP SWAP2 SWAP1 POP JUMP JUMPDEST PUSH1 0x0 PUSH1 0x20 DUP3 ADD SWAP1 POP DUP2 DUP2 SUB PUSH1 0x0 DUP4 ADD MSTORE PUSH2 0x8CA DUP2 PUSH2 0x88E JUMP JUMPDEST SWAP1 POP SWAP2 SWAP1 POP JUMP JUMPDEST PUSH1 0x0 DUP2 SWAP1 POP DUP2 PUSH1 0x0 MSTORE PUSH1 0x20 PUSH1 0x0 KECCAK256 SWAP1 POP SWAP2 SWAP1 POP JUMP JUMPDEST PUSH1 0x0 PUSH1 0x20 PUSH1 0x1F DUP4 ADD DIV SWAP1 POP SWAP2 SWAP1 POP JUMP JUMPDEST PUSH1 0x0 DUP3 DUP3 SHL SWAP1 POP SWAP3 SWAP2 POP POP JUMP JUMPDEST PUSH1 0x0 PUSH1 0x8 DUP4 MUL PUSH2 0x933 PUSH32 0xFFFFFFFFFFFFFFFFFFFFFFFFFFFFFFFFFFFFFFFFFFFFFFFFFFFFFFFFFFFFFFFF DUP3 PUSH2 0x8F6 JUMP JUMPDEST PUSH2 0x93D DUP7 DUP4 PUSH2 0x8F6 JUMP JUMPDEST SWAP6 POP DUP1 NOT DUP5 AND SWAP4 POP DUP1 DUP7 AND DUP5 OR SWAP3 POP POP POP SWAP4 SWAP3 POP POP POP JUMP JUMPDEST PUSH1 0x0 DUP2 SWAP1 POP SWAP2 SWAP1 POP JUMP JUMPDEST PUSH1 0x0 DUP2 SWAP1 POP SWAP2 SWAP1 POP JUMP JUMPDEST PUSH1 0x0 PUSH2 0x984 PUSH2 0x97F PUSH2 0x97A DUP5 PUSH2 0x955 JUMP JUMPDEST PUSH2 0x95F JUMP JUMPDEST PUSH2 0x955 JUMP JUMPDEST SWAP1 POP SWAP2 SWAP1 POP JUMP JUMPDEST PUSH1 0x0 DUP2 SWAP1 POP SWAP2 SWAP1 POP JUMP JUMPDEST PUSH2 0x99E DUP4 PUSH2 0x969 JUMP JUMPDEST PUSH2 0x9B2 PUSH2 0x9AA DUP3 PUSH2 0x98B JUMP JUMPDEST DUP5 DUP5 SLOAD PUSH2 0x903 JUMP JUMPDEST DUP3 SSTORE POP POP POP POP JUMP JUMPDEST PUSH1 0x0 SWAP1 JUMP JUMPDEST PUSH2 0x9C7 PUSH2 0x9BA JUMP JUMPDEST PUSH2 0x9D2 DUP2 DUP5 DUP5 PUSH2 0x995 JUMP JUMPDEST POP POP POP JUMP JUMPDEST JUMPDEST DUP2 DUP2 LT ISZERO PUSH2 0x9F6 JUMPI PUSH2 0x9EB PUSH1 0x0 DUP3 PUSH2 0x9BF JUMP JUMPDEST PUSH1 0x1 DUP2 ADD SWAP1 POP PUSH2 0x9D8 JUMP JUMPDEST POP POP JUMP JUMPDEST PUSH1 0x1F DUP3 GT ISZERO PUSH2 0xA3B JUMPI PUSH2 0xA0C DUP2 PUSH2 0x8D1 JUMP JUMPDEST PUSH2 0xA15 DUP5 PUSH2 0x8E6 JUMP JUMPDEST DUP2 ADD PUSH1 0x20 DUP6 LT ISZERO PUSH2 0xA24 JUMPI DUP2 SWAP1 POP JUMPDEST PUSH2 0xA38 PUSH2 0xA30 DUP6 PUSH2 0x8E6 JUMP JUMPDEST DUP4 ADD DUP3 PUSH2 0x9D7 JUMP JUMPDEST POP POP JUMPDEST POP POP POP JUMP JUMPDEST PUSH1 0x0 DUP3 DUP3 SHR SWAP1 POP SWAP3 SWAP2 POP POP JUMP JUMPDEST PUSH1 0x0 PUSH2 0xA5E PUSH1 0x0 NOT DUP5 PUSH1 0x8 MUL PUSH2 0xA40 JUMP JUMPDEST NOT DUP1 DUP4 AND SWAP2 POP POP SWAP3 SWAP2 POP POP JUMP JUMPDEST PUSH1 0x0 PUSH2 0xA77 DUP4 DUP4 PUSH2 0xA4D JUMP JUMPDEST SWAP2 POP DUP3 PUSH1 0x2 MUL DUP3 OR SWAP1 POP SWAP3 SWAP2 POP POP JUMP JUMPDEST PUSH2 0xA90 DUP3 PUSH2 0x494 JUMP JUMPDEST PUSH8 0xFFFFFFFFFFFFFFFF DUP2 GT ISZERO PUSH2 0xAA9 JUMPI PUSH2 0xAA8 PUSH2 0x67E JUMP JUMPDEST JUMPDEST PUSH2 0xAB3 DUP3 SLOAD PUSH2 0x834 JUMP JUMPDEST PUSH2 0xABE DUP3 DUP3 DUP6 PUSH2 0x9FA JUMP JUMPDEST PUSH1 0x0 PUSH1 0x20 SWAP1 POP PUSH1 0x1F DUP4 GT PUSH1 0x1 DUP2 EQ PUSH2 0xAF1 JUMPI PUSH1 0x0 DUP5 ISZERO PUSH2 0xADF JUMPI DUP3 DUP8 ADD MLOAD SWAP1 POP JUMPDEST PUSH2 0xAE9 DUP6 DUP3 PUSH2 0xA6B JUMP JUMPDEST DUP7 SSTORE POP PUSH2 0xB51 JUMP JUMPDEST PUSH1 0x1F NOT DUP5 AND PUSH2 0xAFF DUP7 PUSH2 0x8D1 JUMP JUMPDEST PUSH1 0x0 JUMPDEST DUP3 DUP2 LT ISZERO PUSH2 0xB27 JUMPI DUP5 DUP10 ADD MLOAD DUP3 SSTORE PUSH1 0x1 DUP3 ADD SWAP2 POP PUSH1 0x20 DUP6 ADD SWAP5 POP PUSH1 0x20 DUP2 ADD SWAP1 POP PUSH2 0xB02 JUMP JUMPDEST DUP7 DUP4 LT ISZERO PUSH2 0xB44 JUMPI DUP5 DUP10 ADD MLOAD PUSH2 0xB40 PUSH1 0x1F DUP10 AND DUP3 PUSH2 0xA4D JUMP JUMPDEST DUP4 SSTORE POP JUMPDEST PUSH1 0x1 PUSH1 0x2 DUP9 MUL ADD DUP9 SSTORE POP POP POP JUMPDEST POP POP POP POP POP POP JUMP JUMPDEST PUSH1 0x0 DUP2 SWAP1 POP SWAP3 SWAP2 POP POP JUMP JUMPDEST PUSH1 0x0 PUSH2 0xB6F DUP3 PUSH2 0x494 JUMP JUMPDEST PUSH2 0xB79 DUP2 DUP6 PUSH2 0xB59 JUMP JUMPDEST SWAP4 POP PUSH2 0xB89 DUP2 DUP6 PUSH1 0x20 DUP7 ADD PUSH2 0x4B0 JUMP JUMPDEST DUP1 DUP5 ADD SWAP2 POP POP SWAP3 SWAP2 POP POP JUMP JUMPDEST PUSH1 0x0 PUSH2 0xBA1 DUP3 DUP5 PUSH2 0xB64 JUMP JUMPDEST SWAP2 POP DUP2 SWAP1 POP SWAP3 SWAP2 POP POP JUMP JUMPDEST PUSH32 0x4E487B7100000000000000000000000000000000000000000000000000000000 PUSH1 0x0 MSTORE PUSH1 0x32 PUSH1 0x4 MSTORE PUSH1 0x24 PUSH1 0x0 REVERT JUMPDEST PUSH1 0x0 DUP2 SLOAD PUSH2 0xBE8 DUP2 PUSH2 0x834 JUMP JUMPDEST PUSH2 0xBF2 DUP2 DUP7 PUSH2 0xB59 JUMP JUMPDEST SWAP5 POP PUSH1 0x1 DUP3 AND PUSH1 0x0 DUP2 EQ PUSH2 0xC0D JUMPI PUSH1 0x1 DUP2 EQ PUSH2 0xC22 JUMPI PUSH2 0xC55 JUMP JUMPDEST PUSH1 0xFF NOT DUP4 AND DUP7 MSTORE DUP2 ISZERO ISZERO DUP3 MUL DUP7 ADD SWAP4 POP PUSH2 0xC55 JUMP JUMPDEST PUSH2 0xC2B DUP6 PUSH2 0x8D1 JUMP JUMPDEST PUSH1 0x0 JUMPDEST DUP4 DUP2 LT ISZERO PUSH2 0xC4D JUMPI DUP2 SLOAD DUP2 DUP10 ADD MSTORE PUSH1 0x1 DUP3 ADD SWAP2 POP PUSH1 0x20 DUP2 ADD SWAP1 POP PUSH2 0xC2E JUMP JUMPDEST DUP4 DUP9 ADD SWAP6 POP POP POP JUMPDEST POP POP POP SWAP3 SWAP2 POP POP JUMP JUMPDEST PUSH1 0x0 PUSH2 0xC6A DUP3 DUP5 PUSH2 0xBDB JUMP JUMPDEST SWAP2 POP DUP2 SWAP1 POP SWAP3 SWAP2 POP POP JUMP JUMPDEST PUSH32 0x4E487B7100000000000000000000000000000000000000000000000000000000 PUSH1 0x0 MSTORE PUSH1 0x11 PUSH1 0x4 MSTORE PUSH1 0x24 PUSH1 0x0 REVERT JUMPDEST PUSH1 0x0 PUSH2 0xCAF DUP3 PUSH2 0x955 JUMP JUMPDEST SWAP2 POP PUSH32 0xFFFFFFFFFFFFFFFFFFFFFFFFFFFFFFFFFFFFFFFFFFFFFFFFFFFFFFFFFFFFFFFF DUP3 SUB PUSH2 0xCE1 JUMPI PUSH2 0xCE0 PUSH2 0xC75 JUMP JUMPDEST JUMPDEST PUSH1 0x1 DUP3 ADD SWAP1 POP SWAP2 SWAP1 POP JUMP INVALID LOG2 PUSH5 0x6970667358 0x22 SLT KECCAK256 CHAINID DUP12 SELFDESTRUCT CHAINID 0xBA 0xF9 0xDA 0xB5 0xCA 0xE7 PUSH23 0x1C97800510878D5CB5479AEA88C09E325BF7ECB7A26473 PUSH16 0x6C634300081300330000000000000000 "
	},
	"Assembly": ".code\n  PUSH 80\t\t\tcontract AuthContract is IAuth...\n  PUSH 40\t\t\tcontract AuthContract is IAuth...\n  MSTORE \t\t\tcontract AuthContract is IAuth...\n  CALLVALUE \t\t\tconstructor(string[] memory _r...\n  DUP1 \t\t\tconstructor(string[] memory _r...\n  ISZERO \t\t\tconstructor(string[] memory _r...\n  PUSH [tag] 1\t\t\tconstructor(string[] memory _r...\n  JUMPI \t\t\tconstructor(string[] memory _r...\n  PUSH 0\t\t\tconstructor(string[] memory _r...\n  DUP1 \t\t\tconstructor(string[] memory _r...\n  REVERT \t\t\tconstructor(string[] memory _r...\ntag 1\t\t\tconstructor(string[] memory _r...\n  JUMPDEST \t\t\tconstructor(string[] memory _r...\n  POP \t\t\tconstructor(string[] memory _r...\n  PUSH 40\t\t\tconstructor(string[] memory _r...\n  MLOAD \t\t\tconstructor(string[] memory _r...\n  PUSHSIZE \t\t\tconstructor(string[] memory _r...\n  CODESIZE \t\t\tconstructor(string[] memory _r...\n  SUB \t\t\tconstructor(string[] memory _r...\n  DUP1 \t\t\tconstructor(string[] memory _r...\n  PUSHSIZE \t\t\tconstructor(string[] memory _r...\n  DUP4 \t\t\tconstructor(string[] memory _r...\n  CODECOPY \t\t\tconstructor(string[] memory _r...\n  DUP2 \t\t\tconstructor(string[] memory _r...\n  DUP2 \t\t\tconstructor(string[] memory _r...\n  ADD \t\t\tconstructor(string[] memory _r...\n  PUSH 40\t\t\tconstructor(string[] memory _r...\n  MSTORE \t\t\tconstructor(string[] memory _r...\n  DUP2 \t\t\tconstructor(string[] memory _r...\n  ADD \t\t\tconstructor(string[] memory _r...\n  SWAP1 \t\t\tconstructor(string[] memory _r...\n  PUSH [tag] 2\t\t\tconstructor(string[] memory _r...\n  SWAP2 \t\t\tconstructor(string[] memory _r...\n  SWAP1 \t\t\tconstructor(string[] memory _r...\n  PUSH [tag] 3\t\t\tconstructor(string[] memory _r...\n  JUMP \t\t\tconstructor(string[] memory _r...\ntag 2\t\t\tconstructor(string[] memory _r...\n  JUMPDEST \t\t\tconstructor(string[] memory _r...\n  CALLER \t\t\tmsg.sender\n  PUSH 1\t\t\towner\n  PUSH 0\t\t\towner\n  PUSH 100\t\t\towner = msg.sender\n  EXP \t\t\towner = msg.sender\n  DUP2 \t\t\towner = msg.sender\n  SLOAD \t\t\towner = msg.sender\n  DUP2 \t\t\towner = msg.sender\n  PUSH FFFFFFFFFFFFFFFFFFFFFFFFFFFFFFFFFFFFFFFF\t\t\towner = msg.sender\n  MUL \t\t\towner = msg.sender\n  NOT \t\t\towner = msg.sender\n  AND \t\t\towner = msg.sender\n  SWAP1 \t\t\towner = msg.sender\n  DUP4 \t\t\towner = msg.sender\n  PUSH FFFFFFFFFFFFFFFFFFFFFFFFFFFFFFFFFFFFFFFF\t\t\towner = msg.sender\n  AND \t\t\towner = msg.sender\n  MUL \t\t\towner = msg.sender\n  OR \t\t\towner = msg.sender\n  SWAP1 \t\t\towner = msg.sender\n  SSTORE \t\t\towner = msg.sender\n  POP \t\t\towner = msg.sender\n  PUSH 40\t\t\tusers[owner] = \"admin\"\n  MLOAD \t\t\tusers[owner] = \"admin\"\n  DUP1 \t\t\tusers[owner] = \"admin\"\n  PUSH 40\t\t\tusers[owner] = \"admin\"\n  ADD \t\t\tusers[owner] = \"admin\"\n  PUSH 40\t\t\tusers[owner] = \"admin\"\n  MSTORE \t\t\tusers[owner] = \"admin\"\n  DUP1 \t\t\tusers[owner] = \"admin\"\n  PUSH 5\t\t\tusers[owner] = \"admin\"\n  DUP2 \t\t\tusers[owner] = \"admin\"\n  MSTORE \t\t\tusers[owner] = \"admin\"\n  PUSH 20\t\t\tusers[owner] = \"admin\"\n  ADD \t\t\tusers[owner] = \"admin\"\n  PUSH 61646D696E000000000000000000000000000000000000000000000000000000\t\t\tusers[owner] = \"admin\"\n  DUP2 \t\t\tusers[owner] = \"admin\"\n  MSTORE \t\t\tusers[owner] = \"admin\"\n  POP \t\t\tusers[owner] = \"admin\"\n  PUSH 0\t\t\tusers\n  DUP1 \t\t\tusers[owner]\n  PUSH 1\t\t\towner\n  PUSH 0\t\t\towner\n  SWAP1 \t\t\towner\n  SLOAD \t\t\towner\n  SWAP1 \t\t\towner\n  PUSH 100\t\t\towner\n  EXP \t\t\towner\n  SWAP1 \t\t\towner\n  DIV \t\t\towner\n  PUSH FFFFFFFFFFFFFFFFFFFFFFFFFFFFFFFFFFFFFFFF\t\t\towner\n  AND \t\t\towner\n  PUSH FFFFFFFFFFFFFFFFFFFFFFFFFFFFFFFFFFFFFFFF\t\t\tusers[owner]\n  AND \t\t\tusers[owner]\n  PUSH FFFFFFFFFFFFFFFFFFFFFFFFFFFFFFFFFFFFFFFF\t\t\tusers[owner]\n  AND \t\t\tusers[owner]\n  DUP2 \t\t\tusers[owner]\n  MSTORE \t\t\tusers[owner]\n  PUSH 20\t\t\tusers[owner]\n  ADD \t\t\tusers[owner]\n  SWAP1 \t\t\tusers[owner]\n  DUP2 \t\t\tusers[owner]\n  MSTORE \t\t\tusers[owner]\n  PUSH 20\t\t\tusers[owner]\n  ADD \t\t\tusers[owner]\n  PUSH 0\t\t\tusers[owner]\n  KECCAK256 \t\t\tusers[owner]\n  SWAP1 \t\t\tusers[owner] = \"admin\"\n  DUP2 \t\t\tusers[owner] = \"admin\"\n  PUSH [tag] 6\t\t\tusers[owner] = \"admin\"\n  SWAP2 \t\t\tusers[owner] = \"admin\"\n  SWAP1 \t\t\tusers[owner] = \"admin\"\n  PUSH [tag] 7\t\t\tusers[owner] = \"admin\"\n  JUMP \t\t\tusers[owner] = \"admin\"\ntag 6\t\t\tusers[owner] = \"admin\"\n  JUMPDEST \t\t\tusers[owner] = \"admin\"\n  POP \t\t\tusers[owner] = \"admin\"\n  DUP1 \t\t\t_roles\n  PUSH 2\t\t\troles\n  SWAP1 \t\t\troles = _roles\n  DUP1 \t\t\troles = _roles\n  MLOAD \t\t\troles = _roles\n  SWAP1 \t\t\troles = _roles\n  PUSH 20\t\t\troles = _roles\n  ADD \t\t\troles = _roles\n  SWAP1 \t\t\troles = _roles\n  PUSH [tag] 8\t\t\troles = _roles\n  SWAP3 \t\t\troles = _roles\n  SWAP2 \t\t\troles = _roles\n  SWAP1 \t\t\troles = _roles\n  PUSH [tag] 9\t\t\troles = _roles\n  JUMP \t\t\troles = _roles\ntag 8\t\t\troles = _roles\n  JUMPDEST \t\t\troles = _roles\n  POP \t\t\troles = _roles\n  POP \t\t\tconstructor(string[] memory _r...\n  PUSH [tag] 10\t\t\tcontract AuthContract is IAuth...\n  JUMP \t\t\tcontract AuthContract is IAuth...\ntag 9\t\t\tcontract AuthContract is IAuth...\n  JUMPDEST \t\t\tcontract AuthContract is IAuth...\n  DUP3 \t\t\tcontract AuthContract is IAuth...\n  DUP1 \t\t\tcontract AuthContract is IAuth...\n  SLOAD \t\t\tcontract AuthContract is IAuth...\n  DUP3 \t\t\tcontract AuthContract is IAuth...\n  DUP3 \t\t\tcontract AuthContract is IAuth...\n  SSTORE \t\t\tcontract AuthContract is IAuth...\n  SWAP1 \t\t\tcontract AuthContract is IAuth...\n  PUSH 0\t\t\tcontract AuthContract is IAuth...\n  MSTORE \t\t\tcontract AuthContract is IAuth...\n  PUSH 20\t\t\tcontract AuthContract is IAuth...\n  PUSH 0\t\t\tcontract AuthContract is IAuth...\n  KECCAK256 \t\t\tcontract AuthContract is IAuth...\n  SWAP1 \t\t\tcontract AuthContract is IAuth...\n  DUP2 \t\t\tcontract AuthContract is IAuth...\n  ADD \t\t\tcontract AuthContract is IAuth...\n  SWAP3 \t\t\tcontract AuthContract is IAuth...\n  DUP3 \t\t\tcontract AuthContract is IAuth...\n  ISZERO \t\t\tcontract AuthContract is IAuth...\n  PUSH [tag] 11\t\t\tcontract AuthContract is IAuth...\n  JUMPI \t\t\tcontract AuthContract is IAuth...\n  SWAP2 \t\t\tcontract AuthContract is IAuth...\n  PUSH 20\t\t\tcontract AuthContract is IAuth...\n  MUL \t\t\tcontract AuthContract is IAuth...\n  DUP3 \t\t\tcontract AuthContract is IAuth...\n  ADD \t\t\tcontract AuthContract is IAuth...\ntag 12\t\t\tcontract AuthContract is IAuth...\n  JUMPDEST \t\t\tcontract AuthContract is IAuth...\n  DUP3 \t\t\tcontract AuthContract is IAuth...\n  DUP2 \t\t\tcontract AuthContract is IAuth...\n  GT \t\t\tcontract AuthContract is IAuth...\n  ISZERO \t\t\tcontract AuthContract is IAuth...\n  PUSH [tag] 13\t\t\tcontract AuthContract is IAuth...\n  JUMPI \t\t\tcontract AuthContract is IAuth...\n  DUP3 \t\t\tcontract AuthContract is IAuth...\n  MLOAD \t\t\tcontract AuthContract is IAuth...\n  DUP3 \t\t\tcontract AuthContract is IAuth...\n  SWAP1 \t\t\tcontract AuthContract is IAuth...\n  DUP2 \t\t\tcontract AuthContract is IAuth...\n  PUSH [tag] 14\t\t\tcontract AuthContract is IAuth...\n  SWAP2 \t\t\tcontract AuthContract is IAuth...\n  SWAP1 \t\t\tcontract AuthContract is IAuth...\n  PUSH [tag] 7\t\t\tcontract AuthContract is IAuth...\n  JUMP \t\t\tcontract AuthContract is IAuth...\ntag 14\t\t\tcontract AuthContract is IAuth...\n  JUMPDEST \t\t\tcontract AuthContract is IAuth...\n  POP \t\t\tcontract AuthContract is IAuth...\n  SWAP2 \t\t\tcontract AuthContract is IAuth...\n  PUSH 20\t\t\tcontract AuthContract is IAuth...\n  ADD \t\t\tcontract AuthContract is IAuth...\n  SWAP2 \t\t\tcontract AuthContract is IAuth...\n  SWAP1 \t\t\tcontract AuthContract is IAuth...\n  PUSH 1\t\t\tcontract AuthContract is IAuth...\n  ADD \t\t\tcontract AuthContract is IAuth...\n  SWAP1 \t\t\tcontract AuthContract is IAuth...\n  PUSH [tag] 12\t\t\tcontract AuthContract is IAuth...\n  JUMP \t\t\tcontract AuthContract is IAuth...\ntag 13\t\t\tcontract AuthContract is IAuth...\n  JUMPDEST \t\t\tcontract AuthContract is IAuth...\ntag 11\t\t\tcontract AuthContract is IAuth...\n  JUMPDEST \t\t\tcontract AuthContract is IAuth...\n  POP \t\t\tcontract AuthContract is IAuth...\n  SWAP1 \t\t\tcontract AuthContract is IAuth...\n  POP \t\t\tcontract AuthContract is IAuth...\n  PUSH [tag] 15\t\t\tcontract AuthContract is IAuth...\n  SWAP2 \t\t\tcontract AuthContract is IAuth...\n  SWAP1 \t\t\tcontract AuthContract is IAuth...\n  PUSH [tag] 16\t\t\tcontract AuthContract is IAuth...\n  JUMP \t\t\tcontract AuthContract is IAuth...\ntag 15\t\t\tcontract AuthContract is IAuth...\n  JUMPDEST \t\t\tcontract AuthContract is IAuth...\n  POP \t\t\tcontract AuthContract is IAuth...\n  SWAP1 \t\t\tcontract AuthContract is IAuth...\n  JUMP \t\t\tcontract AuthContract is IAuth...\ntag 16\t\t\tcontract AuthContract is IAuth...\n  JUMPDEST \t\t\tcontract AuthContract is IAuth...\ntag 17\t\t\tcontract AuthContract is IAuth...\n  JUMPDEST \t\t\tcontract AuthContract is IAuth...\n  DUP1 \t\t\tcontract AuthContract is IAuth...\n  DUP3 \t\t\tcontract AuthContract is IAuth...\n  GT \t\t\tcontract AuthContract is IAuth...\n  ISZERO \t\t\tcontract AuthContract is IAuth...\n  PUSH [tag] 18\t\t\tcontract AuthContract is IAuth...\n  JUMPI \t\t\tcontract AuthContract is IAuth...\n  PUSH 0\t\t\tcontract AuthContract is IAuth...\n  DUP2 \t\t\tcontract AuthContract is IAuth...\n  DUP2 \t\t\tcontract AuthContract is IAuth...\n  PUSH [tag] 19\t\t\tcontract AuthContract is IAuth...\n  SWAP2 \t\t\tcontract AuthContract is IAuth...\n  SWAP1 \t\t\tcontract AuthContract is IAuth...\n  PUSH [tag] 20\t\t\tcontract AuthContract is IAuth...\n  JUMP \t\t\tcontract AuthContract is IAuth...\ntag 19\t\t\tcontract AuthContract is IAuth...\n  JUMPDEST \t\t\tcontract AuthContract is IAuth...\n  POP \t\t\tcontract AuthContract is IAuth...\n  PUSH 1\t\t\tcontract AuthContract is IAuth...\n  ADD \t\t\tcontract AuthContract is IAuth...\n  PUSH [tag] 17\t\t\tcontract AuthContract is IAuth...\n  JUMP \t\t\tcontract AuthContract is IAuth...\ntag 18\t\t\tcontract AuthContract is IAuth...\n  JUMPDEST \t\t\tcontract AuthContract is IAuth...\n  POP \t\t\tcontract AuthContract is IAuth...\n  SWAP1 \t\t\tcontract AuthContract is IAuth...\n  JUMP \t\t\tcontract AuthContract is IAuth...\ntag 20\t\t\tcontract AuthContract is IAuth...\n  JUMPDEST \t\t\tcontract AuthContract is IAuth...\n  POP \t\t\tcontract AuthContract is IAuth...\n  DUP1 \t\t\tcontract AuthContract is IAuth...\n  SLOAD \t\t\tcontract AuthContract is IAuth...\n  PUSH [tag] 21\t\t\tcontract AuthContract is IAuth...\n  SWAP1 \t\t\tcontract AuthContract is IAuth...\n  PUSH [tag] 22\t\t\tcontract AuthContract is IAuth...\n  JUMP \t\t\tcontract AuthContract is IAuth...\ntag 21\t\t\tcontract AuthContract is IAuth...\n  JUMPDEST \t\t\tcontract AuthContract is IAuth...\n  PUSH 0\t\t\tcontract AuthContract is IAuth...\n  DUP3 \t\t\tcontract AuthContract is IAuth...\n  SSTORE \t\t\tcontract AuthContract is IAuth...\n  DUP1 \t\t\tcontract AuthContract is IAuth...\n  PUSH 1F\t\t\tcontract AuthContract is IAuth...\n  LT \t\t\tcontract AuthContract is IAuth...\n  PUSH [tag] 24\t\t\tcontract AuthContract is IAuth...\n  JUMPI \t\t\tcontract AuthContract is IAuth...\n  POP \t\t\tcontract AuthContract is IAuth...\n  PUSH [tag] 23\t\t\tcontract AuthContract is IAuth...\n  JUMP \t\t\tcontract AuthContract is IAuth...\ntag 24\t\t\tcontract AuthContract is IAuth...\n  JUMPDEST \t\t\tcontract AuthContract is IAuth...\n  PUSH 1F\t\t\tcontract AuthContract is IAuth...\n  ADD \t\t\tcontract AuthContract is IAuth...\n  PUSH 20\t\t\tcontract AuthContract is IAuth...\n  SWAP1 \t\t\tcontract AuthContract is IAuth...\n  DIV \t\t\tcontract AuthContract is IAuth...\n  SWAP1 \t\t\tcontract AuthContract is IAuth...\n  PUSH 0\t\t\tcontract AuthContract is IAuth...\n  MSTORE \t\t\tcontract AuthContract is IAuth...\n  PUSH 20\t\t\tcontract AuthContract is IAuth...\n  PUSH 0\t\t\tcontract AuthContract is IAuth...\n  KECCAK256 \t\t\tcontract AuthContract is IAuth...\n  SWAP1 \t\t\tcontract AuthContract is IAuth...\n  DUP2 \t\t\tcontract AuthContract is IAuth...\n  ADD \t\t\tcontract AuthContract is IAuth...\n  SWAP1 \t\t\tcontract AuthContract is IAuth...\n  PUSH [tag] 25\t\t\tcontract AuthContract is IAuth...\n  SWAP2 \t\t\tcontract AuthContract is IAuth...\n  SWAP1 \t\t\tcontract AuthContract is IAuth...\n  PUSH [tag] 26\t\t\tcontract AuthContract is IAuth...\n  JUMP \t\t\tcontract AuthContract is IAuth...\ntag 25\t\t\tcontract AuthContract is IAuth...\n  JUMPDEST \t\t\tcontract AuthContract is IAuth...\ntag 23\t\t\tcontract AuthContract is IAuth...\n  JUMPDEST \t\t\tcontract AuthContract is IAuth...\n  POP \t\t\tcontract AuthContract is IAuth...\n  JUMP \t\t\tcontract AuthContract is IAuth...\ntag 26\t\t\tcontract AuthContract is IAuth...\n  JUMPDEST \t\t\tcontract AuthContract is IAuth...\ntag 27\t\t\tcontract AuthContract is IAuth...\n  JUMPDEST \t\t\tcontract AuthContract is IAuth...\n  DUP1 \t\t\tcontract AuthContract is IAuth...\n  DUP3 \t\t\tcontract AuthContract is IAuth...\n  GT \t\t\tcontract AuthContract is IAuth...\n  ISZERO \t\t\tcontract AuthContract is IAuth...\n  PUSH [tag] 28\t\t\tcontract AuthContract is IAuth...\n  JUMPI \t\t\tcontract AuthContract is IAuth...\n  PUSH 0\t\t\tcontract AuthContract is IAuth...\n  DUP2 \t\t\tcontract AuthContract is IAuth...\n  PUSH 0\t\t\tcontract AuthContract is IAuth...\n  SWAP1 \t\t\tcontract AuthContract is IAuth...\n  SSTORE \t\t\tcontract AuthContract is IAuth...\n  POP \t\t\tcontract AuthContract is IAuth...\n  PUSH 1\t\t\tcontract AuthContract is IAuth...\n  ADD \t\t\tcontract AuthContract is IAuth...\n  PUSH [tag] 27\t\t\tcontract AuthContract is IAuth...\n  JUMP \t\t\tcontract AuthContract is IAuth...\ntag 28\t\t\tcontract AuthContract is IAuth...\n  JUMPDEST \t\t\tcontract AuthContract is IAuth...\n  POP \t\t\tcontract AuthContract is IAuth...\n  SWAP1 \t\t\tcontract AuthContract is IAuth...\n  JUMP \t\t\tcontract AuthContract is IAuth...\ntag 29\t\t\t-License-Identifier: MIT\\r\\n \\...\n  JUMPDEST \t\t\t-License-Identifier: MIT\\r\\n \\...\n  PUSH 0\t\t\tma sol\n  PUSH 40\t\t\tIA\n  MLOAD \t\t\trface IAu\n  SWAP1 \t\t\t9;\\r\\n\\r\\ninterface IAu\n  POP \t\t\t9;\\r\\n\\r\\ninterface IAu\n  SWAP1 \t\t\t-License-Identifier: MIT\\r\\n \\...\n  JUMP \t\t\t-License-Identifier: MIT\\r\\n \\...\ntag 30\t\t\t\\r\\n    function getRoles() ex...\n  JUMPDEST \t\t\t\\r\\n    function getRoles() ex...\n  PUSH 0\t\t\te\n  DUP1 \t\t\te\n  REVERT \t\t\ts adr) exter\ntag 31\t\t\turns (string memory);\\r\\n    f...\n  JUMPDEST \t\t\turns (string memory);\\r\\n    f...\n  PUSH 0\t\t\th\n  DUP1 \t\t\tA\n  REVERT \t\t\tntract AuthC\ntag 32\t\t\tAuthContract{\\r\\n\\r\\n    mappi...\n  JUMPDEST \t\t\tAuthContract{\\r\\n\\r\\n    mappi...\n  PUSH 0\t\t\tr\n  DUP1 \t\t\tn\n  REVERT \t\t\t\\n    constru\ntag 33\t\t\t] memory _roles){\\r\\n        o...\n  JUMPDEST \t\t\t] memory _roles){\\r\\n        o...\n  PUSH 0\t\t\tnder;\\r\n  PUSH 1F\t\t\tes\n  NOT \t\t\t roles \n  PUSH 1F\t\t\t  \n  DUP4 \t\t\tn\";\\r\\n\n  ADD \t\t\tadmin\";\\r\\n     \n  AND \t\t\t = \"admin\";\\r\\n        roles =\n  SWAP1 \t\t\ters[owner] = \"admin\";\\r\\n     ...\n  POP \t\t\ters[owner] = \"admin\";\\r\\n     ...\n  SWAP2 \t\t\t] memory _roles){\\r\\n        o...\n  SWAP1 \t\t\t] memory _roles){\\r\\n        o...\n  POP \t\t\t] memory _roles){\\r\\n        o...\n  JUMP \t\t\t] memory _roles){\\r\\n        o...\ntag 34\t\t\t  }\\r\\n\\r\\n    modifier OnlyOw...\n  JUMPDEST \t\t\t  }\\r\\n\\r\\n    modifier OnlyOw...\n  PUSH 4E487B7100000000000000000000000000000000000000000000000000000000\t\t\tmsg.sender == owner, \"Only own...\n  PUSH 0\t\t\tr\n  MSTORE \t\t\t  require(msg.sender == owner,...\n  PUSH 41\t\t\tring\n  PUSH 4\t\t\t(\n  MSTORE \t\t\tleExist(string \n  PUSH 24\t\t\te vi\n  PUSH 0\t\t\tv\n  REVERT \t\t\tle) private vie\ntag 35\t\t\tool){\\r\\n        for (uint i =...\n  JUMPDEST \t\t\tool){\\r\\n        for (uint i =...\n  PUSH [tag] 72\t\t\tbi.encodePacked(roles[i])) \n  DUP3 \t\t\ti]))\n  PUSH [tag] 33\t\t\tbi.encodePacked(roles[i])) \n  JUMP \t\t\tbi.encodePacked(roles[i])) \ntag 72\t\t\tbi.encodePacked(roles[i])) \n  JUMPDEST \t\t\tbi.encodePacked(roles[i])) \n  DUP2 \t\t\tcak256\n  ADD \t\t\t(keccak256(abi.encodePacked(ro...\n  DUP2 \t\t\treturn\n  DUP2 \t\t\t }\\r\\n      \n  LT \t\t\t    }\\r\\n        return \n  PUSH FFFFFFFFFFFFFFFF\t\t\t;\\r\\n           }\\r\\n \n  DUP3 \t\t\t return tr\n  GT \t\t\t    return true;\\r\\n          ...\n  OR \t\t\t       return true;\\r\\n       ...\n  ISZERO \t\t\t          return true;\\r\\n    ...\n  PUSH [tag] 73\t\t\t          return true;\\r\\n    ...\n  JUMPI \t\t\t          return true;\\r\\n    ...\n  PUSH [tag] 74\t\t\te;\\r\\n    }\\r\\n\\r\\n    f\n  PUSH [tag] 34\t\t\te;\\r\\n    }\\r\\n\\r\\n    f\n  JUMP \t\t\te;\\r\\n    }\\r\\n\\r\\n    f\ntag 74\t\t\te;\\r\\n    }\\r\\n\\r\\n    f\n  JUMPDEST \t\t\te;\\r\\n    }\\r\\n\\r\\n    f\ntag 73\t\t\t          return true;\\r\\n    ...\n  JUMPDEST \t\t\t          return true;\\r\\n    ...\n  DUP1 \t\t\tlic view r\n  PUSH 40\t\t\t p\n  MSTORE \t\t\tRoles() public view re\n  POP \t\t\tength; i++){\\r\\n           if ...\n  POP \t\t\tool){\\r\\n        for (uint i =...\n  POP \t\t\tool){\\r\\n        for (uint i =...\n  JUMP \t\t\tool){\\r\\n        for (uint i =...\ntag 36\t\t\tg[] memory){\\r\\n        return...\n  JUMPDEST \t\t\tg[] memory){\\r\\n        return...\n  PUSH 0\t\t\t;\\r\\n   \n  PUSH [tag] 76\t\t\ttUserRole(address ad\n  PUSH [tag] 29\t\t\ttUserRole(address ad\n  JUMP \t\t\ttUserRole(address ad\ntag 76\t\t\ttUserRole(address ad\n  JUMPDEST \t\t\ttUserRole(address ad\n  SWAP1 \t\t\tunction getUserRole(address ad\n  POP \t\t\tunction getUserRole(address ad\n  PUSH [tag] 77\t\t\t view returns (string memory){...\n  DUP3 \t\t\t){\\r\\n\n  DUP3 \t\t\tg memo\n  PUSH [tag] 35\t\t\t view returns (string memory){...\n  JUMP \t\t\t view returns (string memory){...\ntag 77\t\t\t view returns (string memory){...\n  JUMPDEST \t\t\t view returns (string memory){...\n  SWAP2 \t\t\tg[] memory){\\r\\n        return...\n  SWAP1 \t\t\tg[] memory){\\r\\n        return...\n  POP \t\t\tg[] memory){\\r\\n        return...\n  JUMP \t\t\tg[] memory){\\r\\n        return...\ntag 37\t\t\tn users[adr];\\r\\n    }\\r\\n\\r\\n...\n  JUMPDEST \t\t\tn users[adr];\\r\\n    }\\r\\n\\r\\n...\n  PUSH 0\t\t\twner\n  PUSH FFFFFFFFFFFFFFFF\t\t\t\\n    }\\r\\n}\\r\\n\\r\\n\\r\\ncon\n  DUP3 \t\t\t      \n  GT \t\t\t\\n        }\\r\\n    }\\r\\n}\\r\\n\\...\n  ISZERO \t\t\te;\\r\\n        }\\r\\n    }\\r\\n}\\...\n  PUSH [tag] 79\t\t\te;\\r\\n        }\\r\\n    }\\r\\n}\\...\n  JUMPI \t\t\te;\\r\\n        }\\r\\n    }\\r\\n}\\...\n  PUSH [tag] 80\t\t\tt StorageContract{\n  PUSH [tag] 34\t\t\tt StorageContract{\n  JUMP \t\t\tt StorageContract{\ntag 80\t\t\tt StorageContract{\n  JUMPDEST \t\t\tt StorageContract{\ntag 79\t\t\te;\\r\\n        }\\r\\n    }\\r\\n}\\...\n  JUMPDEST \t\t\te;\\r\\n        }\\r\\n    }\\r\\n}\\...\n  PUSH 20\t\t\tring\n  DUP3 \t\t\t      \n  MUL \t\t\t\\r\\n        string \n  SWAP1 \t\t\tct File{\\r\\n        string \n  POP \t\t\tct File{\\r\\n        string \n  PUSH 20\t\t\truct\n  DUP2 \t\t\t    \n  ADD \t\t\t\\r\\n\\r\\n    struct \n  SWAP1 \t\t\t;\\r\\n    }\\r\\n\\r\\n    struct \n  POP \t\t\t;\\r\\n    }\\r\\n\\r\\n    struct \n  SWAP2 \t\t\tn users[adr];\\r\\n    }\\r\\n\\r\\n...\n  SWAP1 \t\t\tn users[adr];\\r\\n    }\\r\\n\\r\\n...\n  POP \t\t\tn users[adr];\\r\\n    }\\r\\n\\r\\n...\n  JUMP \t\t\tn users[adr];\\r\\n    }\\r\\n\\r\\n...\ntag 38\t\t\t       string title;\\r\\n      ...\n  JUMPDEST \t\t\t       string title;\\r\\n      ...\n  PUSH 0\t\t\tp\n  DUP1 \t\t\tm\n  REVERT \t\t\t;\\r\\n    mappi\ntag 39\t\t\t> string) FileHash;\\r\\n    add...\n  JUMPDEST \t\t\t> string) FileHash;\\r\\n    add...\n  PUSH 0\t\t\t \n  DUP1 \t\t\t\\n\n  REVERT \t\t\tact;\\r\\n\\r\\n\\r\\n  \ntag 40\t\t\tnlyRegisteredUsers{\\r\\n       ...\n  JUMPDEST \t\t\tnlyRegisteredUsers{\\r\\n       ...\n  PUSH 0\t\t\td(au\n  PUSH FFFFFFFFFFFFFFFF\t\t\tave 1 or more role\n  DUP3 \t\t\tr must\n  GT \t\t\tUser must have 1 or more roles\n  ISZERO \t\t\t, \"User must have 1 or more ro...\n  PUSH [tag] 84\t\t\t, \"User must have 1 or more ro...\n  JUMPI \t\t\t, \"User must have 1 or more ro...\n  PUSH [tag] 85\t\t\t\\r\\n        _;\\r\\n    \n  PUSH [tag] 34\t\t\t\\r\\n        _;\\r\\n    \n  JUMP \t\t\t\\r\\n        _;\\r\\n    \ntag 85\t\t\t\\r\\n        _;\\r\\n    \n  JUMPDEST \t\t\t\\r\\n        _;\\r\\n    \ntag 84\t\t\t, \"User must have 1 or more ro...\n  JUMPDEST \t\t\t, \"User must have 1 or more ro...\n  PUSH [tag] 86\t\t\t(address authContractAddress)\n  DUP3 \t\t\tddress\n  PUSH [tag] 33\t\t\t(address authContractAddress)\n  JUMP \t\t\t(address authContractAddress)\ntag 86\t\t\t(address authContractAddress)\n  JUMPDEST \t\t\t(address authContractAddress)\n  SWAP1 \t\t\tstructor(address authContractA...\n  POP \t\t\tstructor(address authContractA...\n  PUSH 20\t\t\tress\n  DUP2 \t\t\tactA\n  ADD \t\t\tontractAddress)\n  SWAP1 \t\t\tct(authContractAddress)\n  POP \t\t\tct(authContractAddress)\n  SWAP2 \t\t\tnlyRegisteredUsers{\\r\\n       ...\n  SWAP1 \t\t\tnlyRegisteredUsers{\\r\\n       ...\n  POP \t\t\tnlyRegisteredUsers{\\r\\n       ...\n  JUMP \t\t\tnlyRegisteredUsers{\\r\\n       ...\ntag 41\t\t\t   function checkUserRole(stri...\n  JUMPDEST \t\t\t   function checkUserRole(stri...\n  PUSH 0\t\t\t \ntag 88\t\t\tbool) {\\r\\n        for (uint i...\n  JUMPDEST \t\t\tbool) {\\r\\n        for (uint i...\n  DUP4 \t\t\t   for\n  DUP2 \t\t\t \n  LT \t\t\t\\n        for \n  ISZERO \t\t\tbool) {\\r\\n        for (uint i...\n  PUSH [tag] 90\t\t\tbool) {\\r\\n        for (uint i...\n  JUMPI \t\t\tbool) {\\r\\n        for (uint i...\n  DUP1 \t\t\td\n  DUP3 \t\t\tPac\n  ADD \t\t\tcodePacked(\n  MLOAD \t\t\tabi.encodePacked(r\n  DUP2 \t\t\t2\n  DUP5 \t\t\tecc\n  ADD \t\t\tf (keccak25\n  MSTORE \t\t\t      if (keccak256(abi.encode...\n  PUSH 20\t\t\t< \n  DUP2 \t\t\t \n  ADD \t\t\t= 0; i < r\n  SWAP1 \t\t\tnt i = 0; i < r\n  POP \t\t\tnt i = 0; i < r\n  PUSH [tag] 88\t\t\tbool) {\\r\\n        for (uint i...\n  JUMP \t\t\tbool) {\\r\\n        for (uint i...\ntag 90\t\t\tbool) {\\r\\n        for (uint i...\n  JUMPDEST \t\t\tbool) {\\r\\n        for (uint i...\n  PUSH 0\t\t\t)\n  DUP5 \t\t\tked(ro\n  DUP5 \t\t\tdeP\n  ADD \t\t\tencodePacked(rol\n  MSTORE \t\t\t56(abi.encodePacked(role)))\n  POP \t\t\troles) private pure returns (b...\n  POP \t\t\t   function checkUserRole(stri...\n  POP \t\t\t   function checkUserRole(stri...\n  POP \t\t\t   function checkUserRole(stri...\n  JUMP \t\t\t   function checkUserRole(stri...\ntag 42\t\t\t       return true;\\r\\n       ...\n  JUMPDEST \t\t\t       return true;\\r\\n       ...\n  PUSH 0\t\t\tn isD\n  PUSH [tag] 92\t\t\t memory directory) OnlyRegiste...\n  PUSH [tag] 93\t\t\ty) OnlyRegisteredUsers private...\n  DUP5 \t\t\ts (boo\n  PUSH [tag] 40\t\t\ty) OnlyRegisteredUsers private...\n  JUMP \t\t\ty) OnlyRegisteredUsers private...\ntag 93\t\t\ty) OnlyRegisteredUsers private...\n  JUMPDEST \t\t\ty) OnlyRegisteredUsers private...\n  PUSH [tag] 36\t\t\t memory directory) OnlyRegiste...\n  JUMP \t\t\t memory directory) OnlyRegiste...\ntag 92\t\t\t memory directory) OnlyRegiste...\n  JUMPDEST \t\t\t memory directory) OnlyRegiste...\n  SWAP1 \t\t\tst(string memory directory) On...\n  POP \t\t\tst(string memory directory) On...\n  DUP3 \t\t\t= 0; i\n  DUP2 \t\t\tuint \n  MSTORE \t\t\t  for (uint i = 0; i \n  PUSH 20\t\t\t\\r\\n  \n  DUP2 \t\t\t; i++\n  ADD \t\t\tngth; i++){\\r\\n   \n  DUP5 \t\t\tack\n  DUP5 \t\t\ti.enco\n  DUP5 \t\t\t56(\n  ADD \t\t\tcak256(abi.encod\n  GT \t\t\tkeccak256(abi.encodePacke\n  ISZERO \t\t\tf (keccak256(abi.encodePacked(...\n  PUSH [tag] 94\t\t\tf (keccak256(abi.encodePacked(...\n  JUMPI \t\t\tf (keccak256(abi.encodePacked(...\n  PUSH [tag] 95\t\t\tirectory_names[i])) == keccak2...\n  PUSH [tag] 39\t\t\tirectory_names[i])) == keccak2...\n  JUMP \t\t\tirectory_names[i])) == keccak2...\ntag 95\t\t\tirectory_names[i])) == keccak2...\n  JUMPDEST \t\t\tirectory_names[i])) == keccak2...\ntag 94\t\t\tf (keccak256(abi.encodePacked(...\n  JUMPDEST \t\t\tf (keccak256(abi.encodePacked(...\n  PUSH [tag] 96\t\t\tue;\\r\\n           }\\r\\n       ...\n  DUP5 \t\t\tfalse;\n  DUP3 \t\t\ttur\n  DUP6 \t\t\t   \n  PUSH [tag] 41\t\t\tue;\\r\\n           }\\r\\n       ...\n  JUMP \t\t\tue;\\r\\n           }\\r\\n       ...\ntag 96\t\t\tue;\\r\\n           }\\r\\n       ...\n  JUMPDEST \t\t\tue;\\r\\n           }\\r\\n       ...\n  POP \t\t\trectoryExist(string memory dir...\n  SWAP4 \t\t\t       return true;\\r\\n       ...\n  SWAP3 \t\t\t       return true;\\r\\n       ...\n  POP \t\t\t       return true;\\r\\n       ...\n  POP \t\t\t       return true;\\r\\n       ...\n  POP \t\t\t       return true;\\r\\n       ...\n  JUMP \t\t\t       return true;\\r\\n       ...\ntag 43\t\t\tileExist(string memory title, ...\n  JUMPDEST \t\t\tileExist(string memory title, ...\n  PUSH 0\t\t\t retu\n  DUP3 \t\t\trec\n  PUSH 1F\t\t\t i <\n  DUP4 \t\t\tt i = \n  ADD \t\t\t(uint i = 0; i < \n  SLT \t\t\tfor (uint i = 0; i < Direct\n  PUSH [tag] 98\t\t\t\\r\\n        for (uint i = 0; i...\n  JUMPI \t\t\t\\r\\n        for (uint i = 0; i...\n  PUSH [tag] 99\t\t\ts[directory].files.length; i++...\n  PUSH [tag] 32\t\t\ts[directory].files.length; i++...\n  JUMP \t\t\ts[directory].files.length; i++...\ntag 99\t\t\ts[directory].files.length; i++...\n  JUMPDEST \t\t\ts[directory].files.length; i++...\ntag 98\t\t\t\\r\\n        for (uint i = 0; i...\n  JUMPDEST \t\t\t\\r\\n        for (uint i = 0; i...\n  DUP2 \t\t\title))\n  MLOAD \t\t\ts[i].title)) \n  PUSH [tag] 100\t\t\tncodePacked(title))){\\r\\n     ...\n  DUP5 \t\t\t re\n  DUP3 \t\t\t\\n     \n  PUSH 20\t\t\t    \n  DUP7 \t\t\t  }\\r\\n \n  ADD \t\t\t      }\\r\\n        \n  PUSH [tag] 42\t\t\tncodePacked(title))){\\r\\n     ...\n  JUMP \t\t\tncodePacked(title))){\\r\\n     ...\ntag 100\t\t\tncodePacked(title))){\\r\\n     ...\n  JUMPDEST \t\t\tncodePacked(title))){\\r\\n     ...\n  SWAP2 \t\t\t256(abi.encodePacked(title))){...\n  POP \t\t\t256(abi.encodePacked(title))){...\n  POP \t\t\tns (bool){\\r\\n        for (uin...\n  SWAP3 \t\t\tileExist(string memory title, ...\n  SWAP2 \t\t\tileExist(string memory title, ...\n  POP \t\t\tileExist(string memory title, ...\n  POP \t\t\tileExist(string memory title, ...\n  JUMP \t\t\tileExist(string memory title, ...\ntag 44\t\t\tction createDirectory(string m...\n  JUMPDEST \t\t\tction createDirectory(string m...\n  PUSH 0\t\t\trecto\n  PUSH [tag] 102\t\t\t\\n        directory_names.push...\n  PUSH [tag] 103\t\t\try_names.push(title);\\r\\n     ...\n  DUP5 \t\t\t   }\\r\\n\n  PUSH [tag] 37\t\t\try_names.push(title);\\r\\n     ...\n  JUMP \t\t\try_names.push(title);\\r\\n     ...\ntag 103\t\t\try_names.push(title);\\r\\n     ...\n  JUMPDEST \t\t\try_names.push(title);\\r\\n     ...\n  PUSH [tag] 36\t\t\t\\n        directory_names.push...\n  JUMP \t\t\t\\n        directory_names.push...\ntag 102\t\t\t\\n        directory_names.push...\n  JUMPDEST \t\t\t\\n        directory_names.push...\n  SWAP1 \t\t\texist\");\\r\\n        directory_...\n  POP \t\t\texist\");\\r\\n        directory_...\n  DUP1 \t\t\tirect\n  DUP4 \t\t\t OnlyR\n  DUP3 \t\t\t titl\n  MSTORE \t\t\t memory title) OnlyRe\n  PUSH 20\t\t\t    \n  DUP3 \t\t\t{\\r\\n  \n  ADD \t\t\tblic{\\r\\n        f\n  SWAP1 \t\t\tsers public{\\r\\n        f\n  POP \t\t\tsers public{\\r\\n        f\n  PUSH 20\t\t\t{\\r\\n \n  DUP5 \t\t\tth; i+\n  MUL \t\t\tlength; i++){\\r\\n  \n  DUP4 \t\t\ty_name\n  ADD \t\t\tctory_names.length; i++){\\r\\n ...\n  DUP6 \t\t\tabi\n  DUP2 \t\t\tccak25\n  GT \t\t\t(keccak256(abi.\n  ISZERO \t\t\tif (keccak256(abi.encodePacked...\n  PUSH [tag] 104\t\t\tif (keccak256(abi.encodePacked...\n  JUMPI \t\t\tif (keccak256(abi.encodePacked...\n  PUSH [tag] 105\t\t\trectory_names[i])) == keccak25...\n  PUSH [tag] 38\t\t\trectory_names[i])) == keccak25...\n  JUMP \t\t\trectory_names[i])) == keccak25...\ntag 105\t\t\trectory_names[i])) == keccak25...\n  JUMPDEST \t\t\trectory_names[i])) == keccak25...\ntag 104\t\t\tif (keccak256(abi.encodePacked...\n  JUMPDEST \t\t\tif (keccak256(abi.encodePacked...\n  DUP4 \t\t\trector\ntag 106\t\t\tirectory_names[directory_names...\n  JUMPDEST \t\t\tirectory_names[directory_names...\n  DUP2 \t\t\tgth - \n  DUP2 \t\t\ts.l\n  LT \t\t\tames.length - 1\n  ISZERO \t\t\tirectory_names[directory_names...\n  PUSH [tag] 108\t\t\tirectory_names[directory_names...\n  JUMPI \t\t\tirectory_names[directory_names...\n  DUP1 \t\t\t\\r\\n\\r\n  MLOAD \t\t\t\\n    }\\r\\n\\r\\n\n  PUSH FFFFFFFFFFFFFFFF\t\t\t memory title) Onl\n  DUP2 \t\t\tectory(stri\n  GT \t\t\tDirectory(string memory title)...\n  ISZERO \t\t\tgetDirectory(string memory tit...\n  PUSH [tag] 109\t\t\tgetDirectory(string memory tit...\n  JUMPI \t\t\tgetDirectory(string memory tit...\n  PUSH [tag] 110\t\t\tisteredUsers public view retur...\n  PUSH [tag] 32\t\t\tisteredUsers public view retur...\n  JUMP \t\t\tisteredUsers public view retur...\ntag 110\t\t\tisteredUsers public view retur...\n  JUMPDEST \t\t\tisteredUsers public view retur...\ntag 109\t\t\tgetDirectory(string memory tit...\n  JUMPDEST \t\t\tgetDirectory(string memory tit...\n  DUP1 \t\t\tes() OnlyRe\n  DUP7 \t\t\tirecto\n  ADD \t\t\tgetDirectories() OnlyReg\n  PUSH [tag] 111\t\t\teturns (string[] memory){\\r\\n ...\n  DUP10 \t\t\tmes\n  DUP3 \t\t\tdirectory_\n  PUSH [tag] 43\t\t\teturns (string[] memory){\\r\\n ...\n  JUMP \t\t\teturns (string[] memory){\\r\\n ...\ntag 111\t\t\teturns (string[] memory){\\r\\n ...\n  JUMPDEST \t\t\teturns (string[] memory){\\r\\n ...\n  DUP6 \t\t\tiew\n  MSTORE \t\t\tublic view returns (string[] m...\n  PUSH 20\t\t\tFile\n  DUP6 \t\t\trea\n  ADD \t\t\ton createFile(\n  SWAP5 \t\t\t function createFile(\n  POP \t\t\t function createFile(\n  POP \t\t\t.pop();\\r\\n            }\\r\\n  ...\n  POP \t\t\t.pop();\\r\\n            }\\r\\n  ...\n  PUSH 20\t\t\t dir\n  DUP2 \t\t\t   \n  ADD \t\t\t          dire\n  SWAP1 \t\t\t\\n                dire\n  POP \t\t\t\\n                dire\n  PUSH [tag] 106\t\t\tirectory_names[directory_names...\n  JUMP \t\t\tirectory_names[directory_names...\ntag 108\t\t\tirectory_names[directory_names...\n  JUMPDEST \t\t\tirectory_names[directory_names...\n  POP \t\t\ttory_names[directory_\n  POP \t\t\ty already exist\");\\r\\n        ...\n  POP \t\t\ty already exist\");\\r\\n        ...\n  SWAP4 \t\t\tction createDirectory(string m...\n  SWAP3 \t\t\tction createDirectory(string m...\n  POP \t\t\tction createDirectory(string m...\n  POP \t\t\tction createDirectory(string m...\n  POP \t\t\tction createDirectory(string m...\n  JUMP \t\t\tction createDirectory(string m...\ntag 45\t\t\th, string memory directory, st...\n  JUMPDEST \t\t\th, string memory directory, st...\n  PUSH 0\t\t\tuire(\n  DUP3 \t\t\tnt \n  PUSH 1F\t\t\try d\n  DUP4 \t\t\t\"Direc\n  ADD \t\t\ty), \"Directory do\n  SLT \t\t\tctory), \"Directory doesnt e\n  PUSH [tag] 113\t\t\tExist(directory), \"Directory d...\n  JUMPI \t\t\tExist(directory), \"Directory d...\n  PUSH [tag] 114\t\t\t\");\\r\\n        require(!isFile...\n  PUSH [tag] 32\t\t\t\");\\r\\n        require(!isFile...\n  JUMP \t\t\t\");\\r\\n        require(!isFile...\ntag 114\t\t\t\");\\r\\n        require(!isFile...\n  JUMPDEST \t\t\t\");\\r\\n        require(!isFile...\ntag 113\t\t\tExist(directory), \"Directory d...\n  JUMPDEST \t\t\tExist(directory), \"Directory d...\n  DUP2 \t\t\title, \n  MLOAD \t\t\tFile(title, r\n  PUSH [tag] 115\t\t\tleHash[title] = hash;\\r\\n     ...\n  DUP5 \t\t\tg m\n  DUP3 \t\t\tle(str\n  PUSH 20\t\t\telet\n  DUP7 \t\t\tnction\n  ADD \t\t\t  function delete\n  PUSH [tag] 44\t\t\tleHash[title] = hash;\\r\\n     ...\n  JUMP \t\t\tleHash[title] = hash;\\r\\n     ...\ntag 115\t\t\tleHash[title] = hash;\\r\\n     ...\n  JUMPDEST \t\t\tleHash[title] = hash;\\r\\n     ...\n  SWAP2 \t\t\t       FileHash[title] = hash;...\n  POP \t\t\t       FileHash[title] = hash;...\n  POP \t\t\tsDirectoryExist(directory), \"D...\n  SWAP3 \t\t\th, string memory directory, st...\n  SWAP2 \t\t\th, string memory directory, st...\n  POP \t\t\th, string memory directory, st...\n  POP \t\t\th, string memory directory, st...\n  JUMP \t\t\th, string memory directory, st...\ntag 3\t\t\tstring memory directory) OnlyR...\n  JUMPDEST \t\t\tstring memory directory) OnlyR...\n  PUSH 0\t\t\t].file\n  PUSH 20\t\t\tab\n  DUP3 \t\t\t (keccak2\n  DUP5 \t\t\t       \n  SUB \t\t\t           if (keccak25\n  SLT \t\t\t{\\r\\n            if (keccak256...\n  ISZERO \t\t\t++){\\r\\n            if (keccak...\n  PUSH [tag] 117\t\t\t++){\\r\\n            if (keccak...\n  JUMPI \t\t\t++){\\r\\n            if (keccak...\n  PUSH [tag] 118\t\t\tcodePacked(Directories[directo...\n  PUSH [tag] 30\t\t\tcodePacked(Directories[directo...\n  JUMP \t\t\tcodePacked(Directories[directo...\ntag 118\t\t\tcodePacked(Directories[directo...\n  JUMPDEST \t\t\tcodePacked(Directories[directo...\ntag 117\t\t\t++){\\r\\n            if (keccak...\n  JUMPDEST \t\t\t++){\\r\\n            if (keccak...\n  PUSH 0\t\t\tt\n  DUP3 \t\t\tauthContr\n  ADD \t\t\tole(authContract.\n  MLOAD \t\t\tkUserRole(authContract.g\n  PUSH FFFFFFFFFFFFFFFF\t\t\tectories[directory\n  DUP2 \t\t\ter), D\n  GT \t\t\tender), Directories[directory]\n  ISZERO \t\t\tg.sender), Directories[directo...\n  PUSH [tag] 119\t\t\tg.sender), Directories[directo...\n  JUMPI \t\t\tg.sender), Directories[directo...\n  PUSH [tag] 120\t\t\tles[i].access_roles), \"Not eno...\n  PUSH [tag] 31\t\t\tles[i].access_roles), \"Not eno...\n  JUMP \t\t\tles[i].access_roles), \"Not eno...\ntag 120\t\t\tles[i].access_roles), \"Not eno...\n  JUMPDEST \t\t\tles[i].access_roles), \"Not eno...\ntag 119\t\t\tg.sender), Directories[directo...\n  JUMPDEST \t\t\tg.sender), Directories[directo...\n  PUSH [tag] 121\t\t\ttories[directory].files[Direct...\n  DUP5 \t\t\ties[dir\n  DUP3 \t\t\t Direc\n  DUP6 \t\t\t         \n  ADD \t\t\t                Direct\n  PUSH [tag] 45\t\t\ttories[directory].files[Direct...\n  JUMP \t\t\ttories[directory].files[Direct...\ntag 121\t\t\ttories[directory].files[Direct...\n  JUMPDEST \t\t\ttories[directory].files[Direct...\n  SWAP2 \t\t\ti] = Directories[directory].fi...\n  POP \t\t\ti] = Directories[directory].fi...\n  POP \t\t\t\\n                require(chec...\n  SWAP3 \t\t\tstring memory directory) OnlyR...\n  SWAP2 \t\t\tstring memory directory) OnlyR...\n  POP \t\t\tstring memory directory) OnlyR...\n  POP \t\t\tstring memory directory) OnlyR...\n  JUMP \t\t\tstring memory directory) OnlyR...\ntag 46\t\t\t          }\\r\\n        }\\r\\n  ...\n  JUMPDEST \t\t\t          }\\r\\n        }\\r\\n  ...\n  PUSH 0\t\t\teHash(\n  DUP2 \t\t\tmemor\n  MLOAD \t\t\ttring memory\n  SWAP1 \t\t\ty title, string memory\n  POP \t\t\ty title, string memory\n  SWAP2 \t\t\t          }\\r\\n        }\\r\\n  ...\n  SWAP1 \t\t\t          }\\r\\n        }\\r\\n  ...\n  POP \t\t\t          }\\r\\n        }\\r\\n  ...\n  JUMP \t\t\t          }\\r\\n        }\\r\\n  ...\ntag 47\t\t\tnlyRegisteredUsers public view...\n  JUMPDEST \t\t\tnlyRegisteredUsers public view...\n  PUSH 4E487B7100000000000000000000000000000000000000000000000000000000\t\t\temory){\\r\\n        for (uint i...\n  PUSH 0\t\t\tg\n  MSTORE \t\t\t (string memory){\\r\\n        f...\n  PUSH 22\t\t\t(kec\n  PUSH 4\t\t\ti\n  MSTORE \t\t\t       if (kecc\n  PUSH 24\t\t\tked(\n  PUSH 0\t\t\tP\n  REVERT \t\t\t.encodePacked(D\ntag 22\t\t\tirectory].files[i].title)) == ...\n  JUMPDEST \t\t\tirectory].files[i].title)) == ...\n  PUSH 0\t\t\tencode\n  PUSH 2\t\t\t \n  DUP3 \t\t\t    \n  DIV \t\t\t            \n  SWAP1 \t\t\te))){\\r\\n               \n  POP \t\t\te))){\\r\\n               \n  PUSH 1\t\t\tl\n  DUP3 \t\t\tUser\n  AND \t\t\t.getUserRole\n  DUP1 \t\t\ttories[directory].\n  PUSH [tag] 125\t\t\ter), Directories[directory].fi...\n  JUMPI \t\t\ter), Directories[directory].fi...\n  PUSH 7F\t\t\trmis\n  DUP3 \t\t\tnough \n  AND \t\t\tot enough permiss\n  SWAP2 \t\t\troles), \"Not enough permiss\n  POP \t\t\troles), \"Not enough permiss\ntag 125\t\t\ter), Directories[directory].fi...\n  JUMPDEST \t\t\ter), Directories[directory].fi...\n  PUSH 20\t\t\tct\n  DUP3 \t\t\ties[di\n  LT \t\t\ttories[directo\n  DUP2 \t\t\teturn FileHash[Dir\n  SUB \t\t\t  return FileHash[Directories[...\n  PUSH [tag] 126\t\t\t     return FileHash[Directori...\n  JUMPI \t\t\t     return FileHash[Directori...\n  PUSH [tag] 127\t\t\tle];\\r\\n            \n  PUSH [tag] 47\t\t\tle];\\r\\n            \n  JUMP \t\t\tle];\\r\\n            \ntag 127\t\t\tle];\\r\\n            \n  JUMPDEST \t\t\tle];\\r\\n            \ntag 126\t\t\t     return FileHash[Directori...\n  JUMPDEST \t\t\t     return FileHash[Directori...\n  POP \t\t\tacked(title))){\\r\\n           ...\n  SWAP2 \t\t\tirectory].files[i].title)) == ...\n  SWAP1 \t\t\tirectory].files[i].title)) == ...\n  POP \t\t\tirectory].files[i].title)) == ...\n  JUMP \t\t\tirectory].files[i].title)) == ...\ntag 48\t\t\treturn \"\";\\r\\n    }\\r\\n}\n  JUMPDEST \t\t\treturn \"\";\\r\\n    }\\r\\n}\n  PUSH 0\t\t\t\n  DUP2 \t\t\t\n  SWAP1 \t\t\t\n  POP \t\t\t\n  DUP2 \t\t\t\n  PUSH 0\t\t\t\n  MSTORE \t\t\t\n  PUSH 20\t\t\t\n  PUSH 0\t\t\t\n  KECCAK256 \t\t\t\n  SWAP1 \t\t\t\n  POP \t\t\t\n  SWAP2 \t\t\treturn \"\";\\r\\n    }\\r\\n}\n  SWAP1 \t\t\treturn \"\";\\r\\n    }\\r\\n}\n  POP \t\t\treturn \"\";\\r\\n    }\\r\\n}\n  JUMP \t\t\treturn \"\";\\r\\n    }\\r\\n}\ntag 49\t\t\t\n  JUMPDEST \t\t\t\n  PUSH 0\t\t\t\n  PUSH 20\t\t\t\n  PUSH 1F\t\t\t\n  DUP4 \t\t\t\n  ADD \t\t\t\n  DIV \t\t\t\n  SWAP1 \t\t\t\n  POP \t\t\t\n  SWAP2 \t\t\t\n  SWAP1 \t\t\t\n  POP \t\t\t\n  JUMP \t\t\t\ntag 50\t\t\t\n  JUMPDEST \t\t\t\n  PUSH 0\t\t\t\n  DUP3 \t\t\t\n  DUP3 \t\t\t\n  SHL \t\t\t\n  SWAP1 \t\t\t\n  POP \t\t\t\n  SWAP3 \t\t\t\n  SWAP2 \t\t\t\n  POP \t\t\t\n  POP \t\t\t\n  JUMP \t\t\t\ntag 51\t\t\t\n  JUMPDEST \t\t\t\n  PUSH 0\t\t\t\n  PUSH 8\t\t\t\n  DUP4 \t\t\t\n  MUL \t\t\t\n  PUSH [tag] 132\t\t\t\n  PUSH FFFFFFFFFFFFFFFFFFFFFFFFFFFFFFFFFFFFFFFFFFFFFFFFFFFFFFFFFFFFFFFF\t\t\t\n  DUP3 \t\t\t\n  PUSH [tag] 50\t\t\t\n  JUMP \t\t\t\ntag 132\t\t\t\n  JUMPDEST \t\t\t\n  PUSH [tag] 133\t\t\t\n  DUP7 \t\t\t\n  DUP4 \t\t\t\n  PUSH [tag] 50\t\t\t\n  JUMP \t\t\t\ntag 133\t\t\t\n  JUMPDEST \t\t\t\n  SWAP6 \t\t\t\n  POP \t\t\t\n  DUP1 \t\t\t\n  NOT \t\t\t\n  DUP5 \t\t\t\n  AND \t\t\t\n  SWAP4 \t\t\t\n  POP \t\t\t\n  DUP1 \t\t\t\n  DUP7 \t\t\t\n  AND \t\t\t\n  DUP5 \t\t\t\n  OR \t\t\t\n  SWAP3 \t\t\t\n  POP \t\t\t\n  POP \t\t\t\n  POP \t\t\t\n  SWAP4 \t\t\t\n  SWAP3 \t\t\t\n  POP \t\t\t\n  POP \t\t\t\n  POP \t\t\t\n  JUMP \t\t\t\ntag 52\t\t\t\n  JUMPDEST \t\t\t\n  PUSH 0\t\t\t\n  DUP2 \t\t\t\n  SWAP1 \t\t\t\n  POP \t\t\t\n  SWAP2 \t\t\t\n  SWAP1 \t\t\t\n  POP \t\t\t\n  JUMP \t\t\t\ntag 53\t\t\t\n  JUMPDEST \t\t\t\n  PUSH 0\t\t\t\n  DUP2 \t\t\t\n  SWAP1 \t\t\t\n  POP \t\t\t\n  SWAP2 \t\t\t\n  SWAP1 \t\t\t\n  POP \t\t\t\n  JUMP \t\t\t\ntag 54\t\t\t\n  JUMPDEST \t\t\t\n  PUSH 0\t\t\t\n  PUSH [tag] 137\t\t\t\n  PUSH [tag] 138\t\t\t\n  PUSH [tag] 139\t\t\t\n  DUP5 \t\t\t\n  PUSH [tag] 52\t\t\t\n  JUMP \t\t\t\ntag 139\t\t\t\n  JUMPDEST \t\t\t\n  PUSH [tag] 53\t\t\t\n  JUMP \t\t\t\ntag 138\t\t\t\n  JUMPDEST \t\t\t\n  PUSH [tag] 52\t\t\t\n  JUMP \t\t\t\ntag 137\t\t\t\n  JUMPDEST \t\t\t\n  SWAP1 \t\t\t\n  POP \t\t\t\n  SWAP2 \t\t\t\n  SWAP1 \t\t\t\n  POP \t\t\t\n  JUMP \t\t\t\ntag 55\t\t\t\n  JUMPDEST \t\t\t\n  PUSH 0\t\t\t\n  DUP2 \t\t\t\n  SWAP1 \t\t\t\n  POP \t\t\t\n  SWAP2 \t\t\t\n  SWAP1 \t\t\t\n  POP \t\t\t\n  JUMP \t\t\t\ntag 56\t\t\t\n  JUMPDEST \t\t\t\n  PUSH [tag] 142\t\t\t\n  DUP4 \t\t\t\n  PUSH [tag] 54\t\t\t\n  JUMP \t\t\t\ntag 142\t\t\t\n  JUMPDEST \t\t\t\n  PUSH [tag] 143\t\t\t\n  PUSH [tag] 144\t\t\t\n  DUP3 \t\t\t\n  PUSH [tag] 55\t\t\t\n  JUMP \t\t\t\ntag 144\t\t\t\n  JUMPDEST \t\t\t\n  DUP5 \t\t\t\n  DUP5 \t\t\t\n  SLOAD \t\t\t\n  PUSH [tag] 51\t\t\t\n  JUMP \t\t\t\ntag 143\t\t\t\n  JUMPDEST \t\t\t\n  DUP3 \t\t\t\n  SSTORE \t\t\t\n  POP \t\t\t\n  POP \t\t\t\n  POP \t\t\t\n  POP \t\t\t\n  JUMP \t\t\t\ntag 57\t\t\t\n  JUMPDEST \t\t\t\n  PUSH 0\t\t\t\n  SWAP1 \t\t\t\n  JUMP \t\t\t\ntag 58\t\t\t\n  JUMPDEST \t\t\t\n  PUSH [tag] 147\t\t\t\n  PUSH [tag] 57\t\t\t\n  JUMP \t\t\t\ntag 147\t\t\t\n  JUMPDEST \t\t\t\n  PUSH [tag] 148\t\t\t\n  DUP2 \t\t\t\n  DUP5 \t\t\t\n  DUP5 \t\t\t\n  PUSH [tag] 56\t\t\t\n  JUMP \t\t\t\ntag 148\t\t\t\n  JUMPDEST \t\t\t\n  POP \t\t\t\n  POP \t\t\t\n  POP \t\t\t\n  JUMP \t\t\t\ntag 59\t\t\t\n  JUMPDEST \t\t\t\ntag 150\t\t\t\n  JUMPDEST \t\t\t\n  DUP2 \t\t\t\n  DUP2 \t\t\t\n  LT \t\t\t\n  ISZERO \t\t\t\n  PUSH [tag] 152\t\t\t\n  JUMPI \t\t\t\n  PUSH [tag] 153\t\t\t\n  PUSH 0\t\t\t\n  DUP3 \t\t\t\n  PUSH [tag] 58\t\t\t\n  JUMP \t\t\t\ntag 153\t\t\t\n  JUMPDEST \t\t\t\n  PUSH 1\t\t\t\n  DUP2 \t\t\t\n  ADD \t\t\t\n  SWAP1 \t\t\t\n  POP \t\t\t\n  PUSH [tag] 150\t\t\t\n  JUMP \t\t\t\ntag 152\t\t\t\n  JUMPDEST \t\t\t\n  POP \t\t\t\n  POP \t\t\t\n  JUMP \t\t\t\ntag 60\t\t\t\n  JUMPDEST \t\t\t\n  PUSH 1F\t\t\t\n  DUP3 \t\t\t\n  GT \t\t\t\n  ISZERO \t\t\t\n  PUSH [tag] 155\t\t\t\n  JUMPI \t\t\t\n  PUSH [tag] 156\t\t\t\n  DUP2 \t\t\t\n  PUSH [tag] 48\t\t\t\n  JUMP \t\t\t\ntag 156\t\t\t\n  JUMPDEST \t\t\t\n  PUSH [tag] 157\t\t\t\n  DUP5 \t\t\t\n  PUSH [tag] 49\t\t\t\n  JUMP \t\t\t\ntag 157\t\t\t\n  JUMPDEST \t\t\t\n  DUP2 \t\t\t\n  ADD \t\t\t\n  PUSH 20\t\t\t\n  DUP6 \t\t\t\n  LT \t\t\t\n  ISZERO \t\t\t\n  PUSH [tag] 158\t\t\t\n  JUMPI \t\t\t\n  DUP2 \t\t\t\n  SWAP1 \t\t\t\n  POP \t\t\t\ntag 158\t\t\t\n  JUMPDEST \t\t\t\n  PUSH [tag] 159\t\t\t\n  PUSH [tag] 160\t\t\t\n  DUP6 \t\t\t\n  PUSH [tag] 49\t\t\t\n  JUMP \t\t\t\ntag 160\t\t\t\n  JUMPDEST \t\t\t\n  DUP4 \t\t\t\n  ADD \t\t\t\n  DUP3 \t\t\t\n  PUSH [tag] 59\t\t\t\n  JUMP \t\t\t\ntag 159\t\t\t\n  JUMPDEST \t\t\t\n  POP \t\t\t\n  POP \t\t\t\ntag 155\t\t\t\n  JUMPDEST \t\t\t\n  POP \t\t\t\n  POP \t\t\t\n  POP \t\t\t\n  JUMP \t\t\t\ntag 61\t\t\t\n  JUMPDEST \t\t\t\n  PUSH 0\t\t\t\n  DUP3 \t\t\t\n  DUP3 \t\t\t\n  SHR \t\t\t\n  SWAP1 \t\t\t\n  POP \t\t\t\n  SWAP3 \t\t\t\n  SWAP2 \t\t\t\n  POP \t\t\t\n  POP \t\t\t\n  JUMP \t\t\t\ntag 62\t\t\t\n  JUMPDEST \t\t\t\n  PUSH 0\t\t\t\n  PUSH [tag] 163\t\t\t\n  PUSH 0\t\t\t\n  NOT \t\t\t\n  DUP5 \t\t\t\n  PUSH 8\t\t\t\n  MUL \t\t\t\n  PUSH [tag] 61\t\t\t\n  JUMP \t\t\t\ntag 163\t\t\t\n  JUMPDEST \t\t\t\n  NOT \t\t\t\n  DUP1 \t\t\t\n  DUP4 \t\t\t\n  AND \t\t\t\n  SWAP2 \t\t\t\n  POP \t\t\t\n  POP \t\t\t\n  SWAP3 \t\t\t\n  SWAP2 \t\t\t\n  POP \t\t\t\n  POP \t\t\t\n  JUMP \t\t\t\ntag 63\t\t\t\n  JUMPDEST \t\t\t\n  PUSH 0\t\t\t\n  PUSH [tag] 165\t\t\t\n  DUP4 \t\t\t\n  DUP4 \t\t\t\n  PUSH [tag] 62\t\t\t\n  JUMP \t\t\t\ntag 165\t\t\t\n  JUMPDEST \t\t\t\n  SWAP2 \t\t\t\n  POP \t\t\t\n  DUP3 \t\t\t\n  PUSH 2\t\t\t\n  MUL \t\t\t\n  DUP3 \t\t\t\n  OR \t\t\t\n  SWAP1 \t\t\t\n  POP \t\t\t\n  SWAP3 \t\t\t\n  SWAP2 \t\t\t\n  POP \t\t\t\n  POP \t\t\t\n  JUMP \t\t\t\ntag 7\t\t\t\n  JUMPDEST \t\t\t\n  PUSH [tag] 167\t\t\t\n  DUP3 \t\t\t\n  PUSH [tag] 46\t\t\t\n  JUMP \t\t\t\ntag 167\t\t\t\n  JUMPDEST \t\t\t\n  PUSH FFFFFFFFFFFFFFFF\t\t\t\n  DUP2 \t\t\t\n  GT \t\t\t\n  ISZERO \t\t\t\n  PUSH [tag] 168\t\t\t\n  JUMPI \t\t\t\n  PUSH [tag] 169\t\t\t\n  PUSH [tag] 34\t\t\t\n  JUMP \t\t\t\ntag 169\t\t\t\n  JUMPDEST \t\t\t\ntag 168\t\t\t\n  JUMPDEST \t\t\t\n  PUSH [tag] 170\t\t\t\n  DUP3 \t\t\t\n  SLOAD \t\t\t\n  PUSH [tag] 22\t\t\t\n  JUMP \t\t\t\ntag 170\t\t\t\n  JUMPDEST \t\t\t\n  PUSH [tag] 171\t\t\t\n  DUP3 \t\t\t\n  DUP3 \t\t\t\n  DUP6 \t\t\t\n  PUSH [tag] 60\t\t\t\n  JUMP \t\t\t\ntag 171\t\t\t\n  JUMPDEST \t\t\t\n  PUSH 0\t\t\t\n  PUSH 20\t\t\t\n  SWAP1 \t\t\t\n  POP \t\t\t\n  PUSH 1F\t\t\t\n  DUP4 \t\t\t\n  GT \t\t\t\n  PUSH 1\t\t\t\n  DUP2 \t\t\t\n  EQ \t\t\t\n  PUSH [tag] 173\t\t\t\n  JUMPI \t\t\t\n  PUSH 0\t\t\t\n  DUP5 \t\t\t\n  ISZERO \t\t\t\n  PUSH [tag] 174\t\t\t\n  JUMPI \t\t\t\n  DUP3 \t\t\t\n  DUP8 \t\t\t\n  ADD \t\t\t\n  MLOAD \t\t\t\n  SWAP1 \t\t\t\n  POP \t\t\t\ntag 174\t\t\t\n  JUMPDEST \t\t\t\n  PUSH [tag] 175\t\t\t\n  DUP6 \t\t\t\n  DUP3 \t\t\t\n  PUSH [tag] 63\t\t\t\n  JUMP \t\t\t\ntag 175\t\t\t\n  JUMPDEST \t\t\t\n  DUP7 \t\t\t\n  SSTORE \t\t\t\n  POP \t\t\t\n  PUSH [tag] 172\t\t\t\n  JUMP \t\t\t\ntag 173\t\t\t\n  JUMPDEST \t\t\t\n  PUSH 1F\t\t\t\n  NOT \t\t\t\n  DUP5 \t\t\t\n  AND \t\t\t\n  PUSH [tag] 176\t\t\t\n  DUP7 \t\t\t\n  PUSH [tag] 48\t\t\t\n  JUMP \t\t\t\ntag 176\t\t\t\n  JUMPDEST \t\t\t\n  PUSH 0\t\t\t\ntag 177\t\t\t\n  JUMPDEST \t\t\t\n  DUP3 \t\t\t\n  DUP2 \t\t\t\n  LT \t\t\t\n  ISZERO \t\t\t\n  PUSH [tag] 179\t\t\t\n  JUMPI \t\t\t\n  DUP5 \t\t\t\n  DUP10 \t\t\t\n  ADD \t\t\t\n  MLOAD \t\t\t\n  DUP3 \t\t\t\n  SSTORE \t\t\t\n  PUSH 1\t\t\t\n  DUP3 \t\t\t\n  ADD \t\t\t\n  SWAP2 \t\t\t\n  POP \t\t\t\n  PUSH 20\t\t\t\n  DUP6 \t\t\t\n  ADD \t\t\t\n  SWAP5 \t\t\t\n  POP \t\t\t\n  PUSH 20\t\t\t\n  DUP2 \t\t\t\n  ADD \t\t\t\n  SWAP1 \t\t\t\n  POP \t\t\t\n  PUSH [tag] 177\t\t\t\n  JUMP \t\t\t\ntag 179\t\t\t\n  JUMPDEST \t\t\t\n  DUP7 \t\t\t\n  DUP4 \t\t\t\n  LT \t\t\t\n  ISZERO \t\t\t\n  PUSH [tag] 180\t\t\t\n  JUMPI \t\t\t\n  DUP5 \t\t\t\n  DUP10 \t\t\t\n  ADD \t\t\t\n  MLOAD \t\t\t\n  PUSH [tag] 181\t\t\t\n  PUSH 1F\t\t\t\n  DUP10 \t\t\t\n  AND \t\t\t\n  DUP3 \t\t\t\n  PUSH [tag] 62\t\t\t\n  JUMP \t\t\t\ntag 181\t\t\t\n  JUMPDEST \t\t\t\n  DUP4 \t\t\t\n  SSTORE \t\t\t\n  POP \t\t\t\ntag 180\t\t\t\n  JUMPDEST \t\t\t\n  PUSH 1\t\t\t\n  PUSH 2\t\t\t\n  DUP9 \t\t\t\n  MUL \t\t\t\n  ADD \t\t\t\n  DUP9 \t\t\t\n  SSTORE \t\t\t\n  POP \t\t\t\n  POP \t\t\t\n  POP \t\t\t\ntag 172\t\t\t\n  JUMPDEST \t\t\t\n  POP \t\t\t\n  POP \t\t\t\n  POP \t\t\t\n  POP \t\t\t\n  POP \t\t\t\n  POP \t\t\t\n  JUMP \t\t\t\ntag 10\t\t\tcontract AuthContract is IAuth...\n  JUMPDEST \t\t\tcontract AuthContract is IAuth...\n  PUSH #[$] 0000000000000000000000000000000000000000000000000000000000000000\t\t\tcontract AuthContract is IAuth...\n  DUP1 \t\t\tcontract AuthContract is IAuth...\n  PUSH [$] 0000000000000000000000000000000000000000000000000000000000000000\t\t\tcontract AuthContract is IAuth...\n  PUSH 0\t\t\tcontract AuthContract is IAuth...\n  CODECOPY \t\t\tcontract AuthContract is IAuth...\n  PUSH 0\t\t\tcontract AuthContract is IAuth...\n  RETURN \t\t\tcontract AuthContract is IAuth...\n.data\n  0:\n    .code\n      PUSH 80\t\t\tcontract AuthContract is IAuth...\n      PUSH 40\t\t\tcontract AuthContract is IAuth...\n      MSTORE \t\t\tcontract AuthContract is IAuth...\n      CALLVALUE \t\t\tcontract AuthContract is IAuth...\n      DUP1 \t\t\tcontract AuthContract is IAuth...\n      ISZERO \t\t\tcontract AuthContract is IAuth...\n      PUSH [tag] 1\t\t\tcontract AuthContract is IAuth...\n      JUMPI \t\t\tcontract AuthContract is IAuth...\n      PUSH 0\t\t\tcontract AuthContract is IAuth...\n      DUP1 \t\t\tcontract AuthContract is IAuth...\n      REVERT \t\t\tcontract AuthContract is IAuth...\n    tag 1\t\t\tcontract AuthContract is IAuth...\n      JUMPDEST \t\t\tcontract AuthContract is IAuth...\n      POP \t\t\tcontract AuthContract is IAuth...\n      PUSH 4\t\t\tcontract AuthContract is IAuth...\n      CALLDATASIZE \t\t\tcontract AuthContract is IAuth...\n      LT \t\t\tcontract AuthContract is IAuth...\n      PUSH [tag] 2\t\t\tcontract AuthContract is IAuth...\n      JUMPI \t\t\tcontract AuthContract is IAuth...\n      PUSH 0\t\t\tcontract AuthContract is IAuth...\n      CALLDATALOAD \t\t\tcontract AuthContract is IAuth...\n      PUSH E0\t\t\tcontract AuthContract is IAuth...\n      SHR \t\t\tcontract AuthContract is IAuth...\n      DUP1 \t\t\tcontract AuthContract is IAuth...\n      PUSH 27820851\t\t\tcontract AuthContract is IAuth...\n      EQ \t\t\tcontract AuthContract is IAuth...\n      PUSH [tag] 3\t\t\tcontract AuthContract is IAuth...\n      JUMPI \t\t\tcontract AuthContract is IAuth...\n      DUP1 \t\t\tcontract AuthContract is IAuth...\n      PUSH 71061398\t\t\tcontract AuthContract is IAuth...\n      EQ \t\t\tcontract AuthContract is IAuth...\n      PUSH [tag] 4\t\t\tcontract AuthContract is IAuth...\n      JUMPI \t\t\tcontract AuthContract is IAuth...\n      DUP1 \t\t\tcontract AuthContract is IAuth...\n      PUSH 724DE979\t\t\tcontract AuthContract is IAuth...\n      EQ \t\t\tcontract AuthContract is IAuth...\n      PUSH [tag] 5\t\t\tcontract AuthContract is IAuth...\n      JUMPI \t\t\tcontract AuthContract is IAuth...\n    tag 2\t\t\tcontract AuthContract is IAuth...\n      JUMPDEST \t\t\tcontract AuthContract is IAuth...\n      PUSH 0\t\t\tcontract AuthContract is IAuth...\n      DUP1 \t\t\tcontract AuthContract is IAuth...\n      REVERT \t\t\tcontract AuthContract is IAuth...\n    tag 3\t\t\tfunction getUserRole(address a...\n      JUMPDEST \t\t\tfunction getUserRole(address a...\n      PUSH [tag] 6\t\t\tfunction getUserRole(address a...\n      PUSH 4\t\t\tfunction getUserRole(address a...\n      DUP1 \t\t\tfunction getUserRole(address a...\n      CALLDATASIZE \t\t\tfunction getUserRole(address a...\n      SUB \t\t\tfunction getUserRole(address a...\n      DUP2 \t\t\tfunction getUserRole(address a...\n      ADD \t\t\tfunction getUserRole(address a...\n      SWAP1 \t\t\tfunction getUserRole(address a...\n      PUSH [tag] 7\t\t\tfunction getUserRole(address a...\n      SWAP2 \t\t\tfunction getUserRole(address a...\n      SWAP1 \t\t\tfunction getUserRole(address a...\n      PUSH [tag] 8\t\t\tfunction getUserRole(address a...\n      JUMP \t\t\tfunction getUserRole(address a...\n    tag 7\t\t\tfunction getUserRole(address a...\n      JUMPDEST \t\t\tfunction getUserRole(address a...\n      PUSH [tag] 9\t\t\tfunction getUserRole(address a...\n      JUMP \t\t\tfunction getUserRole(address a...\n    tag 6\t\t\tfunction getUserRole(address a...\n      JUMPDEST \t\t\tfunction getUserRole(address a...\n      PUSH 40\t\t\tfunction getUserRole(address a...\n      MLOAD \t\t\tfunction getUserRole(address a...\n      PUSH [tag] 10\t\t\tfunction getUserRole(address a...\n      SWAP2 \t\t\tfunction getUserRole(address a...\n      SWAP1 \t\t\tfunction getUserRole(address a...\n      PUSH [tag] 11\t\t\tfunction getUserRole(address a...\n      JUMP \t\t\tfunction getUserRole(address a...\n    tag 10\t\t\tfunction getUserRole(address a...\n      JUMPDEST \t\t\tfunction getUserRole(address a...\n      PUSH 40\t\t\tfunction getUserRole(address a...\n      MLOAD \t\t\tfunction getUserRole(address a...\n      DUP1 \t\t\tfunction getUserRole(address a...\n      SWAP2 \t\t\tfunction getUserRole(address a...\n      SUB \t\t\tfunction getUserRole(address a...\n      SWAP1 \t\t\tfunction getUserRole(address a...\n      RETURN \t\t\tfunction getUserRole(address a...\n    tag 4\t\t\tfunction getRoles() public vie...\n      JUMPDEST \t\t\tfunction getRoles() public vie...\n      PUSH [tag] 12\t\t\tfunction getRoles() public vie...\n      PUSH [tag] 13\t\t\tfunction getRoles() public vie...\n      JUMP \t\t\tfunction getRoles() public vie...\n    tag 12\t\t\tfunction getRoles() public vie...\n      JUMPDEST \t\t\tfunction getRoles() public vie...\n      PUSH 40\t\t\tfunction getRoles() public vie...\n      MLOAD \t\t\tfunction getRoles() public vie...\n      PUSH [tag] 14\t\t\tfunction getRoles() public vie...\n      SWAP2 \t\t\tfunction getRoles() public vie...\n      SWAP1 \t\t\tfunction getRoles() public vie...\n      PUSH [tag] 15\t\t\tfunction getRoles() public vie...\n      JUMP \t\t\tfunction getRoles() public vie...\n    tag 14\t\t\tfunction getRoles() public vie...\n      JUMPDEST \t\t\tfunction getRoles() public vie...\n      PUSH 40\t\t\tfunction getRoles() public vie...\n      MLOAD \t\t\tfunction getRoles() public vie...\n      DUP1 \t\t\tfunction getRoles() public vie...\n      SWAP2 \t\t\tfunction getRoles() public vie...\n      SUB \t\t\tfunction getRoles() public vie...\n      SWAP1 \t\t\tfunction getRoles() public vie...\n      RETURN \t\t\tfunction getRoles() public vie...\n    tag 5\t\t\tfunction setUserRole(address a...\n      JUMPDEST \t\t\tfunction setUserRole(address a...\n      PUSH [tag] 16\t\t\tfunction setUserRole(address a...\n      PUSH 4\t\t\tfunction setUserRole(address a...\n      DUP1 \t\t\tfunction setUserRole(address a...\n      CALLDATASIZE \t\t\tfunction setUserRole(address a...\n      SUB \t\t\tfunction setUserRole(address a...\n      DUP2 \t\t\tfunction setUserRole(address a...\n      ADD \t\t\tfunction setUserRole(address a...\n      SWAP1 \t\t\tfunction setUserRole(address a...\n      PUSH [tag] 17\t\t\tfunction setUserRole(address a...\n      SWAP2 \t\t\tfunction setUserRole(address a...\n      SWAP1 \t\t\tfunction setUserRole(address a...\n      PUSH [tag] 18\t\t\tfunction setUserRole(address a...\n      JUMP \t\t\tfunction setUserRole(address a...\n    tag 17\t\t\tfunction setUserRole(address a...\n      JUMPDEST \t\t\tfunction setUserRole(address a...\n      PUSH [tag] 19\t\t\tfunction setUserRole(address a...\n      JUMP \t\t\tfunction setUserRole(address a...\n    tag 16\t\t\tfunction setUserRole(address a...\n      JUMPDEST \t\t\tfunction setUserRole(address a...\n      STOP \t\t\tfunction setUserRole(address a...\n    tag 9\t\t\tfunction getUserRole(address a...\n      JUMPDEST \t\t\tfunction getUserRole(address a...\n      PUSH 60\t\t\tstring memory\n      PUSH 0\t\t\tusers\n      DUP1 \t\t\tusers[adr]\n      DUP4 \t\t\tadr\n      PUSH FFFFFFFFFFFFFFFFFFFFFFFFFFFFFFFFFFFFFFFF\t\t\tusers[adr]\n      AND \t\t\tusers[adr]\n      PUSH FFFFFFFFFFFFFFFFFFFFFFFFFFFFFFFFFFFFFFFF\t\t\tusers[adr]\n      AND \t\t\tusers[adr]\n      DUP2 \t\t\tusers[adr]\n      MSTORE \t\t\tusers[adr]\n      PUSH 20\t\t\tusers[adr]\n      ADD \t\t\tusers[adr]\n      SWAP1 \t\t\tusers[adr]\n      DUP2 \t\t\tusers[adr]\n      MSTORE \t\t\tusers[adr]\n      PUSH 20\t\t\tusers[adr]\n      ADD \t\t\tusers[adr]\n      PUSH 0\t\t\tusers[adr]\n      KECCAK256 \t\t\tusers[adr]\n      DUP1 \t\t\treturn users[adr]\n      SLOAD \t\t\treturn users[adr]\n      PUSH [tag] 21\t\t\treturn users[adr]\n      SWAP1 \t\t\treturn users[adr]\n      PUSH [tag] 22\t\t\treturn users[adr]\n      JUMP \t\t\treturn users[adr]\n    tag 21\t\t\treturn users[adr]\n      JUMPDEST \t\t\treturn users[adr]\n      DUP1 \t\t\treturn users[adr]\n      PUSH 1F\t\t\treturn users[adr]\n      ADD \t\t\treturn users[adr]\n      PUSH 20\t\t\treturn users[adr]\n      DUP1 \t\t\treturn users[adr]\n      SWAP2 \t\t\treturn users[adr]\n      DIV \t\t\treturn users[adr]\n      MUL \t\t\treturn users[adr]\n      PUSH 20\t\t\treturn users[adr]\n      ADD \t\t\treturn users[adr]\n      PUSH 40\t\t\treturn users[adr]\n      MLOAD \t\t\treturn users[adr]\n      SWAP1 \t\t\treturn users[adr]\n      DUP2 \t\t\treturn users[adr]\n      ADD \t\t\treturn users[adr]\n      PUSH 40\t\t\treturn users[adr]\n      MSTORE \t\t\treturn users[adr]\n      DUP1 \t\t\treturn users[adr]\n      SWAP3 \t\t\treturn users[adr]\n      SWAP2 \t\t\treturn users[adr]\n      SWAP1 \t\t\treturn users[adr]\n      DUP2 \t\t\treturn users[adr]\n      DUP2 \t\t\treturn users[adr]\n      MSTORE \t\t\treturn users[adr]\n      PUSH 20\t\t\treturn users[adr]\n      ADD \t\t\treturn users[adr]\n      DUP3 \t\t\treturn users[adr]\n      DUP1 \t\t\treturn users[adr]\n      SLOAD \t\t\treturn users[adr]\n      PUSH [tag] 23\t\t\treturn users[adr]\n      SWAP1 \t\t\treturn users[adr]\n      PUSH [tag] 22\t\t\treturn users[adr]\n      JUMP \t\t\treturn users[adr]\n    tag 23\t\t\treturn users[adr]\n      JUMPDEST \t\t\treturn users[adr]\n      DUP1 \t\t\treturn users[adr]\n      ISZERO \t\t\treturn users[adr]\n      PUSH [tag] 24\t\t\treturn users[adr]\n      JUMPI \t\t\treturn users[adr]\n      DUP1 \t\t\treturn users[adr]\n      PUSH 1F\t\t\treturn users[adr]\n      LT \t\t\treturn users[adr]\n      PUSH [tag] 25\t\t\treturn users[adr]\n      JUMPI \t\t\treturn users[adr]\n      PUSH 100\t\t\treturn users[adr]\n      DUP1 \t\t\treturn users[adr]\n      DUP4 \t\t\treturn users[adr]\n      SLOAD \t\t\treturn users[adr]\n      DIV \t\t\treturn users[adr]\n      MUL \t\t\treturn users[adr]\n      DUP4 \t\t\treturn users[adr]\n      MSTORE \t\t\treturn users[adr]\n      SWAP2 \t\t\treturn users[adr]\n      PUSH 20\t\t\treturn users[adr]\n      ADD \t\t\treturn users[adr]\n      SWAP2 \t\t\treturn users[adr]\n      PUSH [tag] 24\t\t\treturn users[adr]\n      JUMP \t\t\treturn users[adr]\n    tag 25\t\t\treturn users[adr]\n      JUMPDEST \t\t\treturn users[adr]\n      DUP3 \t\t\treturn users[adr]\n      ADD \t\t\treturn users[adr]\n      SWAP2 \t\t\treturn users[adr]\n      SWAP1 \t\t\treturn users[adr]\n      PUSH 0\t\t\treturn users[adr]\n      MSTORE \t\t\treturn users[adr]\n      PUSH 20\t\t\treturn users[adr]\n      PUSH 0\t\t\treturn users[adr]\n      KECCAK256 \t\t\treturn users[adr]\n      SWAP1 \t\t\treturn users[adr]\n    tag 26\t\t\treturn users[adr]\n      JUMPDEST \t\t\treturn users[adr]\n      DUP2 \t\t\treturn users[adr]\n      SLOAD \t\t\treturn users[adr]\n      DUP2 \t\t\treturn users[adr]\n      MSTORE \t\t\treturn users[adr]\n      SWAP1 \t\t\treturn users[adr]\n      PUSH 1\t\t\treturn users[adr]\n      ADD \t\t\treturn users[adr]\n      SWAP1 \t\t\treturn users[adr]\n      PUSH 20\t\t\treturn users[adr]\n      ADD \t\t\treturn users[adr]\n      DUP1 \t\t\treturn users[adr]\n      DUP4 \t\t\treturn users[adr]\n      GT \t\t\treturn users[adr]\n      PUSH [tag] 26\t\t\treturn users[adr]\n      JUMPI \t\t\treturn users[adr]\n      DUP3 \t\t\treturn users[adr]\n      SWAP1 \t\t\treturn users[adr]\n      SUB \t\t\treturn users[adr]\n      PUSH 1F\t\t\treturn users[adr]\n      AND \t\t\treturn users[adr]\n      DUP3 \t\t\treturn users[adr]\n      ADD \t\t\treturn users[adr]\n      SWAP2 \t\t\treturn users[adr]\n    tag 24\t\t\treturn users[adr]\n      JUMPDEST \t\t\treturn users[adr]\n      POP \t\t\treturn users[adr]\n      POP \t\t\treturn users[adr]\n      POP \t\t\treturn users[adr]\n      POP \t\t\treturn users[adr]\n      POP \t\t\treturn users[adr]\n      SWAP1 \t\t\treturn users[adr]\n      POP \t\t\treturn users[adr]\n      SWAP2 \t\t\tfunction getUserRole(address a...\n      SWAP1 \t\t\tfunction getUserRole(address a...\n      POP \t\t\tfunction getUserRole(address a...\n      JUMP \t\t\tfunction getUserRole(address a...\n    tag 13\t\t\tfunction getRoles() public vie...\n      JUMPDEST \t\t\tfunction getRoles() public vie...\n      PUSH 60\t\t\tstring[] memory\n      PUSH 2\t\t\troles\n      DUP1 \t\t\treturn roles\n      SLOAD \t\t\treturn roles\n      DUP1 \t\t\treturn roles\n      PUSH 20\t\t\treturn roles\n      MUL \t\t\treturn roles\n      PUSH 20\t\t\treturn roles\n      ADD \t\t\treturn roles\n      PUSH 40\t\t\treturn roles\n      MLOAD \t\t\treturn roles\n      SWAP1 \t\t\treturn roles\n      DUP2 \t\t\treturn roles\n      ADD \t\t\treturn roles\n      PUSH 40\t\t\treturn roles\n      MSTORE \t\t\treturn roles\n      DUP1 \t\t\treturn roles\n      SWAP3 \t\t\treturn roles\n      SWAP2 \t\t\treturn roles\n      SWAP1 \t\t\treturn roles\n      DUP2 \t\t\treturn roles\n      DUP2 \t\t\treturn roles\n      MSTORE \t\t\treturn roles\n      PUSH 20\t\t\treturn roles\n      ADD \t\t\treturn roles\n      PUSH 0\t\t\treturn roles\n      SWAP1 \t\t\treturn roles\n    tag 28\t\t\treturn roles\n      JUMPDEST \t\t\treturn roles\n      DUP3 \t\t\treturn roles\n      DUP3 \t\t\treturn roles\n      LT \t\t\treturn roles\n      ISZERO \t\t\treturn roles\n      PUSH [tag] 29\t\t\treturn roles\n      JUMPI \t\t\treturn roles\n      DUP4 \t\t\treturn roles\n      DUP3 \t\t\treturn roles\n      SWAP1 \t\t\treturn roles\n      PUSH 0\t\t\treturn roles\n      MSTORE \t\t\treturn roles\n      PUSH 20\t\t\treturn roles\n      PUSH 0\t\t\treturn roles\n      KECCAK256 \t\t\treturn roles\n      ADD \t\t\treturn roles\n      DUP1 \t\t\treturn roles\n      SLOAD \t\t\treturn roles\n      PUSH [tag] 31\t\t\treturn roles\n      SWAP1 \t\t\treturn roles\n      PUSH [tag] 22\t\t\treturn roles\n      JUMP \t\t\treturn roles\n    tag 31\t\t\treturn roles\n      JUMPDEST \t\t\treturn roles\n      DUP1 \t\t\treturn roles\n      PUSH 1F\t\t\treturn roles\n      ADD \t\t\treturn roles\n      PUSH 20\t\t\treturn roles\n      DUP1 \t\t\treturn roles\n      SWAP2 \t\t\treturn roles\n      DIV \t\t\treturn roles\n      MUL \t\t\treturn roles\n      PUSH 20\t\t\treturn roles\n      ADD \t\t\treturn roles\n      PUSH 40\t\t\treturn roles\n      MLOAD \t\t\treturn roles\n      SWAP1 \t\t\treturn roles\n      DUP2 \t\t\treturn roles\n      ADD \t\t\treturn roles\n      PUSH 40\t\t\treturn roles\n      MSTORE \t\t\treturn roles\n      DUP1 \t\t\treturn roles\n      SWAP3 \t\t\treturn roles\n      SWAP2 \t\t\treturn roles\n      SWAP1 \t\t\treturn roles\n      DUP2 \t\t\treturn roles\n      DUP2 \t\t\treturn roles\n      MSTORE \t\t\treturn roles\n      PUSH 20\t\t\treturn roles\n      ADD \t\t\treturn roles\n      DUP3 \t\t\treturn roles\n      DUP1 \t\t\treturn roles\n      SLOAD \t\t\treturn roles\n      PUSH [tag] 32\t\t\treturn roles\n      SWAP1 \t\t\treturn roles\n      PUSH [tag] 22\t\t\treturn roles\n      JUMP \t\t\treturn roles\n    tag 32\t\t\treturn roles\n      JUMPDEST \t\t\treturn roles\n      DUP1 \t\t\treturn roles\n      ISZERO \t\t\treturn roles\n      PUSH [tag] 33\t\t\treturn roles\n      JUMPI \t\t\treturn roles\n      DUP1 \t\t\treturn roles\n      PUSH 1F\t\t\treturn roles\n      LT \t\t\treturn roles\n      PUSH [tag] 34\t\t\treturn roles\n      JUMPI \t\t\treturn roles\n      PUSH 100\t\t\treturn roles\n      DUP1 \t\t\treturn roles\n      DUP4 \t\t\treturn roles\n      SLOAD \t\t\treturn roles\n      DIV \t\t\treturn roles\n      MUL \t\t\treturn roles\n      DUP4 \t\t\treturn roles\n      MSTORE \t\t\treturn roles\n      SWAP2 \t\t\treturn roles\n      PUSH 20\t\t\treturn roles\n      ADD \t\t\treturn roles\n      SWAP2 \t\t\treturn roles\n      PUSH [tag] 33\t\t\treturn roles\n      JUMP \t\t\treturn roles\n    tag 34\t\t\treturn roles\n      JUMPDEST \t\t\treturn roles\n      DUP3 \t\t\treturn roles\n      ADD \t\t\treturn roles\n      SWAP2 \t\t\treturn roles\n      SWAP1 \t\t\treturn roles\n      PUSH 0\t\t\treturn roles\n      MSTORE \t\t\treturn roles\n      PUSH 20\t\t\treturn roles\n      PUSH 0\t\t\treturn roles\n      KECCAK256 \t\t\treturn roles\n      SWAP1 \t\t\treturn roles\n    tag 35\t\t\treturn roles\n      JUMPDEST \t\t\treturn roles\n      DUP2 \t\t\treturn roles\n      SLOAD \t\t\treturn roles\n      DUP2 \t\t\treturn roles\n      MSTORE \t\t\treturn roles\n      SWAP1 \t\t\treturn roles\n      PUSH 1\t\t\treturn roles\n      ADD \t\t\treturn roles\n      SWAP1 \t\t\treturn roles\n      PUSH 20\t\t\treturn roles\n      ADD \t\t\treturn roles\n      DUP1 \t\t\treturn roles\n      DUP4 \t\t\treturn roles\n      GT \t\t\treturn roles\n      PUSH [tag] 35\t\t\treturn roles\n      JUMPI \t\t\treturn roles\n      DUP3 \t\t\treturn roles\n      SWAP1 \t\t\treturn roles\n      SUB \t\t\treturn roles\n      PUSH 1F\t\t\treturn roles\n      AND \t\t\treturn roles\n      DUP3 \t\t\treturn roles\n      ADD \t\t\treturn roles\n      SWAP2 \t\t\treturn roles\n    tag 33\t\t\treturn roles\n      JUMPDEST \t\t\treturn roles\n      POP \t\t\treturn roles\n      POP \t\t\treturn roles\n      POP \t\t\treturn roles\n      POP \t\t\treturn roles\n      POP \t\t\treturn roles\n      DUP2 \t\t\treturn roles\n      MSTORE \t\t\treturn roles\n      PUSH 20\t\t\treturn roles\n      ADD \t\t\treturn roles\n      SWAP1 \t\t\treturn roles\n      PUSH 1\t\t\treturn roles\n      ADD \t\t\treturn roles\n      SWAP1 \t\t\treturn roles\n      PUSH [tag] 28\t\t\treturn roles\n      JUMP \t\t\treturn roles\n    tag 29\t\t\treturn roles\n      JUMPDEST \t\t\treturn roles\n      POP \t\t\treturn roles\n      POP \t\t\treturn roles\n      POP \t\t\treturn roles\n      POP \t\t\treturn roles\n      SWAP1 \t\t\treturn roles\n      POP \t\t\treturn roles\n      SWAP1 \t\t\tfunction getRoles() public vie...\n      JUMP \t\t\tfunction getRoles() public vie...\n    tag 19\t\t\tfunction setUserRole(address a...\n      JUMPDEST \t\t\tfunction setUserRole(address a...\n      PUSH 1\t\t\towner\n      PUSH 0\t\t\towner\n      SWAP1 \t\t\towner\n      SLOAD \t\t\towner\n      SWAP1 \t\t\towner\n      PUSH 100\t\t\towner\n      EXP \t\t\towner\n      SWAP1 \t\t\towner\n      DIV \t\t\towner\n      PUSH FFFFFFFFFFFFFFFFFFFFFFFFFFFFFFFFFFFFFFFF\t\t\towner\n      AND \t\t\towner\n      PUSH FFFFFFFFFFFFFFFFFFFFFFFFFFFFFFFFFFFFFFFF\t\t\tmsg.sender == owner\n      AND \t\t\tmsg.sender == owner\n      CALLER \t\t\tmsg.sender\n      PUSH FFFFFFFFFFFFFFFFFFFFFFFFFFFFFFFFFFFFFFFF\t\t\tmsg.sender == owner\n      AND \t\t\tmsg.sender == owner\n      EQ \t\t\tmsg.sender == owner\n      PUSH [tag] 37\t\t\trequire(msg.sender == owner, \"...\n      JUMPI \t\t\trequire(msg.sender == owner, \"...\n      PUSH 40\t\t\trequire(msg.sender == owner, \"...\n      MLOAD \t\t\trequire(msg.sender == owner, \"...\n      PUSH 8C379A000000000000000000000000000000000000000000000000000000000\t\t\trequire(msg.sender == owner, \"...\n      DUP2 \t\t\trequire(msg.sender == owner, \"...\n      MSTORE \t\t\trequire(msg.sender == owner, \"...\n      PUSH 4\t\t\trequire(msg.sender == owner, \"...\n      ADD \t\t\trequire(msg.sender == owner, \"...\n      PUSH [tag] 38\t\t\trequire(msg.sender == owner, \"...\n      SWAP1 \t\t\trequire(msg.sender == owner, \"...\n      PUSH [tag] 39\t\t\trequire(msg.sender == owner, \"...\n      JUMP \t\t\trequire(msg.sender == owner, \"...\n    tag 38\t\t\trequire(msg.sender == owner, \"...\n      JUMPDEST \t\t\trequire(msg.sender == owner, \"...\n      PUSH 40\t\t\trequire(msg.sender == owner, \"...\n      MLOAD \t\t\trequire(msg.sender == owner, \"...\n      DUP1 \t\t\trequire(msg.sender == owner, \"...\n      SWAP2 \t\t\trequire(msg.sender == owner, \"...\n      SUB \t\t\trequire(msg.sender == owner, \"...\n      SWAP1 \t\t\trequire(msg.sender == owner, \"...\n      REVERT \t\t\trequire(msg.sender == owner, \"...\n    tag 37\t\t\trequire(msg.sender == owner, \"...\n      JUMPDEST \t\t\trequire(msg.sender == owner, \"...\n      PUSH [tag] 41\t\t\tisRoleExist(role)\n      DUP2 \t\t\trole\n      PUSH [tag] 42\t\t\tisRoleExist\n      JUMP \t\t\tisRoleExist(role)\n    tag 41\t\t\tisRoleExist(role)\n      JUMPDEST \t\t\tisRoleExist(role)\n      ISZERO \t\t\tif (isRoleExist(role)){\\r\\n   ...\n      PUSH [tag] 43\t\t\tif (isRoleExist(role)){\\r\\n   ...\n      JUMPI \t\t\tif (isRoleExist(role)){\\r\\n   ...\n      DUP1 \t\t\trole\n      PUSH 0\t\t\tusers\n      DUP1 \t\t\tusers[adr]\n      DUP5 \t\t\tadr\n      PUSH FFFFFFFFFFFFFFFFFFFFFFFFFFFFFFFFFFFFFFFF\t\t\tusers[adr]\n      AND \t\t\tusers[adr]\n      PUSH FFFFFFFFFFFFFFFFFFFFFFFFFFFFFFFFFFFFFFFF\t\t\tusers[adr]\n      AND \t\t\tusers[adr]\n      DUP2 \t\t\tusers[adr]\n      MSTORE \t\t\tusers[adr]\n      PUSH 20\t\t\tusers[adr]\n      ADD \t\t\tusers[adr]\n      SWAP1 \t\t\tusers[adr]\n      DUP2 \t\t\tusers[adr]\n      MSTORE \t\t\tusers[adr]\n      PUSH 20\t\t\tusers[adr]\n      ADD \t\t\tusers[adr]\n      PUSH 0\t\t\tusers[adr]\n      KECCAK256 \t\t\tusers[adr]\n      SWAP1 \t\t\tusers[adr] = role\n      DUP2 \t\t\tusers[adr] = role\n      PUSH [tag] 44\t\t\tusers[adr] = role\n      SWAP2 \t\t\tusers[adr] = role\n      SWAP1 \t\t\tusers[adr] = role\n      PUSH [tag] 45\t\t\tusers[adr] = role\n      JUMP \t\t\tusers[adr] = role\n    tag 44\t\t\tusers[adr] = role\n      JUMPDEST \t\t\tusers[adr] = role\n      POP \t\t\tusers[adr] = role\n    tag 43\t\t\tif (isRoleExist(role)){\\r\\n   ...\n      JUMPDEST \t\t\tif (isRoleExist(role)){\\r\\n   ...\n      POP \t\t\tfunction setUserRole(address a...\n      POP \t\t\tfunction setUserRole(address a...\n      JUMP \t\t\tfunction setUserRole(address a...\n    tag 42\t\t\tfunction isRoleExist(string me...\n      JUMPDEST \t\t\tfunction isRoleExist(string me...\n      PUSH 0\t\t\tbool\n      DUP1 \t\t\tuint i\n      PUSH 0\t\t\t0\n      SWAP1 \t\t\tuint i = 0\n      POP \t\t\tuint i = 0\n    tag 47\t\t\tfor (uint i = 0; i < roles.len...\n      JUMPDEST \t\t\tfor (uint i = 0; i < roles.len...\n      PUSH 2\t\t\troles\n      DUP1 \t\t\troles.length\n      SLOAD \t\t\troles.length\n      SWAP1 \t\t\troles.length\n      POP \t\t\troles.length\n      DUP2 \t\t\ti\n      LT \t\t\ti < roles.length\n      ISZERO \t\t\tfor (uint i = 0; i < roles.len...\n      PUSH [tag] 48\t\t\tfor (uint i = 0; i < roles.len...\n      JUMPI \t\t\tfor (uint i = 0; i < roles.len...\n      DUP3 \t\t\trole\n      PUSH 40\t\t\tabi.encodePacked(role)\n      MLOAD \t\t\tabi.encodePacked(role)\n      PUSH 20\t\t\tabi.encodePacked(role)\n      ADD \t\t\tabi.encodePacked(role)\n      PUSH [tag] 50\t\t\tabi.encodePacked(role)\n      SWAP2 \t\t\tabi.encodePacked(role)\n      SWAP1 \t\t\tabi.encodePacked(role)\n      PUSH [tag] 51\t\t\tabi.encodePacked(role)\n      JUMP \t\t\tabi.encodePacked(role)\n    tag 50\t\t\tabi.encodePacked(role)\n      JUMPDEST \t\t\tabi.encodePacked(role)\n      PUSH 40\t\t\tabi.encodePacked(role)\n      MLOAD \t\t\tabi.encodePacked(role)\n      PUSH 20\t\t\tabi.encodePacked(role)\n      DUP2 \t\t\tabi.encodePacked(role)\n      DUP4 \t\t\tabi.encodePacked(role)\n      SUB \t\t\tabi.encodePacked(role)\n      SUB \t\t\tabi.encodePacked(role)\n      DUP2 \t\t\tabi.encodePacked(role)\n      MSTORE \t\t\tabi.encodePacked(role)\n      SWAP1 \t\t\tabi.encodePacked(role)\n      PUSH 40\t\t\tabi.encodePacked(role)\n      MSTORE \t\t\tabi.encodePacked(role)\n      DUP1 \t\t\tkeccak256(abi.encodePacked(rol...\n      MLOAD \t\t\tkeccak256(abi.encodePacked(rol...\n      SWAP1 \t\t\tkeccak256(abi.encodePacked(rol...\n      PUSH 20\t\t\tkeccak256(abi.encodePacked(rol...\n      ADD \t\t\tkeccak256(abi.encodePacked(rol...\n      KECCAK256 \t\t\tkeccak256(abi.encodePacked(rol...\n      PUSH 2\t\t\troles\n      DUP3 \t\t\ti\n      DUP2 \t\t\troles[i]\n      SLOAD \t\t\troles[i]\n      DUP2 \t\t\troles[i]\n      LT \t\t\troles[i]\n      PUSH [tag] 52\t\t\troles[i]\n      JUMPI \t\t\troles[i]\n      PUSH [tag] 53\t\t\troles[i]\n      PUSH [tag] 54\t\t\troles[i]\n      JUMP \t\t\troles[i]\n    tag 53\t\t\troles[i]\n      JUMPDEST \t\t\troles[i]\n    tag 52\t\t\troles[i]\n      JUMPDEST \t\t\troles[i]\n      SWAP1 \t\t\troles[i]\n      PUSH 0\t\t\troles[i]\n      MSTORE \t\t\troles[i]\n      PUSH 20\t\t\troles[i]\n      PUSH 0\t\t\troles[i]\n      KECCAK256 \t\t\troles[i]\n      ADD \t\t\troles[i]\n      PUSH 40\t\t\tabi.encodePacked(roles[i])\n      MLOAD \t\t\tabi.encodePacked(roles[i])\n      PUSH 20\t\t\tabi.encodePacked(roles[i])\n      ADD \t\t\tabi.encodePacked(roles[i])\n      PUSH [tag] 56\t\t\tabi.encodePacked(roles[i])\n      SWAP2 \t\t\tabi.encodePacked(roles[i])\n      SWAP1 \t\t\tabi.encodePacked(roles[i])\n      PUSH [tag] 57\t\t\tabi.encodePacked(roles[i])\n      JUMP \t\t\tabi.encodePacked(roles[i])\n    tag 56\t\t\tabi.encodePacked(roles[i])\n      JUMPDEST \t\t\tabi.encodePacked(roles[i])\n      PUSH 40\t\t\tabi.encodePacked(roles[i])\n      MLOAD \t\t\tabi.encodePacked(roles[i])\n      PUSH 20\t\t\tabi.encodePacked(roles[i])\n      DUP2 \t\t\tabi.encodePacked(roles[i])\n      DUP4 \t\t\tabi.encodePacked(roles[i])\n      SUB \t\t\tabi.encodePacked(roles[i])\n      SUB \t\t\tabi.encodePacked(roles[i])\n      DUP2 \t\t\tabi.encodePacked(roles[i])\n      MSTORE \t\t\tabi.encodePacked(roles[i])\n      SWAP1 \t\t\tabi.encodePacked(roles[i])\n      PUSH 40\t\t\tabi.encodePacked(roles[i])\n      MSTORE \t\t\tabi.encodePacked(roles[i])\n      DUP1 \t\t\tkeccak256(abi.encodePacked(rol...\n      MLOAD \t\t\tkeccak256(abi.encodePacked(rol...\n      SWAP1 \t\t\tkeccak256(abi.encodePacked(rol...\n      PUSH 20\t\t\tkeccak256(abi.encodePacked(rol...\n      ADD \t\t\tkeccak256(abi.encodePacked(rol...\n      KECCAK256 \t\t\tkeccak256(abi.encodePacked(rol...\n      SUB \t\t\tkeccak256(abi.encodePacked(rol...\n      PUSH [tag] 58\t\t\tif (keccak256(abi.encodePacked...\n      JUMPI \t\t\tif (keccak256(abi.encodePacked...\n      PUSH 1\t\t\ttrue\n      SWAP2 \t\t\treturn true\n      POP \t\t\treturn true\n      POP \t\t\treturn true\n      PUSH [tag] 46\t\t\treturn true\n      JUMP \t\t\treturn true\n    tag 58\t\t\tif (keccak256(abi.encodePacked...\n      JUMPDEST \t\t\tif (keccak256(abi.encodePacked...\n      DUP1 \t\t\ti++\n      DUP1 \t\t\ti++\n      PUSH [tag] 59\t\t\ti++\n      SWAP1 \t\t\ti++\n      PUSH [tag] 60\t\t\ti++\n      JUMP \t\t\ti++\n    tag 59\t\t\ti++\n      JUMPDEST \t\t\ti++\n      SWAP2 \t\t\ti++\n      POP \t\t\ti++\n      POP \t\t\ti++\n      PUSH [tag] 47\t\t\tfor (uint i = 0; i < roles.len...\n      JUMP \t\t\tfor (uint i = 0; i < roles.len...\n    tag 48\t\t\tfor (uint i = 0; i < roles.len...\n      JUMPDEST \t\t\tfor (uint i = 0; i < roles.len...\n      POP \t\t\tfor (uint i = 0; i < roles.len...\n      PUSH 0\t\t\tfalse\n      SWAP1 \t\t\treturn false\n      POP \t\t\treturn false\n    tag 46\t\t\tfunction isRoleExist(string me...\n      JUMPDEST \t\t\tfunction isRoleExist(string me...\n      SWAP2 \t\t\tfunction isRoleExist(string me...\n      SWAP1 \t\t\tfunction isRoleExist(string me...\n      POP \t\t\tfunction isRoleExist(string me...\n      JUMP \t\t\tfunction isRoleExist(string me...\n    tag 61\t\t\t-License-Identifier: MIT\\r\\n \\...\n      JUMPDEST \t\t\t-License-Identifier: MIT\\r\\n \\...\n      PUSH 0\t\t\tma sol\n      PUSH 40\t\t\tIA\n      MLOAD \t\t\trface IAu\n      SWAP1 \t\t\t9;\\r\\n\\r\\ninterface IAu\n      POP \t\t\t9;\\r\\n\\r\\ninterface IAu\n      SWAP1 \t\t\t-License-Identifier: MIT\\r\\n \\...\n      JUMP \t\t\t-License-Identifier: MIT\\r\\n \\...\n    tag 62\t\t\t\\r\\n    function getRoles() ex...\n      JUMPDEST \t\t\t\\r\\n    function getRoles() ex...\n      PUSH 0\t\t\te\n      DUP1 \t\t\te\n      REVERT \t\t\ts adr) exter\n    tag 63\t\t\turns (string memory);\\r\\n    f...\n      JUMPDEST \t\t\turns (string memory);\\r\\n    f...\n      PUSH 0\t\t\th\n      DUP1 \t\t\tA\n      REVERT \t\t\tntract AuthC\n    tag 64\t\t\tAuthContract{\\r\\n\\r\\n    mappi...\n      JUMPDEST \t\t\tAuthContract{\\r\\n\\r\\n    mappi...\n      PUSH 0\t\t\t => str\n      PUSH FFFFFFFFFFFFFFFFFFFFFFFFFFFFFFFFFFFFFFFF\t\t\t    string[] roles;\\r\\n\\r\\n   ...\n      DUP3 \t\t\twner;\n      AND \t\t\tss owner;\\r\\n    string[] role...\n      SWAP1 \t\t\t\\r\\n    address owner;\\r\\n    ...\n      POP \t\t\t\\r\\n    address owner;\\r\\n    ...\n      SWAP2 \t\t\tAuthContract{\\r\\n\\r\\n    mappi...\n      SWAP1 \t\t\tAuthContract{\\r\\n\\r\\n    mappi...\n      POP \t\t\tAuthContract{\\r\\n\\r\\n    mappi...\n      JUMP \t\t\tAuthContract{\\r\\n\\r\\n    mappi...\n    tag 65\t\t\t_roles){\\r\\n        owner = ms...\n      JUMPDEST \t\t\t_roles){\\r\\n        owner = ms...\n      PUSH 0\t\t\t\\r\\n     \n      PUSH [tag] 119\t\t\tin\";\\r\\n        roles = _r\n      DUP3 \t\t\ts = _\n      PUSH [tag] 64\t\t\tin\";\\r\\n        roles = _r\n      JUMP \t\t\tin\";\\r\\n        roles = _r\n    tag 119\t\t\tin\";\\r\\n        roles = _r\n      JUMPDEST \t\t\tin\";\\r\\n        roles = _r\n      SWAP1 \t\t\tner] = \"admin\";\\r\\n        rol...\n      POP \t\t\tner] = \"admin\";\\r\\n        rol...\n      SWAP2 \t\t\t_roles){\\r\\n        owner = ms...\n      SWAP1 \t\t\t_roles){\\r\\n        owner = ms...\n      POP \t\t\t_roles){\\r\\n        owner = ms...\n      JUMP \t\t\t_roles){\\r\\n        owner = ms...\n    tag 66\t\t\t\\r\\n\\r\\n    modifier OnlyOwner...\n      JUMPDEST \t\t\t\\r\\n\\r\\n    modifier OnlyOwner...\n      PUSH [tag] 121\t\t\twner can do this\");\\r\\n   \n      DUP2 \t\t\t;\\r\\n  \n      PUSH [tag] 65\t\t\twner can do this\");\\r\\n   \n      JUMP \t\t\twner can do this\");\\r\\n   \n    tag 121\t\t\twner can do this\");\\r\\n   \n      JUMPDEST \t\t\twner can do this\");\\r\\n   \n      DUP2 \t\t\t\"Only\n      EQ \t\t\tr, \"Only owner can do this\");\\...\n      PUSH [tag] 122\t\t\ter == owner, \"Only owner can d...\n      JUMPI \t\t\ter == owner, \"Only owner can d...\n      PUSH 0\t\t\t\\n\n      DUP1 \t\t\t \n      REVERT \t\t\t_;\\r\\n    }\\r\\n\\r\n    tag 122\t\t\ter == owner, \"Only owner can d...\n      JUMPDEST \t\t\ter == owner, \"Only owner can d...\n      POP \t\t\t\\r\\n\\r\\n    modifier OnlyOwner...\n      JUMP \t\t\t\\r\\n\\r\\n    modifier OnlyOwner...\n    tag 67\t\t\tisRoleExist(string memory role...\n      JUMPDEST \t\t\tisRoleExist(string memory role...\n      PUSH 0\t\t\teturn\n      DUP2 \t\t\t0; i <\n      CALLDATALOAD \t\t\tor (uint i = 0; i < \n      SWAP1 \t\t\t        for (uint i = 0; i < \n      POP \t\t\t        for (uint i = 0; i < \n      PUSH [tag] 124\t\t\tgth; i++){\\r\\n           if (k...\n      DUP2 \t\t\tkecca\n      PUSH [tag] 66\t\t\tgth; i++){\\r\\n           if (k...\n      JUMP \t\t\tgth; i++){\\r\\n           if (k...\n    tag 124\t\t\tgth; i++){\\r\\n           if (k...\n      JUMPDEST \t\t\tgth; i++){\\r\\n           if (k...\n      SWAP3 \t\t\tisRoleExist(string memory role...\n      SWAP2 \t\t\tisRoleExist(string memory role...\n      POP \t\t\tisRoleExist(string memory role...\n      POP \t\t\tisRoleExist(string memory role...\n      JUMP \t\t\tisRoleExist(string memory role...\n    tag 8\t\t\tdePacked(roles[i])) == keccak2...\n      JUMPDEST \t\t\tdePacked(roles[i])) == keccak2...\n      PUSH 0\t\t\t\\n     \n      PUSH 20\t\t\t  \n      DUP3 \t\t\t     }\\r\\n \n      DUP5 \t\t\t;\\r\\n    \n      SUB \t\t\ttrue;\\r\\n           }\\r\\n  \n      SLT \t\t\turn true;\\r\\n           }\\r\\n ...\n      ISZERO \t\t\treturn true;\\r\\n           }\\r...\n      PUSH [tag] 126\t\t\treturn true;\\r\\n           }\\r...\n      JUMPI \t\t\treturn true;\\r\\n           }\\r...\n      PUSH [tag] 127\t\t\t\\n        return false;\\r\\n   ...\n      PUSH [tag] 62\t\t\t\\n        return false;\\r\\n   ...\n      JUMP \t\t\t\\n        return false;\\r\\n   ...\n    tag 127\t\t\t\\n        return false;\\r\\n   ...\n      JUMPDEST \t\t\t\\n        return false;\\r\\n   ...\n    tag 126\t\t\treturn true;\\r\\n           }\\r...\n      JUMPDEST \t\t\treturn true;\\r\\n           }\\r...\n      PUSH 0\t\t\t \n      PUSH [tag] 128\t\t\tUserRole(address adr) public v...\n      DUP5 \t\t\tring me\n      DUP3 \t\t\tturns \n      DUP6 \t\t\tlic view \n      ADD \t\t\t public view returns (\n      PUSH [tag] 67\t\t\tUserRole(address adr) public v...\n      JUMP \t\t\tUserRole(address adr) public v...\n    tag 128\t\t\tUserRole(address adr) public v...\n      JUMPDEST \t\t\tUserRole(address adr) public v...\n      SWAP2 \t\t\tnction getUserRole(address adr...\n      POP \t\t\tnction getUserRole(address adr...\n      POP \t\t\try){\\r\\n        return roles;\\...\n      SWAP3 \t\t\tdePacked(roles[i])) == keccak2...\n      SWAP2 \t\t\tdePacked(roles[i])) == keccak2...\n      POP \t\t\tdePacked(roles[i])) == keccak2...\n      POP \t\t\tdePacked(roles[i])) == keccak2...\n      JUMP \t\t\tdePacked(roles[i])) == keccak2...\n    tag 68\t\t\tsers[adr];\\r\\n    }\\r\\n\\r\\n   ...\n      JUMPDEST \t\t\tsers[adr];\\r\\n    }\\r\\n\\r\\n   ...\n      PUSH 0\t\t\ts adr,\n      DUP2 \t\t\ter pu\n      MLOAD \t\t\tnlyOwner pub\n      SWAP1 \t\t\try role) OnlyOwner pub\n      POP \t\t\try role) OnlyOwner pub\n      SWAP2 \t\t\tsers[adr];\\r\\n    }\\r\\n\\r\\n   ...\n      SWAP1 \t\t\tsers[adr];\\r\\n    }\\r\\n\\r\\n   ...\n      POP \t\t\tsers[adr];\\r\\n    }\\r\\n\\r\\n   ...\n      JUMP \t\t\tsers[adr];\\r\\n    }\\r\\n\\r\\n   ...\n    tag 69\t\t\t  if (isRoleExist(role)){\\r\\n ...\n      JUMPDEST \t\t\t  if (isRoleExist(role)){\\r\\n ...\n      PUSH 0\t\t\tcontract St\n      DUP3 \t\t\ttruct \n      DUP3 \t\t\t   \n      MSTORE \t\t\tct{\\r\\n\\r\\n    struct F\n      PUSH 20\t\t\t    \n      DUP3 \t\t\t\\n  \n      ADD \t\t\tle;\\r\\n        s\n      SWAP1 \t\t\t     string title;\\r\\n        ...\n      POP \t\t\t     string title;\\r\\n        ...\n      SWAP3 \t\t\t  if (isRoleExist(role)){\\r\\n ...\n      SWAP2 \t\t\t  if (isRoleExist(role)){\\r\\n ...\n      POP \t\t\t  if (isRoleExist(role)){\\r\\n ...\n      POP \t\t\t  if (isRoleExist(role)){\\r\\n ...\n      JUMP \t\t\t  if (isRoleExist(role)){\\r\\n ...\n    tag 70\t\t\tss_roles;\\r\\n    }\\r\\n\\r\\n    ...\n      JUMPDEST \t\t\tss_roles;\\r\\n    }\\r\\n\\r\\n    ...\n      PUSH 0\t\t\tf\n    tag 132\t\t\t  }\\r\\n\\r\\n    mapping (string...\n      JUMPDEST \t\t\t  }\\r\\n\\r\\n    mapping (string...\n      DUP4 \t\t\tping (\n      DUP2 \t\t\tm\n      LT \t\t\t   mapping (s\n      ISZERO \t\t\t  }\\r\\n\\r\\n    mapping (string...\n      PUSH [tag] 134\t\t\t  }\\r\\n\\r\\n    mapping (string...\n      JUMPI \t\t\t  }\\r\\n\\r\\n    mapping (string...\n      DUP1 \t\t\t \n      DUP3 \t\t\t;\\r\\n\n      ADD \t\t\tHash;\\r\\n    \n      MLOAD \t\t\t) FileHash;\\r\\n    a\n      DUP2 \t\t\tr\n      DUP5 \t\t\t=> \n      ADD \t\t\ting => stri\n      MSTORE \t\t\tng (string => string) FileHash...\n      PUSH 20\t\t\tor\n      DUP2 \t\t\te\n      ADD \t\t\t Directory\n      SWAP1 \t\t\tng => Directory\n      POP \t\t\tng => Directory\n      PUSH [tag] 132\t\t\t  }\\r\\n\\r\\n    mapping (string...\n      JUMP \t\t\t  }\\r\\n\\r\\n    mapping (string...\n    tag 134\t\t\t  }\\r\\n\\r\\n    mapping (string...\n      JUMPDEST \t\t\t  }\\r\\n\\r\\n    mapping (string...\n      PUSH 0\t\t\t\\n\n      DUP5 \t\t\ty_name\n      DUP5 \t\t\tect\n      ADD \t\t\t directory_names\n      MSTORE \t\t\ttring[] directory_names;\\r\\n \n      POP \t\t\te;\\r\\n        File[] files;\\r\\...\n      POP \t\t\tss_roles;\\r\\n    }\\r\\n\\r\\n    ...\n      POP \t\t\tss_roles;\\r\\n    }\\r\\n\\r\\n    ...\n      POP \t\t\tss_roles;\\r\\n    }\\r\\n\\r\\n    ...\n      JUMP \t\t\tss_roles;\\r\\n    }\\r\\n\\r\\n    ...\n    tag 71\t\t\tract authContract;\\r\\n\\r\\n\\r\\n...\n      JUMPDEST \t\t\tract authContract;\\r\\n\\r\\n\\r\\n...\n      PUSH 0\t\t\tRegist\n      PUSH 1F\t\t\tod\n      NOT \t\t\t.encode\n      PUSH 1F\t\t\t6(\n      DUP4 \t\t\teccak\n      ADD \t\t\tre(keccak256(a\n      AND \t\t\tequire(keccak256(abi.encodeP\n      SWAP1 \t\t\t\\n        require(keccak256(ab...\n      POP \t\t\t\\n        require(keccak256(ab...\n      SWAP2 \t\t\tract authContract;\\r\\n\\r\\n\\r\\n...\n      SWAP1 \t\t\tract authContract;\\r\\n\\r\\n\\r\\n...\n      POP \t\t\tract authContract;\\r\\n\\r\\n\\r\\n...\n      JUMP \t\t\tract authContract;\\r\\n\\r\\n\\r\\n...\n    tag 72\t\t\tntract.getUserRole(msg.sender)...\n      JUMPDEST \t\t\tntract.getUserRole(msg.sender)...\n      PUSH 0\t\t\tor \n      PUSH [tag] 137\t\t\t\\r\\n    }\\r\\n\\r\\n    construct...\n      DUP3 \t\t\ts aut\n      PUSH [tag] 68\t\t\t\\r\\n    }\\r\\n\\r\\n    construct...\n      JUMP \t\t\t\\r\\n    }\\r\\n\\r\\n    construct...\n    tag 137\t\t\t\\r\\n    }\\r\\n\\r\\n    construct...\n      JUMPDEST \t\t\t\\r\\n    }\\r\\n\\r\\n    construct...\n      PUSH [tag] 138\t\t\t{\\r\\n        authContract = IA...\n      DUP2 \t\t\t   }\\r\\n\n      DUP6 \t\t\t);\\r\n      PUSH [tag] 69\t\t\t{\\r\\n        authContract = IA...\n      JUMP \t\t\t{\\r\\n        authContract = IA...\n    tag 138\t\t\t{\\r\\n        authContract = IA...\n      JUMPDEST \t\t\t{\\r\\n        authContract = IA...\n      SWAP4 \t\t\tddress){\\r\\n        authContra...\n      POP \t\t\tddress){\\r\\n        authContra...\n      PUSH [tag] 139\t\t\ttion checkUserRole(string memo...\n      DUP2 \t\t\tes) pr\n      DUP6 \t\t\ty r\n      PUSH 20\t\t\t] me\n      DUP7 \t\t\tstrin\n      ADD \t\t\tle, string[] mem\n      PUSH [tag] 70\t\t\ttion checkUserRole(string memo...\n      JUMP \t\t\ttion checkUserRole(string memo...\n    tag 139\t\t\ttion checkUserRole(string memo...\n      JUMPDEST \t\t\ttion checkUserRole(string memo...\n      PUSH [tag] 140\t\t\t{\\r\\n        for (uint i = 0; ...\n      DUP2 \t\t\t = 0; \n      PUSH [tag] 71\t\t\t{\\r\\n        for (uint i = 0; ...\n      JUMP \t\t\t{\\r\\n        for (uint i = 0; ...\n    tag 140\t\t\t{\\r\\n        for (uint i = 0; ...\n      JUMPDEST \t\t\t{\\r\\n        for (uint i = 0; ...\n      DUP5 \t\t\tool\n      ADD \t\t\ts (bool) {\\r\\n        for (uin...\n      SWAP2 \t\t\t returns (bool) {\\r\\n        f...\n      POP \t\t\t returns (bool) {\\r\\n        f...\n      POP \t\t\tore roles\");\\r\\n        _;\\r\\n...\n      SWAP3 \t\t\tntract.getUserRole(msg.sender)...\n      SWAP2 \t\t\tntract.getUserRole(msg.sender)...\n      POP \t\t\tntract.getUserRole(msg.sender)...\n      POP \t\t\tntract.getUserRole(msg.sender)...\n      JUMP \t\t\tntract.getUserRole(msg.sender)...\n    tag 11\t\t\tth; i++){\\r\\n           if (ke...\n      JUMPDEST \t\t\tth; i++){\\r\\n           if (ke...\n      PUSH 0\t\t\t    \n      PUSH 20\t\t\t  \n      DUP3 \t\t\t     }\\r\\n \n      ADD \t\t\t         }\\r\\n      \n      SWAP1 \t\t\true;\\r\\n           }\\r\\n      \n      POP \t\t\true;\\r\\n           }\\r\\n      \n      DUP2 \t\t\tion isDir\n      DUP2 \t\t\t fun\n      SUB \t\t\t\\n    function isDire\n      PUSH 0\t\t\t}\n      DUP4 \t\t\talse;\\r\\n  \n      ADD \t\t\trn false;\\r\\n    }\\r\n      MSTORE \t\t\t   return false;\\r\\n    }\\r\\n\\...\n      PUSH [tag] 142\t\t\tmemory directory) OnlyRegister...\n      DUP2 \t\t\t   f\n      DUP5 \t\t\t){\\r\\n  \n      PUSH [tag] 72\t\t\tmemory directory) OnlyRegister...\n      JUMP \t\t\tmemory directory) OnlyRegister...\n    tag 142\t\t\tmemory directory) OnlyRegister...\n      JUMPDEST \t\t\tmemory directory) OnlyRegister...\n      SWAP1 \t\t\t(string memory directory) Only...\n      POP \t\t\t(string memory directory) Only...\n      SWAP3 \t\t\tth; i++){\\r\\n           if (ke...\n      SWAP2 \t\t\tth; i++){\\r\\n           if (ke...\n      POP \t\t\tth; i++){\\r\\n           if (ke...\n      POP \t\t\tth; i++){\\r\\n           if (ke...\n      JUMP \t\t\tth; i++){\\r\\n           if (ke...\n    tag 73\t\t\t; i < directory_names.length; ...\n      JUMPDEST \t\t\t; i < directory_names.length; ...\n      PUSH 0\t\t\td(dire\n      DUP2 \t\t\t6(abi\n      MLOAD \t\t\tccak256(abi.\n      SWAP1 \t\t\ti])) == keccak256(abi.\n      POP \t\t\ti])) == keccak256(abi.\n      SWAP2 \t\t\t; i < directory_names.length; ...\n      SWAP1 \t\t\t; i < directory_names.length; ...\n      POP \t\t\t; i < directory_names.length; ...\n      JUMP \t\t\t; i < directory_names.length; ...\n    tag 74\t\t\tdirectory))){\\r\\n             ...\n      JUMPDEST \t\t\tdirectory))){\\r\\n             ...\n      PUSH 0\t\t\tction isFil\n      DUP3 \t\t\ttle, s\n      DUP3 \t\t\try \n      MSTORE \t\t\tng memory title, st\n      PUSH 20\t\t\tew r\n      DUP3 \t\t\tte \n      ADD \t\t\trivate view re\n      SWAP1 \t\t\try directory) private view re\n      POP \t\t\try directory) private view re\n      SWAP3 \t\t\tdirectory))){\\r\\n             ...\n      SWAP2 \t\t\tdirectory))){\\r\\n             ...\n      POP \t\t\tdirectory))){\\r\\n             ...\n      POP \t\t\tdirectory))){\\r\\n             ...\n      JUMP \t\t\tdirectory))){\\r\\n             ...\n    tag 75\t\t\t{\\r\\n        for (uint i = 0; ...\n      JUMPDEST \t\t\t{\\r\\n        for (uint i = 0; ...\n      PUSH 0\t\t\t    \n      DUP2 \t\t\t6(a\n      SWAP1 \t\t\tkeccak256(a\n      POP \t\t\tkeccak256(a\n      PUSH 20\t\t\t[dir\n      DUP3 \t\t\tori\n      ADD \t\t\trectories[dire\n      SWAP1 \t\t\tacked(Directories[dire\n      POP \t\t\tacked(Directories[dire\n      SWAP2 \t\t\t{\\r\\n        for (uint i = 0; ...\n      SWAP1 \t\t\t{\\r\\n        for (uint i = 0; ...\n      POP \t\t\t{\\r\\n        for (uint i = 0; ...\n      JUMP \t\t\t{\\r\\n        for (uint i = 0; ...\n    tag 76\t\t\ti].title)) == keccak256(abi.en...\n      JUMPDEST \t\t\ti].title)) == keccak256(abi.en...\n      PUSH 0\t\t\t true;\\r\\n   \n      DUP3 \t\t\t      \n      DUP3 \t\t\t  }\n      MSTORE \t\t\t\\n        }\\r\\n       \n      PUSH 20\t\t\ttion\n      DUP3 \t\t\t fu\n      ADD \t\t\t\\n    function \n      SWAP1 \t\t\talse;\\r\\n    }\\r\\n\\r\\n    func...\n      POP \t\t\talse;\\r\\n    }\\r\\n\\r\\n    func...\n      SWAP3 \t\t\ti].title)) == keccak256(abi.en...\n      SWAP2 \t\t\ti].title)) == keccak256(abi.en...\n      POP \t\t\ti].title)) == keccak256(abi.en...\n      POP \t\t\ti].title)) == keccak256(abi.en...\n      JUMP \t\t\ti].title)) == keccak256(abi.en...\n    tag 77\t\t\tory(string memory title) OnlyR...\n      JUMPDEST \t\t\tory(string memory title) OnlyR...\n      PUSH 0\t\t\ttor\n      PUSH [tag] 148\t\t\t already exist\");\\r\\n        d...\n      DUP3 \t\t\tory_n\n      PUSH [tag] 68\t\t\t already exist\");\\r\\n        d...\n      JUMP \t\t\t already exist\");\\r\\n        d...\n    tag 148\t\t\t already exist\");\\r\\n        d...\n      JUMPDEST \t\t\t already exist\");\\r\\n        d...\n      PUSH [tag] 149\t\t\t\\r\\n        Directories[title]...\n      DUP2 \t\t\t    fu\n      DUP6 \t\t\t}\\r\\n\n      PUSH [tag] 76\t\t\t\\r\\n        Directories[title]...\n      JUMP \t\t\t\\r\\n        Directories[title]...\n    tag 149\t\t\t\\r\\n        Directories[title]...\n      JUMPDEST \t\t\t\\r\\n        Directories[title]...\n      SWAP4 \t\t\ttitle);\\r\\n        Directories...\n      POP \t\t\ttitle);\\r\\n        Directories...\n      PUSH [tag] 150\t\t\teteDirectory(string memory tit...\n      DUP2 \t\t\tic{\\r\\n \n      DUP6 \t\t\t pu\n      PUSH 20\t\t\tedUs\n      DUP7 \t\t\tegist\n      ADD \t\t\tnlyRegisteredUse\n      PUSH [tag] 70\t\t\teteDirectory(string memory tit...\n      JUMP \t\t\teteDirectory(string memory tit...\n    tag 150\t\t\teteDirectory(string memory tit...\n      JUMPDEST \t\t\teteDirectory(string memory tit...\n      PUSH [tag] 151\t\t\t< directory_names.length; i++\n      DUP2 \t\t\tth; i+\n      PUSH [tag] 71\t\t\t< directory_names.length; i++\n      JUMP \t\t\t< directory_names.length; i++\n    tag 151\t\t\t< directory_names.length; i++\n      JUMPDEST \t\t\t< directory_names.length; i++\n      DUP5 \t\t\t0; \n      ADD \t\t\ti = 0; i < directory_names.len...\n      SWAP2 \t\t\t (uint i = 0; i < directory_na...\n      POP \t\t\t (uint i = 0; i < directory_na...\n      POP \t\t\tExist(title), \"Directory alrea...\n      SWAP3 \t\t\tory(string memory title) OnlyR...\n      SWAP2 \t\t\tory(string memory title) OnlyR...\n      POP \t\t\tory(string memory title) OnlyR...\n      POP \t\t\tory(string memory title) OnlyR...\n      JUMP \t\t\tory(string memory title) OnlyR...\n    tag 78\t\t\t   if (keccak256(abi.encodePac...\n      JUMPDEST \t\t\t   if (keccak256(abi.encodePac...\n      PUSH 0\t\t\te))){\\r\\n   \n      PUSH [tag] 153\t\t\tmes[i] = directory_names[direc...\n      DUP4 \t\t\t   \n      DUP4 \t\t\t\\n     \n      PUSH [tag] 77\t\t\tmes[i] = directory_names[direc...\n      JUMP \t\t\tmes[i] = directory_names[direc...\n    tag 153\t\t\tmes[i] = directory_names[direc...\n      JUMPDEST \t\t\tmes[i] = directory_names[direc...\n      SWAP1 \t\t\t  directory_names[i] = directo...\n      POP \t\t\t  directory_names[i] = directo...\n      SWAP3 \t\t\t   if (keccak256(abi.encodePac...\n      SWAP2 \t\t\t   if (keccak256(abi.encodePac...\n      POP \t\t\t   if (keccak256(abi.encodePac...\n      POP \t\t\t   if (keccak256(abi.encodePac...\n      JUMP \t\t\t   if (keccak256(abi.encodePac...\n    tag 79\t\t\try_names.pop();\\r\\n           ...\n      JUMPDEST \t\t\try_names.pop();\\r\\n           ...\n      PUSH 0\t\t\tring\n      PUSH 20\t\t\tdUse\n      DUP3 \t\t\tste\n      ADD \t\t\tRegisteredUser\n      SWAP1 \t\t\tle) OnlyRegisteredUser\n      POP \t\t\tle) OnlyRegisteredUser\n      SWAP2 \t\t\try_names.pop();\\r\\n           ...\n      SWAP1 \t\t\try_names.pop();\\r\\n           ...\n      POP \t\t\try_names.pop();\\r\\n           ...\n      JUMP \t\t\try_names.pop();\\r\\n           ...\n    tag 80\t\t\t{\\r\\n        return Directorie...\n      JUMPDEST \t\t\t{\\r\\n        return Directorie...\n      PUSH 0\t\t\t   \n      PUSH [tag] 156\t\t\t;\\r\\n    }\\r\\n\\r\\n    function...\n      DUP3 \t\t\ttring\n      PUSH [tag] 73\t\t\t;\\r\\n    }\\r\\n\\r\\n    function...\n      JUMP \t\t\t;\\r\\n    }\\r\\n\\r\\n    function...\n    tag 156\t\t\t;\\r\\n    }\\r\\n\\r\\n    function...\n      JUMPDEST \t\t\t;\\r\\n    }\\r\\n\\r\\n    function...\n      PUSH [tag] 157\t\t\ting memory directory, string[]...\n      DUP2 \t\t\te(isDi\n      DUP6 \t\t\tequ\n      PUSH [tag] 74\t\t\ting memory directory, string[]...\n      JUMP \t\t\ting memory directory, string[]...\n    tag 157\t\t\ting memory directory, string[]...\n      JUMPDEST \t\t\ting memory directory, string[]...\n      SWAP4 \t\t\tsh, string memory directory, s...\n      POP \t\t\tsh, string memory directory, s...\n      DUP4 \t\t\tire\n      PUSH 20\t\t\tFile\n      DUP3 \t\t\tuire(!\n      MUL \t\t\t require(!isFileE\n      DUP6 \t\t\t   \n      ADD \t\t\t\\r\\n        require(!isFileEx\n      PUSH [tag] 158\t\t\tFile already exist\");\\r\\n     ...\n      DUP6 \t\t\t, rol\n      PUSH [tag] 75\t\t\tFile already exist\");\\r\\n     ...\n      JUMP \t\t\tFile already exist\");\\r\\n     ...\n    tag 158\t\t\tFile already exist\");\\r\\n     ...\n      JUMPDEST \t\t\tFile already exist\");\\r\\n     ...\n      DUP1 \t\t\title] =\n      PUSH 0\t\t\ti\n    tag 159\t\t\t       Directories[directory]....\n      JUMPDEST \t\t\t       Directories[directory]....\n      DUP6 \t\t\tory].f\n      DUP2 \t\t\te\n      LT \t\t\tdirectory].fi\n      ISZERO \t\t\t       Directories[directory]....\n      PUSH [tag] 161\t\t\t       Directories[directory]....\n      JUMPI \t\t\t       Directories[directory]....\n      DUP5 \t\t\ttitle, st\n      DUP5 \t\t\temor\n      SUB \t\t\tng memory title, str\n      DUP10 \t\t\t(st\n      MSTORE \t\t\teteFile(string memory title, s...\n      DUP2 \t\t\t publi\n      MLOAD \t\t\tdUsers public\n      PUSH [tag] 162\t\t\t i = 0; i < Directories[direct...\n      DUP6 \t\t\t56(a\n      DUP3 \t\t\t    if (kecca\n      PUSH [tag] 78\t\t\t i = 0; i < Directories[direct...\n      JUMP \t\t\t i = 0; i < Directories[direct...\n    tag 162\t\t\t i = 0; i < Directories[direct...\n      JUMPDEST \t\t\t i = 0; i < Directories[direct...\n      SWAP5 \t\t\tor (uint i = 0; i < Directorie...\n      POP \t\t\tor (uint i = 0; i < Directorie...\n      PUSH [tag] 163\t\t\ties[directory].files[i].title)...\n      DUP4 \t\t\title))\n      PUSH [tag] 79\t\t\ties[directory].files[i].title)...\n      JUMP \t\t\ties[directory].files[i].title)...\n    tag 163\t\t\ties[directory].files[i].title)...\n      JUMPDEST \t\t\ties[directory].files[i].title)...\n      SWAP3 \t\t\td(Directories[directory].files...\n      POP \t\t\td(Directories[directory].files...\n      PUSH 20\t\t\teckU\n      DUP11 \t\t\tre(\n      ADD \t\t\tequire(checkUs\n      SWAP10 \t\t\t      require(checkUs\n      POP \t\t\t      require(checkUs\n      POP \t\t\t  function deleteFile(string m...\n      PUSH 1\t\t\t\\r\n      DUP2 \t\t\te\n      ADD \t\t\t(file);\\r\\n\n      SWAP1 \t\t\t.push(file);\\r\\n\n      POP \t\t\t.push(file);\\r\\n\n      PUSH [tag] 159\t\t\t       Directories[directory]....\n      JUMP \t\t\t       Directories[directory]....\n    tag 161\t\t\t       Directories[directory]....\n      JUMPDEST \t\t\t       Directories[directory]....\n      POP \t\t\t   Directories\n      DUP3 \t\t\trRol\n      SWAP8 \t\t\t.getUserRol\n      POP \t\t\t.getUserRol\n      DUP8 \t\t\tire\n      SWAP6 \t\t\tder), Dire\n      POP \t\t\tder), Dire\n      POP \t\t\t  return directory_names;\\r\\n ...\n      POP \t\t\t  return directory_names;\\r\\n ...\n      POP \t\t\t  return directory_names;\\r\\n ...\n      POP \t\t\t  return directory_names;\\r\\n ...\n      POP \t\t\t  return directory_names;\\r\\n ...\n      SWAP3 \t\t\t{\\r\\n        return Directorie...\n      SWAP2 \t\t\t{\\r\\n        return Directorie...\n      POP \t\t\t{\\r\\n        return Directorie...\n      POP \t\t\t{\\r\\n        return Directorie...\n      JUMP \t\t\t{\\r\\n        return Directorie...\n    tag 15\t\t\tctory].files[i].access_roles),...\n      JUMPDEST \t\t\tctory].files[i].access_roles),...\n      PUSH 0\t\t\tles.\n      PUSH 20\t\t\tct\n      DUP3 \t\t\t       Di\n      ADD \t\t\t           Directo\n      SWAP1 \t\t\t;\\r\\n                Directo\n      POP \t\t\t;\\r\\n                Directo\n      DUP2 \t\t\t       }\\r\n      DUP2 \t\t\t  }\\r\n      SUB \t\t\t      }\\r\\n        }\\r\\n\n      PUSH 0\t\t\t \n      DUP4 \t\t\t.pop();\\r\\n\n      ADD \t\t\tiles.pop();\\r\\n    \n      MSTORE \t\t\ttory].files.pop();\\r\\n        ...\n      PUSH [tag] 165\t\t\tion getFileHash(string memory ...\n      DUP2 \t\t\t    \n      DUP5 \t\t\try){\\r\\n\n      PUSH [tag] 80\t\t\tion getFileHash(string memory ...\n      JUMP \t\t\tion getFileHash(string memory ...\n    tag 165\t\t\tion getFileHash(string memory ...\n      JUMPDEST \t\t\tion getFileHash(string memory ...\n      SWAP1 \t\t\t   function getFileHash(string...\n      POP \t\t\t   function getFileHash(string...\n      SWAP3 \t\t\tctory].files[i].access_roles),...\n      SWAP2 \t\t\tctory].files[i].access_roles),...\n      POP \t\t\tctory].files[i].access_roles),...\n      POP \t\t\tctory].files[i].access_roles),...\n      JUMP \t\t\tctory].files[i].access_roles),...\n    tag 81\t\t\t 0; i < Directories[directory]...\n      JUMPDEST \t\t\t 0; i < Directories[directory]...\n      PUSH 0\t\t\tr\n      DUP1 \t\t\t[\n      REVERT \t\t\tctories[dire\n    tag 82\t\t\t[i].title)) == keccak256(abi.e...\n      JUMPDEST \t\t\t[i].title)) == keccak256(abi.e...\n      PUSH 0\t\t\te\n      DUP1 \t\t\tt\n      REVERT \t\t\tract.getUser\n    tag 83\t\t\tder), Directories[directory].f...\n      JUMPDEST \t\t\tder), Directories[directory].f...\n      PUSH 4E487B7100000000000000000000000000000000000000000000000000000000\t\t\tes), \"Not enough permissions\")...\n      PUSH 0\t\t\tr\n      MSTORE \t\t\taccess_roles), \"Not enough per...\n      PUSH 41\t\t\ttitl\n      PUSH 4\t\t\ti\n      MSTORE \t\t\t.files[i].title\n      PUSH 24\t\t\t    \n      PUSH 0\t\t\t}\n      REVERT \t\t\t       }\\r\\n     \n    tag 84\t\t\t  return \"\";\\r\\n    }\\r\\n}\n      JUMPDEST \t\t\t  return \"\";\\r\\n    }\\r\\n}\n      PUSH [tag] 170\t\t\t\n      DUP3 \t\t\t\n      PUSH [tag] 71\t\t\t\n      JUMP \t\t\t\n    tag 170\t\t\t\n      JUMPDEST \t\t\t\n      DUP2 \t\t\t\n      ADD \t\t\t\n      DUP2 \t\t\t\n      DUP2 \t\t\t\n      LT \t\t\t\n      PUSH FFFFFFFFFFFFFFFF\t\t\t\n      DUP3 \t\t\t\n      GT \t\t\t\n      OR \t\t\t\n      ISZERO \t\t\t\n      PUSH [tag] 171\t\t\t\n      JUMPI \t\t\t\n      PUSH [tag] 172\t\t\t\n      PUSH [tag] 83\t\t\t\n      JUMP \t\t\t\n    tag 172\t\t\t\n      JUMPDEST \t\t\t\n    tag 171\t\t\t\n      JUMPDEST \t\t\t\n      DUP1 \t\t\t\n      PUSH 40\t\t\t\n      MSTORE \t\t\t\n      POP \t\t\t\n      POP \t\t\t  return \"\";\\r\\n    }\\r\\n}\n      POP \t\t\t  return \"\";\\r\\n    }\\r\\n}\n      JUMP \t\t\t  return \"\";\\r\\n    }\\r\\n}\n    tag 85\t\t\t\n      JUMPDEST \t\t\t\n      PUSH 0\t\t\t\n      PUSH [tag] 174\t\t\t\n      PUSH [tag] 61\t\t\t\n      JUMP \t\t\t\n    tag 174\t\t\t\n      JUMPDEST \t\t\t\n      SWAP1 \t\t\t\n      POP \t\t\t\n      PUSH [tag] 175\t\t\t\n      DUP3 \t\t\t\n      DUP3 \t\t\t\n      PUSH [tag] 84\t\t\t\n      JUMP \t\t\t\n    tag 175\t\t\t\n      JUMPDEST \t\t\t\n      SWAP2 \t\t\t\n      SWAP1 \t\t\t\n      POP \t\t\t\n      JUMP \t\t\t\n    tag 86\t\t\t\n      JUMPDEST \t\t\t\n      PUSH 0\t\t\t\n      PUSH FFFFFFFFFFFFFFFF\t\t\t\n      DUP3 \t\t\t\n      GT \t\t\t\n      ISZERO \t\t\t\n      PUSH [tag] 177\t\t\t\n      JUMPI \t\t\t\n      PUSH [tag] 178\t\t\t\n      PUSH [tag] 83\t\t\t\n      JUMP \t\t\t\n    tag 178\t\t\t\n      JUMPDEST \t\t\t\n    tag 177\t\t\t\n      JUMPDEST \t\t\t\n      PUSH [tag] 179\t\t\t\n      DUP3 \t\t\t\n      PUSH [tag] 71\t\t\t\n      JUMP \t\t\t\n    tag 179\t\t\t\n      JUMPDEST \t\t\t\n      SWAP1 \t\t\t\n      POP \t\t\t\n      PUSH 20\t\t\t\n      DUP2 \t\t\t\n      ADD \t\t\t\n      SWAP1 \t\t\t\n      POP \t\t\t\n      SWAP2 \t\t\t\n      SWAP1 \t\t\t\n      POP \t\t\t\n      JUMP \t\t\t\n    tag 87\t\t\t\n      JUMPDEST \t\t\t\n      DUP3 \t\t\t\n      DUP2 \t\t\t\n      DUP4 \t\t\t\n      CALLDATACOPY \t\t\t\n      PUSH 0\t\t\t\n      DUP4 \t\t\t\n      DUP4 \t\t\t\n      ADD \t\t\t\n      MSTORE \t\t\t\n      POP \t\t\t\n      POP \t\t\t\n      POP \t\t\t\n      JUMP \t\t\t\n    tag 88\t\t\t\n      JUMPDEST \t\t\t\n      PUSH 0\t\t\t\n      PUSH [tag] 182\t\t\t\n      PUSH [tag] 183\t\t\t\n      DUP5 \t\t\t\n      PUSH [tag] 86\t\t\t\n      JUMP \t\t\t\n    tag 183\t\t\t\n      JUMPDEST \t\t\t\n      PUSH [tag] 85\t\t\t\n      JUMP \t\t\t\n    tag 182\t\t\t\n      JUMPDEST \t\t\t\n      SWAP1 \t\t\t\n      POP \t\t\t\n      DUP3 \t\t\t\n      DUP2 \t\t\t\n      MSTORE \t\t\t\n      PUSH 20\t\t\t\n      DUP2 \t\t\t\n      ADD \t\t\t\n      DUP5 \t\t\t\n      DUP5 \t\t\t\n      DUP5 \t\t\t\n      ADD \t\t\t\n      GT \t\t\t\n      ISZERO \t\t\t\n      PUSH [tag] 184\t\t\t\n      JUMPI \t\t\t\n      PUSH [tag] 185\t\t\t\n      PUSH [tag] 82\t\t\t\n      JUMP \t\t\t\n    tag 185\t\t\t\n      JUMPDEST \t\t\t\n    tag 184\t\t\t\n      JUMPDEST \t\t\t\n      PUSH [tag] 186\t\t\t\n      DUP5 \t\t\t\n      DUP3 \t\t\t\n      DUP6 \t\t\t\n      PUSH [tag] 87\t\t\t\n      JUMP \t\t\t\n    tag 186\t\t\t\n      JUMPDEST \t\t\t\n      POP \t\t\t\n      SWAP4 \t\t\t\n      SWAP3 \t\t\t\n      POP \t\t\t\n      POP \t\t\t\n      POP \t\t\t\n      JUMP \t\t\t\n    tag 89\t\t\t\n      JUMPDEST \t\t\t\n      PUSH 0\t\t\t\n      DUP3 \t\t\t\n      PUSH 1F\t\t\t\n      DUP4 \t\t\t\n      ADD \t\t\t\n      SLT \t\t\t\n      PUSH [tag] 188\t\t\t\n      JUMPI \t\t\t\n      PUSH [tag] 189\t\t\t\n      PUSH [tag] 81\t\t\t\n      JUMP \t\t\t\n    tag 189\t\t\t\n      JUMPDEST \t\t\t\n    tag 188\t\t\t\n      JUMPDEST \t\t\t\n      DUP2 \t\t\t\n      CALLDATALOAD \t\t\t\n      PUSH [tag] 190\t\t\t\n      DUP5 \t\t\t\n      DUP3 \t\t\t\n      PUSH 20\t\t\t\n      DUP7 \t\t\t\n      ADD \t\t\t\n      PUSH [tag] 88\t\t\t\n      JUMP \t\t\t\n    tag 190\t\t\t\n      JUMPDEST \t\t\t\n      SWAP2 \t\t\t\n      POP \t\t\t\n      POP \t\t\t\n      SWAP3 \t\t\t\n      SWAP2 \t\t\t\n      POP \t\t\t\n      POP \t\t\t\n      JUMP \t\t\t\n    tag 18\t\t\t\n      JUMPDEST \t\t\t\n      PUSH 0\t\t\t\n      DUP1 \t\t\t\n      PUSH 40\t\t\t\n      DUP4 \t\t\t\n      DUP6 \t\t\t\n      SUB \t\t\t\n      SLT \t\t\t\n      ISZERO \t\t\t\n      PUSH [tag] 192\t\t\t\n      JUMPI \t\t\t\n      PUSH [tag] 193\t\t\t\n      PUSH [tag] 62\t\t\t\n      JUMP \t\t\t\n    tag 193\t\t\t\n      JUMPDEST \t\t\t\n    tag 192\t\t\t\n      JUMPDEST \t\t\t\n      PUSH 0\t\t\t\n      PUSH [tag] 194\t\t\t\n      DUP6 \t\t\t\n      DUP3 \t\t\t\n      DUP7 \t\t\t\n      ADD \t\t\t\n      PUSH [tag] 67\t\t\t\n      JUMP \t\t\t\n    tag 194\t\t\t\n      JUMPDEST \t\t\t\n      SWAP3 \t\t\t\n      POP \t\t\t\n      POP \t\t\t\n      PUSH 20\t\t\t\n      DUP4 \t\t\t\n      ADD \t\t\t\n      CALLDATALOAD \t\t\t\n      PUSH FFFFFFFFFFFFFFFF\t\t\t\n      DUP2 \t\t\t\n      GT \t\t\t\n      ISZERO \t\t\t\n      PUSH [tag] 195\t\t\t\n      JUMPI \t\t\t\n      PUSH [tag] 196\t\t\t\n      PUSH [tag] 63\t\t\t\n      JUMP \t\t\t\n    tag 196\t\t\t\n      JUMPDEST \t\t\t\n    tag 195\t\t\t\n      JUMPDEST \t\t\t\n      PUSH [tag] 197\t\t\t\n      DUP6 \t\t\t\n      DUP3 \t\t\t\n      DUP7 \t\t\t\n      ADD \t\t\t\n      PUSH [tag] 89\t\t\t\n      JUMP \t\t\t\n    tag 197\t\t\t\n      JUMPDEST \t\t\t\n      SWAP2 \t\t\t\n      POP \t\t\t\n      POP \t\t\t\n      SWAP3 \t\t\t\n      POP \t\t\t\n      SWAP3 \t\t\t\n      SWAP1 \t\t\t\n      POP \t\t\t\n      JUMP \t\t\t\n    tag 90\t\t\t\n      JUMPDEST \t\t\t\n      PUSH 4E487B7100000000000000000000000000000000000000000000000000000000\t\t\t\n      PUSH 0\t\t\t\n      MSTORE \t\t\t\n      PUSH 22\t\t\t\n      PUSH 4\t\t\t\n      MSTORE \t\t\t\n      PUSH 24\t\t\t\n      PUSH 0\t\t\t\n      REVERT \t\t\t\n    tag 22\t\t\t\n      JUMPDEST \t\t\t\n      PUSH 0\t\t\t\n      PUSH 2\t\t\t\n      DUP3 \t\t\t\n      DIV \t\t\t\n      SWAP1 \t\t\t\n      POP \t\t\t\n      PUSH 1\t\t\t\n      DUP3 \t\t\t\n      AND \t\t\t\n      DUP1 \t\t\t\n      PUSH [tag] 200\t\t\t\n      JUMPI \t\t\t\n      PUSH 7F\t\t\t\n      DUP3 \t\t\t\n      AND \t\t\t\n      SWAP2 \t\t\t\n      POP \t\t\t\n    tag 200\t\t\t\n      JUMPDEST \t\t\t\n      PUSH 20\t\t\t\n      DUP3 \t\t\t\n      LT \t\t\t\n      DUP2 \t\t\t\n      SUB \t\t\t\n      PUSH [tag] 201\t\t\t\n      JUMPI \t\t\t\n      PUSH [tag] 202\t\t\t\n      PUSH [tag] 90\t\t\t\n      JUMP \t\t\t\n    tag 202\t\t\t\n      JUMPDEST \t\t\t\n    tag 201\t\t\t\n      JUMPDEST \t\t\t\n      POP \t\t\t\n      SWAP2 \t\t\t\n      SWAP1 \t\t\t\n      POP \t\t\t\n      JUMP \t\t\t\n    tag 91\t\t\t\n      JUMPDEST \t\t\t\n      PUSH 4F6E6C79206F776E65722063616E20646F207468697300000000000000000000\t\t\t\n      PUSH 0\t\t\t\n      DUP3 \t\t\t\n      ADD \t\t\t\n      MSTORE \t\t\t\n      POP \t\t\t\n      JUMP \t\t\t\n    tag 92\t\t\t\n      JUMPDEST \t\t\t\n      PUSH 0\t\t\t\n      PUSH [tag] 205\t\t\t\n      PUSH 16\t\t\t\n      DUP4 \t\t\t\n      PUSH [tag] 69\t\t\t\n      JUMP \t\t\t\n    tag 205\t\t\t\n      JUMPDEST \t\t\t\n      SWAP2 \t\t\t\n      POP \t\t\t\n      PUSH [tag] 206\t\t\t\n      DUP3 \t\t\t\n      PUSH [tag] 91\t\t\t\n      JUMP \t\t\t\n    tag 206\t\t\t\n      JUMPDEST \t\t\t\n      PUSH 20\t\t\t\n      DUP3 \t\t\t\n      ADD \t\t\t\n      SWAP1 \t\t\t\n      POP \t\t\t\n      SWAP2 \t\t\t\n      SWAP1 \t\t\t\n      POP \t\t\t\n      JUMP \t\t\t\n    tag 39\t\t\t\n      JUMPDEST \t\t\t\n      PUSH 0\t\t\t\n      PUSH 20\t\t\t\n      DUP3 \t\t\t\n      ADD \t\t\t\n      SWAP1 \t\t\t\n      POP \t\t\t\n      DUP2 \t\t\t\n      DUP2 \t\t\t\n      SUB \t\t\t\n      PUSH 0\t\t\t\n      DUP4 \t\t\t\n      ADD \t\t\t\n      MSTORE \t\t\t\n      PUSH [tag] 208\t\t\t\n      DUP2 \t\t\t\n      PUSH [tag] 92\t\t\t\n      JUMP \t\t\t\n    tag 208\t\t\t\n      JUMPDEST \t\t\t\n      SWAP1 \t\t\t\n      POP \t\t\t\n      SWAP2 \t\t\t\n      SWAP1 \t\t\t\n      POP \t\t\t\n      JUMP \t\t\t\n    tag 93\t\t\t\n      JUMPDEST \t\t\t\n      PUSH 0\t\t\t\n      DUP2 \t\t\t\n      SWAP1 \t\t\t\n      POP \t\t\t\n      DUP2 \t\t\t\n      PUSH 0\t\t\t\n      MSTORE \t\t\t\n      PUSH 20\t\t\t\n      PUSH 0\t\t\t\n      KECCAK256 \t\t\t\n      SWAP1 \t\t\t\n      POP \t\t\t\n      SWAP2 \t\t\t\n      SWAP1 \t\t\t\n      POP \t\t\t\n      JUMP \t\t\t\n    tag 94\t\t\t\n      JUMPDEST \t\t\t\n      PUSH 0\t\t\t\n      PUSH 20\t\t\t\n      PUSH 1F\t\t\t\n      DUP4 \t\t\t\n      ADD \t\t\t\n      DIV \t\t\t\n      SWAP1 \t\t\t\n      POP \t\t\t\n      SWAP2 \t\t\t\n      SWAP1 \t\t\t\n      POP \t\t\t\n      JUMP \t\t\t\n    tag 95\t\t\t\n      JUMPDEST \t\t\t\n      PUSH 0\t\t\t\n      DUP3 \t\t\t\n      DUP3 \t\t\t\n      SHL \t\t\t\n      SWAP1 \t\t\t\n      POP \t\t\t\n      SWAP3 \t\t\t\n      SWAP2 \t\t\t\n      POP \t\t\t\n      POP \t\t\t\n      JUMP \t\t\t\n    tag 96\t\t\t\n      JUMPDEST \t\t\t\n      PUSH 0\t\t\t\n      PUSH 8\t\t\t\n      DUP4 \t\t\t\n      MUL \t\t\t\n      PUSH [tag] 213\t\t\t\n      PUSH FFFFFFFFFFFFFFFFFFFFFFFFFFFFFFFFFFFFFFFFFFFFFFFFFFFFFFFFFFFFFFFF\t\t\t\n      DUP3 \t\t\t\n      PUSH [tag] 95\t\t\t\n      JUMP \t\t\t\n    tag 213\t\t\t\n      JUMPDEST \t\t\t\n      PUSH [tag] 214\t\t\t\n      DUP7 \t\t\t\n      DUP4 \t\t\t\n      PUSH [tag] 95\t\t\t\n      JUMP \t\t\t\n    tag 214\t\t\t\n      JUMPDEST \t\t\t\n      SWAP6 \t\t\t\n      POP \t\t\t\n      DUP1 \t\t\t\n      NOT \t\t\t\n      DUP5 \t\t\t\n      AND \t\t\t\n      SWAP4 \t\t\t\n      POP \t\t\t\n      DUP1 \t\t\t\n      DUP7 \t\t\t\n      AND \t\t\t\n      DUP5 \t\t\t\n      OR \t\t\t\n      SWAP3 \t\t\t\n      POP \t\t\t\n      POP \t\t\t\n      POP \t\t\t\n      SWAP4 \t\t\t\n      SWAP3 \t\t\t\n      POP \t\t\t\n      POP \t\t\t\n      POP \t\t\t\n      JUMP \t\t\t\n    tag 97\t\t\t\n      JUMPDEST \t\t\t\n      PUSH 0\t\t\t\n      DUP2 \t\t\t\n      SWAP1 \t\t\t\n      POP \t\t\t\n      SWAP2 \t\t\t\n      SWAP1 \t\t\t\n      POP \t\t\t\n      JUMP \t\t\t\n    tag 98\t\t\t\n      JUMPDEST \t\t\t\n      PUSH 0\t\t\t\n      DUP2 \t\t\t\n      SWAP1 \t\t\t\n      POP \t\t\t\n      SWAP2 \t\t\t\n      SWAP1 \t\t\t\n      POP \t\t\t\n      JUMP \t\t\t\n    tag 99\t\t\t\n      JUMPDEST \t\t\t\n      PUSH 0\t\t\t\n      PUSH [tag] 218\t\t\t\n      PUSH [tag] 219\t\t\t\n      PUSH [tag] 220\t\t\t\n      DUP5 \t\t\t\n      PUSH [tag] 97\t\t\t\n      JUMP \t\t\t\n    tag 220\t\t\t\n      JUMPDEST \t\t\t\n      PUSH [tag] 98\t\t\t\n      JUMP \t\t\t\n    tag 219\t\t\t\n      JUMPDEST \t\t\t\n      PUSH [tag] 97\t\t\t\n      JUMP \t\t\t\n    tag 218\t\t\t\n      JUMPDEST \t\t\t\n      SWAP1 \t\t\t\n      POP \t\t\t\n      SWAP2 \t\t\t\n      SWAP1 \t\t\t\n      POP \t\t\t\n      JUMP \t\t\t\n    tag 100\t\t\t\n      JUMPDEST \t\t\t\n      PUSH 0\t\t\t\n      DUP2 \t\t\t\n      SWAP1 \t\t\t\n      POP \t\t\t\n      SWAP2 \t\t\t\n      SWAP1 \t\t\t\n      POP \t\t\t\n      JUMP \t\t\t\n    tag 101\t\t\t\n      JUMPDEST \t\t\t\n      PUSH [tag] 223\t\t\t\n      DUP4 \t\t\t\n      PUSH [tag] 99\t\t\t\n      JUMP \t\t\t\n    tag 223\t\t\t\n      JUMPDEST \t\t\t\n      PUSH [tag] 224\t\t\t\n      PUSH [tag] 225\t\t\t\n      DUP3 \t\t\t\n      PUSH [tag] 100\t\t\t\n      JUMP \t\t\t\n    tag 225\t\t\t\n      JUMPDEST \t\t\t\n      DUP5 \t\t\t\n      DUP5 \t\t\t\n      SLOAD \t\t\t\n      PUSH [tag] 96\t\t\t\n      JUMP \t\t\t\n    tag 224\t\t\t\n      JUMPDEST \t\t\t\n      DUP3 \t\t\t\n      SSTORE \t\t\t\n      POP \t\t\t\n      POP \t\t\t\n      POP \t\t\t\n      POP \t\t\t\n      JUMP \t\t\t\n    tag 102\t\t\t\n      JUMPDEST \t\t\t\n      PUSH 0\t\t\t\n      SWAP1 \t\t\t\n      JUMP \t\t\t\n    tag 103\t\t\t\n      JUMPDEST \t\t\t\n      PUSH [tag] 228\t\t\t\n      PUSH [tag] 102\t\t\t\n      JUMP \t\t\t\n    tag 228\t\t\t\n      JUMPDEST \t\t\t\n      PUSH [tag] 229\t\t\t\n      DUP2 \t\t\t\n      DUP5 \t\t\t\n      DUP5 \t\t\t\n      PUSH [tag] 101\t\t\t\n      JUMP \t\t\t\n    tag 229\t\t\t\n      JUMPDEST \t\t\t\n      POP \t\t\t\n      POP \t\t\t\n      POP \t\t\t\n      JUMP \t\t\t\n    tag 104\t\t\t\n      JUMPDEST \t\t\t\n    tag 231\t\t\t\n      JUMPDEST \t\t\t\n      DUP2 \t\t\t\n      DUP2 \t\t\t\n      LT \t\t\t\n      ISZERO \t\t\t\n      PUSH [tag] 233\t\t\t\n      JUMPI \t\t\t\n      PUSH [tag] 234\t\t\t\n      PUSH 0\t\t\t\n      DUP3 \t\t\t\n      PUSH [tag] 103\t\t\t\n      JUMP \t\t\t\n    tag 234\t\t\t\n      JUMPDEST \t\t\t\n      PUSH 1\t\t\t\n      DUP2 \t\t\t\n      ADD \t\t\t\n      SWAP1 \t\t\t\n      POP \t\t\t\n      PUSH [tag] 231\t\t\t\n      JUMP \t\t\t\n    tag 233\t\t\t\n      JUMPDEST \t\t\t\n      POP \t\t\t\n      POP \t\t\t\n      JUMP \t\t\t\n    tag 105\t\t\t\n      JUMPDEST \t\t\t\n      PUSH 1F\t\t\t\n      DUP3 \t\t\t\n      GT \t\t\t\n      ISZERO \t\t\t\n      PUSH [tag] 236\t\t\t\n      JUMPI \t\t\t\n      PUSH [tag] 237\t\t\t\n      DUP2 \t\t\t\n      PUSH [tag] 93\t\t\t\n      JUMP \t\t\t\n    tag 237\t\t\t\n      JUMPDEST \t\t\t\n      PUSH [tag] 238\t\t\t\n      DUP5 \t\t\t\n      PUSH [tag] 94\t\t\t\n      JUMP \t\t\t\n    tag 238\t\t\t\n      JUMPDEST \t\t\t\n      DUP2 \t\t\t\n      ADD \t\t\t\n      PUSH 20\t\t\t\n      DUP6 \t\t\t\n      LT \t\t\t\n      ISZERO \t\t\t\n      PUSH [tag] 239\t\t\t\n      JUMPI \t\t\t\n      DUP2 \t\t\t\n      SWAP1 \t\t\t\n      POP \t\t\t\n    tag 239\t\t\t\n      JUMPDEST \t\t\t\n      PUSH [tag] 240\t\t\t\n      PUSH [tag] 241\t\t\t\n      DUP6 \t\t\t\n      PUSH [tag] 94\t\t\t\n      JUMP \t\t\t\n    tag 241\t\t\t\n      JUMPDEST \t\t\t\n      DUP4 \t\t\t\n      ADD \t\t\t\n      DUP3 \t\t\t\n      PUSH [tag] 104\t\t\t\n      JUMP \t\t\t\n    tag 240\t\t\t\n      JUMPDEST \t\t\t\n      POP \t\t\t\n      POP \t\t\t\n    tag 236\t\t\t\n      JUMPDEST \t\t\t\n      POP \t\t\t\n      POP \t\t\t\n      POP \t\t\t\n      JUMP \t\t\t\n    tag 106\t\t\t\n      JUMPDEST \t\t\t\n      PUSH 0\t\t\t\n      DUP3 \t\t\t\n      DUP3 \t\t\t\n      SHR \t\t\t\n      SWAP1 \t\t\t\n      POP \t\t\t\n      SWAP3 \t\t\t\n      SWAP2 \t\t\t\n      POP \t\t\t\n      POP \t\t\t\n      JUMP \t\t\t\n    tag 107\t\t\t\n      JUMPDEST \t\t\t\n      PUSH 0\t\t\t\n      PUSH [tag] 244\t\t\t\n      PUSH 0\t\t\t\n      NOT \t\t\t\n      DUP5 \t\t\t\n      PUSH 8\t\t\t\n      MUL \t\t\t\n      PUSH [tag] 106\t\t\t\n      JUMP \t\t\t\n    tag 244\t\t\t\n      JUMPDEST \t\t\t\n      NOT \t\t\t\n      DUP1 \t\t\t\n      DUP4 \t\t\t\n      AND \t\t\t\n      SWAP2 \t\t\t\n      POP \t\t\t\n      POP \t\t\t\n      SWAP3 \t\t\t\n      SWAP2 \t\t\t\n      POP \t\t\t\n      POP \t\t\t\n      JUMP \t\t\t\n    tag 108\t\t\t\n      JUMPDEST \t\t\t\n      PUSH 0\t\t\t\n      PUSH [tag] 246\t\t\t\n      DUP4 \t\t\t\n      DUP4 \t\t\t\n      PUSH [tag] 107\t\t\t\n      JUMP \t\t\t\n    tag 246\t\t\t\n      JUMPDEST \t\t\t\n      SWAP2 \t\t\t\n      POP \t\t\t\n      DUP3 \t\t\t\n      PUSH 2\t\t\t\n      MUL \t\t\t\n      DUP3 \t\t\t\n      OR \t\t\t\n      SWAP1 \t\t\t\n      POP \t\t\t\n      SWAP3 \t\t\t\n      SWAP2 \t\t\t\n      POP \t\t\t\n      POP \t\t\t\n      JUMP \t\t\t\n    tag 45\t\t\t\n      JUMPDEST \t\t\t\n      PUSH [tag] 248\t\t\t\n      DUP3 \t\t\t\n      PUSH [tag] 68\t\t\t\n      JUMP \t\t\t\n    tag 248\t\t\t\n      JUMPDEST \t\t\t\n      PUSH FFFFFFFFFFFFFFFF\t\t\t\n      DUP2 \t\t\t\n      GT \t\t\t\n      ISZERO \t\t\t\n      PUSH [tag] 249\t\t\t\n      JUMPI \t\t\t\n      PUSH [tag] 250\t\t\t\n      PUSH [tag] 83\t\t\t\n      JUMP \t\t\t\n    tag 250\t\t\t\n      JUMPDEST \t\t\t\n    tag 249\t\t\t\n      JUMPDEST \t\t\t\n      PUSH [tag] 251\t\t\t\n      DUP3 \t\t\t\n      SLOAD \t\t\t\n      PUSH [tag] 22\t\t\t\n      JUMP \t\t\t\n    tag 251\t\t\t\n      JUMPDEST \t\t\t\n      PUSH [tag] 252\t\t\t\n      DUP3 \t\t\t\n      DUP3 \t\t\t\n      DUP6 \t\t\t\n      PUSH [tag] 105\t\t\t\n      JUMP \t\t\t\n    tag 252\t\t\t\n      JUMPDEST \t\t\t\n      PUSH 0\t\t\t\n      PUSH 20\t\t\t\n      SWAP1 \t\t\t\n      POP \t\t\t\n      PUSH 1F\t\t\t\n      DUP4 \t\t\t\n      GT \t\t\t\n      PUSH 1\t\t\t\n      DUP2 \t\t\t\n      EQ \t\t\t\n      PUSH [tag] 254\t\t\t\n      JUMPI \t\t\t\n      PUSH 0\t\t\t\n      DUP5 \t\t\t\n      ISZERO \t\t\t\n      PUSH [tag] 255\t\t\t\n      JUMPI \t\t\t\n      DUP3 \t\t\t\n      DUP8 \t\t\t\n      ADD \t\t\t\n      MLOAD \t\t\t\n      SWAP1 \t\t\t\n      POP \t\t\t\n    tag 255\t\t\t\n      JUMPDEST \t\t\t\n      PUSH [tag] 256\t\t\t\n      DUP6 \t\t\t\n      DUP3 \t\t\t\n      PUSH [tag] 108\t\t\t\n      JUMP \t\t\t\n    tag 256\t\t\t\n      JUMPDEST \t\t\t\n      DUP7 \t\t\t\n      SSTORE \t\t\t\n      POP \t\t\t\n      PUSH [tag] 253\t\t\t\n      JUMP \t\t\t\n    tag 254\t\t\t\n      JUMPDEST \t\t\t\n      PUSH 1F\t\t\t\n      NOT \t\t\t\n      DUP5 \t\t\t\n      AND \t\t\t\n      PUSH [tag] 257\t\t\t\n      DUP7 \t\t\t\n      PUSH [tag] 93\t\t\t\n      JUMP \t\t\t\n    tag 257\t\t\t\n      JUMPDEST \t\t\t\n      PUSH 0\t\t\t\n    tag 258\t\t\t\n      JUMPDEST \t\t\t\n      DUP3 \t\t\t\n      DUP2 \t\t\t\n      LT \t\t\t\n      ISZERO \t\t\t\n      PUSH [tag] 260\t\t\t\n      JUMPI \t\t\t\n      DUP5 \t\t\t\n      DUP10 \t\t\t\n      ADD \t\t\t\n      MLOAD \t\t\t\n      DUP3 \t\t\t\n      SSTORE \t\t\t\n      PUSH 1\t\t\t\n      DUP3 \t\t\t\n      ADD \t\t\t\n      SWAP2 \t\t\t\n      POP \t\t\t\n      PUSH 20\t\t\t\n      DUP6 \t\t\t\n      ADD \t\t\t\n      SWAP5 \t\t\t\n      POP \t\t\t\n      PUSH 20\t\t\t\n      DUP2 \t\t\t\n      ADD \t\t\t\n      SWAP1 \t\t\t\n      POP \t\t\t\n      PUSH [tag] 258\t\t\t\n      JUMP \t\t\t\n    tag 260\t\t\t\n      JUMPDEST \t\t\t\n      DUP7 \t\t\t\n      DUP4 \t\t\t\n      LT \t\t\t\n      ISZERO \t\t\t\n      PUSH [tag] 261\t\t\t\n      JUMPI \t\t\t\n      DUP5 \t\t\t\n      DUP10 \t\t\t\n      ADD \t\t\t\n      MLOAD \t\t\t\n      PUSH [tag] 262\t\t\t\n      PUSH 1F\t\t\t\n      DUP10 \t\t\t\n      AND \t\t\t\n      DUP3 \t\t\t\n      PUSH [tag] 107\t\t\t\n      JUMP \t\t\t\n    tag 262\t\t\t\n      JUMPDEST \t\t\t\n      DUP4 \t\t\t\n      SSTORE \t\t\t\n      POP \t\t\t\n    tag 261\t\t\t\n      JUMPDEST \t\t\t\n      PUSH 1\t\t\t\n      PUSH 2\t\t\t\n      DUP9 \t\t\t\n      MUL \t\t\t\n      ADD \t\t\t\n      DUP9 \t\t\t\n      SSTORE \t\t\t\n      POP \t\t\t\n      POP \t\t\t\n      POP \t\t\t\n    tag 253\t\t\t\n      JUMPDEST \t\t\t\n      POP \t\t\t\n      POP \t\t\t\n      POP \t\t\t\n      POP \t\t\t\n      POP \t\t\t\n      POP \t\t\t\n      JUMP \t\t\t\n    tag 109\t\t\t\n      JUMPDEST \t\t\t\n      PUSH 0\t\t\t\n      DUP2 \t\t\t\n      SWAP1 \t\t\t\n      POP \t\t\t\n      SWAP3 \t\t\t\n      SWAP2 \t\t\t\n      POP \t\t\t\n      POP \t\t\t\n      JUMP \t\t\t\n    tag 110\t\t\t\n      JUMPDEST \t\t\t\n      PUSH 0\t\t\t\n      PUSH [tag] 265\t\t\t\n      DUP3 \t\t\t\n      PUSH [tag] 68\t\t\t\n      JUMP \t\t\t\n    tag 265\t\t\t\n      JUMPDEST \t\t\t\n      PUSH [tag] 266\t\t\t\n      DUP2 \t\t\t\n      DUP6 \t\t\t\n      PUSH [tag] 109\t\t\t\n      JUMP \t\t\t\n    tag 266\t\t\t\n      JUMPDEST \t\t\t\n      SWAP4 \t\t\t\n      POP \t\t\t\n      PUSH [tag] 267\t\t\t\n      DUP2 \t\t\t\n      DUP6 \t\t\t\n      PUSH 20\t\t\t\n      DUP7 \t\t\t\n      ADD \t\t\t\n      PUSH [tag] 70\t\t\t\n      JUMP \t\t\t\n    tag 267\t\t\t\n      JUMPDEST \t\t\t\n      DUP1 \t\t\t\n      DUP5 \t\t\t\n      ADD \t\t\t\n      SWAP2 \t\t\t\n      POP \t\t\t\n      POP \t\t\t\n      SWAP3 \t\t\t\n      SWAP2 \t\t\t\n      POP \t\t\t\n      POP \t\t\t\n      JUMP \t\t\t\n    tag 51\t\t\t\n      JUMPDEST \t\t\t\n      PUSH 0\t\t\t\n      PUSH [tag] 269\t\t\t\n      DUP3 \t\t\t\n      DUP5 \t\t\t\n      PUSH [tag] 110\t\t\t\n      JUMP \t\t\t\n    tag 269\t\t\t\n      JUMPDEST \t\t\t\n      SWAP2 \t\t\t\n      POP \t\t\t\n      DUP2 \t\t\t\n      SWAP1 \t\t\t\n      POP \t\t\t\n      SWAP3 \t\t\t\n      SWAP2 \t\t\t\n      POP \t\t\t\n      POP \t\t\t\n      JUMP \t\t\t\n    tag 54\t\t\t\n      JUMPDEST \t\t\t\n      PUSH 4E487B7100000000000000000000000000000000000000000000000000000000\t\t\t\n      PUSH 0\t\t\t\n      MSTORE \t\t\t\n      PUSH 32\t\t\t\n      PUSH 4\t\t\t\n      MSTORE \t\t\t\n      PUSH 24\t\t\t\n      PUSH 0\t\t\t\n      REVERT \t\t\t\n    tag 111\t\t\t\n      JUMPDEST \t\t\t\n      PUSH 0\t\t\t\n      DUP2 \t\t\t\n      SLOAD \t\t\t\n      PUSH [tag] 272\t\t\t\n      DUP2 \t\t\t\n      PUSH [tag] 22\t\t\t\n      JUMP \t\t\t\n    tag 272\t\t\t\n      JUMPDEST \t\t\t\n      PUSH [tag] 273\t\t\t\n      DUP2 \t\t\t\n      DUP7 \t\t\t\n      PUSH [tag] 109\t\t\t\n      JUMP \t\t\t\n    tag 273\t\t\t\n      JUMPDEST \t\t\t\n      SWAP5 \t\t\t\n      POP \t\t\t\n      PUSH 1\t\t\t\n      DUP3 \t\t\t\n      AND \t\t\t\n      PUSH 0\t\t\t\n      DUP2 \t\t\t\n      EQ \t\t\t\n      PUSH [tag] 275\t\t\t\n      JUMPI \t\t\t\n      PUSH 1\t\t\t\n      DUP2 \t\t\t\n      EQ \t\t\t\n      PUSH [tag] 276\t\t\t\n      JUMPI \t\t\t\n      PUSH [tag] 274\t\t\t\n      JUMP \t\t\t\n    tag 275\t\t\t\n      JUMPDEST \t\t\t\n      PUSH FF\t\t\t\n      NOT \t\t\t\n      DUP4 \t\t\t\n      AND \t\t\t\n      DUP7 \t\t\t\n      MSTORE \t\t\t\n      DUP2 \t\t\t\n      ISZERO \t\t\t\n      ISZERO \t\t\t\n      DUP3 \t\t\t\n      MUL \t\t\t\n      DUP7 \t\t\t\n      ADD \t\t\t\n      SWAP4 \t\t\t\n      POP \t\t\t\n      PUSH [tag] 274\t\t\t\n      JUMP \t\t\t\n    tag 276\t\t\t\n      JUMPDEST \t\t\t\n      PUSH [tag] 277\t\t\t\n      DUP6 \t\t\t\n      PUSH [tag] 93\t\t\t\n      JUMP \t\t\t\n    tag 277\t\t\t\n      JUMPDEST \t\t\t\n      PUSH 0\t\t\t\n    tag 278\t\t\t\n      JUMPDEST \t\t\t\n      DUP4 \t\t\t\n      DUP2 \t\t\t\n      LT \t\t\t\n      ISZERO \t\t\t\n      PUSH [tag] 280\t\t\t\n      JUMPI \t\t\t\n      DUP2 \t\t\t\n      SLOAD \t\t\t\n      DUP2 \t\t\t\n      DUP10 \t\t\t\n      ADD \t\t\t\n      MSTORE \t\t\t\n      PUSH 1\t\t\t\n      DUP3 \t\t\t\n      ADD \t\t\t\n      SWAP2 \t\t\t\n      POP \t\t\t\n      PUSH 20\t\t\t\n      DUP2 \t\t\t\n      ADD \t\t\t\n      SWAP1 \t\t\t\n      POP \t\t\t\n      PUSH [tag] 278\t\t\t\n      JUMP \t\t\t\n    tag 280\t\t\t\n      JUMPDEST \t\t\t\n      DUP4 \t\t\t\n      DUP9 \t\t\t\n      ADD \t\t\t\n      SWAP6 \t\t\t\n      POP \t\t\t\n      POP \t\t\t\n      POP \t\t\t\n    tag 274\t\t\t\n      JUMPDEST \t\t\t\n      POP \t\t\t\n      POP \t\t\t\n      POP \t\t\t\n      SWAP3 \t\t\t\n      SWAP2 \t\t\t\n      POP \t\t\t\n      POP \t\t\t\n      JUMP \t\t\t\n    tag 57\t\t\t\n      JUMPDEST \t\t\t\n      PUSH 0\t\t\t\n      PUSH [tag] 282\t\t\t\n      DUP3 \t\t\t\n      DUP5 \t\t\t\n      PUSH [tag] 111\t\t\t\n      JUMP \t\t\t\n    tag 282\t\t\t\n      JUMPDEST \t\t\t\n      SWAP2 \t\t\t\n      POP \t\t\t\n      DUP2 \t\t\t\n      SWAP1 \t\t\t\n      POP \t\t\t\n      SWAP3 \t\t\t\n      SWAP2 \t\t\t\n      POP \t\t\t\n      POP \t\t\t\n      JUMP \t\t\t\n    tag 112\t\t\t\n      JUMPDEST \t\t\t\n      PUSH 4E487B7100000000000000000000000000000000000000000000000000000000\t\t\t\n      PUSH 0\t\t\t\n      MSTORE \t\t\t\n      PUSH 11\t\t\t\n      PUSH 4\t\t\t\n      MSTORE \t\t\t\n      PUSH 24\t\t\t\n      PUSH 0\t\t\t\n      REVERT \t\t\t\n    tag 60\t\t\t\n      JUMPDEST \t\t\t\n      PUSH 0\t\t\t\n      PUSH [tag] 285\t\t\t\n      DUP3 \t\t\t\n      PUSH [tag] 97\t\t\t\n      JUMP \t\t\t\n    tag 285\t\t\t\n      JUMPDEST \t\t\t\n      SWAP2 \t\t\t\n      POP \t\t\t\n      PUSH FFFFFFFFFFFFFFFFFFFFFFFFFFFFFFFFFFFFFFFFFFFFFFFFFFFFFFFFFFFFFFFF\t\t\t\n      DUP3 \t\t\t\n      SUB \t\t\t\n      PUSH [tag] 286\t\t\t\n      JUMPI \t\t\t\n      PUSH [tag] 287\t\t\t\n      PUSH [tag] 112\t\t\t\n      JUMP \t\t\t\n    tag 287\t\t\t\n      JUMPDEST \t\t\t\n    tag 286\t\t\t\n      JUMPDEST \t\t\t\n      PUSH 1\t\t\t\n      DUP3 \t\t\t\n      ADD \t\t\t\n      SWAP1 \t\t\t\n      POP \t\t\t\n      SWAP2 \t\t\t\n      SWAP1 \t\t\t\n      POP \t\t\t\n      JUMP \t\t\t\n    .data\n"
}