{
	"compilerInput": "{\"language\":\"Solidity\",\"sources\":{\"contracts/ib_project.sol\":{\"content\":\"// SPDX-License-Identifier: MIT\\r\\n \\r\\npragma solidity 0.8.19;\\r\\n\\r\\ninterface IAuthContract {\\r\\n    function getRoles() external view returns (string[] memory);\\r\\n    function getUserRole(address adr) external view returns (string memory);\\r\\n    function setUserRole(address adr, string memory role) external;\\r\\n}\\r\\n\\r\\ncontract AuthContract is IAuthContract{\\r\\n\\r\\n    mapping (address => string) users;\\r\\n    address owner;\\r\\n    string[] roles;\\r\\n\\r\\n    constructor(string[] memory _roles){\\r\\n        owner = msg.sender;\\r\\n        users[owner] = \\\"admin\\\";\\r\\n        roles = _roles;\\r\\n    }\\r\\n\\r\\n    modifier OnlyOwner{\\r\\n        require(msg.sender == owner, \\\"Only owner can do this\\\");\\r\\n        _;\\r\\n    }\\r\\n\\r\\n    function isRoleExist(string memory role) private view returns (bool){\\r\\n        for (uint i = 0; i < roles.length; i++){\\r\\n           if (keccak256(abi.encodePacked(roles[i])) == keccak256(abi.encodePacked(role))){\\r\\n                return true;\\r\\n           }\\r\\n        }\\r\\n        return false;\\r\\n    }\\r\\n\\r\\n    function getRoles() public view returns (string[] memory){\\r\\n        return roles;\\r\\n    }\\r\\n\\r\\n    function getUserRole(address adr) public view returns (string memory){\\r\\n        return users[adr];\\r\\n    }\\r\\n\\r\\n    function setUserRole(address adr, string memory role) OnlyOwner public {\\r\\n        if (isRoleExist(role)){\\r\\n            users[adr] = role;\\r\\n        }\\r\\n    }\\r\\n}\\r\\n\\r\\n\\r\\ncontract StorageContract{\\r\\n\\r\\n    struct File{\\r\\n        string title;\\r\\n        string[] access_roles;\\r\\n    }\\r\\n\\r\\n    struct Directory{\\r\\n        string title;\\r\\n        File[] files;\\r\\n    }\\r\\n\\r\\n    mapping (string => Directory) Directories;\\r\\n    mapping (string => string) FileHash;\\r\\n    address owner;\\r\\n    string[] directory_names;\\r\\n    IAuthContract authContract;\\r\\n\\r\\n\\r\\n    modifier OnlyRegisteredUsers{\\r\\n        require(keccak256(abi.encodePacked(authContract.getUserRole(msg.sender))) != keccak256(abi.encodePacked(\\\"\\\")) , \\\"User must have 1 or more roles\\\");\\r\\n        _;\\r\\n    }\\r\\n\\r\\n    constructor(address authContractAddress){\\r\\n        authContract = IAuthContract(authContractAddress);\\r\\n    }\\r\\n\\r\\n    function checkUserRole(string memory role, string[] memory roles) private pure returns (bool) {\\r\\n        for (uint i = 0; i < roles.length; i++){\\r\\n           if (keccak256(abi.encodePacked(roles[i])) == keccak256(abi.encodePacked(role))){\\r\\n                return true;\\r\\n           }\\r\\n        }\\r\\n        return false;\\r\\n    }\\r\\n\\r\\n    function isDirectoryExist(string memory directory) OnlyRegisteredUsers private view returns (bool){\\r\\n        for (uint i = 0; i < directory_names.length; i++){\\r\\n           if (keccak256(abi.encodePacked(directory_names[i])) == keccak256(abi.encodePacked(directory))){\\r\\n                return true;\\r\\n           }\\r\\n        }\\r\\n        return false;\\r\\n    }\\r\\n\\r\\n    function isFileExist(string memory title, string memory directory) private view returns (bool){\\r\\n        for (uint i = 0; i < Directories[directory].files.length; i++){\\r\\n            if (keccak256(abi.encodePacked(Directories[directory].files[i].title)) == keccak256(abi.encodePacked(title))){\\r\\n                return true;\\r\\n            }\\r\\n        }\\r\\n        return false;\\r\\n    }\\r\\n\\r\\n    function createDirectory(string memory title) OnlyRegisteredUsers public{\\r\\n        require(!isDirectoryExist(title), \\\"Directory already exist\\\");\\r\\n        directory_names.push(title);\\r\\n        Directories[title].title = title;\\r\\n    }\\r\\n\\r\\n    function deleteDirectory(string memory title) OnlyRegisteredUsers public{\\r\\n        for (uint i = 0; i < directory_names.length; i++){\\r\\n            if (keccak256(abi.encodePacked(directory_names[i])) == keccak256(abi.encodePacked(title))){\\r\\n                directory_names[i] = directory_names[directory_names.length - 1];\\r\\n                directory_names.pop();\\r\\n            }\\r\\n        }\\r\\n    }\\r\\n\\r\\n    function getDirectory(string memory title) OnlyRegisteredUsers public view returns (Directory memory){\\r\\n        return Directories[title];\\r\\n    }\\r\\n\\r\\n    function getDirectories() OnlyRegisteredUsers public view returns (string[] memory){\\r\\n        return directory_names;\\r\\n    }\\r\\n\\r\\n    function createFile(string memory title, string memory hash, string memory directory, string[] memory roles) OnlyRegisteredUsers public {\\r\\n        require(isDirectoryExist(directory), \\\"Directory doesnt exist\\\");\\r\\n        require(!isFileExist(title, directory), \\\"File already exist\\\");\\r\\n        File memory file = File(title, roles);\\r\\n        FileHash[title] = hash;\\r\\n        Directories[directory].files.push(file);\\r\\n    }\\r\\n\\r\\n    function deleteFile(string memory title, string memory directory) OnlyRegisteredUsers public {\\r\\n        for (uint i = 0; i < Directories[directory].files.length; i++){\\r\\n            if (keccak256(abi.encodePacked(Directories[directory].files[i].title)) == keccak256(abi.encodePacked(title))){\\r\\n                require(checkUserRole(authContract.getUserRole(msg.sender), Directories[directory].files[i].access_roles), \\\"Not enough permissions\\\");\\r\\n                Directories[directory].files[i] = Directories[directory].files[Directories[directory].files.length - 1];\\r\\n                Directories[directory].files.pop();\\r\\n            }\\r\\n        }\\r\\n    }\\r\\n\\r\\n    function getFileHash(string memory title, string memory directory) OnlyRegisteredUsers public view returns (string memory){\\r\\n        for (uint i = 0; i < Directories[directory].files.length; i++){\\r\\n            if (keccak256(abi.encodePacked(Directories[directory].files[i].title)) == keccak256(abi.encodePacked(title))){\\r\\n                require(checkUserRole(authContract.getUserRole(msg.sender), Directories[directory].files[i].access_roles), \\\"Not enough permissions\\\");\\r\\n                return FileHash[Directories[directory].files[i].title];\\r\\n            }\\r\\n        }\\r\\n        return \\\"\\\";\\r\\n    }\\r\\n}\"}},\"settings\":{\"optimizer\":{\"enabled\":false,\"runs\":200},\"outputSelection\":{\"*\":{\"\":[\"ast\"],\"*\":[\"abi\",\"metadata\",\"devdoc\",\"userdoc\",\"storageLayout\",\"evm.legacyAssembly\",\"evm.bytecode\",\"evm.deployedBytecode\",\"evm.methodIdentifiers\",\"evm.gasEstimates\",\"evm.assembly\"]}},\"remappings\":[]}}",
	"name": "StorageContract",
	"bytecode": {
		"linkReferences": {},
		"object": "60806040523480156200001157600080fd5b506040516200307f3803806200307f8339818101604052810190620000379190620000e9565b80600460006101000a81548173ffffffffffffffffffffffffffffffffffffffff021916908373ffffffffffffffffffffffffffffffffffffffff160217905550506200011b565b600080fd5b600073ffffffffffffffffffffffffffffffffffffffff82169050919050565b6000620000b18262000084565b9050919050565b620000c381620000a4565b8114620000cf57600080fd5b50565b600081519050620000e381620000b8565b92915050565b6000602082840312156200010257620001016200007f565b5b60006200011284828501620000d2565b91505092915050565b612f54806200012b6000396000f3fe608060405234801561001057600080fd5b506004361061007d5760003560e01c8063abe71cc31161005b578063abe71cc3146100d6578063c12e865614610106578063c6a909c114610136578063d34a8708146101545761007d565b806307c6e7d314610082578063137876431461009e5780631c6ec7a9146100ba575b600080fd5b61009c60048036038101906100979190611e84565b610170565b005b6100b860048036038101906100b39190611fb3565b6103be565b005b6100d460048036038101906100cf9190611e84565b610648565b005b6100f060048036038101906100eb919061208a565b610824565b6040516100fd9190612181565b60405180910390f35b610120600480360381019061011b9190611e84565b610d32565b60405161012d91906123f9565b60405180910390f35b61013e6110f2565b60405161014b91906124a1565b60405180910390f35b61016e6004803603810190610169919061208a565b6112f7565b005b60405160200161017f906124f4565b60405160208183030381529060405280519060200120600460009054906101000a900473ffffffffffffffffffffffffffffffffffffffff1673ffffffffffffffffffffffffffffffffffffffff166327820851336040518263ffffffff1660e01b81526004016101f0919061254a565b600060405180830381865afa15801561020d573d6000803e3d6000fd5b505050506040513d6000823e3d601f19601f8201168201806040525081019061023691906125d5565b604051602001610246919061264f565b604051602081830303815290604052805190602001200361029c576040517f08c379a0000000000000000000000000000000000000000000000000000000008152600401610293906126b2565b60405180910390fd5b60005b6003805490508110156103ba57816040516020016102bd919061264f565b60405160208183030381529060405280519060200120600382815481106102e7576102e66126d2565b5b9060005260206000200160405160200161030191906127f9565b60405160208183030381529060405280519060200120036103a757600360016003805490506103309190612849565b81548110610341576103406126d2565b5b906000526020600020016003828154811061035f5761035e6126d2565b5b9060005260206000200190816103759190612a3f565b50600380548061038857610387612b27565b5b6001900381819060005260206000200160006103a49190611bb8565b90555b80806103b290612b56565b91505061029f565b5050565b6040516020016103cd906124f4565b60405160208183030381529060405280519060200120600460009054906101000a900473ffffffffffffffffffffffffffffffffffffffff1673ffffffffffffffffffffffffffffffffffffffff166327820851336040518263ffffffff1660e01b815260040161043e919061254a565b600060405180830381865afa15801561045b573d6000803e3d6000fd5b505050506040513d6000823e3d601f19601f8201168201806040525081019061048491906125d5565b604051602001610494919061264f565b60405160208183030381529060405280519060200120036104ea576040517f08c379a00000000000000000000000000000000000000000000000000000000081526004016104e1906126b2565b60405180910390fd5b6104f382611848565b610532576040517f08c379a000000000000000000000000000000000000000000000000000000000815260040161052990612bea565b60405180910390fd5b61053c8483611a1e565b1561057c576040517f08c379a000000000000000000000000000000000000000000000000000000000815260040161057390612c56565b60405180910390fd5b60006040518060400160405280868152602001838152509050836001866040516105a6919061264f565b908152602001604051809103902090816105c09190612c76565b506000836040516105d1919061264f565b908152602001604051809103902060010181908060018154018082558091505060019003906000526020600020906002020160009091909190915060008201518160000190816106219190612c76565b50602082015181600101908051906020019061063e929190611bf8565b5050505050505050565b604051602001610657906124f4565b60405160208183030381529060405280519060200120600460009054906101000a900473ffffffffffffffffffffffffffffffffffffffff1673ffffffffffffffffffffffffffffffffffffffff166327820851336040518263ffffffff1660e01b81526004016106c8919061254a565b600060405180830381865afa1580156106e5573d6000803e3d6000fd5b505050506040513d6000823e3d601f19601f8201168201806040525081019061070e91906125d5565b60405160200161071e919061264f565b6040516020818303038152906040528051906020012003610774576040517f08c379a000000000000000000000000000000000000000000000000000000000815260040161076b906126b2565b60405180910390fd5b61077d81611848565b156107bd576040517f08c379a00000000000000000000000000000000000000000000000000000000081526004016107b490612d94565b60405180910390fd5b6003819080600181540180825580915050600190039060005260206000200160009091909190915090816107f19190612c76565b5080600082604051610803919061264f565b908152602001604051809103902060000190816108209190612c76565b5050565b6060604051602001610835906124f4565b60405160208183030381529060405280519060200120600460009054906101000a900473ffffffffffffffffffffffffffffffffffffffff1673ffffffffffffffffffffffffffffffffffffffff166327820851336040518263ffffffff1660e01b81526004016108a6919061254a565b600060405180830381865afa1580156108c3573d6000803e3d6000fd5b505050506040513d6000823e3d601f19601f820116820180604052508101906108ec91906125d5565b6040516020016108fc919061264f565b6040516020818303038152906040528051906020012003610952576040517f08c379a0000000000000000000000000000000000000000000000000000000008152600401610949906126b2565b60405180910390fd5b60005b600083604051610965919061264f565b908152602001604051809103902060010180549050811015610d185783604051602001610992919061264f565b604051602081830303815290604052805190602001206000846040516109b8919061264f565b908152602001604051809103902060010182815481106109db576109da6126d2565b5b90600052602060002090600202016000016040516020016109fc91906127f9565b6040516020818303038152906040528051906020012003610d0557610bd4600460009054906101000a900473ffffffffffffffffffffffffffffffffffffffff1673ffffffffffffffffffffffffffffffffffffffff166327820851336040518263ffffffff1660e01b8152600401610a75919061254a565b600060405180830381865afa158015610a92573d6000803e3d6000fd5b505050506040513d6000823e3d601f19601f82011682018060405250810190610abb91906125d5565b600085604051610acb919061264f565b90815260200160405180910390206001018381548110610aee57610aed6126d2565b5b9060005260206000209060020201600101805480602002602001604051908101604052809291908181526020016000905b82821015610bcb578382906000526020600020018054610b3e90612730565b80601f0160208091040260200160405190810160405280929190818152602001828054610b6a90612730565b8015610bb75780601f10610b8c57610100808354040283529160200191610bb7565b820191906000526020600020905b815481529060010190602001808311610b9a57829003601f168201915b505050505081526020019060010190610b1f565b50505050611b11565b610c13576040517f08c379a0000000000000000000000000000000000000000000000000000000008152600401610c0a90612e00565b60405180910390fd5b6001600084604051610c25919061264f565b90815260200160405180910390206001018281548110610c4857610c476126d2565b5b9060005260206000209060020201600001604051610c6691906127f9565b90815260200160405180910390208054610c7f90612730565b80601f0160208091040260200160405190810160405280929190818152602001828054610cab90612730565b8015610cf85780601f10610ccd57610100808354040283529160200191610cf8565b820191906000526020600020905b815481529060010190602001808311610cdb57829003601f168201915b5050505050915050610d2c565b8080610d1090612b56565b915050610955565b506040518060200160405280600081525090505b92915050565b610d3a611c51565b604051602001610d49906124f4565b60405160208183030381529060405280519060200120600460009054906101000a900473ffffffffffffffffffffffffffffffffffffffff1673ffffffffffffffffffffffffffffffffffffffff166327820851336040518263ffffffff1660e01b8152600401610dba919061254a565b600060405180830381865afa158015610dd7573d6000803e3d6000fd5b505050506040513d6000823e3d601f19601f82011682018060405250810190610e0091906125d5565b604051602001610e10919061264f565b6040516020818303038152906040528051906020012003610e66576040517f08c379a0000000000000000000000000000000000000000000000000000000008152600401610e5d906126b2565b60405180910390fd5b600082604051610e76919061264f565b9081526020016040518091039020604051806040016040529081600082018054610e9f90612730565b80601f0160208091040260200160405190810160405280929190818152602001828054610ecb90612730565b8015610f185780601f10610eed57610100808354040283529160200191610f18565b820191906000526020600020905b815481529060010190602001808311610efb57829003601f168201915b5050505050815260200160018201805480602002602001604051908101604052809291908181526020016000905b828210156110e35783829060005260206000209060020201604051806040016040529081600082018054610f7990612730565b80601f0160208091040260200160405190810160405280929190818152602001828054610fa590612730565b8015610ff25780601f10610fc757610100808354040283529160200191610ff2565b820191906000526020600020905b815481529060010190602001808311610fd557829003601f168201915b5050505050815260200160018201805480602002602001604051908101604052809291908181526020016000905b828210156110cc57838290600052602060002001805461103f90612730565b80601f016020809104026020016040519081016040528092919081815260200182805461106b90612730565b80156110b85780601f1061108d576101008083540402835291602001916110b8565b820191906000526020600020905b81548152906001019060200180831161109b57829003601f168201915b505050505081526020019060010190611020565b505050508152505081526020019060010190610f46565b50505050815250509050919050565b6060604051602001611103906124f4565b60405160208183030381529060405280519060200120600460009054906101000a900473ffffffffffffffffffffffffffffffffffffffff1673ffffffffffffffffffffffffffffffffffffffff166327820851336040518263ffffffff1660e01b8152600401611174919061254a565b600060405180830381865afa158015611191573d6000803e3d6000fd5b505050506040513d6000823e3d601f19601f820116820180604052508101906111ba91906125d5565b6040516020016111ca919061264f565b6040516020818303038152906040528051906020012003611220576040517f08c379a0000000000000000000000000000000000000000000000000000000008152600401611217906126b2565b60405180910390fd5b6003805480602002602001604051908101604052809291908181526020016000905b828210156112ee57838290600052602060002001805461126190612730565b80601f016020809104026020016040519081016040528092919081815260200182805461128d90612730565b80156112da5780601f106112af576101008083540402835291602001916112da565b820191906000526020600020905b8154815290600101906020018083116112bd57829003601f168201915b505050505081526020019060010190611242565b50505050905090565b604051602001611306906124f4565b60405160208183030381529060405280519060200120600460009054906101000a900473ffffffffffffffffffffffffffffffffffffffff1673ffffffffffffffffffffffffffffffffffffffff166327820851336040518263ffffffff1660e01b8152600401611377919061254a565b600060405180830381865afa158015611394573d6000803e3d6000fd5b505050506040513d6000823e3d601f19601f820116820180604052508101906113bd91906125d5565b6040516020016113cd919061264f565b6040516020818303038152906040528051906020012003611423576040517f08c379a000000000000000000000000000000000000000000000000000000000815260040161141a906126b2565b60405180910390fd5b60005b600082604051611436919061264f565b9081526020016040518091039020600101805490508110156118435782604051602001611463919061264f565b60405160208183030381529060405280519060200120600083604051611489919061264f565b908152602001604051809103902060010182815481106114ac576114ab6126d2565b5b90600052602060002090600202016000016040516020016114cd91906127f9565b6040516020818303038152906040528051906020012003611830576116a5600460009054906101000a900473ffffffffffffffffffffffffffffffffffffffff1673ffffffffffffffffffffffffffffffffffffffff166327820851336040518263ffffffff1660e01b8152600401611546919061254a565b600060405180830381865afa158015611563573d6000803e3d6000fd5b505050506040513d6000823e3d601f19601f8201168201806040525081019061158c91906125d5565b60008460405161159c919061264f565b908152602001604051809103902060010183815481106115bf576115be6126d2565b5b9060005260206000209060020201600101805480602002602001604051908101604052809291908181526020016000905b8282101561169c57838290600052602060002001805461160f90612730565b80601f016020809104026020016040519081016040528092919081815260200182805461163b90612730565b80156116885780601f1061165d57610100808354040283529160200191611688565b820191906000526020600020905b81548152906001019060200180831161166b57829003601f168201915b5050505050815260200190600101906115f0565b50505050611b11565b6116e4576040517f08c379a00000000000000000000000000000000000000000000000000000000081526004016116db90612e00565b60405180910390fd5b6000826040516116f4919061264f565b90815260200160405180910390206001016001600084604051611717919061264f565b9081526020016040518091039020600101805490506117369190612849565b81548110611747576117466126d2565b5b9060005260206000209060020201600083604051611765919061264f565b90815260200160405180910390206001018281548110611788576117876126d2565b5b9060005260206000209060020201600082018160000190816117aa9190612e36565b5060018201816001019080546117c1929190611c6b565b509050506000826040516117d5919061264f565b90815260200160405180910390206001018054806117f6576117f5612b27565b5b60019003818190600052602060002090600202016000808201600061181b9190611bb8565b60018201600061182b9190611cc8565b505090555b808061183b90612b56565b915050611426565b505050565b6000604051602001611859906124f4565b60405160208183030381529060405280519060200120600460009054906101000a900473ffffffffffffffffffffffffffffffffffffffff1673ffffffffffffffffffffffffffffffffffffffff166327820851336040518263ffffffff1660e01b81526004016118ca919061254a565b600060405180830381865afa1580156118e7573d6000803e3d6000fd5b505050506040513d6000823e3d601f19601f8201168201806040525081019061191091906125d5565b604051602001611920919061264f565b6040516020818303038152906040528051906020012003611976576040517f08c379a000000000000000000000000000000000000000000000000000000000815260040161196d906126b2565b60405180910390fd5b60005b600380549050811015611a135782604051602001611997919061264f565b60405160208183030381529060405280519060200120600382815481106119c1576119c06126d2565b5b906000526020600020016040516020016119db91906127f9565b6040516020818303038152906040528051906020012003611a00576001915050611a19565b8080611a0b90612b56565b915050611979565b50600090505b919050565b600080600090505b600083604051611a36919061264f565b908152602001604051809103902060010180549050811015611b055783604051602001611a63919061264f565b60405160208183030381529060405280519060200120600084604051611a89919061264f565b90815260200160405180910390206001018281548110611aac57611aab6126d2565b5b9060005260206000209060020201600001604051602001611acd91906127f9565b6040516020818303038152906040528051906020012003611af2576001915050611b0b565b8080611afd90612b56565b915050611a26565b50600090505b92915050565b600080600090505b8251811015611bac5783604051602001611b33919061264f565b60405160208183030381529060405280519060200120838281518110611b5c57611b5b6126d2565b5b6020026020010151604051602001611b74919061264f565b6040516020818303038152906040528051906020012003611b99576001915050611bb2565b8080611ba490612b56565b915050611b19565b50600090505b92915050565b508054611bc490612730565b6000825580601f10611bd65750611bf5565b601f016020900490600052602060002090810190611bf49190611ce9565b5b50565b828054828255906000526020600020908101928215611c40579160200282015b82811115611c3f578251829081611c2f9190612c76565b5091602001919060010190611c18565b5b509050611c4d9190611d06565b5090565b604051806040016040528060608152602001606081525090565b828054828255906000526020600020908101928215611cb75760005260206000209182015b82811115611cb65782829081611ca69190612e36565b5091600101919060010190611c90565b5b509050611cc49190611d06565b5090565b5080546000825590600052602060002090810190611ce69190611d06565b50565b5b80821115611d02576000816000905550600101611cea565b5090565b5b80821115611d265760008181611d1d9190611bb8565b50600101611d07565b5090565b6000604051905090565b600080fd5b600080fd5b600080fd5b600080fd5b6000601f19601f8301169050919050565b7f4e487b7100000000000000000000000000000000000000000000000000000000600052604160045260246000fd5b611d9182611d48565b810181811067ffffffffffffffff82111715611db057611daf611d59565b5b80604052505050565b6000611dc3611d2a565b9050611dcf8282611d88565b919050565b600067ffffffffffffffff821115611def57611dee611d59565b5b611df882611d48565b9050602081019050919050565b82818337600083830152505050565b6000611e27611e2284611dd4565b611db9565b905082815260208101848484011115611e4357611e42611d43565b5b611e4e848285611e05565b509392505050565b600082601f830112611e6b57611e6a611d3e565b5b8135611e7b848260208601611e14565b91505092915050565b600060208284031215611e9a57611e99611d34565b5b600082013567ffffffffffffffff811115611eb857611eb7611d39565b5b611ec484828501611e56565b91505092915050565b600067ffffffffffffffff821115611ee857611ee7611d59565b5b602082029050602081019050919050565b600080fd5b6000611f11611f0c84611ecd565b611db9565b90508083825260208201905060208402830185811115611f3457611f33611ef9565b5b835b81811015611f7b57803567ffffffffffffffff811115611f5957611f58611d3e565b5b808601611f668982611e56565b85526020850194505050602081019050611f36565b5050509392505050565b600082601f830112611f9a57611f99611d3e565b5b8135611faa848260208601611efe565b91505092915050565b60008060008060808587031215611fcd57611fcc611d34565b5b600085013567ffffffffffffffff811115611feb57611fea611d39565b5b611ff787828801611e56565b945050602085013567ffffffffffffffff81111561201857612017611d39565b5b61202487828801611e56565b935050604085013567ffffffffffffffff81111561204557612044611d39565b5b61205187828801611e56565b925050606085013567ffffffffffffffff81111561207257612071611d39565b5b61207e87828801611f85565b91505092959194509250565b600080604083850312156120a1576120a0611d34565b5b600083013567ffffffffffffffff8111156120bf576120be611d39565b5b6120cb85828601611e56565b925050602083013567ffffffffffffffff8111156120ec576120eb611d39565b5b6120f885828601611e56565b9150509250929050565b600081519050919050565b600082825260208201905092915050565b60005b8381101561213c578082015181840152602081019050612121565b60008484015250505050565b600061215382612102565b61215d818561210d565b935061216d81856020860161211e565b61217681611d48565b840191505092915050565b6000602082019050818103600083015261219b8184612148565b905092915050565b600082825260208201905092915050565b60006121bf82612102565b6121c981856121a3565b93506121d981856020860161211e565b6121e281611d48565b840191505092915050565b600081519050919050565b600082825260208201905092915050565b6000819050602082019050919050565b600081519050919050565b600082825260208201905092915050565b6000819050602082019050919050565b600061225183836121b4565b905092915050565b6000602082019050919050565b600061227182612219565b61227b8185612224565b93508360208202850161228d85612235565b8060005b858110156122c957848403895281516122aa8582612245565b94506122b583612259565b925060208a01995050600181019050612291565b50829750879550505050505092915050565b600060408301600083015184820360008601526122f882826121b4565b915050602083015184820360208601526123128282612266565b9150508091505092915050565b600061232b83836122db565b905092915050565b6000602082019050919050565b600061234b826121ed565b61235581856121f8565b93508360208202850161236785612209565b8060005b858110156123a35784840389528151612384858261231f565b945061238f83612333565b925060208a0199505060018101905061236b565b50829750879550505050505092915050565b600060408301600083015184820360008601526123d282826121b4565b915050602083015184820360208601526123ec8282612340565b9150508091505092915050565b6000602082019050818103600083015261241381846123b5565b905092915050565b600082825260208201905092915050565b600061243782612219565b612441818561241b565b93508360208202850161245385612235565b8060005b8581101561248f57848403895281516124708582612245565b945061247b83612259565b925060208a01995050600181019050612457565b50829750879550505050505092915050565b600060208201905081810360008301526124bb818461242c565b905092915050565b600081905092915050565b50565b60006124de6000836124c3565b91506124e9826124ce565b600082019050919050565b60006124ff826124d1565b9150819050919050565b600073ffffffffffffffffffffffffffffffffffffffff82169050919050565b600061253482612509565b9050919050565b61254481612529565b82525050565b600060208201905061255f600083018461253b565b92915050565b600061257861257384611dd4565b611db9565b90508281526020810184848401111561259457612593611d43565b5b61259f84828561211e565b509392505050565b600082601f8301126125bc576125bb611d3e565b5b81516125cc848260208601612565565b91505092915050565b6000602082840312156125eb576125ea611d34565b5b600082015167ffffffffffffffff81111561260957612608611d39565b5b612615848285016125a7565b91505092915050565b600061262982612102565b61263381856124c3565b935061264381856020860161211e565b80840191505092915050565b600061265b828461261e565b915081905092915050565b7f55736572206d75737420686176652031206f72206d6f726520726f6c65730000600082015250565b600061269c601e8361210d565b91506126a782612666565b602082019050919050565b600060208201905081810360008301526126cb8161268f565b9050919050565b7f4e487b7100000000000000000000000000000000000000000000000000000000600052603260045260246000fd5b7f4e487b7100000000000000000000000000000000000000000000000000000000600052602260045260246000fd5b6000600282049050600182168061274857607f821691505b60208210810361275b5761275a612701565b5b50919050565b60008190508160005260206000209050919050565b6000815461278381612730565b61278d81866124c3565b945060018216600081146127a857600181146127bd576127f0565b60ff19831686528115158202860193506127f0565b6127c685612761565b60005b838110156127e8578154818901526001820191506020810190506127c9565b838801955050505b50505092915050565b60006128058284612776565b915081905092915050565b6000819050919050565b7f4e487b7100000000000000000000000000000000000000000000000000000000600052601160045260246000fd5b600061285482612810565b915061285f83612810565b92508282039050818111156128775761287661281a565b5b92915050565b60008154905061288c81612730565b9050919050565b60008190508160005260206000209050919050565b60006020601f8301049050919050565b600082821b905092915050565b6000600883026128f57fffffffffffffffffffffffffffffffffffffffffffffffffffffffffffffffff826128b8565b6128ff86836128b8565b95508019841693508086168417925050509392505050565b6000819050919050565b600061293c61293761293284612810565b612917565b612810565b9050919050565b6000819050919050565b61295683612921565b61296a61296282612943565b8484546128c5565b825550505050565b600090565b61297f612972565b61298a81848461294d565b505050565b5b818110156129ae576129a3600082612977565b600181019050612990565b5050565b601f8211156129f3576129c481612761565b6129cd846128a8565b810160208510156129dc578190505b6129f06129e8856128a8565b83018261298f565b50505b505050565b600082821c905092915050565b6000612a16600019846008026129f8565b1980831691505092915050565b6000612a2f8383612a05565b9150826002028217905092915050565b818103612a4d575050612b25565b612a568261287d565b67ffffffffffffffff811115612a6f57612a6e611d59565b5b612a798254612730565b612a848282856129b2565b6000601f831160018114612ab35760008415612aa1578287015490505b612aab8582612a23565b865550612b1e565b601f198416612ac187612893565b9650612acc86612761565b60005b82811015612af457848901548255600182019150600185019450602081019050612acf565b86831015612b115784890154612b0d601f891682612a05565b8355505b6001600288020188555050505b5050505050505b565b7f4e487b7100000000000000000000000000000000000000000000000000000000600052603160045260246000fd5b6000612b6182612810565b91507fffffffffffffffffffffffffffffffffffffffffffffffffffffffffffffffff8203612b9357612b9261281a565b5b600182019050919050565b7f4469726563746f727920646f65736e7420657869737400000000000000000000600082015250565b6000612bd460168361210d565b9150612bdf82612b9e565b602082019050919050565b60006020820190508181036000830152612c0381612bc7565b9050919050565b7f46696c6520616c72656164792065786973740000000000000000000000000000600082015250565b6000612c4060128361210d565b9150612c4b82612c0a565b602082019050919050565b60006020820190508181036000830152612c6f81612c33565b9050919050565b612c7f82612102565b67ffffffffffffffff811115612c9857612c97611d59565b5b612ca28254612730565b612cad8282856129b2565b600060209050601f831160018114612ce05760008415612cce578287015190505b612cd88582612a23565b865550612d40565b601f198416612cee86612761565b60005b82811015612d1657848901518255600182019150602085019450602081019050612cf1565b86831015612d335784890151612d2f601f891682612a05565b8355505b6001600288020188555050505b505050505050565b7f4469726563746f727920616c7265616479206578697374000000000000000000600082015250565b6000612d7e60178361210d565b9150612d8982612d48565b602082019050919050565b60006020820190508181036000830152612dad81612d71565b9050919050565b7f4e6f7420656e6f756768207065726d697373696f6e7300000000000000000000600082015250565b6000612dea60168361210d565b9150612df582612db4565b602082019050919050565b60006020820190508181036000830152612e1981612ddd565b9050919050565b600081549050612e2f81612730565b9050919050565b818103612e44575050612f1c565b612e4d82612e20565b67ffffffffffffffff811115612e6657612e65611d59565b5b612e708254612730565b612e7b8282856129b2565b6000601f831160018114612eaa5760008415612e98578287015490505b612ea28582612a23565b865550612f15565b601f198416612eb887612761565b9650612ec386612761565b60005b82811015612eeb57848901548255600182019150600185019450602081019050612ec6565b86831015612f085784890154612f04601f891682612a05565b8355505b6001600288020188555050505b5050505050505b56fea26469706673582212202daf881d4b288506cf828ca68047b94975a5158cb254cf66f059479a6f4dc0af64736f6c63430008130033",
		"opcodes": "PUSH1 0x80 PUSH1 0x40 MSTORE CALLVALUE DUP1 ISZERO PUSH3 0x11 JUMPI PUSH1 0x0 DUP1 REVERT JUMPDEST POP PUSH1 0x40 MLOAD PUSH3 0x307F CODESIZE SUB DUP1 PUSH3 0x307F DUP4 CODECOPY DUP2 DUP2 ADD PUSH1 0x40 MSTORE DUP2 ADD SWAP1 PUSH3 0x37 SWAP2 SWAP1 PUSH3 0xE9 JUMP JUMPDEST DUP1 PUSH1 0x4 PUSH1 0x0 PUSH2 0x100 EXP DUP2 SLOAD DUP2 PUSH20 0xFFFFFFFFFFFFFFFFFFFFFFFFFFFFFFFFFFFFFFFF MUL NOT AND SWAP1 DUP4 PUSH20 0xFFFFFFFFFFFFFFFFFFFFFFFFFFFFFFFFFFFFFFFF AND MUL OR SWAP1 SSTORE POP POP PUSH3 0x11B JUMP JUMPDEST PUSH1 0x0 DUP1 REVERT JUMPDEST PUSH1 0x0 PUSH20 0xFFFFFFFFFFFFFFFFFFFFFFFFFFFFFFFFFFFFFFFF DUP3 AND SWAP1 POP SWAP2 SWAP1 POP JUMP JUMPDEST PUSH1 0x0 PUSH3 0xB1 DUP3 PUSH3 0x84 JUMP JUMPDEST SWAP1 POP SWAP2 SWAP1 POP JUMP JUMPDEST PUSH3 0xC3 DUP2 PUSH3 0xA4 JUMP JUMPDEST DUP2 EQ PUSH3 0xCF JUMPI PUSH1 0x0 DUP1 REVERT JUMPDEST POP JUMP JUMPDEST PUSH1 0x0 DUP2 MLOAD SWAP1 POP PUSH3 0xE3 DUP2 PUSH3 0xB8 JUMP JUMPDEST SWAP3 SWAP2 POP POP JUMP JUMPDEST PUSH1 0x0 PUSH1 0x20 DUP3 DUP5 SUB SLT ISZERO PUSH3 0x102 JUMPI PUSH3 0x101 PUSH3 0x7F JUMP JUMPDEST JUMPDEST PUSH1 0x0 PUSH3 0x112 DUP5 DUP3 DUP6 ADD PUSH3 0xD2 JUMP JUMPDEST SWAP2 POP POP SWAP3 SWAP2 POP POP JUMP JUMPDEST PUSH2 0x2F54 DUP1 PUSH3 0x12B PUSH1 0x0 CODECOPY PUSH1 0x0 RETURN INVALID PUSH1 0x80 PUSH1 0x40 MSTORE CALLVALUE DUP1 ISZERO PUSH2 0x10 JUMPI PUSH1 0x0 DUP1 REVERT JUMPDEST POP PUSH1 0x4 CALLDATASIZE LT PUSH2 0x7D JUMPI PUSH1 0x0 CALLDATALOAD PUSH1 0xE0 SHR DUP1 PUSH4 0xABE71CC3 GT PUSH2 0x5B JUMPI DUP1 PUSH4 0xABE71CC3 EQ PUSH2 0xD6 JUMPI DUP1 PUSH4 0xC12E8656 EQ PUSH2 0x106 JUMPI DUP1 PUSH4 0xC6A909C1 EQ PUSH2 0x136 JUMPI DUP1 PUSH4 0xD34A8708 EQ PUSH2 0x154 JUMPI PUSH2 0x7D JUMP JUMPDEST DUP1 PUSH4 0x7C6E7D3 EQ PUSH2 0x82 JUMPI DUP1 PUSH4 0x13787643 EQ PUSH2 0x9E JUMPI DUP1 PUSH4 0x1C6EC7A9 EQ PUSH2 0xBA JUMPI JUMPDEST PUSH1 0x0 DUP1 REVERT JUMPDEST PUSH2 0x9C PUSH1 0x4 DUP1 CALLDATASIZE SUB DUP2 ADD SWAP1 PUSH2 0x97 SWAP2 SWAP1 PUSH2 0x1E84 JUMP JUMPDEST PUSH2 0x170 JUMP JUMPDEST STOP JUMPDEST PUSH2 0xB8 PUSH1 0x4 DUP1 CALLDATASIZE SUB DUP2 ADD SWAP1 PUSH2 0xB3 SWAP2 SWAP1 PUSH2 0x1FB3 JUMP JUMPDEST PUSH2 0x3BE JUMP JUMPDEST STOP JUMPDEST PUSH2 0xD4 PUSH1 0x4 DUP1 CALLDATASIZE SUB DUP2 ADD SWAP1 PUSH2 0xCF SWAP2 SWAP1 PUSH2 0x1E84 JUMP JUMPDEST PUSH2 0x648 JUMP JUMPDEST STOP JUMPDEST PUSH2 0xF0 PUSH1 0x4 DUP1 CALLDATASIZE SUB DUP2 ADD SWAP1 PUSH2 0xEB SWAP2 SWAP1 PUSH2 0x208A JUMP JUMPDEST PUSH2 0x824 JUMP JUMPDEST PUSH1 0x40 MLOAD PUSH2 0xFD SWAP2 SWAP1 PUSH2 0x2181 JUMP JUMPDEST PUSH1 0x40 MLOAD DUP1 SWAP2 SUB SWAP1 RETURN JUMPDEST PUSH2 0x120 PUSH1 0x4 DUP1 CALLDATASIZE SUB DUP2 ADD SWAP1 PUSH2 0x11B SWAP2 SWAP1 PUSH2 0x1E84 JUMP JUMPDEST PUSH2 0xD32 JUMP JUMPDEST PUSH1 0x40 MLOAD PUSH2 0x12D SWAP2 SWAP1 PUSH2 0x23F9 JUMP JUMPDEST PUSH1 0x40 MLOAD DUP1 SWAP2 SUB SWAP1 RETURN JUMPDEST PUSH2 0x13E PUSH2 0x10F2 JUMP JUMPDEST PUSH1 0x40 MLOAD PUSH2 0x14B SWAP2 SWAP1 PUSH2 0x24A1 JUMP JUMPDEST PUSH1 0x40 MLOAD DUP1 SWAP2 SUB SWAP1 RETURN JUMPDEST PUSH2 0x16E PUSH1 0x4 DUP1 CALLDATASIZE SUB DUP2 ADD SWAP1 PUSH2 0x169 SWAP2 SWAP1 PUSH2 0x208A JUMP JUMPDEST PUSH2 0x12F7 JUMP JUMPDEST STOP JUMPDEST PUSH1 0x40 MLOAD PUSH1 0x20 ADD PUSH2 0x17F SWAP1 PUSH2 0x24F4 JUMP JUMPDEST PUSH1 0x40 MLOAD PUSH1 0x20 DUP2 DUP4 SUB SUB DUP2 MSTORE SWAP1 PUSH1 0x40 MSTORE DUP1 MLOAD SWAP1 PUSH1 0x20 ADD KECCAK256 PUSH1 0x4 PUSH1 0x0 SWAP1 SLOAD SWAP1 PUSH2 0x100 EXP SWAP1 DIV PUSH20 0xFFFFFFFFFFFFFFFFFFFFFFFFFFFFFFFFFFFFFFFF AND PUSH20 0xFFFFFFFFFFFFFFFFFFFFFFFFFFFFFFFFFFFFFFFF AND PUSH4 0x27820851 CALLER PUSH1 0x40 MLOAD DUP3 PUSH4 0xFFFFFFFF AND PUSH1 0xE0 SHL DUP2 MSTORE PUSH1 0x4 ADD PUSH2 0x1F0 SWAP2 SWAP1 PUSH2 0x254A JUMP JUMPDEST PUSH1 0x0 PUSH1 0x40 MLOAD DUP1 DUP4 SUB DUP2 DUP7 GAS STATICCALL ISZERO DUP1 ISZERO PUSH2 0x20D JUMPI RETURNDATASIZE PUSH1 0x0 DUP1 RETURNDATACOPY RETURNDATASIZE PUSH1 0x0 REVERT JUMPDEST POP POP POP POP PUSH1 0x40 MLOAD RETURNDATASIZE PUSH1 0x0 DUP3 RETURNDATACOPY RETURNDATASIZE PUSH1 0x1F NOT PUSH1 0x1F DUP3 ADD AND DUP3 ADD DUP1 PUSH1 0x40 MSTORE POP DUP2 ADD SWAP1 PUSH2 0x236 SWAP2 SWAP1 PUSH2 0x25D5 JUMP JUMPDEST PUSH1 0x40 MLOAD PUSH1 0x20 ADD PUSH2 0x246 SWAP2 SWAP1 PUSH2 0x264F JUMP JUMPDEST PUSH1 0x40 MLOAD PUSH1 0x20 DUP2 DUP4 SUB SUB DUP2 MSTORE SWAP1 PUSH1 0x40 MSTORE DUP1 MLOAD SWAP1 PUSH1 0x20 ADD KECCAK256 SUB PUSH2 0x29C JUMPI PUSH1 0x40 MLOAD PUSH32 0x8C379A000000000000000000000000000000000000000000000000000000000 DUP2 MSTORE PUSH1 0x4 ADD PUSH2 0x293 SWAP1 PUSH2 0x26B2 JUMP JUMPDEST PUSH1 0x40 MLOAD DUP1 SWAP2 SUB SWAP1 REVERT JUMPDEST PUSH1 0x0 JUMPDEST PUSH1 0x3 DUP1 SLOAD SWAP1 POP DUP2 LT ISZERO PUSH2 0x3BA JUMPI DUP2 PUSH1 0x40 MLOAD PUSH1 0x20 ADD PUSH2 0x2BD SWAP2 SWAP1 PUSH2 0x264F JUMP JUMPDEST PUSH1 0x40 MLOAD PUSH1 0x20 DUP2 DUP4 SUB SUB DUP2 MSTORE SWAP1 PUSH1 0x40 MSTORE DUP1 MLOAD SWAP1 PUSH1 0x20 ADD KECCAK256 PUSH1 0x3 DUP3 DUP2 SLOAD DUP2 LT PUSH2 0x2E7 JUMPI PUSH2 0x2E6 PUSH2 0x26D2 JUMP JUMPDEST JUMPDEST SWAP1 PUSH1 0x0 MSTORE PUSH1 0x20 PUSH1 0x0 KECCAK256 ADD PUSH1 0x40 MLOAD PUSH1 0x20 ADD PUSH2 0x301 SWAP2 SWAP1 PUSH2 0x27F9 JUMP JUMPDEST PUSH1 0x40 MLOAD PUSH1 0x20 DUP2 DUP4 SUB SUB DUP2 MSTORE SWAP1 PUSH1 0x40 MSTORE DUP1 MLOAD SWAP1 PUSH1 0x20 ADD KECCAK256 SUB PUSH2 0x3A7 JUMPI PUSH1 0x3 PUSH1 0x1 PUSH1 0x3 DUP1 SLOAD SWAP1 POP PUSH2 0x330 SWAP2 SWAP1 PUSH2 0x2849 JUMP JUMPDEST DUP2 SLOAD DUP2 LT PUSH2 0x341 JUMPI PUSH2 0x340 PUSH2 0x26D2 JUMP JUMPDEST JUMPDEST SWAP1 PUSH1 0x0 MSTORE PUSH1 0x20 PUSH1 0x0 KECCAK256 ADD PUSH1 0x3 DUP3 DUP2 SLOAD DUP2 LT PUSH2 0x35F JUMPI PUSH2 0x35E PUSH2 0x26D2 JUMP JUMPDEST JUMPDEST SWAP1 PUSH1 0x0 MSTORE PUSH1 0x20 PUSH1 0x0 KECCAK256 ADD SWAP1 DUP2 PUSH2 0x375 SWAP2 SWAP1 PUSH2 0x2A3F JUMP JUMPDEST POP PUSH1 0x3 DUP1 SLOAD DUP1 PUSH2 0x388 JUMPI PUSH2 0x387 PUSH2 0x2B27 JUMP JUMPDEST JUMPDEST PUSH1 0x1 SWAP1 SUB DUP2 DUP2 SWAP1 PUSH1 0x0 MSTORE PUSH1 0x20 PUSH1 0x0 KECCAK256 ADD PUSH1 0x0 PUSH2 0x3A4 SWAP2 SWAP1 PUSH2 0x1BB8 JUMP JUMPDEST SWAP1 SSTORE JUMPDEST DUP1 DUP1 PUSH2 0x3B2 SWAP1 PUSH2 0x2B56 JUMP JUMPDEST SWAP2 POP POP PUSH2 0x29F JUMP JUMPDEST POP POP JUMP JUMPDEST PUSH1 0x40 MLOAD PUSH1 0x20 ADD PUSH2 0x3CD SWAP1 PUSH2 0x24F4 JUMP JUMPDEST PUSH1 0x40 MLOAD PUSH1 0x20 DUP2 DUP4 SUB SUB DUP2 MSTORE SWAP1 PUSH1 0x40 MSTORE DUP1 MLOAD SWAP1 PUSH1 0x20 ADD KECCAK256 PUSH1 0x4 PUSH1 0x0 SWAP1 SLOAD SWAP1 PUSH2 0x100 EXP SWAP1 DIV PUSH20 0xFFFFFFFFFFFFFFFFFFFFFFFFFFFFFFFFFFFFFFFF AND PUSH20 0xFFFFFFFFFFFFFFFFFFFFFFFFFFFFFFFFFFFFFFFF AND PUSH4 0x27820851 CALLER PUSH1 0x40 MLOAD DUP3 PUSH4 0xFFFFFFFF AND PUSH1 0xE0 SHL DUP2 MSTORE PUSH1 0x4 ADD PUSH2 0x43E SWAP2 SWAP1 PUSH2 0x254A JUMP JUMPDEST PUSH1 0x0 PUSH1 0x40 MLOAD DUP1 DUP4 SUB DUP2 DUP7 GAS STATICCALL ISZERO DUP1 ISZERO PUSH2 0x45B JUMPI RETURNDATASIZE PUSH1 0x0 DUP1 RETURNDATACOPY RETURNDATASIZE PUSH1 0x0 REVERT JUMPDEST POP POP POP POP PUSH1 0x40 MLOAD RETURNDATASIZE PUSH1 0x0 DUP3 RETURNDATACOPY RETURNDATASIZE PUSH1 0x1F NOT PUSH1 0x1F DUP3 ADD AND DUP3 ADD DUP1 PUSH1 0x40 MSTORE POP DUP2 ADD SWAP1 PUSH2 0x484 SWAP2 SWAP1 PUSH2 0x25D5 JUMP JUMPDEST PUSH1 0x40 MLOAD PUSH1 0x20 ADD PUSH2 0x494 SWAP2 SWAP1 PUSH2 0x264F JUMP JUMPDEST PUSH1 0x40 MLOAD PUSH1 0x20 DUP2 DUP4 SUB SUB DUP2 MSTORE SWAP1 PUSH1 0x40 MSTORE DUP1 MLOAD SWAP1 PUSH1 0x20 ADD KECCAK256 SUB PUSH2 0x4EA JUMPI PUSH1 0x40 MLOAD PUSH32 0x8C379A000000000000000000000000000000000000000000000000000000000 DUP2 MSTORE PUSH1 0x4 ADD PUSH2 0x4E1 SWAP1 PUSH2 0x26B2 JUMP JUMPDEST PUSH1 0x40 MLOAD DUP1 SWAP2 SUB SWAP1 REVERT JUMPDEST PUSH2 0x4F3 DUP3 PUSH2 0x1848 JUMP JUMPDEST PUSH2 0x532 JUMPI PUSH1 0x40 MLOAD PUSH32 0x8C379A000000000000000000000000000000000000000000000000000000000 DUP2 MSTORE PUSH1 0x4 ADD PUSH2 0x529 SWAP1 PUSH2 0x2BEA JUMP JUMPDEST PUSH1 0x40 MLOAD DUP1 SWAP2 SUB SWAP1 REVERT JUMPDEST PUSH2 0x53C DUP5 DUP4 PUSH2 0x1A1E JUMP JUMPDEST ISZERO PUSH2 0x57C JUMPI PUSH1 0x40 MLOAD PUSH32 0x8C379A000000000000000000000000000000000000000000000000000000000 DUP2 MSTORE PUSH1 0x4 ADD PUSH2 0x573 SWAP1 PUSH2 0x2C56 JUMP JUMPDEST PUSH1 0x40 MLOAD DUP1 SWAP2 SUB SWAP1 REVERT JUMPDEST PUSH1 0x0 PUSH1 0x40 MLOAD DUP1 PUSH1 0x40 ADD PUSH1 0x40 MSTORE DUP1 DUP7 DUP2 MSTORE PUSH1 0x20 ADD DUP4 DUP2 MSTORE POP SWAP1 POP DUP4 PUSH1 0x1 DUP7 PUSH1 0x40 MLOAD PUSH2 0x5A6 SWAP2 SWAP1 PUSH2 0x264F JUMP JUMPDEST SWAP1 DUP2 MSTORE PUSH1 0x20 ADD PUSH1 0x40 MLOAD DUP1 SWAP2 SUB SWAP1 KECCAK256 SWAP1 DUP2 PUSH2 0x5C0 SWAP2 SWAP1 PUSH2 0x2C76 JUMP JUMPDEST POP PUSH1 0x0 DUP4 PUSH1 0x40 MLOAD PUSH2 0x5D1 SWAP2 SWAP1 PUSH2 0x264F JUMP JUMPDEST SWAP1 DUP2 MSTORE PUSH1 0x20 ADD PUSH1 0x40 MLOAD DUP1 SWAP2 SUB SWAP1 KECCAK256 PUSH1 0x1 ADD DUP2 SWAP1 DUP1 PUSH1 0x1 DUP2 SLOAD ADD DUP1 DUP3 SSTORE DUP1 SWAP2 POP POP PUSH1 0x1 SWAP1 SUB SWAP1 PUSH1 0x0 MSTORE PUSH1 0x20 PUSH1 0x0 KECCAK256 SWAP1 PUSH1 0x2 MUL ADD PUSH1 0x0 SWAP1 SWAP2 SWAP1 SWAP2 SWAP1 SWAP2 POP PUSH1 0x0 DUP3 ADD MLOAD DUP2 PUSH1 0x0 ADD SWAP1 DUP2 PUSH2 0x621 SWAP2 SWAP1 PUSH2 0x2C76 JUMP JUMPDEST POP PUSH1 0x20 DUP3 ADD MLOAD DUP2 PUSH1 0x1 ADD SWAP1 DUP1 MLOAD SWAP1 PUSH1 0x20 ADD SWAP1 PUSH2 0x63E SWAP3 SWAP2 SWAP1 PUSH2 0x1BF8 JUMP JUMPDEST POP POP POP POP POP POP POP POP JUMP JUMPDEST PUSH1 0x40 MLOAD PUSH1 0x20 ADD PUSH2 0x657 SWAP1 PUSH2 0x24F4 JUMP JUMPDEST PUSH1 0x40 MLOAD PUSH1 0x20 DUP2 DUP4 SUB SUB DUP2 MSTORE SWAP1 PUSH1 0x40 MSTORE DUP1 MLOAD SWAP1 PUSH1 0x20 ADD KECCAK256 PUSH1 0x4 PUSH1 0x0 SWAP1 SLOAD SWAP1 PUSH2 0x100 EXP SWAP1 DIV PUSH20 0xFFFFFFFFFFFFFFFFFFFFFFFFFFFFFFFFFFFFFFFF AND PUSH20 0xFFFFFFFFFFFFFFFFFFFFFFFFFFFFFFFFFFFFFFFF AND PUSH4 0x27820851 CALLER PUSH1 0x40 MLOAD DUP3 PUSH4 0xFFFFFFFF AND PUSH1 0xE0 SHL DUP2 MSTORE PUSH1 0x4 ADD PUSH2 0x6C8 SWAP2 SWAP1 PUSH2 0x254A JUMP JUMPDEST PUSH1 0x0 PUSH1 0x40 MLOAD DUP1 DUP4 SUB DUP2 DUP7 GAS STATICCALL ISZERO DUP1 ISZERO PUSH2 0x6E5 JUMPI RETURNDATASIZE PUSH1 0x0 DUP1 RETURNDATACOPY RETURNDATASIZE PUSH1 0x0 REVERT JUMPDEST POP POP POP POP PUSH1 0x40 MLOAD RETURNDATASIZE PUSH1 0x0 DUP3 RETURNDATACOPY RETURNDATASIZE PUSH1 0x1F NOT PUSH1 0x1F DUP3 ADD AND DUP3 ADD DUP1 PUSH1 0x40 MSTORE POP DUP2 ADD SWAP1 PUSH2 0x70E SWAP2 SWAP1 PUSH2 0x25D5 JUMP JUMPDEST PUSH1 0x40 MLOAD PUSH1 0x20 ADD PUSH2 0x71E SWAP2 SWAP1 PUSH2 0x264F JUMP JUMPDEST PUSH1 0x40 MLOAD PUSH1 0x20 DUP2 DUP4 SUB SUB DUP2 MSTORE SWAP1 PUSH1 0x40 MSTORE DUP1 MLOAD SWAP1 PUSH1 0x20 ADD KECCAK256 SUB PUSH2 0x774 JUMPI PUSH1 0x40 MLOAD PUSH32 0x8C379A000000000000000000000000000000000000000000000000000000000 DUP2 MSTORE PUSH1 0x4 ADD PUSH2 0x76B SWAP1 PUSH2 0x26B2 JUMP JUMPDEST PUSH1 0x40 MLOAD DUP1 SWAP2 SUB SWAP1 REVERT JUMPDEST PUSH2 0x77D DUP2 PUSH2 0x1848 JUMP JUMPDEST ISZERO PUSH2 0x7BD JUMPI PUSH1 0x40 MLOAD PUSH32 0x8C379A000000000000000000000000000000000000000000000000000000000 DUP2 MSTORE PUSH1 0x4 ADD PUSH2 0x7B4 SWAP1 PUSH2 0x2D94 JUMP JUMPDEST PUSH1 0x40 MLOAD DUP1 SWAP2 SUB SWAP1 REVERT JUMPDEST PUSH1 0x3 DUP2 SWAP1 DUP1 PUSH1 0x1 DUP2 SLOAD ADD DUP1 DUP3 SSTORE DUP1 SWAP2 POP POP PUSH1 0x1 SWAP1 SUB SWAP1 PUSH1 0x0 MSTORE PUSH1 0x20 PUSH1 0x0 KECCAK256 ADD PUSH1 0x0 SWAP1 SWAP2 SWAP1 SWAP2 SWAP1 SWAP2 POP SWAP1 DUP2 PUSH2 0x7F1 SWAP2 SWAP1 PUSH2 0x2C76 JUMP JUMPDEST POP DUP1 PUSH1 0x0 DUP3 PUSH1 0x40 MLOAD PUSH2 0x803 SWAP2 SWAP1 PUSH2 0x264F JUMP JUMPDEST SWAP1 DUP2 MSTORE PUSH1 0x20 ADD PUSH1 0x40 MLOAD DUP1 SWAP2 SUB SWAP1 KECCAK256 PUSH1 0x0 ADD SWAP1 DUP2 PUSH2 0x820 SWAP2 SWAP1 PUSH2 0x2C76 JUMP JUMPDEST POP POP JUMP JUMPDEST PUSH1 0x60 PUSH1 0x40 MLOAD PUSH1 0x20 ADD PUSH2 0x835 SWAP1 PUSH2 0x24F4 JUMP JUMPDEST PUSH1 0x40 MLOAD PUSH1 0x20 DUP2 DUP4 SUB SUB DUP2 MSTORE SWAP1 PUSH1 0x40 MSTORE DUP1 MLOAD SWAP1 PUSH1 0x20 ADD KECCAK256 PUSH1 0x4 PUSH1 0x0 SWAP1 SLOAD SWAP1 PUSH2 0x100 EXP SWAP1 DIV PUSH20 0xFFFFFFFFFFFFFFFFFFFFFFFFFFFFFFFFFFFFFFFF AND PUSH20 0xFFFFFFFFFFFFFFFFFFFFFFFFFFFFFFFFFFFFFFFF AND PUSH4 0x27820851 CALLER PUSH1 0x40 MLOAD DUP3 PUSH4 0xFFFFFFFF AND PUSH1 0xE0 SHL DUP2 MSTORE PUSH1 0x4 ADD PUSH2 0x8A6 SWAP2 SWAP1 PUSH2 0x254A JUMP JUMPDEST PUSH1 0x0 PUSH1 0x40 MLOAD DUP1 DUP4 SUB DUP2 DUP7 GAS STATICCALL ISZERO DUP1 ISZERO PUSH2 0x8C3 JUMPI RETURNDATASIZE PUSH1 0x0 DUP1 RETURNDATACOPY RETURNDATASIZE PUSH1 0x0 REVERT JUMPDEST POP POP POP POP PUSH1 0x40 MLOAD RETURNDATASIZE PUSH1 0x0 DUP3 RETURNDATACOPY RETURNDATASIZE PUSH1 0x1F NOT PUSH1 0x1F DUP3 ADD AND DUP3 ADD DUP1 PUSH1 0x40 MSTORE POP DUP2 ADD SWAP1 PUSH2 0x8EC SWAP2 SWAP1 PUSH2 0x25D5 JUMP JUMPDEST PUSH1 0x40 MLOAD PUSH1 0x20 ADD PUSH2 0x8FC SWAP2 SWAP1 PUSH2 0x264F JUMP JUMPDEST PUSH1 0x40 MLOAD PUSH1 0x20 DUP2 DUP4 SUB SUB DUP2 MSTORE SWAP1 PUSH1 0x40 MSTORE DUP1 MLOAD SWAP1 PUSH1 0x20 ADD KECCAK256 SUB PUSH2 0x952 JUMPI PUSH1 0x40 MLOAD PUSH32 0x8C379A000000000000000000000000000000000000000000000000000000000 DUP2 MSTORE PUSH1 0x4 ADD PUSH2 0x949 SWAP1 PUSH2 0x26B2 JUMP JUMPDEST PUSH1 0x40 MLOAD DUP1 SWAP2 SUB SWAP1 REVERT JUMPDEST PUSH1 0x0 JUMPDEST PUSH1 0x0 DUP4 PUSH1 0x40 MLOAD PUSH2 0x965 SWAP2 SWAP1 PUSH2 0x264F JUMP JUMPDEST SWAP1 DUP2 MSTORE PUSH1 0x20 ADD PUSH1 0x40 MLOAD DUP1 SWAP2 SUB SWAP1 KECCAK256 PUSH1 0x1 ADD DUP1 SLOAD SWAP1 POP DUP2 LT ISZERO PUSH2 0xD18 JUMPI DUP4 PUSH1 0x40 MLOAD PUSH1 0x20 ADD PUSH2 0x992 SWAP2 SWAP1 PUSH2 0x264F JUMP JUMPDEST PUSH1 0x40 MLOAD PUSH1 0x20 DUP2 DUP4 SUB SUB DUP2 MSTORE SWAP1 PUSH1 0x40 MSTORE DUP1 MLOAD SWAP1 PUSH1 0x20 ADD KECCAK256 PUSH1 0x0 DUP5 PUSH1 0x40 MLOAD PUSH2 0x9B8 SWAP2 SWAP1 PUSH2 0x264F JUMP JUMPDEST SWAP1 DUP2 MSTORE PUSH1 0x20 ADD PUSH1 0x40 MLOAD DUP1 SWAP2 SUB SWAP1 KECCAK256 PUSH1 0x1 ADD DUP3 DUP2 SLOAD DUP2 LT PUSH2 0x9DB JUMPI PUSH2 0x9DA PUSH2 0x26D2 JUMP JUMPDEST JUMPDEST SWAP1 PUSH1 0x0 MSTORE PUSH1 0x20 PUSH1 0x0 KECCAK256 SWAP1 PUSH1 0x2 MUL ADD PUSH1 0x0 ADD PUSH1 0x40 MLOAD PUSH1 0x20 ADD PUSH2 0x9FC SWAP2 SWAP1 PUSH2 0x27F9 JUMP JUMPDEST PUSH1 0x40 MLOAD PUSH1 0x20 DUP2 DUP4 SUB SUB DUP2 MSTORE SWAP1 PUSH1 0x40 MSTORE DUP1 MLOAD SWAP1 PUSH1 0x20 ADD KECCAK256 SUB PUSH2 0xD05 JUMPI PUSH2 0xBD4 PUSH1 0x4 PUSH1 0x0 SWAP1 SLOAD SWAP1 PUSH2 0x100 EXP SWAP1 DIV PUSH20 0xFFFFFFFFFFFFFFFFFFFFFFFFFFFFFFFFFFFFFFFF AND PUSH20 0xFFFFFFFFFFFFFFFFFFFFFFFFFFFFFFFFFFFFFFFF AND PUSH4 0x27820851 CALLER PUSH1 0x40 MLOAD DUP3 PUSH4 0xFFFFFFFF AND PUSH1 0xE0 SHL DUP2 MSTORE PUSH1 0x4 ADD PUSH2 0xA75 SWAP2 SWAP1 PUSH2 0x254A JUMP JUMPDEST PUSH1 0x0 PUSH1 0x40 MLOAD DUP1 DUP4 SUB DUP2 DUP7 GAS STATICCALL ISZERO DUP1 ISZERO PUSH2 0xA92 JUMPI RETURNDATASIZE PUSH1 0x0 DUP1 RETURNDATACOPY RETURNDATASIZE PUSH1 0x0 REVERT JUMPDEST POP POP POP POP PUSH1 0x40 MLOAD RETURNDATASIZE PUSH1 0x0 DUP3 RETURNDATACOPY RETURNDATASIZE PUSH1 0x1F NOT PUSH1 0x1F DUP3 ADD AND DUP3 ADD DUP1 PUSH1 0x40 MSTORE POP DUP2 ADD SWAP1 PUSH2 0xABB SWAP2 SWAP1 PUSH2 0x25D5 JUMP JUMPDEST PUSH1 0x0 DUP6 PUSH1 0x40 MLOAD PUSH2 0xACB SWAP2 SWAP1 PUSH2 0x264F JUMP JUMPDEST SWAP1 DUP2 MSTORE PUSH1 0x20 ADD PUSH1 0x40 MLOAD DUP1 SWAP2 SUB SWAP1 KECCAK256 PUSH1 0x1 ADD DUP4 DUP2 SLOAD DUP2 LT PUSH2 0xAEE JUMPI PUSH2 0xAED PUSH2 0x26D2 JUMP JUMPDEST JUMPDEST SWAP1 PUSH1 0x0 MSTORE PUSH1 0x20 PUSH1 0x0 KECCAK256 SWAP1 PUSH1 0x2 MUL ADD PUSH1 0x1 ADD DUP1 SLOAD DUP1 PUSH1 0x20 MUL PUSH1 0x20 ADD PUSH1 0x40 MLOAD SWAP1 DUP2 ADD PUSH1 0x40 MSTORE DUP1 SWAP3 SWAP2 SWAP1 DUP2 DUP2 MSTORE PUSH1 0x20 ADD PUSH1 0x0 SWAP1 JUMPDEST DUP3 DUP3 LT ISZERO PUSH2 0xBCB JUMPI DUP4 DUP3 SWAP1 PUSH1 0x0 MSTORE PUSH1 0x20 PUSH1 0x0 KECCAK256 ADD DUP1 SLOAD PUSH2 0xB3E SWAP1 PUSH2 0x2730 JUMP JUMPDEST DUP1 PUSH1 0x1F ADD PUSH1 0x20 DUP1 SWAP2 DIV MUL PUSH1 0x20 ADD PUSH1 0x40 MLOAD SWAP1 DUP2 ADD PUSH1 0x40 MSTORE DUP1 SWAP3 SWAP2 SWAP1 DUP2 DUP2 MSTORE PUSH1 0x20 ADD DUP3 DUP1 SLOAD PUSH2 0xB6A SWAP1 PUSH2 0x2730 JUMP JUMPDEST DUP1 ISZERO PUSH2 0xBB7 JUMPI DUP1 PUSH1 0x1F LT PUSH2 0xB8C JUMPI PUSH2 0x100 DUP1 DUP4 SLOAD DIV MUL DUP4 MSTORE SWAP2 PUSH1 0x20 ADD SWAP2 PUSH2 0xBB7 JUMP JUMPDEST DUP3 ADD SWAP2 SWAP1 PUSH1 0x0 MSTORE PUSH1 0x20 PUSH1 0x0 KECCAK256 SWAP1 JUMPDEST DUP2 SLOAD DUP2 MSTORE SWAP1 PUSH1 0x1 ADD SWAP1 PUSH1 0x20 ADD DUP1 DUP4 GT PUSH2 0xB9A JUMPI DUP3 SWAP1 SUB PUSH1 0x1F AND DUP3 ADD SWAP2 JUMPDEST POP POP POP POP POP DUP2 MSTORE PUSH1 0x20 ADD SWAP1 PUSH1 0x1 ADD SWAP1 PUSH2 0xB1F JUMP JUMPDEST POP POP POP POP PUSH2 0x1B11 JUMP JUMPDEST PUSH2 0xC13 JUMPI PUSH1 0x40 MLOAD PUSH32 0x8C379A000000000000000000000000000000000000000000000000000000000 DUP2 MSTORE PUSH1 0x4 ADD PUSH2 0xC0A SWAP1 PUSH2 0x2E00 JUMP JUMPDEST PUSH1 0x40 MLOAD DUP1 SWAP2 SUB SWAP1 REVERT JUMPDEST PUSH1 0x1 PUSH1 0x0 DUP5 PUSH1 0x40 MLOAD PUSH2 0xC25 SWAP2 SWAP1 PUSH2 0x264F JUMP JUMPDEST SWAP1 DUP2 MSTORE PUSH1 0x20 ADD PUSH1 0x40 MLOAD DUP1 SWAP2 SUB SWAP1 KECCAK256 PUSH1 0x1 ADD DUP3 DUP2 SLOAD DUP2 LT PUSH2 0xC48 JUMPI PUSH2 0xC47 PUSH2 0x26D2 JUMP JUMPDEST JUMPDEST SWAP1 PUSH1 0x0 MSTORE PUSH1 0x20 PUSH1 0x0 KECCAK256 SWAP1 PUSH1 0x2 MUL ADD PUSH1 0x0 ADD PUSH1 0x40 MLOAD PUSH2 0xC66 SWAP2 SWAP1 PUSH2 0x27F9 JUMP JUMPDEST SWAP1 DUP2 MSTORE PUSH1 0x20 ADD PUSH1 0x40 MLOAD DUP1 SWAP2 SUB SWAP1 KECCAK256 DUP1 SLOAD PUSH2 0xC7F SWAP1 PUSH2 0x2730 JUMP JUMPDEST DUP1 PUSH1 0x1F ADD PUSH1 0x20 DUP1 SWAP2 DIV MUL PUSH1 0x20 ADD PUSH1 0x40 MLOAD SWAP1 DUP2 ADD PUSH1 0x40 MSTORE DUP1 SWAP3 SWAP2 SWAP1 DUP2 DUP2 MSTORE PUSH1 0x20 ADD DUP3 DUP1 SLOAD PUSH2 0xCAB SWAP1 PUSH2 0x2730 JUMP JUMPDEST DUP1 ISZERO PUSH2 0xCF8 JUMPI DUP1 PUSH1 0x1F LT PUSH2 0xCCD JUMPI PUSH2 0x100 DUP1 DUP4 SLOAD DIV MUL DUP4 MSTORE SWAP2 PUSH1 0x20 ADD SWAP2 PUSH2 0xCF8 JUMP JUMPDEST DUP3 ADD SWAP2 SWAP1 PUSH1 0x0 MSTORE PUSH1 0x20 PUSH1 0x0 KECCAK256 SWAP1 JUMPDEST DUP2 SLOAD DUP2 MSTORE SWAP1 PUSH1 0x1 ADD SWAP1 PUSH1 0x20 ADD DUP1 DUP4 GT PUSH2 0xCDB JUMPI DUP3 SWAP1 SUB PUSH1 0x1F AND DUP3 ADD SWAP2 JUMPDEST POP POP POP POP POP SWAP2 POP POP PUSH2 0xD2C JUMP JUMPDEST DUP1 DUP1 PUSH2 0xD10 SWAP1 PUSH2 0x2B56 JUMP JUMPDEST SWAP2 POP POP PUSH2 0x955 JUMP JUMPDEST POP PUSH1 0x40 MLOAD DUP1 PUSH1 0x20 ADD PUSH1 0x40 MSTORE DUP1 PUSH1 0x0 DUP2 MSTORE POP SWAP1 POP JUMPDEST SWAP3 SWAP2 POP POP JUMP JUMPDEST PUSH2 0xD3A PUSH2 0x1C51 JUMP JUMPDEST PUSH1 0x40 MLOAD PUSH1 0x20 ADD PUSH2 0xD49 SWAP1 PUSH2 0x24F4 JUMP JUMPDEST PUSH1 0x40 MLOAD PUSH1 0x20 DUP2 DUP4 SUB SUB DUP2 MSTORE SWAP1 PUSH1 0x40 MSTORE DUP1 MLOAD SWAP1 PUSH1 0x20 ADD KECCAK256 PUSH1 0x4 PUSH1 0x0 SWAP1 SLOAD SWAP1 PUSH2 0x100 EXP SWAP1 DIV PUSH20 0xFFFFFFFFFFFFFFFFFFFFFFFFFFFFFFFFFFFFFFFF AND PUSH20 0xFFFFFFFFFFFFFFFFFFFFFFFFFFFFFFFFFFFFFFFF AND PUSH4 0x27820851 CALLER PUSH1 0x40 MLOAD DUP3 PUSH4 0xFFFFFFFF AND PUSH1 0xE0 SHL DUP2 MSTORE PUSH1 0x4 ADD PUSH2 0xDBA SWAP2 SWAP1 PUSH2 0x254A JUMP JUMPDEST PUSH1 0x0 PUSH1 0x40 MLOAD DUP1 DUP4 SUB DUP2 DUP7 GAS STATICCALL ISZERO DUP1 ISZERO PUSH2 0xDD7 JUMPI RETURNDATASIZE PUSH1 0x0 DUP1 RETURNDATACOPY RETURNDATASIZE PUSH1 0x0 REVERT JUMPDEST POP POP POP POP PUSH1 0x40 MLOAD RETURNDATASIZE PUSH1 0x0 DUP3 RETURNDATACOPY RETURNDATASIZE PUSH1 0x1F NOT PUSH1 0x1F DUP3 ADD AND DUP3 ADD DUP1 PUSH1 0x40 MSTORE POP DUP2 ADD SWAP1 PUSH2 0xE00 SWAP2 SWAP1 PUSH2 0x25D5 JUMP JUMPDEST PUSH1 0x40 MLOAD PUSH1 0x20 ADD PUSH2 0xE10 SWAP2 SWAP1 PUSH2 0x264F JUMP JUMPDEST PUSH1 0x40 MLOAD PUSH1 0x20 DUP2 DUP4 SUB SUB DUP2 MSTORE SWAP1 PUSH1 0x40 MSTORE DUP1 MLOAD SWAP1 PUSH1 0x20 ADD KECCAK256 SUB PUSH2 0xE66 JUMPI PUSH1 0x40 MLOAD PUSH32 0x8C379A000000000000000000000000000000000000000000000000000000000 DUP2 MSTORE PUSH1 0x4 ADD PUSH2 0xE5D SWAP1 PUSH2 0x26B2 JUMP JUMPDEST PUSH1 0x40 MLOAD DUP1 SWAP2 SUB SWAP1 REVERT JUMPDEST PUSH1 0x0 DUP3 PUSH1 0x40 MLOAD PUSH2 0xE76 SWAP2 SWAP1 PUSH2 0x264F JUMP JUMPDEST SWAP1 DUP2 MSTORE PUSH1 0x20 ADD PUSH1 0x40 MLOAD DUP1 SWAP2 SUB SWAP1 KECCAK256 PUSH1 0x40 MLOAD DUP1 PUSH1 0x40 ADD PUSH1 0x40 MSTORE SWAP1 DUP2 PUSH1 0x0 DUP3 ADD DUP1 SLOAD PUSH2 0xE9F SWAP1 PUSH2 0x2730 JUMP JUMPDEST DUP1 PUSH1 0x1F ADD PUSH1 0x20 DUP1 SWAP2 DIV MUL PUSH1 0x20 ADD PUSH1 0x40 MLOAD SWAP1 DUP2 ADD PUSH1 0x40 MSTORE DUP1 SWAP3 SWAP2 SWAP1 DUP2 DUP2 MSTORE PUSH1 0x20 ADD DUP3 DUP1 SLOAD PUSH2 0xECB SWAP1 PUSH2 0x2730 JUMP JUMPDEST DUP1 ISZERO PUSH2 0xF18 JUMPI DUP1 PUSH1 0x1F LT PUSH2 0xEED JUMPI PUSH2 0x100 DUP1 DUP4 SLOAD DIV MUL DUP4 MSTORE SWAP2 PUSH1 0x20 ADD SWAP2 PUSH2 0xF18 JUMP JUMPDEST DUP3 ADD SWAP2 SWAP1 PUSH1 0x0 MSTORE PUSH1 0x20 PUSH1 0x0 KECCAK256 SWAP1 JUMPDEST DUP2 SLOAD DUP2 MSTORE SWAP1 PUSH1 0x1 ADD SWAP1 PUSH1 0x20 ADD DUP1 DUP4 GT PUSH2 0xEFB JUMPI DUP3 SWAP1 SUB PUSH1 0x1F AND DUP3 ADD SWAP2 JUMPDEST POP POP POP POP POP DUP2 MSTORE PUSH1 0x20 ADD PUSH1 0x1 DUP3 ADD DUP1 SLOAD DUP1 PUSH1 0x20 MUL PUSH1 0x20 ADD PUSH1 0x40 MLOAD SWAP1 DUP2 ADD PUSH1 0x40 MSTORE DUP1 SWAP3 SWAP2 SWAP1 DUP2 DUP2 MSTORE PUSH1 0x20 ADD PUSH1 0x0 SWAP1 JUMPDEST DUP3 DUP3 LT ISZERO PUSH2 0x10E3 JUMPI DUP4 DUP3 SWAP1 PUSH1 0x0 MSTORE PUSH1 0x20 PUSH1 0x0 KECCAK256 SWAP1 PUSH1 0x2 MUL ADD PUSH1 0x40 MLOAD DUP1 PUSH1 0x40 ADD PUSH1 0x40 MSTORE SWAP1 DUP2 PUSH1 0x0 DUP3 ADD DUP1 SLOAD PUSH2 0xF79 SWAP1 PUSH2 0x2730 JUMP JUMPDEST DUP1 PUSH1 0x1F ADD PUSH1 0x20 DUP1 SWAP2 DIV MUL PUSH1 0x20 ADD PUSH1 0x40 MLOAD SWAP1 DUP2 ADD PUSH1 0x40 MSTORE DUP1 SWAP3 SWAP2 SWAP1 DUP2 DUP2 MSTORE PUSH1 0x20 ADD DUP3 DUP1 SLOAD PUSH2 0xFA5 SWAP1 PUSH2 0x2730 JUMP JUMPDEST DUP1 ISZERO PUSH2 0xFF2 JUMPI DUP1 PUSH1 0x1F LT PUSH2 0xFC7 JUMPI PUSH2 0x100 DUP1 DUP4 SLOAD DIV MUL DUP4 MSTORE SWAP2 PUSH1 0x20 ADD SWAP2 PUSH2 0xFF2 JUMP JUMPDEST DUP3 ADD SWAP2 SWAP1 PUSH1 0x0 MSTORE PUSH1 0x20 PUSH1 0x0 KECCAK256 SWAP1 JUMPDEST DUP2 SLOAD DUP2 MSTORE SWAP1 PUSH1 0x1 ADD SWAP1 PUSH1 0x20 ADD DUP1 DUP4 GT PUSH2 0xFD5 JUMPI DUP3 SWAP1 SUB PUSH1 0x1F AND DUP3 ADD SWAP2 JUMPDEST POP POP POP POP POP DUP2 MSTORE PUSH1 0x20 ADD PUSH1 0x1 DUP3 ADD DUP1 SLOAD DUP1 PUSH1 0x20 MUL PUSH1 0x20 ADD PUSH1 0x40 MLOAD SWAP1 DUP2 ADD PUSH1 0x40 MSTORE DUP1 SWAP3 SWAP2 SWAP1 DUP2 DUP2 MSTORE PUSH1 0x20 ADD PUSH1 0x0 SWAP1 JUMPDEST DUP3 DUP3 LT ISZERO PUSH2 0x10CC JUMPI DUP4 DUP3 SWAP1 PUSH1 0x0 MSTORE PUSH1 0x20 PUSH1 0x0 KECCAK256 ADD DUP1 SLOAD PUSH2 0x103F SWAP1 PUSH2 0x2730 JUMP JUMPDEST DUP1 PUSH1 0x1F ADD PUSH1 0x20 DUP1 SWAP2 DIV MUL PUSH1 0x20 ADD PUSH1 0x40 MLOAD SWAP1 DUP2 ADD PUSH1 0x40 MSTORE DUP1 SWAP3 SWAP2 SWAP1 DUP2 DUP2 MSTORE PUSH1 0x20 ADD DUP3 DUP1 SLOAD PUSH2 0x106B SWAP1 PUSH2 0x2730 JUMP JUMPDEST DUP1 ISZERO PUSH2 0x10B8 JUMPI DUP1 PUSH1 0x1F LT PUSH2 0x108D JUMPI PUSH2 0x100 DUP1 DUP4 SLOAD DIV MUL DUP4 MSTORE SWAP2 PUSH1 0x20 ADD SWAP2 PUSH2 0x10B8 JUMP JUMPDEST DUP3 ADD SWAP2 SWAP1 PUSH1 0x0 MSTORE PUSH1 0x20 PUSH1 0x0 KECCAK256 SWAP1 JUMPDEST DUP2 SLOAD DUP2 MSTORE SWAP1 PUSH1 0x1 ADD SWAP1 PUSH1 0x20 ADD DUP1 DUP4 GT PUSH2 0x109B JUMPI DUP3 SWAP1 SUB PUSH1 0x1F AND DUP3 ADD SWAP2 JUMPDEST POP POP POP POP POP DUP2 MSTORE PUSH1 0x20 ADD SWAP1 PUSH1 0x1 ADD SWAP1 PUSH2 0x1020 JUMP JUMPDEST POP POP POP POP DUP2 MSTORE POP POP DUP2 MSTORE PUSH1 0x20 ADD SWAP1 PUSH1 0x1 ADD SWAP1 PUSH2 0xF46 JUMP JUMPDEST POP POP POP POP DUP2 MSTORE POP POP SWAP1 POP SWAP2 SWAP1 POP JUMP JUMPDEST PUSH1 0x60 PUSH1 0x40 MLOAD PUSH1 0x20 ADD PUSH2 0x1103 SWAP1 PUSH2 0x24F4 JUMP JUMPDEST PUSH1 0x40 MLOAD PUSH1 0x20 DUP2 DUP4 SUB SUB DUP2 MSTORE SWAP1 PUSH1 0x40 MSTORE DUP1 MLOAD SWAP1 PUSH1 0x20 ADD KECCAK256 PUSH1 0x4 PUSH1 0x0 SWAP1 SLOAD SWAP1 PUSH2 0x100 EXP SWAP1 DIV PUSH20 0xFFFFFFFFFFFFFFFFFFFFFFFFFFFFFFFFFFFFFFFF AND PUSH20 0xFFFFFFFFFFFFFFFFFFFFFFFFFFFFFFFFFFFFFFFF AND PUSH4 0x27820851 CALLER PUSH1 0x40 MLOAD DUP3 PUSH4 0xFFFFFFFF AND PUSH1 0xE0 SHL DUP2 MSTORE PUSH1 0x4 ADD PUSH2 0x1174 SWAP2 SWAP1 PUSH2 0x254A JUMP JUMPDEST PUSH1 0x0 PUSH1 0x40 MLOAD DUP1 DUP4 SUB DUP2 DUP7 GAS STATICCALL ISZERO DUP1 ISZERO PUSH2 0x1191 JUMPI RETURNDATASIZE PUSH1 0x0 DUP1 RETURNDATACOPY RETURNDATASIZE PUSH1 0x0 REVERT JUMPDEST POP POP POP POP PUSH1 0x40 MLOAD RETURNDATASIZE PUSH1 0x0 DUP3 RETURNDATACOPY RETURNDATASIZE PUSH1 0x1F NOT PUSH1 0x1F DUP3 ADD AND DUP3 ADD DUP1 PUSH1 0x40 MSTORE POP DUP2 ADD SWAP1 PUSH2 0x11BA SWAP2 SWAP1 PUSH2 0x25D5 JUMP JUMPDEST PUSH1 0x40 MLOAD PUSH1 0x20 ADD PUSH2 0x11CA SWAP2 SWAP1 PUSH2 0x264F JUMP JUMPDEST PUSH1 0x40 MLOAD PUSH1 0x20 DUP2 DUP4 SUB SUB DUP2 MSTORE SWAP1 PUSH1 0x40 MSTORE DUP1 MLOAD SWAP1 PUSH1 0x20 ADD KECCAK256 SUB PUSH2 0x1220 JUMPI PUSH1 0x40 MLOAD PUSH32 0x8C379A000000000000000000000000000000000000000000000000000000000 DUP2 MSTORE PUSH1 0x4 ADD PUSH2 0x1217 SWAP1 PUSH2 0x26B2 JUMP JUMPDEST PUSH1 0x40 MLOAD DUP1 SWAP2 SUB SWAP1 REVERT JUMPDEST PUSH1 0x3 DUP1 SLOAD DUP1 PUSH1 0x20 MUL PUSH1 0x20 ADD PUSH1 0x40 MLOAD SWAP1 DUP2 ADD PUSH1 0x40 MSTORE DUP1 SWAP3 SWAP2 SWAP1 DUP2 DUP2 MSTORE PUSH1 0x20 ADD PUSH1 0x0 SWAP1 JUMPDEST DUP3 DUP3 LT ISZERO PUSH2 0x12EE JUMPI DUP4 DUP3 SWAP1 PUSH1 0x0 MSTORE PUSH1 0x20 PUSH1 0x0 KECCAK256 ADD DUP1 SLOAD PUSH2 0x1261 SWAP1 PUSH2 0x2730 JUMP JUMPDEST DUP1 PUSH1 0x1F ADD PUSH1 0x20 DUP1 SWAP2 DIV MUL PUSH1 0x20 ADD PUSH1 0x40 MLOAD SWAP1 DUP2 ADD PUSH1 0x40 MSTORE DUP1 SWAP3 SWAP2 SWAP1 DUP2 DUP2 MSTORE PUSH1 0x20 ADD DUP3 DUP1 SLOAD PUSH2 0x128D SWAP1 PUSH2 0x2730 JUMP JUMPDEST DUP1 ISZERO PUSH2 0x12DA JUMPI DUP1 PUSH1 0x1F LT PUSH2 0x12AF JUMPI PUSH2 0x100 DUP1 DUP4 SLOAD DIV MUL DUP4 MSTORE SWAP2 PUSH1 0x20 ADD SWAP2 PUSH2 0x12DA JUMP JUMPDEST DUP3 ADD SWAP2 SWAP1 PUSH1 0x0 MSTORE PUSH1 0x20 PUSH1 0x0 KECCAK256 SWAP1 JUMPDEST DUP2 SLOAD DUP2 MSTORE SWAP1 PUSH1 0x1 ADD SWAP1 PUSH1 0x20 ADD DUP1 DUP4 GT PUSH2 0x12BD JUMPI DUP3 SWAP1 SUB PUSH1 0x1F AND DUP3 ADD SWAP2 JUMPDEST POP POP POP POP POP DUP2 MSTORE PUSH1 0x20 ADD SWAP1 PUSH1 0x1 ADD SWAP1 PUSH2 0x1242 JUMP JUMPDEST POP POP POP POP SWAP1 POP SWAP1 JUMP JUMPDEST PUSH1 0x40 MLOAD PUSH1 0x20 ADD PUSH2 0x1306 SWAP1 PUSH2 0x24F4 JUMP JUMPDEST PUSH1 0x40 MLOAD PUSH1 0x20 DUP2 DUP4 SUB SUB DUP2 MSTORE SWAP1 PUSH1 0x40 MSTORE DUP1 MLOAD SWAP1 PUSH1 0x20 ADD KECCAK256 PUSH1 0x4 PUSH1 0x0 SWAP1 SLOAD SWAP1 PUSH2 0x100 EXP SWAP1 DIV PUSH20 0xFFFFFFFFFFFFFFFFFFFFFFFFFFFFFFFFFFFFFFFF AND PUSH20 0xFFFFFFFFFFFFFFFFFFFFFFFFFFFFFFFFFFFFFFFF AND PUSH4 0x27820851 CALLER PUSH1 0x40 MLOAD DUP3 PUSH4 0xFFFFFFFF AND PUSH1 0xE0 SHL DUP2 MSTORE PUSH1 0x4 ADD PUSH2 0x1377 SWAP2 SWAP1 PUSH2 0x254A JUMP JUMPDEST PUSH1 0x0 PUSH1 0x40 MLOAD DUP1 DUP4 SUB DUP2 DUP7 GAS STATICCALL ISZERO DUP1 ISZERO PUSH2 0x1394 JUMPI RETURNDATASIZE PUSH1 0x0 DUP1 RETURNDATACOPY RETURNDATASIZE PUSH1 0x0 REVERT JUMPDEST POP POP POP POP PUSH1 0x40 MLOAD RETURNDATASIZE PUSH1 0x0 DUP3 RETURNDATACOPY RETURNDATASIZE PUSH1 0x1F NOT PUSH1 0x1F DUP3 ADD AND DUP3 ADD DUP1 PUSH1 0x40 MSTORE POP DUP2 ADD SWAP1 PUSH2 0x13BD SWAP2 SWAP1 PUSH2 0x25D5 JUMP JUMPDEST PUSH1 0x40 MLOAD PUSH1 0x20 ADD PUSH2 0x13CD SWAP2 SWAP1 PUSH2 0x264F JUMP JUMPDEST PUSH1 0x40 MLOAD PUSH1 0x20 DUP2 DUP4 SUB SUB DUP2 MSTORE SWAP1 PUSH1 0x40 MSTORE DUP1 MLOAD SWAP1 PUSH1 0x20 ADD KECCAK256 SUB PUSH2 0x1423 JUMPI PUSH1 0x40 MLOAD PUSH32 0x8C379A000000000000000000000000000000000000000000000000000000000 DUP2 MSTORE PUSH1 0x4 ADD PUSH2 0x141A SWAP1 PUSH2 0x26B2 JUMP JUMPDEST PUSH1 0x40 MLOAD DUP1 SWAP2 SUB SWAP1 REVERT JUMPDEST PUSH1 0x0 JUMPDEST PUSH1 0x0 DUP3 PUSH1 0x40 MLOAD PUSH2 0x1436 SWAP2 SWAP1 PUSH2 0x264F JUMP JUMPDEST SWAP1 DUP2 MSTORE PUSH1 0x20 ADD PUSH1 0x40 MLOAD DUP1 SWAP2 SUB SWAP1 KECCAK256 PUSH1 0x1 ADD DUP1 SLOAD SWAP1 POP DUP2 LT ISZERO PUSH2 0x1843 JUMPI DUP3 PUSH1 0x40 MLOAD PUSH1 0x20 ADD PUSH2 0x1463 SWAP2 SWAP1 PUSH2 0x264F JUMP JUMPDEST PUSH1 0x40 MLOAD PUSH1 0x20 DUP2 DUP4 SUB SUB DUP2 MSTORE SWAP1 PUSH1 0x40 MSTORE DUP1 MLOAD SWAP1 PUSH1 0x20 ADD KECCAK256 PUSH1 0x0 DUP4 PUSH1 0x40 MLOAD PUSH2 0x1489 SWAP2 SWAP1 PUSH2 0x264F JUMP JUMPDEST SWAP1 DUP2 MSTORE PUSH1 0x20 ADD PUSH1 0x40 MLOAD DUP1 SWAP2 SUB SWAP1 KECCAK256 PUSH1 0x1 ADD DUP3 DUP2 SLOAD DUP2 LT PUSH2 0x14AC JUMPI PUSH2 0x14AB PUSH2 0x26D2 JUMP JUMPDEST JUMPDEST SWAP1 PUSH1 0x0 MSTORE PUSH1 0x20 PUSH1 0x0 KECCAK256 SWAP1 PUSH1 0x2 MUL ADD PUSH1 0x0 ADD PUSH1 0x40 MLOAD PUSH1 0x20 ADD PUSH2 0x14CD SWAP2 SWAP1 PUSH2 0x27F9 JUMP JUMPDEST PUSH1 0x40 MLOAD PUSH1 0x20 DUP2 DUP4 SUB SUB DUP2 MSTORE SWAP1 PUSH1 0x40 MSTORE DUP1 MLOAD SWAP1 PUSH1 0x20 ADD KECCAK256 SUB PUSH2 0x1830 JUMPI PUSH2 0x16A5 PUSH1 0x4 PUSH1 0x0 SWAP1 SLOAD SWAP1 PUSH2 0x100 EXP SWAP1 DIV PUSH20 0xFFFFFFFFFFFFFFFFFFFFFFFFFFFFFFFFFFFFFFFF AND PUSH20 0xFFFFFFFFFFFFFFFFFFFFFFFFFFFFFFFFFFFFFFFF AND PUSH4 0x27820851 CALLER PUSH1 0x40 MLOAD DUP3 PUSH4 0xFFFFFFFF AND PUSH1 0xE0 SHL DUP2 MSTORE PUSH1 0x4 ADD PUSH2 0x1546 SWAP2 SWAP1 PUSH2 0x254A JUMP JUMPDEST PUSH1 0x0 PUSH1 0x40 MLOAD DUP1 DUP4 SUB DUP2 DUP7 GAS STATICCALL ISZERO DUP1 ISZERO PUSH2 0x1563 JUMPI RETURNDATASIZE PUSH1 0x0 DUP1 RETURNDATACOPY RETURNDATASIZE PUSH1 0x0 REVERT JUMPDEST POP POP POP POP PUSH1 0x40 MLOAD RETURNDATASIZE PUSH1 0x0 DUP3 RETURNDATACOPY RETURNDATASIZE PUSH1 0x1F NOT PUSH1 0x1F DUP3 ADD AND DUP3 ADD DUP1 PUSH1 0x40 MSTORE POP DUP2 ADD SWAP1 PUSH2 0x158C SWAP2 SWAP1 PUSH2 0x25D5 JUMP JUMPDEST PUSH1 0x0 DUP5 PUSH1 0x40 MLOAD PUSH2 0x159C SWAP2 SWAP1 PUSH2 0x264F JUMP JUMPDEST SWAP1 DUP2 MSTORE PUSH1 0x20 ADD PUSH1 0x40 MLOAD DUP1 SWAP2 SUB SWAP1 KECCAK256 PUSH1 0x1 ADD DUP4 DUP2 SLOAD DUP2 LT PUSH2 0x15BF JUMPI PUSH2 0x15BE PUSH2 0x26D2 JUMP JUMPDEST JUMPDEST SWAP1 PUSH1 0x0 MSTORE PUSH1 0x20 PUSH1 0x0 KECCAK256 SWAP1 PUSH1 0x2 MUL ADD PUSH1 0x1 ADD DUP1 SLOAD DUP1 PUSH1 0x20 MUL PUSH1 0x20 ADD PUSH1 0x40 MLOAD SWAP1 DUP2 ADD PUSH1 0x40 MSTORE DUP1 SWAP3 SWAP2 SWAP1 DUP2 DUP2 MSTORE PUSH1 0x20 ADD PUSH1 0x0 SWAP1 JUMPDEST DUP3 DUP3 LT ISZERO PUSH2 0x169C JUMPI DUP4 DUP3 SWAP1 PUSH1 0x0 MSTORE PUSH1 0x20 PUSH1 0x0 KECCAK256 ADD DUP1 SLOAD PUSH2 0x160F SWAP1 PUSH2 0x2730 JUMP JUMPDEST DUP1 PUSH1 0x1F ADD PUSH1 0x20 DUP1 SWAP2 DIV MUL PUSH1 0x20 ADD PUSH1 0x40 MLOAD SWAP1 DUP2 ADD PUSH1 0x40 MSTORE DUP1 SWAP3 SWAP2 SWAP1 DUP2 DUP2 MSTORE PUSH1 0x20 ADD DUP3 DUP1 SLOAD PUSH2 0x163B SWAP1 PUSH2 0x2730 JUMP JUMPDEST DUP1 ISZERO PUSH2 0x1688 JUMPI DUP1 PUSH1 0x1F LT PUSH2 0x165D JUMPI PUSH2 0x100 DUP1 DUP4 SLOAD DIV MUL DUP4 MSTORE SWAP2 PUSH1 0x20 ADD SWAP2 PUSH2 0x1688 JUMP JUMPDEST DUP3 ADD SWAP2 SWAP1 PUSH1 0x0 MSTORE PUSH1 0x20 PUSH1 0x0 KECCAK256 SWAP1 JUMPDEST DUP2 SLOAD DUP2 MSTORE SWAP1 PUSH1 0x1 ADD SWAP1 PUSH1 0x20 ADD DUP1 DUP4 GT PUSH2 0x166B JUMPI DUP3 SWAP1 SUB PUSH1 0x1F AND DUP3 ADD SWAP2 JUMPDEST POP POP POP POP POP DUP2 MSTORE PUSH1 0x20 ADD SWAP1 PUSH1 0x1 ADD SWAP1 PUSH2 0x15F0 JUMP JUMPDEST POP POP POP POP PUSH2 0x1B11 JUMP JUMPDEST PUSH2 0x16E4 JUMPI PUSH1 0x40 MLOAD PUSH32 0x8C379A000000000000000000000000000000000000000000000000000000000 DUP2 MSTORE PUSH1 0x4 ADD PUSH2 0x16DB SWAP1 PUSH2 0x2E00 JUMP JUMPDEST PUSH1 0x40 MLOAD DUP1 SWAP2 SUB SWAP1 REVERT JUMPDEST PUSH1 0x0 DUP3 PUSH1 0x40 MLOAD PUSH2 0x16F4 SWAP2 SWAP1 PUSH2 0x264F JUMP JUMPDEST SWAP1 DUP2 MSTORE PUSH1 0x20 ADD PUSH1 0x40 MLOAD DUP1 SWAP2 SUB SWAP1 KECCAK256 PUSH1 0x1 ADD PUSH1 0x1 PUSH1 0x0 DUP5 PUSH1 0x40 MLOAD PUSH2 0x1717 SWAP2 SWAP1 PUSH2 0x264F JUMP JUMPDEST SWAP1 DUP2 MSTORE PUSH1 0x20 ADD PUSH1 0x40 MLOAD DUP1 SWAP2 SUB SWAP1 KECCAK256 PUSH1 0x1 ADD DUP1 SLOAD SWAP1 POP PUSH2 0x1736 SWAP2 SWAP1 PUSH2 0x2849 JUMP JUMPDEST DUP2 SLOAD DUP2 LT PUSH2 0x1747 JUMPI PUSH2 0x1746 PUSH2 0x26D2 JUMP JUMPDEST JUMPDEST SWAP1 PUSH1 0x0 MSTORE PUSH1 0x20 PUSH1 0x0 KECCAK256 SWAP1 PUSH1 0x2 MUL ADD PUSH1 0x0 DUP4 PUSH1 0x40 MLOAD PUSH2 0x1765 SWAP2 SWAP1 PUSH2 0x264F JUMP JUMPDEST SWAP1 DUP2 MSTORE PUSH1 0x20 ADD PUSH1 0x40 MLOAD DUP1 SWAP2 SUB SWAP1 KECCAK256 PUSH1 0x1 ADD DUP3 DUP2 SLOAD DUP2 LT PUSH2 0x1788 JUMPI PUSH2 0x1787 PUSH2 0x26D2 JUMP JUMPDEST JUMPDEST SWAP1 PUSH1 0x0 MSTORE PUSH1 0x20 PUSH1 0x0 KECCAK256 SWAP1 PUSH1 0x2 MUL ADD PUSH1 0x0 DUP3 ADD DUP2 PUSH1 0x0 ADD SWAP1 DUP2 PUSH2 0x17AA SWAP2 SWAP1 PUSH2 0x2E36 JUMP JUMPDEST POP PUSH1 0x1 DUP3 ADD DUP2 PUSH1 0x1 ADD SWAP1 DUP1 SLOAD PUSH2 0x17C1 SWAP3 SWAP2 SWAP1 PUSH2 0x1C6B JUMP JUMPDEST POP SWAP1 POP POP PUSH1 0x0 DUP3 PUSH1 0x40 MLOAD PUSH2 0x17D5 SWAP2 SWAP1 PUSH2 0x264F JUMP JUMPDEST SWAP1 DUP2 MSTORE PUSH1 0x20 ADD PUSH1 0x40 MLOAD DUP1 SWAP2 SUB SWAP1 KECCAK256 PUSH1 0x1 ADD DUP1 SLOAD DUP1 PUSH2 0x17F6 JUMPI PUSH2 0x17F5 PUSH2 0x2B27 JUMP JUMPDEST JUMPDEST PUSH1 0x1 SWAP1 SUB DUP2 DUP2 SWAP1 PUSH1 0x0 MSTORE PUSH1 0x20 PUSH1 0x0 KECCAK256 SWAP1 PUSH1 0x2 MUL ADD PUSH1 0x0 DUP1 DUP3 ADD PUSH1 0x0 PUSH2 0x181B SWAP2 SWAP1 PUSH2 0x1BB8 JUMP JUMPDEST PUSH1 0x1 DUP3 ADD PUSH1 0x0 PUSH2 0x182B SWAP2 SWAP1 PUSH2 0x1CC8 JUMP JUMPDEST POP POP SWAP1 SSTORE JUMPDEST DUP1 DUP1 PUSH2 0x183B SWAP1 PUSH2 0x2B56 JUMP JUMPDEST SWAP2 POP POP PUSH2 0x1426 JUMP JUMPDEST POP POP POP JUMP JUMPDEST PUSH1 0x0 PUSH1 0x40 MLOAD PUSH1 0x20 ADD PUSH2 0x1859 SWAP1 PUSH2 0x24F4 JUMP JUMPDEST PUSH1 0x40 MLOAD PUSH1 0x20 DUP2 DUP4 SUB SUB DUP2 MSTORE SWAP1 PUSH1 0x40 MSTORE DUP1 MLOAD SWAP1 PUSH1 0x20 ADD KECCAK256 PUSH1 0x4 PUSH1 0x0 SWAP1 SLOAD SWAP1 PUSH2 0x100 EXP SWAP1 DIV PUSH20 0xFFFFFFFFFFFFFFFFFFFFFFFFFFFFFFFFFFFFFFFF AND PUSH20 0xFFFFFFFFFFFFFFFFFFFFFFFFFFFFFFFFFFFFFFFF AND PUSH4 0x27820851 CALLER PUSH1 0x40 MLOAD DUP3 PUSH4 0xFFFFFFFF AND PUSH1 0xE0 SHL DUP2 MSTORE PUSH1 0x4 ADD PUSH2 0x18CA SWAP2 SWAP1 PUSH2 0x254A JUMP JUMPDEST PUSH1 0x0 PUSH1 0x40 MLOAD DUP1 DUP4 SUB DUP2 DUP7 GAS STATICCALL ISZERO DUP1 ISZERO PUSH2 0x18E7 JUMPI RETURNDATASIZE PUSH1 0x0 DUP1 RETURNDATACOPY RETURNDATASIZE PUSH1 0x0 REVERT JUMPDEST POP POP POP POP PUSH1 0x40 MLOAD RETURNDATASIZE PUSH1 0x0 DUP3 RETURNDATACOPY RETURNDATASIZE PUSH1 0x1F NOT PUSH1 0x1F DUP3 ADD AND DUP3 ADD DUP1 PUSH1 0x40 MSTORE POP DUP2 ADD SWAP1 PUSH2 0x1910 SWAP2 SWAP1 PUSH2 0x25D5 JUMP JUMPDEST PUSH1 0x40 MLOAD PUSH1 0x20 ADD PUSH2 0x1920 SWAP2 SWAP1 PUSH2 0x264F JUMP JUMPDEST PUSH1 0x40 MLOAD PUSH1 0x20 DUP2 DUP4 SUB SUB DUP2 MSTORE SWAP1 PUSH1 0x40 MSTORE DUP1 MLOAD SWAP1 PUSH1 0x20 ADD KECCAK256 SUB PUSH2 0x1976 JUMPI PUSH1 0x40 MLOAD PUSH32 0x8C379A000000000000000000000000000000000000000000000000000000000 DUP2 MSTORE PUSH1 0x4 ADD PUSH2 0x196D SWAP1 PUSH2 0x26B2 JUMP JUMPDEST PUSH1 0x40 MLOAD DUP1 SWAP2 SUB SWAP1 REVERT JUMPDEST PUSH1 0x0 JUMPDEST PUSH1 0x3 DUP1 SLOAD SWAP1 POP DUP2 LT ISZERO PUSH2 0x1A13 JUMPI DUP3 PUSH1 0x40 MLOAD PUSH1 0x20 ADD PUSH2 0x1997 SWAP2 SWAP1 PUSH2 0x264F JUMP JUMPDEST PUSH1 0x40 MLOAD PUSH1 0x20 DUP2 DUP4 SUB SUB DUP2 MSTORE SWAP1 PUSH1 0x40 MSTORE DUP1 MLOAD SWAP1 PUSH1 0x20 ADD KECCAK256 PUSH1 0x3 DUP3 DUP2 SLOAD DUP2 LT PUSH2 0x19C1 JUMPI PUSH2 0x19C0 PUSH2 0x26D2 JUMP JUMPDEST JUMPDEST SWAP1 PUSH1 0x0 MSTORE PUSH1 0x20 PUSH1 0x0 KECCAK256 ADD PUSH1 0x40 MLOAD PUSH1 0x20 ADD PUSH2 0x19DB SWAP2 SWAP1 PUSH2 0x27F9 JUMP JUMPDEST PUSH1 0x40 MLOAD PUSH1 0x20 DUP2 DUP4 SUB SUB DUP2 MSTORE SWAP1 PUSH1 0x40 MSTORE DUP1 MLOAD SWAP1 PUSH1 0x20 ADD KECCAK256 SUB PUSH2 0x1A00 JUMPI PUSH1 0x1 SWAP2 POP POP PUSH2 0x1A19 JUMP JUMPDEST DUP1 DUP1 PUSH2 0x1A0B SWAP1 PUSH2 0x2B56 JUMP JUMPDEST SWAP2 POP POP PUSH2 0x1979 JUMP JUMPDEST POP PUSH1 0x0 SWAP1 POP JUMPDEST SWAP2 SWAP1 POP JUMP JUMPDEST PUSH1 0x0 DUP1 PUSH1 0x0 SWAP1 POP JUMPDEST PUSH1 0x0 DUP4 PUSH1 0x40 MLOAD PUSH2 0x1A36 SWAP2 SWAP1 PUSH2 0x264F JUMP JUMPDEST SWAP1 DUP2 MSTORE PUSH1 0x20 ADD PUSH1 0x40 MLOAD DUP1 SWAP2 SUB SWAP1 KECCAK256 PUSH1 0x1 ADD DUP1 SLOAD SWAP1 POP DUP2 LT ISZERO PUSH2 0x1B05 JUMPI DUP4 PUSH1 0x40 MLOAD PUSH1 0x20 ADD PUSH2 0x1A63 SWAP2 SWAP1 PUSH2 0x264F JUMP JUMPDEST PUSH1 0x40 MLOAD PUSH1 0x20 DUP2 DUP4 SUB SUB DUP2 MSTORE SWAP1 PUSH1 0x40 MSTORE DUP1 MLOAD SWAP1 PUSH1 0x20 ADD KECCAK256 PUSH1 0x0 DUP5 PUSH1 0x40 MLOAD PUSH2 0x1A89 SWAP2 SWAP1 PUSH2 0x264F JUMP JUMPDEST SWAP1 DUP2 MSTORE PUSH1 0x20 ADD PUSH1 0x40 MLOAD DUP1 SWAP2 SUB SWAP1 KECCAK256 PUSH1 0x1 ADD DUP3 DUP2 SLOAD DUP2 LT PUSH2 0x1AAC JUMPI PUSH2 0x1AAB PUSH2 0x26D2 JUMP JUMPDEST JUMPDEST SWAP1 PUSH1 0x0 MSTORE PUSH1 0x20 PUSH1 0x0 KECCAK256 SWAP1 PUSH1 0x2 MUL ADD PUSH1 0x0 ADD PUSH1 0x40 MLOAD PUSH1 0x20 ADD PUSH2 0x1ACD SWAP2 SWAP1 PUSH2 0x27F9 JUMP JUMPDEST PUSH1 0x40 MLOAD PUSH1 0x20 DUP2 DUP4 SUB SUB DUP2 MSTORE SWAP1 PUSH1 0x40 MSTORE DUP1 MLOAD SWAP1 PUSH1 0x20 ADD KECCAK256 SUB PUSH2 0x1AF2 JUMPI PUSH1 0x1 SWAP2 POP POP PUSH2 0x1B0B JUMP JUMPDEST DUP1 DUP1 PUSH2 0x1AFD SWAP1 PUSH2 0x2B56 JUMP JUMPDEST SWAP2 POP POP PUSH2 0x1A26 JUMP JUMPDEST POP PUSH1 0x0 SWAP1 POP JUMPDEST SWAP3 SWAP2 POP POP JUMP JUMPDEST PUSH1 0x0 DUP1 PUSH1 0x0 SWAP1 POP JUMPDEST DUP3 MLOAD DUP2 LT ISZERO PUSH2 0x1BAC JUMPI DUP4 PUSH1 0x40 MLOAD PUSH1 0x20 ADD PUSH2 0x1B33 SWAP2 SWAP1 PUSH2 0x264F JUMP JUMPDEST PUSH1 0x40 MLOAD PUSH1 0x20 DUP2 DUP4 SUB SUB DUP2 MSTORE SWAP1 PUSH1 0x40 MSTORE DUP1 MLOAD SWAP1 PUSH1 0x20 ADD KECCAK256 DUP4 DUP3 DUP2 MLOAD DUP2 LT PUSH2 0x1B5C JUMPI PUSH2 0x1B5B PUSH2 0x26D2 JUMP JUMPDEST JUMPDEST PUSH1 0x20 MUL PUSH1 0x20 ADD ADD MLOAD PUSH1 0x40 MLOAD PUSH1 0x20 ADD PUSH2 0x1B74 SWAP2 SWAP1 PUSH2 0x264F JUMP JUMPDEST PUSH1 0x40 MLOAD PUSH1 0x20 DUP2 DUP4 SUB SUB DUP2 MSTORE SWAP1 PUSH1 0x40 MSTORE DUP1 MLOAD SWAP1 PUSH1 0x20 ADD KECCAK256 SUB PUSH2 0x1B99 JUMPI PUSH1 0x1 SWAP2 POP POP PUSH2 0x1BB2 JUMP JUMPDEST DUP1 DUP1 PUSH2 0x1BA4 SWAP1 PUSH2 0x2B56 JUMP JUMPDEST SWAP2 POP POP PUSH2 0x1B19 JUMP JUMPDEST POP PUSH1 0x0 SWAP1 POP JUMPDEST SWAP3 SWAP2 POP POP JUMP JUMPDEST POP DUP1 SLOAD PUSH2 0x1BC4 SWAP1 PUSH2 0x2730 JUMP JUMPDEST PUSH1 0x0 DUP3 SSTORE DUP1 PUSH1 0x1F LT PUSH2 0x1BD6 JUMPI POP PUSH2 0x1BF5 JUMP JUMPDEST PUSH1 0x1F ADD PUSH1 0x20 SWAP1 DIV SWAP1 PUSH1 0x0 MSTORE PUSH1 0x20 PUSH1 0x0 KECCAK256 SWAP1 DUP2 ADD SWAP1 PUSH2 0x1BF4 SWAP2 SWAP1 PUSH2 0x1CE9 JUMP JUMPDEST JUMPDEST POP JUMP JUMPDEST DUP3 DUP1 SLOAD DUP3 DUP3 SSTORE SWAP1 PUSH1 0x0 MSTORE PUSH1 0x20 PUSH1 0x0 KECCAK256 SWAP1 DUP2 ADD SWAP3 DUP3 ISZERO PUSH2 0x1C40 JUMPI SWAP2 PUSH1 0x20 MUL DUP3 ADD JUMPDEST DUP3 DUP2 GT ISZERO PUSH2 0x1C3F JUMPI DUP3 MLOAD DUP3 SWAP1 DUP2 PUSH2 0x1C2F SWAP2 SWAP1 PUSH2 0x2C76 JUMP JUMPDEST POP SWAP2 PUSH1 0x20 ADD SWAP2 SWAP1 PUSH1 0x1 ADD SWAP1 PUSH2 0x1C18 JUMP JUMPDEST JUMPDEST POP SWAP1 POP PUSH2 0x1C4D SWAP2 SWAP1 PUSH2 0x1D06 JUMP JUMPDEST POP SWAP1 JUMP JUMPDEST PUSH1 0x40 MLOAD DUP1 PUSH1 0x40 ADD PUSH1 0x40 MSTORE DUP1 PUSH1 0x60 DUP2 MSTORE PUSH1 0x20 ADD PUSH1 0x60 DUP2 MSTORE POP SWAP1 JUMP JUMPDEST DUP3 DUP1 SLOAD DUP3 DUP3 SSTORE SWAP1 PUSH1 0x0 MSTORE PUSH1 0x20 PUSH1 0x0 KECCAK256 SWAP1 DUP2 ADD SWAP3 DUP3 ISZERO PUSH2 0x1CB7 JUMPI PUSH1 0x0 MSTORE PUSH1 0x20 PUSH1 0x0 KECCAK256 SWAP2 DUP3 ADD JUMPDEST DUP3 DUP2 GT ISZERO PUSH2 0x1CB6 JUMPI DUP3 DUP3 SWAP1 DUP2 PUSH2 0x1CA6 SWAP2 SWAP1 PUSH2 0x2E36 JUMP JUMPDEST POP SWAP2 PUSH1 0x1 ADD SWAP2 SWAP1 PUSH1 0x1 ADD SWAP1 PUSH2 0x1C90 JUMP JUMPDEST JUMPDEST POP SWAP1 POP PUSH2 0x1CC4 SWAP2 SWAP1 PUSH2 0x1D06 JUMP JUMPDEST POP SWAP1 JUMP JUMPDEST POP DUP1 SLOAD PUSH1 0x0 DUP3 SSTORE SWAP1 PUSH1 0x0 MSTORE PUSH1 0x20 PUSH1 0x0 KECCAK256 SWAP1 DUP2 ADD SWAP1 PUSH2 0x1CE6 SWAP2 SWAP1 PUSH2 0x1D06 JUMP JUMPDEST POP JUMP JUMPDEST JUMPDEST DUP1 DUP3 GT ISZERO PUSH2 0x1D02 JUMPI PUSH1 0x0 DUP2 PUSH1 0x0 SWAP1 SSTORE POP PUSH1 0x1 ADD PUSH2 0x1CEA JUMP JUMPDEST POP SWAP1 JUMP JUMPDEST JUMPDEST DUP1 DUP3 GT ISZERO PUSH2 0x1D26 JUMPI PUSH1 0x0 DUP2 DUP2 PUSH2 0x1D1D SWAP2 SWAP1 PUSH2 0x1BB8 JUMP JUMPDEST POP PUSH1 0x1 ADD PUSH2 0x1D07 JUMP JUMPDEST POP SWAP1 JUMP JUMPDEST PUSH1 0x0 PUSH1 0x40 MLOAD SWAP1 POP SWAP1 JUMP JUMPDEST PUSH1 0x0 DUP1 REVERT JUMPDEST PUSH1 0x0 DUP1 REVERT JUMPDEST PUSH1 0x0 DUP1 REVERT JUMPDEST PUSH1 0x0 DUP1 REVERT JUMPDEST PUSH1 0x0 PUSH1 0x1F NOT PUSH1 0x1F DUP4 ADD AND SWAP1 POP SWAP2 SWAP1 POP JUMP JUMPDEST PUSH32 0x4E487B7100000000000000000000000000000000000000000000000000000000 PUSH1 0x0 MSTORE PUSH1 0x41 PUSH1 0x4 MSTORE PUSH1 0x24 PUSH1 0x0 REVERT JUMPDEST PUSH2 0x1D91 DUP3 PUSH2 0x1D48 JUMP JUMPDEST DUP2 ADD DUP2 DUP2 LT PUSH8 0xFFFFFFFFFFFFFFFF DUP3 GT OR ISZERO PUSH2 0x1DB0 JUMPI PUSH2 0x1DAF PUSH2 0x1D59 JUMP JUMPDEST JUMPDEST DUP1 PUSH1 0x40 MSTORE POP POP POP JUMP JUMPDEST PUSH1 0x0 PUSH2 0x1DC3 PUSH2 0x1D2A JUMP JUMPDEST SWAP1 POP PUSH2 0x1DCF DUP3 DUP3 PUSH2 0x1D88 JUMP JUMPDEST SWAP2 SWAP1 POP JUMP JUMPDEST PUSH1 0x0 PUSH8 0xFFFFFFFFFFFFFFFF DUP3 GT ISZERO PUSH2 0x1DEF JUMPI PUSH2 0x1DEE PUSH2 0x1D59 JUMP JUMPDEST JUMPDEST PUSH2 0x1DF8 DUP3 PUSH2 0x1D48 JUMP JUMPDEST SWAP1 POP PUSH1 0x20 DUP2 ADD SWAP1 POP SWAP2 SWAP1 POP JUMP JUMPDEST DUP3 DUP2 DUP4 CALLDATACOPY PUSH1 0x0 DUP4 DUP4 ADD MSTORE POP POP POP JUMP JUMPDEST PUSH1 0x0 PUSH2 0x1E27 PUSH2 0x1E22 DUP5 PUSH2 0x1DD4 JUMP JUMPDEST PUSH2 0x1DB9 JUMP JUMPDEST SWAP1 POP DUP3 DUP2 MSTORE PUSH1 0x20 DUP2 ADD DUP5 DUP5 DUP5 ADD GT ISZERO PUSH2 0x1E43 JUMPI PUSH2 0x1E42 PUSH2 0x1D43 JUMP JUMPDEST JUMPDEST PUSH2 0x1E4E DUP5 DUP3 DUP6 PUSH2 0x1E05 JUMP JUMPDEST POP SWAP4 SWAP3 POP POP POP JUMP JUMPDEST PUSH1 0x0 DUP3 PUSH1 0x1F DUP4 ADD SLT PUSH2 0x1E6B JUMPI PUSH2 0x1E6A PUSH2 0x1D3E JUMP JUMPDEST JUMPDEST DUP2 CALLDATALOAD PUSH2 0x1E7B DUP5 DUP3 PUSH1 0x20 DUP7 ADD PUSH2 0x1E14 JUMP JUMPDEST SWAP2 POP POP SWAP3 SWAP2 POP POP JUMP JUMPDEST PUSH1 0x0 PUSH1 0x20 DUP3 DUP5 SUB SLT ISZERO PUSH2 0x1E9A JUMPI PUSH2 0x1E99 PUSH2 0x1D34 JUMP JUMPDEST JUMPDEST PUSH1 0x0 DUP3 ADD CALLDATALOAD PUSH8 0xFFFFFFFFFFFFFFFF DUP2 GT ISZERO PUSH2 0x1EB8 JUMPI PUSH2 0x1EB7 PUSH2 0x1D39 JUMP JUMPDEST JUMPDEST PUSH2 0x1EC4 DUP5 DUP3 DUP6 ADD PUSH2 0x1E56 JUMP JUMPDEST SWAP2 POP POP SWAP3 SWAP2 POP POP JUMP JUMPDEST PUSH1 0x0 PUSH8 0xFFFFFFFFFFFFFFFF DUP3 GT ISZERO PUSH2 0x1EE8 JUMPI PUSH2 0x1EE7 PUSH2 0x1D59 JUMP JUMPDEST JUMPDEST PUSH1 0x20 DUP3 MUL SWAP1 POP PUSH1 0x20 DUP2 ADD SWAP1 POP SWAP2 SWAP1 POP JUMP JUMPDEST PUSH1 0x0 DUP1 REVERT JUMPDEST PUSH1 0x0 PUSH2 0x1F11 PUSH2 0x1F0C DUP5 PUSH2 0x1ECD JUMP JUMPDEST PUSH2 0x1DB9 JUMP JUMPDEST SWAP1 POP DUP1 DUP4 DUP3 MSTORE PUSH1 0x20 DUP3 ADD SWAP1 POP PUSH1 0x20 DUP5 MUL DUP4 ADD DUP6 DUP2 GT ISZERO PUSH2 0x1F34 JUMPI PUSH2 0x1F33 PUSH2 0x1EF9 JUMP JUMPDEST JUMPDEST DUP4 JUMPDEST DUP2 DUP2 LT ISZERO PUSH2 0x1F7B JUMPI DUP1 CALLDATALOAD PUSH8 0xFFFFFFFFFFFFFFFF DUP2 GT ISZERO PUSH2 0x1F59 JUMPI PUSH2 0x1F58 PUSH2 0x1D3E JUMP JUMPDEST JUMPDEST DUP1 DUP7 ADD PUSH2 0x1F66 DUP10 DUP3 PUSH2 0x1E56 JUMP JUMPDEST DUP6 MSTORE PUSH1 0x20 DUP6 ADD SWAP5 POP POP POP PUSH1 0x20 DUP2 ADD SWAP1 POP PUSH2 0x1F36 JUMP JUMPDEST POP POP POP SWAP4 SWAP3 POP POP POP JUMP JUMPDEST PUSH1 0x0 DUP3 PUSH1 0x1F DUP4 ADD SLT PUSH2 0x1F9A JUMPI PUSH2 0x1F99 PUSH2 0x1D3E JUMP JUMPDEST JUMPDEST DUP2 CALLDATALOAD PUSH2 0x1FAA DUP5 DUP3 PUSH1 0x20 DUP7 ADD PUSH2 0x1EFE JUMP JUMPDEST SWAP2 POP POP SWAP3 SWAP2 POP POP JUMP JUMPDEST PUSH1 0x0 DUP1 PUSH1 0x0 DUP1 PUSH1 0x80 DUP6 DUP8 SUB SLT ISZERO PUSH2 0x1FCD JUMPI PUSH2 0x1FCC PUSH2 0x1D34 JUMP JUMPDEST JUMPDEST PUSH1 0x0 DUP6 ADD CALLDATALOAD PUSH8 0xFFFFFFFFFFFFFFFF DUP2 GT ISZERO PUSH2 0x1FEB JUMPI PUSH2 0x1FEA PUSH2 0x1D39 JUMP JUMPDEST JUMPDEST PUSH2 0x1FF7 DUP8 DUP3 DUP9 ADD PUSH2 0x1E56 JUMP JUMPDEST SWAP5 POP POP PUSH1 0x20 DUP6 ADD CALLDATALOAD PUSH8 0xFFFFFFFFFFFFFFFF DUP2 GT ISZERO PUSH2 0x2018 JUMPI PUSH2 0x2017 PUSH2 0x1D39 JUMP JUMPDEST JUMPDEST PUSH2 0x2024 DUP8 DUP3 DUP9 ADD PUSH2 0x1E56 JUMP JUMPDEST SWAP4 POP POP PUSH1 0x40 DUP6 ADD CALLDATALOAD PUSH8 0xFFFFFFFFFFFFFFFF DUP2 GT ISZERO PUSH2 0x2045 JUMPI PUSH2 0x2044 PUSH2 0x1D39 JUMP JUMPDEST JUMPDEST PUSH2 0x2051 DUP8 DUP3 DUP9 ADD PUSH2 0x1E56 JUMP JUMPDEST SWAP3 POP POP PUSH1 0x60 DUP6 ADD CALLDATALOAD PUSH8 0xFFFFFFFFFFFFFFFF DUP2 GT ISZERO PUSH2 0x2072 JUMPI PUSH2 0x2071 PUSH2 0x1D39 JUMP JUMPDEST JUMPDEST PUSH2 0x207E DUP8 DUP3 DUP9 ADD PUSH2 0x1F85 JUMP JUMPDEST SWAP2 POP POP SWAP3 SWAP6 SWAP2 SWAP5 POP SWAP3 POP JUMP JUMPDEST PUSH1 0x0 DUP1 PUSH1 0x40 DUP4 DUP6 SUB SLT ISZERO PUSH2 0x20A1 JUMPI PUSH2 0x20A0 PUSH2 0x1D34 JUMP JUMPDEST JUMPDEST PUSH1 0x0 DUP4 ADD CALLDATALOAD PUSH8 0xFFFFFFFFFFFFFFFF DUP2 GT ISZERO PUSH2 0x20BF JUMPI PUSH2 0x20BE PUSH2 0x1D39 JUMP JUMPDEST JUMPDEST PUSH2 0x20CB DUP6 DUP3 DUP7 ADD PUSH2 0x1E56 JUMP JUMPDEST SWAP3 POP POP PUSH1 0x20 DUP4 ADD CALLDATALOAD PUSH8 0xFFFFFFFFFFFFFFFF DUP2 GT ISZERO PUSH2 0x20EC JUMPI PUSH2 0x20EB PUSH2 0x1D39 JUMP JUMPDEST JUMPDEST PUSH2 0x20F8 DUP6 DUP3 DUP7 ADD PUSH2 0x1E56 JUMP JUMPDEST SWAP2 POP POP SWAP3 POP SWAP3 SWAP1 POP JUMP JUMPDEST PUSH1 0x0 DUP2 MLOAD SWAP1 POP SWAP2 SWAP1 POP JUMP JUMPDEST PUSH1 0x0 DUP3 DUP3 MSTORE PUSH1 0x20 DUP3 ADD SWAP1 POP SWAP3 SWAP2 POP POP JUMP JUMPDEST PUSH1 0x0 JUMPDEST DUP4 DUP2 LT ISZERO PUSH2 0x213C JUMPI DUP1 DUP3 ADD MLOAD DUP2 DUP5 ADD MSTORE PUSH1 0x20 DUP2 ADD SWAP1 POP PUSH2 0x2121 JUMP JUMPDEST PUSH1 0x0 DUP5 DUP5 ADD MSTORE POP POP POP POP JUMP JUMPDEST PUSH1 0x0 PUSH2 0x2153 DUP3 PUSH2 0x2102 JUMP JUMPDEST PUSH2 0x215D DUP2 DUP6 PUSH2 0x210D JUMP JUMPDEST SWAP4 POP PUSH2 0x216D DUP2 DUP6 PUSH1 0x20 DUP7 ADD PUSH2 0x211E JUMP JUMPDEST PUSH2 0x2176 DUP2 PUSH2 0x1D48 JUMP JUMPDEST DUP5 ADD SWAP2 POP POP SWAP3 SWAP2 POP POP JUMP JUMPDEST PUSH1 0x0 PUSH1 0x20 DUP3 ADD SWAP1 POP DUP2 DUP2 SUB PUSH1 0x0 DUP4 ADD MSTORE PUSH2 0x219B DUP2 DUP5 PUSH2 0x2148 JUMP JUMPDEST SWAP1 POP SWAP3 SWAP2 POP POP JUMP JUMPDEST PUSH1 0x0 DUP3 DUP3 MSTORE PUSH1 0x20 DUP3 ADD SWAP1 POP SWAP3 SWAP2 POP POP JUMP JUMPDEST PUSH1 0x0 PUSH2 0x21BF DUP3 PUSH2 0x2102 JUMP JUMPDEST PUSH2 0x21C9 DUP2 DUP6 PUSH2 0x21A3 JUMP JUMPDEST SWAP4 POP PUSH2 0x21D9 DUP2 DUP6 PUSH1 0x20 DUP7 ADD PUSH2 0x211E JUMP JUMPDEST PUSH2 0x21E2 DUP2 PUSH2 0x1D48 JUMP JUMPDEST DUP5 ADD SWAP2 POP POP SWAP3 SWAP2 POP POP JUMP JUMPDEST PUSH1 0x0 DUP2 MLOAD SWAP1 POP SWAP2 SWAP1 POP JUMP JUMPDEST PUSH1 0x0 DUP3 DUP3 MSTORE PUSH1 0x20 DUP3 ADD SWAP1 POP SWAP3 SWAP2 POP POP JUMP JUMPDEST PUSH1 0x0 DUP2 SWAP1 POP PUSH1 0x20 DUP3 ADD SWAP1 POP SWAP2 SWAP1 POP JUMP JUMPDEST PUSH1 0x0 DUP2 MLOAD SWAP1 POP SWAP2 SWAP1 POP JUMP JUMPDEST PUSH1 0x0 DUP3 DUP3 MSTORE PUSH1 0x20 DUP3 ADD SWAP1 POP SWAP3 SWAP2 POP POP JUMP JUMPDEST PUSH1 0x0 DUP2 SWAP1 POP PUSH1 0x20 DUP3 ADD SWAP1 POP SWAP2 SWAP1 POP JUMP JUMPDEST PUSH1 0x0 PUSH2 0x2251 DUP4 DUP4 PUSH2 0x21B4 JUMP JUMPDEST SWAP1 POP SWAP3 SWAP2 POP POP JUMP JUMPDEST PUSH1 0x0 PUSH1 0x20 DUP3 ADD SWAP1 POP SWAP2 SWAP1 POP JUMP JUMPDEST PUSH1 0x0 PUSH2 0x2271 DUP3 PUSH2 0x2219 JUMP JUMPDEST PUSH2 0x227B DUP2 DUP6 PUSH2 0x2224 JUMP JUMPDEST SWAP4 POP DUP4 PUSH1 0x20 DUP3 MUL DUP6 ADD PUSH2 0x228D DUP6 PUSH2 0x2235 JUMP JUMPDEST DUP1 PUSH1 0x0 JUMPDEST DUP6 DUP2 LT ISZERO PUSH2 0x22C9 JUMPI DUP5 DUP5 SUB DUP10 MSTORE DUP2 MLOAD PUSH2 0x22AA DUP6 DUP3 PUSH2 0x2245 JUMP JUMPDEST SWAP5 POP PUSH2 0x22B5 DUP4 PUSH2 0x2259 JUMP JUMPDEST SWAP3 POP PUSH1 0x20 DUP11 ADD SWAP10 POP POP PUSH1 0x1 DUP2 ADD SWAP1 POP PUSH2 0x2291 JUMP JUMPDEST POP DUP3 SWAP8 POP DUP8 SWAP6 POP POP POP POP POP POP SWAP3 SWAP2 POP POP JUMP JUMPDEST PUSH1 0x0 PUSH1 0x40 DUP4 ADD PUSH1 0x0 DUP4 ADD MLOAD DUP5 DUP3 SUB PUSH1 0x0 DUP7 ADD MSTORE PUSH2 0x22F8 DUP3 DUP3 PUSH2 0x21B4 JUMP JUMPDEST SWAP2 POP POP PUSH1 0x20 DUP4 ADD MLOAD DUP5 DUP3 SUB PUSH1 0x20 DUP7 ADD MSTORE PUSH2 0x2312 DUP3 DUP3 PUSH2 0x2266 JUMP JUMPDEST SWAP2 POP POP DUP1 SWAP2 POP POP SWAP3 SWAP2 POP POP JUMP JUMPDEST PUSH1 0x0 PUSH2 0x232B DUP4 DUP4 PUSH2 0x22DB JUMP JUMPDEST SWAP1 POP SWAP3 SWAP2 POP POP JUMP JUMPDEST PUSH1 0x0 PUSH1 0x20 DUP3 ADD SWAP1 POP SWAP2 SWAP1 POP JUMP JUMPDEST PUSH1 0x0 PUSH2 0x234B DUP3 PUSH2 0x21ED JUMP JUMPDEST PUSH2 0x2355 DUP2 DUP6 PUSH2 0x21F8 JUMP JUMPDEST SWAP4 POP DUP4 PUSH1 0x20 DUP3 MUL DUP6 ADD PUSH2 0x2367 DUP6 PUSH2 0x2209 JUMP JUMPDEST DUP1 PUSH1 0x0 JUMPDEST DUP6 DUP2 LT ISZERO PUSH2 0x23A3 JUMPI DUP5 DUP5 SUB DUP10 MSTORE DUP2 MLOAD PUSH2 0x2384 DUP6 DUP3 PUSH2 0x231F JUMP JUMPDEST SWAP5 POP PUSH2 0x238F DUP4 PUSH2 0x2333 JUMP JUMPDEST SWAP3 POP PUSH1 0x20 DUP11 ADD SWAP10 POP POP PUSH1 0x1 DUP2 ADD SWAP1 POP PUSH2 0x236B JUMP JUMPDEST POP DUP3 SWAP8 POP DUP8 SWAP6 POP POP POP POP POP POP SWAP3 SWAP2 POP POP JUMP JUMPDEST PUSH1 0x0 PUSH1 0x40 DUP4 ADD PUSH1 0x0 DUP4 ADD MLOAD DUP5 DUP3 SUB PUSH1 0x0 DUP7 ADD MSTORE PUSH2 0x23D2 DUP3 DUP3 PUSH2 0x21B4 JUMP JUMPDEST SWAP2 POP POP PUSH1 0x20 DUP4 ADD MLOAD DUP5 DUP3 SUB PUSH1 0x20 DUP7 ADD MSTORE PUSH2 0x23EC DUP3 DUP3 PUSH2 0x2340 JUMP JUMPDEST SWAP2 POP POP DUP1 SWAP2 POP POP SWAP3 SWAP2 POP POP JUMP JUMPDEST PUSH1 0x0 PUSH1 0x20 DUP3 ADD SWAP1 POP DUP2 DUP2 SUB PUSH1 0x0 DUP4 ADD MSTORE PUSH2 0x2413 DUP2 DUP5 PUSH2 0x23B5 JUMP JUMPDEST SWAP1 POP SWAP3 SWAP2 POP POP JUMP JUMPDEST PUSH1 0x0 DUP3 DUP3 MSTORE PUSH1 0x20 DUP3 ADD SWAP1 POP SWAP3 SWAP2 POP POP JUMP JUMPDEST PUSH1 0x0 PUSH2 0x2437 DUP3 PUSH2 0x2219 JUMP JUMPDEST PUSH2 0x2441 DUP2 DUP6 PUSH2 0x241B JUMP JUMPDEST SWAP4 POP DUP4 PUSH1 0x20 DUP3 MUL DUP6 ADD PUSH2 0x2453 DUP6 PUSH2 0x2235 JUMP JUMPDEST DUP1 PUSH1 0x0 JUMPDEST DUP6 DUP2 LT ISZERO PUSH2 0x248F JUMPI DUP5 DUP5 SUB DUP10 MSTORE DUP2 MLOAD PUSH2 0x2470 DUP6 DUP3 PUSH2 0x2245 JUMP JUMPDEST SWAP5 POP PUSH2 0x247B DUP4 PUSH2 0x2259 JUMP JUMPDEST SWAP3 POP PUSH1 0x20 DUP11 ADD SWAP10 POP POP PUSH1 0x1 DUP2 ADD SWAP1 POP PUSH2 0x2457 JUMP JUMPDEST POP DUP3 SWAP8 POP DUP8 SWAP6 POP POP POP POP POP POP SWAP3 SWAP2 POP POP JUMP JUMPDEST PUSH1 0x0 PUSH1 0x20 DUP3 ADD SWAP1 POP DUP2 DUP2 SUB PUSH1 0x0 DUP4 ADD MSTORE PUSH2 0x24BB DUP2 DUP5 PUSH2 0x242C JUMP JUMPDEST SWAP1 POP SWAP3 SWAP2 POP POP JUMP JUMPDEST PUSH1 0x0 DUP2 SWAP1 POP SWAP3 SWAP2 POP POP JUMP JUMPDEST POP JUMP JUMPDEST PUSH1 0x0 PUSH2 0x24DE PUSH1 0x0 DUP4 PUSH2 0x24C3 JUMP JUMPDEST SWAP2 POP PUSH2 0x24E9 DUP3 PUSH2 0x24CE JUMP JUMPDEST PUSH1 0x0 DUP3 ADD SWAP1 POP SWAP2 SWAP1 POP JUMP JUMPDEST PUSH1 0x0 PUSH2 0x24FF DUP3 PUSH2 0x24D1 JUMP JUMPDEST SWAP2 POP DUP2 SWAP1 POP SWAP2 SWAP1 POP JUMP JUMPDEST PUSH1 0x0 PUSH20 0xFFFFFFFFFFFFFFFFFFFFFFFFFFFFFFFFFFFFFFFF DUP3 AND SWAP1 POP SWAP2 SWAP1 POP JUMP JUMPDEST PUSH1 0x0 PUSH2 0x2534 DUP3 PUSH2 0x2509 JUMP JUMPDEST SWAP1 POP SWAP2 SWAP1 POP JUMP JUMPDEST PUSH2 0x2544 DUP2 PUSH2 0x2529 JUMP JUMPDEST DUP3 MSTORE POP POP JUMP JUMPDEST PUSH1 0x0 PUSH1 0x20 DUP3 ADD SWAP1 POP PUSH2 0x255F PUSH1 0x0 DUP4 ADD DUP5 PUSH2 0x253B JUMP JUMPDEST SWAP3 SWAP2 POP POP JUMP JUMPDEST PUSH1 0x0 PUSH2 0x2578 PUSH2 0x2573 DUP5 PUSH2 0x1DD4 JUMP JUMPDEST PUSH2 0x1DB9 JUMP JUMPDEST SWAP1 POP DUP3 DUP2 MSTORE PUSH1 0x20 DUP2 ADD DUP5 DUP5 DUP5 ADD GT ISZERO PUSH2 0x2594 JUMPI PUSH2 0x2593 PUSH2 0x1D43 JUMP JUMPDEST JUMPDEST PUSH2 0x259F DUP5 DUP3 DUP6 PUSH2 0x211E JUMP JUMPDEST POP SWAP4 SWAP3 POP POP POP JUMP JUMPDEST PUSH1 0x0 DUP3 PUSH1 0x1F DUP4 ADD SLT PUSH2 0x25BC JUMPI PUSH2 0x25BB PUSH2 0x1D3E JUMP JUMPDEST JUMPDEST DUP2 MLOAD PUSH2 0x25CC DUP5 DUP3 PUSH1 0x20 DUP7 ADD PUSH2 0x2565 JUMP JUMPDEST SWAP2 POP POP SWAP3 SWAP2 POP POP JUMP JUMPDEST PUSH1 0x0 PUSH1 0x20 DUP3 DUP5 SUB SLT ISZERO PUSH2 0x25EB JUMPI PUSH2 0x25EA PUSH2 0x1D34 JUMP JUMPDEST JUMPDEST PUSH1 0x0 DUP3 ADD MLOAD PUSH8 0xFFFFFFFFFFFFFFFF DUP2 GT ISZERO PUSH2 0x2609 JUMPI PUSH2 0x2608 PUSH2 0x1D39 JUMP JUMPDEST JUMPDEST PUSH2 0x2615 DUP5 DUP3 DUP6 ADD PUSH2 0x25A7 JUMP JUMPDEST SWAP2 POP POP SWAP3 SWAP2 POP POP JUMP JUMPDEST PUSH1 0x0 PUSH2 0x2629 DUP3 PUSH2 0x2102 JUMP JUMPDEST PUSH2 0x2633 DUP2 DUP6 PUSH2 0x24C3 JUMP JUMPDEST SWAP4 POP PUSH2 0x2643 DUP2 DUP6 PUSH1 0x20 DUP7 ADD PUSH2 0x211E JUMP JUMPDEST DUP1 DUP5 ADD SWAP2 POP POP SWAP3 SWAP2 POP POP JUMP JUMPDEST PUSH1 0x0 PUSH2 0x265B DUP3 DUP5 PUSH2 0x261E JUMP JUMPDEST SWAP2 POP DUP2 SWAP1 POP SWAP3 SWAP2 POP POP JUMP JUMPDEST PUSH32 0x55736572206D75737420686176652031206F72206D6F726520726F6C65730000 PUSH1 0x0 DUP3 ADD MSTORE POP JUMP JUMPDEST PUSH1 0x0 PUSH2 0x269C PUSH1 0x1E DUP4 PUSH2 0x210D JUMP JUMPDEST SWAP2 POP PUSH2 0x26A7 DUP3 PUSH2 0x2666 JUMP JUMPDEST PUSH1 0x20 DUP3 ADD SWAP1 POP SWAP2 SWAP1 POP JUMP JUMPDEST PUSH1 0x0 PUSH1 0x20 DUP3 ADD SWAP1 POP DUP2 DUP2 SUB PUSH1 0x0 DUP4 ADD MSTORE PUSH2 0x26CB DUP2 PUSH2 0x268F JUMP JUMPDEST SWAP1 POP SWAP2 SWAP1 POP JUMP JUMPDEST PUSH32 0x4E487B7100000000000000000000000000000000000000000000000000000000 PUSH1 0x0 MSTORE PUSH1 0x32 PUSH1 0x4 MSTORE PUSH1 0x24 PUSH1 0x0 REVERT JUMPDEST PUSH32 0x4E487B7100000000000000000000000000000000000000000000000000000000 PUSH1 0x0 MSTORE PUSH1 0x22 PUSH1 0x4 MSTORE PUSH1 0x24 PUSH1 0x0 REVERT JUMPDEST PUSH1 0x0 PUSH1 0x2 DUP3 DIV SWAP1 POP PUSH1 0x1 DUP3 AND DUP1 PUSH2 0x2748 JUMPI PUSH1 0x7F DUP3 AND SWAP2 POP JUMPDEST PUSH1 0x20 DUP3 LT DUP2 SUB PUSH2 0x275B JUMPI PUSH2 0x275A PUSH2 0x2701 JUMP JUMPDEST JUMPDEST POP SWAP2 SWAP1 POP JUMP JUMPDEST PUSH1 0x0 DUP2 SWAP1 POP DUP2 PUSH1 0x0 MSTORE PUSH1 0x20 PUSH1 0x0 KECCAK256 SWAP1 POP SWAP2 SWAP1 POP JUMP JUMPDEST PUSH1 0x0 DUP2 SLOAD PUSH2 0x2783 DUP2 PUSH2 0x2730 JUMP JUMPDEST PUSH2 0x278D DUP2 DUP7 PUSH2 0x24C3 JUMP JUMPDEST SWAP5 POP PUSH1 0x1 DUP3 AND PUSH1 0x0 DUP2 EQ PUSH2 0x27A8 JUMPI PUSH1 0x1 DUP2 EQ PUSH2 0x27BD JUMPI PUSH2 0x27F0 JUMP JUMPDEST PUSH1 0xFF NOT DUP4 AND DUP7 MSTORE DUP2 ISZERO ISZERO DUP3 MUL DUP7 ADD SWAP4 POP PUSH2 0x27F0 JUMP JUMPDEST PUSH2 0x27C6 DUP6 PUSH2 0x2761 JUMP JUMPDEST PUSH1 0x0 JUMPDEST DUP4 DUP2 LT ISZERO PUSH2 0x27E8 JUMPI DUP2 SLOAD DUP2 DUP10 ADD MSTORE PUSH1 0x1 DUP3 ADD SWAP2 POP PUSH1 0x20 DUP2 ADD SWAP1 POP PUSH2 0x27C9 JUMP JUMPDEST DUP4 DUP9 ADD SWAP6 POP POP POP JUMPDEST POP POP POP SWAP3 SWAP2 POP POP JUMP JUMPDEST PUSH1 0x0 PUSH2 0x2805 DUP3 DUP5 PUSH2 0x2776 JUMP JUMPDEST SWAP2 POP DUP2 SWAP1 POP SWAP3 SWAP2 POP POP JUMP JUMPDEST PUSH1 0x0 DUP2 SWAP1 POP SWAP2 SWAP1 POP JUMP JUMPDEST PUSH32 0x4E487B7100000000000000000000000000000000000000000000000000000000 PUSH1 0x0 MSTORE PUSH1 0x11 PUSH1 0x4 MSTORE PUSH1 0x24 PUSH1 0x0 REVERT JUMPDEST PUSH1 0x0 PUSH2 0x2854 DUP3 PUSH2 0x2810 JUMP JUMPDEST SWAP2 POP PUSH2 0x285F DUP4 PUSH2 0x2810 JUMP JUMPDEST SWAP3 POP DUP3 DUP3 SUB SWAP1 POP DUP2 DUP2 GT ISZERO PUSH2 0x2877 JUMPI PUSH2 0x2876 PUSH2 0x281A JUMP JUMPDEST JUMPDEST SWAP3 SWAP2 POP POP JUMP JUMPDEST PUSH1 0x0 DUP2 SLOAD SWAP1 POP PUSH2 0x288C DUP2 PUSH2 0x2730 JUMP JUMPDEST SWAP1 POP SWAP2 SWAP1 POP JUMP JUMPDEST PUSH1 0x0 DUP2 SWAP1 POP DUP2 PUSH1 0x0 MSTORE PUSH1 0x20 PUSH1 0x0 KECCAK256 SWAP1 POP SWAP2 SWAP1 POP JUMP JUMPDEST PUSH1 0x0 PUSH1 0x20 PUSH1 0x1F DUP4 ADD DIV SWAP1 POP SWAP2 SWAP1 POP JUMP JUMPDEST PUSH1 0x0 DUP3 DUP3 SHL SWAP1 POP SWAP3 SWAP2 POP POP JUMP JUMPDEST PUSH1 0x0 PUSH1 0x8 DUP4 MUL PUSH2 0x28F5 PUSH32 0xFFFFFFFFFFFFFFFFFFFFFFFFFFFFFFFFFFFFFFFFFFFFFFFFFFFFFFFFFFFFFFFF DUP3 PUSH2 0x28B8 JUMP JUMPDEST PUSH2 0x28FF DUP7 DUP4 PUSH2 0x28B8 JUMP JUMPDEST SWAP6 POP DUP1 NOT DUP5 AND SWAP4 POP DUP1 DUP7 AND DUP5 OR SWAP3 POP POP POP SWAP4 SWAP3 POP POP POP JUMP JUMPDEST PUSH1 0x0 DUP2 SWAP1 POP SWAP2 SWAP1 POP JUMP JUMPDEST PUSH1 0x0 PUSH2 0x293C PUSH2 0x2937 PUSH2 0x2932 DUP5 PUSH2 0x2810 JUMP JUMPDEST PUSH2 0x2917 JUMP JUMPDEST PUSH2 0x2810 JUMP JUMPDEST SWAP1 POP SWAP2 SWAP1 POP JUMP JUMPDEST PUSH1 0x0 DUP2 SWAP1 POP SWAP2 SWAP1 POP JUMP JUMPDEST PUSH2 0x2956 DUP4 PUSH2 0x2921 JUMP JUMPDEST PUSH2 0x296A PUSH2 0x2962 DUP3 PUSH2 0x2943 JUMP JUMPDEST DUP5 DUP5 SLOAD PUSH2 0x28C5 JUMP JUMPDEST DUP3 SSTORE POP POP POP POP JUMP JUMPDEST PUSH1 0x0 SWAP1 JUMP JUMPDEST PUSH2 0x297F PUSH2 0x2972 JUMP JUMPDEST PUSH2 0x298A DUP2 DUP5 DUP5 PUSH2 0x294D JUMP JUMPDEST POP POP POP JUMP JUMPDEST JUMPDEST DUP2 DUP2 LT ISZERO PUSH2 0x29AE JUMPI PUSH2 0x29A3 PUSH1 0x0 DUP3 PUSH2 0x2977 JUMP JUMPDEST PUSH1 0x1 DUP2 ADD SWAP1 POP PUSH2 0x2990 JUMP JUMPDEST POP POP JUMP JUMPDEST PUSH1 0x1F DUP3 GT ISZERO PUSH2 0x29F3 JUMPI PUSH2 0x29C4 DUP2 PUSH2 0x2761 JUMP JUMPDEST PUSH2 0x29CD DUP5 PUSH2 0x28A8 JUMP JUMPDEST DUP2 ADD PUSH1 0x20 DUP6 LT ISZERO PUSH2 0x29DC JUMPI DUP2 SWAP1 POP JUMPDEST PUSH2 0x29F0 PUSH2 0x29E8 DUP6 PUSH2 0x28A8 JUMP JUMPDEST DUP4 ADD DUP3 PUSH2 0x298F JUMP JUMPDEST POP POP JUMPDEST POP POP POP JUMP JUMPDEST PUSH1 0x0 DUP3 DUP3 SHR SWAP1 POP SWAP3 SWAP2 POP POP JUMP JUMPDEST PUSH1 0x0 PUSH2 0x2A16 PUSH1 0x0 NOT DUP5 PUSH1 0x8 MUL PUSH2 0x29F8 JUMP JUMPDEST NOT DUP1 DUP4 AND SWAP2 POP POP SWAP3 SWAP2 POP POP JUMP JUMPDEST PUSH1 0x0 PUSH2 0x2A2F DUP4 DUP4 PUSH2 0x2A05 JUMP JUMPDEST SWAP2 POP DUP3 PUSH1 0x2 MUL DUP3 OR SWAP1 POP SWAP3 SWAP2 POP POP JUMP JUMPDEST DUP2 DUP2 SUB PUSH2 0x2A4D JUMPI POP POP PUSH2 0x2B25 JUMP JUMPDEST PUSH2 0x2A56 DUP3 PUSH2 0x287D JUMP JUMPDEST PUSH8 0xFFFFFFFFFFFFFFFF DUP2 GT ISZERO PUSH2 0x2A6F JUMPI PUSH2 0x2A6E PUSH2 0x1D59 JUMP JUMPDEST JUMPDEST PUSH2 0x2A79 DUP3 SLOAD PUSH2 0x2730 JUMP JUMPDEST PUSH2 0x2A84 DUP3 DUP3 DUP6 PUSH2 0x29B2 JUMP JUMPDEST PUSH1 0x0 PUSH1 0x1F DUP4 GT PUSH1 0x1 DUP2 EQ PUSH2 0x2AB3 JUMPI PUSH1 0x0 DUP5 ISZERO PUSH2 0x2AA1 JUMPI DUP3 DUP8 ADD SLOAD SWAP1 POP JUMPDEST PUSH2 0x2AAB DUP6 DUP3 PUSH2 0x2A23 JUMP JUMPDEST DUP7 SSTORE POP PUSH2 0x2B1E JUMP JUMPDEST PUSH1 0x1F NOT DUP5 AND PUSH2 0x2AC1 DUP8 PUSH2 0x2893 JUMP JUMPDEST SWAP7 POP PUSH2 0x2ACC DUP7 PUSH2 0x2761 JUMP JUMPDEST PUSH1 0x0 JUMPDEST DUP3 DUP2 LT ISZERO PUSH2 0x2AF4 JUMPI DUP5 DUP10 ADD SLOAD DUP3 SSTORE PUSH1 0x1 DUP3 ADD SWAP2 POP PUSH1 0x1 DUP6 ADD SWAP5 POP PUSH1 0x20 DUP2 ADD SWAP1 POP PUSH2 0x2ACF JUMP JUMPDEST DUP7 DUP4 LT ISZERO PUSH2 0x2B11 JUMPI DUP5 DUP10 ADD SLOAD PUSH2 0x2B0D PUSH1 0x1F DUP10 AND DUP3 PUSH2 0x2A05 JUMP JUMPDEST DUP4 SSTORE POP JUMPDEST PUSH1 0x1 PUSH1 0x2 DUP9 MUL ADD DUP9 SSTORE POP POP POP JUMPDEST POP POP POP POP POP POP JUMPDEST JUMP JUMPDEST PUSH32 0x4E487B7100000000000000000000000000000000000000000000000000000000 PUSH1 0x0 MSTORE PUSH1 0x31 PUSH1 0x4 MSTORE PUSH1 0x24 PUSH1 0x0 REVERT JUMPDEST PUSH1 0x0 PUSH2 0x2B61 DUP3 PUSH2 0x2810 JUMP JUMPDEST SWAP2 POP PUSH32 0xFFFFFFFFFFFFFFFFFFFFFFFFFFFFFFFFFFFFFFFFFFFFFFFFFFFFFFFFFFFFFFFF DUP3 SUB PUSH2 0x2B93 JUMPI PUSH2 0x2B92 PUSH2 0x281A JUMP JUMPDEST JUMPDEST PUSH1 0x1 DUP3 ADD SWAP1 POP SWAP2 SWAP1 POP JUMP JUMPDEST PUSH32 0x4469726563746F727920646F65736E7420657869737400000000000000000000 PUSH1 0x0 DUP3 ADD MSTORE POP JUMP JUMPDEST PUSH1 0x0 PUSH2 0x2BD4 PUSH1 0x16 DUP4 PUSH2 0x210D JUMP JUMPDEST SWAP2 POP PUSH2 0x2BDF DUP3 PUSH2 0x2B9E JUMP JUMPDEST PUSH1 0x20 DUP3 ADD SWAP1 POP SWAP2 SWAP1 POP JUMP JUMPDEST PUSH1 0x0 PUSH1 0x20 DUP3 ADD SWAP1 POP DUP2 DUP2 SUB PUSH1 0x0 DUP4 ADD MSTORE PUSH2 0x2C03 DUP2 PUSH2 0x2BC7 JUMP JUMPDEST SWAP1 POP SWAP2 SWAP1 POP JUMP JUMPDEST PUSH32 0x46696C6520616C72656164792065786973740000000000000000000000000000 PUSH1 0x0 DUP3 ADD MSTORE POP JUMP JUMPDEST PUSH1 0x0 PUSH2 0x2C40 PUSH1 0x12 DUP4 PUSH2 0x210D JUMP JUMPDEST SWAP2 POP PUSH2 0x2C4B DUP3 PUSH2 0x2C0A JUMP JUMPDEST PUSH1 0x20 DUP3 ADD SWAP1 POP SWAP2 SWAP1 POP JUMP JUMPDEST PUSH1 0x0 PUSH1 0x20 DUP3 ADD SWAP1 POP DUP2 DUP2 SUB PUSH1 0x0 DUP4 ADD MSTORE PUSH2 0x2C6F DUP2 PUSH2 0x2C33 JUMP JUMPDEST SWAP1 POP SWAP2 SWAP1 POP JUMP JUMPDEST PUSH2 0x2C7F DUP3 PUSH2 0x2102 JUMP JUMPDEST PUSH8 0xFFFFFFFFFFFFFFFF DUP2 GT ISZERO PUSH2 0x2C98 JUMPI PUSH2 0x2C97 PUSH2 0x1D59 JUMP JUMPDEST JUMPDEST PUSH2 0x2CA2 DUP3 SLOAD PUSH2 0x2730 JUMP JUMPDEST PUSH2 0x2CAD DUP3 DUP3 DUP6 PUSH2 0x29B2 JUMP JUMPDEST PUSH1 0x0 PUSH1 0x20 SWAP1 POP PUSH1 0x1F DUP4 GT PUSH1 0x1 DUP2 EQ PUSH2 0x2CE0 JUMPI PUSH1 0x0 DUP5 ISZERO PUSH2 0x2CCE JUMPI DUP3 DUP8 ADD MLOAD SWAP1 POP JUMPDEST PUSH2 0x2CD8 DUP6 DUP3 PUSH2 0x2A23 JUMP JUMPDEST DUP7 SSTORE POP PUSH2 0x2D40 JUMP JUMPDEST PUSH1 0x1F NOT DUP5 AND PUSH2 0x2CEE DUP7 PUSH2 0x2761 JUMP JUMPDEST PUSH1 0x0 JUMPDEST DUP3 DUP2 LT ISZERO PUSH2 0x2D16 JUMPI DUP5 DUP10 ADD MLOAD DUP3 SSTORE PUSH1 0x1 DUP3 ADD SWAP2 POP PUSH1 0x20 DUP6 ADD SWAP5 POP PUSH1 0x20 DUP2 ADD SWAP1 POP PUSH2 0x2CF1 JUMP JUMPDEST DUP7 DUP4 LT ISZERO PUSH2 0x2D33 JUMPI DUP5 DUP10 ADD MLOAD PUSH2 0x2D2F PUSH1 0x1F DUP10 AND DUP3 PUSH2 0x2A05 JUMP JUMPDEST DUP4 SSTORE POP JUMPDEST PUSH1 0x1 PUSH1 0x2 DUP9 MUL ADD DUP9 SSTORE POP POP POP JUMPDEST POP POP POP POP POP POP JUMP JUMPDEST PUSH32 0x4469726563746F727920616C7265616479206578697374000000000000000000 PUSH1 0x0 DUP3 ADD MSTORE POP JUMP JUMPDEST PUSH1 0x0 PUSH2 0x2D7E PUSH1 0x17 DUP4 PUSH2 0x210D JUMP JUMPDEST SWAP2 POP PUSH2 0x2D89 DUP3 PUSH2 0x2D48 JUMP JUMPDEST PUSH1 0x20 DUP3 ADD SWAP1 POP SWAP2 SWAP1 POP JUMP JUMPDEST PUSH1 0x0 PUSH1 0x20 DUP3 ADD SWAP1 POP DUP2 DUP2 SUB PUSH1 0x0 DUP4 ADD MSTORE PUSH2 0x2DAD DUP2 PUSH2 0x2D71 JUMP JUMPDEST SWAP1 POP SWAP2 SWAP1 POP JUMP JUMPDEST PUSH32 0x4E6F7420656E6F756768207065726D697373696F6E7300000000000000000000 PUSH1 0x0 DUP3 ADD MSTORE POP JUMP JUMPDEST PUSH1 0x0 PUSH2 0x2DEA PUSH1 0x16 DUP4 PUSH2 0x210D JUMP JUMPDEST SWAP2 POP PUSH2 0x2DF5 DUP3 PUSH2 0x2DB4 JUMP JUMPDEST PUSH1 0x20 DUP3 ADD SWAP1 POP SWAP2 SWAP1 POP JUMP JUMPDEST PUSH1 0x0 PUSH1 0x20 DUP3 ADD SWAP1 POP DUP2 DUP2 SUB PUSH1 0x0 DUP4 ADD MSTORE PUSH2 0x2E19 DUP2 PUSH2 0x2DDD JUMP JUMPDEST SWAP1 POP SWAP2 SWAP1 POP JUMP JUMPDEST PUSH1 0x0 DUP2 SLOAD SWAP1 POP PUSH2 0x2E2F DUP2 PUSH2 0x2730 JUMP JUMPDEST SWAP1 POP SWAP2 SWAP1 POP JUMP JUMPDEST DUP2 DUP2 SUB PUSH2 0x2E44 JUMPI POP POP PUSH2 0x2F1C JUMP JUMPDEST PUSH2 0x2E4D DUP3 PUSH2 0x2E20 JUMP JUMPDEST PUSH8 0xFFFFFFFFFFFFFFFF DUP2 GT ISZERO PUSH2 0x2E66 JUMPI PUSH2 0x2E65 PUSH2 0x1D59 JUMP JUMPDEST JUMPDEST PUSH2 0x2E70 DUP3 SLOAD PUSH2 0x2730 JUMP JUMPDEST PUSH2 0x2E7B DUP3 DUP3 DUP6 PUSH2 0x29B2 JUMP JUMPDEST PUSH1 0x0 PUSH1 0x1F DUP4 GT PUSH1 0x1 DUP2 EQ PUSH2 0x2EAA JUMPI PUSH1 0x0 DUP5 ISZERO PUSH2 0x2E98 JUMPI DUP3 DUP8 ADD SLOAD SWAP1 POP JUMPDEST PUSH2 0x2EA2 DUP6 DUP3 PUSH2 0x2A23 JUMP JUMPDEST DUP7 SSTORE POP PUSH2 0x2F15 JUMP JUMPDEST PUSH1 0x1F NOT DUP5 AND PUSH2 0x2EB8 DUP8 PUSH2 0x2761 JUMP JUMPDEST SWAP7 POP PUSH2 0x2EC3 DUP7 PUSH2 0x2761 JUMP JUMPDEST PUSH1 0x0 JUMPDEST DUP3 DUP2 LT ISZERO PUSH2 0x2EEB JUMPI DUP5 DUP10 ADD SLOAD DUP3 SSTORE PUSH1 0x1 DUP3 ADD SWAP2 POP PUSH1 0x1 DUP6 ADD SWAP5 POP PUSH1 0x20 DUP2 ADD SWAP1 POP PUSH2 0x2EC6 JUMP JUMPDEST DUP7 DUP4 LT ISZERO PUSH2 0x2F08 JUMPI DUP5 DUP10 ADD SLOAD PUSH2 0x2F04 PUSH1 0x1F DUP10 AND DUP3 PUSH2 0x2A05 JUMP JUMPDEST DUP4 SSTORE POP JUMPDEST PUSH1 0x1 PUSH1 0x2 DUP9 MUL ADD DUP9 SSTORE POP POP POP JUMPDEST POP POP POP POP POP POP JUMPDEST JUMP INVALID LOG2 PUSH5 0x6970667358 0x22 SLT KECCAK256 0x2D 0xAF DUP9 SAR 0x4B 0x28 DUP6 MOD 0xCF DUP3 DUP13 0xA6 DUP1 SELFBALANCE 0xB9 0x49 PUSH22 0xA5158CB254CF66F059479A6F4DC0AF64736F6C634300 ADDMOD SGT STOP CALLER "
	},
	"abi": [
		{
			"inputs": [
				{
					"internalType": "address",
					"name": "authContractAddress",
					"type": "address"
				}
			],
			"stateMutability": "nonpayable",
			"type": "constructor"
		},
		{
			"inputs": [
				{
					"internalType": "string",
					"name": "title",
					"type": "string"
				}
			],
			"name": "createDirectory",
			"outputs": [],
			"stateMutability": "nonpayable",
			"type": "function"
		},
		{
			"inputs": [
				{
					"internalType": "string",
					"name": "title",
					"type": "string"
				},
				{
					"internalType": "string",
					"name": "hash",
					"type": "string"
				},
				{
					"internalType": "string",
					"name": "directory",
					"type": "string"
				},
				{
					"internalType": "string[]",
					"name": "roles",
					"type": "string[]"
				}
			],
			"name": "createFile",
			"outputs": [],
			"stateMutability": "nonpayable",
			"type": "function"
		},
		{
			"inputs": [
				{
					"internalType": "string",
					"name": "title",
					"type": "string"
				}
			],
			"name": "deleteDirectory",
			"outputs": [],
			"stateMutability": "nonpayable",
			"type": "function"
		},
		{
			"inputs": [
				{
					"internalType": "string",
					"name": "title",
					"type": "string"
				},
				{
					"internalType": "string",
					"name": "directory",
					"type": "string"
				}
			],
			"name": "deleteFile",
			"outputs": [],
			"stateMutability": "nonpayable",
			"type": "function"
		},
		{
			"inputs": [],
			"name": "getDirectories",
			"outputs": [
				{
					"internalType": "string[]",
					"name": "",
					"type": "string[]"
				}
			],
			"stateMutability": "view",
			"type": "function"
		},
		{
			"inputs": [
				{
					"internalType": "string",
					"name": "title",
					"type": "string"
				}
			],
			"name": "getDirectory",
			"outputs": [
				{
					"components": [
						{
							"internalType": "string",
							"name": "title",
							"type": "string"
						},
						{
							"components": [
								{
									"internalType": "string",
									"name": "title",
									"type": "string"
								},
								{
									"internalType": "string[]",
									"name": "access_roles",
									"type": "string[]"
								}
							],
							"internalType": "struct StorageContract.File[]",
							"name": "files",
							"type": "tuple[]"
						}
					],
					"internalType": "struct StorageContract.Directory",
					"name": "",
					"type": "tuple"
				}
			],
			"stateMutability": "view",
			"type": "function"
		},
		{
			"inputs": [
				{
					"internalType": "string",
					"name": "title",
					"type": "string"
				},
				{
					"internalType": "string",
					"name": "directory",
					"type": "string"
				}
			],
			"name": "getFileHash",
			"outputs": [
				{
					"internalType": "string",
					"name": "",
					"type": "string"
				}
			],
			"stateMutability": "view",
			"type": "function"
		}
	],
	"storageLayout": {
		"storage": [
			{
				"astId": 170,
				"contract": "contracts/ib_project.sol:StorageContract",
				"label": "Directories",
				"offset": 0,
				"slot": "0",
				"type": "t_mapping(t_string_memory_ptr,t_struct(Directory)165_storage)"
			},
			{
				"astId": 174,
				"contract": "contracts/ib_project.sol:StorageContract",
				"label": "FileHash",
				"offset": 0,
				"slot": "1",
				"type": "t_mapping(t_string_memory_ptr,t_string_storage)"
			},
			{
				"astId": 176,
				"contract": "contracts/ib_project.sol:StorageContract",
				"label": "owner",
				"offset": 0,
				"slot": "2",
				"type": "t_address"
			},
			{
				"astId": 179,
				"contract": "contracts/ib_project.sol:StorageContract",
				"label": "directory_names",
				"offset": 0,
				"slot": "3",
				"type": "t_array(t_string_storage)dyn_storage"
			},
			{
				"astId": 182,
				"contract": "contracts/ib_project.sol:StorageContract",
				"label": "authContract",
				"offset": 0,
				"slot": "4",
				"type": "t_contract(IAuthContract)22"
			}
		],
		"types": {
			"t_address": {
				"encoding": "inplace",
				"label": "address",
				"numberOfBytes": "20"
			},
			"t_array(t_string_storage)dyn_storage": {
				"base": "t_string_storage",
				"encoding": "dynamic_array",
				"label": "string[]",
				"numberOfBytes": "32"
			},
			"t_array(t_struct(File)158_storage)dyn_storage": {
				"base": "t_struct(File)158_storage",
				"encoding": "dynamic_array",
				"label": "struct StorageContract.File[]",
				"numberOfBytes": "32"
			},
			"t_contract(IAuthContract)22": {
				"encoding": "inplace",
				"label": "contract IAuthContract",
				"numberOfBytes": "20"
			},
			"t_mapping(t_string_memory_ptr,t_string_storage)": {
				"encoding": "mapping",
				"key": "t_string_memory_ptr",
				"label": "mapping(string => string)",
				"numberOfBytes": "32",
				"value": "t_string_storage"
			},
			"t_mapping(t_string_memory_ptr,t_struct(Directory)165_storage)": {
				"encoding": "mapping",
				"key": "t_string_memory_ptr",
				"label": "mapping(string => struct StorageContract.Directory)",
				"numberOfBytes": "32",
				"value": "t_struct(Directory)165_storage"
			},
			"t_string_memory_ptr": {
				"encoding": "bytes",
				"label": "string",
				"numberOfBytes": "32"
			},
			"t_string_storage": {
				"encoding": "bytes",
				"label": "string",
				"numberOfBytes": "32"
			},
			"t_struct(Directory)165_storage": {
				"encoding": "inplace",
				"label": "struct StorageContract.Directory",
				"members": [
					{
						"astId": 160,
						"contract": "contracts/ib_project.sol:StorageContract",
						"label": "title",
						"offset": 0,
						"slot": "0",
						"type": "t_string_storage"
					},
					{
						"astId": 164,
						"contract": "contracts/ib_project.sol:StorageContract",
						"label": "files",
						"offset": 0,
						"slot": "1",
						"type": "t_array(t_struct(File)158_storage)dyn_storage"
					}
				],
				"numberOfBytes": "64"
			},
			"t_struct(File)158_storage": {
				"encoding": "inplace",
				"label": "struct StorageContract.File",
				"members": [
					{
						"astId": 154,
						"contract": "contracts/ib_project.sol:StorageContract",
						"label": "title",
						"offset": 0,
						"slot": "0",
						"type": "t_string_storage"
					},
					{
						"astId": 157,
						"contract": "contracts/ib_project.sol:StorageContract",
						"label": "access_roles",
						"offset": 0,
						"slot": "1",
						"type": "t_array(t_string_storage)dyn_storage"
					}
				],
				"numberOfBytes": "64"
			}
		}
	},
	"web3Deploy": "var authContractAddress = /* var of type address here */ ;\nvar storagecontractContract = new web3.eth.Contract([{\"inputs\":[{\"internalType\":\"address\",\"name\":\"authContractAddress\",\"type\":\"address\"}],\"stateMutability\":\"nonpayable\",\"type\":\"constructor\"},{\"inputs\":[{\"internalType\":\"string\",\"name\":\"title\",\"type\":\"string\"}],\"name\":\"createDirectory\",\"outputs\":[],\"stateMutability\":\"nonpayable\",\"type\":\"function\"},{\"inputs\":[{\"internalType\":\"string\",\"name\":\"title\",\"type\":\"string\"},{\"internalType\":\"string\",\"name\":\"hash\",\"type\":\"string\"},{\"internalType\":\"string\",\"name\":\"directory\",\"type\":\"string\"},{\"internalType\":\"string[]\",\"name\":\"roles\",\"type\":\"string[]\"}],\"name\":\"createFile\",\"outputs\":[],\"stateMutability\":\"nonpayable\",\"type\":\"function\"},{\"inputs\":[{\"internalType\":\"string\",\"name\":\"title\",\"type\":\"string\"}],\"name\":\"deleteDirectory\",\"outputs\":[],\"stateMutability\":\"nonpayable\",\"type\":\"function\"},{\"inputs\":[{\"internalType\":\"string\",\"name\":\"title\",\"type\":\"string\"},{\"internalType\":\"string\",\"name\":\"directory\",\"type\":\"string\"}],\"name\":\"deleteFile\",\"outputs\":[],\"stateMutability\":\"nonpayable\",\"type\":\"function\"},{\"inputs\":[],\"name\":\"getDirectories\",\"outputs\":[{\"internalType\":\"string[]\",\"name\":\"\",\"type\":\"string[]\"}],\"stateMutability\":\"view\",\"type\":\"function\"},{\"inputs\":[{\"internalType\":\"string\",\"name\":\"title\",\"type\":\"string\"}],\"name\":\"getDirectory\",\"outputs\":[{\"components\":[{\"internalType\":\"string\",\"name\":\"title\",\"type\":\"string\"},{\"components\":[{\"internalType\":\"string\",\"name\":\"title\",\"type\":\"string\"},{\"internalType\":\"string[]\",\"name\":\"access_roles\",\"type\":\"string[]\"}],\"internalType\":\"struct StorageContract.File[]\",\"name\":\"files\",\"type\":\"tuple[]\"}],\"internalType\":\"struct StorageContract.Directory\",\"name\":\"\",\"type\":\"tuple\"}],\"stateMutability\":\"view\",\"type\":\"function\"},{\"inputs\":[{\"internalType\":\"string\",\"name\":\"title\",\"type\":\"string\"},{\"internalType\":\"string\",\"name\":\"directory\",\"type\":\"string\"}],\"name\":\"getFileHash\",\"outputs\":[{\"internalType\":\"string\",\"name\":\"\",\"type\":\"string\"}],\"stateMutability\":\"view\",\"type\":\"function\"}]);\nvar storagecontract = storagecontractContract.deploy({\n     data: '0x60806040523480156200001157600080fd5b506040516200307f3803806200307f8339818101604052810190620000379190620000e9565b80600460006101000a81548173ffffffffffffffffffffffffffffffffffffffff021916908373ffffffffffffffffffffffffffffffffffffffff160217905550506200011b565b600080fd5b600073ffffffffffffffffffffffffffffffffffffffff82169050919050565b6000620000b18262000084565b9050919050565b620000c381620000a4565b8114620000cf57600080fd5b50565b600081519050620000e381620000b8565b92915050565b6000602082840312156200010257620001016200007f565b5b60006200011284828501620000d2565b91505092915050565b612f54806200012b6000396000f3fe608060405234801561001057600080fd5b506004361061007d5760003560e01c8063abe71cc31161005b578063abe71cc3146100d6578063c12e865614610106578063c6a909c114610136578063d34a8708146101545761007d565b806307c6e7d314610082578063137876431461009e5780631c6ec7a9146100ba575b600080fd5b61009c60048036038101906100979190611e84565b610170565b005b6100b860048036038101906100b39190611fb3565b6103be565b005b6100d460048036038101906100cf9190611e84565b610648565b005b6100f060048036038101906100eb919061208a565b610824565b6040516100fd9190612181565b60405180910390f35b610120600480360381019061011b9190611e84565b610d32565b60405161012d91906123f9565b60405180910390f35b61013e6110f2565b60405161014b91906124a1565b60405180910390f35b61016e6004803603810190610169919061208a565b6112f7565b005b60405160200161017f906124f4565b60405160208183030381529060405280519060200120600460009054906101000a900473ffffffffffffffffffffffffffffffffffffffff1673ffffffffffffffffffffffffffffffffffffffff166327820851336040518263ffffffff1660e01b81526004016101f0919061254a565b600060405180830381865afa15801561020d573d6000803e3d6000fd5b505050506040513d6000823e3d601f19601f8201168201806040525081019061023691906125d5565b604051602001610246919061264f565b604051602081830303815290604052805190602001200361029c576040517f08c379a0000000000000000000000000000000000000000000000000000000008152600401610293906126b2565b60405180910390fd5b60005b6003805490508110156103ba57816040516020016102bd919061264f565b60405160208183030381529060405280519060200120600382815481106102e7576102e66126d2565b5b9060005260206000200160405160200161030191906127f9565b60405160208183030381529060405280519060200120036103a757600360016003805490506103309190612849565b81548110610341576103406126d2565b5b906000526020600020016003828154811061035f5761035e6126d2565b5b9060005260206000200190816103759190612a3f565b50600380548061038857610387612b27565b5b6001900381819060005260206000200160006103a49190611bb8565b90555b80806103b290612b56565b91505061029f565b5050565b6040516020016103cd906124f4565b60405160208183030381529060405280519060200120600460009054906101000a900473ffffffffffffffffffffffffffffffffffffffff1673ffffffffffffffffffffffffffffffffffffffff166327820851336040518263ffffffff1660e01b815260040161043e919061254a565b600060405180830381865afa15801561045b573d6000803e3d6000fd5b505050506040513d6000823e3d601f19601f8201168201806040525081019061048491906125d5565b604051602001610494919061264f565b60405160208183030381529060405280519060200120036104ea576040517f08c379a00000000000000000000000000000000000000000000000000000000081526004016104e1906126b2565b60405180910390fd5b6104f382611848565b610532576040517f08c379a000000000000000000000000000000000000000000000000000000000815260040161052990612bea565b60405180910390fd5b61053c8483611a1e565b1561057c576040517f08c379a000000000000000000000000000000000000000000000000000000000815260040161057390612c56565b60405180910390fd5b60006040518060400160405280868152602001838152509050836001866040516105a6919061264f565b908152602001604051809103902090816105c09190612c76565b506000836040516105d1919061264f565b908152602001604051809103902060010181908060018154018082558091505060019003906000526020600020906002020160009091909190915060008201518160000190816106219190612c76565b50602082015181600101908051906020019061063e929190611bf8565b5050505050505050565b604051602001610657906124f4565b60405160208183030381529060405280519060200120600460009054906101000a900473ffffffffffffffffffffffffffffffffffffffff1673ffffffffffffffffffffffffffffffffffffffff166327820851336040518263ffffffff1660e01b81526004016106c8919061254a565b600060405180830381865afa1580156106e5573d6000803e3d6000fd5b505050506040513d6000823e3d601f19601f8201168201806040525081019061070e91906125d5565b60405160200161071e919061264f565b6040516020818303038152906040528051906020012003610774576040517f08c379a000000000000000000000000000000000000000000000000000000000815260040161076b906126b2565b60405180910390fd5b61077d81611848565b156107bd576040517f08c379a00000000000000000000000000000000000000000000000000000000081526004016107b490612d94565b60405180910390fd5b6003819080600181540180825580915050600190039060005260206000200160009091909190915090816107f19190612c76565b5080600082604051610803919061264f565b908152602001604051809103902060000190816108209190612c76565b5050565b6060604051602001610835906124f4565b60405160208183030381529060405280519060200120600460009054906101000a900473ffffffffffffffffffffffffffffffffffffffff1673ffffffffffffffffffffffffffffffffffffffff166327820851336040518263ffffffff1660e01b81526004016108a6919061254a565b600060405180830381865afa1580156108c3573d6000803e3d6000fd5b505050506040513d6000823e3d601f19601f820116820180604052508101906108ec91906125d5565b6040516020016108fc919061264f565b6040516020818303038152906040528051906020012003610952576040517f08c379a0000000000000000000000000000000000000000000000000000000008152600401610949906126b2565b60405180910390fd5b60005b600083604051610965919061264f565b908152602001604051809103902060010180549050811015610d185783604051602001610992919061264f565b604051602081830303815290604052805190602001206000846040516109b8919061264f565b908152602001604051809103902060010182815481106109db576109da6126d2565b5b90600052602060002090600202016000016040516020016109fc91906127f9565b6040516020818303038152906040528051906020012003610d0557610bd4600460009054906101000a900473ffffffffffffffffffffffffffffffffffffffff1673ffffffffffffffffffffffffffffffffffffffff166327820851336040518263ffffffff1660e01b8152600401610a75919061254a565b600060405180830381865afa158015610a92573d6000803e3d6000fd5b505050506040513d6000823e3d601f19601f82011682018060405250810190610abb91906125d5565b600085604051610acb919061264f565b90815260200160405180910390206001018381548110610aee57610aed6126d2565b5b9060005260206000209060020201600101805480602002602001604051908101604052809291908181526020016000905b82821015610bcb578382906000526020600020018054610b3e90612730565b80601f0160208091040260200160405190810160405280929190818152602001828054610b6a90612730565b8015610bb75780601f10610b8c57610100808354040283529160200191610bb7565b820191906000526020600020905b815481529060010190602001808311610b9a57829003601f168201915b505050505081526020019060010190610b1f565b50505050611b11565b610c13576040517f08c379a0000000000000000000000000000000000000000000000000000000008152600401610c0a90612e00565b60405180910390fd5b6001600084604051610c25919061264f565b90815260200160405180910390206001018281548110610c4857610c476126d2565b5b9060005260206000209060020201600001604051610c6691906127f9565b90815260200160405180910390208054610c7f90612730565b80601f0160208091040260200160405190810160405280929190818152602001828054610cab90612730565b8015610cf85780601f10610ccd57610100808354040283529160200191610cf8565b820191906000526020600020905b815481529060010190602001808311610cdb57829003601f168201915b5050505050915050610d2c565b8080610d1090612b56565b915050610955565b506040518060200160405280600081525090505b92915050565b610d3a611c51565b604051602001610d49906124f4565b60405160208183030381529060405280519060200120600460009054906101000a900473ffffffffffffffffffffffffffffffffffffffff1673ffffffffffffffffffffffffffffffffffffffff166327820851336040518263ffffffff1660e01b8152600401610dba919061254a565b600060405180830381865afa158015610dd7573d6000803e3d6000fd5b505050506040513d6000823e3d601f19601f82011682018060405250810190610e0091906125d5565b604051602001610e10919061264f565b6040516020818303038152906040528051906020012003610e66576040517f08c379a0000000000000000000000000000000000000000000000000000000008152600401610e5d906126b2565b60405180910390fd5b600082604051610e76919061264f565b9081526020016040518091039020604051806040016040529081600082018054610e9f90612730565b80601f0160208091040260200160405190810160405280929190818152602001828054610ecb90612730565b8015610f185780601f10610eed57610100808354040283529160200191610f18565b820191906000526020600020905b815481529060010190602001808311610efb57829003601f168201915b5050505050815260200160018201805480602002602001604051908101604052809291908181526020016000905b828210156110e35783829060005260206000209060020201604051806040016040529081600082018054610f7990612730565b80601f0160208091040260200160405190810160405280929190818152602001828054610fa590612730565b8015610ff25780601f10610fc757610100808354040283529160200191610ff2565b820191906000526020600020905b815481529060010190602001808311610fd557829003601f168201915b5050505050815260200160018201805480602002602001604051908101604052809291908181526020016000905b828210156110cc57838290600052602060002001805461103f90612730565b80601f016020809104026020016040519081016040528092919081815260200182805461106b90612730565b80156110b85780601f1061108d576101008083540402835291602001916110b8565b820191906000526020600020905b81548152906001019060200180831161109b57829003601f168201915b505050505081526020019060010190611020565b505050508152505081526020019060010190610f46565b50505050815250509050919050565b6060604051602001611103906124f4565b60405160208183030381529060405280519060200120600460009054906101000a900473ffffffffffffffffffffffffffffffffffffffff1673ffffffffffffffffffffffffffffffffffffffff166327820851336040518263ffffffff1660e01b8152600401611174919061254a565b600060405180830381865afa158015611191573d6000803e3d6000fd5b505050506040513d6000823e3d601f19601f820116820180604052508101906111ba91906125d5565b6040516020016111ca919061264f565b6040516020818303038152906040528051906020012003611220576040517f08c379a0000000000000000000000000000000000000000000000000000000008152600401611217906126b2565b60405180910390fd5b6003805480602002602001604051908101604052809291908181526020016000905b828210156112ee57838290600052602060002001805461126190612730565b80601f016020809104026020016040519081016040528092919081815260200182805461128d90612730565b80156112da5780601f106112af576101008083540402835291602001916112da565b820191906000526020600020905b8154815290600101906020018083116112bd57829003601f168201915b505050505081526020019060010190611242565b50505050905090565b604051602001611306906124f4565b60405160208183030381529060405280519060200120600460009054906101000a900473ffffffffffffffffffffffffffffffffffffffff1673ffffffffffffffffffffffffffffffffffffffff166327820851336040518263ffffffff1660e01b8152600401611377919061254a565b600060405180830381865afa158015611394573d6000803e3d6000fd5b505050506040513d6000823e3d601f19601f820116820180604052508101906113bd91906125d5565b6040516020016113cd919061264f565b6040516020818303038152906040528051906020012003611423576040517f08c379a000000000000000000000000000000000000000000000000000000000815260040161141a906126b2565b60405180910390fd5b60005b600082604051611436919061264f565b9081526020016040518091039020600101805490508110156118435782604051602001611463919061264f565b60405160208183030381529060405280519060200120600083604051611489919061264f565b908152602001604051809103902060010182815481106114ac576114ab6126d2565b5b90600052602060002090600202016000016040516020016114cd91906127f9565b6040516020818303038152906040528051906020012003611830576116a5600460009054906101000a900473ffffffffffffffffffffffffffffffffffffffff1673ffffffffffffffffffffffffffffffffffffffff166327820851336040518263ffffffff1660e01b8152600401611546919061254a565b600060405180830381865afa158015611563573d6000803e3d6000fd5b505050506040513d6000823e3d601f19601f8201168201806040525081019061158c91906125d5565b60008460405161159c919061264f565b908152602001604051809103902060010183815481106115bf576115be6126d2565b5b9060005260206000209060020201600101805480602002602001604051908101604052809291908181526020016000905b8282101561169c57838290600052602060002001805461160f90612730565b80601f016020809104026020016040519081016040528092919081815260200182805461163b90612730565b80156116885780601f1061165d57610100808354040283529160200191611688565b820191906000526020600020905b81548152906001019060200180831161166b57829003601f168201915b5050505050815260200190600101906115f0565b50505050611b11565b6116e4576040517f08c379a00000000000000000000000000000000000000000000000000000000081526004016116db90612e00565b60405180910390fd5b6000826040516116f4919061264f565b90815260200160405180910390206001016001600084604051611717919061264f565b9081526020016040518091039020600101805490506117369190612849565b81548110611747576117466126d2565b5b9060005260206000209060020201600083604051611765919061264f565b90815260200160405180910390206001018281548110611788576117876126d2565b5b9060005260206000209060020201600082018160000190816117aa9190612e36565b5060018201816001019080546117c1929190611c6b565b509050506000826040516117d5919061264f565b90815260200160405180910390206001018054806117f6576117f5612b27565b5b60019003818190600052602060002090600202016000808201600061181b9190611bb8565b60018201600061182b9190611cc8565b505090555b808061183b90612b56565b915050611426565b505050565b6000604051602001611859906124f4565b60405160208183030381529060405280519060200120600460009054906101000a900473ffffffffffffffffffffffffffffffffffffffff1673ffffffffffffffffffffffffffffffffffffffff166327820851336040518263ffffffff1660e01b81526004016118ca919061254a565b600060405180830381865afa1580156118e7573d6000803e3d6000fd5b505050506040513d6000823e3d601f19601f8201168201806040525081019061191091906125d5565b604051602001611920919061264f565b6040516020818303038152906040528051906020012003611976576040517f08c379a000000000000000000000000000000000000000000000000000000000815260040161196d906126b2565b60405180910390fd5b60005b600380549050811015611a135782604051602001611997919061264f565b60405160208183030381529060405280519060200120600382815481106119c1576119c06126d2565b5b906000526020600020016040516020016119db91906127f9565b6040516020818303038152906040528051906020012003611a00576001915050611a19565b8080611a0b90612b56565b915050611979565b50600090505b919050565b600080600090505b600083604051611a36919061264f565b908152602001604051809103902060010180549050811015611b055783604051602001611a63919061264f565b60405160208183030381529060405280519060200120600084604051611a89919061264f565b90815260200160405180910390206001018281548110611aac57611aab6126d2565b5b9060005260206000209060020201600001604051602001611acd91906127f9565b6040516020818303038152906040528051906020012003611af2576001915050611b0b565b8080611afd90612b56565b915050611a26565b50600090505b92915050565b600080600090505b8251811015611bac5783604051602001611b33919061264f565b60405160208183030381529060405280519060200120838281518110611b5c57611b5b6126d2565b5b6020026020010151604051602001611b74919061264f565b6040516020818303038152906040528051906020012003611b99576001915050611bb2565b8080611ba490612b56565b915050611b19565b50600090505b92915050565b508054611bc490612730565b6000825580601f10611bd65750611bf5565b601f016020900490600052602060002090810190611bf49190611ce9565b5b50565b828054828255906000526020600020908101928215611c40579160200282015b82811115611c3f578251829081611c2f9190612c76565b5091602001919060010190611c18565b5b509050611c4d9190611d06565b5090565b604051806040016040528060608152602001606081525090565b828054828255906000526020600020908101928215611cb75760005260206000209182015b82811115611cb65782829081611ca69190612e36565b5091600101919060010190611c90565b5b509050611cc49190611d06565b5090565b5080546000825590600052602060002090810190611ce69190611d06565b50565b5b80821115611d02576000816000905550600101611cea565b5090565b5b80821115611d265760008181611d1d9190611bb8565b50600101611d07565b5090565b6000604051905090565b600080fd5b600080fd5b600080fd5b600080fd5b6000601f19601f8301169050919050565b7f4e487b7100000000000000000000000000000000000000000000000000000000600052604160045260246000fd5b611d9182611d48565b810181811067ffffffffffffffff82111715611db057611daf611d59565b5b80604052505050565b6000611dc3611d2a565b9050611dcf8282611d88565b919050565b600067ffffffffffffffff821115611def57611dee611d59565b5b611df882611d48565b9050602081019050919050565b82818337600083830152505050565b6000611e27611e2284611dd4565b611db9565b905082815260208101848484011115611e4357611e42611d43565b5b611e4e848285611e05565b509392505050565b600082601f830112611e6b57611e6a611d3e565b5b8135611e7b848260208601611e14565b91505092915050565b600060208284031215611e9a57611e99611d34565b5b600082013567ffffffffffffffff811115611eb857611eb7611d39565b5b611ec484828501611e56565b91505092915050565b600067ffffffffffffffff821115611ee857611ee7611d59565b5b602082029050602081019050919050565b600080fd5b6000611f11611f0c84611ecd565b611db9565b90508083825260208201905060208402830185811115611f3457611f33611ef9565b5b835b81811015611f7b57803567ffffffffffffffff811115611f5957611f58611d3e565b5b808601611f668982611e56565b85526020850194505050602081019050611f36565b5050509392505050565b600082601f830112611f9a57611f99611d3e565b5b8135611faa848260208601611efe565b91505092915050565b60008060008060808587031215611fcd57611fcc611d34565b5b600085013567ffffffffffffffff811115611feb57611fea611d39565b5b611ff787828801611e56565b945050602085013567ffffffffffffffff81111561201857612017611d39565b5b61202487828801611e56565b935050604085013567ffffffffffffffff81111561204557612044611d39565b5b61205187828801611e56565b925050606085013567ffffffffffffffff81111561207257612071611d39565b5b61207e87828801611f85565b91505092959194509250565b600080604083850312156120a1576120a0611d34565b5b600083013567ffffffffffffffff8111156120bf576120be611d39565b5b6120cb85828601611e56565b925050602083013567ffffffffffffffff8111156120ec576120eb611d39565b5b6120f885828601611e56565b9150509250929050565b600081519050919050565b600082825260208201905092915050565b60005b8381101561213c578082015181840152602081019050612121565b60008484015250505050565b600061215382612102565b61215d818561210d565b935061216d81856020860161211e565b61217681611d48565b840191505092915050565b6000602082019050818103600083015261219b8184612148565b905092915050565b600082825260208201905092915050565b60006121bf82612102565b6121c981856121a3565b93506121d981856020860161211e565b6121e281611d48565b840191505092915050565b600081519050919050565b600082825260208201905092915050565b6000819050602082019050919050565b600081519050919050565b600082825260208201905092915050565b6000819050602082019050919050565b600061225183836121b4565b905092915050565b6000602082019050919050565b600061227182612219565b61227b8185612224565b93508360208202850161228d85612235565b8060005b858110156122c957848403895281516122aa8582612245565b94506122b583612259565b925060208a01995050600181019050612291565b50829750879550505050505092915050565b600060408301600083015184820360008601526122f882826121b4565b915050602083015184820360208601526123128282612266565b9150508091505092915050565b600061232b83836122db565b905092915050565b6000602082019050919050565b600061234b826121ed565b61235581856121f8565b93508360208202850161236785612209565b8060005b858110156123a35784840389528151612384858261231f565b945061238f83612333565b925060208a0199505060018101905061236b565b50829750879550505050505092915050565b600060408301600083015184820360008601526123d282826121b4565b915050602083015184820360208601526123ec8282612340565b9150508091505092915050565b6000602082019050818103600083015261241381846123b5565b905092915050565b600082825260208201905092915050565b600061243782612219565b612441818561241b565b93508360208202850161245385612235565b8060005b8581101561248f57848403895281516124708582612245565b945061247b83612259565b925060208a01995050600181019050612457565b50829750879550505050505092915050565b600060208201905081810360008301526124bb818461242c565b905092915050565b600081905092915050565b50565b60006124de6000836124c3565b91506124e9826124ce565b600082019050919050565b60006124ff826124d1565b9150819050919050565b600073ffffffffffffffffffffffffffffffffffffffff82169050919050565b600061253482612509565b9050919050565b61254481612529565b82525050565b600060208201905061255f600083018461253b565b92915050565b600061257861257384611dd4565b611db9565b90508281526020810184848401111561259457612593611d43565b5b61259f84828561211e565b509392505050565b600082601f8301126125bc576125bb611d3e565b5b81516125cc848260208601612565565b91505092915050565b6000602082840312156125eb576125ea611d34565b5b600082015167ffffffffffffffff81111561260957612608611d39565b5b612615848285016125a7565b91505092915050565b600061262982612102565b61263381856124c3565b935061264381856020860161211e565b80840191505092915050565b600061265b828461261e565b915081905092915050565b7f55736572206d75737420686176652031206f72206d6f726520726f6c65730000600082015250565b600061269c601e8361210d565b91506126a782612666565b602082019050919050565b600060208201905081810360008301526126cb8161268f565b9050919050565b7f4e487b7100000000000000000000000000000000000000000000000000000000600052603260045260246000fd5b7f4e487b7100000000000000000000000000000000000000000000000000000000600052602260045260246000fd5b6000600282049050600182168061274857607f821691505b60208210810361275b5761275a612701565b5b50919050565b60008190508160005260206000209050919050565b6000815461278381612730565b61278d81866124c3565b945060018216600081146127a857600181146127bd576127f0565b60ff19831686528115158202860193506127f0565b6127c685612761565b60005b838110156127e8578154818901526001820191506020810190506127c9565b838801955050505b50505092915050565b60006128058284612776565b915081905092915050565b6000819050919050565b7f4e487b7100000000000000000000000000000000000000000000000000000000600052601160045260246000fd5b600061285482612810565b915061285f83612810565b92508282039050818111156128775761287661281a565b5b92915050565b60008154905061288c81612730565b9050919050565b60008190508160005260206000209050919050565b60006020601f8301049050919050565b600082821b905092915050565b6000600883026128f57fffffffffffffffffffffffffffffffffffffffffffffffffffffffffffffffff826128b8565b6128ff86836128b8565b95508019841693508086168417925050509392505050565b6000819050919050565b600061293c61293761293284612810565b612917565b612810565b9050919050565b6000819050919050565b61295683612921565b61296a61296282612943565b8484546128c5565b825550505050565b600090565b61297f612972565b61298a81848461294d565b505050565b5b818110156129ae576129a3600082612977565b600181019050612990565b5050565b601f8211156129f3576129c481612761565b6129cd846128a8565b810160208510156129dc578190505b6129f06129e8856128a8565b83018261298f565b50505b505050565b600082821c905092915050565b6000612a16600019846008026129f8565b1980831691505092915050565b6000612a2f8383612a05565b9150826002028217905092915050565b818103612a4d575050612b25565b612a568261287d565b67ffffffffffffffff811115612a6f57612a6e611d59565b5b612a798254612730565b612a848282856129b2565b6000601f831160018114612ab35760008415612aa1578287015490505b612aab8582612a23565b865550612b1e565b601f198416612ac187612893565b9650612acc86612761565b60005b82811015612af457848901548255600182019150600185019450602081019050612acf565b86831015612b115784890154612b0d601f891682612a05565b8355505b6001600288020188555050505b5050505050505b565b7f4e487b7100000000000000000000000000000000000000000000000000000000600052603160045260246000fd5b6000612b6182612810565b91507fffffffffffffffffffffffffffffffffffffffffffffffffffffffffffffffff8203612b9357612b9261281a565b5b600182019050919050565b7f4469726563746f727920646f65736e7420657869737400000000000000000000600082015250565b6000612bd460168361210d565b9150612bdf82612b9e565b602082019050919050565b60006020820190508181036000830152612c0381612bc7565b9050919050565b7f46696c6520616c72656164792065786973740000000000000000000000000000600082015250565b6000612c4060128361210d565b9150612c4b82612c0a565b602082019050919050565b60006020820190508181036000830152612c6f81612c33565b9050919050565b612c7f82612102565b67ffffffffffffffff811115612c9857612c97611d59565b5b612ca28254612730565b612cad8282856129b2565b600060209050601f831160018114612ce05760008415612cce578287015190505b612cd88582612a23565b865550612d40565b601f198416612cee86612761565b60005b82811015612d1657848901518255600182019150602085019450602081019050612cf1565b86831015612d335784890151612d2f601f891682612a05565b8355505b6001600288020188555050505b505050505050565b7f4469726563746f727920616c7265616479206578697374000000000000000000600082015250565b6000612d7e60178361210d565b9150612d8982612d48565b602082019050919050565b60006020820190508181036000830152612dad81612d71565b9050919050565b7f4e6f7420656e6f756768207065726d697373696f6e7300000000000000000000600082015250565b6000612dea60168361210d565b9150612df582612db4565b602082019050919050565b60006020820190508181036000830152612e1981612ddd565b9050919050565b600081549050612e2f81612730565b9050919050565b818103612e44575050612f1c565b612e4d82612e20565b67ffffffffffffffff811115612e6657612e65611d59565b5b612e708254612730565b612e7b8282856129b2565b6000601f831160018114612eaa5760008415612e98578287015490505b612ea28582612a23565b865550612f15565b601f198416612eb887612761565b9650612ec386612761565b60005b82811015612eeb57848901548255600182019150600185019450602081019050612ec6565b86831015612f085784890154612f04601f891682612a05565b8355505b6001600288020188555050505b5050505050505b56fea26469706673582212202daf881d4b288506cf828ca68047b94975a5158cb254cf66f059479a6f4dc0af64736f6c63430008130033', \n     arguments: [\n          authContractAddress,\n     ]\n}).send({\n     from: web3.eth.accounts[0], \n     gas: '4700000'\n   }, function (e, contract){\n    console.log(e, contract);\n    if (typeof contract.address !== 'undefined') {\n         console.log('Contract mined! address: ' + contract.address + ' transactionHash: ' + contract.transactionHash);\n    }\n })",
	"functionHashes": {
		"13787643": "createFile(string,string,string,string[])",
		"1c6ec7a9": "createDirectory(string)",
		"07c6e7d3": "deleteDirectory(string)",
		"d34a8708": "deleteFile(string,string)",
		"c6a909c1": "getDirectories()",
		"c12e8656": "getDirectory(string)",
		"abe71cc3": "getFileHash(string,string)"
	},
	"gasEstimates": {
		"Creation": {
			"codeDepositCost": "2423200",
			"executionCost": "infinite",
			"totalCost": "infinite"
		},
		"External": {
			"createDirectory(string)": "infinite",
			"createFile(string,string,string,string[])": "infinite",
			"deleteDirectory(string)": "infinite",
			"deleteFile(string,string)": "infinite",
			"getDirectories()": "infinite",
			"getDirectory(string)": "infinite",
			"getFileHash(string,string)": "infinite"
		},
		"Internal": {
			"checkUserRole(string memory,string memory[] memory)": "infinite",
			"isDirectoryExist(string memory)": "infinite",
			"isFileExist(string memory,string memory)": "infinite"
		}
	},
	"devdoc": {
		"kind": "dev",
		"methods": {},
		"version": 1
	},
	"userdoc": {
		"kind": "user",
		"methods": {},
		"version": 1
	},
	"Runtime Bytecode": {
		"immutableReferences": {},
		"linkReferences": {},
		"object": "608060405234801561001057600080fd5b506004361061007d5760003560e01c8063abe71cc31161005b578063abe71cc3146100d6578063c12e865614610106578063c6a909c114610136578063d34a8708146101545761007d565b806307c6e7d314610082578063137876431461009e5780631c6ec7a9146100ba575b600080fd5b61009c60048036038101906100979190611e84565b610170565b005b6100b860048036038101906100b39190611fb3565b6103be565b005b6100d460048036038101906100cf9190611e84565b610648565b005b6100f060048036038101906100eb919061208a565b610824565b6040516100fd9190612181565b60405180910390f35b610120600480360381019061011b9190611e84565b610d32565b60405161012d91906123f9565b60405180910390f35b61013e6110f2565b60405161014b91906124a1565b60405180910390f35b61016e6004803603810190610169919061208a565b6112f7565b005b60405160200161017f906124f4565b60405160208183030381529060405280519060200120600460009054906101000a900473ffffffffffffffffffffffffffffffffffffffff1673ffffffffffffffffffffffffffffffffffffffff166327820851336040518263ffffffff1660e01b81526004016101f0919061254a565b600060405180830381865afa15801561020d573d6000803e3d6000fd5b505050506040513d6000823e3d601f19601f8201168201806040525081019061023691906125d5565b604051602001610246919061264f565b604051602081830303815290604052805190602001200361029c576040517f08c379a0000000000000000000000000000000000000000000000000000000008152600401610293906126b2565b60405180910390fd5b60005b6003805490508110156103ba57816040516020016102bd919061264f565b60405160208183030381529060405280519060200120600382815481106102e7576102e66126d2565b5b9060005260206000200160405160200161030191906127f9565b60405160208183030381529060405280519060200120036103a757600360016003805490506103309190612849565b81548110610341576103406126d2565b5b906000526020600020016003828154811061035f5761035e6126d2565b5b9060005260206000200190816103759190612a3f565b50600380548061038857610387612b27565b5b6001900381819060005260206000200160006103a49190611bb8565b90555b80806103b290612b56565b91505061029f565b5050565b6040516020016103cd906124f4565b60405160208183030381529060405280519060200120600460009054906101000a900473ffffffffffffffffffffffffffffffffffffffff1673ffffffffffffffffffffffffffffffffffffffff166327820851336040518263ffffffff1660e01b815260040161043e919061254a565b600060405180830381865afa15801561045b573d6000803e3d6000fd5b505050506040513d6000823e3d601f19601f8201168201806040525081019061048491906125d5565b604051602001610494919061264f565b60405160208183030381529060405280519060200120036104ea576040517f08c379a00000000000000000000000000000000000000000000000000000000081526004016104e1906126b2565b60405180910390fd5b6104f382611848565b610532576040517f08c379a000000000000000000000000000000000000000000000000000000000815260040161052990612bea565b60405180910390fd5b61053c8483611a1e565b1561057c576040517f08c379a000000000000000000000000000000000000000000000000000000000815260040161057390612c56565b60405180910390fd5b60006040518060400160405280868152602001838152509050836001866040516105a6919061264f565b908152602001604051809103902090816105c09190612c76565b506000836040516105d1919061264f565b908152602001604051809103902060010181908060018154018082558091505060019003906000526020600020906002020160009091909190915060008201518160000190816106219190612c76565b50602082015181600101908051906020019061063e929190611bf8565b5050505050505050565b604051602001610657906124f4565b60405160208183030381529060405280519060200120600460009054906101000a900473ffffffffffffffffffffffffffffffffffffffff1673ffffffffffffffffffffffffffffffffffffffff166327820851336040518263ffffffff1660e01b81526004016106c8919061254a565b600060405180830381865afa1580156106e5573d6000803e3d6000fd5b505050506040513d6000823e3d601f19601f8201168201806040525081019061070e91906125d5565b60405160200161071e919061264f565b6040516020818303038152906040528051906020012003610774576040517f08c379a000000000000000000000000000000000000000000000000000000000815260040161076b906126b2565b60405180910390fd5b61077d81611848565b156107bd576040517f08c379a00000000000000000000000000000000000000000000000000000000081526004016107b490612d94565b60405180910390fd5b6003819080600181540180825580915050600190039060005260206000200160009091909190915090816107f19190612c76565b5080600082604051610803919061264f565b908152602001604051809103902060000190816108209190612c76565b5050565b6060604051602001610835906124f4565b60405160208183030381529060405280519060200120600460009054906101000a900473ffffffffffffffffffffffffffffffffffffffff1673ffffffffffffffffffffffffffffffffffffffff166327820851336040518263ffffffff1660e01b81526004016108a6919061254a565b600060405180830381865afa1580156108c3573d6000803e3d6000fd5b505050506040513d6000823e3d601f19601f820116820180604052508101906108ec91906125d5565b6040516020016108fc919061264f565b6040516020818303038152906040528051906020012003610952576040517f08c379a0000000000000000000000000000000000000000000000000000000008152600401610949906126b2565b60405180910390fd5b60005b600083604051610965919061264f565b908152602001604051809103902060010180549050811015610d185783604051602001610992919061264f565b604051602081830303815290604052805190602001206000846040516109b8919061264f565b908152602001604051809103902060010182815481106109db576109da6126d2565b5b90600052602060002090600202016000016040516020016109fc91906127f9565b6040516020818303038152906040528051906020012003610d0557610bd4600460009054906101000a900473ffffffffffffffffffffffffffffffffffffffff1673ffffffffffffffffffffffffffffffffffffffff166327820851336040518263ffffffff1660e01b8152600401610a75919061254a565b600060405180830381865afa158015610a92573d6000803e3d6000fd5b505050506040513d6000823e3d601f19601f82011682018060405250810190610abb91906125d5565b600085604051610acb919061264f565b90815260200160405180910390206001018381548110610aee57610aed6126d2565b5b9060005260206000209060020201600101805480602002602001604051908101604052809291908181526020016000905b82821015610bcb578382906000526020600020018054610b3e90612730565b80601f0160208091040260200160405190810160405280929190818152602001828054610b6a90612730565b8015610bb75780601f10610b8c57610100808354040283529160200191610bb7565b820191906000526020600020905b815481529060010190602001808311610b9a57829003601f168201915b505050505081526020019060010190610b1f565b50505050611b11565b610c13576040517f08c379a0000000000000000000000000000000000000000000000000000000008152600401610c0a90612e00565b60405180910390fd5b6001600084604051610c25919061264f565b90815260200160405180910390206001018281548110610c4857610c476126d2565b5b9060005260206000209060020201600001604051610c6691906127f9565b90815260200160405180910390208054610c7f90612730565b80601f0160208091040260200160405190810160405280929190818152602001828054610cab90612730565b8015610cf85780601f10610ccd57610100808354040283529160200191610cf8565b820191906000526020600020905b815481529060010190602001808311610cdb57829003601f168201915b5050505050915050610d2c565b8080610d1090612b56565b915050610955565b506040518060200160405280600081525090505b92915050565b610d3a611c51565b604051602001610d49906124f4565b60405160208183030381529060405280519060200120600460009054906101000a900473ffffffffffffffffffffffffffffffffffffffff1673ffffffffffffffffffffffffffffffffffffffff166327820851336040518263ffffffff1660e01b8152600401610dba919061254a565b600060405180830381865afa158015610dd7573d6000803e3d6000fd5b505050506040513d6000823e3d601f19601f82011682018060405250810190610e0091906125d5565b604051602001610e10919061264f565b6040516020818303038152906040528051906020012003610e66576040517f08c379a0000000000000000000000000000000000000000000000000000000008152600401610e5d906126b2565b60405180910390fd5b600082604051610e76919061264f565b9081526020016040518091039020604051806040016040529081600082018054610e9f90612730565b80601f0160208091040260200160405190810160405280929190818152602001828054610ecb90612730565b8015610f185780601f10610eed57610100808354040283529160200191610f18565b820191906000526020600020905b815481529060010190602001808311610efb57829003601f168201915b5050505050815260200160018201805480602002602001604051908101604052809291908181526020016000905b828210156110e35783829060005260206000209060020201604051806040016040529081600082018054610f7990612730565b80601f0160208091040260200160405190810160405280929190818152602001828054610fa590612730565b8015610ff25780601f10610fc757610100808354040283529160200191610ff2565b820191906000526020600020905b815481529060010190602001808311610fd557829003601f168201915b5050505050815260200160018201805480602002602001604051908101604052809291908181526020016000905b828210156110cc57838290600052602060002001805461103f90612730565b80601f016020809104026020016040519081016040528092919081815260200182805461106b90612730565b80156110b85780601f1061108d576101008083540402835291602001916110b8565b820191906000526020600020905b81548152906001019060200180831161109b57829003601f168201915b505050505081526020019060010190611020565b505050508152505081526020019060010190610f46565b50505050815250509050919050565b6060604051602001611103906124f4565b60405160208183030381529060405280519060200120600460009054906101000a900473ffffffffffffffffffffffffffffffffffffffff1673ffffffffffffffffffffffffffffffffffffffff166327820851336040518263ffffffff1660e01b8152600401611174919061254a565b600060405180830381865afa158015611191573d6000803e3d6000fd5b505050506040513d6000823e3d601f19601f820116820180604052508101906111ba91906125d5565b6040516020016111ca919061264f565b6040516020818303038152906040528051906020012003611220576040517f08c379a0000000000000000000000000000000000000000000000000000000008152600401611217906126b2565b60405180910390fd5b6003805480602002602001604051908101604052809291908181526020016000905b828210156112ee57838290600052602060002001805461126190612730565b80601f016020809104026020016040519081016040528092919081815260200182805461128d90612730565b80156112da5780601f106112af576101008083540402835291602001916112da565b820191906000526020600020905b8154815290600101906020018083116112bd57829003601f168201915b505050505081526020019060010190611242565b50505050905090565b604051602001611306906124f4565b60405160208183030381529060405280519060200120600460009054906101000a900473ffffffffffffffffffffffffffffffffffffffff1673ffffffffffffffffffffffffffffffffffffffff166327820851336040518263ffffffff1660e01b8152600401611377919061254a565b600060405180830381865afa158015611394573d6000803e3d6000fd5b505050506040513d6000823e3d601f19601f820116820180604052508101906113bd91906125d5565b6040516020016113cd919061264f565b6040516020818303038152906040528051906020012003611423576040517f08c379a000000000000000000000000000000000000000000000000000000000815260040161141a906126b2565b60405180910390fd5b60005b600082604051611436919061264f565b9081526020016040518091039020600101805490508110156118435782604051602001611463919061264f565b60405160208183030381529060405280519060200120600083604051611489919061264f565b908152602001604051809103902060010182815481106114ac576114ab6126d2565b5b90600052602060002090600202016000016040516020016114cd91906127f9565b6040516020818303038152906040528051906020012003611830576116a5600460009054906101000a900473ffffffffffffffffffffffffffffffffffffffff1673ffffffffffffffffffffffffffffffffffffffff166327820851336040518263ffffffff1660e01b8152600401611546919061254a565b600060405180830381865afa158015611563573d6000803e3d6000fd5b505050506040513d6000823e3d601f19601f8201168201806040525081019061158c91906125d5565b60008460405161159c919061264f565b908152602001604051809103902060010183815481106115bf576115be6126d2565b5b9060005260206000209060020201600101805480602002602001604051908101604052809291908181526020016000905b8282101561169c57838290600052602060002001805461160f90612730565b80601f016020809104026020016040519081016040528092919081815260200182805461163b90612730565b80156116885780601f1061165d57610100808354040283529160200191611688565b820191906000526020600020905b81548152906001019060200180831161166b57829003601f168201915b5050505050815260200190600101906115f0565b50505050611b11565b6116e4576040517f08c379a00000000000000000000000000000000000000000000000000000000081526004016116db90612e00565b60405180910390fd5b6000826040516116f4919061264f565b90815260200160405180910390206001016001600084604051611717919061264f565b9081526020016040518091039020600101805490506117369190612849565b81548110611747576117466126d2565b5b9060005260206000209060020201600083604051611765919061264f565b90815260200160405180910390206001018281548110611788576117876126d2565b5b9060005260206000209060020201600082018160000190816117aa9190612e36565b5060018201816001019080546117c1929190611c6b565b509050506000826040516117d5919061264f565b90815260200160405180910390206001018054806117f6576117f5612b27565b5b60019003818190600052602060002090600202016000808201600061181b9190611bb8565b60018201600061182b9190611cc8565b505090555b808061183b90612b56565b915050611426565b505050565b6000604051602001611859906124f4565b60405160208183030381529060405280519060200120600460009054906101000a900473ffffffffffffffffffffffffffffffffffffffff1673ffffffffffffffffffffffffffffffffffffffff166327820851336040518263ffffffff1660e01b81526004016118ca919061254a565b600060405180830381865afa1580156118e7573d6000803e3d6000fd5b505050506040513d6000823e3d601f19601f8201168201806040525081019061191091906125d5565b604051602001611920919061264f565b6040516020818303038152906040528051906020012003611976576040517f08c379a000000000000000000000000000000000000000000000000000000000815260040161196d906126b2565b60405180910390fd5b60005b600380549050811015611a135782604051602001611997919061264f565b60405160208183030381529060405280519060200120600382815481106119c1576119c06126d2565b5b906000526020600020016040516020016119db91906127f9565b6040516020818303038152906040528051906020012003611a00576001915050611a19565b8080611a0b90612b56565b915050611979565b50600090505b919050565b600080600090505b600083604051611a36919061264f565b908152602001604051809103902060010180549050811015611b055783604051602001611a63919061264f565b60405160208183030381529060405280519060200120600084604051611a89919061264f565b90815260200160405180910390206001018281548110611aac57611aab6126d2565b5b9060005260206000209060020201600001604051602001611acd91906127f9565b6040516020818303038152906040528051906020012003611af2576001915050611b0b565b8080611afd90612b56565b915050611a26565b50600090505b92915050565b600080600090505b8251811015611bac5783604051602001611b33919061264f565b60405160208183030381529060405280519060200120838281518110611b5c57611b5b6126d2565b5b6020026020010151604051602001611b74919061264f565b6040516020818303038152906040528051906020012003611b99576001915050611bb2565b8080611ba490612b56565b915050611b19565b50600090505b92915050565b508054611bc490612730565b6000825580601f10611bd65750611bf5565b601f016020900490600052602060002090810190611bf49190611ce9565b5b50565b828054828255906000526020600020908101928215611c40579160200282015b82811115611c3f578251829081611c2f9190612c76565b5091602001919060010190611c18565b5b509050611c4d9190611d06565b5090565b604051806040016040528060608152602001606081525090565b828054828255906000526020600020908101928215611cb75760005260206000209182015b82811115611cb65782829081611ca69190612e36565b5091600101919060010190611c90565b5b509050611cc49190611d06565b5090565b5080546000825590600052602060002090810190611ce69190611d06565b50565b5b80821115611d02576000816000905550600101611cea565b5090565b5b80821115611d265760008181611d1d9190611bb8565b50600101611d07565b5090565b6000604051905090565b600080fd5b600080fd5b600080fd5b600080fd5b6000601f19601f8301169050919050565b7f4e487b7100000000000000000000000000000000000000000000000000000000600052604160045260246000fd5b611d9182611d48565b810181811067ffffffffffffffff82111715611db057611daf611d59565b5b80604052505050565b6000611dc3611d2a565b9050611dcf8282611d88565b919050565b600067ffffffffffffffff821115611def57611dee611d59565b5b611df882611d48565b9050602081019050919050565b82818337600083830152505050565b6000611e27611e2284611dd4565b611db9565b905082815260208101848484011115611e4357611e42611d43565b5b611e4e848285611e05565b509392505050565b600082601f830112611e6b57611e6a611d3e565b5b8135611e7b848260208601611e14565b91505092915050565b600060208284031215611e9a57611e99611d34565b5b600082013567ffffffffffffffff811115611eb857611eb7611d39565b5b611ec484828501611e56565b91505092915050565b600067ffffffffffffffff821115611ee857611ee7611d59565b5b602082029050602081019050919050565b600080fd5b6000611f11611f0c84611ecd565b611db9565b90508083825260208201905060208402830185811115611f3457611f33611ef9565b5b835b81811015611f7b57803567ffffffffffffffff811115611f5957611f58611d3e565b5b808601611f668982611e56565b85526020850194505050602081019050611f36565b5050509392505050565b600082601f830112611f9a57611f99611d3e565b5b8135611faa848260208601611efe565b91505092915050565b60008060008060808587031215611fcd57611fcc611d34565b5b600085013567ffffffffffffffff811115611feb57611fea611d39565b5b611ff787828801611e56565b945050602085013567ffffffffffffffff81111561201857612017611d39565b5b61202487828801611e56565b935050604085013567ffffffffffffffff81111561204557612044611d39565b5b61205187828801611e56565b925050606085013567ffffffffffffffff81111561207257612071611d39565b5b61207e87828801611f85565b91505092959194509250565b600080604083850312156120a1576120a0611d34565b5b600083013567ffffffffffffffff8111156120bf576120be611d39565b5b6120cb85828601611e56565b925050602083013567ffffffffffffffff8111156120ec576120eb611d39565b5b6120f885828601611e56565b9150509250929050565b600081519050919050565b600082825260208201905092915050565b60005b8381101561213c578082015181840152602081019050612121565b60008484015250505050565b600061215382612102565b61215d818561210d565b935061216d81856020860161211e565b61217681611d48565b840191505092915050565b6000602082019050818103600083015261219b8184612148565b905092915050565b600082825260208201905092915050565b60006121bf82612102565b6121c981856121a3565b93506121d981856020860161211e565b6121e281611d48565b840191505092915050565b600081519050919050565b600082825260208201905092915050565b6000819050602082019050919050565b600081519050919050565b600082825260208201905092915050565b6000819050602082019050919050565b600061225183836121b4565b905092915050565b6000602082019050919050565b600061227182612219565b61227b8185612224565b93508360208202850161228d85612235565b8060005b858110156122c957848403895281516122aa8582612245565b94506122b583612259565b925060208a01995050600181019050612291565b50829750879550505050505092915050565b600060408301600083015184820360008601526122f882826121b4565b915050602083015184820360208601526123128282612266565b9150508091505092915050565b600061232b83836122db565b905092915050565b6000602082019050919050565b600061234b826121ed565b61235581856121f8565b93508360208202850161236785612209565b8060005b858110156123a35784840389528151612384858261231f565b945061238f83612333565b925060208a0199505060018101905061236b565b50829750879550505050505092915050565b600060408301600083015184820360008601526123d282826121b4565b915050602083015184820360208601526123ec8282612340565b9150508091505092915050565b6000602082019050818103600083015261241381846123b5565b905092915050565b600082825260208201905092915050565b600061243782612219565b612441818561241b565b93508360208202850161245385612235565b8060005b8581101561248f57848403895281516124708582612245565b945061247b83612259565b925060208a01995050600181019050612457565b50829750879550505050505092915050565b600060208201905081810360008301526124bb818461242c565b905092915050565b600081905092915050565b50565b60006124de6000836124c3565b91506124e9826124ce565b600082019050919050565b60006124ff826124d1565b9150819050919050565b600073ffffffffffffffffffffffffffffffffffffffff82169050919050565b600061253482612509565b9050919050565b61254481612529565b82525050565b600060208201905061255f600083018461253b565b92915050565b600061257861257384611dd4565b611db9565b90508281526020810184848401111561259457612593611d43565b5b61259f84828561211e565b509392505050565b600082601f8301126125bc576125bb611d3e565b5b81516125cc848260208601612565565b91505092915050565b6000602082840312156125eb576125ea611d34565b5b600082015167ffffffffffffffff81111561260957612608611d39565b5b612615848285016125a7565b91505092915050565b600061262982612102565b61263381856124c3565b935061264381856020860161211e565b80840191505092915050565b600061265b828461261e565b915081905092915050565b7f55736572206d75737420686176652031206f72206d6f726520726f6c65730000600082015250565b600061269c601e8361210d565b91506126a782612666565b602082019050919050565b600060208201905081810360008301526126cb8161268f565b9050919050565b7f4e487b7100000000000000000000000000000000000000000000000000000000600052603260045260246000fd5b7f4e487b7100000000000000000000000000000000000000000000000000000000600052602260045260246000fd5b6000600282049050600182168061274857607f821691505b60208210810361275b5761275a612701565b5b50919050565b60008190508160005260206000209050919050565b6000815461278381612730565b61278d81866124c3565b945060018216600081146127a857600181146127bd576127f0565b60ff19831686528115158202860193506127f0565b6127c685612761565b60005b838110156127e8578154818901526001820191506020810190506127c9565b838801955050505b50505092915050565b60006128058284612776565b915081905092915050565b6000819050919050565b7f4e487b7100000000000000000000000000000000000000000000000000000000600052601160045260246000fd5b600061285482612810565b915061285f83612810565b92508282039050818111156128775761287661281a565b5b92915050565b60008154905061288c81612730565b9050919050565b60008190508160005260206000209050919050565b60006020601f8301049050919050565b600082821b905092915050565b6000600883026128f57fffffffffffffffffffffffffffffffffffffffffffffffffffffffffffffffff826128b8565b6128ff86836128b8565b95508019841693508086168417925050509392505050565b6000819050919050565b600061293c61293761293284612810565b612917565b612810565b9050919050565b6000819050919050565b61295683612921565b61296a61296282612943565b8484546128c5565b825550505050565b600090565b61297f612972565b61298a81848461294d565b505050565b5b818110156129ae576129a3600082612977565b600181019050612990565b5050565b601f8211156129f3576129c481612761565b6129cd846128a8565b810160208510156129dc578190505b6129f06129e8856128a8565b83018261298f565b50505b505050565b600082821c905092915050565b6000612a16600019846008026129f8565b1980831691505092915050565b6000612a2f8383612a05565b9150826002028217905092915050565b818103612a4d575050612b25565b612a568261287d565b67ffffffffffffffff811115612a6f57612a6e611d59565b5b612a798254612730565b612a848282856129b2565b6000601f831160018114612ab35760008415612aa1578287015490505b612aab8582612a23565b865550612b1e565b601f198416612ac187612893565b9650612acc86612761565b60005b82811015612af457848901548255600182019150600185019450602081019050612acf565b86831015612b115784890154612b0d601f891682612a05565b8355505b6001600288020188555050505b5050505050505b565b7f4e487b7100000000000000000000000000000000000000000000000000000000600052603160045260246000fd5b6000612b6182612810565b91507fffffffffffffffffffffffffffffffffffffffffffffffffffffffffffffffff8203612b9357612b9261281a565b5b600182019050919050565b7f4469726563746f727920646f65736e7420657869737400000000000000000000600082015250565b6000612bd460168361210d565b9150612bdf82612b9e565b602082019050919050565b60006020820190508181036000830152612c0381612bc7565b9050919050565b7f46696c6520616c72656164792065786973740000000000000000000000000000600082015250565b6000612c4060128361210d565b9150612c4b82612c0a565b602082019050919050565b60006020820190508181036000830152612c6f81612c33565b9050919050565b612c7f82612102565b67ffffffffffffffff811115612c9857612c97611d59565b5b612ca28254612730565b612cad8282856129b2565b600060209050601f831160018114612ce05760008415612cce578287015190505b612cd88582612a23565b865550612d40565b601f198416612cee86612761565b60005b82811015612d1657848901518255600182019150602085019450602081019050612cf1565b86831015612d335784890151612d2f601f891682612a05565b8355505b6001600288020188555050505b505050505050565b7f4469726563746f727920616c7265616479206578697374000000000000000000600082015250565b6000612d7e60178361210d565b9150612d8982612d48565b602082019050919050565b60006020820190508181036000830152612dad81612d71565b9050919050565b7f4e6f7420656e6f756768207065726d697373696f6e7300000000000000000000600082015250565b6000612dea60168361210d565b9150612df582612db4565b602082019050919050565b60006020820190508181036000830152612e1981612ddd565b9050919050565b600081549050612e2f81612730565b9050919050565b818103612e44575050612f1c565b612e4d82612e20565b67ffffffffffffffff811115612e6657612e65611d59565b5b612e708254612730565b612e7b8282856129b2565b6000601f831160018114612eaa5760008415612e98578287015490505b612ea28582612a23565b865550612f15565b601f198416612eb887612761565b9650612ec386612761565b60005b82811015612eeb57848901548255600182019150600185019450602081019050612ec6565b86831015612f085784890154612f04601f891682612a05565b8355505b6001600288020188555050505b5050505050505b56fea26469706673582212202daf881d4b288506cf828ca68047b94975a5158cb254cf66f059479a6f4dc0af64736f6c63430008130033",
		"opcodes": "PUSH1 0x80 PUSH1 0x40 MSTORE CALLVALUE DUP1 ISZERO PUSH2 0x10 JUMPI PUSH1 0x0 DUP1 REVERT JUMPDEST POP PUSH1 0x4 CALLDATASIZE LT PUSH2 0x7D JUMPI PUSH1 0x0 CALLDATALOAD PUSH1 0xE0 SHR DUP1 PUSH4 0xABE71CC3 GT PUSH2 0x5B JUMPI DUP1 PUSH4 0xABE71CC3 EQ PUSH2 0xD6 JUMPI DUP1 PUSH4 0xC12E8656 EQ PUSH2 0x106 JUMPI DUP1 PUSH4 0xC6A909C1 EQ PUSH2 0x136 JUMPI DUP1 PUSH4 0xD34A8708 EQ PUSH2 0x154 JUMPI PUSH2 0x7D JUMP JUMPDEST DUP1 PUSH4 0x7C6E7D3 EQ PUSH2 0x82 JUMPI DUP1 PUSH4 0x13787643 EQ PUSH2 0x9E JUMPI DUP1 PUSH4 0x1C6EC7A9 EQ PUSH2 0xBA JUMPI JUMPDEST PUSH1 0x0 DUP1 REVERT JUMPDEST PUSH2 0x9C PUSH1 0x4 DUP1 CALLDATASIZE SUB DUP2 ADD SWAP1 PUSH2 0x97 SWAP2 SWAP1 PUSH2 0x1E84 JUMP JUMPDEST PUSH2 0x170 JUMP JUMPDEST STOP JUMPDEST PUSH2 0xB8 PUSH1 0x4 DUP1 CALLDATASIZE SUB DUP2 ADD SWAP1 PUSH2 0xB3 SWAP2 SWAP1 PUSH2 0x1FB3 JUMP JUMPDEST PUSH2 0x3BE JUMP JUMPDEST STOP JUMPDEST PUSH2 0xD4 PUSH1 0x4 DUP1 CALLDATASIZE SUB DUP2 ADD SWAP1 PUSH2 0xCF SWAP2 SWAP1 PUSH2 0x1E84 JUMP JUMPDEST PUSH2 0x648 JUMP JUMPDEST STOP JUMPDEST PUSH2 0xF0 PUSH1 0x4 DUP1 CALLDATASIZE SUB DUP2 ADD SWAP1 PUSH2 0xEB SWAP2 SWAP1 PUSH2 0x208A JUMP JUMPDEST PUSH2 0x824 JUMP JUMPDEST PUSH1 0x40 MLOAD PUSH2 0xFD SWAP2 SWAP1 PUSH2 0x2181 JUMP JUMPDEST PUSH1 0x40 MLOAD DUP1 SWAP2 SUB SWAP1 RETURN JUMPDEST PUSH2 0x120 PUSH1 0x4 DUP1 CALLDATASIZE SUB DUP2 ADD SWAP1 PUSH2 0x11B SWAP2 SWAP1 PUSH2 0x1E84 JUMP JUMPDEST PUSH2 0xD32 JUMP JUMPDEST PUSH1 0x40 MLOAD PUSH2 0x12D SWAP2 SWAP1 PUSH2 0x23F9 JUMP JUMPDEST PUSH1 0x40 MLOAD DUP1 SWAP2 SUB SWAP1 RETURN JUMPDEST PUSH2 0x13E PUSH2 0x10F2 JUMP JUMPDEST PUSH1 0x40 MLOAD PUSH2 0x14B SWAP2 SWAP1 PUSH2 0x24A1 JUMP JUMPDEST PUSH1 0x40 MLOAD DUP1 SWAP2 SUB SWAP1 RETURN JUMPDEST PUSH2 0x16E PUSH1 0x4 DUP1 CALLDATASIZE SUB DUP2 ADD SWAP1 PUSH2 0x169 SWAP2 SWAP1 PUSH2 0x208A JUMP JUMPDEST PUSH2 0x12F7 JUMP JUMPDEST STOP JUMPDEST PUSH1 0x40 MLOAD PUSH1 0x20 ADD PUSH2 0x17F SWAP1 PUSH2 0x24F4 JUMP JUMPDEST PUSH1 0x40 MLOAD PUSH1 0x20 DUP2 DUP4 SUB SUB DUP2 MSTORE SWAP1 PUSH1 0x40 MSTORE DUP1 MLOAD SWAP1 PUSH1 0x20 ADD KECCAK256 PUSH1 0x4 PUSH1 0x0 SWAP1 SLOAD SWAP1 PUSH2 0x100 EXP SWAP1 DIV PUSH20 0xFFFFFFFFFFFFFFFFFFFFFFFFFFFFFFFFFFFFFFFF AND PUSH20 0xFFFFFFFFFFFFFFFFFFFFFFFFFFFFFFFFFFFFFFFF AND PUSH4 0x27820851 CALLER PUSH1 0x40 MLOAD DUP3 PUSH4 0xFFFFFFFF AND PUSH1 0xE0 SHL DUP2 MSTORE PUSH1 0x4 ADD PUSH2 0x1F0 SWAP2 SWAP1 PUSH2 0x254A JUMP JUMPDEST PUSH1 0x0 PUSH1 0x40 MLOAD DUP1 DUP4 SUB DUP2 DUP7 GAS STATICCALL ISZERO DUP1 ISZERO PUSH2 0x20D JUMPI RETURNDATASIZE PUSH1 0x0 DUP1 RETURNDATACOPY RETURNDATASIZE PUSH1 0x0 REVERT JUMPDEST POP POP POP POP PUSH1 0x40 MLOAD RETURNDATASIZE PUSH1 0x0 DUP3 RETURNDATACOPY RETURNDATASIZE PUSH1 0x1F NOT PUSH1 0x1F DUP3 ADD AND DUP3 ADD DUP1 PUSH1 0x40 MSTORE POP DUP2 ADD SWAP1 PUSH2 0x236 SWAP2 SWAP1 PUSH2 0x25D5 JUMP JUMPDEST PUSH1 0x40 MLOAD PUSH1 0x20 ADD PUSH2 0x246 SWAP2 SWAP1 PUSH2 0x264F JUMP JUMPDEST PUSH1 0x40 MLOAD PUSH1 0x20 DUP2 DUP4 SUB SUB DUP2 MSTORE SWAP1 PUSH1 0x40 MSTORE DUP1 MLOAD SWAP1 PUSH1 0x20 ADD KECCAK256 SUB PUSH2 0x29C JUMPI PUSH1 0x40 MLOAD PUSH32 0x8C379A000000000000000000000000000000000000000000000000000000000 DUP2 MSTORE PUSH1 0x4 ADD PUSH2 0x293 SWAP1 PUSH2 0x26B2 JUMP JUMPDEST PUSH1 0x40 MLOAD DUP1 SWAP2 SUB SWAP1 REVERT JUMPDEST PUSH1 0x0 JUMPDEST PUSH1 0x3 DUP1 SLOAD SWAP1 POP DUP2 LT ISZERO PUSH2 0x3BA JUMPI DUP2 PUSH1 0x40 MLOAD PUSH1 0x20 ADD PUSH2 0x2BD SWAP2 SWAP1 PUSH2 0x264F JUMP JUMPDEST PUSH1 0x40 MLOAD PUSH1 0x20 DUP2 DUP4 SUB SUB DUP2 MSTORE SWAP1 PUSH1 0x40 MSTORE DUP1 MLOAD SWAP1 PUSH1 0x20 ADD KECCAK256 PUSH1 0x3 DUP3 DUP2 SLOAD DUP2 LT PUSH2 0x2E7 JUMPI PUSH2 0x2E6 PUSH2 0x26D2 JUMP JUMPDEST JUMPDEST SWAP1 PUSH1 0x0 MSTORE PUSH1 0x20 PUSH1 0x0 KECCAK256 ADD PUSH1 0x40 MLOAD PUSH1 0x20 ADD PUSH2 0x301 SWAP2 SWAP1 PUSH2 0x27F9 JUMP JUMPDEST PUSH1 0x40 MLOAD PUSH1 0x20 DUP2 DUP4 SUB SUB DUP2 MSTORE SWAP1 PUSH1 0x40 MSTORE DUP1 MLOAD SWAP1 PUSH1 0x20 ADD KECCAK256 SUB PUSH2 0x3A7 JUMPI PUSH1 0x3 PUSH1 0x1 PUSH1 0x3 DUP1 SLOAD SWAP1 POP PUSH2 0x330 SWAP2 SWAP1 PUSH2 0x2849 JUMP JUMPDEST DUP2 SLOAD DUP2 LT PUSH2 0x341 JUMPI PUSH2 0x340 PUSH2 0x26D2 JUMP JUMPDEST JUMPDEST SWAP1 PUSH1 0x0 MSTORE PUSH1 0x20 PUSH1 0x0 KECCAK256 ADD PUSH1 0x3 DUP3 DUP2 SLOAD DUP2 LT PUSH2 0x35F JUMPI PUSH2 0x35E PUSH2 0x26D2 JUMP JUMPDEST JUMPDEST SWAP1 PUSH1 0x0 MSTORE PUSH1 0x20 PUSH1 0x0 KECCAK256 ADD SWAP1 DUP2 PUSH2 0x375 SWAP2 SWAP1 PUSH2 0x2A3F JUMP JUMPDEST POP PUSH1 0x3 DUP1 SLOAD DUP1 PUSH2 0x388 JUMPI PUSH2 0x387 PUSH2 0x2B27 JUMP JUMPDEST JUMPDEST PUSH1 0x1 SWAP1 SUB DUP2 DUP2 SWAP1 PUSH1 0x0 MSTORE PUSH1 0x20 PUSH1 0x0 KECCAK256 ADD PUSH1 0x0 PUSH2 0x3A4 SWAP2 SWAP1 PUSH2 0x1BB8 JUMP JUMPDEST SWAP1 SSTORE JUMPDEST DUP1 DUP1 PUSH2 0x3B2 SWAP1 PUSH2 0x2B56 JUMP JUMPDEST SWAP2 POP POP PUSH2 0x29F JUMP JUMPDEST POP POP JUMP JUMPDEST PUSH1 0x40 MLOAD PUSH1 0x20 ADD PUSH2 0x3CD SWAP1 PUSH2 0x24F4 JUMP JUMPDEST PUSH1 0x40 MLOAD PUSH1 0x20 DUP2 DUP4 SUB SUB DUP2 MSTORE SWAP1 PUSH1 0x40 MSTORE DUP1 MLOAD SWAP1 PUSH1 0x20 ADD KECCAK256 PUSH1 0x4 PUSH1 0x0 SWAP1 SLOAD SWAP1 PUSH2 0x100 EXP SWAP1 DIV PUSH20 0xFFFFFFFFFFFFFFFFFFFFFFFFFFFFFFFFFFFFFFFF AND PUSH20 0xFFFFFFFFFFFFFFFFFFFFFFFFFFFFFFFFFFFFFFFF AND PUSH4 0x27820851 CALLER PUSH1 0x40 MLOAD DUP3 PUSH4 0xFFFFFFFF AND PUSH1 0xE0 SHL DUP2 MSTORE PUSH1 0x4 ADD PUSH2 0x43E SWAP2 SWAP1 PUSH2 0x254A JUMP JUMPDEST PUSH1 0x0 PUSH1 0x40 MLOAD DUP1 DUP4 SUB DUP2 DUP7 GAS STATICCALL ISZERO DUP1 ISZERO PUSH2 0x45B JUMPI RETURNDATASIZE PUSH1 0x0 DUP1 RETURNDATACOPY RETURNDATASIZE PUSH1 0x0 REVERT JUMPDEST POP POP POP POP PUSH1 0x40 MLOAD RETURNDATASIZE PUSH1 0x0 DUP3 RETURNDATACOPY RETURNDATASIZE PUSH1 0x1F NOT PUSH1 0x1F DUP3 ADD AND DUP3 ADD DUP1 PUSH1 0x40 MSTORE POP DUP2 ADD SWAP1 PUSH2 0x484 SWAP2 SWAP1 PUSH2 0x25D5 JUMP JUMPDEST PUSH1 0x40 MLOAD PUSH1 0x20 ADD PUSH2 0x494 SWAP2 SWAP1 PUSH2 0x264F JUMP JUMPDEST PUSH1 0x40 MLOAD PUSH1 0x20 DUP2 DUP4 SUB SUB DUP2 MSTORE SWAP1 PUSH1 0x40 MSTORE DUP1 MLOAD SWAP1 PUSH1 0x20 ADD KECCAK256 SUB PUSH2 0x4EA JUMPI PUSH1 0x40 MLOAD PUSH32 0x8C379A000000000000000000000000000000000000000000000000000000000 DUP2 MSTORE PUSH1 0x4 ADD PUSH2 0x4E1 SWAP1 PUSH2 0x26B2 JUMP JUMPDEST PUSH1 0x40 MLOAD DUP1 SWAP2 SUB SWAP1 REVERT JUMPDEST PUSH2 0x4F3 DUP3 PUSH2 0x1848 JUMP JUMPDEST PUSH2 0x532 JUMPI PUSH1 0x40 MLOAD PUSH32 0x8C379A000000000000000000000000000000000000000000000000000000000 DUP2 MSTORE PUSH1 0x4 ADD PUSH2 0x529 SWAP1 PUSH2 0x2BEA JUMP JUMPDEST PUSH1 0x40 MLOAD DUP1 SWAP2 SUB SWAP1 REVERT JUMPDEST PUSH2 0x53C DUP5 DUP4 PUSH2 0x1A1E JUMP JUMPDEST ISZERO PUSH2 0x57C JUMPI PUSH1 0x40 MLOAD PUSH32 0x8C379A000000000000000000000000000000000000000000000000000000000 DUP2 MSTORE PUSH1 0x4 ADD PUSH2 0x573 SWAP1 PUSH2 0x2C56 JUMP JUMPDEST PUSH1 0x40 MLOAD DUP1 SWAP2 SUB SWAP1 REVERT JUMPDEST PUSH1 0x0 PUSH1 0x40 MLOAD DUP1 PUSH1 0x40 ADD PUSH1 0x40 MSTORE DUP1 DUP7 DUP2 MSTORE PUSH1 0x20 ADD DUP4 DUP2 MSTORE POP SWAP1 POP DUP4 PUSH1 0x1 DUP7 PUSH1 0x40 MLOAD PUSH2 0x5A6 SWAP2 SWAP1 PUSH2 0x264F JUMP JUMPDEST SWAP1 DUP2 MSTORE PUSH1 0x20 ADD PUSH1 0x40 MLOAD DUP1 SWAP2 SUB SWAP1 KECCAK256 SWAP1 DUP2 PUSH2 0x5C0 SWAP2 SWAP1 PUSH2 0x2C76 JUMP JUMPDEST POP PUSH1 0x0 DUP4 PUSH1 0x40 MLOAD PUSH2 0x5D1 SWAP2 SWAP1 PUSH2 0x264F JUMP JUMPDEST SWAP1 DUP2 MSTORE PUSH1 0x20 ADD PUSH1 0x40 MLOAD DUP1 SWAP2 SUB SWAP1 KECCAK256 PUSH1 0x1 ADD DUP2 SWAP1 DUP1 PUSH1 0x1 DUP2 SLOAD ADD DUP1 DUP3 SSTORE DUP1 SWAP2 POP POP PUSH1 0x1 SWAP1 SUB SWAP1 PUSH1 0x0 MSTORE PUSH1 0x20 PUSH1 0x0 KECCAK256 SWAP1 PUSH1 0x2 MUL ADD PUSH1 0x0 SWAP1 SWAP2 SWAP1 SWAP2 SWAP1 SWAP2 POP PUSH1 0x0 DUP3 ADD MLOAD DUP2 PUSH1 0x0 ADD SWAP1 DUP2 PUSH2 0x621 SWAP2 SWAP1 PUSH2 0x2C76 JUMP JUMPDEST POP PUSH1 0x20 DUP3 ADD MLOAD DUP2 PUSH1 0x1 ADD SWAP1 DUP1 MLOAD SWAP1 PUSH1 0x20 ADD SWAP1 PUSH2 0x63E SWAP3 SWAP2 SWAP1 PUSH2 0x1BF8 JUMP JUMPDEST POP POP POP POP POP POP POP POP JUMP JUMPDEST PUSH1 0x40 MLOAD PUSH1 0x20 ADD PUSH2 0x657 SWAP1 PUSH2 0x24F4 JUMP JUMPDEST PUSH1 0x40 MLOAD PUSH1 0x20 DUP2 DUP4 SUB SUB DUP2 MSTORE SWAP1 PUSH1 0x40 MSTORE DUP1 MLOAD SWAP1 PUSH1 0x20 ADD KECCAK256 PUSH1 0x4 PUSH1 0x0 SWAP1 SLOAD SWAP1 PUSH2 0x100 EXP SWAP1 DIV PUSH20 0xFFFFFFFFFFFFFFFFFFFFFFFFFFFFFFFFFFFFFFFF AND PUSH20 0xFFFFFFFFFFFFFFFFFFFFFFFFFFFFFFFFFFFFFFFF AND PUSH4 0x27820851 CALLER PUSH1 0x40 MLOAD DUP3 PUSH4 0xFFFFFFFF AND PUSH1 0xE0 SHL DUP2 MSTORE PUSH1 0x4 ADD PUSH2 0x6C8 SWAP2 SWAP1 PUSH2 0x254A JUMP JUMPDEST PUSH1 0x0 PUSH1 0x40 MLOAD DUP1 DUP4 SUB DUP2 DUP7 GAS STATICCALL ISZERO DUP1 ISZERO PUSH2 0x6E5 JUMPI RETURNDATASIZE PUSH1 0x0 DUP1 RETURNDATACOPY RETURNDATASIZE PUSH1 0x0 REVERT JUMPDEST POP POP POP POP PUSH1 0x40 MLOAD RETURNDATASIZE PUSH1 0x0 DUP3 RETURNDATACOPY RETURNDATASIZE PUSH1 0x1F NOT PUSH1 0x1F DUP3 ADD AND DUP3 ADD DUP1 PUSH1 0x40 MSTORE POP DUP2 ADD SWAP1 PUSH2 0x70E SWAP2 SWAP1 PUSH2 0x25D5 JUMP JUMPDEST PUSH1 0x40 MLOAD PUSH1 0x20 ADD PUSH2 0x71E SWAP2 SWAP1 PUSH2 0x264F JUMP JUMPDEST PUSH1 0x40 MLOAD PUSH1 0x20 DUP2 DUP4 SUB SUB DUP2 MSTORE SWAP1 PUSH1 0x40 MSTORE DUP1 MLOAD SWAP1 PUSH1 0x20 ADD KECCAK256 SUB PUSH2 0x774 JUMPI PUSH1 0x40 MLOAD PUSH32 0x8C379A000000000000000000000000000000000000000000000000000000000 DUP2 MSTORE PUSH1 0x4 ADD PUSH2 0x76B SWAP1 PUSH2 0x26B2 JUMP JUMPDEST PUSH1 0x40 MLOAD DUP1 SWAP2 SUB SWAP1 REVERT JUMPDEST PUSH2 0x77D DUP2 PUSH2 0x1848 JUMP JUMPDEST ISZERO PUSH2 0x7BD JUMPI PUSH1 0x40 MLOAD PUSH32 0x8C379A000000000000000000000000000000000000000000000000000000000 DUP2 MSTORE PUSH1 0x4 ADD PUSH2 0x7B4 SWAP1 PUSH2 0x2D94 JUMP JUMPDEST PUSH1 0x40 MLOAD DUP1 SWAP2 SUB SWAP1 REVERT JUMPDEST PUSH1 0x3 DUP2 SWAP1 DUP1 PUSH1 0x1 DUP2 SLOAD ADD DUP1 DUP3 SSTORE DUP1 SWAP2 POP POP PUSH1 0x1 SWAP1 SUB SWAP1 PUSH1 0x0 MSTORE PUSH1 0x20 PUSH1 0x0 KECCAK256 ADD PUSH1 0x0 SWAP1 SWAP2 SWAP1 SWAP2 SWAP1 SWAP2 POP SWAP1 DUP2 PUSH2 0x7F1 SWAP2 SWAP1 PUSH2 0x2C76 JUMP JUMPDEST POP DUP1 PUSH1 0x0 DUP3 PUSH1 0x40 MLOAD PUSH2 0x803 SWAP2 SWAP1 PUSH2 0x264F JUMP JUMPDEST SWAP1 DUP2 MSTORE PUSH1 0x20 ADD PUSH1 0x40 MLOAD DUP1 SWAP2 SUB SWAP1 KECCAK256 PUSH1 0x0 ADD SWAP1 DUP2 PUSH2 0x820 SWAP2 SWAP1 PUSH2 0x2C76 JUMP JUMPDEST POP POP JUMP JUMPDEST PUSH1 0x60 PUSH1 0x40 MLOAD PUSH1 0x20 ADD PUSH2 0x835 SWAP1 PUSH2 0x24F4 JUMP JUMPDEST PUSH1 0x40 MLOAD PUSH1 0x20 DUP2 DUP4 SUB SUB DUP2 MSTORE SWAP1 PUSH1 0x40 MSTORE DUP1 MLOAD SWAP1 PUSH1 0x20 ADD KECCAK256 PUSH1 0x4 PUSH1 0x0 SWAP1 SLOAD SWAP1 PUSH2 0x100 EXP SWAP1 DIV PUSH20 0xFFFFFFFFFFFFFFFFFFFFFFFFFFFFFFFFFFFFFFFF AND PUSH20 0xFFFFFFFFFFFFFFFFFFFFFFFFFFFFFFFFFFFFFFFF AND PUSH4 0x27820851 CALLER PUSH1 0x40 MLOAD DUP3 PUSH4 0xFFFFFFFF AND PUSH1 0xE0 SHL DUP2 MSTORE PUSH1 0x4 ADD PUSH2 0x8A6 SWAP2 SWAP1 PUSH2 0x254A JUMP JUMPDEST PUSH1 0x0 PUSH1 0x40 MLOAD DUP1 DUP4 SUB DUP2 DUP7 GAS STATICCALL ISZERO DUP1 ISZERO PUSH2 0x8C3 JUMPI RETURNDATASIZE PUSH1 0x0 DUP1 RETURNDATACOPY RETURNDATASIZE PUSH1 0x0 REVERT JUMPDEST POP POP POP POP PUSH1 0x40 MLOAD RETURNDATASIZE PUSH1 0x0 DUP3 RETURNDATACOPY RETURNDATASIZE PUSH1 0x1F NOT PUSH1 0x1F DUP3 ADD AND DUP3 ADD DUP1 PUSH1 0x40 MSTORE POP DUP2 ADD SWAP1 PUSH2 0x8EC SWAP2 SWAP1 PUSH2 0x25D5 JUMP JUMPDEST PUSH1 0x40 MLOAD PUSH1 0x20 ADD PUSH2 0x8FC SWAP2 SWAP1 PUSH2 0x264F JUMP JUMPDEST PUSH1 0x40 MLOAD PUSH1 0x20 DUP2 DUP4 SUB SUB DUP2 MSTORE SWAP1 PUSH1 0x40 MSTORE DUP1 MLOAD SWAP1 PUSH1 0x20 ADD KECCAK256 SUB PUSH2 0x952 JUMPI PUSH1 0x40 MLOAD PUSH32 0x8C379A000000000000000000000000000000000000000000000000000000000 DUP2 MSTORE PUSH1 0x4 ADD PUSH2 0x949 SWAP1 PUSH2 0x26B2 JUMP JUMPDEST PUSH1 0x40 MLOAD DUP1 SWAP2 SUB SWAP1 REVERT JUMPDEST PUSH1 0x0 JUMPDEST PUSH1 0x0 DUP4 PUSH1 0x40 MLOAD PUSH2 0x965 SWAP2 SWAP1 PUSH2 0x264F JUMP JUMPDEST SWAP1 DUP2 MSTORE PUSH1 0x20 ADD PUSH1 0x40 MLOAD DUP1 SWAP2 SUB SWAP1 KECCAK256 PUSH1 0x1 ADD DUP1 SLOAD SWAP1 POP DUP2 LT ISZERO PUSH2 0xD18 JUMPI DUP4 PUSH1 0x40 MLOAD PUSH1 0x20 ADD PUSH2 0x992 SWAP2 SWAP1 PUSH2 0x264F JUMP JUMPDEST PUSH1 0x40 MLOAD PUSH1 0x20 DUP2 DUP4 SUB SUB DUP2 MSTORE SWAP1 PUSH1 0x40 MSTORE DUP1 MLOAD SWAP1 PUSH1 0x20 ADD KECCAK256 PUSH1 0x0 DUP5 PUSH1 0x40 MLOAD PUSH2 0x9B8 SWAP2 SWAP1 PUSH2 0x264F JUMP JUMPDEST SWAP1 DUP2 MSTORE PUSH1 0x20 ADD PUSH1 0x40 MLOAD DUP1 SWAP2 SUB SWAP1 KECCAK256 PUSH1 0x1 ADD DUP3 DUP2 SLOAD DUP2 LT PUSH2 0x9DB JUMPI PUSH2 0x9DA PUSH2 0x26D2 JUMP JUMPDEST JUMPDEST SWAP1 PUSH1 0x0 MSTORE PUSH1 0x20 PUSH1 0x0 KECCAK256 SWAP1 PUSH1 0x2 MUL ADD PUSH1 0x0 ADD PUSH1 0x40 MLOAD PUSH1 0x20 ADD PUSH2 0x9FC SWAP2 SWAP1 PUSH2 0x27F9 JUMP JUMPDEST PUSH1 0x40 MLOAD PUSH1 0x20 DUP2 DUP4 SUB SUB DUP2 MSTORE SWAP1 PUSH1 0x40 MSTORE DUP1 MLOAD SWAP1 PUSH1 0x20 ADD KECCAK256 SUB PUSH2 0xD05 JUMPI PUSH2 0xBD4 PUSH1 0x4 PUSH1 0x0 SWAP1 SLOAD SWAP1 PUSH2 0x100 EXP SWAP1 DIV PUSH20 0xFFFFFFFFFFFFFFFFFFFFFFFFFFFFFFFFFFFFFFFF AND PUSH20 0xFFFFFFFFFFFFFFFFFFFFFFFFFFFFFFFFFFFFFFFF AND PUSH4 0x27820851 CALLER PUSH1 0x40 MLOAD DUP3 PUSH4 0xFFFFFFFF AND PUSH1 0xE0 SHL DUP2 MSTORE PUSH1 0x4 ADD PUSH2 0xA75 SWAP2 SWAP1 PUSH2 0x254A JUMP JUMPDEST PUSH1 0x0 PUSH1 0x40 MLOAD DUP1 DUP4 SUB DUP2 DUP7 GAS STATICCALL ISZERO DUP1 ISZERO PUSH2 0xA92 JUMPI RETURNDATASIZE PUSH1 0x0 DUP1 RETURNDATACOPY RETURNDATASIZE PUSH1 0x0 REVERT JUMPDEST POP POP POP POP PUSH1 0x40 MLOAD RETURNDATASIZE PUSH1 0x0 DUP3 RETURNDATACOPY RETURNDATASIZE PUSH1 0x1F NOT PUSH1 0x1F DUP3 ADD AND DUP3 ADD DUP1 PUSH1 0x40 MSTORE POP DUP2 ADD SWAP1 PUSH2 0xABB SWAP2 SWAP1 PUSH2 0x25D5 JUMP JUMPDEST PUSH1 0x0 DUP6 PUSH1 0x40 MLOAD PUSH2 0xACB SWAP2 SWAP1 PUSH2 0x264F JUMP JUMPDEST SWAP1 DUP2 MSTORE PUSH1 0x20 ADD PUSH1 0x40 MLOAD DUP1 SWAP2 SUB SWAP1 KECCAK256 PUSH1 0x1 ADD DUP4 DUP2 SLOAD DUP2 LT PUSH2 0xAEE JUMPI PUSH2 0xAED PUSH2 0x26D2 JUMP JUMPDEST JUMPDEST SWAP1 PUSH1 0x0 MSTORE PUSH1 0x20 PUSH1 0x0 KECCAK256 SWAP1 PUSH1 0x2 MUL ADD PUSH1 0x1 ADD DUP1 SLOAD DUP1 PUSH1 0x20 MUL PUSH1 0x20 ADD PUSH1 0x40 MLOAD SWAP1 DUP2 ADD PUSH1 0x40 MSTORE DUP1 SWAP3 SWAP2 SWAP1 DUP2 DUP2 MSTORE PUSH1 0x20 ADD PUSH1 0x0 SWAP1 JUMPDEST DUP3 DUP3 LT ISZERO PUSH2 0xBCB JUMPI DUP4 DUP3 SWAP1 PUSH1 0x0 MSTORE PUSH1 0x20 PUSH1 0x0 KECCAK256 ADD DUP1 SLOAD PUSH2 0xB3E SWAP1 PUSH2 0x2730 JUMP JUMPDEST DUP1 PUSH1 0x1F ADD PUSH1 0x20 DUP1 SWAP2 DIV MUL PUSH1 0x20 ADD PUSH1 0x40 MLOAD SWAP1 DUP2 ADD PUSH1 0x40 MSTORE DUP1 SWAP3 SWAP2 SWAP1 DUP2 DUP2 MSTORE PUSH1 0x20 ADD DUP3 DUP1 SLOAD PUSH2 0xB6A SWAP1 PUSH2 0x2730 JUMP JUMPDEST DUP1 ISZERO PUSH2 0xBB7 JUMPI DUP1 PUSH1 0x1F LT PUSH2 0xB8C JUMPI PUSH2 0x100 DUP1 DUP4 SLOAD DIV MUL DUP4 MSTORE SWAP2 PUSH1 0x20 ADD SWAP2 PUSH2 0xBB7 JUMP JUMPDEST DUP3 ADD SWAP2 SWAP1 PUSH1 0x0 MSTORE PUSH1 0x20 PUSH1 0x0 KECCAK256 SWAP1 JUMPDEST DUP2 SLOAD DUP2 MSTORE SWAP1 PUSH1 0x1 ADD SWAP1 PUSH1 0x20 ADD DUP1 DUP4 GT PUSH2 0xB9A JUMPI DUP3 SWAP1 SUB PUSH1 0x1F AND DUP3 ADD SWAP2 JUMPDEST POP POP POP POP POP DUP2 MSTORE PUSH1 0x20 ADD SWAP1 PUSH1 0x1 ADD SWAP1 PUSH2 0xB1F JUMP JUMPDEST POP POP POP POP PUSH2 0x1B11 JUMP JUMPDEST PUSH2 0xC13 JUMPI PUSH1 0x40 MLOAD PUSH32 0x8C379A000000000000000000000000000000000000000000000000000000000 DUP2 MSTORE PUSH1 0x4 ADD PUSH2 0xC0A SWAP1 PUSH2 0x2E00 JUMP JUMPDEST PUSH1 0x40 MLOAD DUP1 SWAP2 SUB SWAP1 REVERT JUMPDEST PUSH1 0x1 PUSH1 0x0 DUP5 PUSH1 0x40 MLOAD PUSH2 0xC25 SWAP2 SWAP1 PUSH2 0x264F JUMP JUMPDEST SWAP1 DUP2 MSTORE PUSH1 0x20 ADD PUSH1 0x40 MLOAD DUP1 SWAP2 SUB SWAP1 KECCAK256 PUSH1 0x1 ADD DUP3 DUP2 SLOAD DUP2 LT PUSH2 0xC48 JUMPI PUSH2 0xC47 PUSH2 0x26D2 JUMP JUMPDEST JUMPDEST SWAP1 PUSH1 0x0 MSTORE PUSH1 0x20 PUSH1 0x0 KECCAK256 SWAP1 PUSH1 0x2 MUL ADD PUSH1 0x0 ADD PUSH1 0x40 MLOAD PUSH2 0xC66 SWAP2 SWAP1 PUSH2 0x27F9 JUMP JUMPDEST SWAP1 DUP2 MSTORE PUSH1 0x20 ADD PUSH1 0x40 MLOAD DUP1 SWAP2 SUB SWAP1 KECCAK256 DUP1 SLOAD PUSH2 0xC7F SWAP1 PUSH2 0x2730 JUMP JUMPDEST DUP1 PUSH1 0x1F ADD PUSH1 0x20 DUP1 SWAP2 DIV MUL PUSH1 0x20 ADD PUSH1 0x40 MLOAD SWAP1 DUP2 ADD PUSH1 0x40 MSTORE DUP1 SWAP3 SWAP2 SWAP1 DUP2 DUP2 MSTORE PUSH1 0x20 ADD DUP3 DUP1 SLOAD PUSH2 0xCAB SWAP1 PUSH2 0x2730 JUMP JUMPDEST DUP1 ISZERO PUSH2 0xCF8 JUMPI DUP1 PUSH1 0x1F LT PUSH2 0xCCD JUMPI PUSH2 0x100 DUP1 DUP4 SLOAD DIV MUL DUP4 MSTORE SWAP2 PUSH1 0x20 ADD SWAP2 PUSH2 0xCF8 JUMP JUMPDEST DUP3 ADD SWAP2 SWAP1 PUSH1 0x0 MSTORE PUSH1 0x20 PUSH1 0x0 KECCAK256 SWAP1 JUMPDEST DUP2 SLOAD DUP2 MSTORE SWAP1 PUSH1 0x1 ADD SWAP1 PUSH1 0x20 ADD DUP1 DUP4 GT PUSH2 0xCDB JUMPI DUP3 SWAP1 SUB PUSH1 0x1F AND DUP3 ADD SWAP2 JUMPDEST POP POP POP POP POP SWAP2 POP POP PUSH2 0xD2C JUMP JUMPDEST DUP1 DUP1 PUSH2 0xD10 SWAP1 PUSH2 0x2B56 JUMP JUMPDEST SWAP2 POP POP PUSH2 0x955 JUMP JUMPDEST POP PUSH1 0x40 MLOAD DUP1 PUSH1 0x20 ADD PUSH1 0x40 MSTORE DUP1 PUSH1 0x0 DUP2 MSTORE POP SWAP1 POP JUMPDEST SWAP3 SWAP2 POP POP JUMP JUMPDEST PUSH2 0xD3A PUSH2 0x1C51 JUMP JUMPDEST PUSH1 0x40 MLOAD PUSH1 0x20 ADD PUSH2 0xD49 SWAP1 PUSH2 0x24F4 JUMP JUMPDEST PUSH1 0x40 MLOAD PUSH1 0x20 DUP2 DUP4 SUB SUB DUP2 MSTORE SWAP1 PUSH1 0x40 MSTORE DUP1 MLOAD SWAP1 PUSH1 0x20 ADD KECCAK256 PUSH1 0x4 PUSH1 0x0 SWAP1 SLOAD SWAP1 PUSH2 0x100 EXP SWAP1 DIV PUSH20 0xFFFFFFFFFFFFFFFFFFFFFFFFFFFFFFFFFFFFFFFF AND PUSH20 0xFFFFFFFFFFFFFFFFFFFFFFFFFFFFFFFFFFFFFFFF AND PUSH4 0x27820851 CALLER PUSH1 0x40 MLOAD DUP3 PUSH4 0xFFFFFFFF AND PUSH1 0xE0 SHL DUP2 MSTORE PUSH1 0x4 ADD PUSH2 0xDBA SWAP2 SWAP1 PUSH2 0x254A JUMP JUMPDEST PUSH1 0x0 PUSH1 0x40 MLOAD DUP1 DUP4 SUB DUP2 DUP7 GAS STATICCALL ISZERO DUP1 ISZERO PUSH2 0xDD7 JUMPI RETURNDATASIZE PUSH1 0x0 DUP1 RETURNDATACOPY RETURNDATASIZE PUSH1 0x0 REVERT JUMPDEST POP POP POP POP PUSH1 0x40 MLOAD RETURNDATASIZE PUSH1 0x0 DUP3 RETURNDATACOPY RETURNDATASIZE PUSH1 0x1F NOT PUSH1 0x1F DUP3 ADD AND DUP3 ADD DUP1 PUSH1 0x40 MSTORE POP DUP2 ADD SWAP1 PUSH2 0xE00 SWAP2 SWAP1 PUSH2 0x25D5 JUMP JUMPDEST PUSH1 0x40 MLOAD PUSH1 0x20 ADD PUSH2 0xE10 SWAP2 SWAP1 PUSH2 0x264F JUMP JUMPDEST PUSH1 0x40 MLOAD PUSH1 0x20 DUP2 DUP4 SUB SUB DUP2 MSTORE SWAP1 PUSH1 0x40 MSTORE DUP1 MLOAD SWAP1 PUSH1 0x20 ADD KECCAK256 SUB PUSH2 0xE66 JUMPI PUSH1 0x40 MLOAD PUSH32 0x8C379A000000000000000000000000000000000000000000000000000000000 DUP2 MSTORE PUSH1 0x4 ADD PUSH2 0xE5D SWAP1 PUSH2 0x26B2 JUMP JUMPDEST PUSH1 0x40 MLOAD DUP1 SWAP2 SUB SWAP1 REVERT JUMPDEST PUSH1 0x0 DUP3 PUSH1 0x40 MLOAD PUSH2 0xE76 SWAP2 SWAP1 PUSH2 0x264F JUMP JUMPDEST SWAP1 DUP2 MSTORE PUSH1 0x20 ADD PUSH1 0x40 MLOAD DUP1 SWAP2 SUB SWAP1 KECCAK256 PUSH1 0x40 MLOAD DUP1 PUSH1 0x40 ADD PUSH1 0x40 MSTORE SWAP1 DUP2 PUSH1 0x0 DUP3 ADD DUP1 SLOAD PUSH2 0xE9F SWAP1 PUSH2 0x2730 JUMP JUMPDEST DUP1 PUSH1 0x1F ADD PUSH1 0x20 DUP1 SWAP2 DIV MUL PUSH1 0x20 ADD PUSH1 0x40 MLOAD SWAP1 DUP2 ADD PUSH1 0x40 MSTORE DUP1 SWAP3 SWAP2 SWAP1 DUP2 DUP2 MSTORE PUSH1 0x20 ADD DUP3 DUP1 SLOAD PUSH2 0xECB SWAP1 PUSH2 0x2730 JUMP JUMPDEST DUP1 ISZERO PUSH2 0xF18 JUMPI DUP1 PUSH1 0x1F LT PUSH2 0xEED JUMPI PUSH2 0x100 DUP1 DUP4 SLOAD DIV MUL DUP4 MSTORE SWAP2 PUSH1 0x20 ADD SWAP2 PUSH2 0xF18 JUMP JUMPDEST DUP3 ADD SWAP2 SWAP1 PUSH1 0x0 MSTORE PUSH1 0x20 PUSH1 0x0 KECCAK256 SWAP1 JUMPDEST DUP2 SLOAD DUP2 MSTORE SWAP1 PUSH1 0x1 ADD SWAP1 PUSH1 0x20 ADD DUP1 DUP4 GT PUSH2 0xEFB JUMPI DUP3 SWAP1 SUB PUSH1 0x1F AND DUP3 ADD SWAP2 JUMPDEST POP POP POP POP POP DUP2 MSTORE PUSH1 0x20 ADD PUSH1 0x1 DUP3 ADD DUP1 SLOAD DUP1 PUSH1 0x20 MUL PUSH1 0x20 ADD PUSH1 0x40 MLOAD SWAP1 DUP2 ADD PUSH1 0x40 MSTORE DUP1 SWAP3 SWAP2 SWAP1 DUP2 DUP2 MSTORE PUSH1 0x20 ADD PUSH1 0x0 SWAP1 JUMPDEST DUP3 DUP3 LT ISZERO PUSH2 0x10E3 JUMPI DUP4 DUP3 SWAP1 PUSH1 0x0 MSTORE PUSH1 0x20 PUSH1 0x0 KECCAK256 SWAP1 PUSH1 0x2 MUL ADD PUSH1 0x40 MLOAD DUP1 PUSH1 0x40 ADD PUSH1 0x40 MSTORE SWAP1 DUP2 PUSH1 0x0 DUP3 ADD DUP1 SLOAD PUSH2 0xF79 SWAP1 PUSH2 0x2730 JUMP JUMPDEST DUP1 PUSH1 0x1F ADD PUSH1 0x20 DUP1 SWAP2 DIV MUL PUSH1 0x20 ADD PUSH1 0x40 MLOAD SWAP1 DUP2 ADD PUSH1 0x40 MSTORE DUP1 SWAP3 SWAP2 SWAP1 DUP2 DUP2 MSTORE PUSH1 0x20 ADD DUP3 DUP1 SLOAD PUSH2 0xFA5 SWAP1 PUSH2 0x2730 JUMP JUMPDEST DUP1 ISZERO PUSH2 0xFF2 JUMPI DUP1 PUSH1 0x1F LT PUSH2 0xFC7 JUMPI PUSH2 0x100 DUP1 DUP4 SLOAD DIV MUL DUP4 MSTORE SWAP2 PUSH1 0x20 ADD SWAP2 PUSH2 0xFF2 JUMP JUMPDEST DUP3 ADD SWAP2 SWAP1 PUSH1 0x0 MSTORE PUSH1 0x20 PUSH1 0x0 KECCAK256 SWAP1 JUMPDEST DUP2 SLOAD DUP2 MSTORE SWAP1 PUSH1 0x1 ADD SWAP1 PUSH1 0x20 ADD DUP1 DUP4 GT PUSH2 0xFD5 JUMPI DUP3 SWAP1 SUB PUSH1 0x1F AND DUP3 ADD SWAP2 JUMPDEST POP POP POP POP POP DUP2 MSTORE PUSH1 0x20 ADD PUSH1 0x1 DUP3 ADD DUP1 SLOAD DUP1 PUSH1 0x20 MUL PUSH1 0x20 ADD PUSH1 0x40 MLOAD SWAP1 DUP2 ADD PUSH1 0x40 MSTORE DUP1 SWAP3 SWAP2 SWAP1 DUP2 DUP2 MSTORE PUSH1 0x20 ADD PUSH1 0x0 SWAP1 JUMPDEST DUP3 DUP3 LT ISZERO PUSH2 0x10CC JUMPI DUP4 DUP3 SWAP1 PUSH1 0x0 MSTORE PUSH1 0x20 PUSH1 0x0 KECCAK256 ADD DUP1 SLOAD PUSH2 0x103F SWAP1 PUSH2 0x2730 JUMP JUMPDEST DUP1 PUSH1 0x1F ADD PUSH1 0x20 DUP1 SWAP2 DIV MUL PUSH1 0x20 ADD PUSH1 0x40 MLOAD SWAP1 DUP2 ADD PUSH1 0x40 MSTORE DUP1 SWAP3 SWAP2 SWAP1 DUP2 DUP2 MSTORE PUSH1 0x20 ADD DUP3 DUP1 SLOAD PUSH2 0x106B SWAP1 PUSH2 0x2730 JUMP JUMPDEST DUP1 ISZERO PUSH2 0x10B8 JUMPI DUP1 PUSH1 0x1F LT PUSH2 0x108D JUMPI PUSH2 0x100 DUP1 DUP4 SLOAD DIV MUL DUP4 MSTORE SWAP2 PUSH1 0x20 ADD SWAP2 PUSH2 0x10B8 JUMP JUMPDEST DUP3 ADD SWAP2 SWAP1 PUSH1 0x0 MSTORE PUSH1 0x20 PUSH1 0x0 KECCAK256 SWAP1 JUMPDEST DUP2 SLOAD DUP2 MSTORE SWAP1 PUSH1 0x1 ADD SWAP1 PUSH1 0x20 ADD DUP1 DUP4 GT PUSH2 0x109B JUMPI DUP3 SWAP1 SUB PUSH1 0x1F AND DUP3 ADD SWAP2 JUMPDEST POP POP POP POP POP DUP2 MSTORE PUSH1 0x20 ADD SWAP1 PUSH1 0x1 ADD SWAP1 PUSH2 0x1020 JUMP JUMPDEST POP POP POP POP DUP2 MSTORE POP POP DUP2 MSTORE PUSH1 0x20 ADD SWAP1 PUSH1 0x1 ADD SWAP1 PUSH2 0xF46 JUMP JUMPDEST POP POP POP POP DUP2 MSTORE POP POP SWAP1 POP SWAP2 SWAP1 POP JUMP JUMPDEST PUSH1 0x60 PUSH1 0x40 MLOAD PUSH1 0x20 ADD PUSH2 0x1103 SWAP1 PUSH2 0x24F4 JUMP JUMPDEST PUSH1 0x40 MLOAD PUSH1 0x20 DUP2 DUP4 SUB SUB DUP2 MSTORE SWAP1 PUSH1 0x40 MSTORE DUP1 MLOAD SWAP1 PUSH1 0x20 ADD KECCAK256 PUSH1 0x4 PUSH1 0x0 SWAP1 SLOAD SWAP1 PUSH2 0x100 EXP SWAP1 DIV PUSH20 0xFFFFFFFFFFFFFFFFFFFFFFFFFFFFFFFFFFFFFFFF AND PUSH20 0xFFFFFFFFFFFFFFFFFFFFFFFFFFFFFFFFFFFFFFFF AND PUSH4 0x27820851 CALLER PUSH1 0x40 MLOAD DUP3 PUSH4 0xFFFFFFFF AND PUSH1 0xE0 SHL DUP2 MSTORE PUSH1 0x4 ADD PUSH2 0x1174 SWAP2 SWAP1 PUSH2 0x254A JUMP JUMPDEST PUSH1 0x0 PUSH1 0x40 MLOAD DUP1 DUP4 SUB DUP2 DUP7 GAS STATICCALL ISZERO DUP1 ISZERO PUSH2 0x1191 JUMPI RETURNDATASIZE PUSH1 0x0 DUP1 RETURNDATACOPY RETURNDATASIZE PUSH1 0x0 REVERT JUMPDEST POP POP POP POP PUSH1 0x40 MLOAD RETURNDATASIZE PUSH1 0x0 DUP3 RETURNDATACOPY RETURNDATASIZE PUSH1 0x1F NOT PUSH1 0x1F DUP3 ADD AND DUP3 ADD DUP1 PUSH1 0x40 MSTORE POP DUP2 ADD SWAP1 PUSH2 0x11BA SWAP2 SWAP1 PUSH2 0x25D5 JUMP JUMPDEST PUSH1 0x40 MLOAD PUSH1 0x20 ADD PUSH2 0x11CA SWAP2 SWAP1 PUSH2 0x264F JUMP JUMPDEST PUSH1 0x40 MLOAD PUSH1 0x20 DUP2 DUP4 SUB SUB DUP2 MSTORE SWAP1 PUSH1 0x40 MSTORE DUP1 MLOAD SWAP1 PUSH1 0x20 ADD KECCAK256 SUB PUSH2 0x1220 JUMPI PUSH1 0x40 MLOAD PUSH32 0x8C379A000000000000000000000000000000000000000000000000000000000 DUP2 MSTORE PUSH1 0x4 ADD PUSH2 0x1217 SWAP1 PUSH2 0x26B2 JUMP JUMPDEST PUSH1 0x40 MLOAD DUP1 SWAP2 SUB SWAP1 REVERT JUMPDEST PUSH1 0x3 DUP1 SLOAD DUP1 PUSH1 0x20 MUL PUSH1 0x20 ADD PUSH1 0x40 MLOAD SWAP1 DUP2 ADD PUSH1 0x40 MSTORE DUP1 SWAP3 SWAP2 SWAP1 DUP2 DUP2 MSTORE PUSH1 0x20 ADD PUSH1 0x0 SWAP1 JUMPDEST DUP3 DUP3 LT ISZERO PUSH2 0x12EE JUMPI DUP4 DUP3 SWAP1 PUSH1 0x0 MSTORE PUSH1 0x20 PUSH1 0x0 KECCAK256 ADD DUP1 SLOAD PUSH2 0x1261 SWAP1 PUSH2 0x2730 JUMP JUMPDEST DUP1 PUSH1 0x1F ADD PUSH1 0x20 DUP1 SWAP2 DIV MUL PUSH1 0x20 ADD PUSH1 0x40 MLOAD SWAP1 DUP2 ADD PUSH1 0x40 MSTORE DUP1 SWAP3 SWAP2 SWAP1 DUP2 DUP2 MSTORE PUSH1 0x20 ADD DUP3 DUP1 SLOAD PUSH2 0x128D SWAP1 PUSH2 0x2730 JUMP JUMPDEST DUP1 ISZERO PUSH2 0x12DA JUMPI DUP1 PUSH1 0x1F LT PUSH2 0x12AF JUMPI PUSH2 0x100 DUP1 DUP4 SLOAD DIV MUL DUP4 MSTORE SWAP2 PUSH1 0x20 ADD SWAP2 PUSH2 0x12DA JUMP JUMPDEST DUP3 ADD SWAP2 SWAP1 PUSH1 0x0 MSTORE PUSH1 0x20 PUSH1 0x0 KECCAK256 SWAP1 JUMPDEST DUP2 SLOAD DUP2 MSTORE SWAP1 PUSH1 0x1 ADD SWAP1 PUSH1 0x20 ADD DUP1 DUP4 GT PUSH2 0x12BD JUMPI DUP3 SWAP1 SUB PUSH1 0x1F AND DUP3 ADD SWAP2 JUMPDEST POP POP POP POP POP DUP2 MSTORE PUSH1 0x20 ADD SWAP1 PUSH1 0x1 ADD SWAP1 PUSH2 0x1242 JUMP JUMPDEST POP POP POP POP SWAP1 POP SWAP1 JUMP JUMPDEST PUSH1 0x40 MLOAD PUSH1 0x20 ADD PUSH2 0x1306 SWAP1 PUSH2 0x24F4 JUMP JUMPDEST PUSH1 0x40 MLOAD PUSH1 0x20 DUP2 DUP4 SUB SUB DUP2 MSTORE SWAP1 PUSH1 0x40 MSTORE DUP1 MLOAD SWAP1 PUSH1 0x20 ADD KECCAK256 PUSH1 0x4 PUSH1 0x0 SWAP1 SLOAD SWAP1 PUSH2 0x100 EXP SWAP1 DIV PUSH20 0xFFFFFFFFFFFFFFFFFFFFFFFFFFFFFFFFFFFFFFFF AND PUSH20 0xFFFFFFFFFFFFFFFFFFFFFFFFFFFFFFFFFFFFFFFF AND PUSH4 0x27820851 CALLER PUSH1 0x40 MLOAD DUP3 PUSH4 0xFFFFFFFF AND PUSH1 0xE0 SHL DUP2 MSTORE PUSH1 0x4 ADD PUSH2 0x1377 SWAP2 SWAP1 PUSH2 0x254A JUMP JUMPDEST PUSH1 0x0 PUSH1 0x40 MLOAD DUP1 DUP4 SUB DUP2 DUP7 GAS STATICCALL ISZERO DUP1 ISZERO PUSH2 0x1394 JUMPI RETURNDATASIZE PUSH1 0x0 DUP1 RETURNDATACOPY RETURNDATASIZE PUSH1 0x0 REVERT JUMPDEST POP POP POP POP PUSH1 0x40 MLOAD RETURNDATASIZE PUSH1 0x0 DUP3 RETURNDATACOPY RETURNDATASIZE PUSH1 0x1F NOT PUSH1 0x1F DUP3 ADD AND DUP3 ADD DUP1 PUSH1 0x40 MSTORE POP DUP2 ADD SWAP1 PUSH2 0x13BD SWAP2 SWAP1 PUSH2 0x25D5 JUMP JUMPDEST PUSH1 0x40 MLOAD PUSH1 0x20 ADD PUSH2 0x13CD SWAP2 SWAP1 PUSH2 0x264F JUMP JUMPDEST PUSH1 0x40 MLOAD PUSH1 0x20 DUP2 DUP4 SUB SUB DUP2 MSTORE SWAP1 PUSH1 0x40 MSTORE DUP1 MLOAD SWAP1 PUSH1 0x20 ADD KECCAK256 SUB PUSH2 0x1423 JUMPI PUSH1 0x40 MLOAD PUSH32 0x8C379A000000000000000000000000000000000000000000000000000000000 DUP2 MSTORE PUSH1 0x4 ADD PUSH2 0x141A SWAP1 PUSH2 0x26B2 JUMP JUMPDEST PUSH1 0x40 MLOAD DUP1 SWAP2 SUB SWAP1 REVERT JUMPDEST PUSH1 0x0 JUMPDEST PUSH1 0x0 DUP3 PUSH1 0x40 MLOAD PUSH2 0x1436 SWAP2 SWAP1 PUSH2 0x264F JUMP JUMPDEST SWAP1 DUP2 MSTORE PUSH1 0x20 ADD PUSH1 0x40 MLOAD DUP1 SWAP2 SUB SWAP1 KECCAK256 PUSH1 0x1 ADD DUP1 SLOAD SWAP1 POP DUP2 LT ISZERO PUSH2 0x1843 JUMPI DUP3 PUSH1 0x40 MLOAD PUSH1 0x20 ADD PUSH2 0x1463 SWAP2 SWAP1 PUSH2 0x264F JUMP JUMPDEST PUSH1 0x40 MLOAD PUSH1 0x20 DUP2 DUP4 SUB SUB DUP2 MSTORE SWAP1 PUSH1 0x40 MSTORE DUP1 MLOAD SWAP1 PUSH1 0x20 ADD KECCAK256 PUSH1 0x0 DUP4 PUSH1 0x40 MLOAD PUSH2 0x1489 SWAP2 SWAP1 PUSH2 0x264F JUMP JUMPDEST SWAP1 DUP2 MSTORE PUSH1 0x20 ADD PUSH1 0x40 MLOAD DUP1 SWAP2 SUB SWAP1 KECCAK256 PUSH1 0x1 ADD DUP3 DUP2 SLOAD DUP2 LT PUSH2 0x14AC JUMPI PUSH2 0x14AB PUSH2 0x26D2 JUMP JUMPDEST JUMPDEST SWAP1 PUSH1 0x0 MSTORE PUSH1 0x20 PUSH1 0x0 KECCAK256 SWAP1 PUSH1 0x2 MUL ADD PUSH1 0x0 ADD PUSH1 0x40 MLOAD PUSH1 0x20 ADD PUSH2 0x14CD SWAP2 SWAP1 PUSH2 0x27F9 JUMP JUMPDEST PUSH1 0x40 MLOAD PUSH1 0x20 DUP2 DUP4 SUB SUB DUP2 MSTORE SWAP1 PUSH1 0x40 MSTORE DUP1 MLOAD SWAP1 PUSH1 0x20 ADD KECCAK256 SUB PUSH2 0x1830 JUMPI PUSH2 0x16A5 PUSH1 0x4 PUSH1 0x0 SWAP1 SLOAD SWAP1 PUSH2 0x100 EXP SWAP1 DIV PUSH20 0xFFFFFFFFFFFFFFFFFFFFFFFFFFFFFFFFFFFFFFFF AND PUSH20 0xFFFFFFFFFFFFFFFFFFFFFFFFFFFFFFFFFFFFFFFF AND PUSH4 0x27820851 CALLER PUSH1 0x40 MLOAD DUP3 PUSH4 0xFFFFFFFF AND PUSH1 0xE0 SHL DUP2 MSTORE PUSH1 0x4 ADD PUSH2 0x1546 SWAP2 SWAP1 PUSH2 0x254A JUMP JUMPDEST PUSH1 0x0 PUSH1 0x40 MLOAD DUP1 DUP4 SUB DUP2 DUP7 GAS STATICCALL ISZERO DUP1 ISZERO PUSH2 0x1563 JUMPI RETURNDATASIZE PUSH1 0x0 DUP1 RETURNDATACOPY RETURNDATASIZE PUSH1 0x0 REVERT JUMPDEST POP POP POP POP PUSH1 0x40 MLOAD RETURNDATASIZE PUSH1 0x0 DUP3 RETURNDATACOPY RETURNDATASIZE PUSH1 0x1F NOT PUSH1 0x1F DUP3 ADD AND DUP3 ADD DUP1 PUSH1 0x40 MSTORE POP DUP2 ADD SWAP1 PUSH2 0x158C SWAP2 SWAP1 PUSH2 0x25D5 JUMP JUMPDEST PUSH1 0x0 DUP5 PUSH1 0x40 MLOAD PUSH2 0x159C SWAP2 SWAP1 PUSH2 0x264F JUMP JUMPDEST SWAP1 DUP2 MSTORE PUSH1 0x20 ADD PUSH1 0x40 MLOAD DUP1 SWAP2 SUB SWAP1 KECCAK256 PUSH1 0x1 ADD DUP4 DUP2 SLOAD DUP2 LT PUSH2 0x15BF JUMPI PUSH2 0x15BE PUSH2 0x26D2 JUMP JUMPDEST JUMPDEST SWAP1 PUSH1 0x0 MSTORE PUSH1 0x20 PUSH1 0x0 KECCAK256 SWAP1 PUSH1 0x2 MUL ADD PUSH1 0x1 ADD DUP1 SLOAD DUP1 PUSH1 0x20 MUL PUSH1 0x20 ADD PUSH1 0x40 MLOAD SWAP1 DUP2 ADD PUSH1 0x40 MSTORE DUP1 SWAP3 SWAP2 SWAP1 DUP2 DUP2 MSTORE PUSH1 0x20 ADD PUSH1 0x0 SWAP1 JUMPDEST DUP3 DUP3 LT ISZERO PUSH2 0x169C JUMPI DUP4 DUP3 SWAP1 PUSH1 0x0 MSTORE PUSH1 0x20 PUSH1 0x0 KECCAK256 ADD DUP1 SLOAD PUSH2 0x160F SWAP1 PUSH2 0x2730 JUMP JUMPDEST DUP1 PUSH1 0x1F ADD PUSH1 0x20 DUP1 SWAP2 DIV MUL PUSH1 0x20 ADD PUSH1 0x40 MLOAD SWAP1 DUP2 ADD PUSH1 0x40 MSTORE DUP1 SWAP3 SWAP2 SWAP1 DUP2 DUP2 MSTORE PUSH1 0x20 ADD DUP3 DUP1 SLOAD PUSH2 0x163B SWAP1 PUSH2 0x2730 JUMP JUMPDEST DUP1 ISZERO PUSH2 0x1688 JUMPI DUP1 PUSH1 0x1F LT PUSH2 0x165D JUMPI PUSH2 0x100 DUP1 DUP4 SLOAD DIV MUL DUP4 MSTORE SWAP2 PUSH1 0x20 ADD SWAP2 PUSH2 0x1688 JUMP JUMPDEST DUP3 ADD SWAP2 SWAP1 PUSH1 0x0 MSTORE PUSH1 0x20 PUSH1 0x0 KECCAK256 SWAP1 JUMPDEST DUP2 SLOAD DUP2 MSTORE SWAP1 PUSH1 0x1 ADD SWAP1 PUSH1 0x20 ADD DUP1 DUP4 GT PUSH2 0x166B JUMPI DUP3 SWAP1 SUB PUSH1 0x1F AND DUP3 ADD SWAP2 JUMPDEST POP POP POP POP POP DUP2 MSTORE PUSH1 0x20 ADD SWAP1 PUSH1 0x1 ADD SWAP1 PUSH2 0x15F0 JUMP JUMPDEST POP POP POP POP PUSH2 0x1B11 JUMP JUMPDEST PUSH2 0x16E4 JUMPI PUSH1 0x40 MLOAD PUSH32 0x8C379A000000000000000000000000000000000000000000000000000000000 DUP2 MSTORE PUSH1 0x4 ADD PUSH2 0x16DB SWAP1 PUSH2 0x2E00 JUMP JUMPDEST PUSH1 0x40 MLOAD DUP1 SWAP2 SUB SWAP1 REVERT JUMPDEST PUSH1 0x0 DUP3 PUSH1 0x40 MLOAD PUSH2 0x16F4 SWAP2 SWAP1 PUSH2 0x264F JUMP JUMPDEST SWAP1 DUP2 MSTORE PUSH1 0x20 ADD PUSH1 0x40 MLOAD DUP1 SWAP2 SUB SWAP1 KECCAK256 PUSH1 0x1 ADD PUSH1 0x1 PUSH1 0x0 DUP5 PUSH1 0x40 MLOAD PUSH2 0x1717 SWAP2 SWAP1 PUSH2 0x264F JUMP JUMPDEST SWAP1 DUP2 MSTORE PUSH1 0x20 ADD PUSH1 0x40 MLOAD DUP1 SWAP2 SUB SWAP1 KECCAK256 PUSH1 0x1 ADD DUP1 SLOAD SWAP1 POP PUSH2 0x1736 SWAP2 SWAP1 PUSH2 0x2849 JUMP JUMPDEST DUP2 SLOAD DUP2 LT PUSH2 0x1747 JUMPI PUSH2 0x1746 PUSH2 0x26D2 JUMP JUMPDEST JUMPDEST SWAP1 PUSH1 0x0 MSTORE PUSH1 0x20 PUSH1 0x0 KECCAK256 SWAP1 PUSH1 0x2 MUL ADD PUSH1 0x0 DUP4 PUSH1 0x40 MLOAD PUSH2 0x1765 SWAP2 SWAP1 PUSH2 0x264F JUMP JUMPDEST SWAP1 DUP2 MSTORE PUSH1 0x20 ADD PUSH1 0x40 MLOAD DUP1 SWAP2 SUB SWAP1 KECCAK256 PUSH1 0x1 ADD DUP3 DUP2 SLOAD DUP2 LT PUSH2 0x1788 JUMPI PUSH2 0x1787 PUSH2 0x26D2 JUMP JUMPDEST JUMPDEST SWAP1 PUSH1 0x0 MSTORE PUSH1 0x20 PUSH1 0x0 KECCAK256 SWAP1 PUSH1 0x2 MUL ADD PUSH1 0x0 DUP3 ADD DUP2 PUSH1 0x0 ADD SWAP1 DUP2 PUSH2 0x17AA SWAP2 SWAP1 PUSH2 0x2E36 JUMP JUMPDEST POP PUSH1 0x1 DUP3 ADD DUP2 PUSH1 0x1 ADD SWAP1 DUP1 SLOAD PUSH2 0x17C1 SWAP3 SWAP2 SWAP1 PUSH2 0x1C6B JUMP JUMPDEST POP SWAP1 POP POP PUSH1 0x0 DUP3 PUSH1 0x40 MLOAD PUSH2 0x17D5 SWAP2 SWAP1 PUSH2 0x264F JUMP JUMPDEST SWAP1 DUP2 MSTORE PUSH1 0x20 ADD PUSH1 0x40 MLOAD DUP1 SWAP2 SUB SWAP1 KECCAK256 PUSH1 0x1 ADD DUP1 SLOAD DUP1 PUSH2 0x17F6 JUMPI PUSH2 0x17F5 PUSH2 0x2B27 JUMP JUMPDEST JUMPDEST PUSH1 0x1 SWAP1 SUB DUP2 DUP2 SWAP1 PUSH1 0x0 MSTORE PUSH1 0x20 PUSH1 0x0 KECCAK256 SWAP1 PUSH1 0x2 MUL ADD PUSH1 0x0 DUP1 DUP3 ADD PUSH1 0x0 PUSH2 0x181B SWAP2 SWAP1 PUSH2 0x1BB8 JUMP JUMPDEST PUSH1 0x1 DUP3 ADD PUSH1 0x0 PUSH2 0x182B SWAP2 SWAP1 PUSH2 0x1CC8 JUMP JUMPDEST POP POP SWAP1 SSTORE JUMPDEST DUP1 DUP1 PUSH2 0x183B SWAP1 PUSH2 0x2B56 JUMP JUMPDEST SWAP2 POP POP PUSH2 0x1426 JUMP JUMPDEST POP POP POP JUMP JUMPDEST PUSH1 0x0 PUSH1 0x40 MLOAD PUSH1 0x20 ADD PUSH2 0x1859 SWAP1 PUSH2 0x24F4 JUMP JUMPDEST PUSH1 0x40 MLOAD PUSH1 0x20 DUP2 DUP4 SUB SUB DUP2 MSTORE SWAP1 PUSH1 0x40 MSTORE DUP1 MLOAD SWAP1 PUSH1 0x20 ADD KECCAK256 PUSH1 0x4 PUSH1 0x0 SWAP1 SLOAD SWAP1 PUSH2 0x100 EXP SWAP1 DIV PUSH20 0xFFFFFFFFFFFFFFFFFFFFFFFFFFFFFFFFFFFFFFFF AND PUSH20 0xFFFFFFFFFFFFFFFFFFFFFFFFFFFFFFFFFFFFFFFF AND PUSH4 0x27820851 CALLER PUSH1 0x40 MLOAD DUP3 PUSH4 0xFFFFFFFF AND PUSH1 0xE0 SHL DUP2 MSTORE PUSH1 0x4 ADD PUSH2 0x18CA SWAP2 SWAP1 PUSH2 0x254A JUMP JUMPDEST PUSH1 0x0 PUSH1 0x40 MLOAD DUP1 DUP4 SUB DUP2 DUP7 GAS STATICCALL ISZERO DUP1 ISZERO PUSH2 0x18E7 JUMPI RETURNDATASIZE PUSH1 0x0 DUP1 RETURNDATACOPY RETURNDATASIZE PUSH1 0x0 REVERT JUMPDEST POP POP POP POP PUSH1 0x40 MLOAD RETURNDATASIZE PUSH1 0x0 DUP3 RETURNDATACOPY RETURNDATASIZE PUSH1 0x1F NOT PUSH1 0x1F DUP3 ADD AND DUP3 ADD DUP1 PUSH1 0x40 MSTORE POP DUP2 ADD SWAP1 PUSH2 0x1910 SWAP2 SWAP1 PUSH2 0x25D5 JUMP JUMPDEST PUSH1 0x40 MLOAD PUSH1 0x20 ADD PUSH2 0x1920 SWAP2 SWAP1 PUSH2 0x264F JUMP JUMPDEST PUSH1 0x40 MLOAD PUSH1 0x20 DUP2 DUP4 SUB SUB DUP2 MSTORE SWAP1 PUSH1 0x40 MSTORE DUP1 MLOAD SWAP1 PUSH1 0x20 ADD KECCAK256 SUB PUSH2 0x1976 JUMPI PUSH1 0x40 MLOAD PUSH32 0x8C379A000000000000000000000000000000000000000000000000000000000 DUP2 MSTORE PUSH1 0x4 ADD PUSH2 0x196D SWAP1 PUSH2 0x26B2 JUMP JUMPDEST PUSH1 0x40 MLOAD DUP1 SWAP2 SUB SWAP1 REVERT JUMPDEST PUSH1 0x0 JUMPDEST PUSH1 0x3 DUP1 SLOAD SWAP1 POP DUP2 LT ISZERO PUSH2 0x1A13 JUMPI DUP3 PUSH1 0x40 MLOAD PUSH1 0x20 ADD PUSH2 0x1997 SWAP2 SWAP1 PUSH2 0x264F JUMP JUMPDEST PUSH1 0x40 MLOAD PUSH1 0x20 DUP2 DUP4 SUB SUB DUP2 MSTORE SWAP1 PUSH1 0x40 MSTORE DUP1 MLOAD SWAP1 PUSH1 0x20 ADD KECCAK256 PUSH1 0x3 DUP3 DUP2 SLOAD DUP2 LT PUSH2 0x19C1 JUMPI PUSH2 0x19C0 PUSH2 0x26D2 JUMP JUMPDEST JUMPDEST SWAP1 PUSH1 0x0 MSTORE PUSH1 0x20 PUSH1 0x0 KECCAK256 ADD PUSH1 0x40 MLOAD PUSH1 0x20 ADD PUSH2 0x19DB SWAP2 SWAP1 PUSH2 0x27F9 JUMP JUMPDEST PUSH1 0x40 MLOAD PUSH1 0x20 DUP2 DUP4 SUB SUB DUP2 MSTORE SWAP1 PUSH1 0x40 MSTORE DUP1 MLOAD SWAP1 PUSH1 0x20 ADD KECCAK256 SUB PUSH2 0x1A00 JUMPI PUSH1 0x1 SWAP2 POP POP PUSH2 0x1A19 JUMP JUMPDEST DUP1 DUP1 PUSH2 0x1A0B SWAP1 PUSH2 0x2B56 JUMP JUMPDEST SWAP2 POP POP PUSH2 0x1979 JUMP JUMPDEST POP PUSH1 0x0 SWAP1 POP JUMPDEST SWAP2 SWAP1 POP JUMP JUMPDEST PUSH1 0x0 DUP1 PUSH1 0x0 SWAP1 POP JUMPDEST PUSH1 0x0 DUP4 PUSH1 0x40 MLOAD PUSH2 0x1A36 SWAP2 SWAP1 PUSH2 0x264F JUMP JUMPDEST SWAP1 DUP2 MSTORE PUSH1 0x20 ADD PUSH1 0x40 MLOAD DUP1 SWAP2 SUB SWAP1 KECCAK256 PUSH1 0x1 ADD DUP1 SLOAD SWAP1 POP DUP2 LT ISZERO PUSH2 0x1B05 JUMPI DUP4 PUSH1 0x40 MLOAD PUSH1 0x20 ADD PUSH2 0x1A63 SWAP2 SWAP1 PUSH2 0x264F JUMP JUMPDEST PUSH1 0x40 MLOAD PUSH1 0x20 DUP2 DUP4 SUB SUB DUP2 MSTORE SWAP1 PUSH1 0x40 MSTORE DUP1 MLOAD SWAP1 PUSH1 0x20 ADD KECCAK256 PUSH1 0x0 DUP5 PUSH1 0x40 MLOAD PUSH2 0x1A89 SWAP2 SWAP1 PUSH2 0x264F JUMP JUMPDEST SWAP1 DUP2 MSTORE PUSH1 0x20 ADD PUSH1 0x40 MLOAD DUP1 SWAP2 SUB SWAP1 KECCAK256 PUSH1 0x1 ADD DUP3 DUP2 SLOAD DUP2 LT PUSH2 0x1AAC JUMPI PUSH2 0x1AAB PUSH2 0x26D2 JUMP JUMPDEST JUMPDEST SWAP1 PUSH1 0x0 MSTORE PUSH1 0x20 PUSH1 0x0 KECCAK256 SWAP1 PUSH1 0x2 MUL ADD PUSH1 0x0 ADD PUSH1 0x40 MLOAD PUSH1 0x20 ADD PUSH2 0x1ACD SWAP2 SWAP1 PUSH2 0x27F9 JUMP JUMPDEST PUSH1 0x40 MLOAD PUSH1 0x20 DUP2 DUP4 SUB SUB DUP2 MSTORE SWAP1 PUSH1 0x40 MSTORE DUP1 MLOAD SWAP1 PUSH1 0x20 ADD KECCAK256 SUB PUSH2 0x1AF2 JUMPI PUSH1 0x1 SWAP2 POP POP PUSH2 0x1B0B JUMP JUMPDEST DUP1 DUP1 PUSH2 0x1AFD SWAP1 PUSH2 0x2B56 JUMP JUMPDEST SWAP2 POP POP PUSH2 0x1A26 JUMP JUMPDEST POP PUSH1 0x0 SWAP1 POP JUMPDEST SWAP3 SWAP2 POP POP JUMP JUMPDEST PUSH1 0x0 DUP1 PUSH1 0x0 SWAP1 POP JUMPDEST DUP3 MLOAD DUP2 LT ISZERO PUSH2 0x1BAC JUMPI DUP4 PUSH1 0x40 MLOAD PUSH1 0x20 ADD PUSH2 0x1B33 SWAP2 SWAP1 PUSH2 0x264F JUMP JUMPDEST PUSH1 0x40 MLOAD PUSH1 0x20 DUP2 DUP4 SUB SUB DUP2 MSTORE SWAP1 PUSH1 0x40 MSTORE DUP1 MLOAD SWAP1 PUSH1 0x20 ADD KECCAK256 DUP4 DUP3 DUP2 MLOAD DUP2 LT PUSH2 0x1B5C JUMPI PUSH2 0x1B5B PUSH2 0x26D2 JUMP JUMPDEST JUMPDEST PUSH1 0x20 MUL PUSH1 0x20 ADD ADD MLOAD PUSH1 0x40 MLOAD PUSH1 0x20 ADD PUSH2 0x1B74 SWAP2 SWAP1 PUSH2 0x264F JUMP JUMPDEST PUSH1 0x40 MLOAD PUSH1 0x20 DUP2 DUP4 SUB SUB DUP2 MSTORE SWAP1 PUSH1 0x40 MSTORE DUP1 MLOAD SWAP1 PUSH1 0x20 ADD KECCAK256 SUB PUSH2 0x1B99 JUMPI PUSH1 0x1 SWAP2 POP POP PUSH2 0x1BB2 JUMP JUMPDEST DUP1 DUP1 PUSH2 0x1BA4 SWAP1 PUSH2 0x2B56 JUMP JUMPDEST SWAP2 POP POP PUSH2 0x1B19 JUMP JUMPDEST POP PUSH1 0x0 SWAP1 POP JUMPDEST SWAP3 SWAP2 POP POP JUMP JUMPDEST POP DUP1 SLOAD PUSH2 0x1BC4 SWAP1 PUSH2 0x2730 JUMP JUMPDEST PUSH1 0x0 DUP3 SSTORE DUP1 PUSH1 0x1F LT PUSH2 0x1BD6 JUMPI POP PUSH2 0x1BF5 JUMP JUMPDEST PUSH1 0x1F ADD PUSH1 0x20 SWAP1 DIV SWAP1 PUSH1 0x0 MSTORE PUSH1 0x20 PUSH1 0x0 KECCAK256 SWAP1 DUP2 ADD SWAP1 PUSH2 0x1BF4 SWAP2 SWAP1 PUSH2 0x1CE9 JUMP JUMPDEST JUMPDEST POP JUMP JUMPDEST DUP3 DUP1 SLOAD DUP3 DUP3 SSTORE SWAP1 PUSH1 0x0 MSTORE PUSH1 0x20 PUSH1 0x0 KECCAK256 SWAP1 DUP2 ADD SWAP3 DUP3 ISZERO PUSH2 0x1C40 JUMPI SWAP2 PUSH1 0x20 MUL DUP3 ADD JUMPDEST DUP3 DUP2 GT ISZERO PUSH2 0x1C3F JUMPI DUP3 MLOAD DUP3 SWAP1 DUP2 PUSH2 0x1C2F SWAP2 SWAP1 PUSH2 0x2C76 JUMP JUMPDEST POP SWAP2 PUSH1 0x20 ADD SWAP2 SWAP1 PUSH1 0x1 ADD SWAP1 PUSH2 0x1C18 JUMP JUMPDEST JUMPDEST POP SWAP1 POP PUSH2 0x1C4D SWAP2 SWAP1 PUSH2 0x1D06 JUMP JUMPDEST POP SWAP1 JUMP JUMPDEST PUSH1 0x40 MLOAD DUP1 PUSH1 0x40 ADD PUSH1 0x40 MSTORE DUP1 PUSH1 0x60 DUP2 MSTORE PUSH1 0x20 ADD PUSH1 0x60 DUP2 MSTORE POP SWAP1 JUMP JUMPDEST DUP3 DUP1 SLOAD DUP3 DUP3 SSTORE SWAP1 PUSH1 0x0 MSTORE PUSH1 0x20 PUSH1 0x0 KECCAK256 SWAP1 DUP2 ADD SWAP3 DUP3 ISZERO PUSH2 0x1CB7 JUMPI PUSH1 0x0 MSTORE PUSH1 0x20 PUSH1 0x0 KECCAK256 SWAP2 DUP3 ADD JUMPDEST DUP3 DUP2 GT ISZERO PUSH2 0x1CB6 JUMPI DUP3 DUP3 SWAP1 DUP2 PUSH2 0x1CA6 SWAP2 SWAP1 PUSH2 0x2E36 JUMP JUMPDEST POP SWAP2 PUSH1 0x1 ADD SWAP2 SWAP1 PUSH1 0x1 ADD SWAP1 PUSH2 0x1C90 JUMP JUMPDEST JUMPDEST POP SWAP1 POP PUSH2 0x1CC4 SWAP2 SWAP1 PUSH2 0x1D06 JUMP JUMPDEST POP SWAP1 JUMP JUMPDEST POP DUP1 SLOAD PUSH1 0x0 DUP3 SSTORE SWAP1 PUSH1 0x0 MSTORE PUSH1 0x20 PUSH1 0x0 KECCAK256 SWAP1 DUP2 ADD SWAP1 PUSH2 0x1CE6 SWAP2 SWAP1 PUSH2 0x1D06 JUMP JUMPDEST POP JUMP JUMPDEST JUMPDEST DUP1 DUP3 GT ISZERO PUSH2 0x1D02 JUMPI PUSH1 0x0 DUP2 PUSH1 0x0 SWAP1 SSTORE POP PUSH1 0x1 ADD PUSH2 0x1CEA JUMP JUMPDEST POP SWAP1 JUMP JUMPDEST JUMPDEST DUP1 DUP3 GT ISZERO PUSH2 0x1D26 JUMPI PUSH1 0x0 DUP2 DUP2 PUSH2 0x1D1D SWAP2 SWAP1 PUSH2 0x1BB8 JUMP JUMPDEST POP PUSH1 0x1 ADD PUSH2 0x1D07 JUMP JUMPDEST POP SWAP1 JUMP JUMPDEST PUSH1 0x0 PUSH1 0x40 MLOAD SWAP1 POP SWAP1 JUMP JUMPDEST PUSH1 0x0 DUP1 REVERT JUMPDEST PUSH1 0x0 DUP1 REVERT JUMPDEST PUSH1 0x0 DUP1 REVERT JUMPDEST PUSH1 0x0 DUP1 REVERT JUMPDEST PUSH1 0x0 PUSH1 0x1F NOT PUSH1 0x1F DUP4 ADD AND SWAP1 POP SWAP2 SWAP1 POP JUMP JUMPDEST PUSH32 0x4E487B7100000000000000000000000000000000000000000000000000000000 PUSH1 0x0 MSTORE PUSH1 0x41 PUSH1 0x4 MSTORE PUSH1 0x24 PUSH1 0x0 REVERT JUMPDEST PUSH2 0x1D91 DUP3 PUSH2 0x1D48 JUMP JUMPDEST DUP2 ADD DUP2 DUP2 LT PUSH8 0xFFFFFFFFFFFFFFFF DUP3 GT OR ISZERO PUSH2 0x1DB0 JUMPI PUSH2 0x1DAF PUSH2 0x1D59 JUMP JUMPDEST JUMPDEST DUP1 PUSH1 0x40 MSTORE POP POP POP JUMP JUMPDEST PUSH1 0x0 PUSH2 0x1DC3 PUSH2 0x1D2A JUMP JUMPDEST SWAP1 POP PUSH2 0x1DCF DUP3 DUP3 PUSH2 0x1D88 JUMP JUMPDEST SWAP2 SWAP1 POP JUMP JUMPDEST PUSH1 0x0 PUSH8 0xFFFFFFFFFFFFFFFF DUP3 GT ISZERO PUSH2 0x1DEF JUMPI PUSH2 0x1DEE PUSH2 0x1D59 JUMP JUMPDEST JUMPDEST PUSH2 0x1DF8 DUP3 PUSH2 0x1D48 JUMP JUMPDEST SWAP1 POP PUSH1 0x20 DUP2 ADD SWAP1 POP SWAP2 SWAP1 POP JUMP JUMPDEST DUP3 DUP2 DUP4 CALLDATACOPY PUSH1 0x0 DUP4 DUP4 ADD MSTORE POP POP POP JUMP JUMPDEST PUSH1 0x0 PUSH2 0x1E27 PUSH2 0x1E22 DUP5 PUSH2 0x1DD4 JUMP JUMPDEST PUSH2 0x1DB9 JUMP JUMPDEST SWAP1 POP DUP3 DUP2 MSTORE PUSH1 0x20 DUP2 ADD DUP5 DUP5 DUP5 ADD GT ISZERO PUSH2 0x1E43 JUMPI PUSH2 0x1E42 PUSH2 0x1D43 JUMP JUMPDEST JUMPDEST PUSH2 0x1E4E DUP5 DUP3 DUP6 PUSH2 0x1E05 JUMP JUMPDEST POP SWAP4 SWAP3 POP POP POP JUMP JUMPDEST PUSH1 0x0 DUP3 PUSH1 0x1F DUP4 ADD SLT PUSH2 0x1E6B JUMPI PUSH2 0x1E6A PUSH2 0x1D3E JUMP JUMPDEST JUMPDEST DUP2 CALLDATALOAD PUSH2 0x1E7B DUP5 DUP3 PUSH1 0x20 DUP7 ADD PUSH2 0x1E14 JUMP JUMPDEST SWAP2 POP POP SWAP3 SWAP2 POP POP JUMP JUMPDEST PUSH1 0x0 PUSH1 0x20 DUP3 DUP5 SUB SLT ISZERO PUSH2 0x1E9A JUMPI PUSH2 0x1E99 PUSH2 0x1D34 JUMP JUMPDEST JUMPDEST PUSH1 0x0 DUP3 ADD CALLDATALOAD PUSH8 0xFFFFFFFFFFFFFFFF DUP2 GT ISZERO PUSH2 0x1EB8 JUMPI PUSH2 0x1EB7 PUSH2 0x1D39 JUMP JUMPDEST JUMPDEST PUSH2 0x1EC4 DUP5 DUP3 DUP6 ADD PUSH2 0x1E56 JUMP JUMPDEST SWAP2 POP POP SWAP3 SWAP2 POP POP JUMP JUMPDEST PUSH1 0x0 PUSH8 0xFFFFFFFFFFFFFFFF DUP3 GT ISZERO PUSH2 0x1EE8 JUMPI PUSH2 0x1EE7 PUSH2 0x1D59 JUMP JUMPDEST JUMPDEST PUSH1 0x20 DUP3 MUL SWAP1 POP PUSH1 0x20 DUP2 ADD SWAP1 POP SWAP2 SWAP1 POP JUMP JUMPDEST PUSH1 0x0 DUP1 REVERT JUMPDEST PUSH1 0x0 PUSH2 0x1F11 PUSH2 0x1F0C DUP5 PUSH2 0x1ECD JUMP JUMPDEST PUSH2 0x1DB9 JUMP JUMPDEST SWAP1 POP DUP1 DUP4 DUP3 MSTORE PUSH1 0x20 DUP3 ADD SWAP1 POP PUSH1 0x20 DUP5 MUL DUP4 ADD DUP6 DUP2 GT ISZERO PUSH2 0x1F34 JUMPI PUSH2 0x1F33 PUSH2 0x1EF9 JUMP JUMPDEST JUMPDEST DUP4 JUMPDEST DUP2 DUP2 LT ISZERO PUSH2 0x1F7B JUMPI DUP1 CALLDATALOAD PUSH8 0xFFFFFFFFFFFFFFFF DUP2 GT ISZERO PUSH2 0x1F59 JUMPI PUSH2 0x1F58 PUSH2 0x1D3E JUMP JUMPDEST JUMPDEST DUP1 DUP7 ADD PUSH2 0x1F66 DUP10 DUP3 PUSH2 0x1E56 JUMP JUMPDEST DUP6 MSTORE PUSH1 0x20 DUP6 ADD SWAP5 POP POP POP PUSH1 0x20 DUP2 ADD SWAP1 POP PUSH2 0x1F36 JUMP JUMPDEST POP POP POP SWAP4 SWAP3 POP POP POP JUMP JUMPDEST PUSH1 0x0 DUP3 PUSH1 0x1F DUP4 ADD SLT PUSH2 0x1F9A JUMPI PUSH2 0x1F99 PUSH2 0x1D3E JUMP JUMPDEST JUMPDEST DUP2 CALLDATALOAD PUSH2 0x1FAA DUP5 DUP3 PUSH1 0x20 DUP7 ADD PUSH2 0x1EFE JUMP JUMPDEST SWAP2 POP POP SWAP3 SWAP2 POP POP JUMP JUMPDEST PUSH1 0x0 DUP1 PUSH1 0x0 DUP1 PUSH1 0x80 DUP6 DUP8 SUB SLT ISZERO PUSH2 0x1FCD JUMPI PUSH2 0x1FCC PUSH2 0x1D34 JUMP JUMPDEST JUMPDEST PUSH1 0x0 DUP6 ADD CALLDATALOAD PUSH8 0xFFFFFFFFFFFFFFFF DUP2 GT ISZERO PUSH2 0x1FEB JUMPI PUSH2 0x1FEA PUSH2 0x1D39 JUMP JUMPDEST JUMPDEST PUSH2 0x1FF7 DUP8 DUP3 DUP9 ADD PUSH2 0x1E56 JUMP JUMPDEST SWAP5 POP POP PUSH1 0x20 DUP6 ADD CALLDATALOAD PUSH8 0xFFFFFFFFFFFFFFFF DUP2 GT ISZERO PUSH2 0x2018 JUMPI PUSH2 0x2017 PUSH2 0x1D39 JUMP JUMPDEST JUMPDEST PUSH2 0x2024 DUP8 DUP3 DUP9 ADD PUSH2 0x1E56 JUMP JUMPDEST SWAP4 POP POP PUSH1 0x40 DUP6 ADD CALLDATALOAD PUSH8 0xFFFFFFFFFFFFFFFF DUP2 GT ISZERO PUSH2 0x2045 JUMPI PUSH2 0x2044 PUSH2 0x1D39 JUMP JUMPDEST JUMPDEST PUSH2 0x2051 DUP8 DUP3 DUP9 ADD PUSH2 0x1E56 JUMP JUMPDEST SWAP3 POP POP PUSH1 0x60 DUP6 ADD CALLDATALOAD PUSH8 0xFFFFFFFFFFFFFFFF DUP2 GT ISZERO PUSH2 0x2072 JUMPI PUSH2 0x2071 PUSH2 0x1D39 JUMP JUMPDEST JUMPDEST PUSH2 0x207E DUP8 DUP3 DUP9 ADD PUSH2 0x1F85 JUMP JUMPDEST SWAP2 POP POP SWAP3 SWAP6 SWAP2 SWAP5 POP SWAP3 POP JUMP JUMPDEST PUSH1 0x0 DUP1 PUSH1 0x40 DUP4 DUP6 SUB SLT ISZERO PUSH2 0x20A1 JUMPI PUSH2 0x20A0 PUSH2 0x1D34 JUMP JUMPDEST JUMPDEST PUSH1 0x0 DUP4 ADD CALLDATALOAD PUSH8 0xFFFFFFFFFFFFFFFF DUP2 GT ISZERO PUSH2 0x20BF JUMPI PUSH2 0x20BE PUSH2 0x1D39 JUMP JUMPDEST JUMPDEST PUSH2 0x20CB DUP6 DUP3 DUP7 ADD PUSH2 0x1E56 JUMP JUMPDEST SWAP3 POP POP PUSH1 0x20 DUP4 ADD CALLDATALOAD PUSH8 0xFFFFFFFFFFFFFFFF DUP2 GT ISZERO PUSH2 0x20EC JUMPI PUSH2 0x20EB PUSH2 0x1D39 JUMP JUMPDEST JUMPDEST PUSH2 0x20F8 DUP6 DUP3 DUP7 ADD PUSH2 0x1E56 JUMP JUMPDEST SWAP2 POP POP SWAP3 POP SWAP3 SWAP1 POP JUMP JUMPDEST PUSH1 0x0 DUP2 MLOAD SWAP1 POP SWAP2 SWAP1 POP JUMP JUMPDEST PUSH1 0x0 DUP3 DUP3 MSTORE PUSH1 0x20 DUP3 ADD SWAP1 POP SWAP3 SWAP2 POP POP JUMP JUMPDEST PUSH1 0x0 JUMPDEST DUP4 DUP2 LT ISZERO PUSH2 0x213C JUMPI DUP1 DUP3 ADD MLOAD DUP2 DUP5 ADD MSTORE PUSH1 0x20 DUP2 ADD SWAP1 POP PUSH2 0x2121 JUMP JUMPDEST PUSH1 0x0 DUP5 DUP5 ADD MSTORE POP POP POP POP JUMP JUMPDEST PUSH1 0x0 PUSH2 0x2153 DUP3 PUSH2 0x2102 JUMP JUMPDEST PUSH2 0x215D DUP2 DUP6 PUSH2 0x210D JUMP JUMPDEST SWAP4 POP PUSH2 0x216D DUP2 DUP6 PUSH1 0x20 DUP7 ADD PUSH2 0x211E JUMP JUMPDEST PUSH2 0x2176 DUP2 PUSH2 0x1D48 JUMP JUMPDEST DUP5 ADD SWAP2 POP POP SWAP3 SWAP2 POP POP JUMP JUMPDEST PUSH1 0x0 PUSH1 0x20 DUP3 ADD SWAP1 POP DUP2 DUP2 SUB PUSH1 0x0 DUP4 ADD MSTORE PUSH2 0x219B DUP2 DUP5 PUSH2 0x2148 JUMP JUMPDEST SWAP1 POP SWAP3 SWAP2 POP POP JUMP JUMPDEST PUSH1 0x0 DUP3 DUP3 MSTORE PUSH1 0x20 DUP3 ADD SWAP1 POP SWAP3 SWAP2 POP POP JUMP JUMPDEST PUSH1 0x0 PUSH2 0x21BF DUP3 PUSH2 0x2102 JUMP JUMPDEST PUSH2 0x21C9 DUP2 DUP6 PUSH2 0x21A3 JUMP JUMPDEST SWAP4 POP PUSH2 0x21D9 DUP2 DUP6 PUSH1 0x20 DUP7 ADD PUSH2 0x211E JUMP JUMPDEST PUSH2 0x21E2 DUP2 PUSH2 0x1D48 JUMP JUMPDEST DUP5 ADD SWAP2 POP POP SWAP3 SWAP2 POP POP JUMP JUMPDEST PUSH1 0x0 DUP2 MLOAD SWAP1 POP SWAP2 SWAP1 POP JUMP JUMPDEST PUSH1 0x0 DUP3 DUP3 MSTORE PUSH1 0x20 DUP3 ADD SWAP1 POP SWAP3 SWAP2 POP POP JUMP JUMPDEST PUSH1 0x0 DUP2 SWAP1 POP PUSH1 0x20 DUP3 ADD SWAP1 POP SWAP2 SWAP1 POP JUMP JUMPDEST PUSH1 0x0 DUP2 MLOAD SWAP1 POP SWAP2 SWAP1 POP JUMP JUMPDEST PUSH1 0x0 DUP3 DUP3 MSTORE PUSH1 0x20 DUP3 ADD SWAP1 POP SWAP3 SWAP2 POP POP JUMP JUMPDEST PUSH1 0x0 DUP2 SWAP1 POP PUSH1 0x20 DUP3 ADD SWAP1 POP SWAP2 SWAP1 POP JUMP JUMPDEST PUSH1 0x0 PUSH2 0x2251 DUP4 DUP4 PUSH2 0x21B4 JUMP JUMPDEST SWAP1 POP SWAP3 SWAP2 POP POP JUMP JUMPDEST PUSH1 0x0 PUSH1 0x20 DUP3 ADD SWAP1 POP SWAP2 SWAP1 POP JUMP JUMPDEST PUSH1 0x0 PUSH2 0x2271 DUP3 PUSH2 0x2219 JUMP JUMPDEST PUSH2 0x227B DUP2 DUP6 PUSH2 0x2224 JUMP JUMPDEST SWAP4 POP DUP4 PUSH1 0x20 DUP3 MUL DUP6 ADD PUSH2 0x228D DUP6 PUSH2 0x2235 JUMP JUMPDEST DUP1 PUSH1 0x0 JUMPDEST DUP6 DUP2 LT ISZERO PUSH2 0x22C9 JUMPI DUP5 DUP5 SUB DUP10 MSTORE DUP2 MLOAD PUSH2 0x22AA DUP6 DUP3 PUSH2 0x2245 JUMP JUMPDEST SWAP5 POP PUSH2 0x22B5 DUP4 PUSH2 0x2259 JUMP JUMPDEST SWAP3 POP PUSH1 0x20 DUP11 ADD SWAP10 POP POP PUSH1 0x1 DUP2 ADD SWAP1 POP PUSH2 0x2291 JUMP JUMPDEST POP DUP3 SWAP8 POP DUP8 SWAP6 POP POP POP POP POP POP SWAP3 SWAP2 POP POP JUMP JUMPDEST PUSH1 0x0 PUSH1 0x40 DUP4 ADD PUSH1 0x0 DUP4 ADD MLOAD DUP5 DUP3 SUB PUSH1 0x0 DUP7 ADD MSTORE PUSH2 0x22F8 DUP3 DUP3 PUSH2 0x21B4 JUMP JUMPDEST SWAP2 POP POP PUSH1 0x20 DUP4 ADD MLOAD DUP5 DUP3 SUB PUSH1 0x20 DUP7 ADD MSTORE PUSH2 0x2312 DUP3 DUP3 PUSH2 0x2266 JUMP JUMPDEST SWAP2 POP POP DUP1 SWAP2 POP POP SWAP3 SWAP2 POP POP JUMP JUMPDEST PUSH1 0x0 PUSH2 0x232B DUP4 DUP4 PUSH2 0x22DB JUMP JUMPDEST SWAP1 POP SWAP3 SWAP2 POP POP JUMP JUMPDEST PUSH1 0x0 PUSH1 0x20 DUP3 ADD SWAP1 POP SWAP2 SWAP1 POP JUMP JUMPDEST PUSH1 0x0 PUSH2 0x234B DUP3 PUSH2 0x21ED JUMP JUMPDEST PUSH2 0x2355 DUP2 DUP6 PUSH2 0x21F8 JUMP JUMPDEST SWAP4 POP DUP4 PUSH1 0x20 DUP3 MUL DUP6 ADD PUSH2 0x2367 DUP6 PUSH2 0x2209 JUMP JUMPDEST DUP1 PUSH1 0x0 JUMPDEST DUP6 DUP2 LT ISZERO PUSH2 0x23A3 JUMPI DUP5 DUP5 SUB DUP10 MSTORE DUP2 MLOAD PUSH2 0x2384 DUP6 DUP3 PUSH2 0x231F JUMP JUMPDEST SWAP5 POP PUSH2 0x238F DUP4 PUSH2 0x2333 JUMP JUMPDEST SWAP3 POP PUSH1 0x20 DUP11 ADD SWAP10 POP POP PUSH1 0x1 DUP2 ADD SWAP1 POP PUSH2 0x236B JUMP JUMPDEST POP DUP3 SWAP8 POP DUP8 SWAP6 POP POP POP POP POP POP SWAP3 SWAP2 POP POP JUMP JUMPDEST PUSH1 0x0 PUSH1 0x40 DUP4 ADD PUSH1 0x0 DUP4 ADD MLOAD DUP5 DUP3 SUB PUSH1 0x0 DUP7 ADD MSTORE PUSH2 0x23D2 DUP3 DUP3 PUSH2 0x21B4 JUMP JUMPDEST SWAP2 POP POP PUSH1 0x20 DUP4 ADD MLOAD DUP5 DUP3 SUB PUSH1 0x20 DUP7 ADD MSTORE PUSH2 0x23EC DUP3 DUP3 PUSH2 0x2340 JUMP JUMPDEST SWAP2 POP POP DUP1 SWAP2 POP POP SWAP3 SWAP2 POP POP JUMP JUMPDEST PUSH1 0x0 PUSH1 0x20 DUP3 ADD SWAP1 POP DUP2 DUP2 SUB PUSH1 0x0 DUP4 ADD MSTORE PUSH2 0x2413 DUP2 DUP5 PUSH2 0x23B5 JUMP JUMPDEST SWAP1 POP SWAP3 SWAP2 POP POP JUMP JUMPDEST PUSH1 0x0 DUP3 DUP3 MSTORE PUSH1 0x20 DUP3 ADD SWAP1 POP SWAP3 SWAP2 POP POP JUMP JUMPDEST PUSH1 0x0 PUSH2 0x2437 DUP3 PUSH2 0x2219 JUMP JUMPDEST PUSH2 0x2441 DUP2 DUP6 PUSH2 0x241B JUMP JUMPDEST SWAP4 POP DUP4 PUSH1 0x20 DUP3 MUL DUP6 ADD PUSH2 0x2453 DUP6 PUSH2 0x2235 JUMP JUMPDEST DUP1 PUSH1 0x0 JUMPDEST DUP6 DUP2 LT ISZERO PUSH2 0x248F JUMPI DUP5 DUP5 SUB DUP10 MSTORE DUP2 MLOAD PUSH2 0x2470 DUP6 DUP3 PUSH2 0x2245 JUMP JUMPDEST SWAP5 POP PUSH2 0x247B DUP4 PUSH2 0x2259 JUMP JUMPDEST SWAP3 POP PUSH1 0x20 DUP11 ADD SWAP10 POP POP PUSH1 0x1 DUP2 ADD SWAP1 POP PUSH2 0x2457 JUMP JUMPDEST POP DUP3 SWAP8 POP DUP8 SWAP6 POP POP POP POP POP POP SWAP3 SWAP2 POP POP JUMP JUMPDEST PUSH1 0x0 PUSH1 0x20 DUP3 ADD SWAP1 POP DUP2 DUP2 SUB PUSH1 0x0 DUP4 ADD MSTORE PUSH2 0x24BB DUP2 DUP5 PUSH2 0x242C JUMP JUMPDEST SWAP1 POP SWAP3 SWAP2 POP POP JUMP JUMPDEST PUSH1 0x0 DUP2 SWAP1 POP SWAP3 SWAP2 POP POP JUMP JUMPDEST POP JUMP JUMPDEST PUSH1 0x0 PUSH2 0x24DE PUSH1 0x0 DUP4 PUSH2 0x24C3 JUMP JUMPDEST SWAP2 POP PUSH2 0x24E9 DUP3 PUSH2 0x24CE JUMP JUMPDEST PUSH1 0x0 DUP3 ADD SWAP1 POP SWAP2 SWAP1 POP JUMP JUMPDEST PUSH1 0x0 PUSH2 0x24FF DUP3 PUSH2 0x24D1 JUMP JUMPDEST SWAP2 POP DUP2 SWAP1 POP SWAP2 SWAP1 POP JUMP JUMPDEST PUSH1 0x0 PUSH20 0xFFFFFFFFFFFFFFFFFFFFFFFFFFFFFFFFFFFFFFFF DUP3 AND SWAP1 POP SWAP2 SWAP1 POP JUMP JUMPDEST PUSH1 0x0 PUSH2 0x2534 DUP3 PUSH2 0x2509 JUMP JUMPDEST SWAP1 POP SWAP2 SWAP1 POP JUMP JUMPDEST PUSH2 0x2544 DUP2 PUSH2 0x2529 JUMP JUMPDEST DUP3 MSTORE POP POP JUMP JUMPDEST PUSH1 0x0 PUSH1 0x20 DUP3 ADD SWAP1 POP PUSH2 0x255F PUSH1 0x0 DUP4 ADD DUP5 PUSH2 0x253B JUMP JUMPDEST SWAP3 SWAP2 POP POP JUMP JUMPDEST PUSH1 0x0 PUSH2 0x2578 PUSH2 0x2573 DUP5 PUSH2 0x1DD4 JUMP JUMPDEST PUSH2 0x1DB9 JUMP JUMPDEST SWAP1 POP DUP3 DUP2 MSTORE PUSH1 0x20 DUP2 ADD DUP5 DUP5 DUP5 ADD GT ISZERO PUSH2 0x2594 JUMPI PUSH2 0x2593 PUSH2 0x1D43 JUMP JUMPDEST JUMPDEST PUSH2 0x259F DUP5 DUP3 DUP6 PUSH2 0x211E JUMP JUMPDEST POP SWAP4 SWAP3 POP POP POP JUMP JUMPDEST PUSH1 0x0 DUP3 PUSH1 0x1F DUP4 ADD SLT PUSH2 0x25BC JUMPI PUSH2 0x25BB PUSH2 0x1D3E JUMP JUMPDEST JUMPDEST DUP2 MLOAD PUSH2 0x25CC DUP5 DUP3 PUSH1 0x20 DUP7 ADD PUSH2 0x2565 JUMP JUMPDEST SWAP2 POP POP SWAP3 SWAP2 POP POP JUMP JUMPDEST PUSH1 0x0 PUSH1 0x20 DUP3 DUP5 SUB SLT ISZERO PUSH2 0x25EB JUMPI PUSH2 0x25EA PUSH2 0x1D34 JUMP JUMPDEST JUMPDEST PUSH1 0x0 DUP3 ADD MLOAD PUSH8 0xFFFFFFFFFFFFFFFF DUP2 GT ISZERO PUSH2 0x2609 JUMPI PUSH2 0x2608 PUSH2 0x1D39 JUMP JUMPDEST JUMPDEST PUSH2 0x2615 DUP5 DUP3 DUP6 ADD PUSH2 0x25A7 JUMP JUMPDEST SWAP2 POP POP SWAP3 SWAP2 POP POP JUMP JUMPDEST PUSH1 0x0 PUSH2 0x2629 DUP3 PUSH2 0x2102 JUMP JUMPDEST PUSH2 0x2633 DUP2 DUP6 PUSH2 0x24C3 JUMP JUMPDEST SWAP4 POP PUSH2 0x2643 DUP2 DUP6 PUSH1 0x20 DUP7 ADD PUSH2 0x211E JUMP JUMPDEST DUP1 DUP5 ADD SWAP2 POP POP SWAP3 SWAP2 POP POP JUMP JUMPDEST PUSH1 0x0 PUSH2 0x265B DUP3 DUP5 PUSH2 0x261E JUMP JUMPDEST SWAP2 POP DUP2 SWAP1 POP SWAP3 SWAP2 POP POP JUMP JUMPDEST PUSH32 0x55736572206D75737420686176652031206F72206D6F726520726F6C65730000 PUSH1 0x0 DUP3 ADD MSTORE POP JUMP JUMPDEST PUSH1 0x0 PUSH2 0x269C PUSH1 0x1E DUP4 PUSH2 0x210D JUMP JUMPDEST SWAP2 POP PUSH2 0x26A7 DUP3 PUSH2 0x2666 JUMP JUMPDEST PUSH1 0x20 DUP3 ADD SWAP1 POP SWAP2 SWAP1 POP JUMP JUMPDEST PUSH1 0x0 PUSH1 0x20 DUP3 ADD SWAP1 POP DUP2 DUP2 SUB PUSH1 0x0 DUP4 ADD MSTORE PUSH2 0x26CB DUP2 PUSH2 0x268F JUMP JUMPDEST SWAP1 POP SWAP2 SWAP1 POP JUMP JUMPDEST PUSH32 0x4E487B7100000000000000000000000000000000000000000000000000000000 PUSH1 0x0 MSTORE PUSH1 0x32 PUSH1 0x4 MSTORE PUSH1 0x24 PUSH1 0x0 REVERT JUMPDEST PUSH32 0x4E487B7100000000000000000000000000000000000000000000000000000000 PUSH1 0x0 MSTORE PUSH1 0x22 PUSH1 0x4 MSTORE PUSH1 0x24 PUSH1 0x0 REVERT JUMPDEST PUSH1 0x0 PUSH1 0x2 DUP3 DIV SWAP1 POP PUSH1 0x1 DUP3 AND DUP1 PUSH2 0x2748 JUMPI PUSH1 0x7F DUP3 AND SWAP2 POP JUMPDEST PUSH1 0x20 DUP3 LT DUP2 SUB PUSH2 0x275B JUMPI PUSH2 0x275A PUSH2 0x2701 JUMP JUMPDEST JUMPDEST POP SWAP2 SWAP1 POP JUMP JUMPDEST PUSH1 0x0 DUP2 SWAP1 POP DUP2 PUSH1 0x0 MSTORE PUSH1 0x20 PUSH1 0x0 KECCAK256 SWAP1 POP SWAP2 SWAP1 POP JUMP JUMPDEST PUSH1 0x0 DUP2 SLOAD PUSH2 0x2783 DUP2 PUSH2 0x2730 JUMP JUMPDEST PUSH2 0x278D DUP2 DUP7 PUSH2 0x24C3 JUMP JUMPDEST SWAP5 POP PUSH1 0x1 DUP3 AND PUSH1 0x0 DUP2 EQ PUSH2 0x27A8 JUMPI PUSH1 0x1 DUP2 EQ PUSH2 0x27BD JUMPI PUSH2 0x27F0 JUMP JUMPDEST PUSH1 0xFF NOT DUP4 AND DUP7 MSTORE DUP2 ISZERO ISZERO DUP3 MUL DUP7 ADD SWAP4 POP PUSH2 0x27F0 JUMP JUMPDEST PUSH2 0x27C6 DUP6 PUSH2 0x2761 JUMP JUMPDEST PUSH1 0x0 JUMPDEST DUP4 DUP2 LT ISZERO PUSH2 0x27E8 JUMPI DUP2 SLOAD DUP2 DUP10 ADD MSTORE PUSH1 0x1 DUP3 ADD SWAP2 POP PUSH1 0x20 DUP2 ADD SWAP1 POP PUSH2 0x27C9 JUMP JUMPDEST DUP4 DUP9 ADD SWAP6 POP POP POP JUMPDEST POP POP POP SWAP3 SWAP2 POP POP JUMP JUMPDEST PUSH1 0x0 PUSH2 0x2805 DUP3 DUP5 PUSH2 0x2776 JUMP JUMPDEST SWAP2 POP DUP2 SWAP1 POP SWAP3 SWAP2 POP POP JUMP JUMPDEST PUSH1 0x0 DUP2 SWAP1 POP SWAP2 SWAP1 POP JUMP JUMPDEST PUSH32 0x4E487B7100000000000000000000000000000000000000000000000000000000 PUSH1 0x0 MSTORE PUSH1 0x11 PUSH1 0x4 MSTORE PUSH1 0x24 PUSH1 0x0 REVERT JUMPDEST PUSH1 0x0 PUSH2 0x2854 DUP3 PUSH2 0x2810 JUMP JUMPDEST SWAP2 POP PUSH2 0x285F DUP4 PUSH2 0x2810 JUMP JUMPDEST SWAP3 POP DUP3 DUP3 SUB SWAP1 POP DUP2 DUP2 GT ISZERO PUSH2 0x2877 JUMPI PUSH2 0x2876 PUSH2 0x281A JUMP JUMPDEST JUMPDEST SWAP3 SWAP2 POP POP JUMP JUMPDEST PUSH1 0x0 DUP2 SLOAD SWAP1 POP PUSH2 0x288C DUP2 PUSH2 0x2730 JUMP JUMPDEST SWAP1 POP SWAP2 SWAP1 POP JUMP JUMPDEST PUSH1 0x0 DUP2 SWAP1 POP DUP2 PUSH1 0x0 MSTORE PUSH1 0x20 PUSH1 0x0 KECCAK256 SWAP1 POP SWAP2 SWAP1 POP JUMP JUMPDEST PUSH1 0x0 PUSH1 0x20 PUSH1 0x1F DUP4 ADD DIV SWAP1 POP SWAP2 SWAP1 POP JUMP JUMPDEST PUSH1 0x0 DUP3 DUP3 SHL SWAP1 POP SWAP3 SWAP2 POP POP JUMP JUMPDEST PUSH1 0x0 PUSH1 0x8 DUP4 MUL PUSH2 0x28F5 PUSH32 0xFFFFFFFFFFFFFFFFFFFFFFFFFFFFFFFFFFFFFFFFFFFFFFFFFFFFFFFFFFFFFFFF DUP3 PUSH2 0x28B8 JUMP JUMPDEST PUSH2 0x28FF DUP7 DUP4 PUSH2 0x28B8 JUMP JUMPDEST SWAP6 POP DUP1 NOT DUP5 AND SWAP4 POP DUP1 DUP7 AND DUP5 OR SWAP3 POP POP POP SWAP4 SWAP3 POP POP POP JUMP JUMPDEST PUSH1 0x0 DUP2 SWAP1 POP SWAP2 SWAP1 POP JUMP JUMPDEST PUSH1 0x0 PUSH2 0x293C PUSH2 0x2937 PUSH2 0x2932 DUP5 PUSH2 0x2810 JUMP JUMPDEST PUSH2 0x2917 JUMP JUMPDEST PUSH2 0x2810 JUMP JUMPDEST SWAP1 POP SWAP2 SWAP1 POP JUMP JUMPDEST PUSH1 0x0 DUP2 SWAP1 POP SWAP2 SWAP1 POP JUMP JUMPDEST PUSH2 0x2956 DUP4 PUSH2 0x2921 JUMP JUMPDEST PUSH2 0x296A PUSH2 0x2962 DUP3 PUSH2 0x2943 JUMP JUMPDEST DUP5 DUP5 SLOAD PUSH2 0x28C5 JUMP JUMPDEST DUP3 SSTORE POP POP POP POP JUMP JUMPDEST PUSH1 0x0 SWAP1 JUMP JUMPDEST PUSH2 0x297F PUSH2 0x2972 JUMP JUMPDEST PUSH2 0x298A DUP2 DUP5 DUP5 PUSH2 0x294D JUMP JUMPDEST POP POP POP JUMP JUMPDEST JUMPDEST DUP2 DUP2 LT ISZERO PUSH2 0x29AE JUMPI PUSH2 0x29A3 PUSH1 0x0 DUP3 PUSH2 0x2977 JUMP JUMPDEST PUSH1 0x1 DUP2 ADD SWAP1 POP PUSH2 0x2990 JUMP JUMPDEST POP POP JUMP JUMPDEST PUSH1 0x1F DUP3 GT ISZERO PUSH2 0x29F3 JUMPI PUSH2 0x29C4 DUP2 PUSH2 0x2761 JUMP JUMPDEST PUSH2 0x29CD DUP5 PUSH2 0x28A8 JUMP JUMPDEST DUP2 ADD PUSH1 0x20 DUP6 LT ISZERO PUSH2 0x29DC JUMPI DUP2 SWAP1 POP JUMPDEST PUSH2 0x29F0 PUSH2 0x29E8 DUP6 PUSH2 0x28A8 JUMP JUMPDEST DUP4 ADD DUP3 PUSH2 0x298F JUMP JUMPDEST POP POP JUMPDEST POP POP POP JUMP JUMPDEST PUSH1 0x0 DUP3 DUP3 SHR SWAP1 POP SWAP3 SWAP2 POP POP JUMP JUMPDEST PUSH1 0x0 PUSH2 0x2A16 PUSH1 0x0 NOT DUP5 PUSH1 0x8 MUL PUSH2 0x29F8 JUMP JUMPDEST NOT DUP1 DUP4 AND SWAP2 POP POP SWAP3 SWAP2 POP POP JUMP JUMPDEST PUSH1 0x0 PUSH2 0x2A2F DUP4 DUP4 PUSH2 0x2A05 JUMP JUMPDEST SWAP2 POP DUP3 PUSH1 0x2 MUL DUP3 OR SWAP1 POP SWAP3 SWAP2 POP POP JUMP JUMPDEST DUP2 DUP2 SUB PUSH2 0x2A4D JUMPI POP POP PUSH2 0x2B25 JUMP JUMPDEST PUSH2 0x2A56 DUP3 PUSH2 0x287D JUMP JUMPDEST PUSH8 0xFFFFFFFFFFFFFFFF DUP2 GT ISZERO PUSH2 0x2A6F JUMPI PUSH2 0x2A6E PUSH2 0x1D59 JUMP JUMPDEST JUMPDEST PUSH2 0x2A79 DUP3 SLOAD PUSH2 0x2730 JUMP JUMPDEST PUSH2 0x2A84 DUP3 DUP3 DUP6 PUSH2 0x29B2 JUMP JUMPDEST PUSH1 0x0 PUSH1 0x1F DUP4 GT PUSH1 0x1 DUP2 EQ PUSH2 0x2AB3 JUMPI PUSH1 0x0 DUP5 ISZERO PUSH2 0x2AA1 JUMPI DUP3 DUP8 ADD SLOAD SWAP1 POP JUMPDEST PUSH2 0x2AAB DUP6 DUP3 PUSH2 0x2A23 JUMP JUMPDEST DUP7 SSTORE POP PUSH2 0x2B1E JUMP JUMPDEST PUSH1 0x1F NOT DUP5 AND PUSH2 0x2AC1 DUP8 PUSH2 0x2893 JUMP JUMPDEST SWAP7 POP PUSH2 0x2ACC DUP7 PUSH2 0x2761 JUMP JUMPDEST PUSH1 0x0 JUMPDEST DUP3 DUP2 LT ISZERO PUSH2 0x2AF4 JUMPI DUP5 DUP10 ADD SLOAD DUP3 SSTORE PUSH1 0x1 DUP3 ADD SWAP2 POP PUSH1 0x1 DUP6 ADD SWAP5 POP PUSH1 0x20 DUP2 ADD SWAP1 POP PUSH2 0x2ACF JUMP JUMPDEST DUP7 DUP4 LT ISZERO PUSH2 0x2B11 JUMPI DUP5 DUP10 ADD SLOAD PUSH2 0x2B0D PUSH1 0x1F DUP10 AND DUP3 PUSH2 0x2A05 JUMP JUMPDEST DUP4 SSTORE POP JUMPDEST PUSH1 0x1 PUSH1 0x2 DUP9 MUL ADD DUP9 SSTORE POP POP POP JUMPDEST POP POP POP POP POP POP JUMPDEST JUMP JUMPDEST PUSH32 0x4E487B7100000000000000000000000000000000000000000000000000000000 PUSH1 0x0 MSTORE PUSH1 0x31 PUSH1 0x4 MSTORE PUSH1 0x24 PUSH1 0x0 REVERT JUMPDEST PUSH1 0x0 PUSH2 0x2B61 DUP3 PUSH2 0x2810 JUMP JUMPDEST SWAP2 POP PUSH32 0xFFFFFFFFFFFFFFFFFFFFFFFFFFFFFFFFFFFFFFFFFFFFFFFFFFFFFFFFFFFFFFFF DUP3 SUB PUSH2 0x2B93 JUMPI PUSH2 0x2B92 PUSH2 0x281A JUMP JUMPDEST JUMPDEST PUSH1 0x1 DUP3 ADD SWAP1 POP SWAP2 SWAP1 POP JUMP JUMPDEST PUSH32 0x4469726563746F727920646F65736E7420657869737400000000000000000000 PUSH1 0x0 DUP3 ADD MSTORE POP JUMP JUMPDEST PUSH1 0x0 PUSH2 0x2BD4 PUSH1 0x16 DUP4 PUSH2 0x210D JUMP JUMPDEST SWAP2 POP PUSH2 0x2BDF DUP3 PUSH2 0x2B9E JUMP JUMPDEST PUSH1 0x20 DUP3 ADD SWAP1 POP SWAP2 SWAP1 POP JUMP JUMPDEST PUSH1 0x0 PUSH1 0x20 DUP3 ADD SWAP1 POP DUP2 DUP2 SUB PUSH1 0x0 DUP4 ADD MSTORE PUSH2 0x2C03 DUP2 PUSH2 0x2BC7 JUMP JUMPDEST SWAP1 POP SWAP2 SWAP1 POP JUMP JUMPDEST PUSH32 0x46696C6520616C72656164792065786973740000000000000000000000000000 PUSH1 0x0 DUP3 ADD MSTORE POP JUMP JUMPDEST PUSH1 0x0 PUSH2 0x2C40 PUSH1 0x12 DUP4 PUSH2 0x210D JUMP JUMPDEST SWAP2 POP PUSH2 0x2C4B DUP3 PUSH2 0x2C0A JUMP JUMPDEST PUSH1 0x20 DUP3 ADD SWAP1 POP SWAP2 SWAP1 POP JUMP JUMPDEST PUSH1 0x0 PUSH1 0x20 DUP3 ADD SWAP1 POP DUP2 DUP2 SUB PUSH1 0x0 DUP4 ADD MSTORE PUSH2 0x2C6F DUP2 PUSH2 0x2C33 JUMP JUMPDEST SWAP1 POP SWAP2 SWAP1 POP JUMP JUMPDEST PUSH2 0x2C7F DUP3 PUSH2 0x2102 JUMP JUMPDEST PUSH8 0xFFFFFFFFFFFFFFFF DUP2 GT ISZERO PUSH2 0x2C98 JUMPI PUSH2 0x2C97 PUSH2 0x1D59 JUMP JUMPDEST JUMPDEST PUSH2 0x2CA2 DUP3 SLOAD PUSH2 0x2730 JUMP JUMPDEST PUSH2 0x2CAD DUP3 DUP3 DUP6 PUSH2 0x29B2 JUMP JUMPDEST PUSH1 0x0 PUSH1 0x20 SWAP1 POP PUSH1 0x1F DUP4 GT PUSH1 0x1 DUP2 EQ PUSH2 0x2CE0 JUMPI PUSH1 0x0 DUP5 ISZERO PUSH2 0x2CCE JUMPI DUP3 DUP8 ADD MLOAD SWAP1 POP JUMPDEST PUSH2 0x2CD8 DUP6 DUP3 PUSH2 0x2A23 JUMP JUMPDEST DUP7 SSTORE POP PUSH2 0x2D40 JUMP JUMPDEST PUSH1 0x1F NOT DUP5 AND PUSH2 0x2CEE DUP7 PUSH2 0x2761 JUMP JUMPDEST PUSH1 0x0 JUMPDEST DUP3 DUP2 LT ISZERO PUSH2 0x2D16 JUMPI DUP5 DUP10 ADD MLOAD DUP3 SSTORE PUSH1 0x1 DUP3 ADD SWAP2 POP PUSH1 0x20 DUP6 ADD SWAP5 POP PUSH1 0x20 DUP2 ADD SWAP1 POP PUSH2 0x2CF1 JUMP JUMPDEST DUP7 DUP4 LT ISZERO PUSH2 0x2D33 JUMPI DUP5 DUP10 ADD MLOAD PUSH2 0x2D2F PUSH1 0x1F DUP10 AND DUP3 PUSH2 0x2A05 JUMP JUMPDEST DUP4 SSTORE POP JUMPDEST PUSH1 0x1 PUSH1 0x2 DUP9 MUL ADD DUP9 SSTORE POP POP POP JUMPDEST POP POP POP POP POP POP JUMP JUMPDEST PUSH32 0x4469726563746F727920616C7265616479206578697374000000000000000000 PUSH1 0x0 DUP3 ADD MSTORE POP JUMP JUMPDEST PUSH1 0x0 PUSH2 0x2D7E PUSH1 0x17 DUP4 PUSH2 0x210D JUMP JUMPDEST SWAP2 POP PUSH2 0x2D89 DUP3 PUSH2 0x2D48 JUMP JUMPDEST PUSH1 0x20 DUP3 ADD SWAP1 POP SWAP2 SWAP1 POP JUMP JUMPDEST PUSH1 0x0 PUSH1 0x20 DUP3 ADD SWAP1 POP DUP2 DUP2 SUB PUSH1 0x0 DUP4 ADD MSTORE PUSH2 0x2DAD DUP2 PUSH2 0x2D71 JUMP JUMPDEST SWAP1 POP SWAP2 SWAP1 POP JUMP JUMPDEST PUSH32 0x4E6F7420656E6F756768207065726D697373696F6E7300000000000000000000 PUSH1 0x0 DUP3 ADD MSTORE POP JUMP JUMPDEST PUSH1 0x0 PUSH2 0x2DEA PUSH1 0x16 DUP4 PUSH2 0x210D JUMP JUMPDEST SWAP2 POP PUSH2 0x2DF5 DUP3 PUSH2 0x2DB4 JUMP JUMPDEST PUSH1 0x20 DUP3 ADD SWAP1 POP SWAP2 SWAP1 POP JUMP JUMPDEST PUSH1 0x0 PUSH1 0x20 DUP3 ADD SWAP1 POP DUP2 DUP2 SUB PUSH1 0x0 DUP4 ADD MSTORE PUSH2 0x2E19 DUP2 PUSH2 0x2DDD JUMP JUMPDEST SWAP1 POP SWAP2 SWAP1 POP JUMP JUMPDEST PUSH1 0x0 DUP2 SLOAD SWAP1 POP PUSH2 0x2E2F DUP2 PUSH2 0x2730 JUMP JUMPDEST SWAP1 POP SWAP2 SWAP1 POP JUMP JUMPDEST DUP2 DUP2 SUB PUSH2 0x2E44 JUMPI POP POP PUSH2 0x2F1C JUMP JUMPDEST PUSH2 0x2E4D DUP3 PUSH2 0x2E20 JUMP JUMPDEST PUSH8 0xFFFFFFFFFFFFFFFF DUP2 GT ISZERO PUSH2 0x2E66 JUMPI PUSH2 0x2E65 PUSH2 0x1D59 JUMP JUMPDEST JUMPDEST PUSH2 0x2E70 DUP3 SLOAD PUSH2 0x2730 JUMP JUMPDEST PUSH2 0x2E7B DUP3 DUP3 DUP6 PUSH2 0x29B2 JUMP JUMPDEST PUSH1 0x0 PUSH1 0x1F DUP4 GT PUSH1 0x1 DUP2 EQ PUSH2 0x2EAA JUMPI PUSH1 0x0 DUP5 ISZERO PUSH2 0x2E98 JUMPI DUP3 DUP8 ADD SLOAD SWAP1 POP JUMPDEST PUSH2 0x2EA2 DUP6 DUP3 PUSH2 0x2A23 JUMP JUMPDEST DUP7 SSTORE POP PUSH2 0x2F15 JUMP JUMPDEST PUSH1 0x1F NOT DUP5 AND PUSH2 0x2EB8 DUP8 PUSH2 0x2761 JUMP JUMPDEST SWAP7 POP PUSH2 0x2EC3 DUP7 PUSH2 0x2761 JUMP JUMPDEST PUSH1 0x0 JUMPDEST DUP3 DUP2 LT ISZERO PUSH2 0x2EEB JUMPI DUP5 DUP10 ADD SLOAD DUP3 SSTORE PUSH1 0x1 DUP3 ADD SWAP2 POP PUSH1 0x1 DUP6 ADD SWAP5 POP PUSH1 0x20 DUP2 ADD SWAP1 POP PUSH2 0x2EC6 JUMP JUMPDEST DUP7 DUP4 LT ISZERO PUSH2 0x2F08 JUMPI DUP5 DUP10 ADD SLOAD PUSH2 0x2F04 PUSH1 0x1F DUP10 AND DUP3 PUSH2 0x2A05 JUMP JUMPDEST DUP4 SSTORE POP JUMPDEST PUSH1 0x1 PUSH1 0x2 DUP9 MUL ADD DUP9 SSTORE POP POP POP JUMPDEST POP POP POP POP POP POP JUMPDEST JUMP INVALID LOG2 PUSH5 0x6970667358 0x22 SLT KECCAK256 0x2D 0xAF DUP9 SAR 0x4B 0x28 DUP6 MOD 0xCF DUP3 DUP13 0xA6 DUP1 SELFBALANCE 0xB9 0x49 PUSH22 0xA5158CB254CF66F059479A6F4DC0AF64736F6C634300 ADDMOD SGT STOP CALLER "
	},
	"Assembly": ".code\n  PUSH 80\t\t\tcontract StorageContract{\\r\\n\\...\n  PUSH 40\t\t\tcontract StorageContract{\\r\\n\\...\n  MSTORE \t\t\tcontract StorageContract{\\r\\n\\...\n  CALLVALUE \t\t\tconstructor(address authContra...\n  DUP1 \t\t\tconstructor(address authContra...\n  ISZERO \t\t\tconstructor(address authContra...\n  PUSH [tag] 1\t\t\tconstructor(address authContra...\n  JUMPI \t\t\tconstructor(address authContra...\n  PUSH 0\t\t\tconstructor(address authContra...\n  DUP1 \t\t\tconstructor(address authContra...\n  REVERT \t\t\tconstructor(address authContra...\ntag 1\t\t\tconstructor(address authContra...\n  JUMPDEST \t\t\tconstructor(address authContra...\n  POP \t\t\tconstructor(address authContra...\n  PUSH 40\t\t\tconstructor(address authContra...\n  MLOAD \t\t\tconstructor(address authContra...\n  PUSHSIZE \t\t\tconstructor(address authContra...\n  CODESIZE \t\t\tconstructor(address authContra...\n  SUB \t\t\tconstructor(address authContra...\n  DUP1 \t\t\tconstructor(address authContra...\n  PUSHSIZE \t\t\tconstructor(address authContra...\n  DUP4 \t\t\tconstructor(address authContra...\n  CODECOPY \t\t\tconstructor(address authContra...\n  DUP2 \t\t\tconstructor(address authContra...\n  DUP2 \t\t\tconstructor(address authContra...\n  ADD \t\t\tconstructor(address authContra...\n  PUSH 40\t\t\tconstructor(address authContra...\n  MSTORE \t\t\tconstructor(address authContra...\n  DUP2 \t\t\tconstructor(address authContra...\n  ADD \t\t\tconstructor(address authContra...\n  SWAP1 \t\t\tconstructor(address authContra...\n  PUSH [tag] 2\t\t\tconstructor(address authContra...\n  SWAP2 \t\t\tconstructor(address authContra...\n  SWAP1 \t\t\tconstructor(address authContra...\n  PUSH [tag] 3\t\t\tconstructor(address authContra...\n  JUMP \t\t\tconstructor(address authContra...\ntag 2\t\t\tconstructor(address authContra...\n  JUMPDEST \t\t\tconstructor(address authContra...\n  DUP1 \t\t\tauthContractAddress\n  PUSH 4\t\t\tauthContract\n  PUSH 0\t\t\tauthContract\n  PUSH 100\t\t\tauthContract = IAuthContract(a...\n  EXP \t\t\tauthContract = IAuthContract(a...\n  DUP2 \t\t\tauthContract = IAuthContract(a...\n  SLOAD \t\t\tauthContract = IAuthContract(a...\n  DUP2 \t\t\tauthContract = IAuthContract(a...\n  PUSH FFFFFFFFFFFFFFFFFFFFFFFFFFFFFFFFFFFFFFFF\t\t\tauthContract = IAuthContract(a...\n  MUL \t\t\tauthContract = IAuthContract(a...\n  NOT \t\t\tauthContract = IAuthContract(a...\n  AND \t\t\tauthContract = IAuthContract(a...\n  SWAP1 \t\t\tauthContract = IAuthContract(a...\n  DUP4 \t\t\tauthContract = IAuthContract(a...\n  PUSH FFFFFFFFFFFFFFFFFFFFFFFFFFFFFFFFFFFFFFFF\t\t\tauthContract = IAuthContract(a...\n  AND \t\t\tauthContract = IAuthContract(a...\n  MUL \t\t\tauthContract = IAuthContract(a...\n  OR \t\t\tauthContract = IAuthContract(a...\n  SWAP1 \t\t\tauthContract = IAuthContract(a...\n  SSTORE \t\t\tauthContract = IAuthContract(a...\n  POP \t\t\tauthContract = IAuthContract(a...\n  POP \t\t\tconstructor(address authContra...\n  PUSH [tag] 6\t\t\tcontract StorageContract{\\r\\n\\...\n  JUMP \t\t\tcontract StorageContract{\\r\\n\\...\ntag 8\t\t\t\\r\\n    function getRoles() ex...\n  JUMPDEST \t\t\t\\r\\n    function getRoles() ex...\n  PUSH 0\t\t\te\n  DUP1 \t\t\te\n  REVERT \t\t\ts adr) exter\ntag 10\t\t\tAuthContract{\\r\\n\\r\\n    mappi...\n  JUMPDEST \t\t\tAuthContract{\\r\\n\\r\\n    mappi...\n  PUSH 0\t\t\t => str\n  PUSH FFFFFFFFFFFFFFFFFFFFFFFFFFFFFFFFFFFFFFFF\t\t\t    string[] roles;\\r\\n\\r\\n   ...\n  DUP3 \t\t\twner;\n  AND \t\t\tss owner;\\r\\n    string[] role...\n  SWAP1 \t\t\t\\r\\n    address owner;\\r\\n    ...\n  POP \t\t\t\\r\\n    address owner;\\r\\n    ...\n  SWAP2 \t\t\tAuthContract{\\r\\n\\r\\n    mappi...\n  SWAP1 \t\t\tAuthContract{\\r\\n\\r\\n    mappi...\n  POP \t\t\tAuthContract{\\r\\n\\r\\n    mappi...\n  JUMP \t\t\tAuthContract{\\r\\n\\r\\n    mappi...\ntag 11\t\t\t_roles){\\r\\n        owner = ms...\n  JUMPDEST \t\t\t_roles){\\r\\n        owner = ms...\n  PUSH 0\t\t\t\\r\\n     \n  PUSH [tag] 20\t\t\tin\";\\r\\n        roles = _r\n  DUP3 \t\t\ts = _\n  PUSH [tag] 10\t\t\tin\";\\r\\n        roles = _r\n  JUMP \t\t\tin\";\\r\\n        roles = _r\ntag 20\t\t\tin\";\\r\\n        roles = _r\n  JUMPDEST \t\t\tin\";\\r\\n        roles = _r\n  SWAP1 \t\t\tner] = \"admin\";\\r\\n        rol...\n  POP \t\t\tner] = \"admin\";\\r\\n        rol...\n  SWAP2 \t\t\t_roles){\\r\\n        owner = ms...\n  SWAP1 \t\t\t_roles){\\r\\n        owner = ms...\n  POP \t\t\t_roles){\\r\\n        owner = ms...\n  JUMP \t\t\t_roles){\\r\\n        owner = ms...\ntag 12\t\t\t\\r\\n\\r\\n    modifier OnlyOwner...\n  JUMPDEST \t\t\t\\r\\n\\r\\n    modifier OnlyOwner...\n  PUSH [tag] 22\t\t\twner can do this\");\\r\\n   \n  DUP2 \t\t\t;\\r\\n  \n  PUSH [tag] 11\t\t\twner can do this\");\\r\\n   \n  JUMP \t\t\twner can do this\");\\r\\n   \ntag 22\t\t\twner can do this\");\\r\\n   \n  JUMPDEST \t\t\twner can do this\");\\r\\n   \n  DUP2 \t\t\t\"Only\n  EQ \t\t\tr, \"Only owner can do this\");\\...\n  PUSH [tag] 23\t\t\ter == owner, \"Only owner can d...\n  JUMPI \t\t\ter == owner, \"Only owner can d...\n  PUSH 0\t\t\t\\n\n  DUP1 \t\t\t \n  REVERT \t\t\t_;\\r\\n    }\\r\\n\\r\ntag 23\t\t\ter == owner, \"Only owner can d...\n  JUMPDEST \t\t\ter == owner, \"Only owner can d...\n  POP \t\t\t\\r\\n\\r\\n    modifier OnlyOwner...\n  JUMP \t\t\t\\r\\n\\r\\n    modifier OnlyOwner...\ntag 13\t\t\tisRoleExist(string memory role...\n  JUMPDEST \t\t\tisRoleExist(string memory role...\n  PUSH 0\t\t\tl){\\r\\n\n  DUP2 \t\t\t < rol\n  MLOAD \t\t\t= 0; i < role\n  SWAP1 \t\t\t (uint i = 0; i < role\n  POP \t\t\t (uint i = 0; i < role\n  PUSH [tag] 25\t\t\t i++){\\r\\n           if (kecca...\n  DUP2 \t\t\tak256\n  PUSH [tag] 12\t\t\t i++){\\r\\n           if (kecca...\n  JUMP \t\t\t i++){\\r\\n           if (kecca...\ntag 25\t\t\t i++){\\r\\n           if (kecca...\n  JUMPDEST \t\t\t i++){\\r\\n           if (kecca...\n  SWAP3 \t\t\tisRoleExist(string memory role...\n  SWAP2 \t\t\tisRoleExist(string memory role...\n  POP \t\t\tisRoleExist(string memory role...\n  POP \t\t\tisRoleExist(string memory role...\n  JUMP \t\t\tisRoleExist(string memory role...\ntag 3\t\t\tcked(roles[i])) == keccak256(a...\n  JUMPDEST \t\t\tcked(roles[i])) == keccak256(a...\n  PUSH 0\t\t\t  retu\n  PUSH 20\t\t\tre\n  DUP3 \t\t\t }\\r\\n     \n  DUP5 \t\t\t\\r\\n     \n  SUB \t\t\t   }\\r\\n        }\\r\\n      \n  SLT \t\t\t       }\\r\\n        }\\r\\n     ...\n  ISZERO \t\t\t          }\\r\\n        }\\r\\n  ...\n  PUSH [tag] 27\t\t\t          }\\r\\n        }\\r\\n  ...\n  JUMPI \t\t\t          }\\r\\n        }\\r\\n  ...\n  PUSH [tag] 28\t\t\t false;\\r\\n    }\\r\\n\\r\\n    fu...\n  PUSH [tag] 8\t\t\t false;\\r\\n    }\\r\\n\\r\\n    fu...\n  JUMP \t\t\t false;\\r\\n    }\\r\\n\\r\\n    fu...\ntag 28\t\t\t false;\\r\\n    }\\r\\n\\r\\n    fu...\n  JUMPDEST \t\t\t false;\\r\\n    }\\r\\n\\r\\n    fu...\ntag 27\t\t\t          }\\r\\n        }\\r\\n  ...\n  JUMPDEST \t\t\t          }\\r\\n        }\\r\\n  ...\n  PUSH 0\t\t\tn\n  PUSH [tag] 29\t\t\ts adr) public view returns (st...\n  DUP5 \t\t\turn use\n  DUP3 \t\t\t      \n  DUP6 \t\t\temory){\\r\\n\n  ADD \t\t\tng memory){\\r\\n        r\n  PUSH [tag] 13\t\t\ts adr) public view returns (st...\n  JUMP \t\t\ts adr) public view returns (st...\ntag 29\t\t\ts adr) public view returns (st...\n  JUMPDEST \t\t\ts adr) public view returns (st...\n  SWAP2 \t\t\tole(address adr) public view r...\n  POP \t\t\tole(address adr) public view r...\n  POP \t\t\teturn roles;\\r\\n    }\\r\\n\\r\\n ...\n  SWAP3 \t\t\tcked(roles[i])) == keccak256(a...\n  SWAP2 \t\t\tcked(roles[i])) == keccak256(a...\n  POP \t\t\tcked(roles[i])) == keccak256(a...\n  POP \t\t\tcked(roles[i])) == keccak256(a...\n  JUMP \t\t\tcked(roles[i])) == keccak256(a...\ntag 6\t\t\tcontract StorageContract{\\r\\n\\...\n  JUMPDEST \t\t\tcontract StorageContract{\\r\\n\\...\n  PUSH #[$] 0000000000000000000000000000000000000000000000000000000000000000\t\t\tcontract StorageContract{\\r\\n\\...\n  DUP1 \t\t\tcontract StorageContract{\\r\\n\\...\n  PUSH [$] 0000000000000000000000000000000000000000000000000000000000000000\t\t\tcontract StorageContract{\\r\\n\\...\n  PUSH 0\t\t\tcontract StorageContract{\\r\\n\\...\n  CODECOPY \t\t\tcontract StorageContract{\\r\\n\\...\n  PUSH 0\t\t\tcontract StorageContract{\\r\\n\\...\n  RETURN \t\t\tcontract StorageContract{\\r\\n\\...\n.data\n  0:\n    .code\n      PUSH 80\t\t\tcontract StorageContract{\\r\\n\\...\n      PUSH 40\t\t\tcontract StorageContract{\\r\\n\\...\n      MSTORE \t\t\tcontract StorageContract{\\r\\n\\...\n      CALLVALUE \t\t\tcontract StorageContract{\\r\\n\\...\n      DUP1 \t\t\tcontract StorageContract{\\r\\n\\...\n      ISZERO \t\t\tcontract StorageContract{\\r\\n\\...\n      PUSH [tag] 1\t\t\tcontract StorageContract{\\r\\n\\...\n      JUMPI \t\t\tcontract StorageContract{\\r\\n\\...\n      PUSH 0\t\t\tcontract StorageContract{\\r\\n\\...\n      DUP1 \t\t\tcontract StorageContract{\\r\\n\\...\n      REVERT \t\t\tcontract StorageContract{\\r\\n\\...\n    tag 1\t\t\tcontract StorageContract{\\r\\n\\...\n      JUMPDEST \t\t\tcontract StorageContract{\\r\\n\\...\n      POP \t\t\tcontract StorageContract{\\r\\n\\...\n      PUSH 4\t\t\tcontract StorageContract{\\r\\n\\...\n      CALLDATASIZE \t\t\tcontract StorageContract{\\r\\n\\...\n      LT \t\t\tcontract StorageContract{\\r\\n\\...\n      PUSH [tag] 2\t\t\tcontract StorageContract{\\r\\n\\...\n      JUMPI \t\t\tcontract StorageContract{\\r\\n\\...\n      PUSH 0\t\t\tcontract StorageContract{\\r\\n\\...\n      CALLDATALOAD \t\t\tcontract StorageContract{\\r\\n\\...\n      PUSH E0\t\t\tcontract StorageContract{\\r\\n\\...\n      SHR \t\t\tcontract StorageContract{\\r\\n\\...\n      DUP1 \t\t\tcontract StorageContract{\\r\\n\\...\n      PUSH ABE71CC3\t\t\tcontract StorageContract{\\r\\n\\...\n      GT \t\t\tcontract StorageContract{\\r\\n\\...\n      PUSH [tag] 10\t\t\tcontract StorageContract{\\r\\n\\...\n      JUMPI \t\t\tcontract StorageContract{\\r\\n\\...\n      DUP1 \t\t\tcontract StorageContract{\\r\\n\\...\n      PUSH ABE71CC3\t\t\tcontract StorageContract{\\r\\n\\...\n      EQ \t\t\tcontract StorageContract{\\r\\n\\...\n      PUSH [tag] 6\t\t\tcontract StorageContract{\\r\\n\\...\n      JUMPI \t\t\tcontract StorageContract{\\r\\n\\...\n      DUP1 \t\t\tcontract StorageContract{\\r\\n\\...\n      PUSH C12E8656\t\t\tcontract StorageContract{\\r\\n\\...\n      EQ \t\t\tcontract StorageContract{\\r\\n\\...\n      PUSH [tag] 7\t\t\tcontract StorageContract{\\r\\n\\...\n      JUMPI \t\t\tcontract StorageContract{\\r\\n\\...\n      DUP1 \t\t\tcontract StorageContract{\\r\\n\\...\n      PUSH C6A909C1\t\t\tcontract StorageContract{\\r\\n\\...\n      EQ \t\t\tcontract StorageContract{\\r\\n\\...\n      PUSH [tag] 8\t\t\tcontract StorageContract{\\r\\n\\...\n      JUMPI \t\t\tcontract StorageContract{\\r\\n\\...\n      DUP1 \t\t\tcontract StorageContract{\\r\\n\\...\n      PUSH D34A8708\t\t\tcontract StorageContract{\\r\\n\\...\n      EQ \t\t\tcontract StorageContract{\\r\\n\\...\n      PUSH [tag] 9\t\t\tcontract StorageContract{\\r\\n\\...\n      JUMPI \t\t\tcontract StorageContract{\\r\\n\\...\n      PUSH [tag] 2\t\t\tcontract StorageContract{\\r\\n\\...\n      JUMP \t\t\tcontract StorageContract{\\r\\n\\...\n    tag 10\t\t\tcontract StorageContract{\\r\\n\\...\n      JUMPDEST \t\t\tcontract StorageContract{\\r\\n\\...\n      DUP1 \t\t\tcontract StorageContract{\\r\\n\\...\n      PUSH 7C6E7D3\t\t\tcontract StorageContract{\\r\\n\\...\n      EQ \t\t\tcontract StorageContract{\\r\\n\\...\n      PUSH [tag] 3\t\t\tcontract StorageContract{\\r\\n\\...\n      JUMPI \t\t\tcontract StorageContract{\\r\\n\\...\n      DUP1 \t\t\tcontract StorageContract{\\r\\n\\...\n      PUSH 13787643\t\t\tcontract StorageContract{\\r\\n\\...\n      EQ \t\t\tcontract StorageContract{\\r\\n\\...\n      PUSH [tag] 4\t\t\tcontract StorageContract{\\r\\n\\...\n      JUMPI \t\t\tcontract StorageContract{\\r\\n\\...\n      DUP1 \t\t\tcontract StorageContract{\\r\\n\\...\n      PUSH 1C6EC7A9\t\t\tcontract StorageContract{\\r\\n\\...\n      EQ \t\t\tcontract StorageContract{\\r\\n\\...\n      PUSH [tag] 5\t\t\tcontract StorageContract{\\r\\n\\...\n      JUMPI \t\t\tcontract StorageContract{\\r\\n\\...\n    tag 2\t\t\tcontract StorageContract{\\r\\n\\...\n      JUMPDEST \t\t\tcontract StorageContract{\\r\\n\\...\n      PUSH 0\t\t\tcontract StorageContract{\\r\\n\\...\n      DUP1 \t\t\tcontract StorageContract{\\r\\n\\...\n      REVERT \t\t\tcontract StorageContract{\\r\\n\\...\n    tag 3\t\t\tfunction deleteDirectory(strin...\n      JUMPDEST \t\t\tfunction deleteDirectory(strin...\n      PUSH [tag] 11\t\t\tfunction deleteDirectory(strin...\n      PUSH 4\t\t\tfunction deleteDirectory(strin...\n      DUP1 \t\t\tfunction deleteDirectory(strin...\n      CALLDATASIZE \t\t\tfunction deleteDirectory(strin...\n      SUB \t\t\tfunction deleteDirectory(strin...\n      DUP2 \t\t\tfunction deleteDirectory(strin...\n      ADD \t\t\tfunction deleteDirectory(strin...\n      SWAP1 \t\t\tfunction deleteDirectory(strin...\n      PUSH [tag] 12\t\t\tfunction deleteDirectory(strin...\n      SWAP2 \t\t\tfunction deleteDirectory(strin...\n      SWAP1 \t\t\tfunction deleteDirectory(strin...\n      PUSH [tag] 13\t\t\tfunction deleteDirectory(strin...\n      JUMP \t\t\tfunction deleteDirectory(strin...\n    tag 12\t\t\tfunction deleteDirectory(strin...\n      JUMPDEST \t\t\tfunction deleteDirectory(strin...\n      PUSH [tag] 14\t\t\tfunction deleteDirectory(strin...\n      JUMP \t\t\tfunction deleteDirectory(strin...\n    tag 11\t\t\tfunction deleteDirectory(strin...\n      JUMPDEST \t\t\tfunction deleteDirectory(strin...\n      STOP \t\t\tfunction deleteDirectory(strin...\n    tag 4\t\t\tfunction createFile(string mem...\n      JUMPDEST \t\t\tfunction createFile(string mem...\n      PUSH [tag] 15\t\t\tfunction createFile(string mem...\n      PUSH 4\t\t\tfunction createFile(string mem...\n      DUP1 \t\t\tfunction createFile(string mem...\n      CALLDATASIZE \t\t\tfunction createFile(string mem...\n      SUB \t\t\tfunction createFile(string mem...\n      DUP2 \t\t\tfunction createFile(string mem...\n      ADD \t\t\tfunction createFile(string mem...\n      SWAP1 \t\t\tfunction createFile(string mem...\n      PUSH [tag] 16\t\t\tfunction createFile(string mem...\n      SWAP2 \t\t\tfunction createFile(string mem...\n      SWAP1 \t\t\tfunction createFile(string mem...\n      PUSH [tag] 17\t\t\tfunction createFile(string mem...\n      JUMP \t\t\tfunction createFile(string mem...\n    tag 16\t\t\tfunction createFile(string mem...\n      JUMPDEST \t\t\tfunction createFile(string mem...\n      PUSH [tag] 18\t\t\tfunction createFile(string mem...\n      JUMP \t\t\tfunction createFile(string mem...\n    tag 15\t\t\tfunction createFile(string mem...\n      JUMPDEST \t\t\tfunction createFile(string mem...\n      STOP \t\t\tfunction createFile(string mem...\n    tag 5\t\t\tfunction createDirectory(strin...\n      JUMPDEST \t\t\tfunction createDirectory(strin...\n      PUSH [tag] 19\t\t\tfunction createDirectory(strin...\n      PUSH 4\t\t\tfunction createDirectory(strin...\n      DUP1 \t\t\tfunction createDirectory(strin...\n      CALLDATASIZE \t\t\tfunction createDirectory(strin...\n      SUB \t\t\tfunction createDirectory(strin...\n      DUP2 \t\t\tfunction createDirectory(strin...\n      ADD \t\t\tfunction createDirectory(strin...\n      SWAP1 \t\t\tfunction createDirectory(strin...\n      PUSH [tag] 20\t\t\tfunction createDirectory(strin...\n      SWAP2 \t\t\tfunction createDirectory(strin...\n      SWAP1 \t\t\tfunction createDirectory(strin...\n      PUSH [tag] 13\t\t\tfunction createDirectory(strin...\n      JUMP \t\t\tfunction createDirectory(strin...\n    tag 20\t\t\tfunction createDirectory(strin...\n      JUMPDEST \t\t\tfunction createDirectory(strin...\n      PUSH [tag] 21\t\t\tfunction createDirectory(strin...\n      JUMP \t\t\tfunction createDirectory(strin...\n    tag 19\t\t\tfunction createDirectory(strin...\n      JUMPDEST \t\t\tfunction createDirectory(strin...\n      STOP \t\t\tfunction createDirectory(strin...\n    tag 6\t\t\tfunction getFileHash(string me...\n      JUMPDEST \t\t\tfunction getFileHash(string me...\n      PUSH [tag] 22\t\t\tfunction getFileHash(string me...\n      PUSH 4\t\t\tfunction getFileHash(string me...\n      DUP1 \t\t\tfunction getFileHash(string me...\n      CALLDATASIZE \t\t\tfunction getFileHash(string me...\n      SUB \t\t\tfunction getFileHash(string me...\n      DUP2 \t\t\tfunction getFileHash(string me...\n      ADD \t\t\tfunction getFileHash(string me...\n      SWAP1 \t\t\tfunction getFileHash(string me...\n      PUSH [tag] 23\t\t\tfunction getFileHash(string me...\n      SWAP2 \t\t\tfunction getFileHash(string me...\n      SWAP1 \t\t\tfunction getFileHash(string me...\n      PUSH [tag] 24\t\t\tfunction getFileHash(string me...\n      JUMP \t\t\tfunction getFileHash(string me...\n    tag 23\t\t\tfunction getFileHash(string me...\n      JUMPDEST \t\t\tfunction getFileHash(string me...\n      PUSH [tag] 25\t\t\tfunction getFileHash(string me...\n      JUMP \t\t\tfunction getFileHash(string me...\n    tag 22\t\t\tfunction getFileHash(string me...\n      JUMPDEST \t\t\tfunction getFileHash(string me...\n      PUSH 40\t\t\tfunction getFileHash(string me...\n      MLOAD \t\t\tfunction getFileHash(string me...\n      PUSH [tag] 26\t\t\tfunction getFileHash(string me...\n      SWAP2 \t\t\tfunction getFileHash(string me...\n      SWAP1 \t\t\tfunction getFileHash(string me...\n      PUSH [tag] 27\t\t\tfunction getFileHash(string me...\n      JUMP \t\t\tfunction getFileHash(string me...\n    tag 26\t\t\tfunction getFileHash(string me...\n      JUMPDEST \t\t\tfunction getFileHash(string me...\n      PUSH 40\t\t\tfunction getFileHash(string me...\n      MLOAD \t\t\tfunction getFileHash(string me...\n      DUP1 \t\t\tfunction getFileHash(string me...\n      SWAP2 \t\t\tfunction getFileHash(string me...\n      SUB \t\t\tfunction getFileHash(string me...\n      SWAP1 \t\t\tfunction getFileHash(string me...\n      RETURN \t\t\tfunction getFileHash(string me...\n    tag 7\t\t\tfunction getDirectory(string m...\n      JUMPDEST \t\t\tfunction getDirectory(string m...\n      PUSH [tag] 28\t\t\tfunction getDirectory(string m...\n      PUSH 4\t\t\tfunction getDirectory(string m...\n      DUP1 \t\t\tfunction getDirectory(string m...\n      CALLDATASIZE \t\t\tfunction getDirectory(string m...\n      SUB \t\t\tfunction getDirectory(string m...\n      DUP2 \t\t\tfunction getDirectory(string m...\n      ADD \t\t\tfunction getDirectory(string m...\n      SWAP1 \t\t\tfunction getDirectory(string m...\n      PUSH [tag] 29\t\t\tfunction getDirectory(string m...\n      SWAP2 \t\t\tfunction getDirectory(string m...\n      SWAP1 \t\t\tfunction getDirectory(string m...\n      PUSH [tag] 13\t\t\tfunction getDirectory(string m...\n      JUMP \t\t\tfunction getDirectory(string m...\n    tag 29\t\t\tfunction getDirectory(string m...\n      JUMPDEST \t\t\tfunction getDirectory(string m...\n      PUSH [tag] 30\t\t\tfunction getDirectory(string m...\n      JUMP \t\t\tfunction getDirectory(string m...\n    tag 28\t\t\tfunction getDirectory(string m...\n      JUMPDEST \t\t\tfunction getDirectory(string m...\n      PUSH 40\t\t\tfunction getDirectory(string m...\n      MLOAD \t\t\tfunction getDirectory(string m...\n      PUSH [tag] 31\t\t\tfunction getDirectory(string m...\n      SWAP2 \t\t\tfunction getDirectory(string m...\n      SWAP1 \t\t\tfunction getDirectory(string m...\n      PUSH [tag] 32\t\t\tfunction getDirectory(string m...\n      JUMP \t\t\tfunction getDirectory(string m...\n    tag 31\t\t\tfunction getDirectory(string m...\n      JUMPDEST \t\t\tfunction getDirectory(string m...\n      PUSH 40\t\t\tfunction getDirectory(string m...\n      MLOAD \t\t\tfunction getDirectory(string m...\n      DUP1 \t\t\tfunction getDirectory(string m...\n      SWAP2 \t\t\tfunction getDirectory(string m...\n      SUB \t\t\tfunction getDirectory(string m...\n      SWAP1 \t\t\tfunction getDirectory(string m...\n      RETURN \t\t\tfunction getDirectory(string m...\n    tag 8\t\t\tfunction getDirectories() Only...\n      JUMPDEST \t\t\tfunction getDirectories() Only...\n      PUSH [tag] 33\t\t\tfunction getDirectories() Only...\n      PUSH [tag] 34\t\t\tfunction getDirectories() Only...\n      JUMP \t\t\tfunction getDirectories() Only...\n    tag 33\t\t\tfunction getDirectories() Only...\n      JUMPDEST \t\t\tfunction getDirectories() Only...\n      PUSH 40\t\t\tfunction getDirectories() Only...\n      MLOAD \t\t\tfunction getDirectories() Only...\n      PUSH [tag] 35\t\t\tfunction getDirectories() Only...\n      SWAP2 \t\t\tfunction getDirectories() Only...\n      SWAP1 \t\t\tfunction getDirectories() Only...\n      PUSH [tag] 36\t\t\tfunction getDirectories() Only...\n      JUMP \t\t\tfunction getDirectories() Only...\n    tag 35\t\t\tfunction getDirectories() Only...\n      JUMPDEST \t\t\tfunction getDirectories() Only...\n      PUSH 40\t\t\tfunction getDirectories() Only...\n      MLOAD \t\t\tfunction getDirectories() Only...\n      DUP1 \t\t\tfunction getDirectories() Only...\n      SWAP2 \t\t\tfunction getDirectories() Only...\n      SUB \t\t\tfunction getDirectories() Only...\n      SWAP1 \t\t\tfunction getDirectories() Only...\n      RETURN \t\t\tfunction getDirectories() Only...\n    tag 9\t\t\tfunction deleteFile(string mem...\n      JUMPDEST \t\t\tfunction deleteFile(string mem...\n      PUSH [tag] 37\t\t\tfunction deleteFile(string mem...\n      PUSH 4\t\t\tfunction deleteFile(string mem...\n      DUP1 \t\t\tfunction deleteFile(string mem...\n      CALLDATASIZE \t\t\tfunction deleteFile(string mem...\n      SUB \t\t\tfunction deleteFile(string mem...\n      DUP2 \t\t\tfunction deleteFile(string mem...\n      ADD \t\t\tfunction deleteFile(string mem...\n      SWAP1 \t\t\tfunction deleteFile(string mem...\n      PUSH [tag] 38\t\t\tfunction deleteFile(string mem...\n      SWAP2 \t\t\tfunction deleteFile(string mem...\n      SWAP1 \t\t\tfunction deleteFile(string mem...\n      PUSH [tag] 24\t\t\tfunction deleteFile(string mem...\n      JUMP \t\t\tfunction deleteFile(string mem...\n    tag 38\t\t\tfunction deleteFile(string mem...\n      JUMPDEST \t\t\tfunction deleteFile(string mem...\n      PUSH [tag] 39\t\t\tfunction deleteFile(string mem...\n      JUMP \t\t\tfunction deleteFile(string mem...\n    tag 37\t\t\tfunction deleteFile(string mem...\n      JUMPDEST \t\t\tfunction deleteFile(string mem...\n      STOP \t\t\tfunction deleteFile(string mem...\n    tag 14\t\t\tfunction deleteDirectory(strin...\n      JUMPDEST \t\t\tfunction deleteDirectory(strin...\n      PUSH 40\t\t\tabi.encodePacked(\"\")\n      MLOAD \t\t\tabi.encodePacked(\"\")\n      PUSH 20\t\t\tabi.encodePacked(\"\")\n      ADD \t\t\tabi.encodePacked(\"\")\n      PUSH [tag] 41\t\t\tabi.encodePacked(\"\")\n      SWAP1 \t\t\tabi.encodePacked(\"\")\n      PUSH [tag] 42\t\t\tabi.encodePacked(\"\")\n      JUMP \t\t\tabi.encodePacked(\"\")\n    tag 41\t\t\tabi.encodePacked(\"\")\n      JUMPDEST \t\t\tabi.encodePacked(\"\")\n      PUSH 40\t\t\tabi.encodePacked(\"\")\n      MLOAD \t\t\tabi.encodePacked(\"\")\n      PUSH 20\t\t\tabi.encodePacked(\"\")\n      DUP2 \t\t\tabi.encodePacked(\"\")\n      DUP4 \t\t\tabi.encodePacked(\"\")\n      SUB \t\t\tabi.encodePacked(\"\")\n      SUB \t\t\tabi.encodePacked(\"\")\n      DUP2 \t\t\tabi.encodePacked(\"\")\n      MSTORE \t\t\tabi.encodePacked(\"\")\n      SWAP1 \t\t\tabi.encodePacked(\"\")\n      PUSH 40\t\t\tabi.encodePacked(\"\")\n      MSTORE \t\t\tabi.encodePacked(\"\")\n      DUP1 \t\t\tkeccak256(abi.encodePacked(\"\")...\n      MLOAD \t\t\tkeccak256(abi.encodePacked(\"\")...\n      SWAP1 \t\t\tkeccak256(abi.encodePacked(\"\")...\n      PUSH 20\t\t\tkeccak256(abi.encodePacked(\"\")...\n      ADD \t\t\tkeccak256(abi.encodePacked(\"\")...\n      KECCAK256 \t\t\tkeccak256(abi.encodePacked(\"\")...\n      PUSH 4\t\t\tauthContract\n      PUSH 0\t\t\tauthContract\n      SWAP1 \t\t\tauthContract\n      SLOAD \t\t\tauthContract\n      SWAP1 \t\t\tauthContract\n      PUSH 100\t\t\tauthContract\n      EXP \t\t\tauthContract\n      SWAP1 \t\t\tauthContract\n      DIV \t\t\tauthContract\n      PUSH FFFFFFFFFFFFFFFFFFFFFFFFFFFFFFFFFFFFFFFF\t\t\tauthContract\n      AND \t\t\tauthContract\n      PUSH FFFFFFFFFFFFFFFFFFFFFFFFFFFFFFFFFFFFFFFF\t\t\tauthContract.getUserRole\n      AND \t\t\tauthContract.getUserRole\n      PUSH 27820851\t\t\tauthContract.getUserRole\n      CALLER \t\t\tmsg.sender\n      PUSH 40\t\t\tauthContract.getUserRole(msg.s...\n      MLOAD \t\t\tauthContract.getUserRole(msg.s...\n      DUP3 \t\t\tauthContract.getUserRole(msg.s...\n      PUSH FFFFFFFF\t\t\tauthContract.getUserRole(msg.s...\n      AND \t\t\tauthContract.getUserRole(msg.s...\n      PUSH E0\t\t\tauthContract.getUserRole(msg.s...\n      SHL \t\t\tauthContract.getUserRole(msg.s...\n      DUP2 \t\t\tauthContract.getUserRole(msg.s...\n      MSTORE \t\t\tauthContract.getUserRole(msg.s...\n      PUSH 4\t\t\tauthContract.getUserRole(msg.s...\n      ADD \t\t\tauthContract.getUserRole(msg.s...\n      PUSH [tag] 43\t\t\tauthContract.getUserRole(msg.s...\n      SWAP2 \t\t\tauthContract.getUserRole(msg.s...\n      SWAP1 \t\t\tauthContract.getUserRole(msg.s...\n      PUSH [tag] 44\t\t\tauthContract.getUserRole(msg.s...\n      JUMP \t\t\tauthContract.getUserRole(msg.s...\n    tag 43\t\t\tauthContract.getUserRole(msg.s...\n      JUMPDEST \t\t\tauthContract.getUserRole(msg.s...\n      PUSH 0\t\t\tauthContract.getUserRole(msg.s...\n      PUSH 40\t\t\tauthContract.getUserRole(msg.s...\n      MLOAD \t\t\tauthContract.getUserRole(msg.s...\n      DUP1 \t\t\tauthContract.getUserRole(msg.s...\n      DUP4 \t\t\tauthContract.getUserRole(msg.s...\n      SUB \t\t\tauthContract.getUserRole(msg.s...\n      DUP2 \t\t\tauthContract.getUserRole(msg.s...\n      DUP7 \t\t\tauthContract.getUserRole(msg.s...\n      GAS \t\t\tauthContract.getUserRole(msg.s...\n      STATICCALL \t\t\tauthContract.getUserRole(msg.s...\n      ISZERO \t\t\tauthContract.getUserRole(msg.s...\n      DUP1 \t\t\tauthContract.getUserRole(msg.s...\n      ISZERO \t\t\tauthContract.getUserRole(msg.s...\n      PUSH [tag] 46\t\t\tauthContract.getUserRole(msg.s...\n      JUMPI \t\t\tauthContract.getUserRole(msg.s...\n      RETURNDATASIZE \t\t\tauthContract.getUserRole(msg.s...\n      PUSH 0\t\t\tauthContract.getUserRole(msg.s...\n      DUP1 \t\t\tauthContract.getUserRole(msg.s...\n      RETURNDATACOPY \t\t\tauthContract.getUserRole(msg.s...\n      RETURNDATASIZE \t\t\tauthContract.getUserRole(msg.s...\n      PUSH 0\t\t\tauthContract.getUserRole(msg.s...\n      REVERT \t\t\tauthContract.getUserRole(msg.s...\n    tag 46\t\t\tauthContract.getUserRole(msg.s...\n      JUMPDEST \t\t\tauthContract.getUserRole(msg.s...\n      POP \t\t\tauthContract.getUserRole(msg.s...\n      POP \t\t\tauthContract.getUserRole(msg.s...\n      POP \t\t\tauthContract.getUserRole(msg.s...\n      POP \t\t\tauthContract.getUserRole(msg.s...\n      PUSH 40\t\t\tauthContract.getUserRole(msg.s...\n      MLOAD \t\t\tauthContract.getUserRole(msg.s...\n      RETURNDATASIZE \t\t\tauthContract.getUserRole(msg.s...\n      PUSH 0\t\t\tauthContract.getUserRole(msg.s...\n      DUP3 \t\t\tauthContract.getUserRole(msg.s...\n      RETURNDATACOPY \t\t\tauthContract.getUserRole(msg.s...\n      RETURNDATASIZE \t\t\tauthContract.getUserRole(msg.s...\n      PUSH 1F\t\t\tauthContract.getUserRole(msg.s...\n      NOT \t\t\tauthContract.getUserRole(msg.s...\n      PUSH 1F\t\t\tauthContract.getUserRole(msg.s...\n      DUP3 \t\t\tauthContract.getUserRole(msg.s...\n      ADD \t\t\tauthContract.getUserRole(msg.s...\n      AND \t\t\tauthContract.getUserRole(msg.s...\n      DUP3 \t\t\tauthContract.getUserRole(msg.s...\n      ADD \t\t\tauthContract.getUserRole(msg.s...\n      DUP1 \t\t\tauthContract.getUserRole(msg.s...\n      PUSH 40\t\t\tauthContract.getUserRole(msg.s...\n      MSTORE \t\t\tauthContract.getUserRole(msg.s...\n      POP \t\t\tauthContract.getUserRole(msg.s...\n      DUP2 \t\t\tauthContract.getUserRole(msg.s...\n      ADD \t\t\tauthContract.getUserRole(msg.s...\n      SWAP1 \t\t\tauthContract.getUserRole(msg.s...\n      PUSH [tag] 47\t\t\tauthContract.getUserRole(msg.s...\n      SWAP2 \t\t\tauthContract.getUserRole(msg.s...\n      SWAP1 \t\t\tauthContract.getUserRole(msg.s...\n      PUSH [tag] 48\t\t\tauthContract.getUserRole(msg.s...\n      JUMP \t\t\tauthContract.getUserRole(msg.s...\n    tag 47\t\t\tauthContract.getUserRole(msg.s...\n      JUMPDEST \t\t\tauthContract.getUserRole(msg.s...\n      PUSH 40\t\t\tabi.encodePacked(authContract....\n      MLOAD \t\t\tabi.encodePacked(authContract....\n      PUSH 20\t\t\tabi.encodePacked(authContract....\n      ADD \t\t\tabi.encodePacked(authContract....\n      PUSH [tag] 49\t\t\tabi.encodePacked(authContract....\n      SWAP2 \t\t\tabi.encodePacked(authContract....\n      SWAP1 \t\t\tabi.encodePacked(authContract....\n      PUSH [tag] 50\t\t\tabi.encodePacked(authContract....\n      JUMP \t\t\tabi.encodePacked(authContract....\n    tag 49\t\t\tabi.encodePacked(authContract....\n      JUMPDEST \t\t\tabi.encodePacked(authContract....\n      PUSH 40\t\t\tabi.encodePacked(authContract....\n      MLOAD \t\t\tabi.encodePacked(authContract....\n      PUSH 20\t\t\tabi.encodePacked(authContract....\n      DUP2 \t\t\tabi.encodePacked(authContract....\n      DUP4 \t\t\tabi.encodePacked(authContract....\n      SUB \t\t\tabi.encodePacked(authContract....\n      SUB \t\t\tabi.encodePacked(authContract....\n      DUP2 \t\t\tabi.encodePacked(authContract....\n      MSTORE \t\t\tabi.encodePacked(authContract....\n      SWAP1 \t\t\tabi.encodePacked(authContract....\n      PUSH 40\t\t\tabi.encodePacked(authContract....\n      MSTORE \t\t\tabi.encodePacked(authContract....\n      DUP1 \t\t\tkeccak256(abi.encodePacked(aut...\n      MLOAD \t\t\tkeccak256(abi.encodePacked(aut...\n      SWAP1 \t\t\tkeccak256(abi.encodePacked(aut...\n      PUSH 20\t\t\tkeccak256(abi.encodePacked(aut...\n      ADD \t\t\tkeccak256(abi.encodePacked(aut...\n      KECCAK256 \t\t\tkeccak256(abi.encodePacked(aut...\n      SUB \t\t\tkeccak256(abi.encodePacked(aut...\n      PUSH [tag] 51\t\t\trequire(keccak256(abi.encodePa...\n      JUMPI \t\t\trequire(keccak256(abi.encodePa...\n      PUSH 40\t\t\trequire(keccak256(abi.encodePa...\n      MLOAD \t\t\trequire(keccak256(abi.encodePa...\n      PUSH 8C379A000000000000000000000000000000000000000000000000000000000\t\t\trequire(keccak256(abi.encodePa...\n      DUP2 \t\t\trequire(keccak256(abi.encodePa...\n      MSTORE \t\t\trequire(keccak256(abi.encodePa...\n      PUSH 4\t\t\trequire(keccak256(abi.encodePa...\n      ADD \t\t\trequire(keccak256(abi.encodePa...\n      PUSH [tag] 52\t\t\trequire(keccak256(abi.encodePa...\n      SWAP1 \t\t\trequire(keccak256(abi.encodePa...\n      PUSH [tag] 53\t\t\trequire(keccak256(abi.encodePa...\n      JUMP \t\t\trequire(keccak256(abi.encodePa...\n    tag 52\t\t\trequire(keccak256(abi.encodePa...\n      JUMPDEST \t\t\trequire(keccak256(abi.encodePa...\n      PUSH 40\t\t\trequire(keccak256(abi.encodePa...\n      MLOAD \t\t\trequire(keccak256(abi.encodePa...\n      DUP1 \t\t\trequire(keccak256(abi.encodePa...\n      SWAP2 \t\t\trequire(keccak256(abi.encodePa...\n      SUB \t\t\trequire(keccak256(abi.encodePa...\n      SWAP1 \t\t\trequire(keccak256(abi.encodePa...\n      REVERT \t\t\trequire(keccak256(abi.encodePa...\n    tag 51\t\t\trequire(keccak256(abi.encodePa...\n      JUMPDEST \t\t\trequire(keccak256(abi.encodePa...\n      PUSH 0\t\t\tuint i\n    tag 55\t\t\tfor (uint i = 0; i < directory...\n      JUMPDEST \t\t\tfor (uint i = 0; i < directory...\n      PUSH 3\t\t\tdirectory_names\n      DUP1 \t\t\tdirectory_names.length\n      SLOAD \t\t\tdirectory_names.length\n      SWAP1 \t\t\tdirectory_names.length\n      POP \t\t\tdirectory_names.length\n      DUP2 \t\t\ti\n      LT \t\t\ti < directory_names.length\n      ISZERO \t\t\tfor (uint i = 0; i < directory...\n      PUSH [tag] 56\t\t\tfor (uint i = 0; i < directory...\n      JUMPI \t\t\tfor (uint i = 0; i < directory...\n      DUP2 \t\t\ttitle\n      PUSH 40\t\t\tabi.encodePacked(title)\n      MLOAD \t\t\tabi.encodePacked(title)\n      PUSH 20\t\t\tabi.encodePacked(title)\n      ADD \t\t\tabi.encodePacked(title)\n      PUSH [tag] 58\t\t\tabi.encodePacked(title)\n      SWAP2 \t\t\tabi.encodePacked(title)\n      SWAP1 \t\t\tabi.encodePacked(title)\n      PUSH [tag] 50\t\t\tabi.encodePacked(title)\n      JUMP \t\t\tabi.encodePacked(title)\n    tag 58\t\t\tabi.encodePacked(title)\n      JUMPDEST \t\t\tabi.encodePacked(title)\n      PUSH 40\t\t\tabi.encodePacked(title)\n      MLOAD \t\t\tabi.encodePacked(title)\n      PUSH 20\t\t\tabi.encodePacked(title)\n      DUP2 \t\t\tabi.encodePacked(title)\n      DUP4 \t\t\tabi.encodePacked(title)\n      SUB \t\t\tabi.encodePacked(title)\n      SUB \t\t\tabi.encodePacked(title)\n      DUP2 \t\t\tabi.encodePacked(title)\n      MSTORE \t\t\tabi.encodePacked(title)\n      SWAP1 \t\t\tabi.encodePacked(title)\n      PUSH 40\t\t\tabi.encodePacked(title)\n      MSTORE \t\t\tabi.encodePacked(title)\n      DUP1 \t\t\tkeccak256(abi.encodePacked(tit...\n      MLOAD \t\t\tkeccak256(abi.encodePacked(tit...\n      SWAP1 \t\t\tkeccak256(abi.encodePacked(tit...\n      PUSH 20\t\t\tkeccak256(abi.encodePacked(tit...\n      ADD \t\t\tkeccak256(abi.encodePacked(tit...\n      KECCAK256 \t\t\tkeccak256(abi.encodePacked(tit...\n      PUSH 3\t\t\tdirectory_names\n      DUP3 \t\t\ti\n      DUP2 \t\t\tdirectory_names[i]\n      SLOAD \t\t\tdirectory_names[i]\n      DUP2 \t\t\tdirectory_names[i]\n      LT \t\t\tdirectory_names[i]\n      PUSH [tag] 59\t\t\tdirectory_names[i]\n      JUMPI \t\t\tdirectory_names[i]\n      PUSH [tag] 60\t\t\tdirectory_names[i]\n      PUSH [tag] 61\t\t\tdirectory_names[i]\n      JUMP \t\t\tdirectory_names[i]\n    tag 60\t\t\tdirectory_names[i]\n      JUMPDEST \t\t\tdirectory_names[i]\n    tag 59\t\t\tdirectory_names[i]\n      JUMPDEST \t\t\tdirectory_names[i]\n      SWAP1 \t\t\tdirectory_names[i]\n      PUSH 0\t\t\tdirectory_names[i]\n      MSTORE \t\t\tdirectory_names[i]\n      PUSH 20\t\t\tdirectory_names[i]\n      PUSH 0\t\t\tdirectory_names[i]\n      KECCAK256 \t\t\tdirectory_names[i]\n      ADD \t\t\tdirectory_names[i]\n      PUSH 40\t\t\tabi.encodePacked(directory_nam...\n      MLOAD \t\t\tabi.encodePacked(directory_nam...\n      PUSH 20\t\t\tabi.encodePacked(directory_nam...\n      ADD \t\t\tabi.encodePacked(directory_nam...\n      PUSH [tag] 63\t\t\tabi.encodePacked(directory_nam...\n      SWAP2 \t\t\tabi.encodePacked(directory_nam...\n      SWAP1 \t\t\tabi.encodePacked(directory_nam...\n      PUSH [tag] 64\t\t\tabi.encodePacked(directory_nam...\n      JUMP \t\t\tabi.encodePacked(directory_nam...\n    tag 63\t\t\tabi.encodePacked(directory_nam...\n      JUMPDEST \t\t\tabi.encodePacked(directory_nam...\n      PUSH 40\t\t\tabi.encodePacked(directory_nam...\n      MLOAD \t\t\tabi.encodePacked(directory_nam...\n      PUSH 20\t\t\tabi.encodePacked(directory_nam...\n      DUP2 \t\t\tabi.encodePacked(directory_nam...\n      DUP4 \t\t\tabi.encodePacked(directory_nam...\n      SUB \t\t\tabi.encodePacked(directory_nam...\n      SUB \t\t\tabi.encodePacked(directory_nam...\n      DUP2 \t\t\tabi.encodePacked(directory_nam...\n      MSTORE \t\t\tabi.encodePacked(directory_nam...\n      SWAP1 \t\t\tabi.encodePacked(directory_nam...\n      PUSH 40\t\t\tabi.encodePacked(directory_nam...\n      MSTORE \t\t\tabi.encodePacked(directory_nam...\n      DUP1 \t\t\tkeccak256(abi.encodePacked(dir...\n      MLOAD \t\t\tkeccak256(abi.encodePacked(dir...\n      SWAP1 \t\t\tkeccak256(abi.encodePacked(dir...\n      PUSH 20\t\t\tkeccak256(abi.encodePacked(dir...\n      ADD \t\t\tkeccak256(abi.encodePacked(dir...\n      KECCAK256 \t\t\tkeccak256(abi.encodePacked(dir...\n      SUB \t\t\tkeccak256(abi.encodePacked(dir...\n      PUSH [tag] 65\t\t\tif (keccak256(abi.encodePacked...\n      JUMPI \t\t\tif (keccak256(abi.encodePacked...\n      PUSH 3\t\t\tdirectory_names\n      PUSH 1\t\t\t1\n      PUSH 3\t\t\tdirectory_names\n      DUP1 \t\t\tdirectory_names.length\n      SLOAD \t\t\tdirectory_names.length\n      SWAP1 \t\t\tdirectory_names.length\n      POP \t\t\tdirectory_names.length\n      PUSH [tag] 66\t\t\tdirectory_names.length - 1\n      SWAP2 \t\t\tdirectory_names.length - 1\n      SWAP1 \t\t\tdirectory_names.length - 1\n      PUSH [tag] 67\t\t\tdirectory_names.length - 1\n      JUMP \t\t\tdirectory_names.length - 1\n    tag 66\t\t\tdirectory_names.length - 1\n      JUMPDEST \t\t\tdirectory_names.length - 1\n      DUP2 \t\t\tdirectory_names[directory_name...\n      SLOAD \t\t\tdirectory_names[directory_name...\n      DUP2 \t\t\tdirectory_names[directory_name...\n      LT \t\t\tdirectory_names[directory_name...\n      PUSH [tag] 68\t\t\tdirectory_names[directory_name...\n      JUMPI \t\t\tdirectory_names[directory_name...\n      PUSH [tag] 69\t\t\tdirectory_names[directory_name...\n      PUSH [tag] 61\t\t\tdirectory_names[directory_name...\n      JUMP \t\t\tdirectory_names[directory_name...\n    tag 69\t\t\tdirectory_names[directory_name...\n      JUMPDEST \t\t\tdirectory_names[directory_name...\n    tag 68\t\t\tdirectory_names[directory_name...\n      JUMPDEST \t\t\tdirectory_names[directory_name...\n      SWAP1 \t\t\tdirectory_names[directory_name...\n      PUSH 0\t\t\tdirectory_names[directory_name...\n      MSTORE \t\t\tdirectory_names[directory_name...\n      PUSH 20\t\t\tdirectory_names[directory_name...\n      PUSH 0\t\t\tdirectory_names[directory_name...\n      KECCAK256 \t\t\tdirectory_names[directory_name...\n      ADD \t\t\tdirectory_names[directory_name...\n      PUSH 3\t\t\tdirectory_names\n      DUP3 \t\t\ti\n      DUP2 \t\t\tdirectory_names[i]\n      SLOAD \t\t\tdirectory_names[i]\n      DUP2 \t\t\tdirectory_names[i]\n      LT \t\t\tdirectory_names[i]\n      PUSH [tag] 71\t\t\tdirectory_names[i]\n      JUMPI \t\t\tdirectory_names[i]\n      PUSH [tag] 72\t\t\tdirectory_names[i]\n      PUSH [tag] 61\t\t\tdirectory_names[i]\n      JUMP \t\t\tdirectory_names[i]\n    tag 72\t\t\tdirectory_names[i]\n      JUMPDEST \t\t\tdirectory_names[i]\n    tag 71\t\t\tdirectory_names[i]\n      JUMPDEST \t\t\tdirectory_names[i]\n      SWAP1 \t\t\tdirectory_names[i]\n      PUSH 0\t\t\tdirectory_names[i]\n      MSTORE \t\t\tdirectory_names[i]\n      PUSH 20\t\t\tdirectory_names[i]\n      PUSH 0\t\t\tdirectory_names[i]\n      KECCAK256 \t\t\tdirectory_names[i]\n      ADD \t\t\tdirectory_names[i]\n      SWAP1 \t\t\tdirectory_names[i] = directory...\n      DUP2 \t\t\tdirectory_names[i] = directory...\n      PUSH [tag] 74\t\t\tdirectory_names[i] = directory...\n      SWAP2 \t\t\tdirectory_names[i] = directory...\n      SWAP1 \t\t\tdirectory_names[i] = directory...\n      PUSH [tag] 75\t\t\tdirectory_names[i] = directory...\n      JUMP \t\t\tdirectory_names[i] = directory...\n    tag 74\t\t\tdirectory_names[i] = directory...\n      JUMPDEST \t\t\tdirectory_names[i] = directory...\n      POP \t\t\tdirectory_names[i] = directory...\n      PUSH 3\t\t\tdirectory_names\n      DUP1 \t\t\tdirectory_names.pop()\n      SLOAD \t\t\tdirectory_names.pop()\n      DUP1 \t\t\tdirectory_names.pop()\n      PUSH [tag] 76\t\t\tdirectory_names.pop()\n      JUMPI \t\t\tdirectory_names.pop()\n      PUSH [tag] 77\t\t\tdirectory_names.pop()\n      PUSH [tag] 78\t\t\tdirectory_names.pop()\n      JUMP \t\t\tdirectory_names.pop()\n    tag 77\t\t\tdirectory_names.pop()\n      JUMPDEST \t\t\tdirectory_names.pop()\n    tag 76\t\t\tdirectory_names.pop()\n      JUMPDEST \t\t\tdirectory_names.pop()\n      PUSH 1\t\t\tdirectory_names.pop()\n      SWAP1 \t\t\tdirectory_names.pop()\n      SUB \t\t\tdirectory_names.pop()\n      DUP2 \t\t\tdirectory_names.pop()\n      DUP2 \t\t\tdirectory_names.pop()\n      SWAP1 \t\t\tdirectory_names.pop()\n      PUSH 0\t\t\tdirectory_names.pop()\n      MSTORE \t\t\tdirectory_names.pop()\n      PUSH 20\t\t\tdirectory_names.pop()\n      PUSH 0\t\t\tdirectory_names.pop()\n      KECCAK256 \t\t\tdirectory_names.pop()\n      ADD \t\t\tdirectory_names.pop()\n      PUSH 0\t\t\tdirectory_names.pop()\n      PUSH [tag] 80\t\t\tdirectory_names.pop()\n      SWAP2 \t\t\tdirectory_names.pop()\n      SWAP1 \t\t\tdirectory_names.pop()\n      PUSH [tag] 81\t\t\tdirectory_names.pop()\n      JUMP \t\t\tdirectory_names.pop()\n    tag 80\t\t\tdirectory_names.pop()\n      JUMPDEST \t\t\tdirectory_names.pop()\n      SWAP1 \t\t\tdirectory_names.pop()\n      SSTORE \t\t\tdirectory_names.pop()\n    tag 65\t\t\tif (keccak256(abi.encodePacked...\n      JUMPDEST \t\t\tif (keccak256(abi.encodePacked...\n      DUP1 \t\t\ti++\n      DUP1 \t\t\ti++\n      PUSH [tag] 82\t\t\ti++\n      SWAP1 \t\t\ti++\n      PUSH [tag] 83\t\t\ti++\n      JUMP \t\t\ti++\n    tag 82\t\t\ti++\n      JUMPDEST \t\t\ti++\n      SWAP2 \t\t\ti++\n      POP \t\t\ti++\n      POP \t\t\ti++\n      PUSH [tag] 55\t\t\tfor (uint i = 0; i < directory...\n      JUMP \t\t\tfor (uint i = 0; i < directory...\n    tag 56\t\t\tfor (uint i = 0; i < directory...\n      JUMPDEST \t\t\tfor (uint i = 0; i < directory...\n      POP \t\t\tfor (uint i = 0; i < directory...\n      POP \t\t\tfunction deleteDirectory(strin...\n      JUMP \t\t\tfunction deleteDirectory(strin...\n    tag 18\t\t\tfunction createFile(string mem...\n      JUMPDEST \t\t\tfunction createFile(string mem...\n      PUSH 40\t\t\tabi.encodePacked(\"\")\n      MLOAD \t\t\tabi.encodePacked(\"\")\n      PUSH 20\t\t\tabi.encodePacked(\"\")\n      ADD \t\t\tabi.encodePacked(\"\")\n      PUSH [tag] 85\t\t\tabi.encodePacked(\"\")\n      SWAP1 \t\t\tabi.encodePacked(\"\")\n      PUSH [tag] 42\t\t\tabi.encodePacked(\"\")\n      JUMP \t\t\tabi.encodePacked(\"\")\n    tag 85\t\t\tabi.encodePacked(\"\")\n      JUMPDEST \t\t\tabi.encodePacked(\"\")\n      PUSH 40\t\t\tabi.encodePacked(\"\")\n      MLOAD \t\t\tabi.encodePacked(\"\")\n      PUSH 20\t\t\tabi.encodePacked(\"\")\n      DUP2 \t\t\tabi.encodePacked(\"\")\n      DUP4 \t\t\tabi.encodePacked(\"\")\n      SUB \t\t\tabi.encodePacked(\"\")\n      SUB \t\t\tabi.encodePacked(\"\")\n      DUP2 \t\t\tabi.encodePacked(\"\")\n      MSTORE \t\t\tabi.encodePacked(\"\")\n      SWAP1 \t\t\tabi.encodePacked(\"\")\n      PUSH 40\t\t\tabi.encodePacked(\"\")\n      MSTORE \t\t\tabi.encodePacked(\"\")\n      DUP1 \t\t\tkeccak256(abi.encodePacked(\"\")...\n      MLOAD \t\t\tkeccak256(abi.encodePacked(\"\")...\n      SWAP1 \t\t\tkeccak256(abi.encodePacked(\"\")...\n      PUSH 20\t\t\tkeccak256(abi.encodePacked(\"\")...\n      ADD \t\t\tkeccak256(abi.encodePacked(\"\")...\n      KECCAK256 \t\t\tkeccak256(abi.encodePacked(\"\")...\n      PUSH 4\t\t\tauthContract\n      PUSH 0\t\t\tauthContract\n      SWAP1 \t\t\tauthContract\n      SLOAD \t\t\tauthContract\n      SWAP1 \t\t\tauthContract\n      PUSH 100\t\t\tauthContract\n      EXP \t\t\tauthContract\n      SWAP1 \t\t\tauthContract\n      DIV \t\t\tauthContract\n      PUSH FFFFFFFFFFFFFFFFFFFFFFFFFFFFFFFFFFFFFFFF\t\t\tauthContract\n      AND \t\t\tauthContract\n      PUSH FFFFFFFFFFFFFFFFFFFFFFFFFFFFFFFFFFFFFFFF\t\t\tauthContract.getUserRole\n      AND \t\t\tauthContract.getUserRole\n      PUSH 27820851\t\t\tauthContract.getUserRole\n      CALLER \t\t\tmsg.sender\n      PUSH 40\t\t\tauthContract.getUserRole(msg.s...\n      MLOAD \t\t\tauthContract.getUserRole(msg.s...\n      DUP3 \t\t\tauthContract.getUserRole(msg.s...\n      PUSH FFFFFFFF\t\t\tauthContract.getUserRole(msg.s...\n      AND \t\t\tauthContract.getUserRole(msg.s...\n      PUSH E0\t\t\tauthContract.getUserRole(msg.s...\n      SHL \t\t\tauthContract.getUserRole(msg.s...\n      DUP2 \t\t\tauthContract.getUserRole(msg.s...\n      MSTORE \t\t\tauthContract.getUserRole(msg.s...\n      PUSH 4\t\t\tauthContract.getUserRole(msg.s...\n      ADD \t\t\tauthContract.getUserRole(msg.s...\n      PUSH [tag] 86\t\t\tauthContract.getUserRole(msg.s...\n      SWAP2 \t\t\tauthContract.getUserRole(msg.s...\n      SWAP1 \t\t\tauthContract.getUserRole(msg.s...\n      PUSH [tag] 44\t\t\tauthContract.getUserRole(msg.s...\n      JUMP \t\t\tauthContract.getUserRole(msg.s...\n    tag 86\t\t\tauthContract.getUserRole(msg.s...\n      JUMPDEST \t\t\tauthContract.getUserRole(msg.s...\n      PUSH 0\t\t\tauthContract.getUserRole(msg.s...\n      PUSH 40\t\t\tauthContract.getUserRole(msg.s...\n      MLOAD \t\t\tauthContract.getUserRole(msg.s...\n      DUP1 \t\t\tauthContract.getUserRole(msg.s...\n      DUP4 \t\t\tauthContract.getUserRole(msg.s...\n      SUB \t\t\tauthContract.getUserRole(msg.s...\n      DUP2 \t\t\tauthContract.getUserRole(msg.s...\n      DUP7 \t\t\tauthContract.getUserRole(msg.s...\n      GAS \t\t\tauthContract.getUserRole(msg.s...\n      STATICCALL \t\t\tauthContract.getUserRole(msg.s...\n      ISZERO \t\t\tauthContract.getUserRole(msg.s...\n      DUP1 \t\t\tauthContract.getUserRole(msg.s...\n      ISZERO \t\t\tauthContract.getUserRole(msg.s...\n      PUSH [tag] 88\t\t\tauthContract.getUserRole(msg.s...\n      JUMPI \t\t\tauthContract.getUserRole(msg.s...\n      RETURNDATASIZE \t\t\tauthContract.getUserRole(msg.s...\n      PUSH 0\t\t\tauthContract.getUserRole(msg.s...\n      DUP1 \t\t\tauthContract.getUserRole(msg.s...\n      RETURNDATACOPY \t\t\tauthContract.getUserRole(msg.s...\n      RETURNDATASIZE \t\t\tauthContract.getUserRole(msg.s...\n      PUSH 0\t\t\tauthContract.getUserRole(msg.s...\n      REVERT \t\t\tauthContract.getUserRole(msg.s...\n    tag 88\t\t\tauthContract.getUserRole(msg.s...\n      JUMPDEST \t\t\tauthContract.getUserRole(msg.s...\n      POP \t\t\tauthContract.getUserRole(msg.s...\n      POP \t\t\tauthContract.getUserRole(msg.s...\n      POP \t\t\tauthContract.getUserRole(msg.s...\n      POP \t\t\tauthContract.getUserRole(msg.s...\n      PUSH 40\t\t\tauthContract.getUserRole(msg.s...\n      MLOAD \t\t\tauthContract.getUserRole(msg.s...\n      RETURNDATASIZE \t\t\tauthContract.getUserRole(msg.s...\n      PUSH 0\t\t\tauthContract.getUserRole(msg.s...\n      DUP3 \t\t\tauthContract.getUserRole(msg.s...\n      RETURNDATACOPY \t\t\tauthContract.getUserRole(msg.s...\n      RETURNDATASIZE \t\t\tauthContract.getUserRole(msg.s...\n      PUSH 1F\t\t\tauthContract.getUserRole(msg.s...\n      NOT \t\t\tauthContract.getUserRole(msg.s...\n      PUSH 1F\t\t\tauthContract.getUserRole(msg.s...\n      DUP3 \t\t\tauthContract.getUserRole(msg.s...\n      ADD \t\t\tauthContract.getUserRole(msg.s...\n      AND \t\t\tauthContract.getUserRole(msg.s...\n      DUP3 \t\t\tauthContract.getUserRole(msg.s...\n      ADD \t\t\tauthContract.getUserRole(msg.s...\n      DUP1 \t\t\tauthContract.getUserRole(msg.s...\n      PUSH 40\t\t\tauthContract.getUserRole(msg.s...\n      MSTORE \t\t\tauthContract.getUserRole(msg.s...\n      POP \t\t\tauthContract.getUserRole(msg.s...\n      DUP2 \t\t\tauthContract.getUserRole(msg.s...\n      ADD \t\t\tauthContract.getUserRole(msg.s...\n      SWAP1 \t\t\tauthContract.getUserRole(msg.s...\n      PUSH [tag] 89\t\t\tauthContract.getUserRole(msg.s...\n      SWAP2 \t\t\tauthContract.getUserRole(msg.s...\n      SWAP1 \t\t\tauthContract.getUserRole(msg.s...\n      PUSH [tag] 48\t\t\tauthContract.getUserRole(msg.s...\n      JUMP \t\t\tauthContract.getUserRole(msg.s...\n    tag 89\t\t\tauthContract.getUserRole(msg.s...\n      JUMPDEST \t\t\tauthContract.getUserRole(msg.s...\n      PUSH 40\t\t\tabi.encodePacked(authContract....\n      MLOAD \t\t\tabi.encodePacked(authContract....\n      PUSH 20\t\t\tabi.encodePacked(authContract....\n      ADD \t\t\tabi.encodePacked(authContract....\n      PUSH [tag] 90\t\t\tabi.encodePacked(authContract....\n      SWAP2 \t\t\tabi.encodePacked(authContract....\n      SWAP1 \t\t\tabi.encodePacked(authContract....\n      PUSH [tag] 50\t\t\tabi.encodePacked(authContract....\n      JUMP \t\t\tabi.encodePacked(authContract....\n    tag 90\t\t\tabi.encodePacked(authContract....\n      JUMPDEST \t\t\tabi.encodePacked(authContract....\n      PUSH 40\t\t\tabi.encodePacked(authContract....\n      MLOAD \t\t\tabi.encodePacked(authContract....\n      PUSH 20\t\t\tabi.encodePacked(authContract....\n      DUP2 \t\t\tabi.encodePacked(authContract....\n      DUP4 \t\t\tabi.encodePacked(authContract....\n      SUB \t\t\tabi.encodePacked(authContract....\n      SUB \t\t\tabi.encodePacked(authContract....\n      DUP2 \t\t\tabi.encodePacked(authContract....\n      MSTORE \t\t\tabi.encodePacked(authContract....\n      SWAP1 \t\t\tabi.encodePacked(authContract....\n      PUSH 40\t\t\tabi.encodePacked(authContract....\n      MSTORE \t\t\tabi.encodePacked(authContract....\n      DUP1 \t\t\tkeccak256(abi.encodePacked(aut...\n      MLOAD \t\t\tkeccak256(abi.encodePacked(aut...\n      SWAP1 \t\t\tkeccak256(abi.encodePacked(aut...\n      PUSH 20\t\t\tkeccak256(abi.encodePacked(aut...\n      ADD \t\t\tkeccak256(abi.encodePacked(aut...\n      KECCAK256 \t\t\tkeccak256(abi.encodePacked(aut...\n      SUB \t\t\tkeccak256(abi.encodePacked(aut...\n      PUSH [tag] 91\t\t\trequire(keccak256(abi.encodePa...\n      JUMPI \t\t\trequire(keccak256(abi.encodePa...\n      PUSH 40\t\t\trequire(keccak256(abi.encodePa...\n      MLOAD \t\t\trequire(keccak256(abi.encodePa...\n      PUSH 8C379A000000000000000000000000000000000000000000000000000000000\t\t\trequire(keccak256(abi.encodePa...\n      DUP2 \t\t\trequire(keccak256(abi.encodePa...\n      MSTORE \t\t\trequire(keccak256(abi.encodePa...\n      PUSH 4\t\t\trequire(keccak256(abi.encodePa...\n      ADD \t\t\trequire(keccak256(abi.encodePa...\n      PUSH [tag] 92\t\t\trequire(keccak256(abi.encodePa...\n      SWAP1 \t\t\trequire(keccak256(abi.encodePa...\n      PUSH [tag] 53\t\t\trequire(keccak256(abi.encodePa...\n      JUMP \t\t\trequire(keccak256(abi.encodePa...\n    tag 92\t\t\trequire(keccak256(abi.encodePa...\n      JUMPDEST \t\t\trequire(keccak256(abi.encodePa...\n      PUSH 40\t\t\trequire(keccak256(abi.encodePa...\n      MLOAD \t\t\trequire(keccak256(abi.encodePa...\n      DUP1 \t\t\trequire(keccak256(abi.encodePa...\n      SWAP2 \t\t\trequire(keccak256(abi.encodePa...\n      SUB \t\t\trequire(keccak256(abi.encodePa...\n      SWAP1 \t\t\trequire(keccak256(abi.encodePa...\n      REVERT \t\t\trequire(keccak256(abi.encodePa...\n    tag 91\t\t\trequire(keccak256(abi.encodePa...\n      JUMPDEST \t\t\trequire(keccak256(abi.encodePa...\n      PUSH [tag] 94\t\t\tisDirectoryExist(directory)\n      DUP3 \t\t\tdirectory\n      PUSH [tag] 95\t\t\tisDirectoryExist\n      JUMP \t\t\tisDirectoryExist(directory)\n    tag 94\t\t\tisDirectoryExist(directory)\n      JUMPDEST \t\t\tisDirectoryExist(directory)\n      PUSH [tag] 96\t\t\trequire(isDirectoryExist(direc...\n      JUMPI \t\t\trequire(isDirectoryExist(direc...\n      PUSH 40\t\t\trequire(isDirectoryExist(direc...\n      MLOAD \t\t\trequire(isDirectoryExist(direc...\n      PUSH 8C379A000000000000000000000000000000000000000000000000000000000\t\t\trequire(isDirectoryExist(direc...\n      DUP2 \t\t\trequire(isDirectoryExist(direc...\n      MSTORE \t\t\trequire(isDirectoryExist(direc...\n      PUSH 4\t\t\trequire(isDirectoryExist(direc...\n      ADD \t\t\trequire(isDirectoryExist(direc...\n      PUSH [tag] 97\t\t\trequire(isDirectoryExist(direc...\n      SWAP1 \t\t\trequire(isDirectoryExist(direc...\n      PUSH [tag] 98\t\t\trequire(isDirectoryExist(direc...\n      JUMP \t\t\trequire(isDirectoryExist(direc...\n    tag 97\t\t\trequire(isDirectoryExist(direc...\n      JUMPDEST \t\t\trequire(isDirectoryExist(direc...\n      PUSH 40\t\t\trequire(isDirectoryExist(direc...\n      MLOAD \t\t\trequire(isDirectoryExist(direc...\n      DUP1 \t\t\trequire(isDirectoryExist(direc...\n      SWAP2 \t\t\trequire(isDirectoryExist(direc...\n      SUB \t\t\trequire(isDirectoryExist(direc...\n      SWAP1 \t\t\trequire(isDirectoryExist(direc...\n      REVERT \t\t\trequire(isDirectoryExist(direc...\n    tag 96\t\t\trequire(isDirectoryExist(direc...\n      JUMPDEST \t\t\trequire(isDirectoryExist(direc...\n      PUSH [tag] 99\t\t\tisFileExist(title, directory)\n      DUP5 \t\t\ttitle\n      DUP4 \t\t\tdirectory\n      PUSH [tag] 100\t\t\tisFileExist\n      JUMP \t\t\tisFileExist(title, directory)\n    tag 99\t\t\tisFileExist(title, directory)\n      JUMPDEST \t\t\tisFileExist(title, directory)\n      ISZERO \t\t\t!isFileExist(title, directory)\n      PUSH [tag] 101\t\t\trequire(!isFileExist(title, di...\n      JUMPI \t\t\trequire(!isFileExist(title, di...\n      PUSH 40\t\t\trequire(!isFileExist(title, di...\n      MLOAD \t\t\trequire(!isFileExist(title, di...\n      PUSH 8C379A000000000000000000000000000000000000000000000000000000000\t\t\trequire(!isFileExist(title, di...\n      DUP2 \t\t\trequire(!isFileExist(title, di...\n      MSTORE \t\t\trequire(!isFileExist(title, di...\n      PUSH 4\t\t\trequire(!isFileExist(title, di...\n      ADD \t\t\trequire(!isFileExist(title, di...\n      PUSH [tag] 102\t\t\trequire(!isFileExist(title, di...\n      SWAP1 \t\t\trequire(!isFileExist(title, di...\n      PUSH [tag] 103\t\t\trequire(!isFileExist(title, di...\n      JUMP \t\t\trequire(!isFileExist(title, di...\n    tag 102\t\t\trequire(!isFileExist(title, di...\n      JUMPDEST \t\t\trequire(!isFileExist(title, di...\n      PUSH 40\t\t\trequire(!isFileExist(title, di...\n      MLOAD \t\t\trequire(!isFileExist(title, di...\n      DUP1 \t\t\trequire(!isFileExist(title, di...\n      SWAP2 \t\t\trequire(!isFileExist(title, di...\n      SUB \t\t\trequire(!isFileExist(title, di...\n      SWAP1 \t\t\trequire(!isFileExist(title, di...\n      REVERT \t\t\trequire(!isFileExist(title, di...\n    tag 101\t\t\trequire(!isFileExist(title, di...\n      JUMPDEST \t\t\trequire(!isFileExist(title, di...\n      PUSH 0\t\t\tFile memory file\n      PUSH 40\t\t\tFile(title, roles)\n      MLOAD \t\t\tFile(title, roles)\n      DUP1 \t\t\tFile(title, roles)\n      PUSH 40\t\t\tFile(title, roles)\n      ADD \t\t\tFile(title, roles)\n      PUSH 40\t\t\tFile(title, roles)\n      MSTORE \t\t\tFile(title, roles)\n      DUP1 \t\t\tFile(title, roles)\n      DUP7 \t\t\ttitle\n      DUP2 \t\t\tFile(title, roles)\n      MSTORE \t\t\tFile(title, roles)\n      PUSH 20\t\t\tFile(title, roles)\n      ADD \t\t\tFile(title, roles)\n      DUP4 \t\t\troles\n      DUP2 \t\t\tFile(title, roles)\n      MSTORE \t\t\tFile(title, roles)\n      POP \t\t\tFile(title, roles)\n      SWAP1 \t\t\tFile memory file = File(title,...\n      POP \t\t\tFile memory file = File(title,...\n      DUP4 \t\t\thash\n      PUSH 1\t\t\tFileHash\n      DUP7 \t\t\ttitle\n      PUSH 40\t\t\tFileHash[title]\n      MLOAD \t\t\tFileHash[title]\n      PUSH [tag] 104\t\t\tFileHash[title]\n      SWAP2 \t\t\tFileHash[title]\n      SWAP1 \t\t\tFileHash[title]\n      PUSH [tag] 50\t\t\tFileHash[title]\n      JUMP \t\t\tFileHash[title]\n    tag 104\t\t\tFileHash[title]\n      JUMPDEST \t\t\tFileHash[title]\n      SWAP1 \t\t\tFileHash[title]\n      DUP2 \t\t\tFileHash[title]\n      MSTORE \t\t\tFileHash[title]\n      PUSH 20\t\t\tFileHash[title]\n      ADD \t\t\tFileHash[title]\n      PUSH 40\t\t\tFileHash[title]\n      MLOAD \t\t\tFileHash[title]\n      DUP1 \t\t\tFileHash[title]\n      SWAP2 \t\t\tFileHash[title]\n      SUB \t\t\tFileHash[title]\n      SWAP1 \t\t\tFileHash[title]\n      KECCAK256 \t\t\tFileHash[title]\n      SWAP1 \t\t\tFileHash[title] = hash\n      DUP2 \t\t\tFileHash[title] = hash\n      PUSH [tag] 105\t\t\tFileHash[title] = hash\n      SWAP2 \t\t\tFileHash[title] = hash\n      SWAP1 \t\t\tFileHash[title] = hash\n      PUSH [tag] 106\t\t\tFileHash[title] = hash\n      JUMP \t\t\tFileHash[title] = hash\n    tag 105\t\t\tFileHash[title] = hash\n      JUMPDEST \t\t\tFileHash[title] = hash\n      POP \t\t\tFileHash[title] = hash\n      PUSH 0\t\t\tDirectories\n      DUP4 \t\t\tdirectory\n      PUSH 40\t\t\tDirectories[directory]\n      MLOAD \t\t\tDirectories[directory]\n      PUSH [tag] 107\t\t\tDirectories[directory]\n      SWAP2 \t\t\tDirectories[directory]\n      SWAP1 \t\t\tDirectories[directory]\n      PUSH [tag] 50\t\t\tDirectories[directory]\n      JUMP \t\t\tDirectories[directory]\n    tag 107\t\t\tDirectories[directory]\n      JUMPDEST \t\t\tDirectories[directory]\n      SWAP1 \t\t\tDirectories[directory]\n      DUP2 \t\t\tDirectories[directory]\n      MSTORE \t\t\tDirectories[directory]\n      PUSH 20\t\t\tDirectories[directory]\n      ADD \t\t\tDirectories[directory]\n      PUSH 40\t\t\tDirectories[directory]\n      MLOAD \t\t\tDirectories[directory]\n      DUP1 \t\t\tDirectories[directory]\n      SWAP2 \t\t\tDirectories[directory]\n      SUB \t\t\tDirectories[directory]\n      SWAP1 \t\t\tDirectories[directory]\n      KECCAK256 \t\t\tDirectories[directory]\n      PUSH 1\t\t\tDirectories[directory].files\n      ADD \t\t\tDirectories[directory].files\n      DUP2 \t\t\tfile\n      SWAP1 \t\t\tDirectories[directory].files.p...\n      DUP1 \t\t\tDirectories[directory].files.p...\n      PUSH 1\t\t\tDirectories[directory].files.p...\n      DUP2 \t\t\tDirectories[directory].files.p...\n      SLOAD \t\t\tDirectories[directory].files.p...\n      ADD \t\t\tDirectories[directory].files.p...\n      DUP1 \t\t\tDirectories[directory].files.p...\n      DUP3 \t\t\tDirectories[directory].files.p...\n      SSTORE \t\t\tDirectories[directory].files.p...\n      DUP1 \t\t\tDirectories[directory].files.p...\n      SWAP2 \t\t\tDirectories[directory].files.p...\n      POP \t\t\tDirectories[directory].files.p...\n      POP \t\t\tDirectories[directory].files.p...\n      PUSH 1\t\t\tDirectories[directory].files.p...\n      SWAP1 \t\t\tDirectories[directory].files.p...\n      SUB \t\t\tDirectories[directory].files.p...\n      SWAP1 \t\t\tDirectories[directory].files.p...\n      PUSH 0\t\t\tDirectories[directory].files.p...\n      MSTORE \t\t\tDirectories[directory].files.p...\n      PUSH 20\t\t\tDirectories[directory].files.p...\n      PUSH 0\t\t\tDirectories[directory].files.p...\n      KECCAK256 \t\t\tDirectories[directory].files.p...\n      SWAP1 \t\t\tDirectories[directory].files.p...\n      PUSH 2\t\t\tDirectories[directory].files.p...\n      MUL \t\t\tDirectories[directory].files.p...\n      ADD \t\t\tDirectories[directory].files.p...\n      PUSH 0\t\t\tDirectories[directory].files.p...\n      SWAP1 \t\t\tDirectories[directory].files.p...\n      SWAP2 \t\t\tDirectories[directory].files.p...\n      SWAP1 \t\t\tDirectories[directory].files.p...\n      SWAP2 \t\t\tDirectories[directory].files.p...\n      SWAP1 \t\t\tDirectories[directory].files.p...\n      SWAP2 \t\t\tDirectories[directory].files.p...\n      POP \t\t\tDirectories[directory].files.p...\n      PUSH 0\t\t\tDirectories[directory].files.p...\n      DUP3 \t\t\tDirectories[directory].files.p...\n      ADD \t\t\tDirectories[directory].files.p...\n      MLOAD \t\t\tDirectories[directory].files.p...\n      DUP2 \t\t\tDirectories[directory].files.p...\n      PUSH 0\t\t\tDirectories[directory].files.p...\n      ADD \t\t\tDirectories[directory].files.p...\n      SWAP1 \t\t\tDirectories[directory].files.p...\n      DUP2 \t\t\tDirectories[directory].files.p...\n      PUSH [tag] 109\t\t\tDirectories[directory].files.p...\n      SWAP2 \t\t\tDirectories[directory].files.p...\n      SWAP1 \t\t\tDirectories[directory].files.p...\n      PUSH [tag] 106\t\t\tDirectories[directory].files.p...\n      JUMP \t\t\tDirectories[directory].files.p...\n    tag 109\t\t\tDirectories[directory].files.p...\n      JUMPDEST \t\t\tDirectories[directory].files.p...\n      POP \t\t\tDirectories[directory].files.p...\n      PUSH 20\t\t\tDirectories[directory].files.p...\n      DUP3 \t\t\tDirectories[directory].files.p...\n      ADD \t\t\tDirectories[directory].files.p...\n      MLOAD \t\t\tDirectories[directory].files.p...\n      DUP2 \t\t\tDirectories[directory].files.p...\n      PUSH 1\t\t\tDirectories[directory].files.p...\n      ADD \t\t\tDirectories[directory].files.p...\n      SWAP1 \t\t\tDirectories[directory].files.p...\n      DUP1 \t\t\tDirectories[directory].files.p...\n      MLOAD \t\t\tDirectories[directory].files.p...\n      SWAP1 \t\t\tDirectories[directory].files.p...\n      PUSH 20\t\t\tDirectories[directory].files.p...\n      ADD \t\t\tDirectories[directory].files.p...\n      SWAP1 \t\t\tDirectories[directory].files.p...\n      PUSH [tag] 110\t\t\tDirectories[directory].files.p...\n      SWAP3 \t\t\tDirectories[directory].files.p...\n      SWAP2 \t\t\tDirectories[directory].files.p...\n      SWAP1 \t\t\tDirectories[directory].files.p...\n      PUSH [tag] 111\t\t\tDirectories[directory].files.p...\n      JUMP \t\t\tDirectories[directory].files.p...\n    tag 110\t\t\tDirectories[directory].files.p...\n      JUMPDEST \t\t\tDirectories[directory].files.p...\n      POP \t\t\tDirectories[directory].files.p...\n      POP \t\t\tDirectories[directory].files.p...\n      POP \t\t\tDirectories[directory].files.p...\n      POP \t\t\t{\\r\\n        require(isDirecto...\n      POP \t\t\tfunction createFile(string mem...\n      POP \t\t\tfunction createFile(string mem...\n      POP \t\t\tfunction createFile(string mem...\n      POP \t\t\tfunction createFile(string mem...\n      JUMP \t\t\tfunction createFile(string mem...\n    tag 21\t\t\tfunction createDirectory(strin...\n      JUMPDEST \t\t\tfunction createDirectory(strin...\n      PUSH 40\t\t\tabi.encodePacked(\"\")\n      MLOAD \t\t\tabi.encodePacked(\"\")\n      PUSH 20\t\t\tabi.encodePacked(\"\")\n      ADD \t\t\tabi.encodePacked(\"\")\n      PUSH [tag] 113\t\t\tabi.encodePacked(\"\")\n      SWAP1 \t\t\tabi.encodePacked(\"\")\n      PUSH [tag] 42\t\t\tabi.encodePacked(\"\")\n      JUMP \t\t\tabi.encodePacked(\"\")\n    tag 113\t\t\tabi.encodePacked(\"\")\n      JUMPDEST \t\t\tabi.encodePacked(\"\")\n      PUSH 40\t\t\tabi.encodePacked(\"\")\n      MLOAD \t\t\tabi.encodePacked(\"\")\n      PUSH 20\t\t\tabi.encodePacked(\"\")\n      DUP2 \t\t\tabi.encodePacked(\"\")\n      DUP4 \t\t\tabi.encodePacked(\"\")\n      SUB \t\t\tabi.encodePacked(\"\")\n      SUB \t\t\tabi.encodePacked(\"\")\n      DUP2 \t\t\tabi.encodePacked(\"\")\n      MSTORE \t\t\tabi.encodePacked(\"\")\n      SWAP1 \t\t\tabi.encodePacked(\"\")\n      PUSH 40\t\t\tabi.encodePacked(\"\")\n      MSTORE \t\t\tabi.encodePacked(\"\")\n      DUP1 \t\t\tkeccak256(abi.encodePacked(\"\")...\n      MLOAD \t\t\tkeccak256(abi.encodePacked(\"\")...\n      SWAP1 \t\t\tkeccak256(abi.encodePacked(\"\")...\n      PUSH 20\t\t\tkeccak256(abi.encodePacked(\"\")...\n      ADD \t\t\tkeccak256(abi.encodePacked(\"\")...\n      KECCAK256 \t\t\tkeccak256(abi.encodePacked(\"\")...\n      PUSH 4\t\t\tauthContract\n      PUSH 0\t\t\tauthContract\n      SWAP1 \t\t\tauthContract\n      SLOAD \t\t\tauthContract\n      SWAP1 \t\t\tauthContract\n      PUSH 100\t\t\tauthContract\n      EXP \t\t\tauthContract\n      SWAP1 \t\t\tauthContract\n      DIV \t\t\tauthContract\n      PUSH FFFFFFFFFFFFFFFFFFFFFFFFFFFFFFFFFFFFFFFF\t\t\tauthContract\n      AND \t\t\tauthContract\n      PUSH FFFFFFFFFFFFFFFFFFFFFFFFFFFFFFFFFFFFFFFF\t\t\tauthContract.getUserRole\n      AND \t\t\tauthContract.getUserRole\n      PUSH 27820851\t\t\tauthContract.getUserRole\n      CALLER \t\t\tmsg.sender\n      PUSH 40\t\t\tauthContract.getUserRole(msg.s...\n      MLOAD \t\t\tauthContract.getUserRole(msg.s...\n      DUP3 \t\t\tauthContract.getUserRole(msg.s...\n      PUSH FFFFFFFF\t\t\tauthContract.getUserRole(msg.s...\n      AND \t\t\tauthContract.getUserRole(msg.s...\n      PUSH E0\t\t\tauthContract.getUserRole(msg.s...\n      SHL \t\t\tauthContract.getUserRole(msg.s...\n      DUP2 \t\t\tauthContract.getUserRole(msg.s...\n      MSTORE \t\t\tauthContract.getUserRole(msg.s...\n      PUSH 4\t\t\tauthContract.getUserRole(msg.s...\n      ADD \t\t\tauthContract.getUserRole(msg.s...\n      PUSH [tag] 114\t\t\tauthContract.getUserRole(msg.s...\n      SWAP2 \t\t\tauthContract.getUserRole(msg.s...\n      SWAP1 \t\t\tauthContract.getUserRole(msg.s...\n      PUSH [tag] 44\t\t\tauthContract.getUserRole(msg.s...\n      JUMP \t\t\tauthContract.getUserRole(msg.s...\n    tag 114\t\t\tauthContract.getUserRole(msg.s...\n      JUMPDEST \t\t\tauthContract.getUserRole(msg.s...\n      PUSH 0\t\t\tauthContract.getUserRole(msg.s...\n      PUSH 40\t\t\tauthContract.getUserRole(msg.s...\n      MLOAD \t\t\tauthContract.getUserRole(msg.s...\n      DUP1 \t\t\tauthContract.getUserRole(msg.s...\n      DUP4 \t\t\tauthContract.getUserRole(msg.s...\n      SUB \t\t\tauthContract.getUserRole(msg.s...\n      DUP2 \t\t\tauthContract.getUserRole(msg.s...\n      DUP7 \t\t\tauthContract.getUserRole(msg.s...\n      GAS \t\t\tauthContract.getUserRole(msg.s...\n      STATICCALL \t\t\tauthContract.getUserRole(msg.s...\n      ISZERO \t\t\tauthContract.getUserRole(msg.s...\n      DUP1 \t\t\tauthContract.getUserRole(msg.s...\n      ISZERO \t\t\tauthContract.getUserRole(msg.s...\n      PUSH [tag] 116\t\t\tauthContract.getUserRole(msg.s...\n      JUMPI \t\t\tauthContract.getUserRole(msg.s...\n      RETURNDATASIZE \t\t\tauthContract.getUserRole(msg.s...\n      PUSH 0\t\t\tauthContract.getUserRole(msg.s...\n      DUP1 \t\t\tauthContract.getUserRole(msg.s...\n      RETURNDATACOPY \t\t\tauthContract.getUserRole(msg.s...\n      RETURNDATASIZE \t\t\tauthContract.getUserRole(msg.s...\n      PUSH 0\t\t\tauthContract.getUserRole(msg.s...\n      REVERT \t\t\tauthContract.getUserRole(msg.s...\n    tag 116\t\t\tauthContract.getUserRole(msg.s...\n      JUMPDEST \t\t\tauthContract.getUserRole(msg.s...\n      POP \t\t\tauthContract.getUserRole(msg.s...\n      POP \t\t\tauthContract.getUserRole(msg.s...\n      POP \t\t\tauthContract.getUserRole(msg.s...\n      POP \t\t\tauthContract.getUserRole(msg.s...\n      PUSH 40\t\t\tauthContract.getUserRole(msg.s...\n      MLOAD \t\t\tauthContract.getUserRole(msg.s...\n      RETURNDATASIZE \t\t\tauthContract.getUserRole(msg.s...\n      PUSH 0\t\t\tauthContract.getUserRole(msg.s...\n      DUP3 \t\t\tauthContract.getUserRole(msg.s...\n      RETURNDATACOPY \t\t\tauthContract.getUserRole(msg.s...\n      RETURNDATASIZE \t\t\tauthContract.getUserRole(msg.s...\n      PUSH 1F\t\t\tauthContract.getUserRole(msg.s...\n      NOT \t\t\tauthContract.getUserRole(msg.s...\n      PUSH 1F\t\t\tauthContract.getUserRole(msg.s...\n      DUP3 \t\t\tauthContract.getUserRole(msg.s...\n      ADD \t\t\tauthContract.getUserRole(msg.s...\n      AND \t\t\tauthContract.getUserRole(msg.s...\n      DUP3 \t\t\tauthContract.getUserRole(msg.s...\n      ADD \t\t\tauthContract.getUserRole(msg.s...\n      DUP1 \t\t\tauthContract.getUserRole(msg.s...\n      PUSH 40\t\t\tauthContract.getUserRole(msg.s...\n      MSTORE \t\t\tauthContract.getUserRole(msg.s...\n      POP \t\t\tauthContract.getUserRole(msg.s...\n      DUP2 \t\t\tauthContract.getUserRole(msg.s...\n      ADD \t\t\tauthContract.getUserRole(msg.s...\n      SWAP1 \t\t\tauthContract.getUserRole(msg.s...\n      PUSH [tag] 117\t\t\tauthContract.getUserRole(msg.s...\n      SWAP2 \t\t\tauthContract.getUserRole(msg.s...\n      SWAP1 \t\t\tauthContract.getUserRole(msg.s...\n      PUSH [tag] 48\t\t\tauthContract.getUserRole(msg.s...\n      JUMP \t\t\tauthContract.getUserRole(msg.s...\n    tag 117\t\t\tauthContract.getUserRole(msg.s...\n      JUMPDEST \t\t\tauthContract.getUserRole(msg.s...\n      PUSH 40\t\t\tabi.encodePacked(authContract....\n      MLOAD \t\t\tabi.encodePacked(authContract....\n      PUSH 20\t\t\tabi.encodePacked(authContract....\n      ADD \t\t\tabi.encodePacked(authContract....\n      PUSH [tag] 118\t\t\tabi.encodePacked(authContract....\n      SWAP2 \t\t\tabi.encodePacked(authContract....\n      SWAP1 \t\t\tabi.encodePacked(authContract....\n      PUSH [tag] 50\t\t\tabi.encodePacked(authContract....\n      JUMP \t\t\tabi.encodePacked(authContract....\n    tag 118\t\t\tabi.encodePacked(authContract....\n      JUMPDEST \t\t\tabi.encodePacked(authContract....\n      PUSH 40\t\t\tabi.encodePacked(authContract....\n      MLOAD \t\t\tabi.encodePacked(authContract....\n      PUSH 20\t\t\tabi.encodePacked(authContract....\n      DUP2 \t\t\tabi.encodePacked(authContract....\n      DUP4 \t\t\tabi.encodePacked(authContract....\n      SUB \t\t\tabi.encodePacked(authContract....\n      SUB \t\t\tabi.encodePacked(authContract....\n      DUP2 \t\t\tabi.encodePacked(authContract....\n      MSTORE \t\t\tabi.encodePacked(authContract....\n      SWAP1 \t\t\tabi.encodePacked(authContract....\n      PUSH 40\t\t\tabi.encodePacked(authContract....\n      MSTORE \t\t\tabi.encodePacked(authContract....\n      DUP1 \t\t\tkeccak256(abi.encodePacked(aut...\n      MLOAD \t\t\tkeccak256(abi.encodePacked(aut...\n      SWAP1 \t\t\tkeccak256(abi.encodePacked(aut...\n      PUSH 20\t\t\tkeccak256(abi.encodePacked(aut...\n      ADD \t\t\tkeccak256(abi.encodePacked(aut...\n      KECCAK256 \t\t\tkeccak256(abi.encodePacked(aut...\n      SUB \t\t\tkeccak256(abi.encodePacked(aut...\n      PUSH [tag] 119\t\t\trequire(keccak256(abi.encodePa...\n      JUMPI \t\t\trequire(keccak256(abi.encodePa...\n      PUSH 40\t\t\trequire(keccak256(abi.encodePa...\n      MLOAD \t\t\trequire(keccak256(abi.encodePa...\n      PUSH 8C379A000000000000000000000000000000000000000000000000000000000\t\t\trequire(keccak256(abi.encodePa...\n      DUP2 \t\t\trequire(keccak256(abi.encodePa...\n      MSTORE \t\t\trequire(keccak256(abi.encodePa...\n      PUSH 4\t\t\trequire(keccak256(abi.encodePa...\n      ADD \t\t\trequire(keccak256(abi.encodePa...\n      PUSH [tag] 120\t\t\trequire(keccak256(abi.encodePa...\n      SWAP1 \t\t\trequire(keccak256(abi.encodePa...\n      PUSH [tag] 53\t\t\trequire(keccak256(abi.encodePa...\n      JUMP \t\t\trequire(keccak256(abi.encodePa...\n    tag 120\t\t\trequire(keccak256(abi.encodePa...\n      JUMPDEST \t\t\trequire(keccak256(abi.encodePa...\n      PUSH 40\t\t\trequire(keccak256(abi.encodePa...\n      MLOAD \t\t\trequire(keccak256(abi.encodePa...\n      DUP1 \t\t\trequire(keccak256(abi.encodePa...\n      SWAP2 \t\t\trequire(keccak256(abi.encodePa...\n      SUB \t\t\trequire(keccak256(abi.encodePa...\n      SWAP1 \t\t\trequire(keccak256(abi.encodePa...\n      REVERT \t\t\trequire(keccak256(abi.encodePa...\n    tag 119\t\t\trequire(keccak256(abi.encodePa...\n      JUMPDEST \t\t\trequire(keccak256(abi.encodePa...\n      PUSH [tag] 122\t\t\tisDirectoryExist(title)\n      DUP2 \t\t\ttitle\n      PUSH [tag] 95\t\t\tisDirectoryExist\n      JUMP \t\t\tisDirectoryExist(title)\n    tag 122\t\t\tisDirectoryExist(title)\n      JUMPDEST \t\t\tisDirectoryExist(title)\n      ISZERO \t\t\t!isDirectoryExist(title)\n      PUSH [tag] 123\t\t\trequire(!isDirectoryExist(titl...\n      JUMPI \t\t\trequire(!isDirectoryExist(titl...\n      PUSH 40\t\t\trequire(!isDirectoryExist(titl...\n      MLOAD \t\t\trequire(!isDirectoryExist(titl...\n      PUSH 8C379A000000000000000000000000000000000000000000000000000000000\t\t\trequire(!isDirectoryExist(titl...\n      DUP2 \t\t\trequire(!isDirectoryExist(titl...\n      MSTORE \t\t\trequire(!isDirectoryExist(titl...\n      PUSH 4\t\t\trequire(!isDirectoryExist(titl...\n      ADD \t\t\trequire(!isDirectoryExist(titl...\n      PUSH [tag] 124\t\t\trequire(!isDirectoryExist(titl...\n      SWAP1 \t\t\trequire(!isDirectoryExist(titl...\n      PUSH [tag] 125\t\t\trequire(!isDirectoryExist(titl...\n      JUMP \t\t\trequire(!isDirectoryExist(titl...\n    tag 124\t\t\trequire(!isDirectoryExist(titl...\n      JUMPDEST \t\t\trequire(!isDirectoryExist(titl...\n      PUSH 40\t\t\trequire(!isDirectoryExist(titl...\n      MLOAD \t\t\trequire(!isDirectoryExist(titl...\n      DUP1 \t\t\trequire(!isDirectoryExist(titl...\n      SWAP2 \t\t\trequire(!isDirectoryExist(titl...\n      SUB \t\t\trequire(!isDirectoryExist(titl...\n      SWAP1 \t\t\trequire(!isDirectoryExist(titl...\n      REVERT \t\t\trequire(!isDirectoryExist(titl...\n    tag 123\t\t\trequire(!isDirectoryExist(titl...\n      JUMPDEST \t\t\trequire(!isDirectoryExist(titl...\n      PUSH 3\t\t\tdirectory_names\n      DUP2 \t\t\ttitle\n      SWAP1 \t\t\tdirectory_names.push(title)\n      DUP1 \t\t\tdirectory_names.push(title)\n      PUSH 1\t\t\tdirectory_names.push(title)\n      DUP2 \t\t\tdirectory_names.push(title)\n      SLOAD \t\t\tdirectory_names.push(title)\n      ADD \t\t\tdirectory_names.push(title)\n      DUP1 \t\t\tdirectory_names.push(title)\n      DUP3 \t\t\tdirectory_names.push(title)\n      SSTORE \t\t\tdirectory_names.push(title)\n      DUP1 \t\t\tdirectory_names.push(title)\n      SWAP2 \t\t\tdirectory_names.push(title)\n      POP \t\t\tdirectory_names.push(title)\n      POP \t\t\tdirectory_names.push(title)\n      PUSH 1\t\t\tdirectory_names.push(title)\n      SWAP1 \t\t\tdirectory_names.push(title)\n      SUB \t\t\tdirectory_names.push(title)\n      SWAP1 \t\t\tdirectory_names.push(title)\n      PUSH 0\t\t\tdirectory_names.push(title)\n      MSTORE \t\t\tdirectory_names.push(title)\n      PUSH 20\t\t\tdirectory_names.push(title)\n      PUSH 0\t\t\tdirectory_names.push(title)\n      KECCAK256 \t\t\tdirectory_names.push(title)\n      ADD \t\t\tdirectory_names.push(title)\n      PUSH 0\t\t\tdirectory_names.push(title)\n      SWAP1 \t\t\tdirectory_names.push(title)\n      SWAP2 \t\t\tdirectory_names.push(title)\n      SWAP1 \t\t\tdirectory_names.push(title)\n      SWAP2 \t\t\tdirectory_names.push(title)\n      SWAP1 \t\t\tdirectory_names.push(title)\n      SWAP2 \t\t\tdirectory_names.push(title)\n      POP \t\t\tdirectory_names.push(title)\n      SWAP1 \t\t\tdirectory_names.push(title)\n      DUP2 \t\t\tdirectory_names.push(title)\n      PUSH [tag] 127\t\t\tdirectory_names.push(title)\n      SWAP2 \t\t\tdirectory_names.push(title)\n      SWAP1 \t\t\tdirectory_names.push(title)\n      PUSH [tag] 106\t\t\tdirectory_names.push(title)\n      JUMP \t\t\tdirectory_names.push(title)\n    tag 127\t\t\tdirectory_names.push(title)\n      JUMPDEST \t\t\tdirectory_names.push(title)\n      POP \t\t\tdirectory_names.push(title)\n      DUP1 \t\t\ttitle\n      PUSH 0\t\t\tDirectories\n      DUP3 \t\t\ttitle\n      PUSH 40\t\t\tDirectories[title]\n      MLOAD \t\t\tDirectories[title]\n      PUSH [tag] 128\t\t\tDirectories[title]\n      SWAP2 \t\t\tDirectories[title]\n      SWAP1 \t\t\tDirectories[title]\n      PUSH [tag] 50\t\t\tDirectories[title]\n      JUMP \t\t\tDirectories[title]\n    tag 128\t\t\tDirectories[title]\n      JUMPDEST \t\t\tDirectories[title]\n      SWAP1 \t\t\tDirectories[title]\n      DUP2 \t\t\tDirectories[title]\n      MSTORE \t\t\tDirectories[title]\n      PUSH 20\t\t\tDirectories[title]\n      ADD \t\t\tDirectories[title]\n      PUSH 40\t\t\tDirectories[title]\n      MLOAD \t\t\tDirectories[title]\n      DUP1 \t\t\tDirectories[title]\n      SWAP2 \t\t\tDirectories[title]\n      SUB \t\t\tDirectories[title]\n      SWAP1 \t\t\tDirectories[title]\n      KECCAK256 \t\t\tDirectories[title]\n      PUSH 0\t\t\tDirectories[title].title\n      ADD \t\t\tDirectories[title].title\n      SWAP1 \t\t\tDirectories[title].title = tit...\n      DUP2 \t\t\tDirectories[title].title = tit...\n      PUSH [tag] 129\t\t\tDirectories[title].title = tit...\n      SWAP2 \t\t\tDirectories[title].title = tit...\n      SWAP1 \t\t\tDirectories[title].title = tit...\n      PUSH [tag] 106\t\t\tDirectories[title].title = tit...\n      JUMP \t\t\tDirectories[title].title = tit...\n    tag 129\t\t\tDirectories[title].title = tit...\n      JUMPDEST \t\t\tDirectories[title].title = tit...\n      POP \t\t\tDirectories[title].title = tit...\n      POP \t\t\tfunction createDirectory(strin...\n      JUMP \t\t\tfunction createDirectory(strin...\n    tag 25\t\t\tfunction getFileHash(string me...\n      JUMPDEST \t\t\tfunction getFileHash(string me...\n      PUSH 60\t\t\tstring memory\n      PUSH 40\t\t\tabi.encodePacked(\"\")\n      MLOAD \t\t\tabi.encodePacked(\"\")\n      PUSH 20\t\t\tabi.encodePacked(\"\")\n      ADD \t\t\tabi.encodePacked(\"\")\n      PUSH [tag] 131\t\t\tabi.encodePacked(\"\")\n      SWAP1 \t\t\tabi.encodePacked(\"\")\n      PUSH [tag] 42\t\t\tabi.encodePacked(\"\")\n      JUMP \t\t\tabi.encodePacked(\"\")\n    tag 131\t\t\tabi.encodePacked(\"\")\n      JUMPDEST \t\t\tabi.encodePacked(\"\")\n      PUSH 40\t\t\tabi.encodePacked(\"\")\n      MLOAD \t\t\tabi.encodePacked(\"\")\n      PUSH 20\t\t\tabi.encodePacked(\"\")\n      DUP2 \t\t\tabi.encodePacked(\"\")\n      DUP4 \t\t\tabi.encodePacked(\"\")\n      SUB \t\t\tabi.encodePacked(\"\")\n      SUB \t\t\tabi.encodePacked(\"\")\n      DUP2 \t\t\tabi.encodePacked(\"\")\n      MSTORE \t\t\tabi.encodePacked(\"\")\n      SWAP1 \t\t\tabi.encodePacked(\"\")\n      PUSH 40\t\t\tabi.encodePacked(\"\")\n      MSTORE \t\t\tabi.encodePacked(\"\")\n      DUP1 \t\t\tkeccak256(abi.encodePacked(\"\")...\n      MLOAD \t\t\tkeccak256(abi.encodePacked(\"\")...\n      SWAP1 \t\t\tkeccak256(abi.encodePacked(\"\")...\n      PUSH 20\t\t\tkeccak256(abi.encodePacked(\"\")...\n      ADD \t\t\tkeccak256(abi.encodePacked(\"\")...\n      KECCAK256 \t\t\tkeccak256(abi.encodePacked(\"\")...\n      PUSH 4\t\t\tauthContract\n      PUSH 0\t\t\tauthContract\n      SWAP1 \t\t\tauthContract\n      SLOAD \t\t\tauthContract\n      SWAP1 \t\t\tauthContract\n      PUSH 100\t\t\tauthContract\n      EXP \t\t\tauthContract\n      SWAP1 \t\t\tauthContract\n      DIV \t\t\tauthContract\n      PUSH FFFFFFFFFFFFFFFFFFFFFFFFFFFFFFFFFFFFFFFF\t\t\tauthContract\n      AND \t\t\tauthContract\n      PUSH FFFFFFFFFFFFFFFFFFFFFFFFFFFFFFFFFFFFFFFF\t\t\tauthContract.getUserRole\n      AND \t\t\tauthContract.getUserRole\n      PUSH 27820851\t\t\tauthContract.getUserRole\n      CALLER \t\t\tmsg.sender\n      PUSH 40\t\t\tauthContract.getUserRole(msg.s...\n      MLOAD \t\t\tauthContract.getUserRole(msg.s...\n      DUP3 \t\t\tauthContract.getUserRole(msg.s...\n      PUSH FFFFFFFF\t\t\tauthContract.getUserRole(msg.s...\n      AND \t\t\tauthContract.getUserRole(msg.s...\n      PUSH E0\t\t\tauthContract.getUserRole(msg.s...\n      SHL \t\t\tauthContract.getUserRole(msg.s...\n      DUP2 \t\t\tauthContract.getUserRole(msg.s...\n      MSTORE \t\t\tauthContract.getUserRole(msg.s...\n      PUSH 4\t\t\tauthContract.getUserRole(msg.s...\n      ADD \t\t\tauthContract.getUserRole(msg.s...\n      PUSH [tag] 132\t\t\tauthContract.getUserRole(msg.s...\n      SWAP2 \t\t\tauthContract.getUserRole(msg.s...\n      SWAP1 \t\t\tauthContract.getUserRole(msg.s...\n      PUSH [tag] 44\t\t\tauthContract.getUserRole(msg.s...\n      JUMP \t\t\tauthContract.getUserRole(msg.s...\n    tag 132\t\t\tauthContract.getUserRole(msg.s...\n      JUMPDEST \t\t\tauthContract.getUserRole(msg.s...\n      PUSH 0\t\t\tauthContract.getUserRole(msg.s...\n      PUSH 40\t\t\tauthContract.getUserRole(msg.s...\n      MLOAD \t\t\tauthContract.getUserRole(msg.s...\n      DUP1 \t\t\tauthContract.getUserRole(msg.s...\n      DUP4 \t\t\tauthContract.getUserRole(msg.s...\n      SUB \t\t\tauthContract.getUserRole(msg.s...\n      DUP2 \t\t\tauthContract.getUserRole(msg.s...\n      DUP7 \t\t\tauthContract.getUserRole(msg.s...\n      GAS \t\t\tauthContract.getUserRole(msg.s...\n      STATICCALL \t\t\tauthContract.getUserRole(msg.s...\n      ISZERO \t\t\tauthContract.getUserRole(msg.s...\n      DUP1 \t\t\tauthContract.getUserRole(msg.s...\n      ISZERO \t\t\tauthContract.getUserRole(msg.s...\n      PUSH [tag] 134\t\t\tauthContract.getUserRole(msg.s...\n      JUMPI \t\t\tauthContract.getUserRole(msg.s...\n      RETURNDATASIZE \t\t\tauthContract.getUserRole(msg.s...\n      PUSH 0\t\t\tauthContract.getUserRole(msg.s...\n      DUP1 \t\t\tauthContract.getUserRole(msg.s...\n      RETURNDATACOPY \t\t\tauthContract.getUserRole(msg.s...\n      RETURNDATASIZE \t\t\tauthContract.getUserRole(msg.s...\n      PUSH 0\t\t\tauthContract.getUserRole(msg.s...\n      REVERT \t\t\tauthContract.getUserRole(msg.s...\n    tag 134\t\t\tauthContract.getUserRole(msg.s...\n      JUMPDEST \t\t\tauthContract.getUserRole(msg.s...\n      POP \t\t\tauthContract.getUserRole(msg.s...\n      POP \t\t\tauthContract.getUserRole(msg.s...\n      POP \t\t\tauthContract.getUserRole(msg.s...\n      POP \t\t\tauthContract.getUserRole(msg.s...\n      PUSH 40\t\t\tauthContract.getUserRole(msg.s...\n      MLOAD \t\t\tauthContract.getUserRole(msg.s...\n      RETURNDATASIZE \t\t\tauthContract.getUserRole(msg.s...\n      PUSH 0\t\t\tauthContract.getUserRole(msg.s...\n      DUP3 \t\t\tauthContract.getUserRole(msg.s...\n      RETURNDATACOPY \t\t\tauthContract.getUserRole(msg.s...\n      RETURNDATASIZE \t\t\tauthContract.getUserRole(msg.s...\n      PUSH 1F\t\t\tauthContract.getUserRole(msg.s...\n      NOT \t\t\tauthContract.getUserRole(msg.s...\n      PUSH 1F\t\t\tauthContract.getUserRole(msg.s...\n      DUP3 \t\t\tauthContract.getUserRole(msg.s...\n      ADD \t\t\tauthContract.getUserRole(msg.s...\n      AND \t\t\tauthContract.getUserRole(msg.s...\n      DUP3 \t\t\tauthContract.getUserRole(msg.s...\n      ADD \t\t\tauthContract.getUserRole(msg.s...\n      DUP1 \t\t\tauthContract.getUserRole(msg.s...\n      PUSH 40\t\t\tauthContract.getUserRole(msg.s...\n      MSTORE \t\t\tauthContract.getUserRole(msg.s...\n      POP \t\t\tauthContract.getUserRole(msg.s...\n      DUP2 \t\t\tauthContract.getUserRole(msg.s...\n      ADD \t\t\tauthContract.getUserRole(msg.s...\n      SWAP1 \t\t\tauthContract.getUserRole(msg.s...\n      PUSH [tag] 135\t\t\tauthContract.getUserRole(msg.s...\n      SWAP2 \t\t\tauthContract.getUserRole(msg.s...\n      SWAP1 \t\t\tauthContract.getUserRole(msg.s...\n      PUSH [tag] 48\t\t\tauthContract.getUserRole(msg.s...\n      JUMP \t\t\tauthContract.getUserRole(msg.s...\n    tag 135\t\t\tauthContract.getUserRole(msg.s...\n      JUMPDEST \t\t\tauthContract.getUserRole(msg.s...\n      PUSH 40\t\t\tabi.encodePacked(authContract....\n      MLOAD \t\t\tabi.encodePacked(authContract....\n      PUSH 20\t\t\tabi.encodePacked(authContract....\n      ADD \t\t\tabi.encodePacked(authContract....\n      PUSH [tag] 136\t\t\tabi.encodePacked(authContract....\n      SWAP2 \t\t\tabi.encodePacked(authContract....\n      SWAP1 \t\t\tabi.encodePacked(authContract....\n      PUSH [tag] 50\t\t\tabi.encodePacked(authContract....\n      JUMP \t\t\tabi.encodePacked(authContract....\n    tag 136\t\t\tabi.encodePacked(authContract....\n      JUMPDEST \t\t\tabi.encodePacked(authContract....\n      PUSH 40\t\t\tabi.encodePacked(authContract....\n      MLOAD \t\t\tabi.encodePacked(authContract....\n      PUSH 20\t\t\tabi.encodePacked(authContract....\n      DUP2 \t\t\tabi.encodePacked(authContract....\n      DUP4 \t\t\tabi.encodePacked(authContract....\n      SUB \t\t\tabi.encodePacked(authContract....\n      SUB \t\t\tabi.encodePacked(authContract....\n      DUP2 \t\t\tabi.encodePacked(authContract....\n      MSTORE \t\t\tabi.encodePacked(authContract....\n      SWAP1 \t\t\tabi.encodePacked(authContract....\n      PUSH 40\t\t\tabi.encodePacked(authContract....\n      MSTORE \t\t\tabi.encodePacked(authContract....\n      DUP1 \t\t\tkeccak256(abi.encodePacked(aut...\n      MLOAD \t\t\tkeccak256(abi.encodePacked(aut...\n      SWAP1 \t\t\tkeccak256(abi.encodePacked(aut...\n      PUSH 20\t\t\tkeccak256(abi.encodePacked(aut...\n      ADD \t\t\tkeccak256(abi.encodePacked(aut...\n      KECCAK256 \t\t\tkeccak256(abi.encodePacked(aut...\n      SUB \t\t\tkeccak256(abi.encodePacked(aut...\n      PUSH [tag] 137\t\t\trequire(keccak256(abi.encodePa...\n      JUMPI \t\t\trequire(keccak256(abi.encodePa...\n      PUSH 40\t\t\trequire(keccak256(abi.encodePa...\n      MLOAD \t\t\trequire(keccak256(abi.encodePa...\n      PUSH 8C379A000000000000000000000000000000000000000000000000000000000\t\t\trequire(keccak256(abi.encodePa...\n      DUP2 \t\t\trequire(keccak256(abi.encodePa...\n      MSTORE \t\t\trequire(keccak256(abi.encodePa...\n      PUSH 4\t\t\trequire(keccak256(abi.encodePa...\n      ADD \t\t\trequire(keccak256(abi.encodePa...\n      PUSH [tag] 138\t\t\trequire(keccak256(abi.encodePa...\n      SWAP1 \t\t\trequire(keccak256(abi.encodePa...\n      PUSH [tag] 53\t\t\trequire(keccak256(abi.encodePa...\n      JUMP \t\t\trequire(keccak256(abi.encodePa...\n    tag 138\t\t\trequire(keccak256(abi.encodePa...\n      JUMPDEST \t\t\trequire(keccak256(abi.encodePa...\n      PUSH 40\t\t\trequire(keccak256(abi.encodePa...\n      MLOAD \t\t\trequire(keccak256(abi.encodePa...\n      DUP1 \t\t\trequire(keccak256(abi.encodePa...\n      SWAP2 \t\t\trequire(keccak256(abi.encodePa...\n      SUB \t\t\trequire(keccak256(abi.encodePa...\n      SWAP1 \t\t\trequire(keccak256(abi.encodePa...\n      REVERT \t\t\trequire(keccak256(abi.encodePa...\n    tag 137\t\t\trequire(keccak256(abi.encodePa...\n      JUMPDEST \t\t\trequire(keccak256(abi.encodePa...\n      PUSH 0\t\t\tuint i\n    tag 140\t\t\tfor (uint i = 0; i < Directori...\n      JUMPDEST \t\t\tfor (uint i = 0; i < Directori...\n      PUSH 0\t\t\tDirectories\n      DUP4 \t\t\tdirectory\n      PUSH 40\t\t\tDirectories[directory]\n      MLOAD \t\t\tDirectories[directory]\n      PUSH [tag] 143\t\t\tDirectories[directory]\n      SWAP2 \t\t\tDirectories[directory]\n      SWAP1 \t\t\tDirectories[directory]\n      PUSH [tag] 50\t\t\tDirectories[directory]\n      JUMP \t\t\tDirectories[directory]\n    tag 143\t\t\tDirectories[directory]\n      JUMPDEST \t\t\tDirectories[directory]\n      SWAP1 \t\t\tDirectories[directory]\n      DUP2 \t\t\tDirectories[directory]\n      MSTORE \t\t\tDirectories[directory]\n      PUSH 20\t\t\tDirectories[directory]\n      ADD \t\t\tDirectories[directory]\n      PUSH 40\t\t\tDirectories[directory]\n      MLOAD \t\t\tDirectories[directory]\n      DUP1 \t\t\tDirectories[directory]\n      SWAP2 \t\t\tDirectories[directory]\n      SUB \t\t\tDirectories[directory]\n      SWAP1 \t\t\tDirectories[directory]\n      KECCAK256 \t\t\tDirectories[directory]\n      PUSH 1\t\t\tDirectories[directory].files\n      ADD \t\t\tDirectories[directory].files\n      DUP1 \t\t\tDirectories[directory].files.l...\n      SLOAD \t\t\tDirectories[directory].files.l...\n      SWAP1 \t\t\tDirectories[directory].files.l...\n      POP \t\t\tDirectories[directory].files.l...\n      DUP2 \t\t\ti\n      LT \t\t\ti < Directories[directory].fil...\n      ISZERO \t\t\tfor (uint i = 0; i < Directori...\n      PUSH [tag] 141\t\t\tfor (uint i = 0; i < Directori...\n      JUMPI \t\t\tfor (uint i = 0; i < Directori...\n      DUP4 \t\t\ttitle\n      PUSH 40\t\t\tabi.encodePacked(title)\n      MLOAD \t\t\tabi.encodePacked(title)\n      PUSH 20\t\t\tabi.encodePacked(title)\n      ADD \t\t\tabi.encodePacked(title)\n      PUSH [tag] 144\t\t\tabi.encodePacked(title)\n      SWAP2 \t\t\tabi.encodePacked(title)\n      SWAP1 \t\t\tabi.encodePacked(title)\n      PUSH [tag] 50\t\t\tabi.encodePacked(title)\n      JUMP \t\t\tabi.encodePacked(title)\n    tag 144\t\t\tabi.encodePacked(title)\n      JUMPDEST \t\t\tabi.encodePacked(title)\n      PUSH 40\t\t\tabi.encodePacked(title)\n      MLOAD \t\t\tabi.encodePacked(title)\n      PUSH 20\t\t\tabi.encodePacked(title)\n      DUP2 \t\t\tabi.encodePacked(title)\n      DUP4 \t\t\tabi.encodePacked(title)\n      SUB \t\t\tabi.encodePacked(title)\n      SUB \t\t\tabi.encodePacked(title)\n      DUP2 \t\t\tabi.encodePacked(title)\n      MSTORE \t\t\tabi.encodePacked(title)\n      SWAP1 \t\t\tabi.encodePacked(title)\n      PUSH 40\t\t\tabi.encodePacked(title)\n      MSTORE \t\t\tabi.encodePacked(title)\n      DUP1 \t\t\tkeccak256(abi.encodePacked(tit...\n      MLOAD \t\t\tkeccak256(abi.encodePacked(tit...\n      SWAP1 \t\t\tkeccak256(abi.encodePacked(tit...\n      PUSH 20\t\t\tkeccak256(abi.encodePacked(tit...\n      ADD \t\t\tkeccak256(abi.encodePacked(tit...\n      KECCAK256 \t\t\tkeccak256(abi.encodePacked(tit...\n      PUSH 0\t\t\tDirectories\n      DUP5 \t\t\tdirectory\n      PUSH 40\t\t\tDirectories[directory]\n      MLOAD \t\t\tDirectories[directory]\n      PUSH [tag] 145\t\t\tDirectories[directory]\n      SWAP2 \t\t\tDirectories[directory]\n      SWAP1 \t\t\tDirectories[directory]\n      PUSH [tag] 50\t\t\tDirectories[directory]\n      JUMP \t\t\tDirectories[directory]\n    tag 145\t\t\tDirectories[directory]\n      JUMPDEST \t\t\tDirectories[directory]\n      SWAP1 \t\t\tDirectories[directory]\n      DUP2 \t\t\tDirectories[directory]\n      MSTORE \t\t\tDirectories[directory]\n      PUSH 20\t\t\tDirectories[directory]\n      ADD \t\t\tDirectories[directory]\n      PUSH 40\t\t\tDirectories[directory]\n      MLOAD \t\t\tDirectories[directory]\n      DUP1 \t\t\tDirectories[directory]\n      SWAP2 \t\t\tDirectories[directory]\n      SUB \t\t\tDirectories[directory]\n      SWAP1 \t\t\tDirectories[directory]\n      KECCAK256 \t\t\tDirectories[directory]\n      PUSH 1\t\t\tDirectories[directory].files\n      ADD \t\t\tDirectories[directory].files\n      DUP3 \t\t\ti\n      DUP2 \t\t\tDirectories[directory].files[i...\n      SLOAD \t\t\tDirectories[directory].files[i...\n      DUP2 \t\t\tDirectories[directory].files[i...\n      LT \t\t\tDirectories[directory].files[i...\n      PUSH [tag] 146\t\t\tDirectories[directory].files[i...\n      JUMPI \t\t\tDirectories[directory].files[i...\n      PUSH [tag] 147\t\t\tDirectories[directory].files[i...\n      PUSH [tag] 61\t\t\tDirectories[directory].files[i...\n      JUMP \t\t\tDirectories[directory].files[i...\n    tag 147\t\t\tDirectories[directory].files[i...\n      JUMPDEST \t\t\tDirectories[directory].files[i...\n    tag 146\t\t\tDirectories[directory].files[i...\n      JUMPDEST \t\t\tDirectories[directory].files[i...\n      SWAP1 \t\t\tDirectories[directory].files[i...\n      PUSH 0\t\t\tDirectories[directory].files[i...\n      MSTORE \t\t\tDirectories[directory].files[i...\n      PUSH 20\t\t\tDirectories[directory].files[i...\n      PUSH 0\t\t\tDirectories[directory].files[i...\n      KECCAK256 \t\t\tDirectories[directory].files[i...\n      SWAP1 \t\t\tDirectories[directory].files[i...\n      PUSH 2\t\t\tDirectories[directory].files[i...\n      MUL \t\t\tDirectories[directory].files[i...\n      ADD \t\t\tDirectories[directory].files[i...\n      PUSH 0\t\t\tDirectories[directory].files[i...\n      ADD \t\t\tDirectories[directory].files[i...\n      PUSH 40\t\t\tabi.encodePacked(Directories[d...\n      MLOAD \t\t\tabi.encodePacked(Directories[d...\n      PUSH 20\t\t\tabi.encodePacked(Directories[d...\n      ADD \t\t\tabi.encodePacked(Directories[d...\n      PUSH [tag] 149\t\t\tabi.encodePacked(Directories[d...\n      SWAP2 \t\t\tabi.encodePacked(Directories[d...\n      SWAP1 \t\t\tabi.encodePacked(Directories[d...\n      PUSH [tag] 64\t\t\tabi.encodePacked(Directories[d...\n      JUMP \t\t\tabi.encodePacked(Directories[d...\n    tag 149\t\t\tabi.encodePacked(Directories[d...\n      JUMPDEST \t\t\tabi.encodePacked(Directories[d...\n      PUSH 40\t\t\tabi.encodePacked(Directories[d...\n      MLOAD \t\t\tabi.encodePacked(Directories[d...\n      PUSH 20\t\t\tabi.encodePacked(Directories[d...\n      DUP2 \t\t\tabi.encodePacked(Directories[d...\n      DUP4 \t\t\tabi.encodePacked(Directories[d...\n      SUB \t\t\tabi.encodePacked(Directories[d...\n      SUB \t\t\tabi.encodePacked(Directories[d...\n      DUP2 \t\t\tabi.encodePacked(Directories[d...\n      MSTORE \t\t\tabi.encodePacked(Directories[d...\n      SWAP1 \t\t\tabi.encodePacked(Directories[d...\n      PUSH 40\t\t\tabi.encodePacked(Directories[d...\n      MSTORE \t\t\tabi.encodePacked(Directories[d...\n      DUP1 \t\t\tkeccak256(abi.encodePacked(Dir...\n      MLOAD \t\t\tkeccak256(abi.encodePacked(Dir...\n      SWAP1 \t\t\tkeccak256(abi.encodePacked(Dir...\n      PUSH 20\t\t\tkeccak256(abi.encodePacked(Dir...\n      ADD \t\t\tkeccak256(abi.encodePacked(Dir...\n      KECCAK256 \t\t\tkeccak256(abi.encodePacked(Dir...\n      SUB \t\t\tkeccak256(abi.encodePacked(Dir...\n      PUSH [tag] 150\t\t\tif (keccak256(abi.encodePacked...\n      JUMPI \t\t\tif (keccak256(abi.encodePacked...\n      PUSH [tag] 151\t\t\tcheckUserRole(authContract.get...\n      PUSH 4\t\t\tauthContract\n      PUSH 0\t\t\tauthContract\n      SWAP1 \t\t\tauthContract\n      SLOAD \t\t\tauthContract\n      SWAP1 \t\t\tauthContract\n      PUSH 100\t\t\tauthContract\n      EXP \t\t\tauthContract\n      SWAP1 \t\t\tauthContract\n      DIV \t\t\tauthContract\n      PUSH FFFFFFFFFFFFFFFFFFFFFFFFFFFFFFFFFFFFFFFF\t\t\tauthContract\n      AND \t\t\tauthContract\n      PUSH FFFFFFFFFFFFFFFFFFFFFFFFFFFFFFFFFFFFFFFF\t\t\tauthContract.getUserRole\n      AND \t\t\tauthContract.getUserRole\n      PUSH 27820851\t\t\tauthContract.getUserRole\n      CALLER \t\t\tmsg.sender\n      PUSH 40\t\t\tauthContract.getUserRole(msg.s...\n      MLOAD \t\t\tauthContract.getUserRole(msg.s...\n      DUP3 \t\t\tauthContract.getUserRole(msg.s...\n      PUSH FFFFFFFF\t\t\tauthContract.getUserRole(msg.s...\n      AND \t\t\tauthContract.getUserRole(msg.s...\n      PUSH E0\t\t\tauthContract.getUserRole(msg.s...\n      SHL \t\t\tauthContract.getUserRole(msg.s...\n      DUP2 \t\t\tauthContract.getUserRole(msg.s...\n      MSTORE \t\t\tauthContract.getUserRole(msg.s...\n      PUSH 4\t\t\tauthContract.getUserRole(msg.s...\n      ADD \t\t\tauthContract.getUserRole(msg.s...\n      PUSH [tag] 152\t\t\tauthContract.getUserRole(msg.s...\n      SWAP2 \t\t\tauthContract.getUserRole(msg.s...\n      SWAP1 \t\t\tauthContract.getUserRole(msg.s...\n      PUSH [tag] 44\t\t\tauthContract.getUserRole(msg.s...\n      JUMP \t\t\tauthContract.getUserRole(msg.s...\n    tag 152\t\t\tauthContract.getUserRole(msg.s...\n      JUMPDEST \t\t\tauthContract.getUserRole(msg.s...\n      PUSH 0\t\t\tauthContract.getUserRole(msg.s...\n      PUSH 40\t\t\tauthContract.getUserRole(msg.s...\n      MLOAD \t\t\tauthContract.getUserRole(msg.s...\n      DUP1 \t\t\tauthContract.getUserRole(msg.s...\n      DUP4 \t\t\tauthContract.getUserRole(msg.s...\n      SUB \t\t\tauthContract.getUserRole(msg.s...\n      DUP2 \t\t\tauthContract.getUserRole(msg.s...\n      DUP7 \t\t\tauthContract.getUserRole(msg.s...\n      GAS \t\t\tauthContract.getUserRole(msg.s...\n      STATICCALL \t\t\tauthContract.getUserRole(msg.s...\n      ISZERO \t\t\tauthContract.getUserRole(msg.s...\n      DUP1 \t\t\tauthContract.getUserRole(msg.s...\n      ISZERO \t\t\tauthContract.getUserRole(msg.s...\n      PUSH [tag] 154\t\t\tauthContract.getUserRole(msg.s...\n      JUMPI \t\t\tauthContract.getUserRole(msg.s...\n      RETURNDATASIZE \t\t\tauthContract.getUserRole(msg.s...\n      PUSH 0\t\t\tauthContract.getUserRole(msg.s...\n      DUP1 \t\t\tauthContract.getUserRole(msg.s...\n      RETURNDATACOPY \t\t\tauthContract.getUserRole(msg.s...\n      RETURNDATASIZE \t\t\tauthContract.getUserRole(msg.s...\n      PUSH 0\t\t\tauthContract.getUserRole(msg.s...\n      REVERT \t\t\tauthContract.getUserRole(msg.s...\n    tag 154\t\t\tauthContract.getUserRole(msg.s...\n      JUMPDEST \t\t\tauthContract.getUserRole(msg.s...\n      POP \t\t\tauthContract.getUserRole(msg.s...\n      POP \t\t\tauthContract.getUserRole(msg.s...\n      POP \t\t\tauthContract.getUserRole(msg.s...\n      POP \t\t\tauthContract.getUserRole(msg.s...\n      PUSH 40\t\t\tauthContract.getUserRole(msg.s...\n      MLOAD \t\t\tauthContract.getUserRole(msg.s...\n      RETURNDATASIZE \t\t\tauthContract.getUserRole(msg.s...\n      PUSH 0\t\t\tauthContract.getUserRole(msg.s...\n      DUP3 \t\t\tauthContract.getUserRole(msg.s...\n      RETURNDATACOPY \t\t\tauthContract.getUserRole(msg.s...\n      RETURNDATASIZE \t\t\tauthContract.getUserRole(msg.s...\n      PUSH 1F\t\t\tauthContract.getUserRole(msg.s...\n      NOT \t\t\tauthContract.getUserRole(msg.s...\n      PUSH 1F\t\t\tauthContract.getUserRole(msg.s...\n      DUP3 \t\t\tauthContract.getUserRole(msg.s...\n      ADD \t\t\tauthContract.getUserRole(msg.s...\n      AND \t\t\tauthContract.getUserRole(msg.s...\n      DUP3 \t\t\tauthContract.getUserRole(msg.s...\n      ADD \t\t\tauthContract.getUserRole(msg.s...\n      DUP1 \t\t\tauthContract.getUserRole(msg.s...\n      PUSH 40\t\t\tauthContract.getUserRole(msg.s...\n      MSTORE \t\t\tauthContract.getUserRole(msg.s...\n      POP \t\t\tauthContract.getUserRole(msg.s...\n      DUP2 \t\t\tauthContract.getUserRole(msg.s...\n      ADD \t\t\tauthContract.getUserRole(msg.s...\n      SWAP1 \t\t\tauthContract.getUserRole(msg.s...\n      PUSH [tag] 155\t\t\tauthContract.getUserRole(msg.s...\n      SWAP2 \t\t\tauthContract.getUserRole(msg.s...\n      SWAP1 \t\t\tauthContract.getUserRole(msg.s...\n      PUSH [tag] 48\t\t\tauthContract.getUserRole(msg.s...\n      JUMP \t\t\tauthContract.getUserRole(msg.s...\n    tag 155\t\t\tauthContract.getUserRole(msg.s...\n      JUMPDEST \t\t\tauthContract.getUserRole(msg.s...\n      PUSH 0\t\t\tDirectories\n      DUP6 \t\t\tdirectory\n      PUSH 40\t\t\tDirectories[directory]\n      MLOAD \t\t\tDirectories[directory]\n      PUSH [tag] 156\t\t\tDirectories[directory]\n      SWAP2 \t\t\tDirectories[directory]\n      SWAP1 \t\t\tDirectories[directory]\n      PUSH [tag] 50\t\t\tDirectories[directory]\n      JUMP \t\t\tDirectories[directory]\n    tag 156\t\t\tDirectories[directory]\n      JUMPDEST \t\t\tDirectories[directory]\n      SWAP1 \t\t\tDirectories[directory]\n      DUP2 \t\t\tDirectories[directory]\n      MSTORE \t\t\tDirectories[directory]\n      PUSH 20\t\t\tDirectories[directory]\n      ADD \t\t\tDirectories[directory]\n      PUSH 40\t\t\tDirectories[directory]\n      MLOAD \t\t\tDirectories[directory]\n      DUP1 \t\t\tDirectories[directory]\n      SWAP2 \t\t\tDirectories[directory]\n      SUB \t\t\tDirectories[directory]\n      SWAP1 \t\t\tDirectories[directory]\n      KECCAK256 \t\t\tDirectories[directory]\n      PUSH 1\t\t\tDirectories[directory].files\n      ADD \t\t\tDirectories[directory].files\n      DUP4 \t\t\ti\n      DUP2 \t\t\tDirectories[directory].files[i...\n      SLOAD \t\t\tDirectories[directory].files[i...\n      DUP2 \t\t\tDirectories[directory].files[i...\n      LT \t\t\tDirectories[directory].files[i...\n      PUSH [tag] 157\t\t\tDirectories[directory].files[i...\n      JUMPI \t\t\tDirectories[directory].files[i...\n      PUSH [tag] 158\t\t\tDirectories[directory].files[i...\n      PUSH [tag] 61\t\t\tDirectories[directory].files[i...\n      JUMP \t\t\tDirectories[directory].files[i...\n    tag 158\t\t\tDirectories[directory].files[i...\n      JUMPDEST \t\t\tDirectories[directory].files[i...\n    tag 157\t\t\tDirectories[directory].files[i...\n      JUMPDEST \t\t\tDirectories[directory].files[i...\n      SWAP1 \t\t\tDirectories[directory].files[i...\n      PUSH 0\t\t\tDirectories[directory].files[i...\n      MSTORE \t\t\tDirectories[directory].files[i...\n      PUSH 20\t\t\tDirectories[directory].files[i...\n      PUSH 0\t\t\tDirectories[directory].files[i...\n      KECCAK256 \t\t\tDirectories[directory].files[i...\n      SWAP1 \t\t\tDirectories[directory].files[i...\n      PUSH 2\t\t\tDirectories[directory].files[i...\n      MUL \t\t\tDirectories[directory].files[i...\n      ADD \t\t\tDirectories[directory].files[i...\n      PUSH 1\t\t\tDirectories[directory].files[i...\n      ADD \t\t\tDirectories[directory].files[i...\n      DUP1 \t\t\tcheckUserRole(authContract.get...\n      SLOAD \t\t\tcheckUserRole(authContract.get...\n      DUP1 \t\t\tcheckUserRole(authContract.get...\n      PUSH 20\t\t\tcheckUserRole(authContract.get...\n      MUL \t\t\tcheckUserRole(authContract.get...\n      PUSH 20\t\t\tcheckUserRole(authContract.get...\n      ADD \t\t\tcheckUserRole(authContract.get...\n      PUSH 40\t\t\tcheckUserRole(authContract.get...\n      MLOAD \t\t\tcheckUserRole(authContract.get...\n      SWAP1 \t\t\tcheckUserRole(authContract.get...\n      DUP2 \t\t\tcheckUserRole(authContract.get...\n      ADD \t\t\tcheckUserRole(authContract.get...\n      PUSH 40\t\t\tcheckUserRole(authContract.get...\n      MSTORE \t\t\tcheckUserRole(authContract.get...\n      DUP1 \t\t\tcheckUserRole(authContract.get...\n      SWAP3 \t\t\tcheckUserRole(authContract.get...\n      SWAP2 \t\t\tcheckUserRole(authContract.get...\n      SWAP1 \t\t\tcheckUserRole(authContract.get...\n      DUP2 \t\t\tcheckUserRole(authContract.get...\n      DUP2 \t\t\tcheckUserRole(authContract.get...\n      MSTORE \t\t\tcheckUserRole(authContract.get...\n      PUSH 20\t\t\tcheckUserRole(authContract.get...\n      ADD \t\t\tcheckUserRole(authContract.get...\n      PUSH 0\t\t\tcheckUserRole(authContract.get...\n      SWAP1 \t\t\tcheckUserRole(authContract.get...\n    tag 160\t\t\tcheckUserRole(authContract.get...\n      JUMPDEST \t\t\tcheckUserRole(authContract.get...\n      DUP3 \t\t\tcheckUserRole(authContract.get...\n      DUP3 \t\t\tcheckUserRole(authContract.get...\n      LT \t\t\tcheckUserRole(authContract.get...\n      ISZERO \t\t\tcheckUserRole(authContract.get...\n      PUSH [tag] 161\t\t\tcheckUserRole(authContract.get...\n      JUMPI \t\t\tcheckUserRole(authContract.get...\n      DUP4 \t\t\tcheckUserRole(authContract.get...\n      DUP3 \t\t\tcheckUserRole(authContract.get...\n      SWAP1 \t\t\tcheckUserRole(authContract.get...\n      PUSH 0\t\t\tcheckUserRole(authContract.get...\n      MSTORE \t\t\tcheckUserRole(authContract.get...\n      PUSH 20\t\t\tcheckUserRole(authContract.get...\n      PUSH 0\t\t\tcheckUserRole(authContract.get...\n      KECCAK256 \t\t\tcheckUserRole(authContract.get...\n      ADD \t\t\tcheckUserRole(authContract.get...\n      DUP1 \t\t\tcheckUserRole(authContract.get...\n      SLOAD \t\t\tcheckUserRole(authContract.get...\n      PUSH [tag] 163\t\t\tcheckUserRole(authContract.get...\n      SWAP1 \t\t\tcheckUserRole(authContract.get...\n      PUSH [tag] 164\t\t\tcheckUserRole(authContract.get...\n      JUMP \t\t\tcheckUserRole(authContract.get...\n    tag 163\t\t\tcheckUserRole(authContract.get...\n      JUMPDEST \t\t\tcheckUserRole(authContract.get...\n      DUP1 \t\t\tcheckUserRole(authContract.get...\n      PUSH 1F\t\t\tcheckUserRole(authContract.get...\n      ADD \t\t\tcheckUserRole(authContract.get...\n      PUSH 20\t\t\tcheckUserRole(authContract.get...\n      DUP1 \t\t\tcheckUserRole(authContract.get...\n      SWAP2 \t\t\tcheckUserRole(authContract.get...\n      DIV \t\t\tcheckUserRole(authContract.get...\n      MUL \t\t\tcheckUserRole(authContract.get...\n      PUSH 20\t\t\tcheckUserRole(authContract.get...\n      ADD \t\t\tcheckUserRole(authContract.get...\n      PUSH 40\t\t\tcheckUserRole(authContract.get...\n      MLOAD \t\t\tcheckUserRole(authContract.get...\n      SWAP1 \t\t\tcheckUserRole(authContract.get...\n      DUP2 \t\t\tcheckUserRole(authContract.get...\n      ADD \t\t\tcheckUserRole(authContract.get...\n      PUSH 40\t\t\tcheckUserRole(authContract.get...\n      MSTORE \t\t\tcheckUserRole(authContract.get...\n      DUP1 \t\t\tcheckUserRole(authContract.get...\n      SWAP3 \t\t\tcheckUserRole(authContract.get...\n      SWAP2 \t\t\tcheckUserRole(authContract.get...\n      SWAP1 \t\t\tcheckUserRole(authContract.get...\n      DUP2 \t\t\tcheckUserRole(authContract.get...\n      DUP2 \t\t\tcheckUserRole(authContract.get...\n      MSTORE \t\t\tcheckUserRole(authContract.get...\n      PUSH 20\t\t\tcheckUserRole(authContract.get...\n      ADD \t\t\tcheckUserRole(authContract.get...\n      DUP3 \t\t\tcheckUserRole(authContract.get...\n      DUP1 \t\t\tcheckUserRole(authContract.get...\n      SLOAD \t\t\tcheckUserRole(authContract.get...\n      PUSH [tag] 165\t\t\tcheckUserRole(authContract.get...\n      SWAP1 \t\t\tcheckUserRole(authContract.get...\n      PUSH [tag] 164\t\t\tcheckUserRole(authContract.get...\n      JUMP \t\t\tcheckUserRole(authContract.get...\n    tag 165\t\t\tcheckUserRole(authContract.get...\n      JUMPDEST \t\t\tcheckUserRole(authContract.get...\n      DUP1 \t\t\tcheckUserRole(authContract.get...\n      ISZERO \t\t\tcheckUserRole(authContract.get...\n      PUSH [tag] 166\t\t\tcheckUserRole(authContract.get...\n      JUMPI \t\t\tcheckUserRole(authContract.get...\n      DUP1 \t\t\tcheckUserRole(authContract.get...\n      PUSH 1F\t\t\tcheckUserRole(authContract.get...\n      LT \t\t\tcheckUserRole(authContract.get...\n      PUSH [tag] 167\t\t\tcheckUserRole(authContract.get...\n      JUMPI \t\t\tcheckUserRole(authContract.get...\n      PUSH 100\t\t\tcheckUserRole(authContract.get...\n      DUP1 \t\t\tcheckUserRole(authContract.get...\n      DUP4 \t\t\tcheckUserRole(authContract.get...\n      SLOAD \t\t\tcheckUserRole(authContract.get...\n      DIV \t\t\tcheckUserRole(authContract.get...\n      MUL \t\t\tcheckUserRole(authContract.get...\n      DUP4 \t\t\tcheckUserRole(authContract.get...\n      MSTORE \t\t\tcheckUserRole(authContract.get...\n      SWAP2 \t\t\tcheckUserRole(authContract.get...\n      PUSH 20\t\t\tcheckUserRole(authContract.get...\n      ADD \t\t\tcheckUserRole(authContract.get...\n      SWAP2 \t\t\tcheckUserRole(authContract.get...\n      PUSH [tag] 166\t\t\tcheckUserRole(authContract.get...\n      JUMP \t\t\tcheckUserRole(authContract.get...\n    tag 167\t\t\tcheckUserRole(authContract.get...\n      JUMPDEST \t\t\tcheckUserRole(authContract.get...\n      DUP3 \t\t\tcheckUserRole(authContract.get...\n      ADD \t\t\tcheckUserRole(authContract.get...\n      SWAP2 \t\t\tcheckUserRole(authContract.get...\n      SWAP1 \t\t\tcheckUserRole(authContract.get...\n      PUSH 0\t\t\tcheckUserRole(authContract.get...\n      MSTORE \t\t\tcheckUserRole(authContract.get...\n      PUSH 20\t\t\tcheckUserRole(authContract.get...\n      PUSH 0\t\t\tcheckUserRole(authContract.get...\n      KECCAK256 \t\t\tcheckUserRole(authContract.get...\n      SWAP1 \t\t\tcheckUserRole(authContract.get...\n    tag 168\t\t\tcheckUserRole(authContract.get...\n      JUMPDEST \t\t\tcheckUserRole(authContract.get...\n      DUP2 \t\t\tcheckUserRole(authContract.get...\n      SLOAD \t\t\tcheckUserRole(authContract.get...\n      DUP2 \t\t\tcheckUserRole(authContract.get...\n      MSTORE \t\t\tcheckUserRole(authContract.get...\n      SWAP1 \t\t\tcheckUserRole(authContract.get...\n      PUSH 1\t\t\tcheckUserRole(authContract.get...\n      ADD \t\t\tcheckUserRole(authContract.get...\n      SWAP1 \t\t\tcheckUserRole(authContract.get...\n      PUSH 20\t\t\tcheckUserRole(authContract.get...\n      ADD \t\t\tcheckUserRole(authContract.get...\n      DUP1 \t\t\tcheckUserRole(authContract.get...\n      DUP4 \t\t\tcheckUserRole(authContract.get...\n      GT \t\t\tcheckUserRole(authContract.get...\n      PUSH [tag] 168\t\t\tcheckUserRole(authContract.get...\n      JUMPI \t\t\tcheckUserRole(authContract.get...\n      DUP3 \t\t\tcheckUserRole(authContract.get...\n      SWAP1 \t\t\tcheckUserRole(authContract.get...\n      SUB \t\t\tcheckUserRole(authContract.get...\n      PUSH 1F\t\t\tcheckUserRole(authContract.get...\n      AND \t\t\tcheckUserRole(authContract.get...\n      DUP3 \t\t\tcheckUserRole(authContract.get...\n      ADD \t\t\tcheckUserRole(authContract.get...\n      SWAP2 \t\t\tcheckUserRole(authContract.get...\n    tag 166\t\t\tcheckUserRole(authContract.get...\n      JUMPDEST \t\t\tcheckUserRole(authContract.get...\n      POP \t\t\tcheckUserRole(authContract.get...\n      POP \t\t\tcheckUserRole(authContract.get...\n      POP \t\t\tcheckUserRole(authContract.get...\n      POP \t\t\tcheckUserRole(authContract.get...\n      POP \t\t\tcheckUserRole(authContract.get...\n      DUP2 \t\t\tcheckUserRole(authContract.get...\n      MSTORE \t\t\tcheckUserRole(authContract.get...\n      PUSH 20\t\t\tcheckUserRole(authContract.get...\n      ADD \t\t\tcheckUserRole(authContract.get...\n      SWAP1 \t\t\tcheckUserRole(authContract.get...\n      PUSH 1\t\t\tcheckUserRole(authContract.get...\n      ADD \t\t\tcheckUserRole(authContract.get...\n      SWAP1 \t\t\tcheckUserRole(authContract.get...\n      PUSH [tag] 160\t\t\tcheckUserRole(authContract.get...\n      JUMP \t\t\tcheckUserRole(authContract.get...\n    tag 161\t\t\tcheckUserRole(authContract.get...\n      JUMPDEST \t\t\tcheckUserRole(authContract.get...\n      POP \t\t\tcheckUserRole(authContract.get...\n      POP \t\t\tcheckUserRole(authContract.get...\n      POP \t\t\tcheckUserRole(authContract.get...\n      POP \t\t\tcheckUserRole(authContract.get...\n      PUSH [tag] 169\t\t\tcheckUserRole\n      JUMP \t\t\tcheckUserRole(authContract.get...\n    tag 151\t\t\tcheckUserRole(authContract.get...\n      JUMPDEST \t\t\tcheckUserRole(authContract.get...\n      PUSH [tag] 170\t\t\trequire(checkUserRole(authCont...\n      JUMPI \t\t\trequire(checkUserRole(authCont...\n      PUSH 40\t\t\trequire(checkUserRole(authCont...\n      MLOAD \t\t\trequire(checkUserRole(authCont...\n      PUSH 8C379A000000000000000000000000000000000000000000000000000000000\t\t\trequire(checkUserRole(authCont...\n      DUP2 \t\t\trequire(checkUserRole(authCont...\n      MSTORE \t\t\trequire(checkUserRole(authCont...\n      PUSH 4\t\t\trequire(checkUserRole(authCont...\n      ADD \t\t\trequire(checkUserRole(authCont...\n      PUSH [tag] 171\t\t\trequire(checkUserRole(authCont...\n      SWAP1 \t\t\trequire(checkUserRole(authCont...\n      PUSH [tag] 172\t\t\trequire(checkUserRole(authCont...\n      JUMP \t\t\trequire(checkUserRole(authCont...\n    tag 171\t\t\trequire(checkUserRole(authCont...\n      JUMPDEST \t\t\trequire(checkUserRole(authCont...\n      PUSH 40\t\t\trequire(checkUserRole(authCont...\n      MLOAD \t\t\trequire(checkUserRole(authCont...\n      DUP1 \t\t\trequire(checkUserRole(authCont...\n      SWAP2 \t\t\trequire(checkUserRole(authCont...\n      SUB \t\t\trequire(checkUserRole(authCont...\n      SWAP1 \t\t\trequire(checkUserRole(authCont...\n      REVERT \t\t\trequire(checkUserRole(authCont...\n    tag 170\t\t\trequire(checkUserRole(authCont...\n      JUMPDEST \t\t\trequire(checkUserRole(authCont...\n      PUSH 1\t\t\tFileHash\n      PUSH 0\t\t\tDirectories\n      DUP5 \t\t\tdirectory\n      PUSH 40\t\t\tDirectories[directory]\n      MLOAD \t\t\tDirectories[directory]\n      PUSH [tag] 173\t\t\tDirectories[directory]\n      SWAP2 \t\t\tDirectories[directory]\n      SWAP1 \t\t\tDirectories[directory]\n      PUSH [tag] 50\t\t\tDirectories[directory]\n      JUMP \t\t\tDirectories[directory]\n    tag 173\t\t\tDirectories[directory]\n      JUMPDEST \t\t\tDirectories[directory]\n      SWAP1 \t\t\tDirectories[directory]\n      DUP2 \t\t\tDirectories[directory]\n      MSTORE \t\t\tDirectories[directory]\n      PUSH 20\t\t\tDirectories[directory]\n      ADD \t\t\tDirectories[directory]\n      PUSH 40\t\t\tDirectories[directory]\n      MLOAD \t\t\tDirectories[directory]\n      DUP1 \t\t\tDirectories[directory]\n      SWAP2 \t\t\tDirectories[directory]\n      SUB \t\t\tDirectories[directory]\n      SWAP1 \t\t\tDirectories[directory]\n      KECCAK256 \t\t\tDirectories[directory]\n      PUSH 1\t\t\tDirectories[directory].files\n      ADD \t\t\tDirectories[directory].files\n      DUP3 \t\t\ti\n      DUP2 \t\t\tDirectories[directory].files[i...\n      SLOAD \t\t\tDirectories[directory].files[i...\n      DUP2 \t\t\tDirectories[directory].files[i...\n      LT \t\t\tDirectories[directory].files[i...\n      PUSH [tag] 174\t\t\tDirectories[directory].files[i...\n      JUMPI \t\t\tDirectories[directory].files[i...\n      PUSH [tag] 175\t\t\tDirectories[directory].files[i...\n      PUSH [tag] 61\t\t\tDirectories[directory].files[i...\n      JUMP \t\t\tDirectories[directory].files[i...\n    tag 175\t\t\tDirectories[directory].files[i...\n      JUMPDEST \t\t\tDirectories[directory].files[i...\n    tag 174\t\t\tDirectories[directory].files[i...\n      JUMPDEST \t\t\tDirectories[directory].files[i...\n      SWAP1 \t\t\tDirectories[directory].files[i...\n      PUSH 0\t\t\tDirectories[directory].files[i...\n      MSTORE \t\t\tDirectories[directory].files[i...\n      PUSH 20\t\t\tDirectories[directory].files[i...\n      PUSH 0\t\t\tDirectories[directory].files[i...\n      KECCAK256 \t\t\tDirectories[directory].files[i...\n      SWAP1 \t\t\tDirectories[directory].files[i...\n      PUSH 2\t\t\tDirectories[directory].files[i...\n      MUL \t\t\tDirectories[directory].files[i...\n      ADD \t\t\tDirectories[directory].files[i...\n      PUSH 0\t\t\tDirectories[directory].files[i...\n      ADD \t\t\tDirectories[directory].files[i...\n      PUSH 40\t\t\tFileHash[Directories[directory...\n      MLOAD \t\t\tFileHash[Directories[directory...\n      PUSH [tag] 177\t\t\tFileHash[Directories[directory...\n      SWAP2 \t\t\tFileHash[Directories[directory...\n      SWAP1 \t\t\tFileHash[Directories[directory...\n      PUSH [tag] 64\t\t\tFileHash[Directories[directory...\n      JUMP \t\t\tFileHash[Directories[directory...\n    tag 177\t\t\tFileHash[Directories[directory...\n      JUMPDEST \t\t\tFileHash[Directories[directory...\n      SWAP1 \t\t\tFileHash[Directories[directory...\n      DUP2 \t\t\tFileHash[Directories[directory...\n      MSTORE \t\t\tFileHash[Directories[directory...\n      PUSH 20\t\t\tFileHash[Directories[directory...\n      ADD \t\t\tFileHash[Directories[directory...\n      PUSH 40\t\t\tFileHash[Directories[directory...\n      MLOAD \t\t\tFileHash[Directories[directory...\n      DUP1 \t\t\tFileHash[Directories[directory...\n      SWAP2 \t\t\tFileHash[Directories[directory...\n      SUB \t\t\tFileHash[Directories[directory...\n      SWAP1 \t\t\tFileHash[Directories[directory...\n      KECCAK256 \t\t\tFileHash[Directories[directory...\n      DUP1 \t\t\treturn FileHash[Directories[di...\n      SLOAD \t\t\treturn FileHash[Directories[di...\n      PUSH [tag] 178\t\t\treturn FileHash[Directories[di...\n      SWAP1 \t\t\treturn FileHash[Directories[di...\n      PUSH [tag] 164\t\t\treturn FileHash[Directories[di...\n      JUMP \t\t\treturn FileHash[Directories[di...\n    tag 178\t\t\treturn FileHash[Directories[di...\n      JUMPDEST \t\t\treturn FileHash[Directories[di...\n      DUP1 \t\t\treturn FileHash[Directories[di...\n      PUSH 1F\t\t\treturn FileHash[Directories[di...\n      ADD \t\t\treturn FileHash[Directories[di...\n      PUSH 20\t\t\treturn FileHash[Directories[di...\n      DUP1 \t\t\treturn FileHash[Directories[di...\n      SWAP2 \t\t\treturn FileHash[Directories[di...\n      DIV \t\t\treturn FileHash[Directories[di...\n      MUL \t\t\treturn FileHash[Directories[di...\n      PUSH 20\t\t\treturn FileHash[Directories[di...\n      ADD \t\t\treturn FileHash[Directories[di...\n      PUSH 40\t\t\treturn FileHash[Directories[di...\n      MLOAD \t\t\treturn FileHash[Directories[di...\n      SWAP1 \t\t\treturn FileHash[Directories[di...\n      DUP2 \t\t\treturn FileHash[Directories[di...\n      ADD \t\t\treturn FileHash[Directories[di...\n      PUSH 40\t\t\treturn FileHash[Directories[di...\n      MSTORE \t\t\treturn FileHash[Directories[di...\n      DUP1 \t\t\treturn FileHash[Directories[di...\n      SWAP3 \t\t\treturn FileHash[Directories[di...\n      SWAP2 \t\t\treturn FileHash[Directories[di...\n      SWAP1 \t\t\treturn FileHash[Directories[di...\n      DUP2 \t\t\treturn FileHash[Directories[di...\n      DUP2 \t\t\treturn FileHash[Directories[di...\n      MSTORE \t\t\treturn FileHash[Directories[di...\n      PUSH 20\t\t\treturn FileHash[Directories[di...\n      ADD \t\t\treturn FileHash[Directories[di...\n      DUP3 \t\t\treturn FileHash[Directories[di...\n      DUP1 \t\t\treturn FileHash[Directories[di...\n      SLOAD \t\t\treturn FileHash[Directories[di...\n      PUSH [tag] 179\t\t\treturn FileHash[Directories[di...\n      SWAP1 \t\t\treturn FileHash[Directories[di...\n      PUSH [tag] 164\t\t\treturn FileHash[Directories[di...\n      JUMP \t\t\treturn FileHash[Directories[di...\n    tag 179\t\t\treturn FileHash[Directories[di...\n      JUMPDEST \t\t\treturn FileHash[Directories[di...\n      DUP1 \t\t\treturn FileHash[Directories[di...\n      ISZERO \t\t\treturn FileHash[Directories[di...\n      PUSH [tag] 180\t\t\treturn FileHash[Directories[di...\n      JUMPI \t\t\treturn FileHash[Directories[di...\n      DUP1 \t\t\treturn FileHash[Directories[di...\n      PUSH 1F\t\t\treturn FileHash[Directories[di...\n      LT \t\t\treturn FileHash[Directories[di...\n      PUSH [tag] 181\t\t\treturn FileHash[Directories[di...\n      JUMPI \t\t\treturn FileHash[Directories[di...\n      PUSH 100\t\t\treturn FileHash[Directories[di...\n      DUP1 \t\t\treturn FileHash[Directories[di...\n      DUP4 \t\t\treturn FileHash[Directories[di...\n      SLOAD \t\t\treturn FileHash[Directories[di...\n      DIV \t\t\treturn FileHash[Directories[di...\n      MUL \t\t\treturn FileHash[Directories[di...\n      DUP4 \t\t\treturn FileHash[Directories[di...\n      MSTORE \t\t\treturn FileHash[Directories[di...\n      SWAP2 \t\t\treturn FileHash[Directories[di...\n      PUSH 20\t\t\treturn FileHash[Directories[di...\n      ADD \t\t\treturn FileHash[Directories[di...\n      SWAP2 \t\t\treturn FileHash[Directories[di...\n      PUSH [tag] 180\t\t\treturn FileHash[Directories[di...\n      JUMP \t\t\treturn FileHash[Directories[di...\n    tag 181\t\t\treturn FileHash[Directories[di...\n      JUMPDEST \t\t\treturn FileHash[Directories[di...\n      DUP3 \t\t\treturn FileHash[Directories[di...\n      ADD \t\t\treturn FileHash[Directories[di...\n      SWAP2 \t\t\treturn FileHash[Directories[di...\n      SWAP1 \t\t\treturn FileHash[Directories[di...\n      PUSH 0\t\t\treturn FileHash[Directories[di...\n      MSTORE \t\t\treturn FileHash[Directories[di...\n      PUSH 20\t\t\treturn FileHash[Directories[di...\n      PUSH 0\t\t\treturn FileHash[Directories[di...\n      KECCAK256 \t\t\treturn FileHash[Directories[di...\n      SWAP1 \t\t\treturn FileHash[Directories[di...\n    tag 182\t\t\treturn FileHash[Directories[di...\n      JUMPDEST \t\t\treturn FileHash[Directories[di...\n      DUP2 \t\t\treturn FileHash[Directories[di...\n      SLOAD \t\t\treturn FileHash[Directories[di...\n      DUP2 \t\t\treturn FileHash[Directories[di...\n      MSTORE \t\t\treturn FileHash[Directories[di...\n      SWAP1 \t\t\treturn FileHash[Directories[di...\n      PUSH 1\t\t\treturn FileHash[Directories[di...\n      ADD \t\t\treturn FileHash[Directories[di...\n      SWAP1 \t\t\treturn FileHash[Directories[di...\n      PUSH 20\t\t\treturn FileHash[Directories[di...\n      ADD \t\t\treturn FileHash[Directories[di...\n      DUP1 \t\t\treturn FileHash[Directories[di...\n      DUP4 \t\t\treturn FileHash[Directories[di...\n      GT \t\t\treturn FileHash[Directories[di...\n      PUSH [tag] 182\t\t\treturn FileHash[Directories[di...\n      JUMPI \t\t\treturn FileHash[Directories[di...\n      DUP3 \t\t\treturn FileHash[Directories[di...\n      SWAP1 \t\t\treturn FileHash[Directories[di...\n      SUB \t\t\treturn FileHash[Directories[di...\n      PUSH 1F\t\t\treturn FileHash[Directories[di...\n      AND \t\t\treturn FileHash[Directories[di...\n      DUP3 \t\t\treturn FileHash[Directories[di...\n      ADD \t\t\treturn FileHash[Directories[di...\n      SWAP2 \t\t\treturn FileHash[Directories[di...\n    tag 180\t\t\treturn FileHash[Directories[di...\n      JUMPDEST \t\t\treturn FileHash[Directories[di...\n      POP \t\t\treturn FileHash[Directories[di...\n      POP \t\t\treturn FileHash[Directories[di...\n      POP \t\t\treturn FileHash[Directories[di...\n      POP \t\t\treturn FileHash[Directories[di...\n      POP \t\t\treturn FileHash[Directories[di...\n      SWAP2 \t\t\treturn FileHash[Directories[di...\n      POP \t\t\treturn FileHash[Directories[di...\n      POP \t\t\treturn FileHash[Directories[di...\n      PUSH [tag] 139\t\t\treturn FileHash[Directories[di...\n      JUMP \t\t\treturn FileHash[Directories[di...\n    tag 150\t\t\tif (keccak256(abi.encodePacked...\n      JUMPDEST \t\t\tif (keccak256(abi.encodePacked...\n      DUP1 \t\t\ti++\n      DUP1 \t\t\ti++\n      PUSH [tag] 183\t\t\ti++\n      SWAP1 \t\t\ti++\n      PUSH [tag] 83\t\t\ti++\n      JUMP \t\t\ti++\n    tag 183\t\t\ti++\n      JUMPDEST \t\t\ti++\n      SWAP2 \t\t\ti++\n      POP \t\t\ti++\n      POP \t\t\ti++\n      PUSH [tag] 140\t\t\tfor (uint i = 0; i < Directori...\n      JUMP \t\t\tfor (uint i = 0; i < Directori...\n    tag 141\t\t\tfor (uint i = 0; i < Directori...\n      JUMPDEST \t\t\tfor (uint i = 0; i < Directori...\n      POP \t\t\tfor (uint i = 0; i < Directori...\n      PUSH 40\t\t\treturn \"\"\n      MLOAD \t\t\treturn \"\"\n      DUP1 \t\t\treturn \"\"\n      PUSH 20\t\t\treturn \"\"\n      ADD \t\t\treturn \"\"\n      PUSH 40\t\t\treturn \"\"\n      MSTORE \t\t\treturn \"\"\n      DUP1 \t\t\treturn \"\"\n      PUSH 0\t\t\treturn \"\"\n      DUP2 \t\t\treturn \"\"\n      MSTORE \t\t\treturn \"\"\n      POP \t\t\treturn \"\"\n      SWAP1 \t\t\treturn \"\"\n      POP \t\t\treturn \"\"\n    tag 139\t\t\t_\n      JUMPDEST \t\t\t_\n      SWAP3 \t\t\tfunction getFileHash(string me...\n      SWAP2 \t\t\tfunction getFileHash(string me...\n      POP \t\t\tfunction getFileHash(string me...\n      POP \t\t\tfunction getFileHash(string me...\n      JUMP \t\t\tfunction getFileHash(string me...\n    tag 30\t\t\tfunction getDirectory(string m...\n      JUMPDEST \t\t\tfunction getDirectory(string m...\n      PUSH [tag] 184\t\t\tDirectory memory\n      PUSH [tag] 185\t\t\tDirectory memory\n      JUMP \t\t\tDirectory memory\n    tag 184\t\t\tDirectory memory\n      JUMPDEST \t\t\tDirectory memory\n      PUSH 40\t\t\tabi.encodePacked(\"\")\n      MLOAD \t\t\tabi.encodePacked(\"\")\n      PUSH 20\t\t\tabi.encodePacked(\"\")\n      ADD \t\t\tabi.encodePacked(\"\")\n      PUSH [tag] 187\t\t\tabi.encodePacked(\"\")\n      SWAP1 \t\t\tabi.encodePacked(\"\")\n      PUSH [tag] 42\t\t\tabi.encodePacked(\"\")\n      JUMP \t\t\tabi.encodePacked(\"\")\n    tag 187\t\t\tabi.encodePacked(\"\")\n      JUMPDEST \t\t\tabi.encodePacked(\"\")\n      PUSH 40\t\t\tabi.encodePacked(\"\")\n      MLOAD \t\t\tabi.encodePacked(\"\")\n      PUSH 20\t\t\tabi.encodePacked(\"\")\n      DUP2 \t\t\tabi.encodePacked(\"\")\n      DUP4 \t\t\tabi.encodePacked(\"\")\n      SUB \t\t\tabi.encodePacked(\"\")\n      SUB \t\t\tabi.encodePacked(\"\")\n      DUP2 \t\t\tabi.encodePacked(\"\")\n      MSTORE \t\t\tabi.encodePacked(\"\")\n      SWAP1 \t\t\tabi.encodePacked(\"\")\n      PUSH 40\t\t\tabi.encodePacked(\"\")\n      MSTORE \t\t\tabi.encodePacked(\"\")\n      DUP1 \t\t\tkeccak256(abi.encodePacked(\"\")...\n      MLOAD \t\t\tkeccak256(abi.encodePacked(\"\")...\n      SWAP1 \t\t\tkeccak256(abi.encodePacked(\"\")...\n      PUSH 20\t\t\tkeccak256(abi.encodePacked(\"\")...\n      ADD \t\t\tkeccak256(abi.encodePacked(\"\")...\n      KECCAK256 \t\t\tkeccak256(abi.encodePacked(\"\")...\n      PUSH 4\t\t\tauthContract\n      PUSH 0\t\t\tauthContract\n      SWAP1 \t\t\tauthContract\n      SLOAD \t\t\tauthContract\n      SWAP1 \t\t\tauthContract\n      PUSH 100\t\t\tauthContract\n      EXP \t\t\tauthContract\n      SWAP1 \t\t\tauthContract\n      DIV \t\t\tauthContract\n      PUSH FFFFFFFFFFFFFFFFFFFFFFFFFFFFFFFFFFFFFFFF\t\t\tauthContract\n      AND \t\t\tauthContract\n      PUSH FFFFFFFFFFFFFFFFFFFFFFFFFFFFFFFFFFFFFFFF\t\t\tauthContract.getUserRole\n      AND \t\t\tauthContract.getUserRole\n      PUSH 27820851\t\t\tauthContract.getUserRole\n      CALLER \t\t\tmsg.sender\n      PUSH 40\t\t\tauthContract.getUserRole(msg.s...\n      MLOAD \t\t\tauthContract.getUserRole(msg.s...\n      DUP3 \t\t\tauthContract.getUserRole(msg.s...\n      PUSH FFFFFFFF\t\t\tauthContract.getUserRole(msg.s...\n      AND \t\t\tauthContract.getUserRole(msg.s...\n      PUSH E0\t\t\tauthContract.getUserRole(msg.s...\n      SHL \t\t\tauthContract.getUserRole(msg.s...\n      DUP2 \t\t\tauthContract.getUserRole(msg.s...\n      MSTORE \t\t\tauthContract.getUserRole(msg.s...\n      PUSH 4\t\t\tauthContract.getUserRole(msg.s...\n      ADD \t\t\tauthContract.getUserRole(msg.s...\n      PUSH [tag] 188\t\t\tauthContract.getUserRole(msg.s...\n      SWAP2 \t\t\tauthContract.getUserRole(msg.s...\n      SWAP1 \t\t\tauthContract.getUserRole(msg.s...\n      PUSH [tag] 44\t\t\tauthContract.getUserRole(msg.s...\n      JUMP \t\t\tauthContract.getUserRole(msg.s...\n    tag 188\t\t\tauthContract.getUserRole(msg.s...\n      JUMPDEST \t\t\tauthContract.getUserRole(msg.s...\n      PUSH 0\t\t\tauthContract.getUserRole(msg.s...\n      PUSH 40\t\t\tauthContract.getUserRole(msg.s...\n      MLOAD \t\t\tauthContract.getUserRole(msg.s...\n      DUP1 \t\t\tauthContract.getUserRole(msg.s...\n      DUP4 \t\t\tauthContract.getUserRole(msg.s...\n      SUB \t\t\tauthContract.getUserRole(msg.s...\n      DUP2 \t\t\tauthContract.getUserRole(msg.s...\n      DUP7 \t\t\tauthContract.getUserRole(msg.s...\n      GAS \t\t\tauthContract.getUserRole(msg.s...\n      STATICCALL \t\t\tauthContract.getUserRole(msg.s...\n      ISZERO \t\t\tauthContract.getUserRole(msg.s...\n      DUP1 \t\t\tauthContract.getUserRole(msg.s...\n      ISZERO \t\t\tauthContract.getUserRole(msg.s...\n      PUSH [tag] 190\t\t\tauthContract.getUserRole(msg.s...\n      JUMPI \t\t\tauthContract.getUserRole(msg.s...\n      RETURNDATASIZE \t\t\tauthContract.getUserRole(msg.s...\n      PUSH 0\t\t\tauthContract.getUserRole(msg.s...\n      DUP1 \t\t\tauthContract.getUserRole(msg.s...\n      RETURNDATACOPY \t\t\tauthContract.getUserRole(msg.s...\n      RETURNDATASIZE \t\t\tauthContract.getUserRole(msg.s...\n      PUSH 0\t\t\tauthContract.getUserRole(msg.s...\n      REVERT \t\t\tauthContract.getUserRole(msg.s...\n    tag 190\t\t\tauthContract.getUserRole(msg.s...\n      JUMPDEST \t\t\tauthContract.getUserRole(msg.s...\n      POP \t\t\tauthContract.getUserRole(msg.s...\n      POP \t\t\tauthContract.getUserRole(msg.s...\n      POP \t\t\tauthContract.getUserRole(msg.s...\n      POP \t\t\tauthContract.getUserRole(msg.s...\n      PUSH 40\t\t\tauthContract.getUserRole(msg.s...\n      MLOAD \t\t\tauthContract.getUserRole(msg.s...\n      RETURNDATASIZE \t\t\tauthContract.getUserRole(msg.s...\n      PUSH 0\t\t\tauthContract.getUserRole(msg.s...\n      DUP3 \t\t\tauthContract.getUserRole(msg.s...\n      RETURNDATACOPY \t\t\tauthContract.getUserRole(msg.s...\n      RETURNDATASIZE \t\t\tauthContract.getUserRole(msg.s...\n      PUSH 1F\t\t\tauthContract.getUserRole(msg.s...\n      NOT \t\t\tauthContract.getUserRole(msg.s...\n      PUSH 1F\t\t\tauthContract.getUserRole(msg.s...\n      DUP3 \t\t\tauthContract.getUserRole(msg.s...\n      ADD \t\t\tauthContract.getUserRole(msg.s...\n      AND \t\t\tauthContract.getUserRole(msg.s...\n      DUP3 \t\t\tauthContract.getUserRole(msg.s...\n      ADD \t\t\tauthContract.getUserRole(msg.s...\n      DUP1 \t\t\tauthContract.getUserRole(msg.s...\n      PUSH 40\t\t\tauthContract.getUserRole(msg.s...\n      MSTORE \t\t\tauthContract.getUserRole(msg.s...\n      POP \t\t\tauthContract.getUserRole(msg.s...\n      DUP2 \t\t\tauthContract.getUserRole(msg.s...\n      ADD \t\t\tauthContract.getUserRole(msg.s...\n      SWAP1 \t\t\tauthContract.getUserRole(msg.s...\n      PUSH [tag] 191\t\t\tauthContract.getUserRole(msg.s...\n      SWAP2 \t\t\tauthContract.getUserRole(msg.s...\n      SWAP1 \t\t\tauthContract.getUserRole(msg.s...\n      PUSH [tag] 48\t\t\tauthContract.getUserRole(msg.s...\n      JUMP \t\t\tauthContract.getUserRole(msg.s...\n    tag 191\t\t\tauthContract.getUserRole(msg.s...\n      JUMPDEST \t\t\tauthContract.getUserRole(msg.s...\n      PUSH 40\t\t\tabi.encodePacked(authContract....\n      MLOAD \t\t\tabi.encodePacked(authContract....\n      PUSH 20\t\t\tabi.encodePacked(authContract....\n      ADD \t\t\tabi.encodePacked(authContract....\n      PUSH [tag] 192\t\t\tabi.encodePacked(authContract....\n      SWAP2 \t\t\tabi.encodePacked(authContract....\n      SWAP1 \t\t\tabi.encodePacked(authContract....\n      PUSH [tag] 50\t\t\tabi.encodePacked(authContract....\n      JUMP \t\t\tabi.encodePacked(authContract....\n    tag 192\t\t\tabi.encodePacked(authContract....\n      JUMPDEST \t\t\tabi.encodePacked(authContract....\n      PUSH 40\t\t\tabi.encodePacked(authContract....\n      MLOAD \t\t\tabi.encodePacked(authContract....\n      PUSH 20\t\t\tabi.encodePacked(authContract....\n      DUP2 \t\t\tabi.encodePacked(authContract....\n      DUP4 \t\t\tabi.encodePacked(authContract....\n      SUB \t\t\tabi.encodePacked(authContract....\n      SUB \t\t\tabi.encodePacked(authContract....\n      DUP2 \t\t\tabi.encodePacked(authContract....\n      MSTORE \t\t\tabi.encodePacked(authContract....\n      SWAP1 \t\t\tabi.encodePacked(authContract....\n      PUSH 40\t\t\tabi.encodePacked(authContract....\n      MSTORE \t\t\tabi.encodePacked(authContract....\n      DUP1 \t\t\tkeccak256(abi.encodePacked(aut...\n      MLOAD \t\t\tkeccak256(abi.encodePacked(aut...\n      SWAP1 \t\t\tkeccak256(abi.encodePacked(aut...\n      PUSH 20\t\t\tkeccak256(abi.encodePacked(aut...\n      ADD \t\t\tkeccak256(abi.encodePacked(aut...\n      KECCAK256 \t\t\tkeccak256(abi.encodePacked(aut...\n      SUB \t\t\tkeccak256(abi.encodePacked(aut...\n      PUSH [tag] 193\t\t\trequire(keccak256(abi.encodePa...\n      JUMPI \t\t\trequire(keccak256(abi.encodePa...\n      PUSH 40\t\t\trequire(keccak256(abi.encodePa...\n      MLOAD \t\t\trequire(keccak256(abi.encodePa...\n      PUSH 8C379A000000000000000000000000000000000000000000000000000000000\t\t\trequire(keccak256(abi.encodePa...\n      DUP2 \t\t\trequire(keccak256(abi.encodePa...\n      MSTORE \t\t\trequire(keccak256(abi.encodePa...\n      PUSH 4\t\t\trequire(keccak256(abi.encodePa...\n      ADD \t\t\trequire(keccak256(abi.encodePa...\n      PUSH [tag] 194\t\t\trequire(keccak256(abi.encodePa...\n      SWAP1 \t\t\trequire(keccak256(abi.encodePa...\n      PUSH [tag] 53\t\t\trequire(keccak256(abi.encodePa...\n      JUMP \t\t\trequire(keccak256(abi.encodePa...\n    tag 194\t\t\trequire(keccak256(abi.encodePa...\n      JUMPDEST \t\t\trequire(keccak256(abi.encodePa...\n      PUSH 40\t\t\trequire(keccak256(abi.encodePa...\n      MLOAD \t\t\trequire(keccak256(abi.encodePa...\n      DUP1 \t\t\trequire(keccak256(abi.encodePa...\n      SWAP2 \t\t\trequire(keccak256(abi.encodePa...\n      SUB \t\t\trequire(keccak256(abi.encodePa...\n      SWAP1 \t\t\trequire(keccak256(abi.encodePa...\n      REVERT \t\t\trequire(keccak256(abi.encodePa...\n    tag 193\t\t\trequire(keccak256(abi.encodePa...\n      JUMPDEST \t\t\trequire(keccak256(abi.encodePa...\n      PUSH 0\t\t\tDirectories\n      DUP3 \t\t\ttitle\n      PUSH 40\t\t\tDirectories[title]\n      MLOAD \t\t\tDirectories[title]\n      PUSH [tag] 196\t\t\tDirectories[title]\n      SWAP2 \t\t\tDirectories[title]\n      SWAP1 \t\t\tDirectories[title]\n      PUSH [tag] 50\t\t\tDirectories[title]\n      JUMP \t\t\tDirectories[title]\n    tag 196\t\t\tDirectories[title]\n      JUMPDEST \t\t\tDirectories[title]\n      SWAP1 \t\t\tDirectories[title]\n      DUP2 \t\t\tDirectories[title]\n      MSTORE \t\t\tDirectories[title]\n      PUSH 20\t\t\tDirectories[title]\n      ADD \t\t\tDirectories[title]\n      PUSH 40\t\t\tDirectories[title]\n      MLOAD \t\t\tDirectories[title]\n      DUP1 \t\t\tDirectories[title]\n      SWAP2 \t\t\tDirectories[title]\n      SUB \t\t\tDirectories[title]\n      SWAP1 \t\t\tDirectories[title]\n      KECCAK256 \t\t\tDirectories[title]\n      PUSH 40\t\t\treturn Directories[title]\n      MLOAD \t\t\treturn Directories[title]\n      DUP1 \t\t\treturn Directories[title]\n      PUSH 40\t\t\treturn Directories[title]\n      ADD \t\t\treturn Directories[title]\n      PUSH 40\t\t\treturn Directories[title]\n      MSTORE \t\t\treturn Directories[title]\n      SWAP1 \t\t\treturn Directories[title]\n      DUP2 \t\t\treturn Directories[title]\n      PUSH 0\t\t\treturn Directories[title]\n      DUP3 \t\t\treturn Directories[title]\n      ADD \t\t\treturn Directories[title]\n      DUP1 \t\t\treturn Directories[title]\n      SLOAD \t\t\treturn Directories[title]\n      PUSH [tag] 197\t\t\treturn Directories[title]\n      SWAP1 \t\t\treturn Directories[title]\n      PUSH [tag] 164\t\t\treturn Directories[title]\n      JUMP \t\t\treturn Directories[title]\n    tag 197\t\t\treturn Directories[title]\n      JUMPDEST \t\t\treturn Directories[title]\n      DUP1 \t\t\treturn Directories[title]\n      PUSH 1F\t\t\treturn Directories[title]\n      ADD \t\t\treturn Directories[title]\n      PUSH 20\t\t\treturn Directories[title]\n      DUP1 \t\t\treturn Directories[title]\n      SWAP2 \t\t\treturn Directories[title]\n      DIV \t\t\treturn Directories[title]\n      MUL \t\t\treturn Directories[title]\n      PUSH 20\t\t\treturn Directories[title]\n      ADD \t\t\treturn Directories[title]\n      PUSH 40\t\t\treturn Directories[title]\n      MLOAD \t\t\treturn Directories[title]\n      SWAP1 \t\t\treturn Directories[title]\n      DUP2 \t\t\treturn Directories[title]\n      ADD \t\t\treturn Directories[title]\n      PUSH 40\t\t\treturn Directories[title]\n      MSTORE \t\t\treturn Directories[title]\n      DUP1 \t\t\treturn Directories[title]\n      SWAP3 \t\t\treturn Directories[title]\n      SWAP2 \t\t\treturn Directories[title]\n      SWAP1 \t\t\treturn Directories[title]\n      DUP2 \t\t\treturn Directories[title]\n      DUP2 \t\t\treturn Directories[title]\n      MSTORE \t\t\treturn Directories[title]\n      PUSH 20\t\t\treturn Directories[title]\n      ADD \t\t\treturn Directories[title]\n      DUP3 \t\t\treturn Directories[title]\n      DUP1 \t\t\treturn Directories[title]\n      SLOAD \t\t\treturn Directories[title]\n      PUSH [tag] 198\t\t\treturn Directories[title]\n      SWAP1 \t\t\treturn Directories[title]\n      PUSH [tag] 164\t\t\treturn Directories[title]\n      JUMP \t\t\treturn Directories[title]\n    tag 198\t\t\treturn Directories[title]\n      JUMPDEST \t\t\treturn Directories[title]\n      DUP1 \t\t\treturn Directories[title]\n      ISZERO \t\t\treturn Directories[title]\n      PUSH [tag] 199\t\t\treturn Directories[title]\n      JUMPI \t\t\treturn Directories[title]\n      DUP1 \t\t\treturn Directories[title]\n      PUSH 1F\t\t\treturn Directories[title]\n      LT \t\t\treturn Directories[title]\n      PUSH [tag] 200\t\t\treturn Directories[title]\n      JUMPI \t\t\treturn Directories[title]\n      PUSH 100\t\t\treturn Directories[title]\n      DUP1 \t\t\treturn Directories[title]\n      DUP4 \t\t\treturn Directories[title]\n      SLOAD \t\t\treturn Directories[title]\n      DIV \t\t\treturn Directories[title]\n      MUL \t\t\treturn Directories[title]\n      DUP4 \t\t\treturn Directories[title]\n      MSTORE \t\t\treturn Directories[title]\n      SWAP2 \t\t\treturn Directories[title]\n      PUSH 20\t\t\treturn Directories[title]\n      ADD \t\t\treturn Directories[title]\n      SWAP2 \t\t\treturn Directories[title]\n      PUSH [tag] 199\t\t\treturn Directories[title]\n      JUMP \t\t\treturn Directories[title]\n    tag 200\t\t\treturn Directories[title]\n      JUMPDEST \t\t\treturn Directories[title]\n      DUP3 \t\t\treturn Directories[title]\n      ADD \t\t\treturn Directories[title]\n      SWAP2 \t\t\treturn Directories[title]\n      SWAP1 \t\t\treturn Directories[title]\n      PUSH 0\t\t\treturn Directories[title]\n      MSTORE \t\t\treturn Directories[title]\n      PUSH 20\t\t\treturn Directories[title]\n      PUSH 0\t\t\treturn Directories[title]\n      KECCAK256 \t\t\treturn Directories[title]\n      SWAP1 \t\t\treturn Directories[title]\n    tag 201\t\t\treturn Directories[title]\n      JUMPDEST \t\t\treturn Directories[title]\n      DUP2 \t\t\treturn Directories[title]\n      SLOAD \t\t\treturn Directories[title]\n      DUP2 \t\t\treturn Directories[title]\n      MSTORE \t\t\treturn Directories[title]\n      SWAP1 \t\t\treturn Directories[title]\n      PUSH 1\t\t\treturn Directories[title]\n      ADD \t\t\treturn Directories[title]\n      SWAP1 \t\t\treturn Directories[title]\n      PUSH 20\t\t\treturn Directories[title]\n      ADD \t\t\treturn Directories[title]\n      DUP1 \t\t\treturn Directories[title]\n      DUP4 \t\t\treturn Directories[title]\n      GT \t\t\treturn Directories[title]\n      PUSH [tag] 201\t\t\treturn Directories[title]\n      JUMPI \t\t\treturn Directories[title]\n      DUP3 \t\t\treturn Directories[title]\n      SWAP1 \t\t\treturn Directories[title]\n      SUB \t\t\treturn Directories[title]\n      PUSH 1F\t\t\treturn Directories[title]\n      AND \t\t\treturn Directories[title]\n      DUP3 \t\t\treturn Directories[title]\n      ADD \t\t\treturn Directories[title]\n      SWAP2 \t\t\treturn Directories[title]\n    tag 199\t\t\treturn Directories[title]\n      JUMPDEST \t\t\treturn Directories[title]\n      POP \t\t\treturn Directories[title]\n      POP \t\t\treturn Directories[title]\n      POP \t\t\treturn Directories[title]\n      POP \t\t\treturn Directories[title]\n      POP \t\t\treturn Directories[title]\n      DUP2 \t\t\treturn Directories[title]\n      MSTORE \t\t\treturn Directories[title]\n      PUSH 20\t\t\treturn Directories[title]\n      ADD \t\t\treturn Directories[title]\n      PUSH 1\t\t\treturn Directories[title]\n      DUP3 \t\t\treturn Directories[title]\n      ADD \t\t\treturn Directories[title]\n      DUP1 \t\t\treturn Directories[title]\n      SLOAD \t\t\treturn Directories[title]\n      DUP1 \t\t\treturn Directories[title]\n      PUSH 20\t\t\treturn Directories[title]\n      MUL \t\t\treturn Directories[title]\n      PUSH 20\t\t\treturn Directories[title]\n      ADD \t\t\treturn Directories[title]\n      PUSH 40\t\t\treturn Directories[title]\n      MLOAD \t\t\treturn Directories[title]\n      SWAP1 \t\t\treturn Directories[title]\n      DUP2 \t\t\treturn Directories[title]\n      ADD \t\t\treturn Directories[title]\n      PUSH 40\t\t\treturn Directories[title]\n      MSTORE \t\t\treturn Directories[title]\n      DUP1 \t\t\treturn Directories[title]\n      SWAP3 \t\t\treturn Directories[title]\n      SWAP2 \t\t\treturn Directories[title]\n      SWAP1 \t\t\treturn Directories[title]\n      DUP2 \t\t\treturn Directories[title]\n      DUP2 \t\t\treturn Directories[title]\n      MSTORE \t\t\treturn Directories[title]\n      PUSH 20\t\t\treturn Directories[title]\n      ADD \t\t\treturn Directories[title]\n      PUSH 0\t\t\treturn Directories[title]\n      SWAP1 \t\t\treturn Directories[title]\n    tag 202\t\t\treturn Directories[title]\n      JUMPDEST \t\t\treturn Directories[title]\n      DUP3 \t\t\treturn Directories[title]\n      DUP3 \t\t\treturn Directories[title]\n      LT \t\t\treturn Directories[title]\n      ISZERO \t\t\treturn Directories[title]\n      PUSH [tag] 203\t\t\treturn Directories[title]\n      JUMPI \t\t\treturn Directories[title]\n      DUP4 \t\t\treturn Directories[title]\n      DUP3 \t\t\treturn Directories[title]\n      SWAP1 \t\t\treturn Directories[title]\n      PUSH 0\t\t\treturn Directories[title]\n      MSTORE \t\t\treturn Directories[title]\n      PUSH 20\t\t\treturn Directories[title]\n      PUSH 0\t\t\treturn Directories[title]\n      KECCAK256 \t\t\treturn Directories[title]\n      SWAP1 \t\t\treturn Directories[title]\n      PUSH 2\t\t\treturn Directories[title]\n      MUL \t\t\treturn Directories[title]\n      ADD \t\t\treturn Directories[title]\n      PUSH 40\t\t\treturn Directories[title]\n      MLOAD \t\t\treturn Directories[title]\n      DUP1 \t\t\treturn Directories[title]\n      PUSH 40\t\t\treturn Directories[title]\n      ADD \t\t\treturn Directories[title]\n      PUSH 40\t\t\treturn Directories[title]\n      MSTORE \t\t\treturn Directories[title]\n      SWAP1 \t\t\treturn Directories[title]\n      DUP2 \t\t\treturn Directories[title]\n      PUSH 0\t\t\treturn Directories[title]\n      DUP3 \t\t\treturn Directories[title]\n      ADD \t\t\treturn Directories[title]\n      DUP1 \t\t\treturn Directories[title]\n      SLOAD \t\t\treturn Directories[title]\n      PUSH [tag] 205\t\t\treturn Directories[title]\n      SWAP1 \t\t\treturn Directories[title]\n      PUSH [tag] 164\t\t\treturn Directories[title]\n      JUMP \t\t\treturn Directories[title]\n    tag 205\t\t\treturn Directories[title]\n      JUMPDEST \t\t\treturn Directories[title]\n      DUP1 \t\t\treturn Directories[title]\n      PUSH 1F\t\t\treturn Directories[title]\n      ADD \t\t\treturn Directories[title]\n      PUSH 20\t\t\treturn Directories[title]\n      DUP1 \t\t\treturn Directories[title]\n      SWAP2 \t\t\treturn Directories[title]\n      DIV \t\t\treturn Directories[title]\n      MUL \t\t\treturn Directories[title]\n      PUSH 20\t\t\treturn Directories[title]\n      ADD \t\t\treturn Directories[title]\n      PUSH 40\t\t\treturn Directories[title]\n      MLOAD \t\t\treturn Directories[title]\n      SWAP1 \t\t\treturn Directories[title]\n      DUP2 \t\t\treturn Directories[title]\n      ADD \t\t\treturn Directories[title]\n      PUSH 40\t\t\treturn Directories[title]\n      MSTORE \t\t\treturn Directories[title]\n      DUP1 \t\t\treturn Directories[title]\n      SWAP3 \t\t\treturn Directories[title]\n      SWAP2 \t\t\treturn Directories[title]\n      SWAP1 \t\t\treturn Directories[title]\n      DUP2 \t\t\treturn Directories[title]\n      DUP2 \t\t\treturn Directories[title]\n      MSTORE \t\t\treturn Directories[title]\n      PUSH 20\t\t\treturn Directories[title]\n      ADD \t\t\treturn Directories[title]\n      DUP3 \t\t\treturn Directories[title]\n      DUP1 \t\t\treturn Directories[title]\n      SLOAD \t\t\treturn Directories[title]\n      PUSH [tag] 206\t\t\treturn Directories[title]\n      SWAP1 \t\t\treturn Directories[title]\n      PUSH [tag] 164\t\t\treturn Directories[title]\n      JUMP \t\t\treturn Directories[title]\n    tag 206\t\t\treturn Directories[title]\n      JUMPDEST \t\t\treturn Directories[title]\n      DUP1 \t\t\treturn Directories[title]\n      ISZERO \t\t\treturn Directories[title]\n      PUSH [tag] 207\t\t\treturn Directories[title]\n      JUMPI \t\t\treturn Directories[title]\n      DUP1 \t\t\treturn Directories[title]\n      PUSH 1F\t\t\treturn Directories[title]\n      LT \t\t\treturn Directories[title]\n      PUSH [tag] 208\t\t\treturn Directories[title]\n      JUMPI \t\t\treturn Directories[title]\n      PUSH 100\t\t\treturn Directories[title]\n      DUP1 \t\t\treturn Directories[title]\n      DUP4 \t\t\treturn Directories[title]\n      SLOAD \t\t\treturn Directories[title]\n      DIV \t\t\treturn Directories[title]\n      MUL \t\t\treturn Directories[title]\n      DUP4 \t\t\treturn Directories[title]\n      MSTORE \t\t\treturn Directories[title]\n      SWAP2 \t\t\treturn Directories[title]\n      PUSH 20\t\t\treturn Directories[title]\n      ADD \t\t\treturn Directories[title]\n      SWAP2 \t\t\treturn Directories[title]\n      PUSH [tag] 207\t\t\treturn Directories[title]\n      JUMP \t\t\treturn Directories[title]\n    tag 208\t\t\treturn Directories[title]\n      JUMPDEST \t\t\treturn Directories[title]\n      DUP3 \t\t\treturn Directories[title]\n      ADD \t\t\treturn Directories[title]\n      SWAP2 \t\t\treturn Directories[title]\n      SWAP1 \t\t\treturn Directories[title]\n      PUSH 0\t\t\treturn Directories[title]\n      MSTORE \t\t\treturn Directories[title]\n      PUSH 20\t\t\treturn Directories[title]\n      PUSH 0\t\t\treturn Directories[title]\n      KECCAK256 \t\t\treturn Directories[title]\n      SWAP1 \t\t\treturn Directories[title]\n    tag 209\t\t\treturn Directories[title]\n      JUMPDEST \t\t\treturn Directories[title]\n      DUP2 \t\t\treturn Directories[title]\n      SLOAD \t\t\treturn Directories[title]\n      DUP2 \t\t\treturn Directories[title]\n      MSTORE \t\t\treturn Directories[title]\n      SWAP1 \t\t\treturn Directories[title]\n      PUSH 1\t\t\treturn Directories[title]\n      ADD \t\t\treturn Directories[title]\n      SWAP1 \t\t\treturn Directories[title]\n      PUSH 20\t\t\treturn Directories[title]\n      ADD \t\t\treturn Directories[title]\n      DUP1 \t\t\treturn Directories[title]\n      DUP4 \t\t\treturn Directories[title]\n      GT \t\t\treturn Directories[title]\n      PUSH [tag] 209\t\t\treturn Directories[title]\n      JUMPI \t\t\treturn Directories[title]\n      DUP3 \t\t\treturn Directories[title]\n      SWAP1 \t\t\treturn Directories[title]\n      SUB \t\t\treturn Directories[title]\n      PUSH 1F\t\t\treturn Directories[title]\n      AND \t\t\treturn Directories[title]\n      DUP3 \t\t\treturn Directories[title]\n      ADD \t\t\treturn Directories[title]\n      SWAP2 \t\t\treturn Directories[title]\n    tag 207\t\t\treturn Directories[title]\n      JUMPDEST \t\t\treturn Directories[title]\n      POP \t\t\treturn Directories[title]\n      POP \t\t\treturn Directories[title]\n      POP \t\t\treturn Directories[title]\n      POP \t\t\treturn Directories[title]\n      POP \t\t\treturn Directories[title]\n      DUP2 \t\t\treturn Directories[title]\n      MSTORE \t\t\treturn Directories[title]\n      PUSH 20\t\t\treturn Directories[title]\n      ADD \t\t\treturn Directories[title]\n      PUSH 1\t\t\treturn Directories[title]\n      DUP3 \t\t\treturn Directories[title]\n      ADD \t\t\treturn Directories[title]\n      DUP1 \t\t\treturn Directories[title]\n      SLOAD \t\t\treturn Directories[title]\n      DUP1 \t\t\treturn Directories[title]\n      PUSH 20\t\t\treturn Directories[title]\n      MUL \t\t\treturn Directories[title]\n      PUSH 20\t\t\treturn Directories[title]\n      ADD \t\t\treturn Directories[title]\n      PUSH 40\t\t\treturn Directories[title]\n      MLOAD \t\t\treturn Directories[title]\n      SWAP1 \t\t\treturn Directories[title]\n      DUP2 \t\t\treturn Directories[title]\n      ADD \t\t\treturn Directories[title]\n      PUSH 40\t\t\treturn Directories[title]\n      MSTORE \t\t\treturn Directories[title]\n      DUP1 \t\t\treturn Directories[title]\n      SWAP3 \t\t\treturn Directories[title]\n      SWAP2 \t\t\treturn Directories[title]\n      SWAP1 \t\t\treturn Directories[title]\n      DUP2 \t\t\treturn Directories[title]\n      DUP2 \t\t\treturn Directories[title]\n      MSTORE \t\t\treturn Directories[title]\n      PUSH 20\t\t\treturn Directories[title]\n      ADD \t\t\treturn Directories[title]\n      PUSH 0\t\t\treturn Directories[title]\n      SWAP1 \t\t\treturn Directories[title]\n    tag 210\t\t\treturn Directories[title]\n      JUMPDEST \t\t\treturn Directories[title]\n      DUP3 \t\t\treturn Directories[title]\n      DUP3 \t\t\treturn Directories[title]\n      LT \t\t\treturn Directories[title]\n      ISZERO \t\t\treturn Directories[title]\n      PUSH [tag] 211\t\t\treturn Directories[title]\n      JUMPI \t\t\treturn Directories[title]\n      DUP4 \t\t\treturn Directories[title]\n      DUP3 \t\t\treturn Directories[title]\n      SWAP1 \t\t\treturn Directories[title]\n      PUSH 0\t\t\treturn Directories[title]\n      MSTORE \t\t\treturn Directories[title]\n      PUSH 20\t\t\treturn Directories[title]\n      PUSH 0\t\t\treturn Directories[title]\n      KECCAK256 \t\t\treturn Directories[title]\n      ADD \t\t\treturn Directories[title]\n      DUP1 \t\t\treturn Directories[title]\n      SLOAD \t\t\treturn Directories[title]\n      PUSH [tag] 213\t\t\treturn Directories[title]\n      SWAP1 \t\t\treturn Directories[title]\n      PUSH [tag] 164\t\t\treturn Directories[title]\n      JUMP \t\t\treturn Directories[title]\n    tag 213\t\t\treturn Directories[title]\n      JUMPDEST \t\t\treturn Directories[title]\n      DUP1 \t\t\treturn Directories[title]\n      PUSH 1F\t\t\treturn Directories[title]\n      ADD \t\t\treturn Directories[title]\n      PUSH 20\t\t\treturn Directories[title]\n      DUP1 \t\t\treturn Directories[title]\n      SWAP2 \t\t\treturn Directories[title]\n      DIV \t\t\treturn Directories[title]\n      MUL \t\t\treturn Directories[title]\n      PUSH 20\t\t\treturn Directories[title]\n      ADD \t\t\treturn Directories[title]\n      PUSH 40\t\t\treturn Directories[title]\n      MLOAD \t\t\treturn Directories[title]\n      SWAP1 \t\t\treturn Directories[title]\n      DUP2 \t\t\treturn Directories[title]\n      ADD \t\t\treturn Directories[title]\n      PUSH 40\t\t\treturn Directories[title]\n      MSTORE \t\t\treturn Directories[title]\n      DUP1 \t\t\treturn Directories[title]\n      SWAP3 \t\t\treturn Directories[title]\n      SWAP2 \t\t\treturn Directories[title]\n      SWAP1 \t\t\treturn Directories[title]\n      DUP2 \t\t\treturn Directories[title]\n      DUP2 \t\t\treturn Directories[title]\n      MSTORE \t\t\treturn Directories[title]\n      PUSH 20\t\t\treturn Directories[title]\n      ADD \t\t\treturn Directories[title]\n      DUP3 \t\t\treturn Directories[title]\n      DUP1 \t\t\treturn Directories[title]\n      SLOAD \t\t\treturn Directories[title]\n      PUSH [tag] 214\t\t\treturn Directories[title]\n      SWAP1 \t\t\treturn Directories[title]\n      PUSH [tag] 164\t\t\treturn Directories[title]\n      JUMP \t\t\treturn Directories[title]\n    tag 214\t\t\treturn Directories[title]\n      JUMPDEST \t\t\treturn Directories[title]\n      DUP1 \t\t\treturn Directories[title]\n      ISZERO \t\t\treturn Directories[title]\n      PUSH [tag] 215\t\t\treturn Directories[title]\n      JUMPI \t\t\treturn Directories[title]\n      DUP1 \t\t\treturn Directories[title]\n      PUSH 1F\t\t\treturn Directories[title]\n      LT \t\t\treturn Directories[title]\n      PUSH [tag] 216\t\t\treturn Directories[title]\n      JUMPI \t\t\treturn Directories[title]\n      PUSH 100\t\t\treturn Directories[title]\n      DUP1 \t\t\treturn Directories[title]\n      DUP4 \t\t\treturn Directories[title]\n      SLOAD \t\t\treturn Directories[title]\n      DIV \t\t\treturn Directories[title]\n      MUL \t\t\treturn Directories[title]\n      DUP4 \t\t\treturn Directories[title]\n      MSTORE \t\t\treturn Directories[title]\n      SWAP2 \t\t\treturn Directories[title]\n      PUSH 20\t\t\treturn Directories[title]\n      ADD \t\t\treturn Directories[title]\n      SWAP2 \t\t\treturn Directories[title]\n      PUSH [tag] 215\t\t\treturn Directories[title]\n      JUMP \t\t\treturn Directories[title]\n    tag 216\t\t\treturn Directories[title]\n      JUMPDEST \t\t\treturn Directories[title]\n      DUP3 \t\t\treturn Directories[title]\n      ADD \t\t\treturn Directories[title]\n      SWAP2 \t\t\treturn Directories[title]\n      SWAP1 \t\t\treturn Directories[title]\n      PUSH 0\t\t\treturn Directories[title]\n      MSTORE \t\t\treturn Directories[title]\n      PUSH 20\t\t\treturn Directories[title]\n      PUSH 0\t\t\treturn Directories[title]\n      KECCAK256 \t\t\treturn Directories[title]\n      SWAP1 \t\t\treturn Directories[title]\n    tag 217\t\t\treturn Directories[title]\n      JUMPDEST \t\t\treturn Directories[title]\n      DUP2 \t\t\treturn Directories[title]\n      SLOAD \t\t\treturn Directories[title]\n      DUP2 \t\t\treturn Directories[title]\n      MSTORE \t\t\treturn Directories[title]\n      SWAP1 \t\t\treturn Directories[title]\n      PUSH 1\t\t\treturn Directories[title]\n      ADD \t\t\treturn Directories[title]\n      SWAP1 \t\t\treturn Directories[title]\n      PUSH 20\t\t\treturn Directories[title]\n      ADD \t\t\treturn Directories[title]\n      DUP1 \t\t\treturn Directories[title]\n      DUP4 \t\t\treturn Directories[title]\n      GT \t\t\treturn Directories[title]\n      PUSH [tag] 217\t\t\treturn Directories[title]\n      JUMPI \t\t\treturn Directories[title]\n      DUP3 \t\t\treturn Directories[title]\n      SWAP1 \t\t\treturn Directories[title]\n      SUB \t\t\treturn Directories[title]\n      PUSH 1F\t\t\treturn Directories[title]\n      AND \t\t\treturn Directories[title]\n      DUP3 \t\t\treturn Directories[title]\n      ADD \t\t\treturn Directories[title]\n      SWAP2 \t\t\treturn Directories[title]\n    tag 215\t\t\treturn Directories[title]\n      JUMPDEST \t\t\treturn Directories[title]\n      POP \t\t\treturn Directories[title]\n      POP \t\t\treturn Directories[title]\n      POP \t\t\treturn Directories[title]\n      POP \t\t\treturn Directories[title]\n      POP \t\t\treturn Directories[title]\n      DUP2 \t\t\treturn Directories[title]\n      MSTORE \t\t\treturn Directories[title]\n      PUSH 20\t\t\treturn Directories[title]\n      ADD \t\t\treturn Directories[title]\n      SWAP1 \t\t\treturn Directories[title]\n      PUSH 1\t\t\treturn Directories[title]\n      ADD \t\t\treturn Directories[title]\n      SWAP1 \t\t\treturn Directories[title]\n      PUSH [tag] 210\t\t\treturn Directories[title]\n      JUMP \t\t\treturn Directories[title]\n    tag 211\t\t\treturn Directories[title]\n      JUMPDEST \t\t\treturn Directories[title]\n      POP \t\t\treturn Directories[title]\n      POP \t\t\treturn Directories[title]\n      POP \t\t\treturn Directories[title]\n      POP \t\t\treturn Directories[title]\n      DUP2 \t\t\treturn Directories[title]\n      MSTORE \t\t\treturn Directories[title]\n      POP \t\t\treturn Directories[title]\n      POP \t\t\treturn Directories[title]\n      DUP2 \t\t\treturn Directories[title]\n      MSTORE \t\t\treturn Directories[title]\n      PUSH 20\t\t\treturn Directories[title]\n      ADD \t\t\treturn Directories[title]\n      SWAP1 \t\t\treturn Directories[title]\n      PUSH 1\t\t\treturn Directories[title]\n      ADD \t\t\treturn Directories[title]\n      SWAP1 \t\t\treturn Directories[title]\n      PUSH [tag] 202\t\t\treturn Directories[title]\n      JUMP \t\t\treturn Directories[title]\n    tag 203\t\t\treturn Directories[title]\n      JUMPDEST \t\t\treturn Directories[title]\n      POP \t\t\treturn Directories[title]\n      POP \t\t\treturn Directories[title]\n      POP \t\t\treturn Directories[title]\n      POP \t\t\treturn Directories[title]\n      DUP2 \t\t\treturn Directories[title]\n      MSTORE \t\t\treturn Directories[title]\n      POP \t\t\treturn Directories[title]\n      POP \t\t\treturn Directories[title]\n      SWAP1 \t\t\treturn Directories[title]\n      POP \t\t\treturn Directories[title]\n      SWAP2 \t\t\tfunction getDirectory(string m...\n      SWAP1 \t\t\tfunction getDirectory(string m...\n      POP \t\t\tfunction getDirectory(string m...\n      JUMP \t\t\tfunction getDirectory(string m...\n    tag 34\t\t\tfunction getDirectories() Only...\n      JUMPDEST \t\t\tfunction getDirectories() Only...\n      PUSH 60\t\t\tstring[] memory\n      PUSH 40\t\t\tabi.encodePacked(\"\")\n      MLOAD \t\t\tabi.encodePacked(\"\")\n      PUSH 20\t\t\tabi.encodePacked(\"\")\n      ADD \t\t\tabi.encodePacked(\"\")\n      PUSH [tag] 219\t\t\tabi.encodePacked(\"\")\n      SWAP1 \t\t\tabi.encodePacked(\"\")\n      PUSH [tag] 42\t\t\tabi.encodePacked(\"\")\n      JUMP \t\t\tabi.encodePacked(\"\")\n    tag 219\t\t\tabi.encodePacked(\"\")\n      JUMPDEST \t\t\tabi.encodePacked(\"\")\n      PUSH 40\t\t\tabi.encodePacked(\"\")\n      MLOAD \t\t\tabi.encodePacked(\"\")\n      PUSH 20\t\t\tabi.encodePacked(\"\")\n      DUP2 \t\t\tabi.encodePacked(\"\")\n      DUP4 \t\t\tabi.encodePacked(\"\")\n      SUB \t\t\tabi.encodePacked(\"\")\n      SUB \t\t\tabi.encodePacked(\"\")\n      DUP2 \t\t\tabi.encodePacked(\"\")\n      MSTORE \t\t\tabi.encodePacked(\"\")\n      SWAP1 \t\t\tabi.encodePacked(\"\")\n      PUSH 40\t\t\tabi.encodePacked(\"\")\n      MSTORE \t\t\tabi.encodePacked(\"\")\n      DUP1 \t\t\tkeccak256(abi.encodePacked(\"\")...\n      MLOAD \t\t\tkeccak256(abi.encodePacked(\"\")...\n      SWAP1 \t\t\tkeccak256(abi.encodePacked(\"\")...\n      PUSH 20\t\t\tkeccak256(abi.encodePacked(\"\")...\n      ADD \t\t\tkeccak256(abi.encodePacked(\"\")...\n      KECCAK256 \t\t\tkeccak256(abi.encodePacked(\"\")...\n      PUSH 4\t\t\tauthContract\n      PUSH 0\t\t\tauthContract\n      SWAP1 \t\t\tauthContract\n      SLOAD \t\t\tauthContract\n      SWAP1 \t\t\tauthContract\n      PUSH 100\t\t\tauthContract\n      EXP \t\t\tauthContract\n      SWAP1 \t\t\tauthContract\n      DIV \t\t\tauthContract\n      PUSH FFFFFFFFFFFFFFFFFFFFFFFFFFFFFFFFFFFFFFFF\t\t\tauthContract\n      AND \t\t\tauthContract\n      PUSH FFFFFFFFFFFFFFFFFFFFFFFFFFFFFFFFFFFFFFFF\t\t\tauthContract.getUserRole\n      AND \t\t\tauthContract.getUserRole\n      PUSH 27820851\t\t\tauthContract.getUserRole\n      CALLER \t\t\tmsg.sender\n      PUSH 40\t\t\tauthContract.getUserRole(msg.s...\n      MLOAD \t\t\tauthContract.getUserRole(msg.s...\n      DUP3 \t\t\tauthContract.getUserRole(msg.s...\n      PUSH FFFFFFFF\t\t\tauthContract.getUserRole(msg.s...\n      AND \t\t\tauthContract.getUserRole(msg.s...\n      PUSH E0\t\t\tauthContract.getUserRole(msg.s...\n      SHL \t\t\tauthContract.getUserRole(msg.s...\n      DUP2 \t\t\tauthContract.getUserRole(msg.s...\n      MSTORE \t\t\tauthContract.getUserRole(msg.s...\n      PUSH 4\t\t\tauthContract.getUserRole(msg.s...\n      ADD \t\t\tauthContract.getUserRole(msg.s...\n      PUSH [tag] 220\t\t\tauthContract.getUserRole(msg.s...\n      SWAP2 \t\t\tauthContract.getUserRole(msg.s...\n      SWAP1 \t\t\tauthContract.getUserRole(msg.s...\n      PUSH [tag] 44\t\t\tauthContract.getUserRole(msg.s...\n      JUMP \t\t\tauthContract.getUserRole(msg.s...\n    tag 220\t\t\tauthContract.getUserRole(msg.s...\n      JUMPDEST \t\t\tauthContract.getUserRole(msg.s...\n      PUSH 0\t\t\tauthContract.getUserRole(msg.s...\n      PUSH 40\t\t\tauthContract.getUserRole(msg.s...\n      MLOAD \t\t\tauthContract.getUserRole(msg.s...\n      DUP1 \t\t\tauthContract.getUserRole(msg.s...\n      DUP4 \t\t\tauthContract.getUserRole(msg.s...\n      SUB \t\t\tauthContract.getUserRole(msg.s...\n      DUP2 \t\t\tauthContract.getUserRole(msg.s...\n      DUP7 \t\t\tauthContract.getUserRole(msg.s...\n      GAS \t\t\tauthContract.getUserRole(msg.s...\n      STATICCALL \t\t\tauthContract.getUserRole(msg.s...\n      ISZERO \t\t\tauthContract.getUserRole(msg.s...\n      DUP1 \t\t\tauthContract.getUserRole(msg.s...\n      ISZERO \t\t\tauthContract.getUserRole(msg.s...\n      PUSH [tag] 222\t\t\tauthContract.getUserRole(msg.s...\n      JUMPI \t\t\tauthContract.getUserRole(msg.s...\n      RETURNDATASIZE \t\t\tauthContract.getUserRole(msg.s...\n      PUSH 0\t\t\tauthContract.getUserRole(msg.s...\n      DUP1 \t\t\tauthContract.getUserRole(msg.s...\n      RETURNDATACOPY \t\t\tauthContract.getUserRole(msg.s...\n      RETURNDATASIZE \t\t\tauthContract.getUserRole(msg.s...\n      PUSH 0\t\t\tauthContract.getUserRole(msg.s...\n      REVERT \t\t\tauthContract.getUserRole(msg.s...\n    tag 222\t\t\tauthContract.getUserRole(msg.s...\n      JUMPDEST \t\t\tauthContract.getUserRole(msg.s...\n      POP \t\t\tauthContract.getUserRole(msg.s...\n      POP \t\t\tauthContract.getUserRole(msg.s...\n      POP \t\t\tauthContract.getUserRole(msg.s...\n      POP \t\t\tauthContract.getUserRole(msg.s...\n      PUSH 40\t\t\tauthContract.getUserRole(msg.s...\n      MLOAD \t\t\tauthContract.getUserRole(msg.s...\n      RETURNDATASIZE \t\t\tauthContract.getUserRole(msg.s...\n      PUSH 0\t\t\tauthContract.getUserRole(msg.s...\n      DUP3 \t\t\tauthContract.getUserRole(msg.s...\n      RETURNDATACOPY \t\t\tauthContract.getUserRole(msg.s...\n      RETURNDATASIZE \t\t\tauthContract.getUserRole(msg.s...\n      PUSH 1F\t\t\tauthContract.getUserRole(msg.s...\n      NOT \t\t\tauthContract.getUserRole(msg.s...\n      PUSH 1F\t\t\tauthContract.getUserRole(msg.s...\n      DUP3 \t\t\tauthContract.getUserRole(msg.s...\n      ADD \t\t\tauthContract.getUserRole(msg.s...\n      AND \t\t\tauthContract.getUserRole(msg.s...\n      DUP3 \t\t\tauthContract.getUserRole(msg.s...\n      ADD \t\t\tauthContract.getUserRole(msg.s...\n      DUP1 \t\t\tauthContract.getUserRole(msg.s...\n      PUSH 40\t\t\tauthContract.getUserRole(msg.s...\n      MSTORE \t\t\tauthContract.getUserRole(msg.s...\n      POP \t\t\tauthContract.getUserRole(msg.s...\n      DUP2 \t\t\tauthContract.getUserRole(msg.s...\n      ADD \t\t\tauthContract.getUserRole(msg.s...\n      SWAP1 \t\t\tauthContract.getUserRole(msg.s...\n      PUSH [tag] 223\t\t\tauthContract.getUserRole(msg.s...\n      SWAP2 \t\t\tauthContract.getUserRole(msg.s...\n      SWAP1 \t\t\tauthContract.getUserRole(msg.s...\n      PUSH [tag] 48\t\t\tauthContract.getUserRole(msg.s...\n      JUMP \t\t\tauthContract.getUserRole(msg.s...\n    tag 223\t\t\tauthContract.getUserRole(msg.s...\n      JUMPDEST \t\t\tauthContract.getUserRole(msg.s...\n      PUSH 40\t\t\tabi.encodePacked(authContract....\n      MLOAD \t\t\tabi.encodePacked(authContract....\n      PUSH 20\t\t\tabi.encodePacked(authContract....\n      ADD \t\t\tabi.encodePacked(authContract....\n      PUSH [tag] 224\t\t\tabi.encodePacked(authContract....\n      SWAP2 \t\t\tabi.encodePacked(authContract....\n      SWAP1 \t\t\tabi.encodePacked(authContract....\n      PUSH [tag] 50\t\t\tabi.encodePacked(authContract....\n      JUMP \t\t\tabi.encodePacked(authContract....\n    tag 224\t\t\tabi.encodePacked(authContract....\n      JUMPDEST \t\t\tabi.encodePacked(authContract....\n      PUSH 40\t\t\tabi.encodePacked(authContract....\n      MLOAD \t\t\tabi.encodePacked(authContract....\n      PUSH 20\t\t\tabi.encodePacked(authContract....\n      DUP2 \t\t\tabi.encodePacked(authContract....\n      DUP4 \t\t\tabi.encodePacked(authContract....\n      SUB \t\t\tabi.encodePacked(authContract....\n      SUB \t\t\tabi.encodePacked(authContract....\n      DUP2 \t\t\tabi.encodePacked(authContract....\n      MSTORE \t\t\tabi.encodePacked(authContract....\n      SWAP1 \t\t\tabi.encodePacked(authContract....\n      PUSH 40\t\t\tabi.encodePacked(authContract....\n      MSTORE \t\t\tabi.encodePacked(authContract....\n      DUP1 \t\t\tkeccak256(abi.encodePacked(aut...\n      MLOAD \t\t\tkeccak256(abi.encodePacked(aut...\n      SWAP1 \t\t\tkeccak256(abi.encodePacked(aut...\n      PUSH 20\t\t\tkeccak256(abi.encodePacked(aut...\n      ADD \t\t\tkeccak256(abi.encodePacked(aut...\n      KECCAK256 \t\t\tkeccak256(abi.encodePacked(aut...\n      SUB \t\t\tkeccak256(abi.encodePacked(aut...\n      PUSH [tag] 225\t\t\trequire(keccak256(abi.encodePa...\n      JUMPI \t\t\trequire(keccak256(abi.encodePa...\n      PUSH 40\t\t\trequire(keccak256(abi.encodePa...\n      MLOAD \t\t\trequire(keccak256(abi.encodePa...\n      PUSH 8C379A000000000000000000000000000000000000000000000000000000000\t\t\trequire(keccak256(abi.encodePa...\n      DUP2 \t\t\trequire(keccak256(abi.encodePa...\n      MSTORE \t\t\trequire(keccak256(abi.encodePa...\n      PUSH 4\t\t\trequire(keccak256(abi.encodePa...\n      ADD \t\t\trequire(keccak256(abi.encodePa...\n      PUSH [tag] 226\t\t\trequire(keccak256(abi.encodePa...\n      SWAP1 \t\t\trequire(keccak256(abi.encodePa...\n      PUSH [tag] 53\t\t\trequire(keccak256(abi.encodePa...\n      JUMP \t\t\trequire(keccak256(abi.encodePa...\n    tag 226\t\t\trequire(keccak256(abi.encodePa...\n      JUMPDEST \t\t\trequire(keccak256(abi.encodePa...\n      PUSH 40\t\t\trequire(keccak256(abi.encodePa...\n      MLOAD \t\t\trequire(keccak256(abi.encodePa...\n      DUP1 \t\t\trequire(keccak256(abi.encodePa...\n      SWAP2 \t\t\trequire(keccak256(abi.encodePa...\n      SUB \t\t\trequire(keccak256(abi.encodePa...\n      SWAP1 \t\t\trequire(keccak256(abi.encodePa...\n      REVERT \t\t\trequire(keccak256(abi.encodePa...\n    tag 225\t\t\trequire(keccak256(abi.encodePa...\n      JUMPDEST \t\t\trequire(keccak256(abi.encodePa...\n      PUSH 3\t\t\tdirectory_names\n      DUP1 \t\t\treturn directory_names\n      SLOAD \t\t\treturn directory_names\n      DUP1 \t\t\treturn directory_names\n      PUSH 20\t\t\treturn directory_names\n      MUL \t\t\treturn directory_names\n      PUSH 20\t\t\treturn directory_names\n      ADD \t\t\treturn directory_names\n      PUSH 40\t\t\treturn directory_names\n      MLOAD \t\t\treturn directory_names\n      SWAP1 \t\t\treturn directory_names\n      DUP2 \t\t\treturn directory_names\n      ADD \t\t\treturn directory_names\n      PUSH 40\t\t\treturn directory_names\n      MSTORE \t\t\treturn directory_names\n      DUP1 \t\t\treturn directory_names\n      SWAP3 \t\t\treturn directory_names\n      SWAP2 \t\t\treturn directory_names\n      SWAP1 \t\t\treturn directory_names\n      DUP2 \t\t\treturn directory_names\n      DUP2 \t\t\treturn directory_names\n      MSTORE \t\t\treturn directory_names\n      PUSH 20\t\t\treturn directory_names\n      ADD \t\t\treturn directory_names\n      PUSH 0\t\t\treturn directory_names\n      SWAP1 \t\t\treturn directory_names\n    tag 228\t\t\treturn directory_names\n      JUMPDEST \t\t\treturn directory_names\n      DUP3 \t\t\treturn directory_names\n      DUP3 \t\t\treturn directory_names\n      LT \t\t\treturn directory_names\n      ISZERO \t\t\treturn directory_names\n      PUSH [tag] 229\t\t\treturn directory_names\n      JUMPI \t\t\treturn directory_names\n      DUP4 \t\t\treturn directory_names\n      DUP3 \t\t\treturn directory_names\n      SWAP1 \t\t\treturn directory_names\n      PUSH 0\t\t\treturn directory_names\n      MSTORE \t\t\treturn directory_names\n      PUSH 20\t\t\treturn directory_names\n      PUSH 0\t\t\treturn directory_names\n      KECCAK256 \t\t\treturn directory_names\n      ADD \t\t\treturn directory_names\n      DUP1 \t\t\treturn directory_names\n      SLOAD \t\t\treturn directory_names\n      PUSH [tag] 231\t\t\treturn directory_names\n      SWAP1 \t\t\treturn directory_names\n      PUSH [tag] 164\t\t\treturn directory_names\n      JUMP \t\t\treturn directory_names\n    tag 231\t\t\treturn directory_names\n      JUMPDEST \t\t\treturn directory_names\n      DUP1 \t\t\treturn directory_names\n      PUSH 1F\t\t\treturn directory_names\n      ADD \t\t\treturn directory_names\n      PUSH 20\t\t\treturn directory_names\n      DUP1 \t\t\treturn directory_names\n      SWAP2 \t\t\treturn directory_names\n      DIV \t\t\treturn directory_names\n      MUL \t\t\treturn directory_names\n      PUSH 20\t\t\treturn directory_names\n      ADD \t\t\treturn directory_names\n      PUSH 40\t\t\treturn directory_names\n      MLOAD \t\t\treturn directory_names\n      SWAP1 \t\t\treturn directory_names\n      DUP2 \t\t\treturn directory_names\n      ADD \t\t\treturn directory_names\n      PUSH 40\t\t\treturn directory_names\n      MSTORE \t\t\treturn directory_names\n      DUP1 \t\t\treturn directory_names\n      SWAP3 \t\t\treturn directory_names\n      SWAP2 \t\t\treturn directory_names\n      SWAP1 \t\t\treturn directory_names\n      DUP2 \t\t\treturn directory_names\n      DUP2 \t\t\treturn directory_names\n      MSTORE \t\t\treturn directory_names\n      PUSH 20\t\t\treturn directory_names\n      ADD \t\t\treturn directory_names\n      DUP3 \t\t\treturn directory_names\n      DUP1 \t\t\treturn directory_names\n      SLOAD \t\t\treturn directory_names\n      PUSH [tag] 232\t\t\treturn directory_names\n      SWAP1 \t\t\treturn directory_names\n      PUSH [tag] 164\t\t\treturn directory_names\n      JUMP \t\t\treturn directory_names\n    tag 232\t\t\treturn directory_names\n      JUMPDEST \t\t\treturn directory_names\n      DUP1 \t\t\treturn directory_names\n      ISZERO \t\t\treturn directory_names\n      PUSH [tag] 233\t\t\treturn directory_names\n      JUMPI \t\t\treturn directory_names\n      DUP1 \t\t\treturn directory_names\n      PUSH 1F\t\t\treturn directory_names\n      LT \t\t\treturn directory_names\n      PUSH [tag] 234\t\t\treturn directory_names\n      JUMPI \t\t\treturn directory_names\n      PUSH 100\t\t\treturn directory_names\n      DUP1 \t\t\treturn directory_names\n      DUP4 \t\t\treturn directory_names\n      SLOAD \t\t\treturn directory_names\n      DIV \t\t\treturn directory_names\n      MUL \t\t\treturn directory_names\n      DUP4 \t\t\treturn directory_names\n      MSTORE \t\t\treturn directory_names\n      SWAP2 \t\t\treturn directory_names\n      PUSH 20\t\t\treturn directory_names\n      ADD \t\t\treturn directory_names\n      SWAP2 \t\t\treturn directory_names\n      PUSH [tag] 233\t\t\treturn directory_names\n      JUMP \t\t\treturn directory_names\n    tag 234\t\t\treturn directory_names\n      JUMPDEST \t\t\treturn directory_names\n      DUP3 \t\t\treturn directory_names\n      ADD \t\t\treturn directory_names\n      SWAP2 \t\t\treturn directory_names\n      SWAP1 \t\t\treturn directory_names\n      PUSH 0\t\t\treturn directory_names\n      MSTORE \t\t\treturn directory_names\n      PUSH 20\t\t\treturn directory_names\n      PUSH 0\t\t\treturn directory_names\n      KECCAK256 \t\t\treturn directory_names\n      SWAP1 \t\t\treturn directory_names\n    tag 235\t\t\treturn directory_names\n      JUMPDEST \t\t\treturn directory_names\n      DUP2 \t\t\treturn directory_names\n      SLOAD \t\t\treturn directory_names\n      DUP2 \t\t\treturn directory_names\n      MSTORE \t\t\treturn directory_names\n      SWAP1 \t\t\treturn directory_names\n      PUSH 1\t\t\treturn directory_names\n      ADD \t\t\treturn directory_names\n      SWAP1 \t\t\treturn directory_names\n      PUSH 20\t\t\treturn directory_names\n      ADD \t\t\treturn directory_names\n      DUP1 \t\t\treturn directory_names\n      DUP4 \t\t\treturn directory_names\n      GT \t\t\treturn directory_names\n      PUSH [tag] 235\t\t\treturn directory_names\n      JUMPI \t\t\treturn directory_names\n      DUP3 \t\t\treturn directory_names\n      SWAP1 \t\t\treturn directory_names\n      SUB \t\t\treturn directory_names\n      PUSH 1F\t\t\treturn directory_names\n      AND \t\t\treturn directory_names\n      DUP3 \t\t\treturn directory_names\n      ADD \t\t\treturn directory_names\n      SWAP2 \t\t\treturn directory_names\n    tag 233\t\t\treturn directory_names\n      JUMPDEST \t\t\treturn directory_names\n      POP \t\t\treturn directory_names\n      POP \t\t\treturn directory_names\n      POP \t\t\treturn directory_names\n      POP \t\t\treturn directory_names\n      POP \t\t\treturn directory_names\n      DUP2 \t\t\treturn directory_names\n      MSTORE \t\t\treturn directory_names\n      PUSH 20\t\t\treturn directory_names\n      ADD \t\t\treturn directory_names\n      SWAP1 \t\t\treturn directory_names\n      PUSH 1\t\t\treturn directory_names\n      ADD \t\t\treturn directory_names\n      SWAP1 \t\t\treturn directory_names\n      PUSH [tag] 228\t\t\treturn directory_names\n      JUMP \t\t\treturn directory_names\n    tag 229\t\t\treturn directory_names\n      JUMPDEST \t\t\treturn directory_names\n      POP \t\t\treturn directory_names\n      POP \t\t\treturn directory_names\n      POP \t\t\treturn directory_names\n      POP \t\t\treturn directory_names\n      SWAP1 \t\t\treturn directory_names\n      POP \t\t\treturn directory_names\n      SWAP1 \t\t\tfunction getDirectories() Only...\n      JUMP \t\t\tfunction getDirectories() Only...\n    tag 39\t\t\tfunction deleteFile(string mem...\n      JUMPDEST \t\t\tfunction deleteFile(string mem...\n      PUSH 40\t\t\tabi.encodePacked(\"\")\n      MLOAD \t\t\tabi.encodePacked(\"\")\n      PUSH 20\t\t\tabi.encodePacked(\"\")\n      ADD \t\t\tabi.encodePacked(\"\")\n      PUSH [tag] 237\t\t\tabi.encodePacked(\"\")\n      SWAP1 \t\t\tabi.encodePacked(\"\")\n      PUSH [tag] 42\t\t\tabi.encodePacked(\"\")\n      JUMP \t\t\tabi.encodePacked(\"\")\n    tag 237\t\t\tabi.encodePacked(\"\")\n      JUMPDEST \t\t\tabi.encodePacked(\"\")\n      PUSH 40\t\t\tabi.encodePacked(\"\")\n      MLOAD \t\t\tabi.encodePacked(\"\")\n      PUSH 20\t\t\tabi.encodePacked(\"\")\n      DUP2 \t\t\tabi.encodePacked(\"\")\n      DUP4 \t\t\tabi.encodePacked(\"\")\n      SUB \t\t\tabi.encodePacked(\"\")\n      SUB \t\t\tabi.encodePacked(\"\")\n      DUP2 \t\t\tabi.encodePacked(\"\")\n      MSTORE \t\t\tabi.encodePacked(\"\")\n      SWAP1 \t\t\tabi.encodePacked(\"\")\n      PUSH 40\t\t\tabi.encodePacked(\"\")\n      MSTORE \t\t\tabi.encodePacked(\"\")\n      DUP1 \t\t\tkeccak256(abi.encodePacked(\"\")...\n      MLOAD \t\t\tkeccak256(abi.encodePacked(\"\")...\n      SWAP1 \t\t\tkeccak256(abi.encodePacked(\"\")...\n      PUSH 20\t\t\tkeccak256(abi.encodePacked(\"\")...\n      ADD \t\t\tkeccak256(abi.encodePacked(\"\")...\n      KECCAK256 \t\t\tkeccak256(abi.encodePacked(\"\")...\n      PUSH 4\t\t\tauthContract\n      PUSH 0\t\t\tauthContract\n      SWAP1 \t\t\tauthContract\n      SLOAD \t\t\tauthContract\n      SWAP1 \t\t\tauthContract\n      PUSH 100\t\t\tauthContract\n      EXP \t\t\tauthContract\n      SWAP1 \t\t\tauthContract\n      DIV \t\t\tauthContract\n      PUSH FFFFFFFFFFFFFFFFFFFFFFFFFFFFFFFFFFFFFFFF\t\t\tauthContract\n      AND \t\t\tauthContract\n      PUSH FFFFFFFFFFFFFFFFFFFFFFFFFFFFFFFFFFFFFFFF\t\t\tauthContract.getUserRole\n      AND \t\t\tauthContract.getUserRole\n      PUSH 27820851\t\t\tauthContract.getUserRole\n      CALLER \t\t\tmsg.sender\n      PUSH 40\t\t\tauthContract.getUserRole(msg.s...\n      MLOAD \t\t\tauthContract.getUserRole(msg.s...\n      DUP3 \t\t\tauthContract.getUserRole(msg.s...\n      PUSH FFFFFFFF\t\t\tauthContract.getUserRole(msg.s...\n      AND \t\t\tauthContract.getUserRole(msg.s...\n      PUSH E0\t\t\tauthContract.getUserRole(msg.s...\n      SHL \t\t\tauthContract.getUserRole(msg.s...\n      DUP2 \t\t\tauthContract.getUserRole(msg.s...\n      MSTORE \t\t\tauthContract.getUserRole(msg.s...\n      PUSH 4\t\t\tauthContract.getUserRole(msg.s...\n      ADD \t\t\tauthContract.getUserRole(msg.s...\n      PUSH [tag] 238\t\t\tauthContract.getUserRole(msg.s...\n      SWAP2 \t\t\tauthContract.getUserRole(msg.s...\n      SWAP1 \t\t\tauthContract.getUserRole(msg.s...\n      PUSH [tag] 44\t\t\tauthContract.getUserRole(msg.s...\n      JUMP \t\t\tauthContract.getUserRole(msg.s...\n    tag 238\t\t\tauthContract.getUserRole(msg.s...\n      JUMPDEST \t\t\tauthContract.getUserRole(msg.s...\n      PUSH 0\t\t\tauthContract.getUserRole(msg.s...\n      PUSH 40\t\t\tauthContract.getUserRole(msg.s...\n      MLOAD \t\t\tauthContract.getUserRole(msg.s...\n      DUP1 \t\t\tauthContract.getUserRole(msg.s...\n      DUP4 \t\t\tauthContract.getUserRole(msg.s...\n      SUB \t\t\tauthContract.getUserRole(msg.s...\n      DUP2 \t\t\tauthContract.getUserRole(msg.s...\n      DUP7 \t\t\tauthContract.getUserRole(msg.s...\n      GAS \t\t\tauthContract.getUserRole(msg.s...\n      STATICCALL \t\t\tauthContract.getUserRole(msg.s...\n      ISZERO \t\t\tauthContract.getUserRole(msg.s...\n      DUP1 \t\t\tauthContract.getUserRole(msg.s...\n      ISZERO \t\t\tauthContract.getUserRole(msg.s...\n      PUSH [tag] 240\t\t\tauthContract.getUserRole(msg.s...\n      JUMPI \t\t\tauthContract.getUserRole(msg.s...\n      RETURNDATASIZE \t\t\tauthContract.getUserRole(msg.s...\n      PUSH 0\t\t\tauthContract.getUserRole(msg.s...\n      DUP1 \t\t\tauthContract.getUserRole(msg.s...\n      RETURNDATACOPY \t\t\tauthContract.getUserRole(msg.s...\n      RETURNDATASIZE \t\t\tauthContract.getUserRole(msg.s...\n      PUSH 0\t\t\tauthContract.getUserRole(msg.s...\n      REVERT \t\t\tauthContract.getUserRole(msg.s...\n    tag 240\t\t\tauthContract.getUserRole(msg.s...\n      JUMPDEST \t\t\tauthContract.getUserRole(msg.s...\n      POP \t\t\tauthContract.getUserRole(msg.s...\n      POP \t\t\tauthContract.getUserRole(msg.s...\n      POP \t\t\tauthContract.getUserRole(msg.s...\n      POP \t\t\tauthContract.getUserRole(msg.s...\n      PUSH 40\t\t\tauthContract.getUserRole(msg.s...\n      MLOAD \t\t\tauthContract.getUserRole(msg.s...\n      RETURNDATASIZE \t\t\tauthContract.getUserRole(msg.s...\n      PUSH 0\t\t\tauthContract.getUserRole(msg.s...\n      DUP3 \t\t\tauthContract.getUserRole(msg.s...\n      RETURNDATACOPY \t\t\tauthContract.getUserRole(msg.s...\n      RETURNDATASIZE \t\t\tauthContract.getUserRole(msg.s...\n      PUSH 1F\t\t\tauthContract.getUserRole(msg.s...\n      NOT \t\t\tauthContract.getUserRole(msg.s...\n      PUSH 1F\t\t\tauthContract.getUserRole(msg.s...\n      DUP3 \t\t\tauthContract.getUserRole(msg.s...\n      ADD \t\t\tauthContract.getUserRole(msg.s...\n      AND \t\t\tauthContract.getUserRole(msg.s...\n      DUP3 \t\t\tauthContract.getUserRole(msg.s...\n      ADD \t\t\tauthContract.getUserRole(msg.s...\n      DUP1 \t\t\tauthContract.getUserRole(msg.s...\n      PUSH 40\t\t\tauthContract.getUserRole(msg.s...\n      MSTORE \t\t\tauthContract.getUserRole(msg.s...\n      POP \t\t\tauthContract.getUserRole(msg.s...\n      DUP2 \t\t\tauthContract.getUserRole(msg.s...\n      ADD \t\t\tauthContract.getUserRole(msg.s...\n      SWAP1 \t\t\tauthContract.getUserRole(msg.s...\n      PUSH [tag] 241\t\t\tauthContract.getUserRole(msg.s...\n      SWAP2 \t\t\tauthContract.getUserRole(msg.s...\n      SWAP1 \t\t\tauthContract.getUserRole(msg.s...\n      PUSH [tag] 48\t\t\tauthContract.getUserRole(msg.s...\n      JUMP \t\t\tauthContract.getUserRole(msg.s...\n    tag 241\t\t\tauthContract.getUserRole(msg.s...\n      JUMPDEST \t\t\tauthContract.getUserRole(msg.s...\n      PUSH 40\t\t\tabi.encodePacked(authContract....\n      MLOAD \t\t\tabi.encodePacked(authContract....\n      PUSH 20\t\t\tabi.encodePacked(authContract....\n      ADD \t\t\tabi.encodePacked(authContract....\n      PUSH [tag] 242\t\t\tabi.encodePacked(authContract....\n      SWAP2 \t\t\tabi.encodePacked(authContract....\n      SWAP1 \t\t\tabi.encodePacked(authContract....\n      PUSH [tag] 50\t\t\tabi.encodePacked(authContract....\n      JUMP \t\t\tabi.encodePacked(authContract....\n    tag 242\t\t\tabi.encodePacked(authContract....\n      JUMPDEST \t\t\tabi.encodePacked(authContract....\n      PUSH 40\t\t\tabi.encodePacked(authContract....\n      MLOAD \t\t\tabi.encodePacked(authContract....\n      PUSH 20\t\t\tabi.encodePacked(authContract....\n      DUP2 \t\t\tabi.encodePacked(authContract....\n      DUP4 \t\t\tabi.encodePacked(authContract....\n      SUB \t\t\tabi.encodePacked(authContract....\n      SUB \t\t\tabi.encodePacked(authContract....\n      DUP2 \t\t\tabi.encodePacked(authContract....\n      MSTORE \t\t\tabi.encodePacked(authContract....\n      SWAP1 \t\t\tabi.encodePacked(authContract....\n      PUSH 40\t\t\tabi.encodePacked(authContract....\n      MSTORE \t\t\tabi.encodePacked(authContract....\n      DUP1 \t\t\tkeccak256(abi.encodePacked(aut...\n      MLOAD \t\t\tkeccak256(abi.encodePacked(aut...\n      SWAP1 \t\t\tkeccak256(abi.encodePacked(aut...\n      PUSH 20\t\t\tkeccak256(abi.encodePacked(aut...\n      ADD \t\t\tkeccak256(abi.encodePacked(aut...\n      KECCAK256 \t\t\tkeccak256(abi.encodePacked(aut...\n      SUB \t\t\tkeccak256(abi.encodePacked(aut...\n      PUSH [tag] 243\t\t\trequire(keccak256(abi.encodePa...\n      JUMPI \t\t\trequire(keccak256(abi.encodePa...\n      PUSH 40\t\t\trequire(keccak256(abi.encodePa...\n      MLOAD \t\t\trequire(keccak256(abi.encodePa...\n      PUSH 8C379A000000000000000000000000000000000000000000000000000000000\t\t\trequire(keccak256(abi.encodePa...\n      DUP2 \t\t\trequire(keccak256(abi.encodePa...\n      MSTORE \t\t\trequire(keccak256(abi.encodePa...\n      PUSH 4\t\t\trequire(keccak256(abi.encodePa...\n      ADD \t\t\trequire(keccak256(abi.encodePa...\n      PUSH [tag] 244\t\t\trequire(keccak256(abi.encodePa...\n      SWAP1 \t\t\trequire(keccak256(abi.encodePa...\n      PUSH [tag] 53\t\t\trequire(keccak256(abi.encodePa...\n      JUMP \t\t\trequire(keccak256(abi.encodePa...\n    tag 244\t\t\trequire(keccak256(abi.encodePa...\n      JUMPDEST \t\t\trequire(keccak256(abi.encodePa...\n      PUSH 40\t\t\trequire(keccak256(abi.encodePa...\n      MLOAD \t\t\trequire(keccak256(abi.encodePa...\n      DUP1 \t\t\trequire(keccak256(abi.encodePa...\n      SWAP2 \t\t\trequire(keccak256(abi.encodePa...\n      SUB \t\t\trequire(keccak256(abi.encodePa...\n      SWAP1 \t\t\trequire(keccak256(abi.encodePa...\n      REVERT \t\t\trequire(keccak256(abi.encodePa...\n    tag 243\t\t\trequire(keccak256(abi.encodePa...\n      JUMPDEST \t\t\trequire(keccak256(abi.encodePa...\n      PUSH 0\t\t\tuint i\n    tag 246\t\t\tfor (uint i = 0; i < Directori...\n      JUMPDEST \t\t\tfor (uint i = 0; i < Directori...\n      PUSH 0\t\t\tDirectories\n      DUP3 \t\t\tdirectory\n      PUSH 40\t\t\tDirectories[directory]\n      MLOAD \t\t\tDirectories[directory]\n      PUSH [tag] 249\t\t\tDirectories[directory]\n      SWAP2 \t\t\tDirectories[directory]\n      SWAP1 \t\t\tDirectories[directory]\n      PUSH [tag] 50\t\t\tDirectories[directory]\n      JUMP \t\t\tDirectories[directory]\n    tag 249\t\t\tDirectories[directory]\n      JUMPDEST \t\t\tDirectories[directory]\n      SWAP1 \t\t\tDirectories[directory]\n      DUP2 \t\t\tDirectories[directory]\n      MSTORE \t\t\tDirectories[directory]\n      PUSH 20\t\t\tDirectories[directory]\n      ADD \t\t\tDirectories[directory]\n      PUSH 40\t\t\tDirectories[directory]\n      MLOAD \t\t\tDirectories[directory]\n      DUP1 \t\t\tDirectories[directory]\n      SWAP2 \t\t\tDirectories[directory]\n      SUB \t\t\tDirectories[directory]\n      SWAP1 \t\t\tDirectories[directory]\n      KECCAK256 \t\t\tDirectories[directory]\n      PUSH 1\t\t\tDirectories[directory].files\n      ADD \t\t\tDirectories[directory].files\n      DUP1 \t\t\tDirectories[directory].files.l...\n      SLOAD \t\t\tDirectories[directory].files.l...\n      SWAP1 \t\t\tDirectories[directory].files.l...\n      POP \t\t\tDirectories[directory].files.l...\n      DUP2 \t\t\ti\n      LT \t\t\ti < Directories[directory].fil...\n      ISZERO \t\t\tfor (uint i = 0; i < Directori...\n      PUSH [tag] 247\t\t\tfor (uint i = 0; i < Directori...\n      JUMPI \t\t\tfor (uint i = 0; i < Directori...\n      DUP3 \t\t\ttitle\n      PUSH 40\t\t\tabi.encodePacked(title)\n      MLOAD \t\t\tabi.encodePacked(title)\n      PUSH 20\t\t\tabi.encodePacked(title)\n      ADD \t\t\tabi.encodePacked(title)\n      PUSH [tag] 250\t\t\tabi.encodePacked(title)\n      SWAP2 \t\t\tabi.encodePacked(title)\n      SWAP1 \t\t\tabi.encodePacked(title)\n      PUSH [tag] 50\t\t\tabi.encodePacked(title)\n      JUMP \t\t\tabi.encodePacked(title)\n    tag 250\t\t\tabi.encodePacked(title)\n      JUMPDEST \t\t\tabi.encodePacked(title)\n      PUSH 40\t\t\tabi.encodePacked(title)\n      MLOAD \t\t\tabi.encodePacked(title)\n      PUSH 20\t\t\tabi.encodePacked(title)\n      DUP2 \t\t\tabi.encodePacked(title)\n      DUP4 \t\t\tabi.encodePacked(title)\n      SUB \t\t\tabi.encodePacked(title)\n      SUB \t\t\tabi.encodePacked(title)\n      DUP2 \t\t\tabi.encodePacked(title)\n      MSTORE \t\t\tabi.encodePacked(title)\n      SWAP1 \t\t\tabi.encodePacked(title)\n      PUSH 40\t\t\tabi.encodePacked(title)\n      MSTORE \t\t\tabi.encodePacked(title)\n      DUP1 \t\t\tkeccak256(abi.encodePacked(tit...\n      MLOAD \t\t\tkeccak256(abi.encodePacked(tit...\n      SWAP1 \t\t\tkeccak256(abi.encodePacked(tit...\n      PUSH 20\t\t\tkeccak256(abi.encodePacked(tit...\n      ADD \t\t\tkeccak256(abi.encodePacked(tit...\n      KECCAK256 \t\t\tkeccak256(abi.encodePacked(tit...\n      PUSH 0\t\t\tDirectories\n      DUP4 \t\t\tdirectory\n      PUSH 40\t\t\tDirectories[directory]\n      MLOAD \t\t\tDirectories[directory]\n      PUSH [tag] 251\t\t\tDirectories[directory]\n      SWAP2 \t\t\tDirectories[directory]\n      SWAP1 \t\t\tDirectories[directory]\n      PUSH [tag] 50\t\t\tDirectories[directory]\n      JUMP \t\t\tDirectories[directory]\n    tag 251\t\t\tDirectories[directory]\n      JUMPDEST \t\t\tDirectories[directory]\n      SWAP1 \t\t\tDirectories[directory]\n      DUP2 \t\t\tDirectories[directory]\n      MSTORE \t\t\tDirectories[directory]\n      PUSH 20\t\t\tDirectories[directory]\n      ADD \t\t\tDirectories[directory]\n      PUSH 40\t\t\tDirectories[directory]\n      MLOAD \t\t\tDirectories[directory]\n      DUP1 \t\t\tDirectories[directory]\n      SWAP2 \t\t\tDirectories[directory]\n      SUB \t\t\tDirectories[directory]\n      SWAP1 \t\t\tDirectories[directory]\n      KECCAK256 \t\t\tDirectories[directory]\n      PUSH 1\t\t\tDirectories[directory].files\n      ADD \t\t\tDirectories[directory].files\n      DUP3 \t\t\ti\n      DUP2 \t\t\tDirectories[directory].files[i...\n      SLOAD \t\t\tDirectories[directory].files[i...\n      DUP2 \t\t\tDirectories[directory].files[i...\n      LT \t\t\tDirectories[directory].files[i...\n      PUSH [tag] 252\t\t\tDirectories[directory].files[i...\n      JUMPI \t\t\tDirectories[directory].files[i...\n      PUSH [tag] 253\t\t\tDirectories[directory].files[i...\n      PUSH [tag] 61\t\t\tDirectories[directory].files[i...\n      JUMP \t\t\tDirectories[directory].files[i...\n    tag 253\t\t\tDirectories[directory].files[i...\n      JUMPDEST \t\t\tDirectories[directory].files[i...\n    tag 252\t\t\tDirectories[directory].files[i...\n      JUMPDEST \t\t\tDirectories[directory].files[i...\n      SWAP1 \t\t\tDirectories[directory].files[i...\n      PUSH 0\t\t\tDirectories[directory].files[i...\n      MSTORE \t\t\tDirectories[directory].files[i...\n      PUSH 20\t\t\tDirectories[directory].files[i...\n      PUSH 0\t\t\tDirectories[directory].files[i...\n      KECCAK256 \t\t\tDirectories[directory].files[i...\n      SWAP1 \t\t\tDirectories[directory].files[i...\n      PUSH 2\t\t\tDirectories[directory].files[i...\n      MUL \t\t\tDirectories[directory].files[i...\n      ADD \t\t\tDirectories[directory].files[i...\n      PUSH 0\t\t\tDirectories[directory].files[i...\n      ADD \t\t\tDirectories[directory].files[i...\n      PUSH 40\t\t\tabi.encodePacked(Directories[d...\n      MLOAD \t\t\tabi.encodePacked(Directories[d...\n      PUSH 20\t\t\tabi.encodePacked(Directories[d...\n      ADD \t\t\tabi.encodePacked(Directories[d...\n      PUSH [tag] 255\t\t\tabi.encodePacked(Directories[d...\n      SWAP2 \t\t\tabi.encodePacked(Directories[d...\n      SWAP1 \t\t\tabi.encodePacked(Directories[d...\n      PUSH [tag] 64\t\t\tabi.encodePacked(Directories[d...\n      JUMP \t\t\tabi.encodePacked(Directories[d...\n    tag 255\t\t\tabi.encodePacked(Directories[d...\n      JUMPDEST \t\t\tabi.encodePacked(Directories[d...\n      PUSH 40\t\t\tabi.encodePacked(Directories[d...\n      MLOAD \t\t\tabi.encodePacked(Directories[d...\n      PUSH 20\t\t\tabi.encodePacked(Directories[d...\n      DUP2 \t\t\tabi.encodePacked(Directories[d...\n      DUP4 \t\t\tabi.encodePacked(Directories[d...\n      SUB \t\t\tabi.encodePacked(Directories[d...\n      SUB \t\t\tabi.encodePacked(Directories[d...\n      DUP2 \t\t\tabi.encodePacked(Directories[d...\n      MSTORE \t\t\tabi.encodePacked(Directories[d...\n      SWAP1 \t\t\tabi.encodePacked(Directories[d...\n      PUSH 40\t\t\tabi.encodePacked(Directories[d...\n      MSTORE \t\t\tabi.encodePacked(Directories[d...\n      DUP1 \t\t\tkeccak256(abi.encodePacked(Dir...\n      MLOAD \t\t\tkeccak256(abi.encodePacked(Dir...\n      SWAP1 \t\t\tkeccak256(abi.encodePacked(Dir...\n      PUSH 20\t\t\tkeccak256(abi.encodePacked(Dir...\n      ADD \t\t\tkeccak256(abi.encodePacked(Dir...\n      KECCAK256 \t\t\tkeccak256(abi.encodePacked(Dir...\n      SUB \t\t\tkeccak256(abi.encodePacked(Dir...\n      PUSH [tag] 256\t\t\tif (keccak256(abi.encodePacked...\n      JUMPI \t\t\tif (keccak256(abi.encodePacked...\n      PUSH [tag] 257\t\t\tcheckUserRole(authContract.get...\n      PUSH 4\t\t\tauthContract\n      PUSH 0\t\t\tauthContract\n      SWAP1 \t\t\tauthContract\n      SLOAD \t\t\tauthContract\n      SWAP1 \t\t\tauthContract\n      PUSH 100\t\t\tauthContract\n      EXP \t\t\tauthContract\n      SWAP1 \t\t\tauthContract\n      DIV \t\t\tauthContract\n      PUSH FFFFFFFFFFFFFFFFFFFFFFFFFFFFFFFFFFFFFFFF\t\t\tauthContract\n      AND \t\t\tauthContract\n      PUSH FFFFFFFFFFFFFFFFFFFFFFFFFFFFFFFFFFFFFFFF\t\t\tauthContract.getUserRole\n      AND \t\t\tauthContract.getUserRole\n      PUSH 27820851\t\t\tauthContract.getUserRole\n      CALLER \t\t\tmsg.sender\n      PUSH 40\t\t\tauthContract.getUserRole(msg.s...\n      MLOAD \t\t\tauthContract.getUserRole(msg.s...\n      DUP3 \t\t\tauthContract.getUserRole(msg.s...\n      PUSH FFFFFFFF\t\t\tauthContract.getUserRole(msg.s...\n      AND \t\t\tauthContract.getUserRole(msg.s...\n      PUSH E0\t\t\tauthContract.getUserRole(msg.s...\n      SHL \t\t\tauthContract.getUserRole(msg.s...\n      DUP2 \t\t\tauthContract.getUserRole(msg.s...\n      MSTORE \t\t\tauthContract.getUserRole(msg.s...\n      PUSH 4\t\t\tauthContract.getUserRole(msg.s...\n      ADD \t\t\tauthContract.getUserRole(msg.s...\n      PUSH [tag] 258\t\t\tauthContract.getUserRole(msg.s...\n      SWAP2 \t\t\tauthContract.getUserRole(msg.s...\n      SWAP1 \t\t\tauthContract.getUserRole(msg.s...\n      PUSH [tag] 44\t\t\tauthContract.getUserRole(msg.s...\n      JUMP \t\t\tauthContract.getUserRole(msg.s...\n    tag 258\t\t\tauthContract.getUserRole(msg.s...\n      JUMPDEST \t\t\tauthContract.getUserRole(msg.s...\n      PUSH 0\t\t\tauthContract.getUserRole(msg.s...\n      PUSH 40\t\t\tauthContract.getUserRole(msg.s...\n      MLOAD \t\t\tauthContract.getUserRole(msg.s...\n      DUP1 \t\t\tauthContract.getUserRole(msg.s...\n      DUP4 \t\t\tauthContract.getUserRole(msg.s...\n      SUB \t\t\tauthContract.getUserRole(msg.s...\n      DUP2 \t\t\tauthContract.getUserRole(msg.s...\n      DUP7 \t\t\tauthContract.getUserRole(msg.s...\n      GAS \t\t\tauthContract.getUserRole(msg.s...\n      STATICCALL \t\t\tauthContract.getUserRole(msg.s...\n      ISZERO \t\t\tauthContract.getUserRole(msg.s...\n      DUP1 \t\t\tauthContract.getUserRole(msg.s...\n      ISZERO \t\t\tauthContract.getUserRole(msg.s...\n      PUSH [tag] 260\t\t\tauthContract.getUserRole(msg.s...\n      JUMPI \t\t\tauthContract.getUserRole(msg.s...\n      RETURNDATASIZE \t\t\tauthContract.getUserRole(msg.s...\n      PUSH 0\t\t\tauthContract.getUserRole(msg.s...\n      DUP1 \t\t\tauthContract.getUserRole(msg.s...\n      RETURNDATACOPY \t\t\tauthContract.getUserRole(msg.s...\n      RETURNDATASIZE \t\t\tauthContract.getUserRole(msg.s...\n      PUSH 0\t\t\tauthContract.getUserRole(msg.s...\n      REVERT \t\t\tauthContract.getUserRole(msg.s...\n    tag 260\t\t\tauthContract.getUserRole(msg.s...\n      JUMPDEST \t\t\tauthContract.getUserRole(msg.s...\n      POP \t\t\tauthContract.getUserRole(msg.s...\n      POP \t\t\tauthContract.getUserRole(msg.s...\n      POP \t\t\tauthContract.getUserRole(msg.s...\n      POP \t\t\tauthContract.getUserRole(msg.s...\n      PUSH 40\t\t\tauthContract.getUserRole(msg.s...\n      MLOAD \t\t\tauthContract.getUserRole(msg.s...\n      RETURNDATASIZE \t\t\tauthContract.getUserRole(msg.s...\n      PUSH 0\t\t\tauthContract.getUserRole(msg.s...\n      DUP3 \t\t\tauthContract.getUserRole(msg.s...\n      RETURNDATACOPY \t\t\tauthContract.getUserRole(msg.s...\n      RETURNDATASIZE \t\t\tauthContract.getUserRole(msg.s...\n      PUSH 1F\t\t\tauthContract.getUserRole(msg.s...\n      NOT \t\t\tauthContract.getUserRole(msg.s...\n      PUSH 1F\t\t\tauthContract.getUserRole(msg.s...\n      DUP3 \t\t\tauthContract.getUserRole(msg.s...\n      ADD \t\t\tauthContract.getUserRole(msg.s...\n      AND \t\t\tauthContract.getUserRole(msg.s...\n      DUP3 \t\t\tauthContract.getUserRole(msg.s...\n      ADD \t\t\tauthContract.getUserRole(msg.s...\n      DUP1 \t\t\tauthContract.getUserRole(msg.s...\n      PUSH 40\t\t\tauthContract.getUserRole(msg.s...\n      MSTORE \t\t\tauthContract.getUserRole(msg.s...\n      POP \t\t\tauthContract.getUserRole(msg.s...\n      DUP2 \t\t\tauthContract.getUserRole(msg.s...\n      ADD \t\t\tauthContract.getUserRole(msg.s...\n      SWAP1 \t\t\tauthContract.getUserRole(msg.s...\n      PUSH [tag] 261\t\t\tauthContract.getUserRole(msg.s...\n      SWAP2 \t\t\tauthContract.getUserRole(msg.s...\n      SWAP1 \t\t\tauthContract.getUserRole(msg.s...\n      PUSH [tag] 48\t\t\tauthContract.getUserRole(msg.s...\n      JUMP \t\t\tauthContract.getUserRole(msg.s...\n    tag 261\t\t\tauthContract.getUserRole(msg.s...\n      JUMPDEST \t\t\tauthContract.getUserRole(msg.s...\n      PUSH 0\t\t\tDirectories\n      DUP5 \t\t\tdirectory\n      PUSH 40\t\t\tDirectories[directory]\n      MLOAD \t\t\tDirectories[directory]\n      PUSH [tag] 262\t\t\tDirectories[directory]\n      SWAP2 \t\t\tDirectories[directory]\n      SWAP1 \t\t\tDirectories[directory]\n      PUSH [tag] 50\t\t\tDirectories[directory]\n      JUMP \t\t\tDirectories[directory]\n    tag 262\t\t\tDirectories[directory]\n      JUMPDEST \t\t\tDirectories[directory]\n      SWAP1 \t\t\tDirectories[directory]\n      DUP2 \t\t\tDirectories[directory]\n      MSTORE \t\t\tDirectories[directory]\n      PUSH 20\t\t\tDirectories[directory]\n      ADD \t\t\tDirectories[directory]\n      PUSH 40\t\t\tDirectories[directory]\n      MLOAD \t\t\tDirectories[directory]\n      DUP1 \t\t\tDirectories[directory]\n      SWAP2 \t\t\tDirectories[directory]\n      SUB \t\t\tDirectories[directory]\n      SWAP1 \t\t\tDirectories[directory]\n      KECCAK256 \t\t\tDirectories[directory]\n      PUSH 1\t\t\tDirectories[directory].files\n      ADD \t\t\tDirectories[directory].files\n      DUP4 \t\t\ti\n      DUP2 \t\t\tDirectories[directory].files[i...\n      SLOAD \t\t\tDirectories[directory].files[i...\n      DUP2 \t\t\tDirectories[directory].files[i...\n      LT \t\t\tDirectories[directory].files[i...\n      PUSH [tag] 263\t\t\tDirectories[directory].files[i...\n      JUMPI \t\t\tDirectories[directory].files[i...\n      PUSH [tag] 264\t\t\tDirectories[directory].files[i...\n      PUSH [tag] 61\t\t\tDirectories[directory].files[i...\n      JUMP \t\t\tDirectories[directory].files[i...\n    tag 264\t\t\tDirectories[directory].files[i...\n      JUMPDEST \t\t\tDirectories[directory].files[i...\n    tag 263\t\t\tDirectories[directory].files[i...\n      JUMPDEST \t\t\tDirectories[directory].files[i...\n      SWAP1 \t\t\tDirectories[directory].files[i...\n      PUSH 0\t\t\tDirectories[directory].files[i...\n      MSTORE \t\t\tDirectories[directory].files[i...\n      PUSH 20\t\t\tDirectories[directory].files[i...\n      PUSH 0\t\t\tDirectories[directory].files[i...\n      KECCAK256 \t\t\tDirectories[directory].files[i...\n      SWAP1 \t\t\tDirectories[directory].files[i...\n      PUSH 2\t\t\tDirectories[directory].files[i...\n      MUL \t\t\tDirectories[directory].files[i...\n      ADD \t\t\tDirectories[directory].files[i...\n      PUSH 1\t\t\tDirectories[directory].files[i...\n      ADD \t\t\tDirectories[directory].files[i...\n      DUP1 \t\t\tcheckUserRole(authContract.get...\n      SLOAD \t\t\tcheckUserRole(authContract.get...\n      DUP1 \t\t\tcheckUserRole(authContract.get...\n      PUSH 20\t\t\tcheckUserRole(authContract.get...\n      MUL \t\t\tcheckUserRole(authContract.get...\n      PUSH 20\t\t\tcheckUserRole(authContract.get...\n      ADD \t\t\tcheckUserRole(authContract.get...\n      PUSH 40\t\t\tcheckUserRole(authContract.get...\n      MLOAD \t\t\tcheckUserRole(authContract.get...\n      SWAP1 \t\t\tcheckUserRole(authContract.get...\n      DUP2 \t\t\tcheckUserRole(authContract.get...\n      ADD \t\t\tcheckUserRole(authContract.get...\n      PUSH 40\t\t\tcheckUserRole(authContract.get...\n      MSTORE \t\t\tcheckUserRole(authContract.get...\n      DUP1 \t\t\tcheckUserRole(authContract.get...\n      SWAP3 \t\t\tcheckUserRole(authContract.get...\n      SWAP2 \t\t\tcheckUserRole(authContract.get...\n      SWAP1 \t\t\tcheckUserRole(authContract.get...\n      DUP2 \t\t\tcheckUserRole(authContract.get...\n      DUP2 \t\t\tcheckUserRole(authContract.get...\n      MSTORE \t\t\tcheckUserRole(authContract.get...\n      PUSH 20\t\t\tcheckUserRole(authContract.get...\n      ADD \t\t\tcheckUserRole(authContract.get...\n      PUSH 0\t\t\tcheckUserRole(authContract.get...\n      SWAP1 \t\t\tcheckUserRole(authContract.get...\n    tag 266\t\t\tcheckUserRole(authContract.get...\n      JUMPDEST \t\t\tcheckUserRole(authContract.get...\n      DUP3 \t\t\tcheckUserRole(authContract.get...\n      DUP3 \t\t\tcheckUserRole(authContract.get...\n      LT \t\t\tcheckUserRole(authContract.get...\n      ISZERO \t\t\tcheckUserRole(authContract.get...\n      PUSH [tag] 267\t\t\tcheckUserRole(authContract.get...\n      JUMPI \t\t\tcheckUserRole(authContract.get...\n      DUP4 \t\t\tcheckUserRole(authContract.get...\n      DUP3 \t\t\tcheckUserRole(authContract.get...\n      SWAP1 \t\t\tcheckUserRole(authContract.get...\n      PUSH 0\t\t\tcheckUserRole(authContract.get...\n      MSTORE \t\t\tcheckUserRole(authContract.get...\n      PUSH 20\t\t\tcheckUserRole(authContract.get...\n      PUSH 0\t\t\tcheckUserRole(authContract.get...\n      KECCAK256 \t\t\tcheckUserRole(authContract.get...\n      ADD \t\t\tcheckUserRole(authContract.get...\n      DUP1 \t\t\tcheckUserRole(authContract.get...\n      SLOAD \t\t\tcheckUserRole(authContract.get...\n      PUSH [tag] 269\t\t\tcheckUserRole(authContract.get...\n      SWAP1 \t\t\tcheckUserRole(authContract.get...\n      PUSH [tag] 164\t\t\tcheckUserRole(authContract.get...\n      JUMP \t\t\tcheckUserRole(authContract.get...\n    tag 269\t\t\tcheckUserRole(authContract.get...\n      JUMPDEST \t\t\tcheckUserRole(authContract.get...\n      DUP1 \t\t\tcheckUserRole(authContract.get...\n      PUSH 1F\t\t\tcheckUserRole(authContract.get...\n      ADD \t\t\tcheckUserRole(authContract.get...\n      PUSH 20\t\t\tcheckUserRole(authContract.get...\n      DUP1 \t\t\tcheckUserRole(authContract.get...\n      SWAP2 \t\t\tcheckUserRole(authContract.get...\n      DIV \t\t\tcheckUserRole(authContract.get...\n      MUL \t\t\tcheckUserRole(authContract.get...\n      PUSH 20\t\t\tcheckUserRole(authContract.get...\n      ADD \t\t\tcheckUserRole(authContract.get...\n      PUSH 40\t\t\tcheckUserRole(authContract.get...\n      MLOAD \t\t\tcheckUserRole(authContract.get...\n      SWAP1 \t\t\tcheckUserRole(authContract.get...\n      DUP2 \t\t\tcheckUserRole(authContract.get...\n      ADD \t\t\tcheckUserRole(authContract.get...\n      PUSH 40\t\t\tcheckUserRole(authContract.get...\n      MSTORE \t\t\tcheckUserRole(authContract.get...\n      DUP1 \t\t\tcheckUserRole(authContract.get...\n      SWAP3 \t\t\tcheckUserRole(authContract.get...\n      SWAP2 \t\t\tcheckUserRole(authContract.get...\n      SWAP1 \t\t\tcheckUserRole(authContract.get...\n      DUP2 \t\t\tcheckUserRole(authContract.get...\n      DUP2 \t\t\tcheckUserRole(authContract.get...\n      MSTORE \t\t\tcheckUserRole(authContract.get...\n      PUSH 20\t\t\tcheckUserRole(authContract.get...\n      ADD \t\t\tcheckUserRole(authContract.get...\n      DUP3 \t\t\tcheckUserRole(authContract.get...\n      DUP1 \t\t\tcheckUserRole(authContract.get...\n      SLOAD \t\t\tcheckUserRole(authContract.get...\n      PUSH [tag] 270\t\t\tcheckUserRole(authContract.get...\n      SWAP1 \t\t\tcheckUserRole(authContract.get...\n      PUSH [tag] 164\t\t\tcheckUserRole(authContract.get...\n      JUMP \t\t\tcheckUserRole(authContract.get...\n    tag 270\t\t\tcheckUserRole(authContract.get...\n      JUMPDEST \t\t\tcheckUserRole(authContract.get...\n      DUP1 \t\t\tcheckUserRole(authContract.get...\n      ISZERO \t\t\tcheckUserRole(authContract.get...\n      PUSH [tag] 271\t\t\tcheckUserRole(authContract.get...\n      JUMPI \t\t\tcheckUserRole(authContract.get...\n      DUP1 \t\t\tcheckUserRole(authContract.get...\n      PUSH 1F\t\t\tcheckUserRole(authContract.get...\n      LT \t\t\tcheckUserRole(authContract.get...\n      PUSH [tag] 272\t\t\tcheckUserRole(authContract.get...\n      JUMPI \t\t\tcheckUserRole(authContract.get...\n      PUSH 100\t\t\tcheckUserRole(authContract.get...\n      DUP1 \t\t\tcheckUserRole(authContract.get...\n      DUP4 \t\t\tcheckUserRole(authContract.get...\n      SLOAD \t\t\tcheckUserRole(authContract.get...\n      DIV \t\t\tcheckUserRole(authContract.get...\n      MUL \t\t\tcheckUserRole(authContract.get...\n      DUP4 \t\t\tcheckUserRole(authContract.get...\n      MSTORE \t\t\tcheckUserRole(authContract.get...\n      SWAP2 \t\t\tcheckUserRole(authContract.get...\n      PUSH 20\t\t\tcheckUserRole(authContract.get...\n      ADD \t\t\tcheckUserRole(authContract.get...\n      SWAP2 \t\t\tcheckUserRole(authContract.get...\n      PUSH [tag] 271\t\t\tcheckUserRole(authContract.get...\n      JUMP \t\t\tcheckUserRole(authContract.get...\n    tag 272\t\t\tcheckUserRole(authContract.get...\n      JUMPDEST \t\t\tcheckUserRole(authContract.get...\n      DUP3 \t\t\tcheckUserRole(authContract.get...\n      ADD \t\t\tcheckUserRole(authContract.get...\n      SWAP2 \t\t\tcheckUserRole(authContract.get...\n      SWAP1 \t\t\tcheckUserRole(authContract.get...\n      PUSH 0\t\t\tcheckUserRole(authContract.get...\n      MSTORE \t\t\tcheckUserRole(authContract.get...\n      PUSH 20\t\t\tcheckUserRole(authContract.get...\n      PUSH 0\t\t\tcheckUserRole(authContract.get...\n      KECCAK256 \t\t\tcheckUserRole(authContract.get...\n      SWAP1 \t\t\tcheckUserRole(authContract.get...\n    tag 273\t\t\tcheckUserRole(authContract.get...\n      JUMPDEST \t\t\tcheckUserRole(authContract.get...\n      DUP2 \t\t\tcheckUserRole(authContract.get...\n      SLOAD \t\t\tcheckUserRole(authContract.get...\n      DUP2 \t\t\tcheckUserRole(authContract.get...\n      MSTORE \t\t\tcheckUserRole(authContract.get...\n      SWAP1 \t\t\tcheckUserRole(authContract.get...\n      PUSH 1\t\t\tcheckUserRole(authContract.get...\n      ADD \t\t\tcheckUserRole(authContract.get...\n      SWAP1 \t\t\tcheckUserRole(authContract.get...\n      PUSH 20\t\t\tcheckUserRole(authContract.get...\n      ADD \t\t\tcheckUserRole(authContract.get...\n      DUP1 \t\t\tcheckUserRole(authContract.get...\n      DUP4 \t\t\tcheckUserRole(authContract.get...\n      GT \t\t\tcheckUserRole(authContract.get...\n      PUSH [tag] 273\t\t\tcheckUserRole(authContract.get...\n      JUMPI \t\t\tcheckUserRole(authContract.get...\n      DUP3 \t\t\tcheckUserRole(authContract.get...\n      SWAP1 \t\t\tcheckUserRole(authContract.get...\n      SUB \t\t\tcheckUserRole(authContract.get...\n      PUSH 1F\t\t\tcheckUserRole(authContract.get...\n      AND \t\t\tcheckUserRole(authContract.get...\n      DUP3 \t\t\tcheckUserRole(authContract.get...\n      ADD \t\t\tcheckUserRole(authContract.get...\n      SWAP2 \t\t\tcheckUserRole(authContract.get...\n    tag 271\t\t\tcheckUserRole(authContract.get...\n      JUMPDEST \t\t\tcheckUserRole(authContract.get...\n      POP \t\t\tcheckUserRole(authContract.get...\n      POP \t\t\tcheckUserRole(authContract.get...\n      POP \t\t\tcheckUserRole(authContract.get...\n      POP \t\t\tcheckUserRole(authContract.get...\n      POP \t\t\tcheckUserRole(authContract.get...\n      DUP2 \t\t\tcheckUserRole(authContract.get...\n      MSTORE \t\t\tcheckUserRole(authContract.get...\n      PUSH 20\t\t\tcheckUserRole(authContract.get...\n      ADD \t\t\tcheckUserRole(authContract.get...\n      SWAP1 \t\t\tcheckUserRole(authContract.get...\n      PUSH 1\t\t\tcheckUserRole(authContract.get...\n      ADD \t\t\tcheckUserRole(authContract.get...\n      SWAP1 \t\t\tcheckUserRole(authContract.get...\n      PUSH [tag] 266\t\t\tcheckUserRole(authContract.get...\n      JUMP \t\t\tcheckUserRole(authContract.get...\n    tag 267\t\t\tcheckUserRole(authContract.get...\n      JUMPDEST \t\t\tcheckUserRole(authContract.get...\n      POP \t\t\tcheckUserRole(authContract.get...\n      POP \t\t\tcheckUserRole(authContract.get...\n      POP \t\t\tcheckUserRole(authContract.get...\n      POP \t\t\tcheckUserRole(authContract.get...\n      PUSH [tag] 169\t\t\tcheckUserRole\n      JUMP \t\t\tcheckUserRole(authContract.get...\n    tag 257\t\t\tcheckUserRole(authContract.get...\n      JUMPDEST \t\t\tcheckUserRole(authContract.get...\n      PUSH [tag] 274\t\t\trequire(checkUserRole(authCont...\n      JUMPI \t\t\trequire(checkUserRole(authCont...\n      PUSH 40\t\t\trequire(checkUserRole(authCont...\n      MLOAD \t\t\trequire(checkUserRole(authCont...\n      PUSH 8C379A000000000000000000000000000000000000000000000000000000000\t\t\trequire(checkUserRole(authCont...\n      DUP2 \t\t\trequire(checkUserRole(authCont...\n      MSTORE \t\t\trequire(checkUserRole(authCont...\n      PUSH 4\t\t\trequire(checkUserRole(authCont...\n      ADD \t\t\trequire(checkUserRole(authCont...\n      PUSH [tag] 275\t\t\trequire(checkUserRole(authCont...\n      SWAP1 \t\t\trequire(checkUserRole(authCont...\n      PUSH [tag] 172\t\t\trequire(checkUserRole(authCont...\n      JUMP \t\t\trequire(checkUserRole(authCont...\n    tag 275\t\t\trequire(checkUserRole(authCont...\n      JUMPDEST \t\t\trequire(checkUserRole(authCont...\n      PUSH 40\t\t\trequire(checkUserRole(authCont...\n      MLOAD \t\t\trequire(checkUserRole(authCont...\n      DUP1 \t\t\trequire(checkUserRole(authCont...\n      SWAP2 \t\t\trequire(checkUserRole(authCont...\n      SUB \t\t\trequire(checkUserRole(authCont...\n      SWAP1 \t\t\trequire(checkUserRole(authCont...\n      REVERT \t\t\trequire(checkUserRole(authCont...\n    tag 274\t\t\trequire(checkUserRole(authCont...\n      JUMPDEST \t\t\trequire(checkUserRole(authCont...\n      PUSH 0\t\t\tDirectories\n      DUP3 \t\t\tdirectory\n      PUSH 40\t\t\tDirectories[directory]\n      MLOAD \t\t\tDirectories[directory]\n      PUSH [tag] 276\t\t\tDirectories[directory]\n      SWAP2 \t\t\tDirectories[directory]\n      SWAP1 \t\t\tDirectories[directory]\n      PUSH [tag] 50\t\t\tDirectories[directory]\n      JUMP \t\t\tDirectories[directory]\n    tag 276\t\t\tDirectories[directory]\n      JUMPDEST \t\t\tDirectories[directory]\n      SWAP1 \t\t\tDirectories[directory]\n      DUP2 \t\t\tDirectories[directory]\n      MSTORE \t\t\tDirectories[directory]\n      PUSH 20\t\t\tDirectories[directory]\n      ADD \t\t\tDirectories[directory]\n      PUSH 40\t\t\tDirectories[directory]\n      MLOAD \t\t\tDirectories[directory]\n      DUP1 \t\t\tDirectories[directory]\n      SWAP2 \t\t\tDirectories[directory]\n      SUB \t\t\tDirectories[directory]\n      SWAP1 \t\t\tDirectories[directory]\n      KECCAK256 \t\t\tDirectories[directory]\n      PUSH 1\t\t\tDirectories[directory].files\n      ADD \t\t\tDirectories[directory].files\n      PUSH 1\t\t\t1\n      PUSH 0\t\t\tDirectories\n      DUP5 \t\t\tdirectory\n      PUSH 40\t\t\tDirectories[directory]\n      MLOAD \t\t\tDirectories[directory]\n      PUSH [tag] 277\t\t\tDirectories[directory]\n      SWAP2 \t\t\tDirectories[directory]\n      SWAP1 \t\t\tDirectories[directory]\n      PUSH [tag] 50\t\t\tDirectories[directory]\n      JUMP \t\t\tDirectories[directory]\n    tag 277\t\t\tDirectories[directory]\n      JUMPDEST \t\t\tDirectories[directory]\n      SWAP1 \t\t\tDirectories[directory]\n      DUP2 \t\t\tDirectories[directory]\n      MSTORE \t\t\tDirectories[directory]\n      PUSH 20\t\t\tDirectories[directory]\n      ADD \t\t\tDirectories[directory]\n      PUSH 40\t\t\tDirectories[directory]\n      MLOAD \t\t\tDirectories[directory]\n      DUP1 \t\t\tDirectories[directory]\n      SWAP2 \t\t\tDirectories[directory]\n      SUB \t\t\tDirectories[directory]\n      SWAP1 \t\t\tDirectories[directory]\n      KECCAK256 \t\t\tDirectories[directory]\n      PUSH 1\t\t\tDirectories[directory].files\n      ADD \t\t\tDirectories[directory].files\n      DUP1 \t\t\tDirectories[directory].files.l...\n      SLOAD \t\t\tDirectories[directory].files.l...\n      SWAP1 \t\t\tDirectories[directory].files.l...\n      POP \t\t\tDirectories[directory].files.l...\n      PUSH [tag] 278\t\t\tDirectories[directory].files.l...\n      SWAP2 \t\t\tDirectories[directory].files.l...\n      SWAP1 \t\t\tDirectories[directory].files.l...\n      PUSH [tag] 67\t\t\tDirectories[directory].files.l...\n      JUMP \t\t\tDirectories[directory].files.l...\n    tag 278\t\t\tDirectories[directory].files.l...\n      JUMPDEST \t\t\tDirectories[directory].files.l...\n      DUP2 \t\t\tDirectories[directory].files[D...\n      SLOAD \t\t\tDirectories[directory].files[D...\n      DUP2 \t\t\tDirectories[directory].files[D...\n      LT \t\t\tDirectories[directory].files[D...\n      PUSH [tag] 279\t\t\tDirectories[directory].files[D...\n      JUMPI \t\t\tDirectories[directory].files[D...\n      PUSH [tag] 280\t\t\tDirectories[directory].files[D...\n      PUSH [tag] 61\t\t\tDirectories[directory].files[D...\n      JUMP \t\t\tDirectories[directory].files[D...\n    tag 280\t\t\tDirectories[directory].files[D...\n      JUMPDEST \t\t\tDirectories[directory].files[D...\n    tag 279\t\t\tDirectories[directory].files[D...\n      JUMPDEST \t\t\tDirectories[directory].files[D...\n      SWAP1 \t\t\tDirectories[directory].files[D...\n      PUSH 0\t\t\tDirectories[directory].files[D...\n      MSTORE \t\t\tDirectories[directory].files[D...\n      PUSH 20\t\t\tDirectories[directory].files[D...\n      PUSH 0\t\t\tDirectories[directory].files[D...\n      KECCAK256 \t\t\tDirectories[directory].files[D...\n      SWAP1 \t\t\tDirectories[directory].files[D...\n      PUSH 2\t\t\tDirectories[directory].files[D...\n      MUL \t\t\tDirectories[directory].files[D...\n      ADD \t\t\tDirectories[directory].files[D...\n      PUSH 0\t\t\tDirectories\n      DUP4 \t\t\tdirectory\n      PUSH 40\t\t\tDirectories[directory]\n      MLOAD \t\t\tDirectories[directory]\n      PUSH [tag] 282\t\t\tDirectories[directory]\n      SWAP2 \t\t\tDirectories[directory]\n      SWAP1 \t\t\tDirectories[directory]\n      PUSH [tag] 50\t\t\tDirectories[directory]\n      JUMP \t\t\tDirectories[directory]\n    tag 282\t\t\tDirectories[directory]\n      JUMPDEST \t\t\tDirectories[directory]\n      SWAP1 \t\t\tDirectories[directory]\n      DUP2 \t\t\tDirectories[directory]\n      MSTORE \t\t\tDirectories[directory]\n      PUSH 20\t\t\tDirectories[directory]\n      ADD \t\t\tDirectories[directory]\n      PUSH 40\t\t\tDirectories[directory]\n      MLOAD \t\t\tDirectories[directory]\n      DUP1 \t\t\tDirectories[directory]\n      SWAP2 \t\t\tDirectories[directory]\n      SUB \t\t\tDirectories[directory]\n      SWAP1 \t\t\tDirectories[directory]\n      KECCAK256 \t\t\tDirectories[directory]\n      PUSH 1\t\t\tDirectories[directory].files\n      ADD \t\t\tDirectories[directory].files\n      DUP3 \t\t\ti\n      DUP2 \t\t\tDirectories[directory].files[i...\n      SLOAD \t\t\tDirectories[directory].files[i...\n      DUP2 \t\t\tDirectories[directory].files[i...\n      LT \t\t\tDirectories[directory].files[i...\n      PUSH [tag] 283\t\t\tDirectories[directory].files[i...\n      JUMPI \t\t\tDirectories[directory].files[i...\n      PUSH [tag] 284\t\t\tDirectories[directory].files[i...\n      PUSH [tag] 61\t\t\tDirectories[directory].files[i...\n      JUMP \t\t\tDirectories[directory].files[i...\n    tag 284\t\t\tDirectories[directory].files[i...\n      JUMPDEST \t\t\tDirectories[directory].files[i...\n    tag 283\t\t\tDirectories[directory].files[i...\n      JUMPDEST \t\t\tDirectories[directory].files[i...\n      SWAP1 \t\t\tDirectories[directory].files[i...\n      PUSH 0\t\t\tDirectories[directory].files[i...\n      MSTORE \t\t\tDirectories[directory].files[i...\n      PUSH 20\t\t\tDirectories[directory].files[i...\n      PUSH 0\t\t\tDirectories[directory].files[i...\n      KECCAK256 \t\t\tDirectories[directory].files[i...\n      SWAP1 \t\t\tDirectories[directory].files[i...\n      PUSH 2\t\t\tDirectories[directory].files[i...\n      MUL \t\t\tDirectories[directory].files[i...\n      ADD \t\t\tDirectories[directory].files[i...\n      PUSH 0\t\t\tDirectories[directory].files[i...\n      DUP3 \t\t\tDirectories[directory].files[i...\n      ADD \t\t\tDirectories[directory].files[i...\n      DUP2 \t\t\tDirectories[directory].files[i...\n      PUSH 0\t\t\tDirectories[directory].files[i...\n      ADD \t\t\tDirectories[directory].files[i...\n      SWAP1 \t\t\tDirectories[directory].files[i...\n      DUP2 \t\t\tDirectories[directory].files[i...\n      PUSH [tag] 286\t\t\tDirectories[directory].files[i...\n      SWAP2 \t\t\tDirectories[directory].files[i...\n      SWAP1 \t\t\tDirectories[directory].files[i...\n      PUSH [tag] 287\t\t\tDirectories[directory].files[i...\n      JUMP \t\t\tDirectories[directory].files[i...\n    tag 286\t\t\tDirectories[directory].files[i...\n      JUMPDEST \t\t\tDirectories[directory].files[i...\n      POP \t\t\tDirectories[directory].files[i...\n      PUSH 1\t\t\tDirectories[directory].files[i...\n      DUP3 \t\t\tDirectories[directory].files[i...\n      ADD \t\t\tDirectories[directory].files[i...\n      DUP2 \t\t\tDirectories[directory].files[i...\n      PUSH 1\t\t\tDirectories[directory].files[i...\n      ADD \t\t\tDirectories[directory].files[i...\n      SWAP1 \t\t\tDirectories[directory].files[i...\n      DUP1 \t\t\tDirectories[directory].files[i...\n      SLOAD \t\t\tDirectories[directory].files[i...\n      PUSH [tag] 288\t\t\tDirectories[directory].files[i...\n      SWAP3 \t\t\tDirectories[directory].files[i...\n      SWAP2 \t\t\tDirectories[directory].files[i...\n      SWAP1 \t\t\tDirectories[directory].files[i...\n      PUSH [tag] 289\t\t\tDirectories[directory].files[i...\n      JUMP \t\t\tDirectories[directory].files[i...\n    tag 288\t\t\tDirectories[directory].files[i...\n      JUMPDEST \t\t\tDirectories[directory].files[i...\n      POP \t\t\tDirectories[directory].files[i...\n      SWAP1 \t\t\tDirectories[directory].files[i...\n      POP \t\t\tDirectories[directory].files[i...\n      POP \t\t\tDirectories[directory].files[i...\n      PUSH 0\t\t\tDirectories\n      DUP3 \t\t\tdirectory\n      PUSH 40\t\t\tDirectories[directory]\n      MLOAD \t\t\tDirectories[directory]\n      PUSH [tag] 290\t\t\tDirectories[directory]\n      SWAP2 \t\t\tDirectories[directory]\n      SWAP1 \t\t\tDirectories[directory]\n      PUSH [tag] 50\t\t\tDirectories[directory]\n      JUMP \t\t\tDirectories[directory]\n    tag 290\t\t\tDirectories[directory]\n      JUMPDEST \t\t\tDirectories[directory]\n      SWAP1 \t\t\tDirectories[directory]\n      DUP2 \t\t\tDirectories[directory]\n      MSTORE \t\t\tDirectories[directory]\n      PUSH 20\t\t\tDirectories[directory]\n      ADD \t\t\tDirectories[directory]\n      PUSH 40\t\t\tDirectories[directory]\n      MLOAD \t\t\tDirectories[directory]\n      DUP1 \t\t\tDirectories[directory]\n      SWAP2 \t\t\tDirectories[directory]\n      SUB \t\t\tDirectories[directory]\n      SWAP1 \t\t\tDirectories[directory]\n      KECCAK256 \t\t\tDirectories[directory]\n      PUSH 1\t\t\tDirectories[directory].files\n      ADD \t\t\tDirectories[directory].files\n      DUP1 \t\t\tDirectories[directory].files.p...\n      SLOAD \t\t\tDirectories[directory].files.p...\n      DUP1 \t\t\tDirectories[directory].files.p...\n      PUSH [tag] 291\t\t\tDirectories[directory].files.p...\n      JUMPI \t\t\tDirectories[directory].files.p...\n      PUSH [tag] 292\t\t\tDirectories[directory].files.p...\n      PUSH [tag] 78\t\t\tDirectories[directory].files.p...\n      JUMP \t\t\tDirectories[directory].files.p...\n    tag 292\t\t\tDirectories[directory].files.p...\n      JUMPDEST \t\t\tDirectories[directory].files.p...\n    tag 291\t\t\tDirectories[directory].files.p...\n      JUMPDEST \t\t\tDirectories[directory].files.p...\n      PUSH 1\t\t\tDirectories[directory].files.p...\n      SWAP1 \t\t\tDirectories[directory].files.p...\n      SUB \t\t\tDirectories[directory].files.p...\n      DUP2 \t\t\tDirectories[directory].files.p...\n      DUP2 \t\t\tDirectories[directory].files.p...\n      SWAP1 \t\t\tDirectories[directory].files.p...\n      PUSH 0\t\t\tDirectories[directory].files.p...\n      MSTORE \t\t\tDirectories[directory].files.p...\n      PUSH 20\t\t\tDirectories[directory].files.p...\n      PUSH 0\t\t\tDirectories[directory].files.p...\n      KECCAK256 \t\t\tDirectories[directory].files.p...\n      SWAP1 \t\t\tDirectories[directory].files.p...\n      PUSH 2\t\t\tDirectories[directory].files.p...\n      MUL \t\t\tDirectories[directory].files.p...\n      ADD \t\t\tDirectories[directory].files.p...\n      PUSH 0\t\t\tDirectories[directory].files.p...\n      DUP1 \t\t\tDirectories[directory].files.p...\n      DUP3 \t\t\tDirectories[directory].files.p...\n      ADD \t\t\tDirectories[directory].files.p...\n      PUSH 0\t\t\tDirectories[directory].files.p...\n      PUSH [tag] 294\t\t\tDirectories[directory].files.p...\n      SWAP2 \t\t\tDirectories[directory].files.p...\n      SWAP1 \t\t\tDirectories[directory].files.p...\n      PUSH [tag] 81\t\t\tDirectories[directory].files.p...\n      JUMP \t\t\tDirectories[directory].files.p...\n    tag 294\t\t\tDirectories[directory].files.p...\n      JUMPDEST \t\t\tDirectories[directory].files.p...\n      PUSH 1\t\t\tDirectories[directory].files.p...\n      DUP3 \t\t\tDirectories[directory].files.p...\n      ADD \t\t\tDirectories[directory].files.p...\n      PUSH 0\t\t\tDirectories[directory].files.p...\n      PUSH [tag] 295\t\t\tDirectories[directory].files.p...\n      SWAP2 \t\t\tDirectories[directory].files.p...\n      SWAP1 \t\t\tDirectories[directory].files.p...\n      PUSH [tag] 296\t\t\tDirectories[directory].files.p...\n      JUMP \t\t\tDirectories[directory].files.p...\n    tag 295\t\t\tDirectories[directory].files.p...\n      JUMPDEST \t\t\tDirectories[directory].files.p...\n      POP \t\t\tDirectories[directory].files.p...\n      POP \t\t\tDirectories[directory].files.p...\n      SWAP1 \t\t\tDirectories[directory].files.p...\n      SSTORE \t\t\tDirectories[directory].files.p...\n    tag 256\t\t\tif (keccak256(abi.encodePacked...\n      JUMPDEST \t\t\tif (keccak256(abi.encodePacked...\n      DUP1 \t\t\ti++\n      DUP1 \t\t\ti++\n      PUSH [tag] 297\t\t\ti++\n      SWAP1 \t\t\ti++\n      PUSH [tag] 83\t\t\ti++\n      JUMP \t\t\ti++\n    tag 297\t\t\ti++\n      JUMPDEST \t\t\ti++\n      SWAP2 \t\t\ti++\n      POP \t\t\ti++\n      POP \t\t\ti++\n      PUSH [tag] 246\t\t\tfor (uint i = 0; i < Directori...\n      JUMP \t\t\tfor (uint i = 0; i < Directori...\n    tag 247\t\t\tfor (uint i = 0; i < Directori...\n      JUMPDEST \t\t\tfor (uint i = 0; i < Directori...\n      POP \t\t\tfor (uint i = 0; i < Directori...\n      POP \t\t\tfunction deleteFile(string mem...\n      POP \t\t\tfunction deleteFile(string mem...\n      JUMP \t\t\tfunction deleteFile(string mem...\n    tag 95\t\t\tfunction isDirectoryExist(stri...\n      JUMPDEST \t\t\tfunction isDirectoryExist(stri...\n      PUSH 0\t\t\tbool\n      PUSH 40\t\t\tabi.encodePacked(\"\")\n      MLOAD \t\t\tabi.encodePacked(\"\")\n      PUSH 20\t\t\tabi.encodePacked(\"\")\n      ADD \t\t\tabi.encodePacked(\"\")\n      PUSH [tag] 299\t\t\tabi.encodePacked(\"\")\n      SWAP1 \t\t\tabi.encodePacked(\"\")\n      PUSH [tag] 42\t\t\tabi.encodePacked(\"\")\n      JUMP \t\t\tabi.encodePacked(\"\")\n    tag 299\t\t\tabi.encodePacked(\"\")\n      JUMPDEST \t\t\tabi.encodePacked(\"\")\n      PUSH 40\t\t\tabi.encodePacked(\"\")\n      MLOAD \t\t\tabi.encodePacked(\"\")\n      PUSH 20\t\t\tabi.encodePacked(\"\")\n      DUP2 \t\t\tabi.encodePacked(\"\")\n      DUP4 \t\t\tabi.encodePacked(\"\")\n      SUB \t\t\tabi.encodePacked(\"\")\n      SUB \t\t\tabi.encodePacked(\"\")\n      DUP2 \t\t\tabi.encodePacked(\"\")\n      MSTORE \t\t\tabi.encodePacked(\"\")\n      SWAP1 \t\t\tabi.encodePacked(\"\")\n      PUSH 40\t\t\tabi.encodePacked(\"\")\n      MSTORE \t\t\tabi.encodePacked(\"\")\n      DUP1 \t\t\tkeccak256(abi.encodePacked(\"\")...\n      MLOAD \t\t\tkeccak256(abi.encodePacked(\"\")...\n      SWAP1 \t\t\tkeccak256(abi.encodePacked(\"\")...\n      PUSH 20\t\t\tkeccak256(abi.encodePacked(\"\")...\n      ADD \t\t\tkeccak256(abi.encodePacked(\"\")...\n      KECCAK256 \t\t\tkeccak256(abi.encodePacked(\"\")...\n      PUSH 4\t\t\tauthContract\n      PUSH 0\t\t\tauthContract\n      SWAP1 \t\t\tauthContract\n      SLOAD \t\t\tauthContract\n      SWAP1 \t\t\tauthContract\n      PUSH 100\t\t\tauthContract\n      EXP \t\t\tauthContract\n      SWAP1 \t\t\tauthContract\n      DIV \t\t\tauthContract\n      PUSH FFFFFFFFFFFFFFFFFFFFFFFFFFFFFFFFFFFFFFFF\t\t\tauthContract\n      AND \t\t\tauthContract\n      PUSH FFFFFFFFFFFFFFFFFFFFFFFFFFFFFFFFFFFFFFFF\t\t\tauthContract.getUserRole\n      AND \t\t\tauthContract.getUserRole\n      PUSH 27820851\t\t\tauthContract.getUserRole\n      CALLER \t\t\tmsg.sender\n      PUSH 40\t\t\tauthContract.getUserRole(msg.s...\n      MLOAD \t\t\tauthContract.getUserRole(msg.s...\n      DUP3 \t\t\tauthContract.getUserRole(msg.s...\n      PUSH FFFFFFFF\t\t\tauthContract.getUserRole(msg.s...\n      AND \t\t\tauthContract.getUserRole(msg.s...\n      PUSH E0\t\t\tauthContract.getUserRole(msg.s...\n      SHL \t\t\tauthContract.getUserRole(msg.s...\n      DUP2 \t\t\tauthContract.getUserRole(msg.s...\n      MSTORE \t\t\tauthContract.getUserRole(msg.s...\n      PUSH 4\t\t\tauthContract.getUserRole(msg.s...\n      ADD \t\t\tauthContract.getUserRole(msg.s...\n      PUSH [tag] 300\t\t\tauthContract.getUserRole(msg.s...\n      SWAP2 \t\t\tauthContract.getUserRole(msg.s...\n      SWAP1 \t\t\tauthContract.getUserRole(msg.s...\n      PUSH [tag] 44\t\t\tauthContract.getUserRole(msg.s...\n      JUMP \t\t\tauthContract.getUserRole(msg.s...\n    tag 300\t\t\tauthContract.getUserRole(msg.s...\n      JUMPDEST \t\t\tauthContract.getUserRole(msg.s...\n      PUSH 0\t\t\tauthContract.getUserRole(msg.s...\n      PUSH 40\t\t\tauthContract.getUserRole(msg.s...\n      MLOAD \t\t\tauthContract.getUserRole(msg.s...\n      DUP1 \t\t\tauthContract.getUserRole(msg.s...\n      DUP4 \t\t\tauthContract.getUserRole(msg.s...\n      SUB \t\t\tauthContract.getUserRole(msg.s...\n      DUP2 \t\t\tauthContract.getUserRole(msg.s...\n      DUP7 \t\t\tauthContract.getUserRole(msg.s...\n      GAS \t\t\tauthContract.getUserRole(msg.s...\n      STATICCALL \t\t\tauthContract.getUserRole(msg.s...\n      ISZERO \t\t\tauthContract.getUserRole(msg.s...\n      DUP1 \t\t\tauthContract.getUserRole(msg.s...\n      ISZERO \t\t\tauthContract.getUserRole(msg.s...\n      PUSH [tag] 302\t\t\tauthContract.getUserRole(msg.s...\n      JUMPI \t\t\tauthContract.getUserRole(msg.s...\n      RETURNDATASIZE \t\t\tauthContract.getUserRole(msg.s...\n      PUSH 0\t\t\tauthContract.getUserRole(msg.s...\n      DUP1 \t\t\tauthContract.getUserRole(msg.s...\n      RETURNDATACOPY \t\t\tauthContract.getUserRole(msg.s...\n      RETURNDATASIZE \t\t\tauthContract.getUserRole(msg.s...\n      PUSH 0\t\t\tauthContract.getUserRole(msg.s...\n      REVERT \t\t\tauthContract.getUserRole(msg.s...\n    tag 302\t\t\tauthContract.getUserRole(msg.s...\n      JUMPDEST \t\t\tauthContract.getUserRole(msg.s...\n      POP \t\t\tauthContract.getUserRole(msg.s...\n      POP \t\t\tauthContract.getUserRole(msg.s...\n      POP \t\t\tauthContract.getUserRole(msg.s...\n      POP \t\t\tauthContract.getUserRole(msg.s...\n      PUSH 40\t\t\tauthContract.getUserRole(msg.s...\n      MLOAD \t\t\tauthContract.getUserRole(msg.s...\n      RETURNDATASIZE \t\t\tauthContract.getUserRole(msg.s...\n      PUSH 0\t\t\tauthContract.getUserRole(msg.s...\n      DUP3 \t\t\tauthContract.getUserRole(msg.s...\n      RETURNDATACOPY \t\t\tauthContract.getUserRole(msg.s...\n      RETURNDATASIZE \t\t\tauthContract.getUserRole(msg.s...\n      PUSH 1F\t\t\tauthContract.getUserRole(msg.s...\n      NOT \t\t\tauthContract.getUserRole(msg.s...\n      PUSH 1F\t\t\tauthContract.getUserRole(msg.s...\n      DUP3 \t\t\tauthContract.getUserRole(msg.s...\n      ADD \t\t\tauthContract.getUserRole(msg.s...\n      AND \t\t\tauthContract.getUserRole(msg.s...\n      DUP3 \t\t\tauthContract.getUserRole(msg.s...\n      ADD \t\t\tauthContract.getUserRole(msg.s...\n      DUP1 \t\t\tauthContract.getUserRole(msg.s...\n      PUSH 40\t\t\tauthContract.getUserRole(msg.s...\n      MSTORE \t\t\tauthContract.getUserRole(msg.s...\n      POP \t\t\tauthContract.getUserRole(msg.s...\n      DUP2 \t\t\tauthContract.getUserRole(msg.s...\n      ADD \t\t\tauthContract.getUserRole(msg.s...\n      SWAP1 \t\t\tauthContract.getUserRole(msg.s...\n      PUSH [tag] 303\t\t\tauthContract.getUserRole(msg.s...\n      SWAP2 \t\t\tauthContract.getUserRole(msg.s...\n      SWAP1 \t\t\tauthContract.getUserRole(msg.s...\n      PUSH [tag] 48\t\t\tauthContract.getUserRole(msg.s...\n      JUMP \t\t\tauthContract.getUserRole(msg.s...\n    tag 303\t\t\tauthContract.getUserRole(msg.s...\n      JUMPDEST \t\t\tauthContract.getUserRole(msg.s...\n      PUSH 40\t\t\tabi.encodePacked(authContract....\n      MLOAD \t\t\tabi.encodePacked(authContract....\n      PUSH 20\t\t\tabi.encodePacked(authContract....\n      ADD \t\t\tabi.encodePacked(authContract....\n      PUSH [tag] 304\t\t\tabi.encodePacked(authContract....\n      SWAP2 \t\t\tabi.encodePacked(authContract....\n      SWAP1 \t\t\tabi.encodePacked(authContract....\n      PUSH [tag] 50\t\t\tabi.encodePacked(authContract....\n      JUMP \t\t\tabi.encodePacked(authContract....\n    tag 304\t\t\tabi.encodePacked(authContract....\n      JUMPDEST \t\t\tabi.encodePacked(authContract....\n      PUSH 40\t\t\tabi.encodePacked(authContract....\n      MLOAD \t\t\tabi.encodePacked(authContract....\n      PUSH 20\t\t\tabi.encodePacked(authContract....\n      DUP2 \t\t\tabi.encodePacked(authContract....\n      DUP4 \t\t\tabi.encodePacked(authContract....\n      SUB \t\t\tabi.encodePacked(authContract....\n      SUB \t\t\tabi.encodePacked(authContract....\n      DUP2 \t\t\tabi.encodePacked(authContract....\n      MSTORE \t\t\tabi.encodePacked(authContract....\n      SWAP1 \t\t\tabi.encodePacked(authContract....\n      PUSH 40\t\t\tabi.encodePacked(authContract....\n      MSTORE \t\t\tabi.encodePacked(authContract....\n      DUP1 \t\t\tkeccak256(abi.encodePacked(aut...\n      MLOAD \t\t\tkeccak256(abi.encodePacked(aut...\n      SWAP1 \t\t\tkeccak256(abi.encodePacked(aut...\n      PUSH 20\t\t\tkeccak256(abi.encodePacked(aut...\n      ADD \t\t\tkeccak256(abi.encodePacked(aut...\n      KECCAK256 \t\t\tkeccak256(abi.encodePacked(aut...\n      SUB \t\t\tkeccak256(abi.encodePacked(aut...\n      PUSH [tag] 305\t\t\trequire(keccak256(abi.encodePa...\n      JUMPI \t\t\trequire(keccak256(abi.encodePa...\n      PUSH 40\t\t\trequire(keccak256(abi.encodePa...\n      MLOAD \t\t\trequire(keccak256(abi.encodePa...\n      PUSH 8C379A000000000000000000000000000000000000000000000000000000000\t\t\trequire(keccak256(abi.encodePa...\n      DUP2 \t\t\trequire(keccak256(abi.encodePa...\n      MSTORE \t\t\trequire(keccak256(abi.encodePa...\n      PUSH 4\t\t\trequire(keccak256(abi.encodePa...\n      ADD \t\t\trequire(keccak256(abi.encodePa...\n      PUSH [tag] 306\t\t\trequire(keccak256(abi.encodePa...\n      SWAP1 \t\t\trequire(keccak256(abi.encodePa...\n      PUSH [tag] 53\t\t\trequire(keccak256(abi.encodePa...\n      JUMP \t\t\trequire(keccak256(abi.encodePa...\n    tag 306\t\t\trequire(keccak256(abi.encodePa...\n      JUMPDEST \t\t\trequire(keccak256(abi.encodePa...\n      PUSH 40\t\t\trequire(keccak256(abi.encodePa...\n      MLOAD \t\t\trequire(keccak256(abi.encodePa...\n      DUP1 \t\t\trequire(keccak256(abi.encodePa...\n      SWAP2 \t\t\trequire(keccak256(abi.encodePa...\n      SUB \t\t\trequire(keccak256(abi.encodePa...\n      SWAP1 \t\t\trequire(keccak256(abi.encodePa...\n      REVERT \t\t\trequire(keccak256(abi.encodePa...\n    tag 305\t\t\trequire(keccak256(abi.encodePa...\n      JUMPDEST \t\t\trequire(keccak256(abi.encodePa...\n      PUSH 0\t\t\tuint i\n    tag 308\t\t\tfor (uint i = 0; i < directory...\n      JUMPDEST \t\t\tfor (uint i = 0; i < directory...\n      PUSH 3\t\t\tdirectory_names\n      DUP1 \t\t\tdirectory_names.length\n      SLOAD \t\t\tdirectory_names.length\n      SWAP1 \t\t\tdirectory_names.length\n      POP \t\t\tdirectory_names.length\n      DUP2 \t\t\ti\n      LT \t\t\ti < directory_names.length\n      ISZERO \t\t\tfor (uint i = 0; i < directory...\n      PUSH [tag] 309\t\t\tfor (uint i = 0; i < directory...\n      JUMPI \t\t\tfor (uint i = 0; i < directory...\n      DUP3 \t\t\tdirectory\n      PUSH 40\t\t\tabi.encodePacked(directory)\n      MLOAD \t\t\tabi.encodePacked(directory)\n      PUSH 20\t\t\tabi.encodePacked(directory)\n      ADD \t\t\tabi.encodePacked(directory)\n      PUSH [tag] 311\t\t\tabi.encodePacked(directory)\n      SWAP2 \t\t\tabi.encodePacked(directory)\n      SWAP1 \t\t\tabi.encodePacked(directory)\n      PUSH [tag] 50\t\t\tabi.encodePacked(directory)\n      JUMP \t\t\tabi.encodePacked(directory)\n    tag 311\t\t\tabi.encodePacked(directory)\n      JUMPDEST \t\t\tabi.encodePacked(directory)\n      PUSH 40\t\t\tabi.encodePacked(directory)\n      MLOAD \t\t\tabi.encodePacked(directory)\n      PUSH 20\t\t\tabi.encodePacked(directory)\n      DUP2 \t\t\tabi.encodePacked(directory)\n      DUP4 \t\t\tabi.encodePacked(directory)\n      SUB \t\t\tabi.encodePacked(directory)\n      SUB \t\t\tabi.encodePacked(directory)\n      DUP2 \t\t\tabi.encodePacked(directory)\n      MSTORE \t\t\tabi.encodePacked(directory)\n      SWAP1 \t\t\tabi.encodePacked(directory)\n      PUSH 40\t\t\tabi.encodePacked(directory)\n      MSTORE \t\t\tabi.encodePacked(directory)\n      DUP1 \t\t\tkeccak256(abi.encodePacked(dir...\n      MLOAD \t\t\tkeccak256(abi.encodePacked(dir...\n      SWAP1 \t\t\tkeccak256(abi.encodePacked(dir...\n      PUSH 20\t\t\tkeccak256(abi.encodePacked(dir...\n      ADD \t\t\tkeccak256(abi.encodePacked(dir...\n      KECCAK256 \t\t\tkeccak256(abi.encodePacked(dir...\n      PUSH 3\t\t\tdirectory_names\n      DUP3 \t\t\ti\n      DUP2 \t\t\tdirectory_names[i]\n      SLOAD \t\t\tdirectory_names[i]\n      DUP2 \t\t\tdirectory_names[i]\n      LT \t\t\tdirectory_names[i]\n      PUSH [tag] 312\t\t\tdirectory_names[i]\n      JUMPI \t\t\tdirectory_names[i]\n      PUSH [tag] 313\t\t\tdirectory_names[i]\n      PUSH [tag] 61\t\t\tdirectory_names[i]\n      JUMP \t\t\tdirectory_names[i]\n    tag 313\t\t\tdirectory_names[i]\n      JUMPDEST \t\t\tdirectory_names[i]\n    tag 312\t\t\tdirectory_names[i]\n      JUMPDEST \t\t\tdirectory_names[i]\n      SWAP1 \t\t\tdirectory_names[i]\n      PUSH 0\t\t\tdirectory_names[i]\n      MSTORE \t\t\tdirectory_names[i]\n      PUSH 20\t\t\tdirectory_names[i]\n      PUSH 0\t\t\tdirectory_names[i]\n      KECCAK256 \t\t\tdirectory_names[i]\n      ADD \t\t\tdirectory_names[i]\n      PUSH 40\t\t\tabi.encodePacked(directory_nam...\n      MLOAD \t\t\tabi.encodePacked(directory_nam...\n      PUSH 20\t\t\tabi.encodePacked(directory_nam...\n      ADD \t\t\tabi.encodePacked(directory_nam...\n      PUSH [tag] 315\t\t\tabi.encodePacked(directory_nam...\n      SWAP2 \t\t\tabi.encodePacked(directory_nam...\n      SWAP1 \t\t\tabi.encodePacked(directory_nam...\n      PUSH [tag] 64\t\t\tabi.encodePacked(directory_nam...\n      JUMP \t\t\tabi.encodePacked(directory_nam...\n    tag 315\t\t\tabi.encodePacked(directory_nam...\n      JUMPDEST \t\t\tabi.encodePacked(directory_nam...\n      PUSH 40\t\t\tabi.encodePacked(directory_nam...\n      MLOAD \t\t\tabi.encodePacked(directory_nam...\n      PUSH 20\t\t\tabi.encodePacked(directory_nam...\n      DUP2 \t\t\tabi.encodePacked(directory_nam...\n      DUP4 \t\t\tabi.encodePacked(directory_nam...\n      SUB \t\t\tabi.encodePacked(directory_nam...\n      SUB \t\t\tabi.encodePacked(directory_nam...\n      DUP2 \t\t\tabi.encodePacked(directory_nam...\n      MSTORE \t\t\tabi.encodePacked(directory_nam...\n      SWAP1 \t\t\tabi.encodePacked(directory_nam...\n      PUSH 40\t\t\tabi.encodePacked(directory_nam...\n      MSTORE \t\t\tabi.encodePacked(directory_nam...\n      DUP1 \t\t\tkeccak256(abi.encodePacked(dir...\n      MLOAD \t\t\tkeccak256(abi.encodePacked(dir...\n      SWAP1 \t\t\tkeccak256(abi.encodePacked(dir...\n      PUSH 20\t\t\tkeccak256(abi.encodePacked(dir...\n      ADD \t\t\tkeccak256(abi.encodePacked(dir...\n      KECCAK256 \t\t\tkeccak256(abi.encodePacked(dir...\n      SUB \t\t\tkeccak256(abi.encodePacked(dir...\n      PUSH [tag] 316\t\t\tif (keccak256(abi.encodePacked...\n      JUMPI \t\t\tif (keccak256(abi.encodePacked...\n      PUSH 1\t\t\ttrue\n      SWAP2 \t\t\treturn true\n      POP \t\t\treturn true\n      POP \t\t\treturn true\n      PUSH [tag] 307\t\t\treturn true\n      JUMP \t\t\treturn true\n    tag 316\t\t\tif (keccak256(abi.encodePacked...\n      JUMPDEST \t\t\tif (keccak256(abi.encodePacked...\n      DUP1 \t\t\ti++\n      DUP1 \t\t\ti++\n      PUSH [tag] 317\t\t\ti++\n      SWAP1 \t\t\ti++\n      PUSH [tag] 83\t\t\ti++\n      JUMP \t\t\ti++\n    tag 317\t\t\ti++\n      JUMPDEST \t\t\ti++\n      SWAP2 \t\t\ti++\n      POP \t\t\ti++\n      POP \t\t\ti++\n      PUSH [tag] 308\t\t\tfor (uint i = 0; i < directory...\n      JUMP \t\t\tfor (uint i = 0; i < directory...\n    tag 309\t\t\tfor (uint i = 0; i < directory...\n      JUMPDEST \t\t\tfor (uint i = 0; i < directory...\n      POP \t\t\tfor (uint i = 0; i < directory...\n      PUSH 0\t\t\tfalse\n      SWAP1 \t\t\treturn false\n      POP \t\t\treturn false\n    tag 307\t\t\t_\n      JUMPDEST \t\t\t_\n      SWAP2 \t\t\tfunction isDirectoryExist(stri...\n      SWAP1 \t\t\tfunction isDirectoryExist(stri...\n      POP \t\t\tfunction isDirectoryExist(stri...\n      JUMP \t\t\tfunction isDirectoryExist(stri...\n    tag 100\t\t\tfunction isFileExist(string me...\n      JUMPDEST \t\t\tfunction isFileExist(string me...\n      PUSH 0\t\t\tbool\n      DUP1 \t\t\tuint i\n      PUSH 0\t\t\t0\n      SWAP1 \t\t\tuint i = 0\n      POP \t\t\tuint i = 0\n    tag 319\t\t\tfor (uint i = 0; i < Directori...\n      JUMPDEST \t\t\tfor (uint i = 0; i < Directori...\n      PUSH 0\t\t\tDirectories\n      DUP4 \t\t\tdirectory\n      PUSH 40\t\t\tDirectories[directory]\n      MLOAD \t\t\tDirectories[directory]\n      PUSH [tag] 322\t\t\tDirectories[directory]\n      SWAP2 \t\t\tDirectories[directory]\n      SWAP1 \t\t\tDirectories[directory]\n      PUSH [tag] 50\t\t\tDirectories[directory]\n      JUMP \t\t\tDirectories[directory]\n    tag 322\t\t\tDirectories[directory]\n      JUMPDEST \t\t\tDirectories[directory]\n      SWAP1 \t\t\tDirectories[directory]\n      DUP2 \t\t\tDirectories[directory]\n      MSTORE \t\t\tDirectories[directory]\n      PUSH 20\t\t\tDirectories[directory]\n      ADD \t\t\tDirectories[directory]\n      PUSH 40\t\t\tDirectories[directory]\n      MLOAD \t\t\tDirectories[directory]\n      DUP1 \t\t\tDirectories[directory]\n      SWAP2 \t\t\tDirectories[directory]\n      SUB \t\t\tDirectories[directory]\n      SWAP1 \t\t\tDirectories[directory]\n      KECCAK256 \t\t\tDirectories[directory]\n      PUSH 1\t\t\tDirectories[directory].files\n      ADD \t\t\tDirectories[directory].files\n      DUP1 \t\t\tDirectories[directory].files.l...\n      SLOAD \t\t\tDirectories[directory].files.l...\n      SWAP1 \t\t\tDirectories[directory].files.l...\n      POP \t\t\tDirectories[directory].files.l...\n      DUP2 \t\t\ti\n      LT \t\t\ti < Directories[directory].fil...\n      ISZERO \t\t\tfor (uint i = 0; i < Directori...\n      PUSH [tag] 320\t\t\tfor (uint i = 0; i < Directori...\n      JUMPI \t\t\tfor (uint i = 0; i < Directori...\n      DUP4 \t\t\ttitle\n      PUSH 40\t\t\tabi.encodePacked(title)\n      MLOAD \t\t\tabi.encodePacked(title)\n      PUSH 20\t\t\tabi.encodePacked(title)\n      ADD \t\t\tabi.encodePacked(title)\n      PUSH [tag] 323\t\t\tabi.encodePacked(title)\n      SWAP2 \t\t\tabi.encodePacked(title)\n      SWAP1 \t\t\tabi.encodePacked(title)\n      PUSH [tag] 50\t\t\tabi.encodePacked(title)\n      JUMP \t\t\tabi.encodePacked(title)\n    tag 323\t\t\tabi.encodePacked(title)\n      JUMPDEST \t\t\tabi.encodePacked(title)\n      PUSH 40\t\t\tabi.encodePacked(title)\n      MLOAD \t\t\tabi.encodePacked(title)\n      PUSH 20\t\t\tabi.encodePacked(title)\n      DUP2 \t\t\tabi.encodePacked(title)\n      DUP4 \t\t\tabi.encodePacked(title)\n      SUB \t\t\tabi.encodePacked(title)\n      SUB \t\t\tabi.encodePacked(title)\n      DUP2 \t\t\tabi.encodePacked(title)\n      MSTORE \t\t\tabi.encodePacked(title)\n      SWAP1 \t\t\tabi.encodePacked(title)\n      PUSH 40\t\t\tabi.encodePacked(title)\n      MSTORE \t\t\tabi.encodePacked(title)\n      DUP1 \t\t\tkeccak256(abi.encodePacked(tit...\n      MLOAD \t\t\tkeccak256(abi.encodePacked(tit...\n      SWAP1 \t\t\tkeccak256(abi.encodePacked(tit...\n      PUSH 20\t\t\tkeccak256(abi.encodePacked(tit...\n      ADD \t\t\tkeccak256(abi.encodePacked(tit...\n      KECCAK256 \t\t\tkeccak256(abi.encodePacked(tit...\n      PUSH 0\t\t\tDirectories\n      DUP5 \t\t\tdirectory\n      PUSH 40\t\t\tDirectories[directory]\n      MLOAD \t\t\tDirectories[directory]\n      PUSH [tag] 324\t\t\tDirectories[directory]\n      SWAP2 \t\t\tDirectories[directory]\n      SWAP1 \t\t\tDirectories[directory]\n      PUSH [tag] 50\t\t\tDirectories[directory]\n      JUMP \t\t\tDirectories[directory]\n    tag 324\t\t\tDirectories[directory]\n      JUMPDEST \t\t\tDirectories[directory]\n      SWAP1 \t\t\tDirectories[directory]\n      DUP2 \t\t\tDirectories[directory]\n      MSTORE \t\t\tDirectories[directory]\n      PUSH 20\t\t\tDirectories[directory]\n      ADD \t\t\tDirectories[directory]\n      PUSH 40\t\t\tDirectories[directory]\n      MLOAD \t\t\tDirectories[directory]\n      DUP1 \t\t\tDirectories[directory]\n      SWAP2 \t\t\tDirectories[directory]\n      SUB \t\t\tDirectories[directory]\n      SWAP1 \t\t\tDirectories[directory]\n      KECCAK256 \t\t\tDirectories[directory]\n      PUSH 1\t\t\tDirectories[directory].files\n      ADD \t\t\tDirectories[directory].files\n      DUP3 \t\t\ti\n      DUP2 \t\t\tDirectories[directory].files[i...\n      SLOAD \t\t\tDirectories[directory].files[i...\n      DUP2 \t\t\tDirectories[directory].files[i...\n      LT \t\t\tDirectories[directory].files[i...\n      PUSH [tag] 325\t\t\tDirectories[directory].files[i...\n      JUMPI \t\t\tDirectories[directory].files[i...\n      PUSH [tag] 326\t\t\tDirectories[directory].files[i...\n      PUSH [tag] 61\t\t\tDirectories[directory].files[i...\n      JUMP \t\t\tDirectories[directory].files[i...\n    tag 326\t\t\tDirectories[directory].files[i...\n      JUMPDEST \t\t\tDirectories[directory].files[i...\n    tag 325\t\t\tDirectories[directory].files[i...\n      JUMPDEST \t\t\tDirectories[directory].files[i...\n      SWAP1 \t\t\tDirectories[directory].files[i...\n      PUSH 0\t\t\tDirectories[directory].files[i...\n      MSTORE \t\t\tDirectories[directory].files[i...\n      PUSH 20\t\t\tDirectories[directory].files[i...\n      PUSH 0\t\t\tDirectories[directory].files[i...\n      KECCAK256 \t\t\tDirectories[directory].files[i...\n      SWAP1 \t\t\tDirectories[directory].files[i...\n      PUSH 2\t\t\tDirectories[directory].files[i...\n      MUL \t\t\tDirectories[directory].files[i...\n      ADD \t\t\tDirectories[directory].files[i...\n      PUSH 0\t\t\tDirectories[directory].files[i...\n      ADD \t\t\tDirectories[directory].files[i...\n      PUSH 40\t\t\tabi.encodePacked(Directories[d...\n      MLOAD \t\t\tabi.encodePacked(Directories[d...\n      PUSH 20\t\t\tabi.encodePacked(Directories[d...\n      ADD \t\t\tabi.encodePacked(Directories[d...\n      PUSH [tag] 328\t\t\tabi.encodePacked(Directories[d...\n      SWAP2 \t\t\tabi.encodePacked(Directories[d...\n      SWAP1 \t\t\tabi.encodePacked(Directories[d...\n      PUSH [tag] 64\t\t\tabi.encodePacked(Directories[d...\n      JUMP \t\t\tabi.encodePacked(Directories[d...\n    tag 328\t\t\tabi.encodePacked(Directories[d...\n      JUMPDEST \t\t\tabi.encodePacked(Directories[d...\n      PUSH 40\t\t\tabi.encodePacked(Directories[d...\n      MLOAD \t\t\tabi.encodePacked(Directories[d...\n      PUSH 20\t\t\tabi.encodePacked(Directories[d...\n      DUP2 \t\t\tabi.encodePacked(Directories[d...\n      DUP4 \t\t\tabi.encodePacked(Directories[d...\n      SUB \t\t\tabi.encodePacked(Directories[d...\n      SUB \t\t\tabi.encodePacked(Directories[d...\n      DUP2 \t\t\tabi.encodePacked(Directories[d...\n      MSTORE \t\t\tabi.encodePacked(Directories[d...\n      SWAP1 \t\t\tabi.encodePacked(Directories[d...\n      PUSH 40\t\t\tabi.encodePacked(Directories[d...\n      MSTORE \t\t\tabi.encodePacked(Directories[d...\n      DUP1 \t\t\tkeccak256(abi.encodePacked(Dir...\n      MLOAD \t\t\tkeccak256(abi.encodePacked(Dir...\n      SWAP1 \t\t\tkeccak256(abi.encodePacked(Dir...\n      PUSH 20\t\t\tkeccak256(abi.encodePacked(Dir...\n      ADD \t\t\tkeccak256(abi.encodePacked(Dir...\n      KECCAK256 \t\t\tkeccak256(abi.encodePacked(Dir...\n      SUB \t\t\tkeccak256(abi.encodePacked(Dir...\n      PUSH [tag] 329\t\t\tif (keccak256(abi.encodePacked...\n      JUMPI \t\t\tif (keccak256(abi.encodePacked...\n      PUSH 1\t\t\ttrue\n      SWAP2 \t\t\treturn true\n      POP \t\t\treturn true\n      POP \t\t\treturn true\n      PUSH [tag] 318\t\t\treturn true\n      JUMP \t\t\treturn true\n    tag 329\t\t\tif (keccak256(abi.encodePacked...\n      JUMPDEST \t\t\tif (keccak256(abi.encodePacked...\n      DUP1 \t\t\ti++\n      DUP1 \t\t\ti++\n      PUSH [tag] 330\t\t\ti++\n      SWAP1 \t\t\ti++\n      PUSH [tag] 83\t\t\ti++\n      JUMP \t\t\ti++\n    tag 330\t\t\ti++\n      JUMPDEST \t\t\ti++\n      SWAP2 \t\t\ti++\n      POP \t\t\ti++\n      POP \t\t\ti++\n      PUSH [tag] 319\t\t\tfor (uint i = 0; i < Directori...\n      JUMP \t\t\tfor (uint i = 0; i < Directori...\n    tag 320\t\t\tfor (uint i = 0; i < Directori...\n      JUMPDEST \t\t\tfor (uint i = 0; i < Directori...\n      POP \t\t\tfor (uint i = 0; i < Directori...\n      PUSH 0\t\t\tfalse\n      SWAP1 \t\t\treturn false\n      POP \t\t\treturn false\n    tag 318\t\t\tfunction isFileExist(string me...\n      JUMPDEST \t\t\tfunction isFileExist(string me...\n      SWAP3 \t\t\tfunction isFileExist(string me...\n      SWAP2 \t\t\tfunction isFileExist(string me...\n      POP \t\t\tfunction isFileExist(string me...\n      POP \t\t\tfunction isFileExist(string me...\n      JUMP \t\t\tfunction isFileExist(string me...\n    tag 169\t\t\tfunction checkUserRole(string ...\n      JUMPDEST \t\t\tfunction checkUserRole(string ...\n      PUSH 0\t\t\tbool\n      DUP1 \t\t\tuint i\n      PUSH 0\t\t\t0\n      SWAP1 \t\t\tuint i = 0\n      POP \t\t\tuint i = 0\n    tag 332\t\t\tfor (uint i = 0; i < roles.len...\n      JUMPDEST \t\t\tfor (uint i = 0; i < roles.len...\n      DUP3 \t\t\troles\n      MLOAD \t\t\troles.length\n      DUP2 \t\t\ti\n      LT \t\t\ti < roles.length\n      ISZERO \t\t\tfor (uint i = 0; i < roles.len...\n      PUSH [tag] 333\t\t\tfor (uint i = 0; i < roles.len...\n      JUMPI \t\t\tfor (uint i = 0; i < roles.len...\n      DUP4 \t\t\trole\n      PUSH 40\t\t\tabi.encodePacked(role)\n      MLOAD \t\t\tabi.encodePacked(role)\n      PUSH 20\t\t\tabi.encodePacked(role)\n      ADD \t\t\tabi.encodePacked(role)\n      PUSH [tag] 335\t\t\tabi.encodePacked(role)\n      SWAP2 \t\t\tabi.encodePacked(role)\n      SWAP1 \t\t\tabi.encodePacked(role)\n      PUSH [tag] 50\t\t\tabi.encodePacked(role)\n      JUMP \t\t\tabi.encodePacked(role)\n    tag 335\t\t\tabi.encodePacked(role)\n      JUMPDEST \t\t\tabi.encodePacked(role)\n      PUSH 40\t\t\tabi.encodePacked(role)\n      MLOAD \t\t\tabi.encodePacked(role)\n      PUSH 20\t\t\tabi.encodePacked(role)\n      DUP2 \t\t\tabi.encodePacked(role)\n      DUP4 \t\t\tabi.encodePacked(role)\n      SUB \t\t\tabi.encodePacked(role)\n      SUB \t\t\tabi.encodePacked(role)\n      DUP2 \t\t\tabi.encodePacked(role)\n      MSTORE \t\t\tabi.encodePacked(role)\n      SWAP1 \t\t\tabi.encodePacked(role)\n      PUSH 40\t\t\tabi.encodePacked(role)\n      MSTORE \t\t\tabi.encodePacked(role)\n      DUP1 \t\t\tkeccak256(abi.encodePacked(rol...\n      MLOAD \t\t\tkeccak256(abi.encodePacked(rol...\n      SWAP1 \t\t\tkeccak256(abi.encodePacked(rol...\n      PUSH 20\t\t\tkeccak256(abi.encodePacked(rol...\n      ADD \t\t\tkeccak256(abi.encodePacked(rol...\n      KECCAK256 \t\t\tkeccak256(abi.encodePacked(rol...\n      DUP4 \t\t\troles\n      DUP3 \t\t\ti\n      DUP2 \t\t\troles[i]\n      MLOAD \t\t\troles[i]\n      DUP2 \t\t\troles[i]\n      LT \t\t\troles[i]\n      PUSH [tag] 336\t\t\troles[i]\n      JUMPI \t\t\troles[i]\n      PUSH [tag] 337\t\t\troles[i]\n      PUSH [tag] 61\t\t\troles[i]\n      JUMP \t\t\troles[i]\n    tag 337\t\t\troles[i]\n      JUMPDEST \t\t\troles[i]\n    tag 336\t\t\troles[i]\n      JUMPDEST \t\t\troles[i]\n      PUSH 20\t\t\troles[i]\n      MUL \t\t\troles[i]\n      PUSH 20\t\t\troles[i]\n      ADD \t\t\troles[i]\n      ADD \t\t\troles[i]\n      MLOAD \t\t\troles[i]\n      PUSH 40\t\t\tabi.encodePacked(roles[i])\n      MLOAD \t\t\tabi.encodePacked(roles[i])\n      PUSH 20\t\t\tabi.encodePacked(roles[i])\n      ADD \t\t\tabi.encodePacked(roles[i])\n      PUSH [tag] 338\t\t\tabi.encodePacked(roles[i])\n      SWAP2 \t\t\tabi.encodePacked(roles[i])\n      SWAP1 \t\t\tabi.encodePacked(roles[i])\n      PUSH [tag] 50\t\t\tabi.encodePacked(roles[i])\n      JUMP \t\t\tabi.encodePacked(roles[i])\n    tag 338\t\t\tabi.encodePacked(roles[i])\n      JUMPDEST \t\t\tabi.encodePacked(roles[i])\n      PUSH 40\t\t\tabi.encodePacked(roles[i])\n      MLOAD \t\t\tabi.encodePacked(roles[i])\n      PUSH 20\t\t\tabi.encodePacked(roles[i])\n      DUP2 \t\t\tabi.encodePacked(roles[i])\n      DUP4 \t\t\tabi.encodePacked(roles[i])\n      SUB \t\t\tabi.encodePacked(roles[i])\n      SUB \t\t\tabi.encodePacked(roles[i])\n      DUP2 \t\t\tabi.encodePacked(roles[i])\n      MSTORE \t\t\tabi.encodePacked(roles[i])\n      SWAP1 \t\t\tabi.encodePacked(roles[i])\n      PUSH 40\t\t\tabi.encodePacked(roles[i])\n      MSTORE \t\t\tabi.encodePacked(roles[i])\n      DUP1 \t\t\tkeccak256(abi.encodePacked(rol...\n      MLOAD \t\t\tkeccak256(abi.encodePacked(rol...\n      SWAP1 \t\t\tkeccak256(abi.encodePacked(rol...\n      PUSH 20\t\t\tkeccak256(abi.encodePacked(rol...\n      ADD \t\t\tkeccak256(abi.encodePacked(rol...\n      KECCAK256 \t\t\tkeccak256(abi.encodePacked(rol...\n      SUB \t\t\tkeccak256(abi.encodePacked(rol...\n      PUSH [tag] 339\t\t\tif (keccak256(abi.encodePacked...\n      JUMPI \t\t\tif (keccak256(abi.encodePacked...\n      PUSH 1\t\t\ttrue\n      SWAP2 \t\t\treturn true\n      POP \t\t\treturn true\n      POP \t\t\treturn true\n      PUSH [tag] 331\t\t\treturn true\n      JUMP \t\t\treturn true\n    tag 339\t\t\tif (keccak256(abi.encodePacked...\n      JUMPDEST \t\t\tif (keccak256(abi.encodePacked...\n      DUP1 \t\t\ti++\n      DUP1 \t\t\ti++\n      PUSH [tag] 340\t\t\ti++\n      SWAP1 \t\t\ti++\n      PUSH [tag] 83\t\t\ti++\n      JUMP \t\t\ti++\n    tag 340\t\t\ti++\n      JUMPDEST \t\t\ti++\n      SWAP2 \t\t\ti++\n      POP \t\t\ti++\n      POP \t\t\ti++\n      PUSH [tag] 332\t\t\tfor (uint i = 0; i < roles.len...\n      JUMP \t\t\tfor (uint i = 0; i < roles.len...\n    tag 333\t\t\tfor (uint i = 0; i < roles.len...\n      JUMPDEST \t\t\tfor (uint i = 0; i < roles.len...\n      POP \t\t\tfor (uint i = 0; i < roles.len...\n      PUSH 0\t\t\tfalse\n      SWAP1 \t\t\treturn false\n      POP \t\t\treturn false\n    tag 331\t\t\tfunction checkUserRole(string ...\n      JUMPDEST \t\t\tfunction checkUserRole(string ...\n      SWAP3 \t\t\tfunction checkUserRole(string ...\n      SWAP2 \t\t\tfunction checkUserRole(string ...\n      POP \t\t\tfunction checkUserRole(string ...\n      POP \t\t\tfunction checkUserRole(string ...\n      JUMP \t\t\tfunction checkUserRole(string ...\n    tag 81\t\t\t\n      JUMPDEST \t\t\t\n      POP \t\t\t\n      DUP1 \t\t\t\n      SLOAD \t\t\t\n      PUSH [tag] 341\t\t\t\n      SWAP1 \t\t\t\n      PUSH [tag] 164\t\t\t\n      JUMP \t\t\t\n    tag 341\t\t\t\n      JUMPDEST \t\t\t\n      PUSH 0\t\t\t\n      DUP3 \t\t\t\n      SSTORE \t\t\t\n      DUP1 \t\t\t\n      PUSH 1F\t\t\t\n      LT \t\t\t\n      PUSH [tag] 343\t\t\t\n      JUMPI \t\t\t\n      POP \t\t\t\n      PUSH [tag] 342\t\t\t\n      JUMP \t\t\t\n    tag 343\t\t\t\n      JUMPDEST \t\t\t\n      PUSH 1F\t\t\t\n      ADD \t\t\t\n      PUSH 20\t\t\t\n      SWAP1 \t\t\t\n      DIV \t\t\t\n      SWAP1 \t\t\t\n      PUSH 0\t\t\t\n      MSTORE \t\t\t\n      PUSH 20\t\t\t\n      PUSH 0\t\t\t\n      KECCAK256 \t\t\t\n      SWAP1 \t\t\t\n      DUP2 \t\t\t\n      ADD \t\t\t\n      SWAP1 \t\t\t\n      PUSH [tag] 344\t\t\t\n      SWAP2 \t\t\t\n      SWAP1 \t\t\t\n      PUSH [tag] 345\t\t\t\n      JUMP \t\t\t\n    tag 344\t\t\t\n      JUMPDEST \t\t\t\n    tag 342\t\t\t\n      JUMPDEST \t\t\t\n      POP \t\t\t\n      JUMP \t\t\t\n    tag 111\t\t\t\n      JUMPDEST \t\t\t\n      DUP3 \t\t\t\n      DUP1 \t\t\t\n      SLOAD \t\t\t\n      DUP3 \t\t\t\n      DUP3 \t\t\t\n      SSTORE \t\t\t\n      SWAP1 \t\t\t\n      PUSH 0\t\t\t\n      MSTORE \t\t\t\n      PUSH 20\t\t\t\n      PUSH 0\t\t\t\n      KECCAK256 \t\t\t\n      SWAP1 \t\t\t\n      DUP2 \t\t\t\n      ADD \t\t\t\n      SWAP3 \t\t\t\n      DUP3 \t\t\t\n      ISZERO \t\t\t\n      PUSH [tag] 346\t\t\t\n      JUMPI \t\t\t\n      SWAP2 \t\t\t\n      PUSH 20\t\t\t\n      MUL \t\t\t\n      DUP3 \t\t\t\n      ADD \t\t\t\n    tag 347\t\t\t\n      JUMPDEST \t\t\t\n      DUP3 \t\t\t\n      DUP2 \t\t\t\n      GT \t\t\t\n      ISZERO \t\t\t\n      PUSH [tag] 348\t\t\t\n      JUMPI \t\t\t\n      DUP3 \t\t\t\n      MLOAD \t\t\t\n      DUP3 \t\t\t\n      SWAP1 \t\t\t\n      DUP2 \t\t\t\n      PUSH [tag] 349\t\t\t\n      SWAP2 \t\t\t\n      SWAP1 \t\t\t\n      PUSH [tag] 106\t\t\t\n      JUMP \t\t\t\n    tag 349\t\t\t\n      JUMPDEST \t\t\t\n      POP \t\t\t\n      SWAP2 \t\t\t\n      PUSH 20\t\t\t\n      ADD \t\t\t\n      SWAP2 \t\t\t\n      SWAP1 \t\t\t\n      PUSH 1\t\t\t\n      ADD \t\t\t\n      SWAP1 \t\t\t\n      PUSH [tag] 347\t\t\t\n      JUMP \t\t\t\n    tag 348\t\t\t\n      JUMPDEST \t\t\t\n    tag 346\t\t\t\n      JUMPDEST \t\t\t\n      POP \t\t\t\n      SWAP1 \t\t\t\n      POP \t\t\t\n      PUSH [tag] 350\t\t\t\n      SWAP2 \t\t\t\n      SWAP1 \t\t\t\n      PUSH [tag] 351\t\t\t\n      JUMP \t\t\t\n    tag 350\t\t\t\n      JUMPDEST \t\t\t\n      POP \t\t\t\n      SWAP1 \t\t\t\n      JUMP \t\t\t\n    tag 185\t\t\t\n      JUMPDEST \t\t\t\n      PUSH 40\t\t\t\n      MLOAD \t\t\t\n      DUP1 \t\t\t\n      PUSH 40\t\t\t\n      ADD \t\t\t\n      PUSH 40\t\t\t\n      MSTORE \t\t\t\n      DUP1 \t\t\t\n      PUSH 60\t\t\t\n      DUP2 \t\t\t\n      MSTORE \t\t\t\n      PUSH 20\t\t\t\n      ADD \t\t\t\n      PUSH 60\t\t\t\n      DUP2 \t\t\t\n      MSTORE \t\t\t\n      POP \t\t\t\n      SWAP1 \t\t\t\n      JUMP \t\t\t\n    tag 289\t\t\t\n      JUMPDEST \t\t\t\n      DUP3 \t\t\t\n      DUP1 \t\t\t\n      SLOAD \t\t\t\n      DUP3 \t\t\t\n      DUP3 \t\t\t\n      SSTORE \t\t\t\n      SWAP1 \t\t\t\n      PUSH 0\t\t\t\n      MSTORE \t\t\t\n      PUSH 20\t\t\t\n      PUSH 0\t\t\t\n      KECCAK256 \t\t\t\n      SWAP1 \t\t\t\n      DUP2 \t\t\t\n      ADD \t\t\t\n      SWAP3 \t\t\t\n      DUP3 \t\t\t\n      ISZERO \t\t\t\n      PUSH [tag] 352\t\t\t\n      JUMPI \t\t\t\n      PUSH 0\t\t\t\n      MSTORE \t\t\t\n      PUSH 20\t\t\t\n      PUSH 0\t\t\t\n      KECCAK256 \t\t\t\n      SWAP2 \t\t\t\n      DUP3 \t\t\t\n      ADD \t\t\t\n    tag 353\t\t\t\n      JUMPDEST \t\t\t\n      DUP3 \t\t\t\n      DUP2 \t\t\t\n      GT \t\t\t\n      ISZERO \t\t\t\n      PUSH [tag] 354\t\t\t\n      JUMPI \t\t\t\n      DUP3 \t\t\t\n      DUP3 \t\t\t\n      SWAP1 \t\t\t\n      DUP2 \t\t\t\n      PUSH [tag] 355\t\t\t\n      SWAP2 \t\t\t\n      SWAP1 \t\t\t\n      PUSH [tag] 287\t\t\t\n      JUMP \t\t\t\n    tag 355\t\t\t\n      JUMPDEST \t\t\t\n      POP \t\t\t\n      SWAP2 \t\t\t\n      PUSH 1\t\t\t\n      ADD \t\t\t\n      SWAP2 \t\t\t\n      SWAP1 \t\t\t\n      PUSH 1\t\t\t\n      ADD \t\t\t\n      SWAP1 \t\t\t\n      PUSH [tag] 353\t\t\t\n      JUMP \t\t\t\n    tag 354\t\t\t\n      JUMPDEST \t\t\t\n    tag 352\t\t\t\n      JUMPDEST \t\t\t\n      POP \t\t\t\n      SWAP1 \t\t\t\n      POP \t\t\t\n      PUSH [tag] 356\t\t\t\n      SWAP2 \t\t\t\n      SWAP1 \t\t\t\n      PUSH [tag] 351\t\t\t\n      JUMP \t\t\t\n    tag 356\t\t\t\n      JUMPDEST \t\t\t\n      POP \t\t\t\n      SWAP1 \t\t\t\n      JUMP \t\t\t\n    tag 296\t\t\t\n      JUMPDEST \t\t\t\n      POP \t\t\t\n      DUP1 \t\t\t\n      SLOAD \t\t\t\n      PUSH 0\t\t\t\n      DUP3 \t\t\t\n      SSTORE \t\t\t\n      SWAP1 \t\t\t\n      PUSH 0\t\t\t\n      MSTORE \t\t\t\n      PUSH 20\t\t\t\n      PUSH 0\t\t\t\n      KECCAK256 \t\t\t\n      SWAP1 \t\t\t\n      DUP2 \t\t\t\n      ADD \t\t\t\n      SWAP1 \t\t\t\n      PUSH [tag] 358\t\t\t\n      SWAP2 \t\t\t\n      SWAP1 \t\t\t\n      PUSH [tag] 351\t\t\t\n      JUMP \t\t\t\n    tag 358\t\t\t\n      JUMPDEST \t\t\t\n      POP \t\t\t\n      JUMP \t\t\t\n    tag 345\t\t\t\n      JUMPDEST \t\t\t\n    tag 359\t\t\t\n      JUMPDEST \t\t\t\n      DUP1 \t\t\t\n      DUP3 \t\t\t\n      GT \t\t\t\n      ISZERO \t\t\t\n      PUSH [tag] 360\t\t\t\n      JUMPI \t\t\t\n      PUSH 0\t\t\t\n      DUP2 \t\t\t\n      PUSH 0\t\t\t\n      SWAP1 \t\t\t\n      SSTORE \t\t\t\n      POP \t\t\t\n      PUSH 1\t\t\t\n      ADD \t\t\t\n      PUSH [tag] 359\t\t\t\n      JUMP \t\t\t\n    tag 360\t\t\t\n      JUMPDEST \t\t\t\n      POP \t\t\t\n      SWAP1 \t\t\t\n      JUMP \t\t\t\n    tag 351\t\t\t\n      JUMPDEST \t\t\t\n    tag 361\t\t\t\n      JUMPDEST \t\t\t\n      DUP1 \t\t\t\n      DUP3 \t\t\t\n      GT \t\t\t\n      ISZERO \t\t\t\n      PUSH [tag] 362\t\t\t\n      JUMPI \t\t\t\n      PUSH 0\t\t\t\n      DUP2 \t\t\t\n      DUP2 \t\t\t\n      PUSH [tag] 363\t\t\t\n      SWAP2 \t\t\t\n      SWAP1 \t\t\t\n      PUSH [tag] 81\t\t\t\n      JUMP \t\t\t\n    tag 363\t\t\t\n      JUMPDEST \t\t\t\n      POP \t\t\t\n      PUSH 1\t\t\t\n      ADD \t\t\t\n      PUSH [tag] 361\t\t\t\n      JUMP \t\t\t\n    tag 362\t\t\t\n      JUMPDEST \t\t\t\n      POP \t\t\t\n      SWAP1 \t\t\t\n      JUMP \t\t\t\n    tag 364\t\t\t-License-Identifier: MIT\\r\\n \\...\n      JUMPDEST \t\t\t-License-Identifier: MIT\\r\\n \\...\n      PUSH 0\t\t\tma sol\n      PUSH 40\t\t\tIA\n      MLOAD \t\t\trface IAu\n      SWAP1 \t\t\t9;\\r\\n\\r\\ninterface IAu\n      POP \t\t\t9;\\r\\n\\r\\ninterface IAu\n      SWAP1 \t\t\t-License-Identifier: MIT\\r\\n \\...\n      JUMP \t\t\t-License-Identifier: MIT\\r\\n \\...\n    tag 365\t\t\t\\r\\n    function getRoles() ex...\n      JUMPDEST \t\t\t\\r\\n    function getRoles() ex...\n      PUSH 0\t\t\te\n      DUP1 \t\t\te\n      REVERT \t\t\ts adr) exter\n    tag 366\t\t\turns (string memory);\\r\\n    f...\n      JUMPDEST \t\t\turns (string memory);\\r\\n    f...\n      PUSH 0\t\t\th\n      DUP1 \t\t\tA\n      REVERT \t\t\tntract AuthC\n    tag 367\t\t\tAuthContract{\\r\\n\\r\\n    mappi...\n      JUMPDEST \t\t\tAuthContract{\\r\\n\\r\\n    mappi...\n      PUSH 0\t\t\tr\n      DUP1 \t\t\tn\n      REVERT \t\t\t\\n    constru\n    tag 368\t\t\t] memory _roles){\\r\\n        o...\n      JUMPDEST \t\t\t] memory _roles){\\r\\n        o...\n      PUSH 0\t\t\t \n      DUP1 \t\t\t \n      REVERT \t\t\toles;\\r\\n    }\n    tag 369\t\t\tfier OnlyOwner{\\r\\n        req...\n      JUMPDEST \t\t\tfier OnlyOwner{\\r\\n        req...\n      PUSH 0\t\t\ter == \n      PUSH 1F\t\t\t\\r\\n\n      NOT \t\t\t  _;\\r\\n \n      PUSH 1F\t\t\t  \n      DUP4 \t\t\ts\");\\r\n      ADD \t\t\t this\");\\r\\n    \n      AND \t\t\tn do this\");\\r\\n        _;\\r\\n...\n      SWAP1 \t\t\ty owner can do this\");\\r\\n    ...\n      POP \t\t\ty owner can do this\");\\r\\n    ...\n      SWAP2 \t\t\tfier OnlyOwner{\\r\\n        req...\n      SWAP1 \t\t\tfier OnlyOwner{\\r\\n        req...\n      POP \t\t\tfier OnlyOwner{\\r\\n        req...\n      JUMP \t\t\tfier OnlyOwner{\\r\\n        req...\n    tag 370\t\t\tunction isRoleExist(string mem...\n      JUMPDEST \t\t\tunction isRoleExist(string mem...\n      PUSH 4E487B7100000000000000000000000000000000000000000000000000000000\t\t\tview returns (bool){\\r\\n      ...\n      PUSH 0\t\t\tt\n      MSTORE \t\t\t) private view returns (bool){...\n      PUSH 41\t\t\tabi.\n      PUSH 4\t\t\t5\n      MSTORE \t\t\tkeccak256(abi.e\n      PUSH 24\t\t\t])) \n      PUSH 0\t\t\ts\n      REVERT \t\t\ted(roles[i])) =\n    tag 371\t\t\tabi.encodePacked(role))){\\r\\n ...\n      JUMPDEST \t\t\tabi.encodePacked(role))){\\r\\n ...\n      PUSH [tag] 453\t\t\t       return false;\\r\\n    }\n      DUP3 \t\t\t    \n      PUSH [tag] 369\t\t\t       return false;\\r\\n    }\n      JUMP \t\t\t       return false;\\r\\n    }\n    tag 453\t\t\t       return false;\\r\\n    }\n      JUMPDEST \t\t\t       return false;\\r\\n    }\n      DUP2 \t\t\t    }\\r\n      ADD \t\t\t        }\\r\\n        return fa...\n      DUP2 \t\t\t funct\n      DUP2 \t\t\t    }\\r\\n\\r\\n \n      LT \t\t\t;\\r\\n    }\\r\\n\\r\\n    functi\n      PUSH FFFFFFFFFFFFFFFF\t\t\t\\n        return ro\n      DUP3 \t\t\t[] memory)\n      GT \t\t\ting[] memory){\\r\\n        retu...\n      OR \t\t\tstring[] memory){\\r\\n        r...\n      ISZERO \t\t\ts (string[] memory){\\r\\n      ...\n      PUSH [tag] 454\t\t\ts (string[] memory){\\r\\n      ...\n      JUMPI \t\t\ts (string[] memory){\\r\\n      ...\n      PUSH [tag] 455\t\t\tetUserRole(address\n      PUSH [tag] 370\t\t\tetUserRole(address\n      JUMP \t\t\tetUserRole(address\n    tag 455\t\t\tetUserRole(address\n      JUMPDEST \t\t\tetUserRole(address\n    tag 454\t\t\ts (string[] memory){\\r\\n      ...\n      JUMPDEST \t\t\ts (string[] memory){\\r\\n      ...\n      DUP1 \t\t\trns (strin\n      PUSH 40\t\t\tre\n      MSTORE \t\t\tc view returns (string\n      POP \t\t\treturn true;\\r\\n           }\\r...\n      POP \t\t\tabi.encodePacked(role))){\\r\\n ...\n      POP \t\t\tabi.encodePacked(role))){\\r\\n ...\n      JUMP \t\t\tabi.encodePacked(role))){\\r\\n ...\n    tag 372\t\t\t       return users[adr];\\r\\n ...\n      JUMPDEST \t\t\t       return users[adr];\\r\\n ...\n      PUSH 0\t\t\t\\r\\n    \n      PUSH [tag] 457\t\t\taddress adr, string \n      PUSH [tag] 364\t\t\taddress adr, string \n      JUMP \t\t\taddress adr, string \n    tag 457\t\t\taddress adr, string \n      JUMPDEST \t\t\taddress adr, string \n      SWAP1 \t\t\ttUserRole(address adr, string \n      POP \t\t\ttUserRole(address adr, string \n      PUSH [tag] 458\t\t\tle) OnlyOwner public {\\r\\n    ...\n      DUP3 \t\t\t    \n      DUP3 \t\t\t {\\r\\n  \n      PUSH [tag] 371\t\t\tle) OnlyOwner public {\\r\\n    ...\n      JUMP \t\t\tle) OnlyOwner public {\\r\\n    ...\n    tag 458\t\t\tle) OnlyOwner public {\\r\\n    ...\n      JUMPDEST \t\t\tle) OnlyOwner public {\\r\\n    ...\n      SWAP2 \t\t\t       return users[adr];\\r\\n ...\n      SWAP1 \t\t\t       return users[adr];\\r\\n ...\n      POP \t\t\t       return users[adr];\\r\\n ...\n      JUMP \t\t\t       return users[adr];\\r\\n ...\n    tag 373\t\t\tst(role)){\\r\\n            user...\n      JUMPDEST \t\t\tst(role)){\\r\\n            user...\n      PUSH 0\t\t\t}\\r\\n\\r\n      PUSH FFFFFFFFFFFFFFFF\t\t\tg[] access_roles;\\r\n      DUP3 \t\t\t   str\n      GT \t\t\t      string[] access_roles;\\r...\n      ISZERO \t\t\t\\n        string[] access_role...\n      PUSH [tag] 460\t\t\t\\n        string[] access_role...\n      JUMPI \t\t\t\\n        string[] access_role...\n      PUSH [tag] 461\t\t\t }\\r\\n\\r\\n    struct D\n      PUSH [tag] 370\t\t\t }\\r\\n\\r\\n    struct D\n      JUMP \t\t\t }\\r\\n\\r\\n    struct D\n    tag 461\t\t\t }\\r\\n\\r\\n    struct D\n      JUMPDEST \t\t\t }\\r\\n\\r\\n    struct D\n    tag 460\t\t\t\\n        string[] access_role...\n      JUMPDEST \t\t\t\\n        string[] access_role...\n      PUSH [tag] 462\t\t\ttring title;\\r\\n        File[]...\n      DUP3 \t\t\tFile[]\n      PUSH [tag] 369\t\t\ttring title;\\r\\n        File[]...\n      JUMP \t\t\ttring title;\\r\\n        File[]...\n    tag 462\t\t\ttring title;\\r\\n        File[]...\n      JUMPDEST \t\t\ttring title;\\r\\n        File[]...\n      SWAP1 \t\t\t       string title;\\r\\n      ...\n      POP \t\t\t       string title;\\r\\n      ...\n      PUSH 20\t\t\tctor\n      DUP2 \t\t\t) Di\n      ADD \t\t\ttory) Directori\n      SWAP1 \t\t\t=> Directory) Directori\n      POP \t\t\t=> Directory) Directori\n      SWAP2 \t\t\tst(role)){\\r\\n            user...\n      SWAP1 \t\t\tst(role)){\\r\\n            user...\n      POP \t\t\tst(role)){\\r\\n            user...\n      JUMP \t\t\tst(role)){\\r\\n            user...\n    tag 374\t\t\ting (string => string) FileHas...\n      JUMPDEST \t\t\ting (string => string) FileHas...\n      DUP3 \t\t\ttract \n      DUP2 \t\t\tthC\n      DUP4 \t\t\t  I\n      CALLDATACOPY \t\t\try_names;\\r\\n    IAuthContract...\n      PUSH 0\t\t\ty\n      DUP4 \t\t\tifier \n      DUP4 \t\t\t  m\n      ADD \t\t\t\\r\\n    modifier O\n      MSTORE \t\t\tct;\\r\\n\\r\\n\\r\\n    modifier On...\n      POP \t\t\ting (string => string) FileHas...\n      POP \t\t\ting (string => string) FileHas...\n      POP \t\t\ting (string => string) FileHas...\n      JUMP \t\t\ting (string => string) FileHas...\n    tag 375\t\t\trs{\\r\\n        require(keccak2...\n      JUMPDEST \t\t\trs{\\r\\n        require(keccak2...\n      PUSH 0\t\t\tender\n      PUSH [tag] 465\t\t\t.encodePacked(\"\")) , \"User mus...\n      PUSH [tag] 466\t\t\t)) , \"User must have 1 or more...\n      DUP5 \t\t\t      \n      PUSH [tag] 373\t\t\t)) , \"User must have 1 or more...\n      JUMP \t\t\t)) , \"User must have 1 or more...\n    tag 466\t\t\t)) , \"User must have 1 or more...\n      JUMPDEST \t\t\t)) , \"User must have 1 or more...\n      PUSH [tag] 372\t\t\t.encodePacked(\"\")) , \"User mus...\n      JUMP \t\t\t.encodePacked(\"\")) , \"User mus...\n    tag 465\t\t\t.encodePacked(\"\")) , \"User mus...\n      JUMPDEST \t\t\t.encodePacked(\"\")) , \"User mus...\n      SWAP1 \t\t\tak256(abi.encodePacked(\"\")) , ...\n      POP \t\t\tak256(abi.encodePacked(\"\")) , ...\n      DUP3 \t\t\tctor(a\n      DUP2 \t\t\tconst\n      MSTORE \t\t\t\\n\\r\\n    constructor(ad\n      PUSH 20\t\t\t    \n      DUP2 \t\t\ts){\\r\\n\n      ADD \t\t\tdress){\\r\\n       \n      DUP5 \t\t\thCo\n      DUP5 \t\t\ttract(\n      DUP5 \t\t\tthC\n      ADD \t\t\t IAuthContract(a\n      GT \t\t\tt = IAuthContract(authCon\n      ISZERO \t\t\tract = IAuthContract(authContr...\n      PUSH [tag] 467\t\t\tract = IAuthContract(authContr...\n      JUMPI \t\t\tract = IAuthContract(authContr...\n      PUSH [tag] 468\t\t\tctAddress);\\r\\n    }\\r\\n\\r\\n  ...\n      PUSH [tag] 368\t\t\tctAddress);\\r\\n    }\\r\\n\\r\\n  ...\n      JUMP \t\t\tctAddress);\\r\\n    }\\r\\n\\r\\n  ...\n    tag 468\t\t\tctAddress);\\r\\n    }\\r\\n\\r\\n  ...\n      JUMPDEST \t\t\tctAddress);\\r\\n    }\\r\\n\\r\\n  ...\n    tag 467\t\t\tract = IAuthContract(authContr...\n      JUMPDEST \t\t\tract = IAuthContract(authContr...\n      PUSH [tag] 469\t\t\t) private pure returns (bool) ...\n      DUP5 \t\t\tint i \n      DUP3 \t\t\tor \n      DUP6 \t\t\t   \n      PUSH [tag] 374\t\t\t) private pure returns (bool) ...\n      JUMP \t\t\t) private pure returns (bool) ...\n    tag 469\t\t\t) private pure returns (bool) ...\n      JUMPDEST \t\t\t) private pure returns (bool) ...\n      POP \t\t\t)) != keccak256(abi.encodePack...\n      SWAP4 \t\t\trs{\\r\\n        require(keccak2...\n      SWAP3 \t\t\trs{\\r\\n        require(keccak2...\n      POP \t\t\trs{\\r\\n        require(keccak2...\n      POP \t\t\trs{\\r\\n        require(keccak2...\n      POP \t\t\trs{\\r\\n        require(keccak2...\n      JUMP \t\t\trs{\\r\\n        require(keccak2...\n    tag 376\t\t\t{\\r\\n           if (keccak256(...\n      JUMPDEST \t\t\t{\\r\\n           if (keccak256(...\n      PUSH 0\t\t\t== ke\n      DUP3 \t\t\t   \n      PUSH 1F\t\t\t    \n      DUP4 \t\t\t))){\\r\\n\n      ADD \t\t\trole))){\\r\\n       \n      SLT \t\t\tked(role))){\\r\\n             \n      PUSH [tag] 471\t\t\t.encodePacked(role))){\\r\\n    ...\n      JUMPI \t\t\t.encodePacked(role))){\\r\\n    ...\n      PUSH [tag] 472\t\t\teturn true;\\r\\n           }\\r\\...\n      PUSH [tag] 367\t\t\teturn true;\\r\\n           }\\r\\...\n      JUMP \t\t\teturn true;\\r\\n           }\\r\\...\n    tag 472\t\t\teturn true;\\r\\n           }\\r\\...\n      JUMPDEST \t\t\teturn true;\\r\\n           }\\r\\...\n    tag 471\t\t\t.encodePacked(role))){\\r\\n    ...\n      JUMPDEST \t\t\t.encodePacked(role))){\\r\\n    ...\n      DUP2 \t\t\tectory\n      CALLDATALOAD \t\t\tng memory directory)\n      PUSH [tag] 473\t\t\trs private view returns (bool)...\n      DUP5 \t\t\tes.\n      DUP3 \t\t\ttory_n\n      PUSH 20\t\t\t< di\n      DUP7 \t\t\t = 0; \n      ADD \t\t\tnt i = 0; i < dir\n      PUSH [tag] 375\t\t\trs private view returns (bool)...\n      JUMP \t\t\trs private view returns (bool)...\n    tag 473\t\t\trs private view returns (bool)...\n      JUMPDEST \t\t\trs private view returns (bool)...\n      SWAP2 \t\t\tsteredUsers private view retur...\n      POP \t\t\tsteredUsers private view retur...\n      POP \t\t\tcak256(abi.encodePacked(role))...\n      SWAP3 \t\t\t{\\r\\n           if (keccak256(...\n      SWAP2 \t\t\t{\\r\\n           if (keccak256(...\n      POP \t\t\t{\\r\\n           if (keccak256(...\n      POP \t\t\t{\\r\\n           if (keccak256(...\n      JUMP \t\t\t{\\r\\n           if (keccak256(...\n    tag 13\t\t\t\\r\\n           if (keccak256(a...\n      JUMPDEST \t\t\t\\r\\n           if (keccak256(a...\n      PUSH 0\t\t\teccak2\n      PUSH 20\t\t\t  \n      DUP3 \t\t\t){\\r\\n     \n      DUP5 \t\t\trectory\n      SUB \t\t\td(directory))){\\r\\n      \n      SLT \t\t\tacked(directory))){\\r\\n       ...\n      ISZERO \t\t\tdePacked(directory))){\\r\\n    ...\n      PUSH [tag] 475\t\t\tdePacked(directory))){\\r\\n    ...\n      JUMPI \t\t\tdePacked(directory))){\\r\\n    ...\n      PUSH [tag] 476\t\t\t  return true;\\r\\n           }...\n      PUSH [tag] 365\t\t\t  return true;\\r\\n           }...\n      JUMP \t\t\t  return true;\\r\\n           }...\n    tag 476\t\t\t  return true;\\r\\n           }...\n      JUMPDEST \t\t\t  return true;\\r\\n           }...\n    tag 475\t\t\tdePacked(directory))){\\r\\n    ...\n      JUMPDEST \t\t\tdePacked(directory))){\\r\\n    ...\n      PUSH 0\t\t\ta\n      DUP3 \t\t\tctory) pr\n      ADD \t\t\tdirectory) privat\n      CALLDATALOAD \t\t\ttring memory directory) privat...\n      PUSH FFFFFFFFFFFFFFFF\t\t\t    for (uint i = \n      DUP2 \t\t\t){\\r\\n  \n      GT \t\t\tool){\\r\\n        for (uint i =...\n      ISZERO \t\t\t (bool){\\r\\n        for (uint ...\n      PUSH [tag] 477\t\t\t (bool){\\r\\n        for (uint ...\n      JUMPI \t\t\t (bool){\\r\\n        for (uint ...\n      PUSH [tag] 478\t\t\t < Directories[directory].file...\n      PUSH [tag] 366\t\t\t < Directories[directory].file...\n      JUMP \t\t\t < Directories[directory].file...\n    tag 478\t\t\t < Directories[directory].file...\n      JUMPDEST \t\t\t < Directories[directory].file...\n    tag 477\t\t\t (bool){\\r\\n        for (uint ...\n      JUMPDEST \t\t\t (bool){\\r\\n        for (uint ...\n      PUSH [tag] 479\t\t\tectory].files[i].title)) == ke...\n      DUP5 \t\t\ttitle))\n      DUP3 \t\t\tdePack\n      DUP6 \t\t\t56(abi.en\n      ADD \t\t\tcak256(abi.encodePacke\n      PUSH [tag] 376\t\t\tectory].files[i].title)) == ke...\n      JUMP \t\t\tectory].files[i].title)) == ke...\n    tag 479\t\t\tectory].files[i].title)) == ke...\n      JUMPDEST \t\t\tectory].files[i].title)) == ke...\n      SWAP2 \t\t\ttories[directory].files[i].tit...\n      POP \t\t\ttories[directory].files[i].tit...\n      POP \t\t\teExist(string memory title, st...\n      SWAP3 \t\t\t\\r\\n           if (keccak256(a...\n      SWAP2 \t\t\t\\r\\n           if (keccak256(a...\n      POP \t\t\t\\r\\n           if (keccak256(a...\n      POP \t\t\t\\r\\n           if (keccak256(a...\n      JUMP \t\t\t\\r\\n           if (keccak256(a...\n    tag 377\t\t\trn true;\\r\\n            }\\r\\n ...\n      JUMPDEST \t\t\trn true;\\r\\n            }\\r\\n ...\n      PUSH 0\t\t\tDire\n      PUSH FFFFFFFFFFFFFFFF\t\t\tist(title), \"Direc\n      DUP3 \t\t\tectory\n      GT \t\t\tDirectoryExist(title), \"Direct\n      ISZERO \t\t\t!isDirectoryExist(title), \"Dir...\n      PUSH [tag] 481\t\t\t!isDirectoryExist(title), \"Dir...\n      JUMPI \t\t\t!isDirectoryExist(title), \"Dir...\n      PUSH [tag] 482\t\t\t already exist\");\\r\n      PUSH [tag] 370\t\t\t already exist\");\\r\n      JUMP \t\t\t already exist\");\\r\n    tag 482\t\t\t already exist\");\\r\n      JUMPDEST \t\t\t already exist\");\\r\n    tag 481\t\t\t!isDirectoryExist(title), \"Dir...\n      JUMPDEST \t\t\t!isDirectoryExist(title), \"Dir...\n      PUSH 20\t\t\ttle)\n      DUP3 \t\t\t.push(\n      MUL \t\t\tames.push(title);\n      SWAP1 \t\t\tectory_names.push(title);\n      POP \t\t\tectory_names.push(title);\n      PUSH 20\t\t\t   f\n      DUP2 \t\t\t}\\r\\n\\r\n      ADD \t\t\t    }\\r\\n\\r\\n    fu\n      SWAP1 \t\t\ttitle;\\r\\n    }\\r\\n\\r\\n    fu\n      POP \t\t\ttitle;\\r\\n    }\\r\\n\\r\\n    fu\n      SWAP2 \t\t\trn true;\\r\\n            }\\r\\n ...\n      SWAP1 \t\t\trn true;\\r\\n            }\\r\\n ...\n      POP \t\t\trn true;\\r\\n            }\\r\\n ...\n      JUMP \t\t\trn true;\\r\\n            }\\r\\n ...\n    tag 378\t\t\tDirectory(string memory title)...\n      JUMPDEST \t\t\tDirectory(string memory title)...\n      PUSH 0\t\t\tt\n      DUP1 \t\t\te\n      REVERT \t\t\tnames.length\n    tag 379\t\t\tcak256(abi.encodePacked(direct...\n      JUMPDEST \t\t\tcak256(abi.encodePacked(direct...\n      PUSH 0\t\t\tctory\n      PUSH [tag] 485\t\t\ty_names[directory_names.length...\n      PUSH [tag] 486\t\t\ty_names.length - 1];\\r\\n      ...\n      DUP5 \t\t\t      \n      PUSH [tag] 377\t\t\ty_names.length - 1];\\r\\n      ...\n      JUMP \t\t\ty_names.length - 1];\\r\\n      ...\n    tag 486\t\t\ty_names.length - 1];\\r\\n      ...\n      JUMPDEST \t\t\ty_names.length - 1];\\r\\n      ...\n      PUSH [tag] 372\t\t\ty_names[directory_names.length...\n      JUMP \t\t\ty_names[directory_names.length...\n    tag 485\t\t\ty_names[directory_names.length...\n      JUMPDEST \t\t\ty_names[directory_names.length...\n      SWAP1 \t\t\t directory_names[directory_nam...\n      POP \t\t\t directory_names[directory_nam...\n      DUP1 \t\t\t\\r\\n   \n      DUP4 \t\t\ttring \n      DUP3 \t\t\tctory\n      MSTORE \t\t\tgetDirectory(string m\n      PUSH 20\t\t\tUser\n      DUP3 \t\t\tister\n      ADD \t\t\tyRegisteredUsers\n      SWAP1 \t\t\tle) OnlyRegisteredUsers\n      POP \t\t\tle) OnlyRegisteredUsers\n      PUSH 20\t\t\t  re\n      DUP5 \t\t\t\\r\\n    \n      MUL \t\t\try){\\r\\n        ret\n      DUP4 \t\t\tory me\n      ADD \t\t\trectory memory){\\r\\n        re...\n      DUP6 \t\t\t\\n  \n      DUP2 \t\t\ttitle]\n      GT \t\t\tes[title];\\r\\n   \n      ISZERO \t\t\tories[title];\\r\\n    }\\r\\n\\r\\n...\n      PUSH [tag] 487\t\t\tories[title];\\r\\n    }\\r\\n\\r\\n...\n      JUMPI \t\t\tories[title];\\r\\n    }\\r\\n\\r\\n...\n      PUSH [tag] 488\t\t\tion getDirectories() OnlyRegis...\n      PUSH [tag] 378\t\t\tion getDirectories() OnlyRegis...\n      JUMP \t\t\tion getDirectories() OnlyRegis...\n    tag 488\t\t\tion getDirectories() OnlyRegis...\n      JUMPDEST \t\t\tion getDirectories() OnlyRegis...\n    tag 487\t\t\tories[title];\\r\\n    }\\r\\n\\r\\n...\n      JUMPDEST \t\t\tories[title];\\r\\n    }\\r\\n\\r\\n...\n      DUP4 \t\t\t   }\\r\\n\n    tag 489\t\t\trectory_names;\\r\\n    }\\r\\n\\r\\...\n      JUMPDEST \t\t\trectory_names;\\r\\n    }\\r\\n\\r\\...\n      DUP2 \t\t\tion cr\n      DUP2 \t\t\tfun\n      LT \t\t\t   function cre\n      ISZERO \t\t\trectory_names;\\r\\n    }\\r\\n\\r\\...\n      PUSH [tag] 491\t\t\trectory_names;\\r\\n    }\\r\\n\\r\\...\n      JUMPI \t\t\trectory_names;\\r\\n    }\\r\\n\\r\\...\n      DUP1 \t\t\t me\n      CALLDATALOAD \t\t\tory, string[] mem\n      PUSH FFFFFFFFFFFFFFFF\t\t\tublic {\\r\\n        r\n      DUP2 \t\t\tsteredUsers\n      GT \t\t\tegisteredUsers public {\\r\\n   ...\n      ISZERO \t\t\tlyRegisteredUsers public {\\r\\n...\n      PUSH [tag] 492\t\t\tlyRegisteredUsers public {\\r\\n...\n      JUMPI \t\t\tlyRegisteredUsers public {\\r\\n...\n      PUSH [tag] 493\t\t\tre(isDirectoryExist(directory)...\n      PUSH [tag] 367\t\t\tre(isDirectoryExist(directory)...\n      JUMP \t\t\tre(isDirectoryExist(directory)...\n    tag 493\t\t\tre(isDirectoryExist(directory)...\n      JUMPDEST \t\t\tre(isDirectoryExist(directory)...\n    tag 492\t\t\tlyRegisteredUsers public {\\r\\n...\n      JUMPDEST \t\t\tlyRegisteredUsers public {\\r\\n...\n      DUP1 \t\t\tist\");\\r\\n   \n      DUP7 \t\t\tready \n      ADD \t\t\te already exist\");\\r\\n    \n      PUSH [tag] 494\t\t\te(title, roles);\\r\\n        Fi...\n      DUP10 \t\t\t ha\n      DUP3 \t\t\tash[title]\n      PUSH [tag] 376\t\t\te(title, roles);\\r\\n        Fi...\n      JUMP \t\t\te(title, roles);\\r\\n        Fi...\n    tag 494\t\t\te(title, roles);\\r\\n        Fi...\n      JUMPDEST \t\t\te(title, roles);\\r\\n        Fi...\n      DUP6 \t\t\t= F\n      MSTORE \t\t\ty file = File(title, roles);\\r...\n      PUSH 20\t\t\tory]\n      DUP6 \t\t\tire\n      ADD \t\t\tes[directory].\n      SWAP5 \t\t\trectories[directory].\n      POP \t\t\trectories[directory].\n      POP \t\t\t memory hash, string memory di...\n      POP \t\t\t memory hash, string memory di...\n      PUSH 20\t\t\try t\n      DUP2 \t\t\t me\n      ADD \t\t\tring memory ti\n      SWAP1 \t\t\tFile(string memory ti\n      POP \t\t\tFile(string memory ti\n      PUSH [tag] 489\t\t\trectory_names;\\r\\n    }\\r\\n\\r\\...\n      JUMP \t\t\trectory_names;\\r\\n    }\\r\\n\\r\\...\n    tag 491\t\t\trectory_names;\\r\\n    }\\r\\n\\r\\...\n      JUMPDEST \t\t\trectory_names;\\r\\n    }\\r\\n\\r\\...\n      POP \t\t\tory_names;\\r\\n    }\\r\\n\\r\\n\n      POP \t\t\tnames[i] = directory_names[dir...\n      POP \t\t\tnames[i] = directory_names[dir...\n      SWAP4 \t\t\tcak256(abi.encodePacked(direct...\n      SWAP3 \t\t\tcak256(abi.encodePacked(direct...\n      POP \t\t\tcak256(abi.encodePacked(direct...\n      POP \t\t\tcak256(abi.encodePacked(direct...\n      POP \t\t\tcak256(abi.encodePacked(direct...\n      JUMP \t\t\tcak256(abi.encodePacked(direct...\n    tag 380\t\t\ton deleteFile(string memory ti...\n      JUMPDEST \t\t\ton deleteFile(string memory ti...\n      PUSH 0\t\t\tublic\n      DUP3 \t\t\t[di\n      PUSH 1F\t\t\tctor\n      DUP4 \t\t\ti < Di\n      ADD \t\t\t 0; i < Directori\n      SLT \t\t\t i = 0; i < Directories[dir\n      PUSH [tag] 496\t\t\t for (uint i = 0; i < Director...\n      JUMPI \t\t\t for (uint i = 0; i < Director...\n      PUSH [tag] 497\t\t\try].files.length; i++){\\r\\n   ...\n      PUSH [tag] 367\t\t\try].files.length; i++){\\r\\n   ...\n      JUMP \t\t\try].files.length; i++){\\r\\n   ...\n    tag 497\t\t\try].files.length; i++){\\r\\n   ...\n      JUMPDEST \t\t\try].files.length; i++){\\r\\n   ...\n    tag 496\t\t\t for (uint i = 0; i < Director...\n      JUMPDEST \t\t\t for (uint i = 0; i < Director...\n      DUP2 \t\t\t256(ab\n      CALLDATALOAD \t\t\te)) == keccak256(abi\n      PUSH [tag] 498\t\t\te))){\\r\\n                requi...\n      DUP5 \t\t\ttor\n      DUP3 \t\t\tes[dir\n      PUSH 20\t\t\trect\n      DUP7 \t\t\tder), \n      ADD \t\t\t.sender), Directo\n      PUSH [tag] 379\t\t\te))){\\r\\n                requi...\n      JUMP \t\t\te))){\\r\\n                requi...\n    tag 498\t\t\te))){\\r\\n                requi...\n      JUMPDEST \t\t\te))){\\r\\n                requi...\n      SWAP2 \t\t\tcked(title))){\\r\\n            ...\n      POP \t\t\tcked(title))){\\r\\n            ...\n      POP \t\t\t{\\r\\n        for (uint i = 0; ...\n      SWAP3 \t\t\ton deleteFile(string memory ti...\n      SWAP2 \t\t\ton deleteFile(string memory ti...\n      POP \t\t\ton deleteFile(string memory ti...\n      POP \t\t\ton deleteFile(string memory ti...\n      JUMP \t\t\ton deleteFile(string memory ti...\n    tag 17\t\t\tccess_roles), \"Not enough perm...\n      JUMPDEST \t\t\tccess_roles), \"Not enough perm...\n      PUSH 0\t\t\tength \n      DUP1 \t\t\t1];\\r\\n \n      PUSH 0\t\t\t      \n      DUP1 \t\t\t     D\n      PUSH 80\t\t\t   \n      DUP6 \t\t\t();\\r\\n    \n      DUP8 \t\t\tfiles.p\n      SUB \t\t\try].files.pop();\\r\\n     \n      SLT \t\t\tectory].files.pop();\\r\\n      ...\n      ISZERO \t\t\tdirectory].files.pop();\\r\\n   ...\n      PUSH [tag] 500\t\t\tdirectory].files.pop();\\r\\n   ...\n      JUMPI \t\t\tdirectory].files.pop();\\r\\n   ...\n      PUSH [tag] 501\t\t\t\\n        }\\r\\n    }\\r\\n\\r\\n  ...\n      PUSH [tag] 365\t\t\t\\n        }\\r\\n    }\\r\\n\\r\\n  ...\n      JUMP \t\t\t\\n        }\\r\\n    }\\r\\n\\r\\n  ...\n    tag 501\t\t\t\\n        }\\r\\n    }\\r\\n\\r\\n  ...\n      JUMPDEST \t\t\t\\n        }\\r\\n    }\\r\\n\\r\\n  ...\n    tag 500\t\t\tdirectory].files.pop();\\r\\n   ...\n      JUMPDEST \t\t\tdirectory].files.pop();\\r\\n   ...\n      PUSH 0\t\t\t\\r\n      DUP6 \t\t\tng memory\n      ADD \t\t\tstring memory){\\r\\n\n      CALLDATALOAD \t\t\tiew returns (string memory){\\r...\n      PUSH FFFFFFFFFFFFFFFF\t\t\t Directories[direc\n      DUP2 \t\t\t= 0; i\n      GT \t\t\t i = 0; i < Directories[direct\n      ISZERO \t\t\tint i = 0; i < Directories[dir...\n      PUSH [tag] 502\t\t\tint i = 0; i < Directories[dir...\n      JUMPI \t\t\tint i = 0; i < Directories[dir...\n      PUSH [tag] 503\t\t\t].files.length; i++){\\r\\n     ...\n      PUSH [tag] 366\t\t\t].files.length; i++){\\r\\n     ...\n      JUMP \t\t\t].files.length; i++){\\r\\n     ...\n    tag 503\t\t\t].files.length; i++){\\r\\n     ...\n      JUMPDEST \t\t\t].files.length; i++){\\r\\n     ...\n    tag 502\t\t\tint i = 0; i < Directories[dir...\n      JUMPDEST \t\t\tint i = 0; i < Directories[dir...\n      PUSH [tag] 504\t\t\t == keccak256(abi.encodePacked...\n      DUP8 \t\t\t   requ\n      DUP3 \t\t\t      \n      DUP9 \t\t\te))){\\r\\n  \n      ADD \t\t\ttitle))){\\r\\n           \n      PUSH [tag] 376\t\t\t == keccak256(abi.encodePacked...\n      JUMP \t\t\t == keccak256(abi.encodePacked...\n    tag 504\t\t\t == keccak256(abi.encodePacked...\n      JUMPDEST \t\t\t == keccak256(abi.encodePacked...\n      SWAP5 \t\t\ti].title)) == keccak256(abi.en...\n      POP \t\t\ti].title)) == keccak256(abi.en...\n      POP \t\t\t OnlyRegisteredUsers public vi...\n      PUSH 20\t\t\t.f\n      DUP6 \t\t\t[director\n      ADD \t\t\tries[directory].fi\n      CALLDATALOAD \t\t\tder), Directories[directory].f...\n      PUSH FFFFFFFFFFFFFFFF\t\t\tnough permissions\"\n      DUP2 \t\t\t, \"Not\n      GT \t\t\tes), \"Not enough permissions\")\n      ISZERO \t\t\troles), \"Not enough permission...\n      PUSH [tag] 505\t\t\troles), \"Not enough permission...\n      JUMPI \t\t\troles), \"Not enough permission...\n      PUSH [tag] 506\t\t\t                return FileHas...\n      PUSH [tag] 366\t\t\t                return FileHas...\n      JUMP \t\t\t                return FileHas...\n    tag 506\t\t\t                return FileHas...\n      JUMPDEST \t\t\t                return FileHas...\n    tag 505\t\t\troles), \"Not enough permission...\n      JUMPDEST \t\t\troles), \"Not enough permission...\n      PUSH [tag] 507\t\t\t  return \"\";\\r\\n    }\\r\\n}\n      DUP8 \t\t\t\n      DUP3 \t\t\t\n      DUP9 \t\t\t\n      ADD \t\t\t\n      PUSH [tag] 376\t\t\t  return \"\";\\r\\n    }\\r\\n}\n      JUMP \t\t\t  return \"\";\\r\\n    }\\r\\n}\n    tag 507\t\t\t  return \"\";\\r\\n    }\\r\\n}\n      JUMPDEST \t\t\t  return \"\";\\r\\n    }\\r\\n}\n      SWAP4 \t\t\t }\\r\\n        return \"\";\\r\\n  ...\n      POP \t\t\t }\\r\\n        return \"\";\\r\\n  ...\n      POP \t\t\thContract.getUserRole(msg.send...\n      PUSH 40\t\t\t\n      DUP6 \t\t\t\n      ADD \t\t\t\n      CALLDATALOAD \t\t\t\n      PUSH FFFFFFFFFFFFFFFF\t\t\t\n      DUP2 \t\t\t\n      GT \t\t\t\n      ISZERO \t\t\t\n      PUSH [tag] 508\t\t\t\n      JUMPI \t\t\t\n      PUSH [tag] 509\t\t\t\n      PUSH [tag] 366\t\t\t\n      JUMP \t\t\t\n    tag 509\t\t\t\n      JUMPDEST \t\t\t\n    tag 508\t\t\t\n      JUMPDEST \t\t\t\n      PUSH [tag] 510\t\t\t\n      DUP8 \t\t\t\n      DUP3 \t\t\t\n      DUP9 \t\t\t\n      ADD \t\t\t\n      PUSH [tag] 376\t\t\t\n      JUMP \t\t\t\n    tag 510\t\t\t\n      JUMPDEST \t\t\t\n      SWAP3 \t\t\t\n      POP \t\t\t\n      POP \t\t\t\n      PUSH 60\t\t\t\n      DUP6 \t\t\t\n      ADD \t\t\t\n      CALLDATALOAD \t\t\t\n      PUSH FFFFFFFFFFFFFFFF\t\t\t\n      DUP2 \t\t\t\n      GT \t\t\t\n      ISZERO \t\t\t\n      PUSH [tag] 511\t\t\t\n      JUMPI \t\t\t\n      PUSH [tag] 512\t\t\t\n      PUSH [tag] 366\t\t\t\n      JUMP \t\t\t\n    tag 512\t\t\t\n      JUMPDEST \t\t\t\n    tag 511\t\t\t\n      JUMPDEST \t\t\t\n      PUSH [tag] 513\t\t\t\n      DUP8 \t\t\t\n      DUP3 \t\t\t\n      DUP9 \t\t\t\n      ADD \t\t\t\n      PUSH [tag] 380\t\t\t\n      JUMP \t\t\t\n    tag 513\t\t\t\n      JUMPDEST \t\t\t\n      SWAP2 \t\t\t\n      POP \t\t\t\n      POP \t\t\t\n      SWAP3 \t\t\tccess_roles), \"Not enough perm...\n      SWAP6 \t\t\tccess_roles), \"Not enough perm...\n      SWAP2 \t\t\tccess_roles), \"Not enough perm...\n      SWAP5 \t\t\tccess_roles), \"Not enough perm...\n      POP \t\t\tccess_roles), \"Not enough perm...\n      SWAP3 \t\t\tccess_roles), \"Not enough perm...\n      POP \t\t\tccess_roles), \"Not enough perm...\n      JUMP \t\t\tccess_roles), \"Not enough perm...\n    tag 24\t\t\t\n      JUMPDEST \t\t\t\n      PUSH 0\t\t\t\n      DUP1 \t\t\t\n      PUSH 40\t\t\t\n      DUP4 \t\t\t\n      DUP6 \t\t\t\n      SUB \t\t\t\n      SLT \t\t\t\n      ISZERO \t\t\t\n      PUSH [tag] 515\t\t\t\n      JUMPI \t\t\t\n      PUSH [tag] 516\t\t\t\n      PUSH [tag] 365\t\t\t\n      JUMP \t\t\t\n    tag 516\t\t\t\n      JUMPDEST \t\t\t\n    tag 515\t\t\t\n      JUMPDEST \t\t\t\n      PUSH 0\t\t\t\n      DUP4 \t\t\t\n      ADD \t\t\t\n      CALLDATALOAD \t\t\t\n      PUSH FFFFFFFFFFFFFFFF\t\t\t\n      DUP2 \t\t\t\n      GT \t\t\t\n      ISZERO \t\t\t\n      PUSH [tag] 517\t\t\t\n      JUMPI \t\t\t\n      PUSH [tag] 518\t\t\t\n      PUSH [tag] 366\t\t\t\n      JUMP \t\t\t\n    tag 518\t\t\t\n      JUMPDEST \t\t\t\n    tag 517\t\t\t\n      JUMPDEST \t\t\t\n      PUSH [tag] 519\t\t\t\n      DUP6 \t\t\t\n      DUP3 \t\t\t\n      DUP7 \t\t\t\n      ADD \t\t\t\n      PUSH [tag] 376\t\t\t\n      JUMP \t\t\t\n    tag 519\t\t\t\n      JUMPDEST \t\t\t\n      SWAP3 \t\t\t\n      POP \t\t\t\n      POP \t\t\t\n      PUSH 20\t\t\t\n      DUP4 \t\t\t\n      ADD \t\t\t\n      CALLDATALOAD \t\t\t\n      PUSH FFFFFFFFFFFFFFFF\t\t\t\n      DUP2 \t\t\t\n      GT \t\t\t\n      ISZERO \t\t\t\n      PUSH [tag] 520\t\t\t\n      JUMPI \t\t\t\n      PUSH [tag] 521\t\t\t\n      PUSH [tag] 366\t\t\t\n      JUMP \t\t\t\n    tag 521\t\t\t\n      JUMPDEST \t\t\t\n    tag 520\t\t\t\n      JUMPDEST \t\t\t\n      PUSH [tag] 522\t\t\t\n      DUP6 \t\t\t\n      DUP3 \t\t\t\n      DUP7 \t\t\t\n      ADD \t\t\t\n      PUSH [tag] 376\t\t\t\n      JUMP \t\t\t\n    tag 522\t\t\t\n      JUMPDEST \t\t\t\n      SWAP2 \t\t\t\n      POP \t\t\t\n      POP \t\t\t\n      SWAP3 \t\t\t\n      POP \t\t\t\n      SWAP3 \t\t\t\n      SWAP1 \t\t\t\n      POP \t\t\t\n      JUMP \t\t\t\n    tag 381\t\t\t\n      JUMPDEST \t\t\t\n      PUSH 0\t\t\t\n      DUP2 \t\t\t\n      MLOAD \t\t\t\n      SWAP1 \t\t\t\n      POP \t\t\t\n      SWAP2 \t\t\t\n      SWAP1 \t\t\t\n      POP \t\t\t\n      JUMP \t\t\t\n    tag 382\t\t\t\n      JUMPDEST \t\t\t\n      PUSH 0\t\t\t\n      DUP3 \t\t\t\n      DUP3 \t\t\t\n      MSTORE \t\t\t\n      PUSH 20\t\t\t\n      DUP3 \t\t\t\n      ADD \t\t\t\n      SWAP1 \t\t\t\n      POP \t\t\t\n      SWAP3 \t\t\t\n      SWAP2 \t\t\t\n      POP \t\t\t\n      POP \t\t\t\n      JUMP \t\t\t\n    tag 383\t\t\t\n      JUMPDEST \t\t\t\n      PUSH 0\t\t\t\n    tag 526\t\t\t\n      JUMPDEST \t\t\t\n      DUP4 \t\t\t\n      DUP2 \t\t\t\n      LT \t\t\t\n      ISZERO \t\t\t\n      PUSH [tag] 528\t\t\t\n      JUMPI \t\t\t\n      DUP1 \t\t\t\n      DUP3 \t\t\t\n      ADD \t\t\t\n      MLOAD \t\t\t\n      DUP2 \t\t\t\n      DUP5 \t\t\t\n      ADD \t\t\t\n      MSTORE \t\t\t\n      PUSH 20\t\t\t\n      DUP2 \t\t\t\n      ADD \t\t\t\n      SWAP1 \t\t\t\n      POP \t\t\t\n      PUSH [tag] 526\t\t\t\n      JUMP \t\t\t\n    tag 528\t\t\t\n      JUMPDEST \t\t\t\n      PUSH 0\t\t\t\n      DUP5 \t\t\t\n      DUP5 \t\t\t\n      ADD \t\t\t\n      MSTORE \t\t\t\n      POP \t\t\t\n      POP \t\t\t\n      POP \t\t\t\n      POP \t\t\t\n      JUMP \t\t\t\n    tag 384\t\t\t\n      JUMPDEST \t\t\t\n      PUSH 0\t\t\t\n      PUSH [tag] 530\t\t\t\n      DUP3 \t\t\t\n      PUSH [tag] 381\t\t\t\n      JUMP \t\t\t\n    tag 530\t\t\t\n      JUMPDEST \t\t\t\n      PUSH [tag] 531\t\t\t\n      DUP2 \t\t\t\n      DUP6 \t\t\t\n      PUSH [tag] 382\t\t\t\n      JUMP \t\t\t\n    tag 531\t\t\t\n      JUMPDEST \t\t\t\n      SWAP4 \t\t\t\n      POP \t\t\t\n      PUSH [tag] 532\t\t\t\n      DUP2 \t\t\t\n      DUP6 \t\t\t\n      PUSH 20\t\t\t\n      DUP7 \t\t\t\n      ADD \t\t\t\n      PUSH [tag] 383\t\t\t\n      JUMP \t\t\t\n    tag 532\t\t\t\n      JUMPDEST \t\t\t\n      PUSH [tag] 533\t\t\t\n      DUP2 \t\t\t\n      PUSH [tag] 369\t\t\t\n      JUMP \t\t\t\n    tag 533\t\t\t\n      JUMPDEST \t\t\t\n      DUP5 \t\t\t\n      ADD \t\t\t\n      SWAP2 \t\t\t\n      POP \t\t\t\n      POP \t\t\t\n      SWAP3 \t\t\t\n      SWAP2 \t\t\t\n      POP \t\t\t\n      POP \t\t\t\n      JUMP \t\t\t\n    tag 27\t\t\t\n      JUMPDEST \t\t\t\n      PUSH 0\t\t\t\n      PUSH 20\t\t\t\n      DUP3 \t\t\t\n      ADD \t\t\t\n      SWAP1 \t\t\t\n      POP \t\t\t\n      DUP2 \t\t\t\n      DUP2 \t\t\t\n      SUB \t\t\t\n      PUSH 0\t\t\t\n      DUP4 \t\t\t\n      ADD \t\t\t\n      MSTORE \t\t\t\n      PUSH [tag] 535\t\t\t\n      DUP2 \t\t\t\n      DUP5 \t\t\t\n      PUSH [tag] 384\t\t\t\n      JUMP \t\t\t\n    tag 535\t\t\t\n      JUMPDEST \t\t\t\n      SWAP1 \t\t\t\n      POP \t\t\t\n      SWAP3 \t\t\t\n      SWAP2 \t\t\t\n      POP \t\t\t\n      POP \t\t\t\n      JUMP \t\t\t\n    tag 385\t\t\t\n      JUMPDEST \t\t\t\n      PUSH 0\t\t\t\n      DUP3 \t\t\t\n      DUP3 \t\t\t\n      MSTORE \t\t\t\n      PUSH 20\t\t\t\n      DUP3 \t\t\t\n      ADD \t\t\t\n      SWAP1 \t\t\t\n      POP \t\t\t\n      SWAP3 \t\t\t\n      SWAP2 \t\t\t\n      POP \t\t\t\n      POP \t\t\t\n      JUMP \t\t\t\n    tag 386\t\t\t\n      JUMPDEST \t\t\t\n      PUSH 0\t\t\t\n      PUSH [tag] 538\t\t\t\n      DUP3 \t\t\t\n      PUSH [tag] 381\t\t\t\n      JUMP \t\t\t\n    tag 538\t\t\t\n      JUMPDEST \t\t\t\n      PUSH [tag] 539\t\t\t\n      DUP2 \t\t\t\n      DUP6 \t\t\t\n      PUSH [tag] 385\t\t\t\n      JUMP \t\t\t\n    tag 539\t\t\t\n      JUMPDEST \t\t\t\n      SWAP4 \t\t\t\n      POP \t\t\t\n      PUSH [tag] 540\t\t\t\n      DUP2 \t\t\t\n      DUP6 \t\t\t\n      PUSH 20\t\t\t\n      DUP7 \t\t\t\n      ADD \t\t\t\n      PUSH [tag] 383\t\t\t\n      JUMP \t\t\t\n    tag 540\t\t\t\n      JUMPDEST \t\t\t\n      PUSH [tag] 541\t\t\t\n      DUP2 \t\t\t\n      PUSH [tag] 369\t\t\t\n      JUMP \t\t\t\n    tag 541\t\t\t\n      JUMPDEST \t\t\t\n      DUP5 \t\t\t\n      ADD \t\t\t\n      SWAP2 \t\t\t\n      POP \t\t\t\n      POP \t\t\t\n      SWAP3 \t\t\t\n      SWAP2 \t\t\t\n      POP \t\t\t\n      POP \t\t\t\n      JUMP \t\t\t\n    tag 387\t\t\t\n      JUMPDEST \t\t\t\n      PUSH 0\t\t\t\n      DUP2 \t\t\t\n      MLOAD \t\t\t\n      SWAP1 \t\t\t\n      POP \t\t\t\n      SWAP2 \t\t\t\n      SWAP1 \t\t\t\n      POP \t\t\t\n      JUMP \t\t\t\n    tag 388\t\t\t\n      JUMPDEST \t\t\t\n      PUSH 0\t\t\t\n      DUP3 \t\t\t\n      DUP3 \t\t\t\n      MSTORE \t\t\t\n      PUSH 20\t\t\t\n      DUP3 \t\t\t\n      ADD \t\t\t\n      SWAP1 \t\t\t\n      POP \t\t\t\n      SWAP3 \t\t\t\n      SWAP2 \t\t\t\n      POP \t\t\t\n      POP \t\t\t\n      JUMP \t\t\t\n    tag 389\t\t\t\n      JUMPDEST \t\t\t\n      PUSH 0\t\t\t\n      DUP2 \t\t\t\n      SWAP1 \t\t\t\n      POP \t\t\t\n      PUSH 20\t\t\t\n      DUP3 \t\t\t\n      ADD \t\t\t\n      SWAP1 \t\t\t\n      POP \t\t\t\n      SWAP2 \t\t\t\n      SWAP1 \t\t\t\n      POP \t\t\t\n      JUMP \t\t\t\n    tag 390\t\t\t\n      JUMPDEST \t\t\t\n      PUSH 0\t\t\t\n      DUP2 \t\t\t\n      MLOAD \t\t\t\n      SWAP1 \t\t\t\n      POP \t\t\t\n      SWAP2 \t\t\t\n      SWAP1 \t\t\t\n      POP \t\t\t\n      JUMP \t\t\t\n    tag 391\t\t\t\n      JUMPDEST \t\t\t\n      PUSH 0\t\t\t\n      DUP3 \t\t\t\n      DUP3 \t\t\t\n      MSTORE \t\t\t\n      PUSH 20\t\t\t\n      DUP3 \t\t\t\n      ADD \t\t\t\n      SWAP1 \t\t\t\n      POP \t\t\t\n      SWAP3 \t\t\t\n      SWAP2 \t\t\t\n      POP \t\t\t\n      POP \t\t\t\n      JUMP \t\t\t\n    tag 392\t\t\t\n      JUMPDEST \t\t\t\n      PUSH 0\t\t\t\n      DUP2 \t\t\t\n      SWAP1 \t\t\t\n      POP \t\t\t\n      PUSH 20\t\t\t\n      DUP3 \t\t\t\n      ADD \t\t\t\n      SWAP1 \t\t\t\n      POP \t\t\t\n      SWAP2 \t\t\t\n      SWAP1 \t\t\t\n      POP \t\t\t\n      JUMP \t\t\t\n    tag 393\t\t\t\n      JUMPDEST \t\t\t\n      PUSH 0\t\t\t\n      PUSH [tag] 549\t\t\t\n      DUP4 \t\t\t\n      DUP4 \t\t\t\n      PUSH [tag] 386\t\t\t\n      JUMP \t\t\t\n    tag 549\t\t\t\n      JUMPDEST \t\t\t\n      SWAP1 \t\t\t\n      POP \t\t\t\n      SWAP3 \t\t\t\n      SWAP2 \t\t\t\n      POP \t\t\t\n      POP \t\t\t\n      JUMP \t\t\t\n    tag 394\t\t\t\n      JUMPDEST \t\t\t\n      PUSH 0\t\t\t\n      PUSH 20\t\t\t\n      DUP3 \t\t\t\n      ADD \t\t\t\n      SWAP1 \t\t\t\n      POP \t\t\t\n      SWAP2 \t\t\t\n      SWAP1 \t\t\t\n      POP \t\t\t\n      JUMP \t\t\t\n    tag 395\t\t\t\n      JUMPDEST \t\t\t\n      PUSH 0\t\t\t\n      PUSH [tag] 552\t\t\t\n      DUP3 \t\t\t\n      PUSH [tag] 390\t\t\t\n      JUMP \t\t\t\n    tag 552\t\t\t\n      JUMPDEST \t\t\t\n      PUSH [tag] 553\t\t\t\n      DUP2 \t\t\t\n      DUP6 \t\t\t\n      PUSH [tag] 391\t\t\t\n      JUMP \t\t\t\n    tag 553\t\t\t\n      JUMPDEST \t\t\t\n      SWAP4 \t\t\t\n      POP \t\t\t\n      DUP4 \t\t\t\n      PUSH 20\t\t\t\n      DUP3 \t\t\t\n      MUL \t\t\t\n      DUP6 \t\t\t\n      ADD \t\t\t\n      PUSH [tag] 554\t\t\t\n      DUP6 \t\t\t\n      PUSH [tag] 392\t\t\t\n      JUMP \t\t\t\n    tag 554\t\t\t\n      JUMPDEST \t\t\t\n      DUP1 \t\t\t\n      PUSH 0\t\t\t\n    tag 555\t\t\t\n      JUMPDEST \t\t\t\n      DUP6 \t\t\t\n      DUP2 \t\t\t\n      LT \t\t\t\n      ISZERO \t\t\t\n      PUSH [tag] 557\t\t\t\n      JUMPI \t\t\t\n      DUP5 \t\t\t\n      DUP5 \t\t\t\n      SUB \t\t\t\n      DUP10 \t\t\t\n      MSTORE \t\t\t\n      DUP2 \t\t\t\n      MLOAD \t\t\t\n      PUSH [tag] 558\t\t\t\n      DUP6 \t\t\t\n      DUP3 \t\t\t\n      PUSH [tag] 393\t\t\t\n      JUMP \t\t\t\n    tag 558\t\t\t\n      JUMPDEST \t\t\t\n      SWAP5 \t\t\t\n      POP \t\t\t\n      PUSH [tag] 559\t\t\t\n      DUP4 \t\t\t\n      PUSH [tag] 394\t\t\t\n      JUMP \t\t\t\n    tag 559\t\t\t\n      JUMPDEST \t\t\t\n      SWAP3 \t\t\t\n      POP \t\t\t\n      PUSH 20\t\t\t\n      DUP11 \t\t\t\n      ADD \t\t\t\n      SWAP10 \t\t\t\n      POP \t\t\t\n      POP \t\t\t\n      PUSH 1\t\t\t\n      DUP2 \t\t\t\n      ADD \t\t\t\n      SWAP1 \t\t\t\n      POP \t\t\t\n      PUSH [tag] 555\t\t\t\n      JUMP \t\t\t\n    tag 557\t\t\t\n      JUMPDEST \t\t\t\n      POP \t\t\t\n      DUP3 \t\t\t\n      SWAP8 \t\t\t\n      POP \t\t\t\n      DUP8 \t\t\t\n      SWAP6 \t\t\t\n      POP \t\t\t\n      POP \t\t\t\n      POP \t\t\t\n      POP \t\t\t\n      POP \t\t\t\n      POP \t\t\t\n      SWAP3 \t\t\t\n      SWAP2 \t\t\t\n      POP \t\t\t\n      POP \t\t\t\n      JUMP \t\t\t\n    tag 396\t\t\t\n      JUMPDEST \t\t\t\n      PUSH 0\t\t\t\n      PUSH 40\t\t\t\n      DUP4 \t\t\t\n      ADD \t\t\t\n      PUSH 0\t\t\t\n      DUP4 \t\t\t\n      ADD \t\t\t\n      MLOAD \t\t\t\n      DUP5 \t\t\t\n      DUP3 \t\t\t\n      SUB \t\t\t\n      PUSH 0\t\t\t\n      DUP7 \t\t\t\n      ADD \t\t\t\n      MSTORE \t\t\t\n      PUSH [tag] 561\t\t\t\n      DUP3 \t\t\t\n      DUP3 \t\t\t\n      PUSH [tag] 386\t\t\t\n      JUMP \t\t\t\n    tag 561\t\t\t\n      JUMPDEST \t\t\t\n      SWAP2 \t\t\t\n      POP \t\t\t\n      POP \t\t\t\n      PUSH 20\t\t\t\n      DUP4 \t\t\t\n      ADD \t\t\t\n      MLOAD \t\t\t\n      DUP5 \t\t\t\n      DUP3 \t\t\t\n      SUB \t\t\t\n      PUSH 20\t\t\t\n      DUP7 \t\t\t\n      ADD \t\t\t\n      MSTORE \t\t\t\n      PUSH [tag] 562\t\t\t\n      DUP3 \t\t\t\n      DUP3 \t\t\t\n      PUSH [tag] 395\t\t\t\n      JUMP \t\t\t\n    tag 562\t\t\t\n      JUMPDEST \t\t\t\n      SWAP2 \t\t\t\n      POP \t\t\t\n      POP \t\t\t\n      DUP1 \t\t\t\n      SWAP2 \t\t\t\n      POP \t\t\t\n      POP \t\t\t\n      SWAP3 \t\t\t\n      SWAP2 \t\t\t\n      POP \t\t\t\n      POP \t\t\t\n      JUMP \t\t\t\n    tag 397\t\t\t\n      JUMPDEST \t\t\t\n      PUSH 0\t\t\t\n      PUSH [tag] 564\t\t\t\n      DUP4 \t\t\t\n      DUP4 \t\t\t\n      PUSH [tag] 396\t\t\t\n      JUMP \t\t\t\n    tag 564\t\t\t\n      JUMPDEST \t\t\t\n      SWAP1 \t\t\t\n      POP \t\t\t\n      SWAP3 \t\t\t\n      SWAP2 \t\t\t\n      POP \t\t\t\n      POP \t\t\t\n      JUMP \t\t\t\n    tag 398\t\t\t\n      JUMPDEST \t\t\t\n      PUSH 0\t\t\t\n      PUSH 20\t\t\t\n      DUP3 \t\t\t\n      ADD \t\t\t\n      SWAP1 \t\t\t\n      POP \t\t\t\n      SWAP2 \t\t\t\n      SWAP1 \t\t\t\n      POP \t\t\t\n      JUMP \t\t\t\n    tag 399\t\t\t\n      JUMPDEST \t\t\t\n      PUSH 0\t\t\t\n      PUSH [tag] 567\t\t\t\n      DUP3 \t\t\t\n      PUSH [tag] 387\t\t\t\n      JUMP \t\t\t\n    tag 567\t\t\t\n      JUMPDEST \t\t\t\n      PUSH [tag] 568\t\t\t\n      DUP2 \t\t\t\n      DUP6 \t\t\t\n      PUSH [tag] 388\t\t\t\n      JUMP \t\t\t\n    tag 568\t\t\t\n      JUMPDEST \t\t\t\n      SWAP4 \t\t\t\n      POP \t\t\t\n      DUP4 \t\t\t\n      PUSH 20\t\t\t\n      DUP3 \t\t\t\n      MUL \t\t\t\n      DUP6 \t\t\t\n      ADD \t\t\t\n      PUSH [tag] 569\t\t\t\n      DUP6 \t\t\t\n      PUSH [tag] 389\t\t\t\n      JUMP \t\t\t\n    tag 569\t\t\t\n      JUMPDEST \t\t\t\n      DUP1 \t\t\t\n      PUSH 0\t\t\t\n    tag 570\t\t\t\n      JUMPDEST \t\t\t\n      DUP6 \t\t\t\n      DUP2 \t\t\t\n      LT \t\t\t\n      ISZERO \t\t\t\n      PUSH [tag] 572\t\t\t\n      JUMPI \t\t\t\n      DUP5 \t\t\t\n      DUP5 \t\t\t\n      SUB \t\t\t\n      DUP10 \t\t\t\n      MSTORE \t\t\t\n      DUP2 \t\t\t\n      MLOAD \t\t\t\n      PUSH [tag] 573\t\t\t\n      DUP6 \t\t\t\n      DUP3 \t\t\t\n      PUSH [tag] 397\t\t\t\n      JUMP \t\t\t\n    tag 573\t\t\t\n      JUMPDEST \t\t\t\n      SWAP5 \t\t\t\n      POP \t\t\t\n      PUSH [tag] 574\t\t\t\n      DUP4 \t\t\t\n      PUSH [tag] 398\t\t\t\n      JUMP \t\t\t\n    tag 574\t\t\t\n      JUMPDEST \t\t\t\n      SWAP3 \t\t\t\n      POP \t\t\t\n      PUSH 20\t\t\t\n      DUP11 \t\t\t\n      ADD \t\t\t\n      SWAP10 \t\t\t\n      POP \t\t\t\n      POP \t\t\t\n      PUSH 1\t\t\t\n      DUP2 \t\t\t\n      ADD \t\t\t\n      SWAP1 \t\t\t\n      POP \t\t\t\n      PUSH [tag] 570\t\t\t\n      JUMP \t\t\t\n    tag 572\t\t\t\n      JUMPDEST \t\t\t\n      POP \t\t\t\n      DUP3 \t\t\t\n      SWAP8 \t\t\t\n      POP \t\t\t\n      DUP8 \t\t\t\n      SWAP6 \t\t\t\n      POP \t\t\t\n      POP \t\t\t\n      POP \t\t\t\n      POP \t\t\t\n      POP \t\t\t\n      POP \t\t\t\n      SWAP3 \t\t\t\n      SWAP2 \t\t\t\n      POP \t\t\t\n      POP \t\t\t\n      JUMP \t\t\t\n    tag 400\t\t\t\n      JUMPDEST \t\t\t\n      PUSH 0\t\t\t\n      PUSH 40\t\t\t\n      DUP4 \t\t\t\n      ADD \t\t\t\n      PUSH 0\t\t\t\n      DUP4 \t\t\t\n      ADD \t\t\t\n      MLOAD \t\t\t\n      DUP5 \t\t\t\n      DUP3 \t\t\t\n      SUB \t\t\t\n      PUSH 0\t\t\t\n      DUP7 \t\t\t\n      ADD \t\t\t\n      MSTORE \t\t\t\n      PUSH [tag] 576\t\t\t\n      DUP3 \t\t\t\n      DUP3 \t\t\t\n      PUSH [tag] 386\t\t\t\n      JUMP \t\t\t\n    tag 576\t\t\t\n      JUMPDEST \t\t\t\n      SWAP2 \t\t\t\n      POP \t\t\t\n      POP \t\t\t\n      PUSH 20\t\t\t\n      DUP4 \t\t\t\n      ADD \t\t\t\n      MLOAD \t\t\t\n      DUP5 \t\t\t\n      DUP3 \t\t\t\n      SUB \t\t\t\n      PUSH 20\t\t\t\n      DUP7 \t\t\t\n      ADD \t\t\t\n      MSTORE \t\t\t\n      PUSH [tag] 577\t\t\t\n      DUP3 \t\t\t\n      DUP3 \t\t\t\n      PUSH [tag] 399\t\t\t\n      JUMP \t\t\t\n    tag 577\t\t\t\n      JUMPDEST \t\t\t\n      SWAP2 \t\t\t\n      POP \t\t\t\n      POP \t\t\t\n      DUP1 \t\t\t\n      SWAP2 \t\t\t\n      POP \t\t\t\n      POP \t\t\t\n      SWAP3 \t\t\t\n      SWAP2 \t\t\t\n      POP \t\t\t\n      POP \t\t\t\n      JUMP \t\t\t\n    tag 32\t\t\t\n      JUMPDEST \t\t\t\n      PUSH 0\t\t\t\n      PUSH 20\t\t\t\n      DUP3 \t\t\t\n      ADD \t\t\t\n      SWAP1 \t\t\t\n      POP \t\t\t\n      DUP2 \t\t\t\n      DUP2 \t\t\t\n      SUB \t\t\t\n      PUSH 0\t\t\t\n      DUP4 \t\t\t\n      ADD \t\t\t\n      MSTORE \t\t\t\n      PUSH [tag] 579\t\t\t\n      DUP2 \t\t\t\n      DUP5 \t\t\t\n      PUSH [tag] 400\t\t\t\n      JUMP \t\t\t\n    tag 579\t\t\t\n      JUMPDEST \t\t\t\n      SWAP1 \t\t\t\n      POP \t\t\t\n      SWAP3 \t\t\t\n      SWAP2 \t\t\t\n      POP \t\t\t\n      POP \t\t\t\n      JUMP \t\t\t\n    tag 401\t\t\t\n      JUMPDEST \t\t\t\n      PUSH 0\t\t\t\n      DUP3 \t\t\t\n      DUP3 \t\t\t\n      MSTORE \t\t\t\n      PUSH 20\t\t\t\n      DUP3 \t\t\t\n      ADD \t\t\t\n      SWAP1 \t\t\t\n      POP \t\t\t\n      SWAP3 \t\t\t\n      SWAP2 \t\t\t\n      POP \t\t\t\n      POP \t\t\t\n      JUMP \t\t\t\n    tag 402\t\t\t\n      JUMPDEST \t\t\t\n      PUSH 0\t\t\t\n      PUSH [tag] 582\t\t\t\n      DUP3 \t\t\t\n      PUSH [tag] 390\t\t\t\n      JUMP \t\t\t\n    tag 582\t\t\t\n      JUMPDEST \t\t\t\n      PUSH [tag] 583\t\t\t\n      DUP2 \t\t\t\n      DUP6 \t\t\t\n      PUSH [tag] 401\t\t\t\n      JUMP \t\t\t\n    tag 583\t\t\t\n      JUMPDEST \t\t\t\n      SWAP4 \t\t\t\n      POP \t\t\t\n      DUP4 \t\t\t\n      PUSH 20\t\t\t\n      DUP3 \t\t\t\n      MUL \t\t\t\n      DUP6 \t\t\t\n      ADD \t\t\t\n      PUSH [tag] 584\t\t\t\n      DUP6 \t\t\t\n      PUSH [tag] 392\t\t\t\n      JUMP \t\t\t\n    tag 584\t\t\t\n      JUMPDEST \t\t\t\n      DUP1 \t\t\t\n      PUSH 0\t\t\t\n    tag 585\t\t\t\n      JUMPDEST \t\t\t\n      DUP6 \t\t\t\n      DUP2 \t\t\t\n      LT \t\t\t\n      ISZERO \t\t\t\n      PUSH [tag] 587\t\t\t\n      JUMPI \t\t\t\n      DUP5 \t\t\t\n      DUP5 \t\t\t\n      SUB \t\t\t\n      DUP10 \t\t\t\n      MSTORE \t\t\t\n      DUP2 \t\t\t\n      MLOAD \t\t\t\n      PUSH [tag] 588\t\t\t\n      DUP6 \t\t\t\n      DUP3 \t\t\t\n      PUSH [tag] 393\t\t\t\n      JUMP \t\t\t\n    tag 588\t\t\t\n      JUMPDEST \t\t\t\n      SWAP5 \t\t\t\n      POP \t\t\t\n      PUSH [tag] 589\t\t\t\n      DUP4 \t\t\t\n      PUSH [tag] 394\t\t\t\n      JUMP \t\t\t\n    tag 589\t\t\t\n      JUMPDEST \t\t\t\n      SWAP3 \t\t\t\n      POP \t\t\t\n      PUSH 20\t\t\t\n      DUP11 \t\t\t\n      ADD \t\t\t\n      SWAP10 \t\t\t\n      POP \t\t\t\n      POP \t\t\t\n      PUSH 1\t\t\t\n      DUP2 \t\t\t\n      ADD \t\t\t\n      SWAP1 \t\t\t\n      POP \t\t\t\n      PUSH [tag] 585\t\t\t\n      JUMP \t\t\t\n    tag 587\t\t\t\n      JUMPDEST \t\t\t\n      POP \t\t\t\n      DUP3 \t\t\t\n      SWAP8 \t\t\t\n      POP \t\t\t\n      DUP8 \t\t\t\n      SWAP6 \t\t\t\n      POP \t\t\t\n      POP \t\t\t\n      POP \t\t\t\n      POP \t\t\t\n      POP \t\t\t\n      POP \t\t\t\n      SWAP3 \t\t\t\n      SWAP2 \t\t\t\n      POP \t\t\t\n      POP \t\t\t\n      JUMP \t\t\t\n    tag 36\t\t\t\n      JUMPDEST \t\t\t\n      PUSH 0\t\t\t\n      PUSH 20\t\t\t\n      DUP3 \t\t\t\n      ADD \t\t\t\n      SWAP1 \t\t\t\n      POP \t\t\t\n      DUP2 \t\t\t\n      DUP2 \t\t\t\n      SUB \t\t\t\n      PUSH 0\t\t\t\n      DUP4 \t\t\t\n      ADD \t\t\t\n      MSTORE \t\t\t\n      PUSH [tag] 591\t\t\t\n      DUP2 \t\t\t\n      DUP5 \t\t\t\n      PUSH [tag] 402\t\t\t\n      JUMP \t\t\t\n    tag 591\t\t\t\n      JUMPDEST \t\t\t\n      SWAP1 \t\t\t\n      POP \t\t\t\n      SWAP3 \t\t\t\n      SWAP2 \t\t\t\n      POP \t\t\t\n      POP \t\t\t\n      JUMP \t\t\t\n    tag 403\t\t\t\n      JUMPDEST \t\t\t\n      PUSH 0\t\t\t\n      DUP2 \t\t\t\n      SWAP1 \t\t\t\n      POP \t\t\t\n      SWAP3 \t\t\t\n      SWAP2 \t\t\t\n      POP \t\t\t\n      POP \t\t\t\n      JUMP \t\t\t\n    tag 404\t\t\t\n      JUMPDEST \t\t\t\n      POP \t\t\t\n      JUMP \t\t\t\n    tag 405\t\t\t\n      JUMPDEST \t\t\t\n      PUSH 0\t\t\t\n      PUSH [tag] 595\t\t\t\n      PUSH 0\t\t\t\n      DUP4 \t\t\t\n      PUSH [tag] 403\t\t\t\n      JUMP \t\t\t\n    tag 595\t\t\t\n      JUMPDEST \t\t\t\n      SWAP2 \t\t\t\n      POP \t\t\t\n      PUSH [tag] 596\t\t\t\n      DUP3 \t\t\t\n      PUSH [tag] 404\t\t\t\n      JUMP \t\t\t\n    tag 596\t\t\t\n      JUMPDEST \t\t\t\n      PUSH 0\t\t\t\n      DUP3 \t\t\t\n      ADD \t\t\t\n      SWAP1 \t\t\t\n      POP \t\t\t\n      SWAP2 \t\t\t\n      SWAP1 \t\t\t\n      POP \t\t\t\n      JUMP \t\t\t\n    tag 42\t\t\t\n      JUMPDEST \t\t\t\n      PUSH 0\t\t\t\n      PUSH [tag] 598\t\t\t\n      DUP3 \t\t\t\n      PUSH [tag] 405\t\t\t\n      JUMP \t\t\t\n    tag 598\t\t\t\n      JUMPDEST \t\t\t\n      SWAP2 \t\t\t\n      POP \t\t\t\n      DUP2 \t\t\t\n      SWAP1 \t\t\t\n      POP \t\t\t\n      SWAP2 \t\t\t\n      SWAP1 \t\t\t\n      POP \t\t\t\n      JUMP \t\t\t\n    tag 406\t\t\t\n      JUMPDEST \t\t\t\n      PUSH 0\t\t\t\n      PUSH FFFFFFFFFFFFFFFFFFFFFFFFFFFFFFFFFFFFFFFF\t\t\t\n      DUP3 \t\t\t\n      AND \t\t\t\n      SWAP1 \t\t\t\n      POP \t\t\t\n      SWAP2 \t\t\t\n      SWAP1 \t\t\t\n      POP \t\t\t\n      JUMP \t\t\t\n    tag 407\t\t\t\n      JUMPDEST \t\t\t\n      PUSH 0\t\t\t\n      PUSH [tag] 601\t\t\t\n      DUP3 \t\t\t\n      PUSH [tag] 406\t\t\t\n      JUMP \t\t\t\n    tag 601\t\t\t\n      JUMPDEST \t\t\t\n      SWAP1 \t\t\t\n      POP \t\t\t\n      SWAP2 \t\t\t\n      SWAP1 \t\t\t\n      POP \t\t\t\n      JUMP \t\t\t\n    tag 408\t\t\t\n      JUMPDEST \t\t\t\n      PUSH [tag] 603\t\t\t\n      DUP2 \t\t\t\n      PUSH [tag] 407\t\t\t\n      JUMP \t\t\t\n    tag 603\t\t\t\n      JUMPDEST \t\t\t\n      DUP3 \t\t\t\n      MSTORE \t\t\t\n      POP \t\t\t\n      POP \t\t\t\n      JUMP \t\t\t\n    tag 44\t\t\t\n      JUMPDEST \t\t\t\n      PUSH 0\t\t\t\n      PUSH 20\t\t\t\n      DUP3 \t\t\t\n      ADD \t\t\t\n      SWAP1 \t\t\t\n      POP \t\t\t\n      PUSH [tag] 605\t\t\t\n      PUSH 0\t\t\t\n      DUP4 \t\t\t\n      ADD \t\t\t\n      DUP5 \t\t\t\n      PUSH [tag] 408\t\t\t\n      JUMP \t\t\t\n    tag 605\t\t\t\n      JUMPDEST \t\t\t\n      SWAP3 \t\t\t\n      SWAP2 \t\t\t\n      POP \t\t\t\n      POP \t\t\t\n      JUMP \t\t\t\n    tag 409\t\t\t\n      JUMPDEST \t\t\t\n      PUSH 0\t\t\t\n      PUSH [tag] 607\t\t\t\n      PUSH [tag] 608\t\t\t\n      DUP5 \t\t\t\n      PUSH [tag] 373\t\t\t\n      JUMP \t\t\t\n    tag 608\t\t\t\n      JUMPDEST \t\t\t\n      PUSH [tag] 372\t\t\t\n      JUMP \t\t\t\n    tag 607\t\t\t\n      JUMPDEST \t\t\t\n      SWAP1 \t\t\t\n      POP \t\t\t\n      DUP3 \t\t\t\n      DUP2 \t\t\t\n      MSTORE \t\t\t\n      PUSH 20\t\t\t\n      DUP2 \t\t\t\n      ADD \t\t\t\n      DUP5 \t\t\t\n      DUP5 \t\t\t\n      DUP5 \t\t\t\n      ADD \t\t\t\n      GT \t\t\t\n      ISZERO \t\t\t\n      PUSH [tag] 609\t\t\t\n      JUMPI \t\t\t\n      PUSH [tag] 610\t\t\t\n      PUSH [tag] 368\t\t\t\n      JUMP \t\t\t\n    tag 610\t\t\t\n      JUMPDEST \t\t\t\n    tag 609\t\t\t\n      JUMPDEST \t\t\t\n      PUSH [tag] 611\t\t\t\n      DUP5 \t\t\t\n      DUP3 \t\t\t\n      DUP6 \t\t\t\n      PUSH [tag] 383\t\t\t\n      JUMP \t\t\t\n    tag 611\t\t\t\n      JUMPDEST \t\t\t\n      POP \t\t\t\n      SWAP4 \t\t\t\n      SWAP3 \t\t\t\n      POP \t\t\t\n      POP \t\t\t\n      POP \t\t\t\n      JUMP \t\t\t\n    tag 410\t\t\t\n      JUMPDEST \t\t\t\n      PUSH 0\t\t\t\n      DUP3 \t\t\t\n      PUSH 1F\t\t\t\n      DUP4 \t\t\t\n      ADD \t\t\t\n      SLT \t\t\t\n      PUSH [tag] 613\t\t\t\n      JUMPI \t\t\t\n      PUSH [tag] 614\t\t\t\n      PUSH [tag] 367\t\t\t\n      JUMP \t\t\t\n    tag 614\t\t\t\n      JUMPDEST \t\t\t\n    tag 613\t\t\t\n      JUMPDEST \t\t\t\n      DUP2 \t\t\t\n      MLOAD \t\t\t\n      PUSH [tag] 615\t\t\t\n      DUP5 \t\t\t\n      DUP3 \t\t\t\n      PUSH 20\t\t\t\n      DUP7 \t\t\t\n      ADD \t\t\t\n      PUSH [tag] 409\t\t\t\n      JUMP \t\t\t\n    tag 615\t\t\t\n      JUMPDEST \t\t\t\n      SWAP2 \t\t\t\n      POP \t\t\t\n      POP \t\t\t\n      SWAP3 \t\t\t\n      SWAP2 \t\t\t\n      POP \t\t\t\n      POP \t\t\t\n      JUMP \t\t\t\n    tag 48\t\t\t\n      JUMPDEST \t\t\t\n      PUSH 0\t\t\t\n      PUSH 20\t\t\t\n      DUP3 \t\t\t\n      DUP5 \t\t\t\n      SUB \t\t\t\n      SLT \t\t\t\n      ISZERO \t\t\t\n      PUSH [tag] 617\t\t\t\n      JUMPI \t\t\t\n      PUSH [tag] 618\t\t\t\n      PUSH [tag] 365\t\t\t\n      JUMP \t\t\t\n    tag 618\t\t\t\n      JUMPDEST \t\t\t\n    tag 617\t\t\t\n      JUMPDEST \t\t\t\n      PUSH 0\t\t\t\n      DUP3 \t\t\t\n      ADD \t\t\t\n      MLOAD \t\t\t\n      PUSH FFFFFFFFFFFFFFFF\t\t\t\n      DUP2 \t\t\t\n      GT \t\t\t\n      ISZERO \t\t\t\n      PUSH [tag] 619\t\t\t\n      JUMPI \t\t\t\n      PUSH [tag] 620\t\t\t\n      PUSH [tag] 366\t\t\t\n      JUMP \t\t\t\n    tag 620\t\t\t\n      JUMPDEST \t\t\t\n    tag 619\t\t\t\n      JUMPDEST \t\t\t\n      PUSH [tag] 621\t\t\t\n      DUP5 \t\t\t\n      DUP3 \t\t\t\n      DUP6 \t\t\t\n      ADD \t\t\t\n      PUSH [tag] 410\t\t\t\n      JUMP \t\t\t\n    tag 621\t\t\t\n      JUMPDEST \t\t\t\n      SWAP2 \t\t\t\n      POP \t\t\t\n      POP \t\t\t\n      SWAP3 \t\t\t\n      SWAP2 \t\t\t\n      POP \t\t\t\n      POP \t\t\t\n      JUMP \t\t\t\n    tag 411\t\t\t\n      JUMPDEST \t\t\t\n      PUSH 0\t\t\t\n      PUSH [tag] 623\t\t\t\n      DUP3 \t\t\t\n      PUSH [tag] 381\t\t\t\n      JUMP \t\t\t\n    tag 623\t\t\t\n      JUMPDEST \t\t\t\n      PUSH [tag] 624\t\t\t\n      DUP2 \t\t\t\n      DUP6 \t\t\t\n      PUSH [tag] 403\t\t\t\n      JUMP \t\t\t\n    tag 624\t\t\t\n      JUMPDEST \t\t\t\n      SWAP4 \t\t\t\n      POP \t\t\t\n      PUSH [tag] 625\t\t\t\n      DUP2 \t\t\t\n      DUP6 \t\t\t\n      PUSH 20\t\t\t\n      DUP7 \t\t\t\n      ADD \t\t\t\n      PUSH [tag] 383\t\t\t\n      JUMP \t\t\t\n    tag 625\t\t\t\n      JUMPDEST \t\t\t\n      DUP1 \t\t\t\n      DUP5 \t\t\t\n      ADD \t\t\t\n      SWAP2 \t\t\t\n      POP \t\t\t\n      POP \t\t\t\n      SWAP3 \t\t\t\n      SWAP2 \t\t\t\n      POP \t\t\t\n      POP \t\t\t\n      JUMP \t\t\t\n    tag 50\t\t\t\n      JUMPDEST \t\t\t\n      PUSH 0\t\t\t\n      PUSH [tag] 627\t\t\t\n      DUP3 \t\t\t\n      DUP5 \t\t\t\n      PUSH [tag] 411\t\t\t\n      JUMP \t\t\t\n    tag 627\t\t\t\n      JUMPDEST \t\t\t\n      SWAP2 \t\t\t\n      POP \t\t\t\n      DUP2 \t\t\t\n      SWAP1 \t\t\t\n      POP \t\t\t\n      SWAP3 \t\t\t\n      SWAP2 \t\t\t\n      POP \t\t\t\n      POP \t\t\t\n      JUMP \t\t\t\n    tag 412\t\t\t\n      JUMPDEST \t\t\t\n      PUSH 55736572206D75737420686176652031206F72206D6F726520726F6C65730000\t\t\t\n      PUSH 0\t\t\t\n      DUP3 \t\t\t\n      ADD \t\t\t\n      MSTORE \t\t\t\n      POP \t\t\t\n      JUMP \t\t\t\n    tag 413\t\t\t\n      JUMPDEST \t\t\t\n      PUSH 0\t\t\t\n      PUSH [tag] 630\t\t\t\n      PUSH 1E\t\t\t\n      DUP4 \t\t\t\n      PUSH [tag] 382\t\t\t\n      JUMP \t\t\t\n    tag 630\t\t\t\n      JUMPDEST \t\t\t\n      SWAP2 \t\t\t\n      POP \t\t\t\n      PUSH [tag] 631\t\t\t\n      DUP3 \t\t\t\n      PUSH [tag] 412\t\t\t\n      JUMP \t\t\t\n    tag 631\t\t\t\n      JUMPDEST \t\t\t\n      PUSH 20\t\t\t\n      DUP3 \t\t\t\n      ADD \t\t\t\n      SWAP1 \t\t\t\n      POP \t\t\t\n      SWAP2 \t\t\t\n      SWAP1 \t\t\t\n      POP \t\t\t\n      JUMP \t\t\t\n    tag 53\t\t\t\n      JUMPDEST \t\t\t\n      PUSH 0\t\t\t\n      PUSH 20\t\t\t\n      DUP3 \t\t\t\n      ADD \t\t\t\n      SWAP1 \t\t\t\n      POP \t\t\t\n      DUP2 \t\t\t\n      DUP2 \t\t\t\n      SUB \t\t\t\n      PUSH 0\t\t\t\n      DUP4 \t\t\t\n      ADD \t\t\t\n      MSTORE \t\t\t\n      PUSH [tag] 633\t\t\t\n      DUP2 \t\t\t\n      PUSH [tag] 413\t\t\t\n      JUMP \t\t\t\n    tag 633\t\t\t\n      JUMPDEST \t\t\t\n      SWAP1 \t\t\t\n      POP \t\t\t\n      SWAP2 \t\t\t\n      SWAP1 \t\t\t\n      POP \t\t\t\n      JUMP \t\t\t\n    tag 61\t\t\t\n      JUMPDEST \t\t\t\n      PUSH 4E487B7100000000000000000000000000000000000000000000000000000000\t\t\t\n      PUSH 0\t\t\t\n      MSTORE \t\t\t\n      PUSH 32\t\t\t\n      PUSH 4\t\t\t\n      MSTORE \t\t\t\n      PUSH 24\t\t\t\n      PUSH 0\t\t\t\n      REVERT \t\t\t\n    tag 414\t\t\t\n      JUMPDEST \t\t\t\n      PUSH 4E487B7100000000000000000000000000000000000000000000000000000000\t\t\t\n      PUSH 0\t\t\t\n      MSTORE \t\t\t\n      PUSH 22\t\t\t\n      PUSH 4\t\t\t\n      MSTORE \t\t\t\n      PUSH 24\t\t\t\n      PUSH 0\t\t\t\n      REVERT \t\t\t\n    tag 164\t\t\t\n      JUMPDEST \t\t\t\n      PUSH 0\t\t\t\n      PUSH 2\t\t\t\n      DUP3 \t\t\t\n      DIV \t\t\t\n      SWAP1 \t\t\t\n      POP \t\t\t\n      PUSH 1\t\t\t\n      DUP3 \t\t\t\n      AND \t\t\t\n      DUP1 \t\t\t\n      PUSH [tag] 637\t\t\t\n      JUMPI \t\t\t\n      PUSH 7F\t\t\t\n      DUP3 \t\t\t\n      AND \t\t\t\n      SWAP2 \t\t\t\n      POP \t\t\t\n    tag 637\t\t\t\n      JUMPDEST \t\t\t\n      PUSH 20\t\t\t\n      DUP3 \t\t\t\n      LT \t\t\t\n      DUP2 \t\t\t\n      SUB \t\t\t\n      PUSH [tag] 638\t\t\t\n      JUMPI \t\t\t\n      PUSH [tag] 639\t\t\t\n      PUSH [tag] 414\t\t\t\n      JUMP \t\t\t\n    tag 639\t\t\t\n      JUMPDEST \t\t\t\n    tag 638\t\t\t\n      JUMPDEST \t\t\t\n      POP \t\t\t\n      SWAP2 \t\t\t\n      SWAP1 \t\t\t\n      POP \t\t\t\n      JUMP \t\t\t\n    tag 415\t\t\t\n      JUMPDEST \t\t\t\n      PUSH 0\t\t\t\n      DUP2 \t\t\t\n      SWAP1 \t\t\t\n      POP \t\t\t\n      DUP2 \t\t\t\n      PUSH 0\t\t\t\n      MSTORE \t\t\t\n      PUSH 20\t\t\t\n      PUSH 0\t\t\t\n      KECCAK256 \t\t\t\n      SWAP1 \t\t\t\n      POP \t\t\t\n      SWAP2 \t\t\t\n      SWAP1 \t\t\t\n      POP \t\t\t\n      JUMP \t\t\t\n    tag 416\t\t\t\n      JUMPDEST \t\t\t\n      PUSH 0\t\t\t\n      DUP2 \t\t\t\n      SLOAD \t\t\t\n      PUSH [tag] 642\t\t\t\n      DUP2 \t\t\t\n      PUSH [tag] 164\t\t\t\n      JUMP \t\t\t\n    tag 642\t\t\t\n      JUMPDEST \t\t\t\n      PUSH [tag] 643\t\t\t\n      DUP2 \t\t\t\n      DUP7 \t\t\t\n      PUSH [tag] 403\t\t\t\n      JUMP \t\t\t\n    tag 643\t\t\t\n      JUMPDEST \t\t\t\n      SWAP5 \t\t\t\n      POP \t\t\t\n      PUSH 1\t\t\t\n      DUP3 \t\t\t\n      AND \t\t\t\n      PUSH 0\t\t\t\n      DUP2 \t\t\t\n      EQ \t\t\t\n      PUSH [tag] 645\t\t\t\n      JUMPI \t\t\t\n      PUSH 1\t\t\t\n      DUP2 \t\t\t\n      EQ \t\t\t\n      PUSH [tag] 646\t\t\t\n      JUMPI \t\t\t\n      PUSH [tag] 644\t\t\t\n      JUMP \t\t\t\n    tag 645\t\t\t\n      JUMPDEST \t\t\t\n      PUSH FF\t\t\t\n      NOT \t\t\t\n      DUP4 \t\t\t\n      AND \t\t\t\n      DUP7 \t\t\t\n      MSTORE \t\t\t\n      DUP2 \t\t\t\n      ISZERO \t\t\t\n      ISZERO \t\t\t\n      DUP3 \t\t\t\n      MUL \t\t\t\n      DUP7 \t\t\t\n      ADD \t\t\t\n      SWAP4 \t\t\t\n      POP \t\t\t\n      PUSH [tag] 644\t\t\t\n      JUMP \t\t\t\n    tag 646\t\t\t\n      JUMPDEST \t\t\t\n      PUSH [tag] 647\t\t\t\n      DUP6 \t\t\t\n      PUSH [tag] 415\t\t\t\n      JUMP \t\t\t\n    tag 647\t\t\t\n      JUMPDEST \t\t\t\n      PUSH 0\t\t\t\n    tag 648\t\t\t\n      JUMPDEST \t\t\t\n      DUP4 \t\t\t\n      DUP2 \t\t\t\n      LT \t\t\t\n      ISZERO \t\t\t\n      PUSH [tag] 650\t\t\t\n      JUMPI \t\t\t\n      DUP2 \t\t\t\n      SLOAD \t\t\t\n      DUP2 \t\t\t\n      DUP10 \t\t\t\n      ADD \t\t\t\n      MSTORE \t\t\t\n      PUSH 1\t\t\t\n      DUP3 \t\t\t\n      ADD \t\t\t\n      SWAP2 \t\t\t\n      POP \t\t\t\n      PUSH 20\t\t\t\n      DUP2 \t\t\t\n      ADD \t\t\t\n      SWAP1 \t\t\t\n      POP \t\t\t\n      PUSH [tag] 648\t\t\t\n      JUMP \t\t\t\n    tag 650\t\t\t\n      JUMPDEST \t\t\t\n      DUP4 \t\t\t\n      DUP9 \t\t\t\n      ADD \t\t\t\n      SWAP6 \t\t\t\n      POP \t\t\t\n      POP \t\t\t\n      POP \t\t\t\n    tag 644\t\t\t\n      JUMPDEST \t\t\t\n      POP \t\t\t\n      POP \t\t\t\n      POP \t\t\t\n      SWAP3 \t\t\t\n      SWAP2 \t\t\t\n      POP \t\t\t\n      POP \t\t\t\n      JUMP \t\t\t\n    tag 64\t\t\t\n      JUMPDEST \t\t\t\n      PUSH 0\t\t\t\n      PUSH [tag] 652\t\t\t\n      DUP3 \t\t\t\n      DUP5 \t\t\t\n      PUSH [tag] 416\t\t\t\n      JUMP \t\t\t\n    tag 652\t\t\t\n      JUMPDEST \t\t\t\n      SWAP2 \t\t\t\n      POP \t\t\t\n      DUP2 \t\t\t\n      SWAP1 \t\t\t\n      POP \t\t\t\n      SWAP3 \t\t\t\n      SWAP2 \t\t\t\n      POP \t\t\t\n      POP \t\t\t\n      JUMP \t\t\t\n    tag 417\t\t\t\n      JUMPDEST \t\t\t\n      PUSH 0\t\t\t\n      DUP2 \t\t\t\n      SWAP1 \t\t\t\n      POP \t\t\t\n      SWAP2 \t\t\t\n      SWAP1 \t\t\t\n      POP \t\t\t\n      JUMP \t\t\t\n    tag 418\t\t\t\n      JUMPDEST \t\t\t\n      PUSH 4E487B7100000000000000000000000000000000000000000000000000000000\t\t\t\n      PUSH 0\t\t\t\n      MSTORE \t\t\t\n      PUSH 11\t\t\t\n      PUSH 4\t\t\t\n      MSTORE \t\t\t\n      PUSH 24\t\t\t\n      PUSH 0\t\t\t\n      REVERT \t\t\t\n    tag 67\t\t\t\n      JUMPDEST \t\t\t\n      PUSH 0\t\t\t\n      PUSH [tag] 656\t\t\t\n      DUP3 \t\t\t\n      PUSH [tag] 417\t\t\t\n      JUMP \t\t\t\n    tag 656\t\t\t\n      JUMPDEST \t\t\t\n      SWAP2 \t\t\t\n      POP \t\t\t\n      PUSH [tag] 657\t\t\t\n      DUP4 \t\t\t\n      PUSH [tag] 417\t\t\t\n      JUMP \t\t\t\n    tag 657\t\t\t\n      JUMPDEST \t\t\t\n      SWAP3 \t\t\t\n      POP \t\t\t\n      DUP3 \t\t\t\n      DUP3 \t\t\t\n      SUB \t\t\t\n      SWAP1 \t\t\t\n      POP \t\t\t\n      DUP2 \t\t\t\n      DUP2 \t\t\t\n      GT \t\t\t\n      ISZERO \t\t\t\n      PUSH [tag] 658\t\t\t\n      JUMPI \t\t\t\n      PUSH [tag] 659\t\t\t\n      PUSH [tag] 418\t\t\t\n      JUMP \t\t\t\n    tag 659\t\t\t\n      JUMPDEST \t\t\t\n    tag 658\t\t\t\n      JUMPDEST \t\t\t\n      SWAP3 \t\t\t\n      SWAP2 \t\t\t\n      POP \t\t\t\n      POP \t\t\t\n      JUMP \t\t\t\n    tag 419\t\t\t\n      JUMPDEST \t\t\t\n      PUSH 0\t\t\t\n      DUP2 \t\t\t\n      SLOAD \t\t\t\n      SWAP1 \t\t\t\n      POP \t\t\t\n      PUSH [tag] 661\t\t\t\n      DUP2 \t\t\t\n      PUSH [tag] 164\t\t\t\n      JUMP \t\t\t\n    tag 661\t\t\t\n      JUMPDEST \t\t\t\n      SWAP1 \t\t\t\n      POP \t\t\t\n      SWAP2 \t\t\t\n      SWAP1 \t\t\t\n      POP \t\t\t\n      JUMP \t\t\t\n    tag 420\t\t\t\n      JUMPDEST \t\t\t\n      PUSH 0\t\t\t\n      DUP2 \t\t\t\n      SWAP1 \t\t\t\n      POP \t\t\t\n      DUP2 \t\t\t\n      PUSH 0\t\t\t\n      MSTORE \t\t\t\n      PUSH 20\t\t\t\n      PUSH 0\t\t\t\n      KECCAK256 \t\t\t\n      SWAP1 \t\t\t\n      POP \t\t\t\n      SWAP2 \t\t\t\n      SWAP1 \t\t\t\n      POP \t\t\t\n      JUMP \t\t\t\n    tag 421\t\t\t\n      JUMPDEST \t\t\t\n      PUSH 0\t\t\t\n      PUSH 20\t\t\t\n      PUSH 1F\t\t\t\n      DUP4 \t\t\t\n      ADD \t\t\t\n      DIV \t\t\t\n      SWAP1 \t\t\t\n      POP \t\t\t\n      SWAP2 \t\t\t\n      SWAP1 \t\t\t\n      POP \t\t\t\n      JUMP \t\t\t\n    tag 422\t\t\t\n      JUMPDEST \t\t\t\n      PUSH 0\t\t\t\n      DUP3 \t\t\t\n      DUP3 \t\t\t\n      SHL \t\t\t\n      SWAP1 \t\t\t\n      POP \t\t\t\n      SWAP3 \t\t\t\n      SWAP2 \t\t\t\n      POP \t\t\t\n      POP \t\t\t\n      JUMP \t\t\t\n    tag 423\t\t\t\n      JUMPDEST \t\t\t\n      PUSH 0\t\t\t\n      PUSH 8\t\t\t\n      DUP4 \t\t\t\n      MUL \t\t\t\n      PUSH [tag] 666\t\t\t\n      PUSH FFFFFFFFFFFFFFFFFFFFFFFFFFFFFFFFFFFFFFFFFFFFFFFFFFFFFFFFFFFFFFFF\t\t\t\n      DUP3 \t\t\t\n      PUSH [tag] 422\t\t\t\n      JUMP \t\t\t\n    tag 666\t\t\t\n      JUMPDEST \t\t\t\n      PUSH [tag] 667\t\t\t\n      DUP7 \t\t\t\n      DUP4 \t\t\t\n      PUSH [tag] 422\t\t\t\n      JUMP \t\t\t\n    tag 667\t\t\t\n      JUMPDEST \t\t\t\n      SWAP6 \t\t\t\n      POP \t\t\t\n      DUP1 \t\t\t\n      NOT \t\t\t\n      DUP5 \t\t\t\n      AND \t\t\t\n      SWAP4 \t\t\t\n      POP \t\t\t\n      DUP1 \t\t\t\n      DUP7 \t\t\t\n      AND \t\t\t\n      DUP5 \t\t\t\n      OR \t\t\t\n      SWAP3 \t\t\t\n      POP \t\t\t\n      POP \t\t\t\n      POP \t\t\t\n      SWAP4 \t\t\t\n      SWAP3 \t\t\t\n      POP \t\t\t\n      POP \t\t\t\n      POP \t\t\t\n      JUMP \t\t\t\n    tag 424\t\t\t\n      JUMPDEST \t\t\t\n      PUSH 0\t\t\t\n      DUP2 \t\t\t\n      SWAP1 \t\t\t\n      POP \t\t\t\n      SWAP2 \t\t\t\n      SWAP1 \t\t\t\n      POP \t\t\t\n      JUMP \t\t\t\n    tag 425\t\t\t\n      JUMPDEST \t\t\t\n      PUSH 0\t\t\t\n      PUSH [tag] 670\t\t\t\n      PUSH [tag] 671\t\t\t\n      PUSH [tag] 672\t\t\t\n      DUP5 \t\t\t\n      PUSH [tag] 417\t\t\t\n      JUMP \t\t\t\n    tag 672\t\t\t\n      JUMPDEST \t\t\t\n      PUSH [tag] 424\t\t\t\n      JUMP \t\t\t\n    tag 671\t\t\t\n      JUMPDEST \t\t\t\n      PUSH [tag] 417\t\t\t\n      JUMP \t\t\t\n    tag 670\t\t\t\n      JUMPDEST \t\t\t\n      SWAP1 \t\t\t\n      POP \t\t\t\n      SWAP2 \t\t\t\n      SWAP1 \t\t\t\n      POP \t\t\t\n      JUMP \t\t\t\n    tag 426\t\t\t\n      JUMPDEST \t\t\t\n      PUSH 0\t\t\t\n      DUP2 \t\t\t\n      SWAP1 \t\t\t\n      POP \t\t\t\n      SWAP2 \t\t\t\n      SWAP1 \t\t\t\n      POP \t\t\t\n      JUMP \t\t\t\n    tag 427\t\t\t\n      JUMPDEST \t\t\t\n      PUSH [tag] 675\t\t\t\n      DUP4 \t\t\t\n      PUSH [tag] 425\t\t\t\n      JUMP \t\t\t\n    tag 675\t\t\t\n      JUMPDEST \t\t\t\n      PUSH [tag] 676\t\t\t\n      PUSH [tag] 677\t\t\t\n      DUP3 \t\t\t\n      PUSH [tag] 426\t\t\t\n      JUMP \t\t\t\n    tag 677\t\t\t\n      JUMPDEST \t\t\t\n      DUP5 \t\t\t\n      DUP5 \t\t\t\n      SLOAD \t\t\t\n      PUSH [tag] 423\t\t\t\n      JUMP \t\t\t\n    tag 676\t\t\t\n      JUMPDEST \t\t\t\n      DUP3 \t\t\t\n      SSTORE \t\t\t\n      POP \t\t\t\n      POP \t\t\t\n      POP \t\t\t\n      POP \t\t\t\n      JUMP \t\t\t\n    tag 428\t\t\t\n      JUMPDEST \t\t\t\n      PUSH 0\t\t\t\n      SWAP1 \t\t\t\n      JUMP \t\t\t\n    tag 429\t\t\t\n      JUMPDEST \t\t\t\n      PUSH [tag] 680\t\t\t\n      PUSH [tag] 428\t\t\t\n      JUMP \t\t\t\n    tag 680\t\t\t\n      JUMPDEST \t\t\t\n      PUSH [tag] 681\t\t\t\n      DUP2 \t\t\t\n      DUP5 \t\t\t\n      DUP5 \t\t\t\n      PUSH [tag] 427\t\t\t\n      JUMP \t\t\t\n    tag 681\t\t\t\n      JUMPDEST \t\t\t\n      POP \t\t\t\n      POP \t\t\t\n      POP \t\t\t\n      JUMP \t\t\t\n    tag 430\t\t\t\n      JUMPDEST \t\t\t\n    tag 683\t\t\t\n      JUMPDEST \t\t\t\n      DUP2 \t\t\t\n      DUP2 \t\t\t\n      LT \t\t\t\n      ISZERO \t\t\t\n      PUSH [tag] 685\t\t\t\n      JUMPI \t\t\t\n      PUSH [tag] 686\t\t\t\n      PUSH 0\t\t\t\n      DUP3 \t\t\t\n      PUSH [tag] 429\t\t\t\n      JUMP \t\t\t\n    tag 686\t\t\t\n      JUMPDEST \t\t\t\n      PUSH 1\t\t\t\n      DUP2 \t\t\t\n      ADD \t\t\t\n      SWAP1 \t\t\t\n      POP \t\t\t\n      PUSH [tag] 683\t\t\t\n      JUMP \t\t\t\n    tag 685\t\t\t\n      JUMPDEST \t\t\t\n      POP \t\t\t\n      POP \t\t\t\n      JUMP \t\t\t\n    tag 431\t\t\t\n      JUMPDEST \t\t\t\n      PUSH 1F\t\t\t\n      DUP3 \t\t\t\n      GT \t\t\t\n      ISZERO \t\t\t\n      PUSH [tag] 688\t\t\t\n      JUMPI \t\t\t\n      PUSH [tag] 689\t\t\t\n      DUP2 \t\t\t\n      PUSH [tag] 415\t\t\t\n      JUMP \t\t\t\n    tag 689\t\t\t\n      JUMPDEST \t\t\t\n      PUSH [tag] 690\t\t\t\n      DUP5 \t\t\t\n      PUSH [tag] 421\t\t\t\n      JUMP \t\t\t\n    tag 690\t\t\t\n      JUMPDEST \t\t\t\n      DUP2 \t\t\t\n      ADD \t\t\t\n      PUSH 20\t\t\t\n      DUP6 \t\t\t\n      LT \t\t\t\n      ISZERO \t\t\t\n      PUSH [tag] 691\t\t\t\n      JUMPI \t\t\t\n      DUP2 \t\t\t\n      SWAP1 \t\t\t\n      POP \t\t\t\n    tag 691\t\t\t\n      JUMPDEST \t\t\t\n      PUSH [tag] 692\t\t\t\n      PUSH [tag] 693\t\t\t\n      DUP6 \t\t\t\n      PUSH [tag] 421\t\t\t\n      JUMP \t\t\t\n    tag 693\t\t\t\n      JUMPDEST \t\t\t\n      DUP4 \t\t\t\n      ADD \t\t\t\n      DUP3 \t\t\t\n      PUSH [tag] 430\t\t\t\n      JUMP \t\t\t\n    tag 692\t\t\t\n      JUMPDEST \t\t\t\n      POP \t\t\t\n      POP \t\t\t\n    tag 688\t\t\t\n      JUMPDEST \t\t\t\n      POP \t\t\t\n      POP \t\t\t\n      POP \t\t\t\n      JUMP \t\t\t\n    tag 432\t\t\t\n      JUMPDEST \t\t\t\n      PUSH 0\t\t\t\n      DUP3 \t\t\t\n      DUP3 \t\t\t\n      SHR \t\t\t\n      SWAP1 \t\t\t\n      POP \t\t\t\n      SWAP3 \t\t\t\n      SWAP2 \t\t\t\n      POP \t\t\t\n      POP \t\t\t\n      JUMP \t\t\t\n    tag 433\t\t\t\n      JUMPDEST \t\t\t\n      PUSH 0\t\t\t\n      PUSH [tag] 696\t\t\t\n      PUSH 0\t\t\t\n      NOT \t\t\t\n      DUP5 \t\t\t\n      PUSH 8\t\t\t\n      MUL \t\t\t\n      PUSH [tag] 432\t\t\t\n      JUMP \t\t\t\n    tag 696\t\t\t\n      JUMPDEST \t\t\t\n      NOT \t\t\t\n      DUP1 \t\t\t\n      DUP4 \t\t\t\n      AND \t\t\t\n      SWAP2 \t\t\t\n      POP \t\t\t\n      POP \t\t\t\n      SWAP3 \t\t\t\n      SWAP2 \t\t\t\n      POP \t\t\t\n      POP \t\t\t\n      JUMP \t\t\t\n    tag 434\t\t\t\n      JUMPDEST \t\t\t\n      PUSH 0\t\t\t\n      PUSH [tag] 698\t\t\t\n      DUP4 \t\t\t\n      DUP4 \t\t\t\n      PUSH [tag] 433\t\t\t\n      JUMP \t\t\t\n    tag 698\t\t\t\n      JUMPDEST \t\t\t\n      SWAP2 \t\t\t\n      POP \t\t\t\n      DUP3 \t\t\t\n      PUSH 2\t\t\t\n      MUL \t\t\t\n      DUP3 \t\t\t\n      OR \t\t\t\n      SWAP1 \t\t\t\n      POP \t\t\t\n      SWAP3 \t\t\t\n      SWAP2 \t\t\t\n      POP \t\t\t\n      POP \t\t\t\n      JUMP \t\t\t\n    tag 75\t\t\t\n      JUMPDEST \t\t\t\n      DUP2 \t\t\t\n      DUP2 \t\t\t\n      SUB \t\t\t\n      PUSH [tag] 700\t\t\t\n      JUMPI \t\t\t\n      POP \t\t\t\n      POP \t\t\t\n      PUSH [tag] 699\t\t\t\n      JUMP \t\t\t\n    tag 700\t\t\t\n      JUMPDEST \t\t\t\n      PUSH [tag] 701\t\t\t\n      DUP3 \t\t\t\n      PUSH [tag] 419\t\t\t\n      JUMP \t\t\t\n    tag 701\t\t\t\n      JUMPDEST \t\t\t\n      PUSH FFFFFFFFFFFFFFFF\t\t\t\n      DUP2 \t\t\t\n      GT \t\t\t\n      ISZERO \t\t\t\n      PUSH [tag] 702\t\t\t\n      JUMPI \t\t\t\n      PUSH [tag] 703\t\t\t\n      PUSH [tag] 370\t\t\t\n      JUMP \t\t\t\n    tag 703\t\t\t\n      JUMPDEST \t\t\t\n    tag 702\t\t\t\n      JUMPDEST \t\t\t\n      PUSH [tag] 704\t\t\t\n      DUP3 \t\t\t\n      SLOAD \t\t\t\n      PUSH [tag] 164\t\t\t\n      JUMP \t\t\t\n    tag 704\t\t\t\n      JUMPDEST \t\t\t\n      PUSH [tag] 705\t\t\t\n      DUP3 \t\t\t\n      DUP3 \t\t\t\n      DUP6 \t\t\t\n      PUSH [tag] 431\t\t\t\n      JUMP \t\t\t\n    tag 705\t\t\t\n      JUMPDEST \t\t\t\n      PUSH 0\t\t\t\n      PUSH 1F\t\t\t\n      DUP4 \t\t\t\n      GT \t\t\t\n      PUSH 1\t\t\t\n      DUP2 \t\t\t\n      EQ \t\t\t\n      PUSH [tag] 707\t\t\t\n      JUMPI \t\t\t\n      PUSH 0\t\t\t\n      DUP5 \t\t\t\n      ISZERO \t\t\t\n      PUSH [tag] 708\t\t\t\n      JUMPI \t\t\t\n      DUP3 \t\t\t\n      DUP8 \t\t\t\n      ADD \t\t\t\n      SLOAD \t\t\t\n      SWAP1 \t\t\t\n      POP \t\t\t\n    tag 708\t\t\t\n      JUMPDEST \t\t\t\n      PUSH [tag] 709\t\t\t\n      DUP6 \t\t\t\n      DUP3 \t\t\t\n      PUSH [tag] 434\t\t\t\n      JUMP \t\t\t\n    tag 709\t\t\t\n      JUMPDEST \t\t\t\n      DUP7 \t\t\t\n      SSTORE \t\t\t\n      POP \t\t\t\n      PUSH [tag] 706\t\t\t\n      JUMP \t\t\t\n    tag 707\t\t\t\n      JUMPDEST \t\t\t\n      PUSH 1F\t\t\t\n      NOT \t\t\t\n      DUP5 \t\t\t\n      AND \t\t\t\n      PUSH [tag] 710\t\t\t\n      DUP8 \t\t\t\n      PUSH [tag] 420\t\t\t\n      JUMP \t\t\t\n    tag 710\t\t\t\n      JUMPDEST \t\t\t\n      SWAP7 \t\t\t\n      POP \t\t\t\n      PUSH [tag] 711\t\t\t\n      DUP7 \t\t\t\n      PUSH [tag] 415\t\t\t\n      JUMP \t\t\t\n    tag 711\t\t\t\n      JUMPDEST \t\t\t\n      PUSH 0\t\t\t\n    tag 712\t\t\t\n      JUMPDEST \t\t\t\n      DUP3 \t\t\t\n      DUP2 \t\t\t\n      LT \t\t\t\n      ISZERO \t\t\t\n      PUSH [tag] 714\t\t\t\n      JUMPI \t\t\t\n      DUP5 \t\t\t\n      DUP10 \t\t\t\n      ADD \t\t\t\n      SLOAD \t\t\t\n      DUP3 \t\t\t\n      SSTORE \t\t\t\n      PUSH 1\t\t\t\n      DUP3 \t\t\t\n      ADD \t\t\t\n      SWAP2 \t\t\t\n      POP \t\t\t\n      PUSH 1\t\t\t\n      DUP6 \t\t\t\n      ADD \t\t\t\n      SWAP5 \t\t\t\n      POP \t\t\t\n      PUSH 20\t\t\t\n      DUP2 \t\t\t\n      ADD \t\t\t\n      SWAP1 \t\t\t\n      POP \t\t\t\n      PUSH [tag] 712\t\t\t\n      JUMP \t\t\t\n    tag 714\t\t\t\n      JUMPDEST \t\t\t\n      DUP7 \t\t\t\n      DUP4 \t\t\t\n      LT \t\t\t\n      ISZERO \t\t\t\n      PUSH [tag] 715\t\t\t\n      JUMPI \t\t\t\n      DUP5 \t\t\t\n      DUP10 \t\t\t\n      ADD \t\t\t\n      SLOAD \t\t\t\n      PUSH [tag] 716\t\t\t\n      PUSH 1F\t\t\t\n      DUP10 \t\t\t\n      AND \t\t\t\n      DUP3 \t\t\t\n      PUSH [tag] 433\t\t\t\n      JUMP \t\t\t\n    tag 716\t\t\t\n      JUMPDEST \t\t\t\n      DUP4 \t\t\t\n      SSTORE \t\t\t\n      POP \t\t\t\n    tag 715\t\t\t\n      JUMPDEST \t\t\t\n      PUSH 1\t\t\t\n      PUSH 2\t\t\t\n      DUP9 \t\t\t\n      MUL \t\t\t\n      ADD \t\t\t\n      DUP9 \t\t\t\n      SSTORE \t\t\t\n      POP \t\t\t\n      POP \t\t\t\n      POP \t\t\t\n    tag 706\t\t\t\n      JUMPDEST \t\t\t\n      POP \t\t\t\n      POP \t\t\t\n      POP \t\t\t\n      POP \t\t\t\n      POP \t\t\t\n      POP \t\t\t\n    tag 699\t\t\t\n      JUMPDEST \t\t\t\n      JUMP \t\t\t\n    tag 78\t\t\t\n      JUMPDEST \t\t\t\n      PUSH 4E487B7100000000000000000000000000000000000000000000000000000000\t\t\t\n      PUSH 0\t\t\t\n      MSTORE \t\t\t\n      PUSH 31\t\t\t\n      PUSH 4\t\t\t\n      MSTORE \t\t\t\n      PUSH 24\t\t\t\n      PUSH 0\t\t\t\n      REVERT \t\t\t\n    tag 83\t\t\t\n      JUMPDEST \t\t\t\n      PUSH 0\t\t\t\n      PUSH [tag] 719\t\t\t\n      DUP3 \t\t\t\n      PUSH [tag] 417\t\t\t\n      JUMP \t\t\t\n    tag 719\t\t\t\n      JUMPDEST \t\t\t\n      SWAP2 \t\t\t\n      POP \t\t\t\n      PUSH FFFFFFFFFFFFFFFFFFFFFFFFFFFFFFFFFFFFFFFFFFFFFFFFFFFFFFFFFFFFFFFF\t\t\t\n      DUP3 \t\t\t\n      SUB \t\t\t\n      PUSH [tag] 720\t\t\t\n      JUMPI \t\t\t\n      PUSH [tag] 721\t\t\t\n      PUSH [tag] 418\t\t\t\n      JUMP \t\t\t\n    tag 721\t\t\t\n      JUMPDEST \t\t\t\n    tag 720\t\t\t\n      JUMPDEST \t\t\t\n      PUSH 1\t\t\t\n      DUP3 \t\t\t\n      ADD \t\t\t\n      SWAP1 \t\t\t\n      POP \t\t\t\n      SWAP2 \t\t\t\n      SWAP1 \t\t\t\n      POP \t\t\t\n      JUMP \t\t\t\n    tag 435\t\t\t\n      JUMPDEST \t\t\t\n      PUSH 4469726563746F727920646F65736E7420657869737400000000000000000000\t\t\t\n      PUSH 0\t\t\t\n      DUP3 \t\t\t\n      ADD \t\t\t\n      MSTORE \t\t\t\n      POP \t\t\t\n      JUMP \t\t\t\n    tag 436\t\t\t\n      JUMPDEST \t\t\t\n      PUSH 0\t\t\t\n      PUSH [tag] 724\t\t\t\n      PUSH 16\t\t\t\n      DUP4 \t\t\t\n      PUSH [tag] 382\t\t\t\n      JUMP \t\t\t\n    tag 724\t\t\t\n      JUMPDEST \t\t\t\n      SWAP2 \t\t\t\n      POP \t\t\t\n      PUSH [tag] 725\t\t\t\n      DUP3 \t\t\t\n      PUSH [tag] 435\t\t\t\n      JUMP \t\t\t\n    tag 725\t\t\t\n      JUMPDEST \t\t\t\n      PUSH 20\t\t\t\n      DUP3 \t\t\t\n      ADD \t\t\t\n      SWAP1 \t\t\t\n      POP \t\t\t\n      SWAP2 \t\t\t\n      SWAP1 \t\t\t\n      POP \t\t\t\n      JUMP \t\t\t\n    tag 98\t\t\t\n      JUMPDEST \t\t\t\n      PUSH 0\t\t\t\n      PUSH 20\t\t\t\n      DUP3 \t\t\t\n      ADD \t\t\t\n      SWAP1 \t\t\t\n      POP \t\t\t\n      DUP2 \t\t\t\n      DUP2 \t\t\t\n      SUB \t\t\t\n      PUSH 0\t\t\t\n      DUP4 \t\t\t\n      ADD \t\t\t\n      MSTORE \t\t\t\n      PUSH [tag] 727\t\t\t\n      DUP2 \t\t\t\n      PUSH [tag] 436\t\t\t\n      JUMP \t\t\t\n    tag 727\t\t\t\n      JUMPDEST \t\t\t\n      SWAP1 \t\t\t\n      POP \t\t\t\n      SWAP2 \t\t\t\n      SWAP1 \t\t\t\n      POP \t\t\t\n      JUMP \t\t\t\n    tag 437\t\t\t\n      JUMPDEST \t\t\t\n      PUSH 46696C6520616C72656164792065786973740000000000000000000000000000\t\t\t\n      PUSH 0\t\t\t\n      DUP3 \t\t\t\n      ADD \t\t\t\n      MSTORE \t\t\t\n      POP \t\t\t\n      JUMP \t\t\t\n    tag 438\t\t\t\n      JUMPDEST \t\t\t\n      PUSH 0\t\t\t\n      PUSH [tag] 730\t\t\t\n      PUSH 12\t\t\t\n      DUP4 \t\t\t\n      PUSH [tag] 382\t\t\t\n      JUMP \t\t\t\n    tag 730\t\t\t\n      JUMPDEST \t\t\t\n      SWAP2 \t\t\t\n      POP \t\t\t\n      PUSH [tag] 731\t\t\t\n      DUP3 \t\t\t\n      PUSH [tag] 437\t\t\t\n      JUMP \t\t\t\n    tag 731\t\t\t\n      JUMPDEST \t\t\t\n      PUSH 20\t\t\t\n      DUP3 \t\t\t\n      ADD \t\t\t\n      SWAP1 \t\t\t\n      POP \t\t\t\n      SWAP2 \t\t\t\n      SWAP1 \t\t\t\n      POP \t\t\t\n      JUMP \t\t\t\n    tag 103\t\t\t\n      JUMPDEST \t\t\t\n      PUSH 0\t\t\t\n      PUSH 20\t\t\t\n      DUP3 \t\t\t\n      ADD \t\t\t\n      SWAP1 \t\t\t\n      POP \t\t\t\n      DUP2 \t\t\t\n      DUP2 \t\t\t\n      SUB \t\t\t\n      PUSH 0\t\t\t\n      DUP4 \t\t\t\n      ADD \t\t\t\n      MSTORE \t\t\t\n      PUSH [tag] 733\t\t\t\n      DUP2 \t\t\t\n      PUSH [tag] 438\t\t\t\n      JUMP \t\t\t\n    tag 733\t\t\t\n      JUMPDEST \t\t\t\n      SWAP1 \t\t\t\n      POP \t\t\t\n      SWAP2 \t\t\t\n      SWAP1 \t\t\t\n      POP \t\t\t\n      JUMP \t\t\t\n    tag 106\t\t\t\n      JUMPDEST \t\t\t\n      PUSH [tag] 735\t\t\t\n      DUP3 \t\t\t\n      PUSH [tag] 381\t\t\t\n      JUMP \t\t\t\n    tag 735\t\t\t\n      JUMPDEST \t\t\t\n      PUSH FFFFFFFFFFFFFFFF\t\t\t\n      DUP2 \t\t\t\n      GT \t\t\t\n      ISZERO \t\t\t\n      PUSH [tag] 736\t\t\t\n      JUMPI \t\t\t\n      PUSH [tag] 737\t\t\t\n      PUSH [tag] 370\t\t\t\n      JUMP \t\t\t\n    tag 737\t\t\t\n      JUMPDEST \t\t\t\n    tag 736\t\t\t\n      JUMPDEST \t\t\t\n      PUSH [tag] 738\t\t\t\n      DUP3 \t\t\t\n      SLOAD \t\t\t\n      PUSH [tag] 164\t\t\t\n      JUMP \t\t\t\n    tag 738\t\t\t\n      JUMPDEST \t\t\t\n      PUSH [tag] 739\t\t\t\n      DUP3 \t\t\t\n      DUP3 \t\t\t\n      DUP6 \t\t\t\n      PUSH [tag] 431\t\t\t\n      JUMP \t\t\t\n    tag 739\t\t\t\n      JUMPDEST \t\t\t\n      PUSH 0\t\t\t\n      PUSH 20\t\t\t\n      SWAP1 \t\t\t\n      POP \t\t\t\n      PUSH 1F\t\t\t\n      DUP4 \t\t\t\n      GT \t\t\t\n      PUSH 1\t\t\t\n      DUP2 \t\t\t\n      EQ \t\t\t\n      PUSH [tag] 741\t\t\t\n      JUMPI \t\t\t\n      PUSH 0\t\t\t\n      DUP5 \t\t\t\n      ISZERO \t\t\t\n      PUSH [tag] 742\t\t\t\n      JUMPI \t\t\t\n      DUP3 \t\t\t\n      DUP8 \t\t\t\n      ADD \t\t\t\n      MLOAD \t\t\t\n      SWAP1 \t\t\t\n      POP \t\t\t\n    tag 742\t\t\t\n      JUMPDEST \t\t\t\n      PUSH [tag] 743\t\t\t\n      DUP6 \t\t\t\n      DUP3 \t\t\t\n      PUSH [tag] 434\t\t\t\n      JUMP \t\t\t\n    tag 743\t\t\t\n      JUMPDEST \t\t\t\n      DUP7 \t\t\t\n      SSTORE \t\t\t\n      POP \t\t\t\n      PUSH [tag] 740\t\t\t\n      JUMP \t\t\t\n    tag 741\t\t\t\n      JUMPDEST \t\t\t\n      PUSH 1F\t\t\t\n      NOT \t\t\t\n      DUP5 \t\t\t\n      AND \t\t\t\n      PUSH [tag] 744\t\t\t\n      DUP7 \t\t\t\n      PUSH [tag] 415\t\t\t\n      JUMP \t\t\t\n    tag 744\t\t\t\n      JUMPDEST \t\t\t\n      PUSH 0\t\t\t\n    tag 745\t\t\t\n      JUMPDEST \t\t\t\n      DUP3 \t\t\t\n      DUP2 \t\t\t\n      LT \t\t\t\n      ISZERO \t\t\t\n      PUSH [tag] 747\t\t\t\n      JUMPI \t\t\t\n      DUP5 \t\t\t\n      DUP10 \t\t\t\n      ADD \t\t\t\n      MLOAD \t\t\t\n      DUP3 \t\t\t\n      SSTORE \t\t\t\n      PUSH 1\t\t\t\n      DUP3 \t\t\t\n      ADD \t\t\t\n      SWAP2 \t\t\t\n      POP \t\t\t\n      PUSH 20\t\t\t\n      DUP6 \t\t\t\n      ADD \t\t\t\n      SWAP5 \t\t\t\n      POP \t\t\t\n      PUSH 20\t\t\t\n      DUP2 \t\t\t\n      ADD \t\t\t\n      SWAP1 \t\t\t\n      POP \t\t\t\n      PUSH [tag] 745\t\t\t\n      JUMP \t\t\t\n    tag 747\t\t\t\n      JUMPDEST \t\t\t\n      DUP7 \t\t\t\n      DUP4 \t\t\t\n      LT \t\t\t\n      ISZERO \t\t\t\n      PUSH [tag] 748\t\t\t\n      JUMPI \t\t\t\n      DUP5 \t\t\t\n      DUP10 \t\t\t\n      ADD \t\t\t\n      MLOAD \t\t\t\n      PUSH [tag] 749\t\t\t\n      PUSH 1F\t\t\t\n      DUP10 \t\t\t\n      AND \t\t\t\n      DUP3 \t\t\t\n      PUSH [tag] 433\t\t\t\n      JUMP \t\t\t\n    tag 749\t\t\t\n      JUMPDEST \t\t\t\n      DUP4 \t\t\t\n      SSTORE \t\t\t\n      POP \t\t\t\n    tag 748\t\t\t\n      JUMPDEST \t\t\t\n      PUSH 1\t\t\t\n      PUSH 2\t\t\t\n      DUP9 \t\t\t\n      MUL \t\t\t\n      ADD \t\t\t\n      DUP9 \t\t\t\n      SSTORE \t\t\t\n      POP \t\t\t\n      POP \t\t\t\n      POP \t\t\t\n    tag 740\t\t\t\n      JUMPDEST \t\t\t\n      POP \t\t\t\n      POP \t\t\t\n      POP \t\t\t\n      POP \t\t\t\n      POP \t\t\t\n      POP \t\t\t\n      JUMP \t\t\t\n    tag 439\t\t\t\n      JUMPDEST \t\t\t\n      PUSH 4469726563746F727920616C7265616479206578697374000000000000000000\t\t\t\n      PUSH 0\t\t\t\n      DUP3 \t\t\t\n      ADD \t\t\t\n      MSTORE \t\t\t\n      POP \t\t\t\n      JUMP \t\t\t\n    tag 440\t\t\t\n      JUMPDEST \t\t\t\n      PUSH 0\t\t\t\n      PUSH [tag] 752\t\t\t\n      PUSH 17\t\t\t\n      DUP4 \t\t\t\n      PUSH [tag] 382\t\t\t\n      JUMP \t\t\t\n    tag 752\t\t\t\n      JUMPDEST \t\t\t\n      SWAP2 \t\t\t\n      POP \t\t\t\n      PUSH [tag] 753\t\t\t\n      DUP3 \t\t\t\n      PUSH [tag] 439\t\t\t\n      JUMP \t\t\t\n    tag 753\t\t\t\n      JUMPDEST \t\t\t\n      PUSH 20\t\t\t\n      DUP3 \t\t\t\n      ADD \t\t\t\n      SWAP1 \t\t\t\n      POP \t\t\t\n      SWAP2 \t\t\t\n      SWAP1 \t\t\t\n      POP \t\t\t\n      JUMP \t\t\t\n    tag 125\t\t\t\n      JUMPDEST \t\t\t\n      PUSH 0\t\t\t\n      PUSH 20\t\t\t\n      DUP3 \t\t\t\n      ADD \t\t\t\n      SWAP1 \t\t\t\n      POP \t\t\t\n      DUP2 \t\t\t\n      DUP2 \t\t\t\n      SUB \t\t\t\n      PUSH 0\t\t\t\n      DUP4 \t\t\t\n      ADD \t\t\t\n      MSTORE \t\t\t\n      PUSH [tag] 755\t\t\t\n      DUP2 \t\t\t\n      PUSH [tag] 440\t\t\t\n      JUMP \t\t\t\n    tag 755\t\t\t\n      JUMPDEST \t\t\t\n      SWAP1 \t\t\t\n      POP \t\t\t\n      SWAP2 \t\t\t\n      SWAP1 \t\t\t\n      POP \t\t\t\n      JUMP \t\t\t\n    tag 441\t\t\t\n      JUMPDEST \t\t\t\n      PUSH 4E6F7420656E6F756768207065726D697373696F6E7300000000000000000000\t\t\t\n      PUSH 0\t\t\t\n      DUP3 \t\t\t\n      ADD \t\t\t\n      MSTORE \t\t\t\n      POP \t\t\t\n      JUMP \t\t\t\n    tag 442\t\t\t\n      JUMPDEST \t\t\t\n      PUSH 0\t\t\t\n      PUSH [tag] 758\t\t\t\n      PUSH 16\t\t\t\n      DUP4 \t\t\t\n      PUSH [tag] 382\t\t\t\n      JUMP \t\t\t\n    tag 758\t\t\t\n      JUMPDEST \t\t\t\n      SWAP2 \t\t\t\n      POP \t\t\t\n      PUSH [tag] 759\t\t\t\n      DUP3 \t\t\t\n      PUSH [tag] 441\t\t\t\n      JUMP \t\t\t\n    tag 759\t\t\t\n      JUMPDEST \t\t\t\n      PUSH 20\t\t\t\n      DUP3 \t\t\t\n      ADD \t\t\t\n      SWAP1 \t\t\t\n      POP \t\t\t\n      SWAP2 \t\t\t\n      SWAP1 \t\t\t\n      POP \t\t\t\n      JUMP \t\t\t\n    tag 172\t\t\t\n      JUMPDEST \t\t\t\n      PUSH 0\t\t\t\n      PUSH 20\t\t\t\n      DUP3 \t\t\t\n      ADD \t\t\t\n      SWAP1 \t\t\t\n      POP \t\t\t\n      DUP2 \t\t\t\n      DUP2 \t\t\t\n      SUB \t\t\t\n      PUSH 0\t\t\t\n      DUP4 \t\t\t\n      ADD \t\t\t\n      MSTORE \t\t\t\n      PUSH [tag] 761\t\t\t\n      DUP2 \t\t\t\n      PUSH [tag] 442\t\t\t\n      JUMP \t\t\t\n    tag 761\t\t\t\n      JUMPDEST \t\t\t\n      SWAP1 \t\t\t\n      POP \t\t\t\n      SWAP2 \t\t\t\n      SWAP1 \t\t\t\n      POP \t\t\t\n      JUMP \t\t\t\n    tag 443\t\t\t\n      JUMPDEST \t\t\t\n      PUSH 0\t\t\t\n      DUP2 \t\t\t\n      SLOAD \t\t\t\n      SWAP1 \t\t\t\n      POP \t\t\t\n      PUSH [tag] 763\t\t\t\n      DUP2 \t\t\t\n      PUSH [tag] 164\t\t\t\n      JUMP \t\t\t\n    tag 763\t\t\t\n      JUMPDEST \t\t\t\n      SWAP1 \t\t\t\n      POP \t\t\t\n      SWAP2 \t\t\t\n      SWAP1 \t\t\t\n      POP \t\t\t\n      JUMP \t\t\t\n    tag 287\t\t\t\n      JUMPDEST \t\t\t\n      DUP2 \t\t\t\n      DUP2 \t\t\t\n      SUB \t\t\t\n      PUSH [tag] 765\t\t\t\n      JUMPI \t\t\t\n      POP \t\t\t\n      POP \t\t\t\n      PUSH [tag] 764\t\t\t\n      JUMP \t\t\t\n    tag 765\t\t\t\n      JUMPDEST \t\t\t\n      PUSH [tag] 766\t\t\t\n      DUP3 \t\t\t\n      PUSH [tag] 443\t\t\t\n      JUMP \t\t\t\n    tag 766\t\t\t\n      JUMPDEST \t\t\t\n      PUSH FFFFFFFFFFFFFFFF\t\t\t\n      DUP2 \t\t\t\n      GT \t\t\t\n      ISZERO \t\t\t\n      PUSH [tag] 767\t\t\t\n      JUMPI \t\t\t\n      PUSH [tag] 768\t\t\t\n      PUSH [tag] 370\t\t\t\n      JUMP \t\t\t\n    tag 768\t\t\t\n      JUMPDEST \t\t\t\n    tag 767\t\t\t\n      JUMPDEST \t\t\t\n      PUSH [tag] 769\t\t\t\n      DUP3 \t\t\t\n      SLOAD \t\t\t\n      PUSH [tag] 164\t\t\t\n      JUMP \t\t\t\n    tag 769\t\t\t\n      JUMPDEST \t\t\t\n      PUSH [tag] 770\t\t\t\n      DUP3 \t\t\t\n      DUP3 \t\t\t\n      DUP6 \t\t\t\n      PUSH [tag] 431\t\t\t\n      JUMP \t\t\t\n    tag 770\t\t\t\n      JUMPDEST \t\t\t\n      PUSH 0\t\t\t\n      PUSH 1F\t\t\t\n      DUP4 \t\t\t\n      GT \t\t\t\n      PUSH 1\t\t\t\n      DUP2 \t\t\t\n      EQ \t\t\t\n      PUSH [tag] 772\t\t\t\n      JUMPI \t\t\t\n      PUSH 0\t\t\t\n      DUP5 \t\t\t\n      ISZERO \t\t\t\n      PUSH [tag] 773\t\t\t\n      JUMPI \t\t\t\n      DUP3 \t\t\t\n      DUP8 \t\t\t\n      ADD \t\t\t\n      SLOAD \t\t\t\n      SWAP1 \t\t\t\n      POP \t\t\t\n    tag 773\t\t\t\n      JUMPDEST \t\t\t\n      PUSH [tag] 774\t\t\t\n      DUP6 \t\t\t\n      DUP3 \t\t\t\n      PUSH [tag] 434\t\t\t\n      JUMP \t\t\t\n    tag 774\t\t\t\n      JUMPDEST \t\t\t\n      DUP7 \t\t\t\n      SSTORE \t\t\t\n      POP \t\t\t\n      PUSH [tag] 771\t\t\t\n      JUMP \t\t\t\n    tag 772\t\t\t\n      JUMPDEST \t\t\t\n      PUSH 1F\t\t\t\n      NOT \t\t\t\n      DUP5 \t\t\t\n      AND \t\t\t\n      PUSH [tag] 775\t\t\t\n      DUP8 \t\t\t\n      PUSH [tag] 415\t\t\t\n      JUMP \t\t\t\n    tag 775\t\t\t\n      JUMPDEST \t\t\t\n      SWAP7 \t\t\t\n      POP \t\t\t\n      PUSH [tag] 776\t\t\t\n      DUP7 \t\t\t\n      PUSH [tag] 415\t\t\t\n      JUMP \t\t\t\n    tag 776\t\t\t\n      JUMPDEST \t\t\t\n      PUSH 0\t\t\t\n    tag 777\t\t\t\n      JUMPDEST \t\t\t\n      DUP3 \t\t\t\n      DUP2 \t\t\t\n      LT \t\t\t\n      ISZERO \t\t\t\n      PUSH [tag] 779\t\t\t\n      JUMPI \t\t\t\n      DUP5 \t\t\t\n      DUP10 \t\t\t\n      ADD \t\t\t\n      SLOAD \t\t\t\n      DUP3 \t\t\t\n      SSTORE \t\t\t\n      PUSH 1\t\t\t\n      DUP3 \t\t\t\n      ADD \t\t\t\n      SWAP2 \t\t\t\n      POP \t\t\t\n      PUSH 1\t\t\t\n      DUP6 \t\t\t\n      ADD \t\t\t\n      SWAP5 \t\t\t\n      POP \t\t\t\n      PUSH 20\t\t\t\n      DUP2 \t\t\t\n      ADD \t\t\t\n      SWAP1 \t\t\t\n      POP \t\t\t\n      PUSH [tag] 777\t\t\t\n      JUMP \t\t\t\n    tag 779\t\t\t\n      JUMPDEST \t\t\t\n      DUP7 \t\t\t\n      DUP4 \t\t\t\n      LT \t\t\t\n      ISZERO \t\t\t\n      PUSH [tag] 780\t\t\t\n      JUMPI \t\t\t\n      DUP5 \t\t\t\n      DUP10 \t\t\t\n      ADD \t\t\t\n      SLOAD \t\t\t\n      PUSH [tag] 781\t\t\t\n      PUSH 1F\t\t\t\n      DUP10 \t\t\t\n      AND \t\t\t\n      DUP3 \t\t\t\n      PUSH [tag] 433\t\t\t\n      JUMP \t\t\t\n    tag 781\t\t\t\n      JUMPDEST \t\t\t\n      DUP4 \t\t\t\n      SSTORE \t\t\t\n      POP \t\t\t\n    tag 780\t\t\t\n      JUMPDEST \t\t\t\n      PUSH 1\t\t\t\n      PUSH 2\t\t\t\n      DUP9 \t\t\t\n      MUL \t\t\t\n      ADD \t\t\t\n      DUP9 \t\t\t\n      SSTORE \t\t\t\n      POP \t\t\t\n      POP \t\t\t\n      POP \t\t\t\n    tag 771\t\t\t\n      JUMPDEST \t\t\t\n      POP \t\t\t\n      POP \t\t\t\n      POP \t\t\t\n      POP \t\t\t\n      POP \t\t\t\n      POP \t\t\t\n    tag 764\t\t\t\n      JUMPDEST \t\t\t\n      JUMP \t\t\t\n    .data\n"
}